{"bytecode":"60806040523480156200001157600080fd5b5060405162004d9e38038062004d9e833981016040819052620000349162000420565b6040518060400160405280601781526020017f466c6f7261264661756e6120426174746c656669656c640000000000000000008152506040518060400160405280600781526020016623132316a12a2360c91b815250838360006200009e6200033560201b60201c565b600080546001600160a01b0319166001600160a01b0383169081178255604051929350917f8be0079c531659141344cd1fd0a4f28419497f9722a3daafe3b4186f6b6457e0908290a3506000805460ff60a01b19168155601460018190556103e8600a55600680546001600160a01b038087166001600160a01b031992831617909255600780549286169290911691909117905560088290556009919091556040517f21e5668ec8085df78c0955e48cdf5939d94bd27059bd915d1258f6ec278c922d91620001709190815260200190565b60405180910390a1505081516200018f90600b90602085019062000339565b508051620001a590600c90602084019062000339565b50506001601955506006546040805162f8543f60e81b815290516001600160a01b039092169163f8543f0091600480820192602092909190829003018186803b158015620001f257600080fd5b505afa15801562000207573d6000803e3d6000fd5b505050506040513d601f19601f820116820180604052508101906200022d9190620003fc565b601280546001600160a01b0319166001600160a01b039283161790556007546040805162f8543f60e81b81529051919092169163f8543f00916004808301926020929190829003018186803b1580156200028657600080fd5b505afa1580156200029b573d6000803e3d6000fd5b505050506040513d601f19601f82011682018060405250810190620002c19190620003fc565b601380546001600160a01b0319166001600160a01b039290921691909117905562278d006017556206978060185560408051808201909152600b8082526a39b2b934b2b9973539b7b760a91b60209092019182526200032391601a9162000339565b505064e8d4a51000601b555062000494565b3390565b828054620003479062000457565b90600052602060002090601f0160209004810192826200036b5760008555620003b6565b82601f106200038657805160ff1916838001178555620003b6565b82800160010185558215620003b6579182015b82811115620003b657825182559160200191906001019062000399565b50620003c4929150620003c8565b5090565b5b80821115620003c45760008155600101620003c9565b80516001600160a01b0381168114620003f757600080fd5b919050565b6000602082840312156200040e578081fd5b6200041982620003df565b9392505050565b6000806040838503121562000433578081fd5b6200043e83620003df565b91506200044e60208401620003df565b90509250929050565b600181811c908216806200046c57607f821691505b602082108114156200048e57634e487b7160e01b600052602260045260246000fd5b50919050565b6148fa80620004a46000396000f3fe6080604052600436106103355760003560e01c806378ca994b116101ab578063b384abef116100f7578063d3a7ff1311610095578063e985e9c51161006f578063e985e9c5146109a6578063ea88a3b8146109ef578063ec4155a414610a05578063f2fde38b14610a1b57610335565b8063d3a7ff1314610950578063da9f2f6814610970578063dc5550901461099057610335565b8063b9223946116100d1578063b9223946146108d5578063c60043ab146108ea578063c72eafa914610900578063c87b56dd1461093057610335565b8063b384abef14610875578063b680649214610895578063b88d4fde146108b557610335565b80639f6e1b7211610164578063a4acce6f1161013e578063a4acce6f146107f3578063a4cf84d114610813578063aa98df3914610835578063b04329291461084857610335565b80639f6e1b721461079d578063a22cb465146107b3578063a4a3578a146107d357610335565b806378ca994b146106e85780638da5cb5b1461070857806392e8bbdc1461072657806395414cce1461075357806395d89b41146107685780639daedb151461077d57610335565b8063331cd2cc1161028557806355ba237411610223578063682904a5116101fd578063682904a51461066657806370a0823114610686578063715018a6146106a657806376ad6873146106bb57610335565b806355ba23741461061057806361b5b7fc146106305780636352211e1461064657610335565b8063390d68551161025f578063390d68551461059b57806342842e0e146105bb5780634c0a6af0146105db57806353fb4512146105f057610335565b8063331cd2cc1461052a57806336baa7f71461055a57806338e1359a1461057b57610335565b806315cea39b116102f257806323b872dd116102cc57806323b872dd146104b45780632a46ceb7146104d45780632c708d14146104ea57806330df04471461050a57610335565b806315cea39b1461044e5780631721952214610470578063233cf4721461049457610335565b8063013cf08b1461033a57806301b7fc1d1461037257806301ffc9a7146103b257806306fdde03146103d2578063081812fc146103f4578063095ea7b31461042c575b600080fd5b34801561034657600080fd5b5061035a61035536600461415b565b610a3b565b604051610369939291906143b2565b60405180910390f35b34801561037e57600080fd5b506103a261038d36600461415b565b60046020526000908152604090205460ff1681565b6040519015158152602001610369565b3480156103be57600080fd5b506103a26103cd3660046140b6565b610b03565b3480156103de57600080fd5b506103e7610b57565b604051610369919061452c565b34801561040057600080fd5b5061041461040f36600461415b565b610be9565b6040516001600160a01b039091168152602001610369565b34801561043857600080fd5b5061044c61044736600461406f565b610c76565b005b34801561045a57600080fd5b50610463610d8c565b60405161036991906143e6565b34801561047c57600080fd5b5061048660195481565b604051908152602001610369565b3480156104a057600080fd5b50600654610414906001600160a01b031681565b3480156104c057600080fd5b5061044c6104cf366004613ee2565b610e4b565b3480156104e057600080fd5b5061048660185481565b3480156104f657600080fd5b506104866105053660046141af565b610e7c565b34801561051657600080fd5b5061044c61052536600461415b565b610ead565b34801561053657600080fd5b506103a261054536600461415b565b60036020526000908152604090205460ff1681565b34801561056657600080fd5b506000546103a290600160a01b900460ff1681565b34801561058757600080fd5b5061044c61059636600461415b565b610edc565b3480156105a757600080fd5b5061044c6105b636600461418b565b6111cf565b3480156105c757600080fd5b5061044c6105d6366004613ee2565b61122f565b3480156105e757600080fd5b5061044c61124a565b3480156105fc57600080fd5b5061041461060b36600461415b565b611383565b34801561061c57600080fd5b5061044c61062b3660046141af565b611664565b34801561063c57600080fd5b5061048660095481565b34801561065257600080fd5b5061041461066136600461415b565b611a79565b34801561067257600080fd5b5061044c61068136600461415b565b611af0565b34801561069257600080fd5b506104866106a1366004613e72565b611cd7565b3480156106b257600080fd5b5061044c611d5e565b3480156106c757600080fd5b506106db6106d636600461415b565b611dd2565b6040516103699190614716565b3480156106f457600080fd5b50601354610414906001600160a01b031681565b34801561071457600080fd5b506000546001600160a01b0316610414565b34801561073257600080fd5b5061048661074136600461415b565b60156020526000908152604090205481565b34801561075f57600080fd5b506103e7611e2d565b34801561077457600080fd5b506103e7611ebb565b34801561078957600080fd5b50600754610414906001600160a01b031681565b3480156107a957600080fd5b5061048660085481565b3480156107bf57600080fd5b5061044c6107ce366004613ffb565b611eca565b3480156107df57600080fd5b5061044c6107ee36600461415b565b611f9c565b3480156107ff57600080fd5b5061044c61080e3660046140ee565b611fcb565b34801561081f57600080fd5b50610828612001565b6040516103699190614447565b61044c6108433660046140ee565b612112565b34801561085457600080fd5b5061086861086336600461415b565b6122d5565b60405161036991906144d2565b34801561088157600080fd5b5061044c6108903660046141af565b612337565b3480156108a157600080fd5b5061044c6108b036600461415b565b6127a1565b3480156108c157600080fd5b5061044c6108d0366004613f22565b6127d0565b3480156108e157600080fd5b5061044c612808565b3480156108f657600080fd5b5061048660015481565b34801561090c57600080fd5b506103a261091b36600461415b565b60056020526000908152604090205460ff1681565b34801561093c57600080fd5b506103e761094b36600461415b565b612bea565b34801561095c57600080fd5b50601254610414906001600160a01b031681565b34801561097c57600080fd5b5061044c61098b3660046141af565b612d62565b34801561099c57600080fd5b5061048660165481565b3480156109b257600080fd5b506103a26109c1366004613eaa565b6001600160a01b03918216600090815260106020908152604080832093909416825291909152205460ff1690565b3480156109fb57600080fd5b50610486601b5481565b348015610a1157600080fd5b5061048660175481565b348015610a2757600080fd5b5061044c610a36366004613e72565b613162565b60148181548110610a4b57600080fd5b6000918252602090912060039091020180546001820180546001600160a01b03909216935090610a7a906147e5565b80601f0160208091040260200160405190810160405280929190818152602001828054610aa6906147e5565b8015610af35780601f10610ac857610100808354040283529160200191610af3565b820191906000526020600020905b815481529060010190602001808311610ad657829003601f168201915b5050505050908060020154905083565b60006001600160e01b031982166380ac58cd60e01b1480610b3457506001600160e01b03198216635b5e139f60e01b145b80610b4f57506301ffc9a760e01b6001600160e01b03198316145b90505b919050565b6060600b8054610b66906147e5565b80601f0160208091040260200160405190810160405280929190818152602001828054610b92906147e5565b8015610bdf5780601f10610bb457610100808354040283529160200191610bdf565b820191906000526020600020905b815481529060010190602001808311610bc257829003601f168201915b5050505050905090565b6000610bf48261324c565b610c5a5760405162461bcd60e51b815260206004820152602c60248201527f4552433732313a20617070726f76656420717565727920666f72206e6f6e657860448201526b34b9ba32b73a103a37b5b2b760a11b60648201526084015b60405180910390fd5b506000908152600f60205260409020546001600160a01b031690565b6000610c8182611a79565b9050806001600160a01b0316836001600160a01b03161415610cef5760405162461bcd60e51b815260206004820152602160248201527f4552433732313a20617070726f76616c20746f2063757272656e74206f776e656044820152603960f91b6064820152608401610c51565b336001600160a01b0382161480610d0b5750610d0b81336109c1565b610d7d5760405162461bcd60e51b815260206004820152603860248201527f4552433732313a20617070726f76652063616c6c6572206973206e6f74206f7760448201527f6e6572206e6f7220617070726f76656420666f7220616c6c00000000000000006064820152608401610c51565b610d878383613269565b505050565b606060015467ffffffffffffffff811115610db757634e487b7160e01b600052604160045260246000fd5b604051908082528060200260200182016040528015610df057816020015b610ddd613c8a565b815260200190600190039081610dd55790505b50905060005b600154811015610e4757610e0981611dd2565b828281518110610e2957634e487b7160e01b600052603260045260246000fd5b60200260200101819052508080610e3f9061481a565b915050610df6565b5090565b610e5533826132d7565b610e715760405162461bcd60e51b8152600401610c51906146c5565b610d878383836133bd565b60026020528160005260406000208181548110610e9857600080fd5b90600052602060002001600091509150505481565b6000546001600160a01b03163314610ed75760405162461bcd60e51b8152600401610c519061464a565b601855565b600081815260026020908152604080832080548251818502810185019093528083529192909190830182828015610f3257602002820191906000526020600020905b815481526020019060010190808311610f1e575b505050505090506000815111610f985760405162461bcd60e51b815260206004820152602560248201527f426174746c656669656c643a20726574726561742066726f6d20656d70747920604482015264199a595b1960da1b6064820152608401610c51565b600081600081518110610fbb57634e487b7160e01b600052603260045260246000fd5b6020908102919091018101516000858152600390925260409091205490915060ff161561109f576006546040516331a9108f60e11b81526004810183905233916001600160a01b031690636352211e9060240160206040518083038186803b15801561102657600080fd5b505afa15801561103a573d6000803e3d6000fd5b505050506040513d601f19601f8201168201806040525081019061105e9190613e8e565b6001600160a01b0316146110845760405162461bcd60e51b8152600401610c5190614613565b6000818152600460205260409020805460ff19169055611158565b6007546040516331a9108f60e11b81526004810183905233916001600160a01b031690636352211e9060240160206040518083038186803b1580156110e357600080fd5b505afa1580156110f7573d6000803e3d6000fd5b505050506040513d601f19601f8201168201806040525081019061111b9190613e8e565b6001600160a01b0316146111415760405162461bcd60e51b8152600401610c5190614613565b6000818152600560205260409020805460ff191690555b600083815260026020526040812061116f91613cb6565b6000838152600360209081526040808320546002909252808320905160ff9092161515929186917f9a3c276128da5bf5f6a0c9b8df4df4c267f0ca732b1708cb8425bf3c308fef19916111c291906144e5565b60405180910390a4505050565b6000546001600160a01b031633146111f95760405162461bcd60e51b8152600401610c519061464a565b6040516001600160a01b0382169083156108fc029084906000818181858888f19350505050158015610d87573d6000803e3d6000fd5b610d87838383604051806020016040528060008152506127d0565b600054600160a01b900460ff16156112a45760405162461bcd60e51b815260206004820152601e60248201527f426174746c656669656c643a206e6f7420696e20766f746520737461746500006044820152606401610c51565b6014546001106113005760405162461bcd60e51b815260206004820152602160248201527f426174746c656669656c643a206e6f7420656e6f7567682070726f706f73616c6044820152607360f81b6064820152608401610c51565b60175460165442916113119161475f565b81101561136b5760405162461bcd60e51b815260206004820152602260248201527f426174746c656669656c643a206e6f742079657420746f20737461727420766f604482015261746560f01b6064820152608401610c51565b6016556000805460ff60a01b1916600160a01b179055565b6000818152600260209081526040808320805482518185028101850190935280835284938301828280156113d657602002820191906000526020600020905b8154815260200190600101908083116113c2575b505050505090508051600014156113f1576000915050610b52565b60008381526003602052604090205460ff16156115775760065481516001600160a01b039091169063d024851690839060009061143e57634e487b7160e01b600052603260045260246000fd5b60200260200101516040518263ffffffff1660e01b815260040161146491815260200190565b60206040518083038186803b15801561147c57600080fd5b505afa158015611490573d6000803e3d6000fd5b505050506040513d601f19601f820116820180604052508101906114b4919061409a565b1561156d5760065481516001600160a01b0390911690636352211e9083906000906114ef57634e487b7160e01b600052603260045260246000fd5b60200260200101516040518263ffffffff1660e01b815260040161151591815260200190565b60206040518083038186803b15801561152d57600080fd5b505afa158015611541573d6000803e3d6000fd5b505050506040513d601f19601f820116820180604052508101906115659190613e8e565b915050610b52565b6000915050610b52565b60075481516001600160a01b039091169063d02485169083906000906115ad57634e487b7160e01b600052603260045260246000fd5b60200260200101516040518263ffffffff1660e01b81526004016115d391815260200190565b60206040518083038186803b1580156115eb57600080fd5b505afa1580156115ff573d6000803e3d6000fd5b505050506040513d601f19601f82011682018060405250810190611623919061409a565b1561156d5760075481516001600160a01b0390911690636352211e9083906000906114ef57634e487b7160e01b600052603260045260246000fd5b50919050565b6000548290600160a01b900460ff16156116905760405162461bcd60e51b8152600401610c519061467f565b60015481106116e15760405162461bcd60e51b815260206004820152601f60248201527f426174746c656669656c643a206669656c64206f7574206f662072616e6765006044820152606401610c51565b60008281526004602052604090205460ff16156117575760405162461bcd60e51b815260206004820152602e60248201527f426174746c656669656c643a2074686520666c6f7261206d696e696f6e20616c60448201526d1c9958591e481bdb88199a595b1960921b6064820152608401610c51565b6006546040516331a9108f60e11b81526004810184905233916001600160a01b031690636352211e9060240160206040518083038186803b15801561179b57600080fd5b505afa1580156117af573d6000803e3d6000fd5b505050506040513d601f19601f820116820180604052508101906117d39190613e8e565b6001600160a01b0316146118445760405162461bcd60e51b815260206004820152603260248201527f426174746c656669656c643a206e6f742074686520636f6d6d616e646572206f60448201527133103a343290333637b9309036b4b734b7b760711b6064820152608401610c51565b60008381526002602090815260408083208054825181850281018501909352808352919290919083018282801561189a57602002820191906000526020600020905b815481526020019060010190808311611886575b505050505090506000815111156119c5576000816000815181106118ce57634e487b7160e01b600052603260045260246000fd5b6020908102919091018101516000878152600390925260409091205490915060ff16156119285760065461190d906001600160a01b031685818461355d565b6000818152600460205260409020805460ff19169055611986565b600654600754611947916001600160a01b03908116918791168461355d565b6000818152600560205260408120805460ff19169055600980549161196b836147ce565b9091555050600880549060006119808361481a565b91905055505b600085815260026020526040812080548692906119b357634e487b7160e01b600052603260045260246000fd5b600091825260209091200155506119fb565b6000848152600260209081526040822080546001810182559083529082200184905560088054916119f58361481a565b91905055505b60008381526004602090815260408083208054600160ff1991821681179092558885526003845282852080549091168217905560029092529182902091519091339187917f9a3c276128da5bf5f6a0c9b8df4df4c267f0ca732b1708cb8425bf3c308fef1991611a6b91906144e5565b60405180910390a450505050565b6000818152600d60205260408120546001600160a01b031680610b4f5760405162461bcd60e51b815260206004820152602960248201527f4552433732313a206f776e657220717565727920666f72206e6f6e657869737460448201526832b73a103a37b5b2b760b91b6064820152608401610c51565b6000546001600160a01b03163314611b1a5760405162461bcd60e51b8152600401610c519061464a565b8060016000828254611b2c919061475f565b909155505060075460408051633c4407a560e11b815290516001600160a01b03909216916378880f4a91600480820192602092909190829003018186803b158015611b7657600080fd5b505afa158015611b8a573d6000803e3d6000fd5b505050506040513d601f19601f82011682018060405250810190611bae9190614173565b600660009054906101000a90046001600160a01b03166001600160a01b03166378880f4a6040518163ffffffff1660e01b815260040160206040518083038186803b158015611bfc57600080fd5b505afa158015611c10573d6000803e3d6000fd5b505050506040513d601f19601f82011682018060405250810190611c349190614173565b611c3e919061475f565b60015410611c995760405162461bcd60e51b815260206004820152602260248201527f426174746c656669656c643a206e6f206e65656420666f7220657870616e736960448201526137b760f11b6064820152608401610c51565b7f21e5668ec8085df78c0955e48cdf5939d94bd27059bd915d1258f6ec278c922d600154604051611ccc91815260200190565b60405180910390a150565b60006001600160a01b038216611d425760405162461bcd60e51b815260206004820152602a60248201527f4552433732313a2062616c616e636520717565727920666f7220746865207a65604482015269726f206164647265737360b01b6064820152608401610c51565b506001600160a01b03166000908152600e602052604090205490565b6000546001600160a01b03163314611d885760405162461bcd60e51b8152600401610c519061464a565b600080546040516001600160a01b03909116907f8be0079c531659141344cd1fd0a4f28419497f9722a3daafe3b4186f6b6457e0908390a3600080546001600160a01b0319169055565b611dda613c8a565b611de382611383565b6001600160a01b031680825215611e2557611dfd826122d5565b602080830191909152600083815260039091526040908190205460ff16151590820152610b52565b610b4f613c8a565b601a8054611e3a906147e5565b80601f0160208091040260200160405190810160405280929190818152602001828054611e66906147e5565b8015611eb35780601f10611e8857610100808354040283529160200191611eb3565b820191906000526020600020905b815481529060010190602001808311611e9657829003601f168201915b505050505081565b6060600c8054610b66906147e5565b6001600160a01b038216331415611f235760405162461bcd60e51b815260206004820152601960248201527f4552433732313a20617070726f766520746f2063616c6c6572000000000000006044820152606401610c51565b3360008181526010602090815260408083206001600160a01b0387168085529252909120805460ff1916841515179055906001600160a01b03167f17307eab39ab6107e8899845ad3d59bd9653f200f220920489ca2b5937696c3183604051611f90911515815260200190565b60405180910390a35050565b6000546001600160a01b03163314611fc65760405162461bcd60e51b8152600401610c519061464a565b601b55565b6000546001600160a01b03163314611ff55760405162461bcd60e51b8152600401610c519061464a565b610d87601a8383613cd7565b60606014805480602002602001604051908101604052809291908181526020016000905b8282101561210957600084815260209081902060408051606081019091526003850290910180546001600160a01b03168252600181018054929391929184019161206e906147e5565b80601f016020809104026020016040519081016040528092919081815260200182805461209a906147e5565b80156120e75780601f106120bc576101008083540402835291602001916120e7565b820191906000526020600020905b8154815290600101906020018083116120ca57829003601f168201915b5050505050815260200160028201548152505081526020019060010190612025565b50505050905090565b600054600160a01b900460ff161561216c5760405162461bcd60e51b815260206004820152601e60248201527f426174746c656669656c643a206e6f7420696e20766f746520737461746500006044820152606401610c51565b601b543410156121ca5760405162461bcd60e51b8152602060048201526024808201527f426174746c656669656c643a206e6f7420656e6f75676820736c6f7474696e676044820152632066656560e01b6064820152608401610c51565b60146040518060600160405280336001600160a01b0316815260200184848080601f0160208091040260200160405190810160405280939291908181526020018383808284376000920182905250938552505050602091820181905283546001808201865594825290829020835160039092020180546001600160a01b0319166001600160a01b039092169190911781558282015180519394919361227793928501929190910190613d57565b506040919091015160029091015560145433907f75656bcb503b4e9a5d049db76f375436e37366365e3c547fd8003802dd9804fb906122b89060019061478b565b84846040516122c993929190614729565b60405180910390a25050565b60008181526002602090815260409182902080548351818402810184019094528084526060939283018282801561232b57602002820191906000526020600020905b815481526020019060010190808311612317575b50505050509050919050565b600054600160a01b900460ff166123605760405162461bcd60e51b8152600401610c519061457f565b601954600083815260156020526040902054106123d75760405162461bcd60e51b815260206004820152602f60248201527f426174746c656669656c643a206669656c642068617320766f74656420696e2060448201526e3a3434b99033b2b732b930ba34b7b760891b6064820152608401610c51565b60008281526002602090815260408083208054825181850281018501909352808352919290919083018282801561242d57602002820191906000526020600020905b815481526020019060010190808311612419575b5050505050905060008151116124915760405162461bcd60e51b815260206004820152602360248201527f426174746c656669656c643a20656d707479206669656c642063616e277420766044820152626f746560e81b6064820152608401610c51565b60008381526003602052604090205460ff16156125d357600654815133916001600160a01b031690636352211e9084906000906124de57634e487b7160e01b600052603260045260246000fd5b60200260200101516040518263ffffffff1660e01b815260040161250491815260200190565b60206040518083038186803b15801561251c57600080fd5b505afa158015612530573d6000803e3d6000fd5b505050506040513d601f19601f820116820180604052508101906125549190613e8e565b6001600160a01b03161461257a5760405162461bcd60e51b8152600401610c5190614613565b60095460085410156125ce5760405162461bcd60e51b815260206004820152601e60248201527f426174746c656669656c643a20796f75277265206c6f736572207369646500006044820152606401610c51565b6126f9565b600754815133916001600160a01b031690636352211e90849060009061260957634e487b7160e01b600052603260045260246000fd5b60200260200101516040518263ffffffff1660e01b815260040161262f91815260200190565b60206040518083038186803b15801561264757600080fd5b505afa15801561265b573d6000803e3d6000fd5b505050506040513d601f19601f8201168201806040525081019061267f9190613e8e565b6001600160a01b0316146126a55760405162461bcd60e51b8152600401610c5190614613565b60085460095410156126f95760405162461bcd60e51b815260206004820152601e60248201527f426174746c656669656c643a20796f75277265206c6f736572207369646500006044820152606401610c51565b60006014838154811061271c57634e487b7160e01b600052603260045260246000fd5b906000526020600020906003020190508060020160008154809291906127419061481a565b9190505550601954601560008681526020019081526020016000208190555082336001600160a01b0316857f691caaa3fac07e755c9e46e4877cbd04f37fd1b9be1bfc9851f6a520aad29c138460020154604051611a6b91815260200190565b6000546001600160a01b031633146127cb5760405162461bcd60e51b8152600401610c519061464a565b601755565b6127da33836132d7565b6127f65760405162461bcd60e51b8152600401610c51906146c5565b61280284848484613799565b50505050565b600054600160a01b900460ff166128315760405162461bcd60e51b8152600401610c519061457f565b60185460165442916128429161475f565b8110156128915760405162461bcd60e51b815260206004820181905260248201527f426174746c656669656c643a206e6f742079657420746f20656e6420766f74656044820152606401610c51565b6016819055600080805b60145481101561292a5782601482815481106128c757634e487b7160e01b600052603260045260246000fd5b9060005260206000209060030201600201541115612918576014818154811061290057634e487b7160e01b600052603260045260246000fd5b90600052602060002090600302016002015492508091505b806129228161481a565b91505061289b565b5060006014828154811061294e57634e487b7160e01b600052603260045260246000fd5b6000918252602091829020604080516060810190915260039092020180546001600160a01b03168252600181018054929391929184019161298e906147e5565b80601f01602080910402602001604051908101604052809291908181526020018280546129ba906147e5565b8015612a075780601f106129dc57610100808354040283529160200191612a07565b820191906000526020600020905b8154815290600101906020018083116129ea57829003601f168201915b50505050508152602001600282015481525050905060008060095460085410612a9857601254602084015160405163350c02f160e11b81526001600160a01b0390921691636a1805e291612a61916000919060040161438e565b600060405180830381600087803b158015612a7b57600080fd5b505af1158015612a8f573d6000803e3d6000fd5b50505050600191505b60085460095410612b1157601354602084015160405163350c02f160e11b81526001600160a01b0390921691636a1805e291612ada916000919060040161438e565b600060405180830381600087803b158015612af457600080fd5b505af1158015612b08573d6000803e3d6000fd5b50505050600190505b612b2183600001516019546137cc565b612b536019548460200151601a604051602001612b3f9291906142a2565b6040516020818303038152906040526138ff565b612b5f60146000613dcb565b6000805460ff60a01b1916905582516019546001600160a01b03909116907fbcce7ae1b0eda5f386742164a672abb073651089d04d044faa6352139ceb565c612ba782612bea565b6014546040808901516001549151612bc5949392908a908a9061453f565b60405180910390a360198054906000612bdd8361481a565b9190505550505050505050565b6060612bf58261324c565b612c5b5760405162461bcd60e51b815260206004820152603160248201527f45524337323155524953746f726167653a2055524920717565727920666f72206044820152703737b732bc34b9ba32b73a103a37b5b2b760791b6064820152608401610c51565b60008281526011602052604081208054612c74906147e5565b80601f0160208091040260200160405190810160405280929190818152602001828054612ca0906147e5565b8015612ced5780601f10612cc257610100808354040283529160200191612ced565b820191906000526020600020905b815481529060010190602001808311612cd057829003601f168201915b505050505090506000612d0b60408051602081019091526000815290565b9050805160001415612d1f57509050610b52565b815115612d51578082604051602001612d39929190614273565b60405160208183030381529060405292505050610b52565b612d5a8461398a565b949350505050565b6000548290600160a01b900460ff1615612d8e5760405162461bcd60e51b8152600401610c519061467f565b6001548110612ddf5760405162461bcd60e51b815260206004820152601f60248201527f426174746c656669656c643a206669656c64206f7574206f662072616e6765006044820152606401610c51565b60008281526005602052604090205460ff1615612e555760405162461bcd60e51b815260206004820152602e60248201527f426174746c656669656c643a20746865206661756e61206d696e696f6e20616c60448201526d1c9958591e481bdb88199a595b1960921b6064820152608401610c51565b6007546040516331a9108f60e11b81526004810184905233916001600160a01b031690636352211e9060240160206040518083038186803b158015612e9957600080fd5b505afa158015612ead573d6000803e3d6000fd5b505050506040513d601f19601f82011682018060405250810190612ed19190613e8e565b6001600160a01b031614612f425760405162461bcd60e51b815260206004820152603260248201527f426174746c656669656c643a206e6f742074686520636f6d6d616e646572206f60448201527133103a3432903330bab7309036b4b734b7b760711b6064820152608401610c51565b600083815260026020908152604080832080548251818502810185019093528083529192909190830182828015612f9857602002820191906000526020600020905b815481526020019060010190808311612f84575b505050505090506000815111156130c357600081600081518110612fcc57634e487b7160e01b600052603260045260246000fd5b6020908102919091018101516000878152600390925260409091205490915060ff161561305557600754600654613012916001600160a01b03908116918791168461355d565b6000818152600460205260408120805460ff191690556008805491613036836147ce565b90915550506009805490600061304b8361481a565b9190505550613084565b60075461306d906001600160a01b031685818461355d565b6000818152600560205260409020805460ff191690555b600085815260026020526040812080548692906130b157634e487b7160e01b600052603260045260246000fd5b600091825260209091200155506130f9565b6000848152600260209081526040822080546001810182559083529082200184905560098054916130f38361481a565b91905055505b6000838152600560209081526040808320805460ff19908116600117909155878452600383528184208054909116905560029091528082209051339187917f9a3c276128da5bf5f6a0c9b8df4df4c267f0ca732b1708cb8425bf3c308fef1991611a6b916144e5565b6000546001600160a01b0316331461318c5760405162461bcd60e51b8152600401610c519061464a565b6001600160a01b0381166131f15760405162461bcd60e51b815260206004820152602660248201527f4f776e61626c653a206e6577206f776e657220697320746865207a65726f206160448201526564647265737360d01b6064820152608401610c51565b600080546040516001600160a01b03808516939216917f8be0079c531659141344cd1fd0a4f28419497f9722a3daafe3b4186f6b6457e091a3600080546001600160a01b0319166001600160a01b0392909216919091179055565b6000908152600d60205260409020546001600160a01b0316151590565b6000818152600f6020526040902080546001600160a01b0319166001600160a01b038416908117909155819061329e82611a79565b6001600160a01b03167f8c5be1e5ebec7d5bd14f71427d1e84f3dd0314c0f7b2291e5b200ac8c7c3b92560405160405180910390a45050565b60006132e28261324c565b6133435760405162461bcd60e51b815260206004820152602c60248201527f4552433732313a206f70657261746f7220717565727920666f72206e6f6e657860448201526b34b9ba32b73a103a37b5b2b760a11b6064820152608401610c51565b600061334e83611a79565b9050806001600160a01b0316846001600160a01b031614806133895750836001600160a01b031661337e84610be9565b6001600160a01b0316145b80612d5a57506001600160a01b0380821660009081526010602090815260408083209388168352929052205460ff16612d5a565b826001600160a01b03166133d082611a79565b6001600160a01b0316146134385760405162461bcd60e51b815260206004820152602960248201527f4552433732313a207472616e73666572206f6620746f6b656e2074686174206960448201526839903737ba1037bbb760b91b6064820152608401610c51565b6001600160a01b03821661349a5760405162461bcd60e51b8152602060048201526024808201527f4552433732313a207472616e7366657220746f20746865207a65726f206164646044820152637265737360e01b6064820152608401610c51565b6134a5600082613269565b6001600160a01b0383166000908152600e602052604081208054600192906134ce90849061478b565b90915550506001600160a01b0382166000908152600e602052604081208054600192906134fc90849061475f565b90915550506000818152600d602052604080822080546001600160a01b0319166001600160a01b0386811691821790925591518493918716917fddf252ad1be2c89b69c2b068fc378daa952ba7f163c4a11628f55a4df523b3ef91a4505050565b604051636812428b60e11b8152600481018290526001600160a01b0383169063d02485169060240160206040518083038186803b15801561359d57600080fd5b505afa1580156135b1573d6000803e3d6000fd5b505050506040513d601f19601f820116820180604052508101906135d5919061409a565b156128025760405163df069b1160e01b81526004810184905260009081906001600160a01b0387169063df069b119060240160806040518083038186803b15801561361f57600080fd5b505afa158015613633573d6000803e3d6000fd5b505050506040513d601f19601f820116820180604052508101906136579190614028565b935050925050600080856001600160a01b031663df069b11866040518263ffffffff1660e01b815260040161368e91815260200190565b60806040518083038186803b1580156136a657600080fd5b505afa1580156136ba573d6000803e3d6000fd5b505050506040513d601f19601f820116820180604052508101906136de9190614028565b9350509250508361373f5760405162461bcd60e51b815260206004820152602560248201527f426174746c656669656c643a2061747461636b65722073686f756c6420626520604482015264185c9b595960da1b6064820152608401610c51565b81158061374b57508083135b61378f5760405162461bcd60e51b815260206004820152601560248201527410985d1d1b19599a595b190e8819195999585d1959605a1b6044820152606401610c51565b5050505050505050565b6137a48484846133bd565b6137b084848484613a62565b6128025760405162461bcd60e51b8152600401610c51906145c1565b6001600160a01b0382166138225760405162461bcd60e51b815260206004820181905260248201527f4552433732313a206d696e7420746f20746865207a65726f20616464726573736044820152606401610c51565b61382b8161324c565b156138785760405162461bcd60e51b815260206004820152601c60248201527f4552433732313a20746f6b656e20616c7265616479206d696e746564000000006044820152606401610c51565b6001600160a01b0382166000908152600e602052604081208054600192906138a190849061475f565b90915550506000818152600d602052604080822080546001600160a01b0319166001600160a01b03861690811790915590518392907fddf252ad1be2c89b69c2b068fc378daa952ba7f163c4a11628f55a4df523b3ef908290a45050565b6139088261324c565b61396b5760405162461bcd60e51b815260206004820152602e60248201527f45524337323155524953746f726167653a2055524920736574206f66206e6f6e60448201526d32bc34b9ba32b73a103a37b5b2b760911b6064820152608401610c51565b60008281526011602090815260409091208251610d8792840190613d57565b60606139958261324c565b6139f95760405162461bcd60e51b815260206004820152602f60248201527f4552433732314d657461646174613a2055524920717565727920666f72206e6f60448201526e3732bc34b9ba32b73a103a37b5b2b760891b6064820152608401610c51565b6000613a1060408051602081019091526000815290565b90506000815111613a305760405180602001604052806000815250613a5b565b80613a3a84613b6f565b604051602001613a4b929190614273565b6040516020818303038152906040525b9392505050565b60006001600160a01b0384163b15613b6457604051630a85bd0160e11b81526001600160a01b0385169063150b7a0290613aa6903390899088908890600401614351565b602060405180830381600087803b158015613ac057600080fd5b505af1925050508015613af0575060408051601f3d908101601f19168201909252613aed918101906140d2565b60015b613b4a573d808015613b1e576040519150601f19603f3d011682016040523d82523d6000602084013e613b23565b606091505b508051613b425760405162461bcd60e51b8152600401610c51906145c1565b805181602001fd5b6001600160e01b031916630a85bd0160e11b149050612d5a565b506001949350505050565b606081613b9457506040805180820190915260018152600360fc1b6020820152610b52565b8160005b8115613bbe5780613ba88161481a565b9150613bb79050600a83614777565b9150613b98565b60008167ffffffffffffffff811115613be757634e487b7160e01b600052604160045260246000fd5b6040519080825280601f01601f191660200182016040528015613c11576020820181803683370190505b5090505b8415612d5a57613c2660018361478b565b9150613c33600a86614835565b613c3e90603061475f565b60f81b818381518110613c6157634e487b7160e01b600052603260045260246000fd5b60200101906001600160f81b031916908160001a905350613c83600a86614777565b9450613c15565b604051806060016040528060006001600160a01b03168152602001606081526020016000151581525090565b5080546000825590600052602060002090810190613cd49190613dec565b50565b828054613ce3906147e5565b90600052602060002090601f016020900481019282613d055760008555613d4b565b82601f10613d1e5782800160ff19823516178555613d4b565b82800160010185558215613d4b579182015b82811115613d4b578235825591602001919060010190613d30565b50610e47929150613dec565b828054613d63906147e5565b90600052602060002090601f016020900481019282613d855760008555613d4b565b82601f10613d9e57805160ff1916838001178555613d4b565b82800160010185558215613d4b579182015b82811115613d4b578251825591602001919060010190613db0565b5080546000825560030290600052602060002090810190613cd49190613e01565b5b80821115610e475760008155600101613ded565b80821115610e475780546001600160a01b03191681556000613e266001830182613e36565b5060006002820155600301613e01565b508054613e42906147e5565b6000825580601f10613e545750613cd4565b601f016020900490600052602060002090810190613cd49190613dec565b600060208284031215613e83578081fd5b8135613a5b8161488b565b600060208284031215613e9f578081fd5b8151613a5b8161488b565b60008060408385031215613ebc578081fd5b8235613ec78161488b565b91506020830135613ed78161488b565b809150509250929050565b600080600060608486031215613ef6578081fd5b8335613f018161488b565b92506020840135613f118161488b565b929592945050506040919091013590565b60008060008060808587031215613f37578081fd5b8435613f428161488b565b93506020850135613f528161488b565b925060408501359150606085013567ffffffffffffffff80821115613f75578283fd5b818701915087601f830112613f88578283fd5b813581811115613f9a57613f9a614875565b604051601f8201601f19908116603f01168101908382118183101715613fc257613fc2614875565b816040528281528a6020848701011115613fda578586fd5b82602086016020830137918201602001949094529598949750929550505050565b6000806040838503121561400d578182fd5b82356140188161488b565b91506020830135613ed7816148a0565b6000806000806080858703121561403d578384fd5b84516140488161488b565b6020860151909450614059816148a0565b6040860151606090960151949790965092505050565b60008060408385031215614081578182fd5b823561408c8161488b565b946020939093013593505050565b6000602082840312156140ab578081fd5b8151613a5b816148a0565b6000602082840312156140c7578081fd5b8135613a5b816148ae565b6000602082840312156140e3578081fd5b8151613a5b816148ae565b60008060208385031215614100578182fd5b823567ffffffffffffffff80821115614117578384fd5b818501915085601f83011261412a578384fd5b813581811115614138578485fd5b866020828501011115614149578485fd5b60209290920196919550909350505050565b60006020828403121561416c578081fd5b5035919050565b600060208284031215614184578081fd5b5051919050565b6000806040838503121561419d578182fd5b823591506020830135613ed78161488b565b600080604083850312156141c1578182fd5b50508035926020909101359150565b6000815180845260208085019450808401835b838110156141ff578151875295820195908201906001016141e3565b509495945050505050565b600081518084526142228160208601602086016147a2565b601f01601f19169290920160200192915050565b600060018060a01b03825116835260208201516060602085015261425d60608501826141d0565b6040938401511515949093019390935250919050565b600083516142858184602088016147a2565b8351908301906142998183602088016147a2565b01949350505050565b6000835160206142b582858389016147a2565b8454918401918390600181811c90808316806142d257607f831692505b8583108114156142f057634e487b7160e01b88526022600452602488fd5b808015614304576001811461431557614341565b60ff19851688528388019550614341565b60008b815260209020895b858110156143395781548a820152908401908801614320565b505083880195505b50939a9950505050505050505050565b6001600160a01b03858116825284166020820152604081018390526080606082018190526000906143849083018461420a565b9695505050505050565b6001600160a01b0383168152604060208201819052600090612d5a9083018461420a565b6001600160a01b03841681526060602082018190526000906143d69083018561420a565b9050826040830152949350505050565b6000602080830181845280855180835260408601915060408160051b8701019250838701855b8281101561443a57603f19888603018452614428858351614236565b9450928501929085019060010161440c565b5092979650505050505050565b60006020808301818452808551808352604092508286019150828160051b870101848801865b838110156144c457888303603f19018552815180516001600160a01b03168452878101516060898601819052906144a68287018261420a565b9289015195890195909552509487019492509086019060010161446d565b509098975050505050505050565b600060208252613a5b60208301846141d0565b6020808252825482820181905260008481528281209092916040850190845b8181101561452057835483526001938401939285019201614504565b50909695505050505050565b600060208252613a5b602083018461420a565b600060c0825261455260c083018961420a565b6020830197909752506040810194909452606084019290925215156080830152151560a090910152919050565b60208082526022908201527f426174746c656669656c643a206e6f7420696e2070726f706f73616c20737461604082015261746560f01b606082015260800190565b60208082526032908201527f4552433732313a207472616e7366657220746f206e6f6e20455243373231526560408201527131b2b4bb32b91034b6b83632b6b2b73a32b960711b606082015260800190565b60208082526017908201527f426174746c656669656c643a206e6f74206c6561646572000000000000000000604082015260600190565b6020808252818101527f4f776e61626c653a2063616c6c6572206973206e6f7420746865206f776e6572604082015260600190565b60208082526026908201527f426174746c656669656c643a20626174746c656669656c64206973206c6f636b6040820152656564206e6f7760d01b606082015260800190565b60208082526031908201527f4552433732313a207472616e736665722063616c6c6572206973206e6f74206f6040820152701ddb995c881b9bdc88185c1c1c9bdd9959607a1b606082015260800190565b600060208252613a5b6020830184614236565b60008482526040602083015282604083015282846060840137818301606090810191909152601f909201601f1916010192915050565b6000821982111561477257614772614849565b500190565b6000826147865761478661485f565b500490565b60008282101561479d5761479d614849565b500390565b60005b838110156147bd5781810151838201526020016147a5565b838111156128025750506000910152565b6000816147dd576147dd614849565b506000190190565b600181811c908216806147f957607f821691505b6020821081141561165e57634e487b7160e01b600052602260045260246000fd5b600060001982141561482e5761482e614849565b5060010190565b6000826148445761484461485f565b500690565b634e487b7160e01b600052601160045260246000fd5b634e487b7160e01b600052601260045260246000fd5b634e487b7160e01b600052604160045260246000fd5b6001600160a01b0381168114613cd457600080fd5b8015158114613cd457600080fd5b6001600160e01b031981168114613cd457600080fdfea26469706673582212204f6c18fa002e868dc2f174a939be8042bea57314e990b29354f081f4f835413864736f6c63430008030033","bytecodeSha1":"821d76a261e4b2361c9e4385936bb2c8574c1826","type":"contract","abi":[{"inputs":[{"internalType":"address","name":"floraArmyAddr","type":"address"},{"internalType":"address","name":"faunaArmyAddr","type":"address"}],"stateMutability":"nonpayable","type":"constructor","name":"constructor"},{"anonymous":false,"inputs":[{"indexed":true,"internalType":"address","name":"owner","type":"address"},{"indexed":true,"internalType":"address","name":"approved","type":"address"},{"indexed":true,"internalType":"uint256","name":"tokenId","type":"uint256"}],"name":"Approval","type":"event"},{"anonymous":false,"inputs":[{"indexed":true,"internalType":"address","name":"owner","type":"address"},{"indexed":true,"internalType":"address","name":"operator","type":"address"},{"indexed":false,"internalType":"bool","name":"approved","type":"bool"}],"name":"ApprovalForAll","type":"event"},{"anonymous":false,"inputs":[{"indexed":true,"internalType":"uint256","name":"fieldID","type":"uint256"},{"indexed":true,"internalType":"address","name":"conqueror","type":"address"},{"indexed":true,"internalType":"bool","name":"isGreen","type":"bool"},{"indexed":false,"internalType":"uint256[]","name":"defender","type":"uint256[]"}],"name":"FieldState","type":"event"},{"anonymous":false,"inputs":[{"indexed":true,"internalType":"address","name":"previousOwner","type":"address"},{"indexed":true,"internalType":"address","name":"newOwner","type":"address"}],"name":"OwnershipTransferred","type":"event"},{"anonymous":false,"inputs":[{"indexed":true,"internalType":"address","name":"proposer","type":"address"},{"indexed":false,"internalType":"uint256","name":"proposalID","type":"uint256"},{"indexed":false,"internalType":"string","name":"prefixURI","type":"string"}],"name":"Propose","type":"event"},{"anonymous":false,"inputs":[{"indexed":false,"internalType":"uint256","name":"totalArea","type":"uint256"}],"name":"TotalArea","type":"event"},{"anonymous":false,"inputs":[{"indexed":true,"internalType":"address","name":"from","type":"address"},{"indexed":true,"internalType":"address","name":"to","type":"address"},{"indexed":true,"internalType":"uint256","name":"tokenId","type":"uint256"}],"name":"Transfer","type":"event"},{"anonymous":false,"inputs":[{"indexed":true,"internalType":"uint256","name":"fieldID","type":"uint256"},{"indexed":true,"internalType":"address","name":"voter","type":"address"},{"indexed":true,"internalType":"uint256","name":"proposalID","type":"uint256"},{"indexed":false,"internalType":"uint256","name":"voteCount","type":"uint256"}],"name":"Vote","type":"event"},{"anonymous":false,"inputs":[{"indexed":true,"internalType":"uint256","name":"generation","type":"uint256"},{"indexed":true,"internalType":"address","name":"winner","type":"address"},{"indexed":false,"internalType":"string","name":"tokenURI","type":"string"},{"indexed":false,"internalType":"uint256","name":"proposalCount","type":"uint256"},{"indexed":false,"internalType":"uint256","name":"voteCount","type":"uint256"},{"indexed":false,"internalType":"uint256","name":"totalArea","type":"uint256"},{"indexed":false,"internalType":"bool","name":"floraWin","type":"bool"},{"indexed":false,"internalType":"bool","name":"faunaWin","type":"bool"}],"name":"Winner","type":"event"},{"inputs":[{"internalType":"address","name":"to","type":"address"},{"internalType":"uint256","name":"tokenId","type":"uint256"}],"name":"approve","outputs":[],"stateMutability":"nonpayable","type":"function"},{"inputs":[],"name":"assemblyJson","outputs":[{"internalType":"string","name":"","type":"string"}],"stateMutability":"view","type":"function"},{"inputs":[{"internalType":"address","name":"owner","type":"address"}],"name":"balanceOf","outputs":[{"internalType":"uint256","name":"","type":"uint256"}],"stateMutability":"view","type":"function"},{"inputs":[{"internalType":"string","name":"assemblyJson_","type":"string"}],"name":"changeAssemblyJson","outputs":[],"stateMutability":"nonpayable","type":"function"},{"inputs":[{"internalType":"uint256","name":"propInterval_","type":"uint256"}],"name":"changePropInterval","outputs":[],"stateMutability":"nonpayable","type":"function"},{"inputs":[{"internalType":"uint256","name":"slottingFee_","type":"uint256"}],"name":"changeSlottingFee","outputs":[],"stateMutability":"nonpayable","type":"function"},{"inputs":[{"internalType":"uint256","name":"voteInterval_","type":"uint256"}],"name":"changeVoteInterval","outputs":[],"stateMutability":"nonpayable","type":"function"},{"inputs":[{"internalType":"uint256","name":"amount","type":"uint256"},{"internalType":"address payable","name":"receiver","type":"address"}],"name":"claimFunds","outputs":[],"stateMutability":"nonpayable","type":"function"},{"inputs":[],"name":"endVote","outputs":[],"stateMutability":"nonpayable","type":"function"},{"inputs":[{"internalType":"uint256","name":"increaseSize","type":"uint256"}],"name":"expand","outputs":[],"stateMutability":"nonpayable","type":"function"},{"inputs":[],"name":"faunaArmy","outputs":[{"internalType":"contract ARMY","name":"","type":"address"}],"stateMutability":"view","type":"function"},{"inputs":[{"internalType":"uint256","name":"fieldID","type":"uint256"},{"internalType":"uint256","name":"attackerID","type":"uint256"}],"name":"faunaConquer","outputs":[],"stateMutability":"nonpayable","type":"function"},{"inputs":[],"name":"faunaFieldCount","outputs":[{"internalType":"uint256","name":"","type":"uint256"}],"stateMutability":"view","type":"function"},{"inputs":[{"internalType":"uint256","name":"","type":"uint256"}],"name":"faunaOnField","outputs":[{"internalType":"bool","name":"","type":"bool"}],"stateMutability":"view","type":"function"},{"inputs":[],"name":"faunaRank","outputs":[{"internalType":"contract RANK","name":"","type":"address"}],"stateMutability":"view","type":"function"},{"inputs":[{"internalType":"uint256","name":"","type":"uint256"},{"internalType":"uint256","name":"","type":"uint256"}],"name":"fieldDefender","outputs":[{"internalType":"uint256","name":"","type":"uint256"}],"stateMutability":"view","type":"function"},{"inputs":[{"internalType":"uint256","name":"","type":"uint256"}],"name":"fieldGeneration","outputs":[{"internalType":"uint256","name":"","type":"uint256"}],"stateMutability":"view","type":"function"},{"inputs":[],"name":"fieldLocked","outputs":[{"internalType":"bool","name":"","type":"bool"}],"stateMutability":"view","type":"function"},{"inputs":[],"name":"floraArmy","outputs":[{"internalType":"contract ARMY","name":"","type":"address"}],"stateMutability":"view","type":"function"},{"inputs":[{"internalType":"uint256","name":"fieldID","type":"uint256"},{"internalType":"uint256","name":"attackerID","type":"uint256"}],"name":"floraConquer","outputs":[],"stateMutability":"nonpayable","type":"function"},{"inputs":[],"name":"floraFieldCount","outputs":[{"internalType":"uint256","name":"","type":"uint256"}],"stateMutability":"view","type":"function"},{"inputs":[{"internalType":"uint256","name":"","type":"uint256"}],"name":"floraOnField","outputs":[{"internalType":"bool","name":"","type":"bool"}],"stateMutability":"view","type":"function"},{"inputs":[],"name":"floraRank","outputs":[{"internalType":"contract RANK","name":"","type":"address"}],"stateMutability":"view","type":"function"},{"inputs":[],"name":"generation","outputs":[{"internalType":"uint256","name":"","type":"uint256"}],"stateMutability":"view","type":"function"},{"inputs":[],"name":"getAllFieldInfo","outputs":[{"components":[{"internalType":"address","name":"leader","type":"address"},{"internalType":"uint256[]","name":"defender","type":"uint256[]"},{"internalType":"bool","name":"isFlora","type":"bool"}],"internalType":"struct BattleBase.FieldInfo[]","name":"allFieldInfo","type":"tuple[]"}],"stateMutability":"view","type":"function"},{"inputs":[],"name":"getAllProposalInfo","outputs":[{"components":[{"internalType":"address","name":"proposer","type":"address"},{"internalType":"string","name":"prefixURI","type":"string"},{"internalType":"uint256","name":"voteCount","type":"uint256"}],"internalType":"struct Battlefield.Proposal[]","name":"","type":"tuple[]"}],"stateMutability":"view","type":"function"},{"inputs":[{"internalType":"uint256","name":"tokenId","type":"uint256"}],"name":"getApproved","outputs":[{"internalType":"address","name":"","type":"address"}],"stateMutability":"view","type":"function"},{"inputs":[{"internalType":"uint256","name":"fieldID","type":"uint256"}],"name":"getFieldDefender","outputs":[{"internalType":"uint256[]","name":"","type":"uint256[]"}],"stateMutability":"view","type":"function"},{"inputs":[{"internalType":"uint256","name":"fieldID","type":"uint256"}],"name":"getFieldInfo","outputs":[{"components":[{"internalType":"address","name":"leader","type":"address"},{"internalType":"uint256[]","name":"defender","type":"uint256[]"},{"internalType":"bool","name":"isFlora","type":"bool"}],"internalType":"struct BattleBase.FieldInfo","name":"fieldInfo","type":"tuple"}],"stateMutability":"view","type":"function"},{"inputs":[{"internalType":"uint256","name":"fieldID","type":"uint256"}],"name":"getFieldLeader","outputs":[{"internalType":"address","name":"","type":"address"}],"stateMutability":"view","type":"function"},{"inputs":[{"internalType":"address","name":"owner","type":"address"},{"internalType":"address","name":"operator","type":"address"}],"name":"isApprovedForAll","outputs":[{"internalType":"bool","name":"","type":"bool"}],"stateMutability":"view","type":"function"},{"inputs":[{"internalType":"uint256","name":"","type":"uint256"}],"name":"isFloraField","outputs":[{"internalType":"bool","name":"","type":"bool"}],"stateMutability":"view","type":"function"},{"inputs":[],"name":"name","outputs":[{"internalType":"string","name":"","type":"string"}],"stateMutability":"view","type":"function"},{"inputs":[],"name":"owner","outputs":[{"internalType":"address","name":"","type":"address"}],"stateMutability":"view","type":"function"},{"inputs":[{"internalType":"uint256","name":"tokenId","type":"uint256"}],"name":"ownerOf","outputs":[{"internalType":"address","name":"","type":"address"}],"stateMutability":"view","type":"function"},{"inputs":[],"name":"propInterval","outputs":[{"internalType":"uint256","name":"","type":"uint256"}],"stateMutability":"view","type":"function"},{"inputs":[{"internalType":"uint256","name":"","type":"uint256"}],"name":"proposals","outputs":[{"internalType":"address","name":"proposer","type":"address"},{"internalType":"string","name":"prefixURI","type":"string"},{"internalType":"uint256","name":"voteCount","type":"uint256"}],"stateMutability":"view","type":"function"},{"inputs":[{"internalType":"string","name":"prefixURI","type":"string"}],"name":"propose","outputs":[],"stateMutability":"payable","type":"function"},{"inputs":[],"name":"renounceOwnership","outputs":[],"stateMutability":"nonpayable","type":"function"},{"inputs":[{"internalType":"uint256","name":"fieldID","type":"uint256"}],"name":"retreat","outputs":[],"stateMutability":"nonpayable","type":"function"},{"inputs":[{"internalType":"address","name":"from","type":"address"},{"internalType":"address","name":"to","type":"address"},{"internalType":"uint256","name":"tokenId","type":"uint256"}],"name":"safeTransferFrom","outputs":[],"stateMutability":"nonpayable","type":"function"},{"inputs":[{"internalType":"address","name":"from","type":"address"},{"internalType":"address","name":"to","type":"address"},{"internalType":"uint256","name":"tokenId","type":"uint256"},{"internalType":"bytes","name":"_data","type":"bytes"}],"name":"safeTransferFrom","outputs":[],"stateMutability":"nonpayable","type":"function"},{"inputs":[{"internalType":"address","name":"operator","type":"address"},{"internalType":"bool","name":"approved","type":"bool"}],"name":"setApprovalForAll","outputs":[],"stateMutability":"nonpayable","type":"function"},{"inputs":[],"name":"slottingFee","outputs":[{"internalType":"uint256","name":"","type":"uint256"}],"stateMutability":"view","type":"function"},{"inputs":[],"name":"startVote","outputs":[],"stateMutability":"nonpayable","type":"function"},{"inputs":[{"internalType":"bytes4","name":"interfaceId","type":"bytes4"}],"name":"supportsInterface","outputs":[{"internalType":"bool","name":"","type":"bool"}],"stateMutability":"view","type":"function"},{"inputs":[],"name":"symbol","outputs":[{"internalType":"string","name":"","type":"string"}],"stateMutability":"view","type":"function"},{"inputs":[{"internalType":"uint256","name":"tokenId","type":"uint256"}],"name":"tokenURI","outputs":[{"internalType":"string","name":"","type":"string"}],"stateMutability":"view","type":"function"},{"inputs":[],"name":"totalArea","outputs":[{"internalType":"uint256","name":"","type":"uint256"}],"stateMutability":"view","type":"function"},{"inputs":[{"internalType":"address","name":"from","type":"address"},{"internalType":"address","name":"to","type":"address"},{"internalType":"uint256","name":"tokenId","type":"uint256"}],"name":"transferFrom","outputs":[],"stateMutability":"nonpayable","type":"function"},{"inputs":[{"internalType":"address","name":"newOwner","type":"address"}],"name":"transferOwnership","outputs":[],"stateMutability":"nonpayable","type":"function"},{"inputs":[],"name":"updateTime","outputs":[{"internalType":"uint256","name":"","type":"uint256"}],"stateMutability":"view","type":"function"},{"inputs":[{"internalType":"uint256","name":"fieldID","type":"uint256"},{"internalType":"uint256","name":"proposalID","type":"uint256"}],"name":"vote","outputs":[],"stateMutability":"nonpayable","type":"function"},{"inputs":[],"name":"voteInterval","outputs":[{"internalType":"uint256","name":"","type":"uint256"}],"stateMutability":"view","type":"function"}],"compiler":{"version":"0.8.3+commit.8d00100c","evm_version":"istanbul","optimizer":{"enabled":true,"runs":200}},"contractName":"Battlefield","language":"Solidity","natspec":{"methods":{"approve(address,uint256)":{"details":"See {IERC721-approve}."},"balanceOf(address)":{"details":"See {IERC721-balanceOf}."},"claimFunds(uint256,address)":{"details":"Claim the funds from slotting fee","params":{"amount":"Amount of Ether","receiver":"Address of receiver"}},"constructor":{"details":"Set addresses of interactive contracts","params":{"faunaArmyAddr":"Address of FaunaArmy contract","floraArmyAddr":"Address of FloraArmy contract"}},"faunaConquer(uint256,uint256)":{"notice":"Send fauna army to conquer certain field","params":{"attackerID":"ID of the fauna attacker minion","fieldID":"ID of the field"}},"floraConquer(uint256,uint256)":{"notice":"Send flora army to conquer certain field","params":{"attackerID":"ID of the flora attacker minion","fieldID":"ID of the field"}},"getAllFieldInfo()":{"notice":"Get the every field info ","returns":{"allFieldInfo":"Info of every field"}},"getAllProposalInfo()":{"notice":"Get details of all proposals","returns":{"_0":"Details of all proposals"}},"getApproved(uint256)":{"details":"See {IERC721-getApproved}."},"getFieldDefender(uint256)":{"notice":"Get minion IDs on certain field","params":{"fieldID":"ID of the field"},"returns":{"_0":"Array of minion IDs"}},"getFieldInfo(uint256)":{"notice":"Get the field info","params":{"fieldID":"ID of the field"},"returns":{"fieldInfo":"Leader, defender and side"}},"getFieldLeader(uint256)":{"notice":"Get the leader on certain field","params":{"fieldID":"ID of the field"},"returns":{"_0":"Owner of the first minion"}},"isApprovedForAll(address,address)":{"details":"See {IERC721-isApprovedForAll}."},"name()":{"details":"See {IERC721Metadata-name}."},"owner()":{"details":"Returns the address of the current owner."},"ownerOf(uint256)":{"details":"See {IERC721-ownerOf}."},"propose(string)":{"notice":"Propose for new style of medals","params":{"prefixURI":"Prefix of the URI"}},"renounceOwnership()":{"details":"Leaves the contract without owner. It will not be possible to call `onlyOwner` functions anymore. Can only be called by the current owner. NOTE: Renouncing ownership will leave the contract without an owner, thereby removing any functionality that is only available to the owner."},"retreat(uint256)":{"notice":"Retreat from certain field","params":{"fieldID":"ID of the field"}},"safeTransferFrom(address,address,uint256)":{"details":"See {IERC721-safeTransferFrom}."},"safeTransferFrom(address,address,uint256,bytes)":{"details":"See {IERC721-safeTransferFrom}."},"setApprovalForAll(address,bool)":{"details":"See {IERC721-setApprovalForAll}."},"supportsInterface(bytes4)":{"details":"See {IERC165-supportsInterface}."},"symbol()":{"details":"See {IERC721Metadata-symbol}."},"tokenURI(uint256)":{"details":"See {IERC721Metadata-tokenURI}."},"transferFrom(address,address,uint256)":{"details":"See {IERC721-transferFrom}."},"transferOwnership(address)":{"details":"Transfers ownership of the contract to a new account (`newOwner`). Can only be called by the current owner."},"vote(uint256,uint256)":{"notice":"Vote behalf of certain field","params":{"fieldID":"ID of the field","proposalID":"ID of the proposal"}},"assemblyJson()":{"notice":"Name of assembly metadata of the medal designs "},"isFloraField(uint256)":{"notice":"If field be occupied by flora army "},"expand(uint256)":{"notice":"Expand the battlefield and increase it's total area"},"fieldGeneration(uint256)":{"notice":"Latest generation in which field has voted"},"slottingFee()":{"notice":"Slotting fee for making a proposal"},"faunaOnField(uint256)":{"notice":"If certain fauna minion on field"},"totalArea()":{"notice":"Total area of battlefield"},"startVote()":{"notice":"Start the vote state"},"floraFieldCount()":{"notice":"Number of fields occupied by flora army"},"propInterval()":{"notice":"Time interval of proposal state"},"floraRank()":{"notice":"Corresponding FloraRank contract"},"faunaArmy()":{"notice":"Corresponding FaunaArmy contract"},"floraArmy()":{"notice":"Corresponding FloraArmy contract"},"voteInterval()":{"notice":"Time interval of vote state"},"generation()":{"notice":"One generation means going through proposal and vote"},"endVote()":{"notice":"End the vote state, change medal styles and mint an assembly metadata to winner"},"faunaFieldCount()":{"notice":"Number of fields occupied by fauna army"},"faunaRank()":{"notice":"Corresponding FaunaRank contract"},"updateTime()":{"notice":"Latest time updated for proposal or vote"},"floraOnField(uint256)":{"notice":"If certain flora minion on field"},"proposals(uint256)":{"notice":"All the proposals"},"fieldLocked()":{"notice":"If Battlefield locked, lock for vote, unlock for proposal"},"fieldDefender(uint256,uint256)":{"notice":"Defenders on cetain field"}},"kind":"dev","notice":"Define voting system on battlefield","version":1,"author":"Justa Liang","title":"Battlefield of fighting for next generation"},"opcodes":"PUSH1 0x80 PUSH1 0x40 MSTORE PUSH1 0x4 CALLDATASIZE LT PUSH2 0x335 JUMPI PUSH1 0x0 CALLDATALOAD PUSH1 0xE0 SHR DUP1 PUSH4 0x78CA994B GT PUSH2 0x1AB JUMPI DUP1 PUSH4 0xB384ABEF GT PUSH2 0xF7 JUMPI DUP1 PUSH4 0xD3A7FF13 GT PUSH2 0x95 JUMPI DUP1 PUSH4 0xE985E9C5 GT PUSH2 0x6F JUMPI DUP1 PUSH4 0xE985E9C5 EQ PUSH2 0x9A6 JUMPI DUP1 PUSH4 0xEA88A3B8 EQ PUSH2 0x9EF JUMPI DUP1 PUSH4 0xEC4155A4 EQ PUSH2 0xA05 JUMPI DUP1 PUSH4 0xF2FDE38B EQ PUSH2 0xA1B JUMPI PUSH2 0x335 JUMP JUMPDEST DUP1 PUSH4 0xD3A7FF13 EQ PUSH2 0x950 JUMPI DUP1 PUSH4 0xDA9F2F68 EQ PUSH2 0x970 JUMPI DUP1 PUSH4 0xDC555090 EQ PUSH2 0x990 JUMPI PUSH2 0x335 JUMP JUMPDEST DUP1 PUSH4 0xB9223946 GT PUSH2 0xD1 JUMPI DUP1 PUSH4 0xB9223946 EQ PUSH2 0x8D5 JUMPI DUP1 PUSH4 0xC60043AB EQ PUSH2 0x8EA JUMPI DUP1 PUSH4 0xC72EAFA9 EQ PUSH2 0x900 JUMPI DUP1 PUSH4 0xC87B56DD EQ PUSH2 0x930 JUMPI PUSH2 0x335 JUMP JUMPDEST DUP1 PUSH4 0xB384ABEF EQ PUSH2 0x875 JUMPI DUP1 PUSH4 0xB6806492 EQ PUSH2 0x895 JUMPI DUP1 PUSH4 0xB88D4FDE EQ PUSH2 0x8B5 JUMPI PUSH2 0x335 JUMP JUMPDEST DUP1 PUSH4 0x9F6E1B72 GT PUSH2 0x164 JUMPI DUP1 PUSH4 0xA4ACCE6F GT PUSH2 0x13E JUMPI DUP1 PUSH4 0xA4ACCE6F EQ PUSH2 0x7F3 JUMPI DUP1 PUSH4 0xA4CF84D1 EQ PUSH2 0x813 JUMPI DUP1 PUSH4 0xAA98DF39 EQ PUSH2 0x835 JUMPI DUP1 PUSH4 0xB0432929 EQ PUSH2 0x848 JUMPI PUSH2 0x335 JUMP JUMPDEST DUP1 PUSH4 0x9F6E1B72 EQ PUSH2 0x79D JUMPI DUP1 PUSH4 0xA22CB465 EQ PUSH2 0x7B3 JUMPI DUP1 PUSH4 0xA4A3578A EQ PUSH2 0x7D3 JUMPI PUSH2 0x335 JUMP JUMPDEST DUP1 PUSH4 0x78CA994B EQ PUSH2 0x6E8 JUMPI DUP1 PUSH4 0x8DA5CB5B EQ PUSH2 0x708 JUMPI DUP1 PUSH4 0x92E8BBDC EQ PUSH2 0x726 JUMPI DUP1 PUSH4 0x95414CCE EQ PUSH2 0x753 JUMPI DUP1 PUSH4 0x95D89B41 EQ PUSH2 0x768 JUMPI DUP1 PUSH4 0x9DAEDB15 EQ PUSH2 0x77D JUMPI PUSH2 0x335 JUMP JUMPDEST DUP1 PUSH4 0x331CD2CC GT PUSH2 0x285 JUMPI DUP1 PUSH4 0x55BA2374 GT PUSH2 0x223 JUMPI DUP1 PUSH4 0x682904A5 GT PUSH2 0x1FD JUMPI DUP1 PUSH4 0x682904A5 EQ PUSH2 0x666 JUMPI DUP1 PUSH4 0x70A08231 EQ PUSH2 0x686 JUMPI DUP1 PUSH4 0x715018A6 EQ PUSH2 0x6A6 JUMPI DUP1 PUSH4 0x76AD6873 EQ PUSH2 0x6BB JUMPI PUSH2 0x335 JUMP JUMPDEST DUP1 PUSH4 0x55BA2374 EQ PUSH2 0x610 JUMPI DUP1 PUSH4 0x61B5B7FC EQ PUSH2 0x630 JUMPI DUP1 PUSH4 0x6352211E EQ PUSH2 0x646 JUMPI PUSH2 0x335 JUMP JUMPDEST DUP1 PUSH4 0x390D6855 GT PUSH2 0x25F JUMPI DUP1 PUSH4 0x390D6855 EQ PUSH2 0x59B JUMPI DUP1 PUSH4 0x42842E0E EQ PUSH2 0x5BB JUMPI DUP1 PUSH4 0x4C0A6AF0 EQ PUSH2 0x5DB JUMPI DUP1 PUSH4 0x53FB4512 EQ PUSH2 0x5F0 JUMPI PUSH2 0x335 JUMP JUMPDEST DUP1 PUSH4 0x331CD2CC EQ PUSH2 0x52A JUMPI DUP1 PUSH4 0x36BAA7F7 EQ PUSH2 0x55A JUMPI DUP1 PUSH4 0x38E1359A EQ PUSH2 0x57B JUMPI PUSH2 0x335 JUMP JUMPDEST DUP1 PUSH4 0x15CEA39B GT PUSH2 0x2F2 JUMPI DUP1 PUSH4 0x23B872DD GT PUSH2 0x2CC JUMPI DUP1 PUSH4 0x23B872DD EQ PUSH2 0x4B4 JUMPI DUP1 PUSH4 0x2A46CEB7 EQ PUSH2 0x4D4 JUMPI DUP1 PUSH4 0x2C708D14 EQ PUSH2 0x4EA JUMPI DUP1 PUSH4 0x30DF0447 EQ PUSH2 0x50A JUMPI PUSH2 0x335 JUMP JUMPDEST DUP1 PUSH4 0x15CEA39B EQ PUSH2 0x44E JUMPI DUP1 PUSH4 0x17219522 EQ PUSH2 0x470 JUMPI DUP1 PUSH4 0x233CF472 EQ PUSH2 0x494 JUMPI PUSH2 0x335 JUMP JUMPDEST DUP1 PUSH4 0x13CF08B EQ PUSH2 0x33A JUMPI DUP1 PUSH4 0x1B7FC1D EQ PUSH2 0x372 JUMPI DUP1 PUSH4 0x1FFC9A7 EQ PUSH2 0x3B2 JUMPI DUP1 PUSH4 0x6FDDE03 EQ PUSH2 0x3D2 JUMPI DUP1 PUSH4 0x81812FC EQ PUSH2 0x3F4 JUMPI DUP1 PUSH4 0x95EA7B3 EQ PUSH2 0x42C JUMPI JUMPDEST PUSH1 0x0 DUP1 REVERT JUMPDEST CALLVALUE DUP1 ISZERO PUSH2 0x346 JUMPI PUSH1 0x0 DUP1 REVERT JUMPDEST POP PUSH2 0x35A PUSH2 0x355 CALLDATASIZE PUSH1 0x4 PUSH2 0x415B JUMP JUMPDEST PUSH2 0xA3B JUMP JUMPDEST PUSH1 0x40 MLOAD PUSH2 0x369 SWAP4 SWAP3 SWAP2 SWAP1 PUSH2 0x43B2 JUMP JUMPDEST PUSH1 0x40 MLOAD DUP1 SWAP2 SUB SWAP1 RETURN JUMPDEST CALLVALUE DUP1 ISZERO PUSH2 0x37E JUMPI PUSH1 0x0 DUP1 REVERT JUMPDEST POP PUSH2 0x3A2 PUSH2 0x38D CALLDATASIZE PUSH1 0x4 PUSH2 0x415B JUMP JUMPDEST PUSH1 0x4 PUSH1 0x20 MSTORE PUSH1 0x0 SWAP1 DUP2 MSTORE PUSH1 0x40 SWAP1 KECCAK256 SLOAD PUSH1 0xFF AND DUP2 JUMP JUMPDEST PUSH1 0x40 MLOAD SWAP1 ISZERO ISZERO DUP2 MSTORE PUSH1 0x20 ADD PUSH2 0x369 JUMP JUMPDEST CALLVALUE DUP1 ISZERO PUSH2 0x3BE JUMPI PUSH1 0x0 DUP1 REVERT JUMPDEST POP PUSH2 0x3A2 PUSH2 0x3CD CALLDATASIZE PUSH1 0x4 PUSH2 0x40B6 JUMP JUMPDEST PUSH2 0xB03 JUMP JUMPDEST CALLVALUE DUP1 ISZERO PUSH2 0x3DE JUMPI PUSH1 0x0 DUP1 REVERT JUMPDEST POP PUSH2 0x3E7 PUSH2 0xB57 JUMP JUMPDEST PUSH1 0x40 MLOAD PUSH2 0x369 SWAP2 SWAP1 PUSH2 0x452C JUMP JUMPDEST CALLVALUE DUP1 ISZERO PUSH2 0x400 JUMPI PUSH1 0x0 DUP1 REVERT JUMPDEST POP PUSH2 0x414 PUSH2 0x40F CALLDATASIZE PUSH1 0x4 PUSH2 0x415B JUMP JUMPDEST PUSH2 0xBE9 JUMP JUMPDEST PUSH1 0x40 MLOAD PUSH1 0x1 PUSH1 0x1 PUSH1 0xA0 SHL SUB SWAP1 SWAP2 AND DUP2 MSTORE PUSH1 0x20 ADD PUSH2 0x369 JUMP JUMPDEST CALLVALUE DUP1 ISZERO PUSH2 0x438 JUMPI PUSH1 0x0 DUP1 REVERT JUMPDEST POP PUSH2 0x44C PUSH2 0x447 CALLDATASIZE PUSH1 0x4 PUSH2 0x406F JUMP JUMPDEST PUSH2 0xC76 JUMP JUMPDEST STOP JUMPDEST CALLVALUE DUP1 ISZERO PUSH2 0x45A JUMPI PUSH1 0x0 DUP1 REVERT JUMPDEST POP PUSH2 0x463 PUSH2 0xD8C JUMP JUMPDEST PUSH1 0x40 MLOAD PUSH2 0x369 SWAP2 SWAP1 PUSH2 0x43E6 JUMP JUMPDEST CALLVALUE DUP1 ISZERO PUSH2 0x47C JUMPI PUSH1 0x0 DUP1 REVERT JUMPDEST POP PUSH2 0x486 PUSH1 0x19 SLOAD DUP2 JUMP JUMPDEST PUSH1 0x40 MLOAD SWAP1 DUP2 MSTORE PUSH1 0x20 ADD PUSH2 0x369 JUMP JUMPDEST CALLVALUE DUP1 ISZERO PUSH2 0x4A0 JUMPI PUSH1 0x0 DUP1 REVERT JUMPDEST POP PUSH1 0x6 SLOAD PUSH2 0x414 SWAP1 PUSH1 0x1 PUSH1 0x1 PUSH1 0xA0 SHL SUB AND DUP2 JUMP JUMPDEST CALLVALUE DUP1 ISZERO PUSH2 0x4C0 JUMPI PUSH1 0x0 DUP1 REVERT JUMPDEST POP PUSH2 0x44C PUSH2 0x4CF CALLDATASIZE PUSH1 0x4 PUSH2 0x3EE2 JUMP JUMPDEST PUSH2 0xE4B JUMP JUMPDEST CALLVALUE DUP1 ISZERO PUSH2 0x4E0 JUMPI PUSH1 0x0 DUP1 REVERT JUMPDEST POP PUSH2 0x486 PUSH1 0x18 SLOAD DUP2 JUMP JUMPDEST CALLVALUE DUP1 ISZERO PUSH2 0x4F6 JUMPI PUSH1 0x0 DUP1 REVERT JUMPDEST POP PUSH2 0x486 PUSH2 0x505 CALLDATASIZE PUSH1 0x4 PUSH2 0x41AF JUMP JUMPDEST PUSH2 0xE7C JUMP JUMPDEST CALLVALUE DUP1 ISZERO PUSH2 0x516 JUMPI PUSH1 0x0 DUP1 REVERT JUMPDEST POP PUSH2 0x44C PUSH2 0x525 CALLDATASIZE PUSH1 0x4 PUSH2 0x415B JUMP JUMPDEST PUSH2 0xEAD JUMP JUMPDEST CALLVALUE DUP1 ISZERO PUSH2 0x536 JUMPI PUSH1 0x0 DUP1 REVERT JUMPDEST POP PUSH2 0x3A2 PUSH2 0x545 CALLDATASIZE PUSH1 0x4 PUSH2 0x415B JUMP JUMPDEST PUSH1 0x3 PUSH1 0x20 MSTORE PUSH1 0x0 SWAP1 DUP2 MSTORE PUSH1 0x40 SWAP1 KECCAK256 SLOAD PUSH1 0xFF AND DUP2 JUMP JUMPDEST CALLVALUE DUP1 ISZERO PUSH2 0x566 JUMPI PUSH1 0x0 DUP1 REVERT JUMPDEST POP PUSH1 0x0 SLOAD PUSH2 0x3A2 SWAP1 PUSH1 0x1 PUSH1 0xA0 SHL SWAP1 DIV PUSH1 0xFF AND DUP2 JUMP JUMPDEST CALLVALUE DUP1 ISZERO PUSH2 0x587 JUMPI PUSH1 0x0 DUP1 REVERT JUMPDEST POP PUSH2 0x44C PUSH2 0x596 CALLDATASIZE PUSH1 0x4 PUSH2 0x415B JUMP JUMPDEST PUSH2 0xEDC JUMP JUMPDEST CALLVALUE DUP1 ISZERO PUSH2 0x5A7 JUMPI PUSH1 0x0 DUP1 REVERT JUMPDEST POP PUSH2 0x44C PUSH2 0x5B6 CALLDATASIZE PUSH1 0x4 PUSH2 0x418B JUMP JUMPDEST PUSH2 0x11CF JUMP JUMPDEST CALLVALUE DUP1 ISZERO PUSH2 0x5C7 JUMPI PUSH1 0x0 DUP1 REVERT JUMPDEST POP PUSH2 0x44C PUSH2 0x5D6 CALLDATASIZE PUSH1 0x4 PUSH2 0x3EE2 JUMP JUMPDEST PUSH2 0x122F JUMP JUMPDEST CALLVALUE DUP1 ISZERO PUSH2 0x5E7 JUMPI PUSH1 0x0 DUP1 REVERT JUMPDEST POP PUSH2 0x44C PUSH2 0x124A JUMP JUMPDEST CALLVALUE DUP1 ISZERO PUSH2 0x5FC JUMPI PUSH1 0x0 DUP1 REVERT JUMPDEST POP PUSH2 0x414 PUSH2 0x60B CALLDATASIZE PUSH1 0x4 PUSH2 0x415B JUMP JUMPDEST PUSH2 0x1383 JUMP JUMPDEST CALLVALUE DUP1 ISZERO PUSH2 0x61C JUMPI PUSH1 0x0 DUP1 REVERT JUMPDEST POP PUSH2 0x44C PUSH2 0x62B CALLDATASIZE PUSH1 0x4 PUSH2 0x41AF JUMP JUMPDEST PUSH2 0x1664 JUMP JUMPDEST CALLVALUE DUP1 ISZERO PUSH2 0x63C JUMPI PUSH1 0x0 DUP1 REVERT JUMPDEST POP PUSH2 0x486 PUSH1 0x9 SLOAD DUP2 JUMP JUMPDEST CALLVALUE DUP1 ISZERO PUSH2 0x652 JUMPI PUSH1 0x0 DUP1 REVERT JUMPDEST POP PUSH2 0x414 PUSH2 0x661 CALLDATASIZE PUSH1 0x4 PUSH2 0x415B JUMP JUMPDEST PUSH2 0x1A79 JUMP JUMPDEST CALLVALUE DUP1 ISZERO PUSH2 0x672 JUMPI PUSH1 0x0 DUP1 REVERT JUMPDEST POP PUSH2 0x44C PUSH2 0x681 CALLDATASIZE PUSH1 0x4 PUSH2 0x415B JUMP JUMPDEST PUSH2 0x1AF0 JUMP JUMPDEST CALLVALUE DUP1 ISZERO PUSH2 0x692 JUMPI PUSH1 0x0 DUP1 REVERT JUMPDEST POP PUSH2 0x486 PUSH2 0x6A1 CALLDATASIZE PUSH1 0x4 PUSH2 0x3E72 JUMP JUMPDEST PUSH2 0x1CD7 JUMP JUMPDEST CALLVALUE DUP1 ISZERO PUSH2 0x6B2 JUMPI PUSH1 0x0 DUP1 REVERT JUMPDEST POP PUSH2 0x44C PUSH2 0x1D5E JUMP JUMPDEST CALLVALUE DUP1 ISZERO PUSH2 0x6C7 JUMPI PUSH1 0x0 DUP1 REVERT JUMPDEST POP PUSH2 0x6DB PUSH2 0x6D6 CALLDATASIZE PUSH1 0x4 PUSH2 0x415B JUMP JUMPDEST PUSH2 0x1DD2 JUMP JUMPDEST PUSH1 0x40 MLOAD PUSH2 0x369 SWAP2 SWAP1 PUSH2 0x4716 JUMP JUMPDEST CALLVALUE DUP1 ISZERO PUSH2 0x6F4 JUMPI PUSH1 0x0 DUP1 REVERT JUMPDEST POP PUSH1 0x13 SLOAD PUSH2 0x414 SWAP1 PUSH1 0x1 PUSH1 0x1 PUSH1 0xA0 SHL SUB AND DUP2 JUMP JUMPDEST CALLVALUE DUP1 ISZERO PUSH2 0x714 JUMPI PUSH1 0x0 DUP1 REVERT JUMPDEST POP PUSH1 0x0 SLOAD PUSH1 0x1 PUSH1 0x1 PUSH1 0xA0 SHL SUB AND PUSH2 0x414 JUMP JUMPDEST CALLVALUE DUP1 ISZERO PUSH2 0x732 JUMPI PUSH1 0x0 DUP1 REVERT JUMPDEST POP PUSH2 0x486 PUSH2 0x741 CALLDATASIZE PUSH1 0x4 PUSH2 0x415B JUMP JUMPDEST PUSH1 0x15 PUSH1 0x20 MSTORE PUSH1 0x0 SWAP1 DUP2 MSTORE PUSH1 0x40 SWAP1 KECCAK256 SLOAD DUP2 JUMP JUMPDEST CALLVALUE DUP1 ISZERO PUSH2 0x75F JUMPI PUSH1 0x0 DUP1 REVERT JUMPDEST POP PUSH2 0x3E7 PUSH2 0x1E2D JUMP JUMPDEST CALLVALUE DUP1 ISZERO PUSH2 0x774 JUMPI PUSH1 0x0 DUP1 REVERT JUMPDEST POP PUSH2 0x3E7 PUSH2 0x1EBB JUMP JUMPDEST CALLVALUE DUP1 ISZERO PUSH2 0x789 JUMPI PUSH1 0x0 DUP1 REVERT JUMPDEST POP PUSH1 0x7 SLOAD PUSH2 0x414 SWAP1 PUSH1 0x1 PUSH1 0x1 PUSH1 0xA0 SHL SUB AND DUP2 JUMP JUMPDEST CALLVALUE DUP1 ISZERO PUSH2 0x7A9 JUMPI PUSH1 0x0 DUP1 REVERT JUMPDEST POP PUSH2 0x486 PUSH1 0x8 SLOAD DUP2 JUMP JUMPDEST CALLVALUE DUP1 ISZERO PUSH2 0x7BF JUMPI PUSH1 0x0 DUP1 REVERT JUMPDEST POP PUSH2 0x44C PUSH2 0x7CE CALLDATASIZE PUSH1 0x4 PUSH2 0x3FFB JUMP JUMPDEST PUSH2 0x1ECA JUMP JUMPDEST CALLVALUE DUP1 ISZERO PUSH2 0x7DF JUMPI PUSH1 0x0 DUP1 REVERT JUMPDEST POP PUSH2 0x44C PUSH2 0x7EE CALLDATASIZE PUSH1 0x4 PUSH2 0x415B JUMP JUMPDEST PUSH2 0x1F9C JUMP JUMPDEST CALLVALUE DUP1 ISZERO PUSH2 0x7FF JUMPI PUSH1 0x0 DUP1 REVERT JUMPDEST POP PUSH2 0x44C PUSH2 0x80E CALLDATASIZE PUSH1 0x4 PUSH2 0x40EE JUMP JUMPDEST PUSH2 0x1FCB JUMP JUMPDEST CALLVALUE DUP1 ISZERO PUSH2 0x81F JUMPI PUSH1 0x0 DUP1 REVERT JUMPDEST POP PUSH2 0x828 PUSH2 0x2001 JUMP JUMPDEST PUSH1 0x40 MLOAD PUSH2 0x369 SWAP2 SWAP1 PUSH2 0x4447 JUMP JUMPDEST PUSH2 0x44C PUSH2 0x843 CALLDATASIZE PUSH1 0x4 PUSH2 0x40EE JUMP JUMPDEST PUSH2 0x2112 JUMP JUMPDEST CALLVALUE DUP1 ISZERO PUSH2 0x854 JUMPI PUSH1 0x0 DUP1 REVERT JUMPDEST POP PUSH2 0x868 PUSH2 0x863 CALLDATASIZE PUSH1 0x4 PUSH2 0x415B JUMP JUMPDEST PUSH2 0x22D5 JUMP JUMPDEST PUSH1 0x40 MLOAD PUSH2 0x369 SWAP2 SWAP1 PUSH2 0x44D2 JUMP JUMPDEST CALLVALUE DUP1 ISZERO PUSH2 0x881 JUMPI PUSH1 0x0 DUP1 REVERT JUMPDEST POP PUSH2 0x44C PUSH2 0x890 CALLDATASIZE PUSH1 0x4 PUSH2 0x41AF JUMP JUMPDEST PUSH2 0x2337 JUMP JUMPDEST CALLVALUE DUP1 ISZERO PUSH2 0x8A1 JUMPI PUSH1 0x0 DUP1 REVERT JUMPDEST POP PUSH2 0x44C PUSH2 0x8B0 CALLDATASIZE PUSH1 0x4 PUSH2 0x415B JUMP JUMPDEST PUSH2 0x27A1 JUMP JUMPDEST CALLVALUE DUP1 ISZERO PUSH2 0x8C1 JUMPI PUSH1 0x0 DUP1 REVERT JUMPDEST POP PUSH2 0x44C PUSH2 0x8D0 CALLDATASIZE PUSH1 0x4 PUSH2 0x3F22 JUMP JUMPDEST PUSH2 0x27D0 JUMP JUMPDEST CALLVALUE DUP1 ISZERO PUSH2 0x8E1 JUMPI PUSH1 0x0 DUP1 REVERT JUMPDEST POP PUSH2 0x44C PUSH2 0x2808 JUMP JUMPDEST CALLVALUE DUP1 ISZERO PUSH2 0x8F6 JUMPI PUSH1 0x0 DUP1 REVERT JUMPDEST POP PUSH2 0x486 PUSH1 0x1 SLOAD DUP2 JUMP JUMPDEST CALLVALUE DUP1 ISZERO PUSH2 0x90C JUMPI PUSH1 0x0 DUP1 REVERT JUMPDEST POP PUSH2 0x3A2 PUSH2 0x91B CALLDATASIZE PUSH1 0x4 PUSH2 0x415B JUMP JUMPDEST PUSH1 0x5 PUSH1 0x20 MSTORE PUSH1 0x0 SWAP1 DUP2 MSTORE PUSH1 0x40 SWAP1 KECCAK256 SLOAD PUSH1 0xFF AND DUP2 JUMP JUMPDEST CALLVALUE DUP1 ISZERO PUSH2 0x93C JUMPI PUSH1 0x0 DUP1 REVERT JUMPDEST POP PUSH2 0x3E7 PUSH2 0x94B CALLDATASIZE PUSH1 0x4 PUSH2 0x415B JUMP JUMPDEST PUSH2 0x2BEA JUMP JUMPDEST CALLVALUE DUP1 ISZERO PUSH2 0x95C JUMPI PUSH1 0x0 DUP1 REVERT JUMPDEST POP PUSH1 0x12 SLOAD PUSH2 0x414 SWAP1 PUSH1 0x1 PUSH1 0x1 PUSH1 0xA0 SHL SUB AND DUP2 JUMP JUMPDEST CALLVALUE DUP1 ISZERO PUSH2 0x97C JUMPI PUSH1 0x0 DUP1 REVERT JUMPDEST POP PUSH2 0x44C PUSH2 0x98B CALLDATASIZE PUSH1 0x4 PUSH2 0x41AF JUMP JUMPDEST PUSH2 0x2D62 JUMP JUMPDEST CALLVALUE DUP1 ISZERO PUSH2 0x99C JUMPI PUSH1 0x0 DUP1 REVERT JUMPDEST POP PUSH2 0x486 PUSH1 0x16 SLOAD DUP2 JUMP JUMPDEST CALLVALUE DUP1 ISZERO PUSH2 0x9B2 JUMPI PUSH1 0x0 DUP1 REVERT JUMPDEST POP PUSH2 0x3A2 PUSH2 0x9C1 CALLDATASIZE PUSH1 0x4 PUSH2 0x3EAA JUMP JUMPDEST PUSH1 0x1 PUSH1 0x1 PUSH1 0xA0 SHL SUB SWAP2 DUP3 AND PUSH1 0x0 SWAP1 DUP2 MSTORE PUSH1 0x10 PUSH1 0x20 SWAP1 DUP2 MSTORE PUSH1 0x40 DUP1 DUP4 KECCAK256 SWAP4 SWAP1 SWAP5 AND DUP3 MSTORE SWAP2 SWAP1 SWAP2 MSTORE KECCAK256 SLOAD PUSH1 0xFF AND SWAP1 JUMP JUMPDEST CALLVALUE DUP1 ISZERO PUSH2 0x9FB JUMPI PUSH1 0x0 DUP1 REVERT JUMPDEST POP PUSH2 0x486 PUSH1 0x1B SLOAD DUP2 JUMP JUMPDEST CALLVALUE DUP1 ISZERO PUSH2 0xA11 JUMPI PUSH1 0x0 DUP1 REVERT JUMPDEST POP PUSH2 0x486 PUSH1 0x17 SLOAD DUP2 JUMP JUMPDEST CALLVALUE DUP1 ISZERO PUSH2 0xA27 JUMPI PUSH1 0x0 DUP1 REVERT JUMPDEST POP PUSH2 0x44C PUSH2 0xA36 CALLDATASIZE PUSH1 0x4 PUSH2 0x3E72 JUMP JUMPDEST PUSH2 0x3162 JUMP JUMPDEST PUSH1 0x14 DUP2 DUP2 SLOAD DUP2 LT PUSH2 0xA4B JUMPI PUSH1 0x0 DUP1 REVERT JUMPDEST PUSH1 0x0 SWAP2 DUP3 MSTORE PUSH1 0x20 SWAP1 SWAP2 KECCAK256 PUSH1 0x3 SWAP1 SWAP2 MUL ADD DUP1 SLOAD PUSH1 0x1 DUP3 ADD DUP1 SLOAD PUSH1 0x1 PUSH1 0x1 PUSH1 0xA0 SHL SUB SWAP1 SWAP3 AND SWAP4 POP SWAP1 PUSH2 0xA7A SWAP1 PUSH2 0x47E5 JUMP JUMPDEST DUP1 PUSH1 0x1F ADD PUSH1 0x20 DUP1 SWAP2 DIV MUL PUSH1 0x20 ADD PUSH1 0x40 MLOAD SWAP1 DUP2 ADD PUSH1 0x40 MSTORE DUP1 SWAP3 SWAP2 SWAP1 DUP2 DUP2 MSTORE PUSH1 0x20 ADD DUP3 DUP1 SLOAD PUSH2 0xAA6 SWAP1 PUSH2 0x47E5 JUMP JUMPDEST DUP1 ISZERO PUSH2 0xAF3 JUMPI DUP1 PUSH1 0x1F LT PUSH2 0xAC8 JUMPI PUSH2 0x100 DUP1 DUP4 SLOAD DIV MUL DUP4 MSTORE SWAP2 PUSH1 0x20 ADD SWAP2 PUSH2 0xAF3 JUMP JUMPDEST DUP3 ADD SWAP2 SWAP1 PUSH1 0x0 MSTORE PUSH1 0x20 PUSH1 0x0 KECCAK256 SWAP1 JUMPDEST DUP2 SLOAD DUP2 MSTORE SWAP1 PUSH1 0x1 ADD SWAP1 PUSH1 0x20 ADD DUP1 DUP4 GT PUSH2 0xAD6 JUMPI DUP3 SWAP1 SUB PUSH1 0x1F AND DUP3 ADD SWAP2 JUMPDEST POP POP POP POP POP SWAP1 DUP1 PUSH1 0x2 ADD SLOAD SWAP1 POP DUP4 JUMP JUMPDEST PUSH1 0x0 PUSH1 0x1 PUSH1 0x1 PUSH1 0xE0 SHL SUB NOT DUP3 AND PUSH4 0x80AC58CD PUSH1 0xE0 SHL EQ DUP1 PUSH2 0xB34 JUMPI POP PUSH1 0x1 PUSH1 0x1 PUSH1 0xE0 SHL SUB NOT DUP3 AND PUSH4 0x5B5E139F PUSH1 0xE0 SHL EQ JUMPDEST DUP1 PUSH2 0xB4F JUMPI POP PUSH4 0x1FFC9A7 PUSH1 0xE0 SHL PUSH1 0x1 PUSH1 0x1 PUSH1 0xE0 SHL SUB NOT DUP4 AND EQ JUMPDEST SWAP1 POP JUMPDEST SWAP2 SWAP1 POP JUMP JUMPDEST PUSH1 0x60 PUSH1 0xB DUP1 SLOAD PUSH2 0xB66 SWAP1 PUSH2 0x47E5 JUMP JUMPDEST DUP1 PUSH1 0x1F ADD PUSH1 0x20 DUP1 SWAP2 DIV MUL PUSH1 0x20 ADD PUSH1 0x40 MLOAD SWAP1 DUP2 ADD PUSH1 0x40 MSTORE DUP1 SWAP3 SWAP2 SWAP1 DUP2 DUP2 MSTORE PUSH1 0x20 ADD DUP3 DUP1 SLOAD PUSH2 0xB92 SWAP1 PUSH2 0x47E5 JUMP JUMPDEST DUP1 ISZERO PUSH2 0xBDF JUMPI DUP1 PUSH1 0x1F LT PUSH2 0xBB4 JUMPI PUSH2 0x100 DUP1 DUP4 SLOAD DIV MUL DUP4 MSTORE SWAP2 PUSH1 0x20 ADD SWAP2 PUSH2 0xBDF JUMP JUMPDEST DUP3 ADD SWAP2 SWAP1 PUSH1 0x0 MSTORE PUSH1 0x20 PUSH1 0x0 KECCAK256 SWAP1 JUMPDEST DUP2 SLOAD DUP2 MSTORE SWAP1 PUSH1 0x1 ADD SWAP1 PUSH1 0x20 ADD DUP1 DUP4 GT PUSH2 0xBC2 JUMPI DUP3 SWAP1 SUB PUSH1 0x1F AND DUP3 ADD SWAP2 JUMPDEST POP POP POP POP POP SWAP1 POP SWAP1 JUMP JUMPDEST PUSH1 0x0 PUSH2 0xBF4 DUP3 PUSH2 0x324C JUMP JUMPDEST PUSH2 0xC5A JUMPI PUSH1 0x40 MLOAD PUSH3 0x461BCD PUSH1 0xE5 SHL DUP2 MSTORE PUSH1 0x20 PUSH1 0x4 DUP3 ADD MSTORE PUSH1 0x2C PUSH1 0x24 DUP3 ADD MSTORE PUSH32 0x4552433732313A20617070726F76656420717565727920666F72206E6F6E6578 PUSH1 0x44 DUP3 ADD MSTORE PUSH12 0x34B9BA32B73A103A37B5B2B7 PUSH1 0xA1 SHL PUSH1 0x64 DUP3 ADD MSTORE PUSH1 0x84 ADD JUMPDEST PUSH1 0x40 MLOAD DUP1 SWAP2 SUB SWAP1 REVERT JUMPDEST POP PUSH1 0x0 SWAP1 DUP2 MSTORE PUSH1 0xF PUSH1 0x20 MSTORE PUSH1 0x40 SWAP1 KECCAK256 SLOAD PUSH1 0x1 PUSH1 0x1 PUSH1 0xA0 SHL SUB AND SWAP1 JUMP JUMPDEST PUSH1 0x0 PUSH2 0xC81 DUP3 PUSH2 0x1A79 JUMP JUMPDEST SWAP1 POP DUP1 PUSH1 0x1 PUSH1 0x1 PUSH1 0xA0 SHL SUB AND DUP4 PUSH1 0x1 PUSH1 0x1 PUSH1 0xA0 SHL SUB AND EQ ISZERO PUSH2 0xCEF JUMPI PUSH1 0x40 MLOAD PUSH3 0x461BCD PUSH1 0xE5 SHL DUP2 MSTORE PUSH1 0x20 PUSH1 0x4 DUP3 ADD MSTORE PUSH1 0x21 PUSH1 0x24 DUP3 ADD MSTORE PUSH32 0x4552433732313A20617070726F76616C20746F2063757272656E74206F776E65 PUSH1 0x44 DUP3 ADD MSTORE PUSH1 0x39 PUSH1 0xF9 SHL PUSH1 0x64 DUP3 ADD MSTORE PUSH1 0x84 ADD PUSH2 0xC51 JUMP JUMPDEST CALLER PUSH1 0x1 PUSH1 0x1 PUSH1 0xA0 SHL SUB DUP3 AND EQ DUP1 PUSH2 0xD0B JUMPI POP PUSH2 0xD0B DUP2 CALLER PUSH2 0x9C1 JUMP JUMPDEST PUSH2 0xD7D JUMPI PUSH1 0x40 MLOAD PUSH3 0x461BCD PUSH1 0xE5 SHL DUP2 MSTORE PUSH1 0x20 PUSH1 0x4 DUP3 ADD MSTORE PUSH1 0x38 PUSH1 0x24 DUP3 ADD MSTORE PUSH32 0x4552433732313A20617070726F76652063616C6C6572206973206E6F74206F77 PUSH1 0x44 DUP3 ADD MSTORE PUSH32 0x6E6572206E6F7220617070726F76656420666F7220616C6C0000000000000000 PUSH1 0x64 DUP3 ADD MSTORE PUSH1 0x84 ADD PUSH2 0xC51 JUMP JUMPDEST PUSH2 0xD87 DUP4 DUP4 PUSH2 0x3269 JUMP JUMPDEST POP POP POP JUMP JUMPDEST PUSH1 0x60 PUSH1 0x1 SLOAD PUSH8 0xFFFFFFFFFFFFFFFF DUP2 GT ISZERO PUSH2 0xDB7 JUMPI PUSH4 0x4E487B71 PUSH1 0xE0 SHL PUSH1 0x0 MSTORE PUSH1 0x41 PUSH1 0x4 MSTORE PUSH1 0x24 PUSH1 0x0 REVERT JUMPDEST PUSH1 0x40 MLOAD SWAP1 DUP1 DUP3 MSTORE DUP1 PUSH1 0x20 MUL PUSH1 0x20 ADD DUP3 ADD PUSH1 0x40 MSTORE DUP1 ISZERO PUSH2 0xDF0 JUMPI DUP2 PUSH1 0x20 ADD JUMPDEST PUSH2 0xDDD PUSH2 0x3C8A JUMP JUMPDEST DUP2 MSTORE PUSH1 0x20 ADD SWAP1 PUSH1 0x1 SWAP1 SUB SWAP1 DUP2 PUSH2 0xDD5 JUMPI SWAP1 POP JUMPDEST POP SWAP1 POP PUSH1 0x0 JUMPDEST PUSH1 0x1 SLOAD DUP2 LT ISZERO PUSH2 0xE47 JUMPI PUSH2 0xE09 DUP2 PUSH2 0x1DD2 JUMP JUMPDEST DUP3 DUP3 DUP2 MLOAD DUP2 LT PUSH2 0xE29 JUMPI PUSH4 0x4E487B71 PUSH1 0xE0 SHL PUSH1 0x0 MSTORE PUSH1 0x32 PUSH1 0x4 MSTORE PUSH1 0x24 PUSH1 0x0 REVERT JUMPDEST PUSH1 0x20 MUL PUSH1 0x20 ADD ADD DUP2 SWAP1 MSTORE POP DUP1 DUP1 PUSH2 0xE3F SWAP1 PUSH2 0x481A JUMP JUMPDEST SWAP2 POP POP PUSH2 0xDF6 JUMP JUMPDEST POP SWAP1 JUMP JUMPDEST PUSH2 0xE55 CALLER DUP3 PUSH2 0x32D7 JUMP JUMPDEST PUSH2 0xE71 JUMPI PUSH1 0x40 MLOAD PUSH3 0x461BCD PUSH1 0xE5 SHL DUP2 MSTORE PUSH1 0x4 ADD PUSH2 0xC51 SWAP1 PUSH2 0x46C5 JUMP JUMPDEST PUSH2 0xD87 DUP4 DUP4 DUP4 PUSH2 0x33BD JUMP JUMPDEST PUSH1 0x2 PUSH1 0x20 MSTORE DUP2 PUSH1 0x0 MSTORE PUSH1 0x40 PUSH1 0x0 KECCAK256 DUP2 DUP2 SLOAD DUP2 LT PUSH2 0xE98 JUMPI PUSH1 0x0 DUP1 REVERT JUMPDEST SWAP1 PUSH1 0x0 MSTORE PUSH1 0x20 PUSH1 0x0 KECCAK256 ADD PUSH1 0x0 SWAP2 POP SWAP2 POP POP SLOAD DUP2 JUMP JUMPDEST PUSH1 0x0 SLOAD PUSH1 0x1 PUSH1 0x1 PUSH1 0xA0 SHL SUB AND CALLER EQ PUSH2 0xED7 JUMPI PUSH1 0x40 MLOAD PUSH3 0x461BCD PUSH1 0xE5 SHL DUP2 MSTORE PUSH1 0x4 ADD PUSH2 0xC51 SWAP1 PUSH2 0x464A JUMP JUMPDEST PUSH1 0x18 SSTORE JUMP JUMPDEST PUSH1 0x0 DUP2 DUP2 MSTORE PUSH1 0x2 PUSH1 0x20 SWAP1 DUP2 MSTORE PUSH1 0x40 DUP1 DUP4 KECCAK256 DUP1 SLOAD DUP3 MLOAD DUP2 DUP6 MUL DUP2 ADD DUP6 ADD SWAP1 SWAP4 MSTORE DUP1 DUP4 MSTORE SWAP2 SWAP3 SWAP1 SWAP2 SWAP1 DUP4 ADD DUP3 DUP3 DUP1 ISZERO PUSH2 0xF32 JUMPI PUSH1 0x20 MUL DUP3 ADD SWAP2 SWAP1 PUSH1 0x0 MSTORE PUSH1 0x20 PUSH1 0x0 KECCAK256 SWAP1 JUMPDEST DUP2 SLOAD DUP2 MSTORE PUSH1 0x20 ADD SWAP1 PUSH1 0x1 ADD SWAP1 DUP1 DUP4 GT PUSH2 0xF1E JUMPI JUMPDEST POP POP POP POP POP SWAP1 POP PUSH1 0x0 DUP2 MLOAD GT PUSH2 0xF98 JUMPI PUSH1 0x40 MLOAD PUSH3 0x461BCD PUSH1 0xE5 SHL DUP2 MSTORE PUSH1 0x20 PUSH1 0x4 DUP3 ADD MSTORE PUSH1 0x25 PUSH1 0x24 DUP3 ADD MSTORE PUSH32 0x426174746C656669656C643A20726574726561742066726F6D20656D70747920 PUSH1 0x44 DUP3 ADD MSTORE PUSH5 0x199A595B19 PUSH1 0xDA SHL PUSH1 0x64 DUP3 ADD MSTORE PUSH1 0x84 ADD PUSH2 0xC51 JUMP JUMPDEST PUSH1 0x0 DUP2 PUSH1 0x0 DUP2 MLOAD DUP2 LT PUSH2 0xFBB JUMPI PUSH4 0x4E487B71 PUSH1 0xE0 SHL PUSH1 0x0 MSTORE PUSH1 0x32 PUSH1 0x4 MSTORE PUSH1 0x24 PUSH1 0x0 REVERT JUMPDEST PUSH1 0x20 SWAP1 DUP2 MUL SWAP2 SWAP1 SWAP2 ADD DUP2 ADD MLOAD PUSH1 0x0 DUP6 DUP2 MSTORE PUSH1 0x3 SWAP1 SWAP3 MSTORE PUSH1 0x40 SWAP1 SWAP2 KECCAK256 SLOAD SWAP1 SWAP2 POP PUSH1 0xFF AND ISZERO PUSH2 0x109F JUMPI PUSH1 0x6 SLOAD PUSH1 0x40 MLOAD PUSH4 0x31A9108F PUSH1 0xE1 SHL DUP2 MSTORE PUSH1 0x4 DUP2 ADD DUP4 SWAP1 MSTORE CALLER SWAP2 PUSH1 0x1 PUSH1 0x1 PUSH1 0xA0 SHL SUB AND SWAP1 PUSH4 0x6352211E SWAP1 PUSH1 0x24 ADD PUSH1 0x20 PUSH1 0x40 MLOAD DUP1 DUP4 SUB DUP2 DUP7 DUP1 EXTCODESIZE ISZERO DUP1 ISZERO PUSH2 0x1026 JUMPI PUSH1 0x0 DUP1 REVERT JUMPDEST POP GAS STATICCALL ISZERO DUP1 ISZERO PUSH2 0x103A JUMPI RETURNDATASIZE PUSH1 0x0 DUP1 RETURNDATACOPY RETURNDATASIZE PUSH1 0x0 REVERT JUMPDEST POP POP POP POP PUSH1 0x40 MLOAD RETURNDATASIZE PUSH1 0x1F NOT PUSH1 0x1F DUP3 ADD AND DUP3 ADD DUP1 PUSH1 0x40 MSTORE POP DUP2 ADD SWAP1 PUSH2 0x105E SWAP2 SWAP1 PUSH2 0x3E8E JUMP JUMPDEST PUSH1 0x1 PUSH1 0x1 PUSH1 0xA0 SHL SUB AND EQ PUSH2 0x1084 JUMPI PUSH1 0x40 MLOAD PUSH3 0x461BCD PUSH1 0xE5 SHL DUP2 MSTORE PUSH1 0x4 ADD PUSH2 0xC51 SWAP1 PUSH2 0x4613 JUMP JUMPDEST PUSH1 0x0 DUP2 DUP2 MSTORE PUSH1 0x4 PUSH1 0x20 MSTORE PUSH1 0x40 SWAP1 KECCAK256 DUP1 SLOAD PUSH1 0xFF NOT AND SWAP1 SSTORE PUSH2 0x1158 JUMP JUMPDEST PUSH1 0x7 SLOAD PUSH1 0x40 MLOAD PUSH4 0x31A9108F PUSH1 0xE1 SHL DUP2 MSTORE PUSH1 0x4 DUP2 ADD DUP4 SWAP1 MSTORE CALLER SWAP2 PUSH1 0x1 PUSH1 0x1 PUSH1 0xA0 SHL SUB AND SWAP1 PUSH4 0x6352211E SWAP1 PUSH1 0x24 ADD PUSH1 0x20 PUSH1 0x40 MLOAD DUP1 DUP4 SUB DUP2 DUP7 DUP1 EXTCODESIZE ISZERO DUP1 ISZERO PUSH2 0x10E3 JUMPI PUSH1 0x0 DUP1 REVERT JUMPDEST POP GAS STATICCALL ISZERO DUP1 ISZERO PUSH2 0x10F7 JUMPI RETURNDATASIZE PUSH1 0x0 DUP1 RETURNDATACOPY RETURNDATASIZE PUSH1 0x0 REVERT JUMPDEST POP POP POP POP PUSH1 0x40 MLOAD RETURNDATASIZE PUSH1 0x1F NOT PUSH1 0x1F DUP3 ADD AND DUP3 ADD DUP1 PUSH1 0x40 MSTORE POP DUP2 ADD SWAP1 PUSH2 0x111B SWAP2 SWAP1 PUSH2 0x3E8E JUMP JUMPDEST PUSH1 0x1 PUSH1 0x1 PUSH1 0xA0 SHL SUB AND EQ PUSH2 0x1141 JUMPI PUSH1 0x40 MLOAD PUSH3 0x461BCD PUSH1 0xE5 SHL DUP2 MSTORE PUSH1 0x4 ADD PUSH2 0xC51 SWAP1 PUSH2 0x4613 JUMP JUMPDEST PUSH1 0x0 DUP2 DUP2 MSTORE PUSH1 0x5 PUSH1 0x20 MSTORE PUSH1 0x40 SWAP1 KECCAK256 DUP1 SLOAD PUSH1 0xFF NOT AND SWAP1 SSTORE JUMPDEST PUSH1 0x0 DUP4 DUP2 MSTORE PUSH1 0x2 PUSH1 0x20 MSTORE PUSH1 0x40 DUP2 KECCAK256 PUSH2 0x116F SWAP2 PUSH2 0x3CB6 JUMP JUMPDEST PUSH1 0x0 DUP4 DUP2 MSTORE PUSH1 0x3 PUSH1 0x20 SWAP1 DUP2 MSTORE PUSH1 0x40 DUP1 DUP4 KECCAK256 SLOAD PUSH1 0x2 SWAP1 SWAP3 MSTORE DUP1 DUP4 KECCAK256 SWAP1 MLOAD PUSH1 0xFF SWAP1 SWAP3 AND ISZERO ISZERO SWAP3 SWAP2 DUP7 SWAP2 PUSH32 0x9A3C276128DA5BF5F6A0C9B8DF4DF4C267F0CA732B1708CB8425BF3C308FEF19 SWAP2 PUSH2 0x11C2 SWAP2 SWAP1 PUSH2 0x44E5 JUMP JUMPDEST PUSH1 0x40 MLOAD DUP1 SWAP2 SUB SWAP1 LOG4 POP POP POP JUMP JUMPDEST PUSH1 0x0 SLOAD PUSH1 0x1 PUSH1 0x1 PUSH1 0xA0 SHL SUB AND CALLER EQ PUSH2 0x11F9 JUMPI PUSH1 0x40 MLOAD PUSH3 0x461BCD PUSH1 0xE5 SHL DUP2 MSTORE PUSH1 0x4 ADD PUSH2 0xC51 SWAP1 PUSH2 0x464A JUMP JUMPDEST PUSH1 0x40 MLOAD PUSH1 0x1 PUSH1 0x1 PUSH1 0xA0 SHL SUB DUP3 AND SWAP1 DUP4 ISZERO PUSH2 0x8FC MUL SWAP1 DUP5 SWAP1 PUSH1 0x0 DUP2 DUP2 DUP2 DUP6 DUP9 DUP9 CALL SWAP4 POP POP POP POP ISZERO DUP1 ISZERO PUSH2 0xD87 JUMPI RETURNDATASIZE PUSH1 0x0 DUP1 RETURNDATACOPY RETURNDATASIZE PUSH1 0x0 REVERT JUMPDEST PUSH2 0xD87 DUP4 DUP4 DUP4 PUSH1 0x40 MLOAD DUP1 PUSH1 0x20 ADD PUSH1 0x40 MSTORE DUP1 PUSH1 0x0 DUP2 MSTORE POP PUSH2 0x27D0 JUMP JUMPDEST PUSH1 0x0 SLOAD PUSH1 0x1 PUSH1 0xA0 SHL SWAP1 DIV PUSH1 0xFF AND ISZERO PUSH2 0x12A4 JUMPI PUSH1 0x40 MLOAD PUSH3 0x461BCD PUSH1 0xE5 SHL DUP2 MSTORE PUSH1 0x20 PUSH1 0x4 DUP3 ADD MSTORE PUSH1 0x1E PUSH1 0x24 DUP3 ADD MSTORE PUSH32 0x426174746C656669656C643A206E6F7420696E20766F74652073746174650000 PUSH1 0x44 DUP3 ADD MSTORE PUSH1 0x64 ADD PUSH2 0xC51 JUMP JUMPDEST PUSH1 0x14 SLOAD PUSH1 0x1 LT PUSH2 0x1300 JUMPI PUSH1 0x40 MLOAD PUSH3 0x461BCD PUSH1 0xE5 SHL DUP2 MSTORE PUSH1 0x20 PUSH1 0x4 DUP3 ADD MSTORE PUSH1 0x21 PUSH1 0x24 DUP3 ADD MSTORE PUSH32 0x426174746C656669656C643A206E6F7420656E6F7567682070726F706F73616C PUSH1 0x44 DUP3 ADD MSTORE PUSH1 0x73 PUSH1 0xF8 SHL PUSH1 0x64 DUP3 ADD MSTORE PUSH1 0x84 ADD PUSH2 0xC51 JUMP JUMPDEST PUSH1 0x17 SLOAD PUSH1 0x16 SLOAD TIMESTAMP SWAP2 PUSH2 0x1311 SWAP2 PUSH2 0x475F JUMP JUMPDEST DUP2 LT ISZERO PUSH2 0x136B JUMPI PUSH1 0x40 MLOAD PUSH3 0x461BCD PUSH1 0xE5 SHL DUP2 MSTORE PUSH1 0x20 PUSH1 0x4 DUP3 ADD MSTORE PUSH1 0x22 PUSH1 0x24 DUP3 ADD MSTORE PUSH32 0x426174746C656669656C643A206E6F742079657420746F20737461727420766F PUSH1 0x44 DUP3 ADD MSTORE PUSH2 0x7465 PUSH1 0xF0 SHL PUSH1 0x64 DUP3 ADD MSTORE PUSH1 0x84 ADD PUSH2 0xC51 JUMP JUMPDEST PUSH1 0x16 SSTORE PUSH1 0x0 DUP1 SLOAD PUSH1 0xFF PUSH1 0xA0 SHL NOT AND PUSH1 0x1 PUSH1 0xA0 SHL OR SWAP1 SSTORE JUMP JUMPDEST PUSH1 0x0 DUP2 DUP2 MSTORE PUSH1 0x2 PUSH1 0x20 SWAP1 DUP2 MSTORE PUSH1 0x40 DUP1 DUP4 KECCAK256 DUP1 SLOAD DUP3 MLOAD DUP2 DUP6 MUL DUP2 ADD DUP6 ADD SWAP1 SWAP4 MSTORE DUP1 DUP4 MSTORE DUP5 SWAP4 DUP4 ADD DUP3 DUP3 DUP1 ISZERO PUSH2 0x13D6 JUMPI PUSH1 0x20 MUL DUP3 ADD SWAP2 SWAP1 PUSH1 0x0 MSTORE PUSH1 0x20 PUSH1 0x0 KECCAK256 SWAP1 JUMPDEST DUP2 SLOAD DUP2 MSTORE PUSH1 0x20 ADD SWAP1 PUSH1 0x1 ADD SWAP1 DUP1 DUP4 GT PUSH2 0x13C2 JUMPI JUMPDEST POP POP POP POP POP SWAP1 POP DUP1 MLOAD PUSH1 0x0 EQ ISZERO PUSH2 0x13F1 JUMPI PUSH1 0x0 SWAP2 POP POP PUSH2 0xB52 JUMP JUMPDEST PUSH1 0x0 DUP4 DUP2 MSTORE PUSH1 0x3 PUSH1 0x20 MSTORE PUSH1 0x40 SWAP1 KECCAK256 SLOAD PUSH1 0xFF AND ISZERO PUSH2 0x1577 JUMPI PUSH1 0x6 SLOAD DUP2 MLOAD PUSH1 0x1 PUSH1 0x1 PUSH1 0xA0 SHL SUB SWAP1 SWAP2 AND SWAP1 PUSH4 0xD0248516 SWAP1 DUP4 SWAP1 PUSH1 0x0 SWAP1 PUSH2 0x143E JUMPI PUSH4 0x4E487B71 PUSH1 0xE0 SHL PUSH1 0x0 MSTORE PUSH1 0x32 PUSH1 0x4 MSTORE PUSH1 0x24 PUSH1 0x0 REVERT JUMPDEST PUSH1 0x20 MUL PUSH1 0x20 ADD ADD MLOAD PUSH1 0x40 MLOAD DUP3 PUSH4 0xFFFFFFFF AND PUSH1 0xE0 SHL DUP2 MSTORE PUSH1 0x4 ADD PUSH2 0x1464 SWAP2 DUP2 MSTORE PUSH1 0x20 ADD SWAP1 JUMP JUMPDEST PUSH1 0x20 PUSH1 0x40 MLOAD DUP1 DUP4 SUB DUP2 DUP7 DUP1 EXTCODESIZE ISZERO DUP1 ISZERO PUSH2 0x147C JUMPI PUSH1 0x0 DUP1 REVERT JUMPDEST POP GAS STATICCALL ISZERO DUP1 ISZERO PUSH2 0x1490 JUMPI RETURNDATASIZE PUSH1 0x0 DUP1 RETURNDATACOPY RETURNDATASIZE PUSH1 0x0 REVERT JUMPDEST POP POP POP POP PUSH1 0x40 MLOAD RETURNDATASIZE PUSH1 0x1F NOT PUSH1 0x1F DUP3 ADD AND DUP3 ADD DUP1 PUSH1 0x40 MSTORE POP DUP2 ADD SWAP1 PUSH2 0x14B4 SWAP2 SWAP1 PUSH2 0x409A JUMP JUMPDEST ISZERO PUSH2 0x156D JUMPI PUSH1 0x6 SLOAD DUP2 MLOAD PUSH1 0x1 PUSH1 0x1 PUSH1 0xA0 SHL SUB SWAP1 SWAP2 AND SWAP1 PUSH4 0x6352211E SWAP1 DUP4 SWAP1 PUSH1 0x0 SWAP1 PUSH2 0x14EF JUMPI PUSH4 0x4E487B71 PUSH1 0xE0 SHL PUSH1 0x0 MSTORE PUSH1 0x32 PUSH1 0x4 MSTORE PUSH1 0x24 PUSH1 0x0 REVERT JUMPDEST PUSH1 0x20 MUL PUSH1 0x20 ADD ADD MLOAD PUSH1 0x40 MLOAD DUP3 PUSH4 0xFFFFFFFF AND PUSH1 0xE0 SHL DUP2 MSTORE PUSH1 0x4 ADD PUSH2 0x1515 SWAP2 DUP2 MSTORE PUSH1 0x20 ADD SWAP1 JUMP JUMPDEST PUSH1 0x20 PUSH1 0x40 MLOAD DUP1 DUP4 SUB DUP2 DUP7 DUP1 EXTCODESIZE ISZERO DUP1 ISZERO PUSH2 0x152D JUMPI PUSH1 0x0 DUP1 REVERT JUMPDEST POP GAS STATICCALL ISZERO DUP1 ISZERO PUSH2 0x1541 JUMPI RETURNDATASIZE PUSH1 0x0 DUP1 RETURNDATACOPY RETURNDATASIZE PUSH1 0x0 REVERT JUMPDEST POP POP POP POP PUSH1 0x40 MLOAD RETURNDATASIZE PUSH1 0x1F NOT PUSH1 0x1F DUP3 ADD AND DUP3 ADD DUP1 PUSH1 0x40 MSTORE POP DUP2 ADD SWAP1 PUSH2 0x1565 SWAP2 SWAP1 PUSH2 0x3E8E JUMP JUMPDEST SWAP2 POP POP PUSH2 0xB52 JUMP JUMPDEST PUSH1 0x0 SWAP2 POP POP PUSH2 0xB52 JUMP JUMPDEST PUSH1 0x7 SLOAD DUP2 MLOAD PUSH1 0x1 PUSH1 0x1 PUSH1 0xA0 SHL SUB SWAP1 SWAP2 AND SWAP1 PUSH4 0xD0248516 SWAP1 DUP4 SWAP1 PUSH1 0x0 SWAP1 PUSH2 0x15AD JUMPI PUSH4 0x4E487B71 PUSH1 0xE0 SHL PUSH1 0x0 MSTORE PUSH1 0x32 PUSH1 0x4 MSTORE PUSH1 0x24 PUSH1 0x0 REVERT JUMPDEST PUSH1 0x20 MUL PUSH1 0x20 ADD ADD MLOAD PUSH1 0x40 MLOAD DUP3 PUSH4 0xFFFFFFFF AND PUSH1 0xE0 SHL DUP2 MSTORE PUSH1 0x4 ADD PUSH2 0x15D3 SWAP2 DUP2 MSTORE PUSH1 0x20 ADD SWAP1 JUMP JUMPDEST PUSH1 0x20 PUSH1 0x40 MLOAD DUP1 DUP4 SUB DUP2 DUP7 DUP1 EXTCODESIZE ISZERO DUP1 ISZERO PUSH2 0x15EB JUMPI PUSH1 0x0 DUP1 REVERT JUMPDEST POP GAS STATICCALL ISZERO DUP1 ISZERO PUSH2 0x15FF JUMPI RETURNDATASIZE PUSH1 0x0 DUP1 RETURNDATACOPY RETURNDATASIZE PUSH1 0x0 REVERT JUMPDEST POP POP POP POP PUSH1 0x40 MLOAD RETURNDATASIZE PUSH1 0x1F NOT PUSH1 0x1F DUP3 ADD AND DUP3 ADD DUP1 PUSH1 0x40 MSTORE POP DUP2 ADD SWAP1 PUSH2 0x1623 SWAP2 SWAP1 PUSH2 0x409A JUMP JUMPDEST ISZERO PUSH2 0x156D JUMPI PUSH1 0x7 SLOAD DUP2 MLOAD PUSH1 0x1 PUSH1 0x1 PUSH1 0xA0 SHL SUB SWAP1 SWAP2 AND SWAP1 PUSH4 0x6352211E SWAP1 DUP4 SWAP1 PUSH1 0x0 SWAP1 PUSH2 0x14EF JUMPI PUSH4 0x4E487B71 PUSH1 0xE0 SHL PUSH1 0x0 MSTORE PUSH1 0x32 PUSH1 0x4 MSTORE PUSH1 0x24 PUSH1 0x0 REVERT JUMPDEST POP SWAP2 SWAP1 POP JUMP JUMPDEST PUSH1 0x0 SLOAD DUP3 SWAP1 PUSH1 0x1 PUSH1 0xA0 SHL SWAP1 DIV PUSH1 0xFF AND ISZERO PUSH2 0x1690 JUMPI PUSH1 0x40 MLOAD PUSH3 0x461BCD PUSH1 0xE5 SHL DUP2 MSTORE PUSH1 0x4 ADD PUSH2 0xC51 SWAP1 PUSH2 0x467F JUMP JUMPDEST PUSH1 0x1 SLOAD DUP2 LT PUSH2 0x16E1 JUMPI PUSH1 0x40 MLOAD PUSH3 0x461BCD PUSH1 0xE5 SHL DUP2 MSTORE PUSH1 0x20 PUSH1 0x4 DUP3 ADD MSTORE PUSH1 0x1F PUSH1 0x24 DUP3 ADD MSTORE PUSH32 0x426174746C656669656C643A206669656C64206F7574206F662072616E676500 PUSH1 0x44 DUP3 ADD MSTORE PUSH1 0x64 ADD PUSH2 0xC51 JUMP JUMPDEST PUSH1 0x0 DUP3 DUP2 MSTORE PUSH1 0x4 PUSH1 0x20 MSTORE PUSH1 0x40 SWAP1 KECCAK256 SLOAD PUSH1 0xFF AND ISZERO PUSH2 0x1757 JUMPI PUSH1 0x40 MLOAD PUSH3 0x461BCD PUSH1 0xE5 SHL DUP2 MSTORE PUSH1 0x20 PUSH1 0x4 DUP3 ADD MSTORE PUSH1 0x2E PUSH1 0x24 DUP3 ADD MSTORE PUSH32 0x426174746C656669656C643A2074686520666C6F7261206D696E696F6E20616C PUSH1 0x44 DUP3 ADD MSTORE PUSH14 0x1C9958591E481BDB88199A595B19 PUSH1 0x92 SHL PUSH1 0x64 DUP3 ADD MSTORE PUSH1 0x84 ADD PUSH2 0xC51 JUMP JUMPDEST PUSH1 0x6 SLOAD PUSH1 0x40 MLOAD PUSH4 0x31A9108F PUSH1 0xE1 SHL DUP2 MSTORE PUSH1 0x4 DUP2 ADD DUP5 SWAP1 MSTORE CALLER SWAP2 PUSH1 0x1 PUSH1 0x1 PUSH1 0xA0 SHL SUB AND SWAP1 PUSH4 0x6352211E SWAP1 PUSH1 0x24 ADD PUSH1 0x20 PUSH1 0x40 MLOAD DUP1 DUP4 SUB DUP2 DUP7 DUP1 EXTCODESIZE ISZERO DUP1 ISZERO PUSH2 0x179B JUMPI PUSH1 0x0 DUP1 REVERT JUMPDEST POP GAS STATICCALL ISZERO DUP1 ISZERO PUSH2 0x17AF JUMPI RETURNDATASIZE PUSH1 0x0 DUP1 RETURNDATACOPY RETURNDATASIZE PUSH1 0x0 REVERT JUMPDEST POP POP POP POP PUSH1 0x40 MLOAD RETURNDATASIZE PUSH1 0x1F NOT PUSH1 0x1F DUP3 ADD AND DUP3 ADD DUP1 PUSH1 0x40 MSTORE POP DUP2 ADD SWAP1 PUSH2 0x17D3 SWAP2 SWAP1 PUSH2 0x3E8E JUMP JUMPDEST PUSH1 0x1 PUSH1 0x1 PUSH1 0xA0 SHL SUB AND EQ PUSH2 0x1844 JUMPI PUSH1 0x40 MLOAD PUSH3 0x461BCD PUSH1 0xE5 SHL DUP2 MSTORE PUSH1 0x20 PUSH1 0x4 DUP3 ADD MSTORE PUSH1 0x32 PUSH1 0x24 DUP3 ADD MSTORE PUSH32 0x426174746C656669656C643A206E6F742074686520636F6D6D616E646572206F PUSH1 0x44 DUP3 ADD MSTORE PUSH18 0x33103A343290333637B9309036B4B734B7B7 PUSH1 0x71 SHL PUSH1 0x64 DUP3 ADD MSTORE PUSH1 0x84 ADD PUSH2 0xC51 JUMP JUMPDEST PUSH1 0x0 DUP4 DUP2 MSTORE PUSH1 0x2 PUSH1 0x20 SWAP1 DUP2 MSTORE PUSH1 0x40 DUP1 DUP4 KECCAK256 DUP1 SLOAD DUP3 MLOAD DUP2 DUP6 MUL DUP2 ADD DUP6 ADD SWAP1 SWAP4 MSTORE DUP1 DUP4 MSTORE SWAP2 SWAP3 SWAP1 SWAP2 SWAP1 DUP4 ADD DUP3 DUP3 DUP1 ISZERO PUSH2 0x189A JUMPI PUSH1 0x20 MUL DUP3 ADD SWAP2 SWAP1 PUSH1 0x0 MSTORE PUSH1 0x20 PUSH1 0x0 KECCAK256 SWAP1 JUMPDEST DUP2 SLOAD DUP2 MSTORE PUSH1 0x20 ADD SWAP1 PUSH1 0x1 ADD SWAP1 DUP1 DUP4 GT PUSH2 0x1886 JUMPI JUMPDEST POP POP POP POP POP SWAP1 POP PUSH1 0x0 DUP2 MLOAD GT ISZERO PUSH2 0x19C5 JUMPI PUSH1 0x0 DUP2 PUSH1 0x0 DUP2 MLOAD DUP2 LT PUSH2 0x18CE JUMPI PUSH4 0x4E487B71 PUSH1 0xE0 SHL PUSH1 0x0 MSTORE PUSH1 0x32 PUSH1 0x4 MSTORE PUSH1 0x24 PUSH1 0x0 REVERT JUMPDEST PUSH1 0x20 SWAP1 DUP2 MUL SWAP2 SWAP1 SWAP2 ADD DUP2 ADD MLOAD PUSH1 0x0 DUP8 DUP2 MSTORE PUSH1 0x3 SWAP1 SWAP3 MSTORE PUSH1 0x40 SWAP1 SWAP2 KECCAK256 SLOAD SWAP1 SWAP2 POP PUSH1 0xFF AND ISZERO PUSH2 0x1928 JUMPI PUSH1 0x6 SLOAD PUSH2 0x190D SWAP1 PUSH1 0x1 PUSH1 0x1 PUSH1 0xA0 SHL SUB AND DUP6 DUP2 DUP5 PUSH2 0x355D JUMP JUMPDEST PUSH1 0x0 DUP2 DUP2 MSTORE PUSH1 0x4 PUSH1 0x20 MSTORE PUSH1 0x40 SWAP1 KECCAK256 DUP1 SLOAD PUSH1 0xFF NOT AND SWAP1 SSTORE PUSH2 0x1986 JUMP JUMPDEST PUSH1 0x6 SLOAD PUSH1 0x7 SLOAD PUSH2 0x1947 SWAP2 PUSH1 0x1 PUSH1 0x1 PUSH1 0xA0 SHL SUB SWAP1 DUP2 AND SWAP2 DUP8 SWAP2 AND DUP5 PUSH2 0x355D JUMP JUMPDEST PUSH1 0x0 DUP2 DUP2 MSTORE PUSH1 0x5 PUSH1 0x20 MSTORE PUSH1 0x40 DUP2 KECCAK256 DUP1 SLOAD PUSH1 0xFF NOT AND SWAP1 SSTORE PUSH1 0x9 DUP1 SLOAD SWAP2 PUSH2 0x196B DUP4 PUSH2 0x47CE JUMP JUMPDEST SWAP1 SWAP2 SSTORE POP POP PUSH1 0x8 DUP1 SLOAD SWAP1 PUSH1 0x0 PUSH2 0x1980 DUP4 PUSH2 0x481A JUMP JUMPDEST SWAP2 SWAP1 POP SSTORE POP JUMPDEST PUSH1 0x0 DUP6 DUP2 MSTORE PUSH1 0x2 PUSH1 0x20 MSTORE PUSH1 0x40 DUP2 KECCAK256 DUP1 SLOAD DUP7 SWAP3 SWAP1 PUSH2 0x19B3 JUMPI PUSH4 0x4E487B71 PUSH1 0xE0 SHL PUSH1 0x0 MSTORE PUSH1 0x32 PUSH1 0x4 MSTORE PUSH1 0x24 PUSH1 0x0 REVERT JUMPDEST PUSH1 0x0 SWAP2 DUP3 MSTORE PUSH1 0x20 SWAP1 SWAP2 KECCAK256 ADD SSTORE POP PUSH2 0x19FB JUMP JUMPDEST PUSH1 0x0 DUP5 DUP2 MSTORE PUSH1 0x2 PUSH1 0x20 SWAP1 DUP2 MSTORE PUSH1 0x40 DUP3 KECCAK256 DUP1 SLOAD PUSH1 0x1 DUP2 ADD DUP3 SSTORE SWAP1 DUP4 MSTORE SWAP1 DUP3 KECCAK256 ADD DUP5 SWAP1 SSTORE PUSH1 0x8 DUP1 SLOAD SWAP2 PUSH2 0x19F5 DUP4 PUSH2 0x481A JUMP JUMPDEST SWAP2 SWAP1 POP SSTORE POP JUMPDEST PUSH1 0x0 DUP4 DUP2 MSTORE PUSH1 0x4 PUSH1 0x20 SWAP1 DUP2 MSTORE PUSH1 0x40 DUP1 DUP4 KECCAK256 DUP1 SLOAD PUSH1 0x1 PUSH1 0xFF NOT SWAP2 DUP3 AND DUP2 OR SWAP1 SWAP3 SSTORE DUP9 DUP6 MSTORE PUSH1 0x3 DUP5 MSTORE DUP3 DUP6 KECCAK256 DUP1 SLOAD SWAP1 SWAP2 AND DUP3 OR SWAP1 SSTORE PUSH1 0x2 SWAP1 SWAP3 MSTORE SWAP2 DUP3 SWAP1 KECCAK256 SWAP2 MLOAD SWAP1 SWAP2 CALLER SWAP2 DUP8 SWAP2 PUSH32 0x9A3C276128DA5BF5F6A0C9B8DF4DF4C267F0CA732B1708CB8425BF3C308FEF19 SWAP2 PUSH2 0x1A6B SWAP2 SWAP1 PUSH2 0x44E5 JUMP JUMPDEST PUSH1 0x40 MLOAD DUP1 SWAP2 SUB SWAP1 LOG4 POP POP POP POP JUMP JUMPDEST PUSH1 0x0 DUP2 DUP2 MSTORE PUSH1 0xD PUSH1 0x20 MSTORE PUSH1 0x40 DUP2 KECCAK256 SLOAD PUSH1 0x1 PUSH1 0x1 PUSH1 0xA0 SHL SUB AND DUP1 PUSH2 0xB4F JUMPI PUSH1 0x40 MLOAD PUSH3 0x461BCD PUSH1 0xE5 SHL DUP2 MSTORE PUSH1 0x20 PUSH1 0x4 DUP3 ADD MSTORE PUSH1 0x29 PUSH1 0x24 DUP3 ADD MSTORE PUSH32 0x4552433732313A206F776E657220717565727920666F72206E6F6E6578697374 PUSH1 0x44 DUP3 ADD MSTORE PUSH9 0x32B73A103A37B5B2B7 PUSH1 0xB9 SHL PUSH1 0x64 DUP3 ADD MSTORE PUSH1 0x84 ADD PUSH2 0xC51 JUMP JUMPDEST PUSH1 0x0 SLOAD PUSH1 0x1 PUSH1 0x1 PUSH1 0xA0 SHL SUB AND CALLER EQ PUSH2 0x1B1A JUMPI PUSH1 0x40 MLOAD PUSH3 0x461BCD PUSH1 0xE5 SHL DUP2 MSTORE PUSH1 0x4 ADD PUSH2 0xC51 SWAP1 PUSH2 0x464A JUMP JUMPDEST DUP1 PUSH1 0x1 PUSH1 0x0 DUP3 DUP3 SLOAD PUSH2 0x1B2C SWAP2 SWAP1 PUSH2 0x475F JUMP JUMPDEST SWAP1 SWAP2 SSTORE POP POP PUSH1 0x7 SLOAD PUSH1 0x40 DUP1 MLOAD PUSH4 0x3C4407A5 PUSH1 0xE1 SHL DUP2 MSTORE SWAP1 MLOAD PUSH1 0x1 PUSH1 0x1 PUSH1 0xA0 SHL SUB SWAP1 SWAP3 AND SWAP2 PUSH4 0x78880F4A SWAP2 PUSH1 0x4 DUP1 DUP3 ADD SWAP3 PUSH1 0x20 SWAP3 SWAP1 SWAP2 SWAP1 DUP3 SWAP1 SUB ADD DUP2 DUP7 DUP1 EXTCODESIZE ISZERO DUP1 ISZERO PUSH2 0x1B76 JUMPI PUSH1 0x0 DUP1 REVERT JUMPDEST POP GAS STATICCALL ISZERO DUP1 ISZERO PUSH2 0x1B8A JUMPI RETURNDATASIZE PUSH1 0x0 DUP1 RETURNDATACOPY RETURNDATASIZE PUSH1 0x0 REVERT JUMPDEST POP POP POP POP PUSH1 0x40 MLOAD RETURNDATASIZE PUSH1 0x1F NOT PUSH1 0x1F DUP3 ADD AND DUP3 ADD DUP1 PUSH1 0x40 MSTORE POP DUP2 ADD SWAP1 PUSH2 0x1BAE SWAP2 SWAP1 PUSH2 0x4173 JUMP JUMPDEST PUSH1 0x6 PUSH1 0x0 SWAP1 SLOAD SWAP1 PUSH2 0x100 EXP SWAP1 DIV PUSH1 0x1 PUSH1 0x1 PUSH1 0xA0 SHL SUB AND PUSH1 0x1 PUSH1 0x1 PUSH1 0xA0 SHL SUB AND PUSH4 0x78880F4A PUSH1 0x40 MLOAD DUP2 PUSH4 0xFFFFFFFF AND PUSH1 0xE0 SHL DUP2 MSTORE PUSH1 0x4 ADD PUSH1 0x20 PUSH1 0x40 MLOAD DUP1 DUP4 SUB DUP2 DUP7 DUP1 EXTCODESIZE ISZERO DUP1 ISZERO PUSH2 0x1BFC JUMPI PUSH1 0x0 DUP1 REVERT JUMPDEST POP GAS STATICCALL ISZERO DUP1 ISZERO PUSH2 0x1C10 JUMPI RETURNDATASIZE PUSH1 0x0 DUP1 RETURNDATACOPY RETURNDATASIZE PUSH1 0x0 REVERT JUMPDEST POP POP POP POP PUSH1 0x40 MLOAD RETURNDATASIZE PUSH1 0x1F NOT PUSH1 0x1F DUP3 ADD AND DUP3 ADD DUP1 PUSH1 0x40 MSTORE POP DUP2 ADD SWAP1 PUSH2 0x1C34 SWAP2 SWAP1 PUSH2 0x4173 JUMP JUMPDEST PUSH2 0x1C3E SWAP2 SWAP1 PUSH2 0x475F JUMP JUMPDEST PUSH1 0x1 SLOAD LT PUSH2 0x1C99 JUMPI PUSH1 0x40 MLOAD PUSH3 0x461BCD PUSH1 0xE5 SHL DUP2 MSTORE PUSH1 0x20 PUSH1 0x4 DUP3 ADD MSTORE PUSH1 0x22 PUSH1 0x24 DUP3 ADD MSTORE PUSH32 0x426174746C656669656C643A206E6F206E65656420666F7220657870616E7369 PUSH1 0x44 DUP3 ADD MSTORE PUSH2 0x37B7 PUSH1 0xF1 SHL PUSH1 0x64 DUP3 ADD MSTORE PUSH1 0x84 ADD PUSH2 0xC51 JUMP JUMPDEST PUSH32 0x21E5668EC8085DF78C0955E48CDF5939D94BD27059BD915D1258F6EC278C922D PUSH1 0x1 SLOAD PUSH1 0x40 MLOAD PUSH2 0x1CCC SWAP2 DUP2 MSTORE PUSH1 0x20 ADD SWAP1 JUMP JUMPDEST PUSH1 0x40 MLOAD DUP1 SWAP2 SUB SWAP1 LOG1 POP JUMP JUMPDEST PUSH1 0x0 PUSH1 0x1 PUSH1 0x1 PUSH1 0xA0 SHL SUB DUP3 AND PUSH2 0x1D42 JUMPI PUSH1 0x40 MLOAD PUSH3 0x461BCD PUSH1 0xE5 SHL DUP2 MSTORE PUSH1 0x20 PUSH1 0x4 DUP3 ADD MSTORE PUSH1 0x2A PUSH1 0x24 DUP3 ADD MSTORE PUSH32 0x4552433732313A2062616C616E636520717565727920666F7220746865207A65 PUSH1 0x44 DUP3 ADD MSTORE PUSH10 0x726F2061646472657373 PUSH1 0xB0 SHL PUSH1 0x64 DUP3 ADD MSTORE PUSH1 0x84 ADD PUSH2 0xC51 JUMP JUMPDEST POP PUSH1 0x1 PUSH1 0x1 PUSH1 0xA0 SHL SUB AND PUSH1 0x0 SWAP1 DUP2 MSTORE PUSH1 0xE PUSH1 0x20 MSTORE PUSH1 0x40 SWAP1 KECCAK256 SLOAD SWAP1 JUMP JUMPDEST PUSH1 0x0 SLOAD PUSH1 0x1 PUSH1 0x1 PUSH1 0xA0 SHL SUB AND CALLER EQ PUSH2 0x1D88 JUMPI PUSH1 0x40 MLOAD PUSH3 0x461BCD PUSH1 0xE5 SHL DUP2 MSTORE PUSH1 0x4 ADD PUSH2 0xC51 SWAP1 PUSH2 0x464A JUMP JUMPDEST PUSH1 0x0 DUP1 SLOAD PUSH1 0x40 MLOAD PUSH1 0x1 PUSH1 0x1 PUSH1 0xA0 SHL SUB SWAP1 SWAP2 AND SWAP1 PUSH32 0x8BE0079C531659141344CD1FD0A4F28419497F9722A3DAAFE3B4186F6B6457E0 SWAP1 DUP4 SWAP1 LOG3 PUSH1 0x0 DUP1 SLOAD PUSH1 0x1 PUSH1 0x1 PUSH1 0xA0 SHL SUB NOT AND SWAP1 SSTORE JUMP JUMPDEST PUSH2 0x1DDA PUSH2 0x3C8A JUMP JUMPDEST PUSH2 0x1DE3 DUP3 PUSH2 0x1383 JUMP JUMPDEST PUSH1 0x1 PUSH1 0x1 PUSH1 0xA0 SHL SUB AND DUP1 DUP3 MSTORE ISZERO PUSH2 0x1E25 JUMPI PUSH2 0x1DFD DUP3 PUSH2 0x22D5 JUMP JUMPDEST PUSH1 0x20 DUP1 DUP4 ADD SWAP2 SWAP1 SWAP2 MSTORE PUSH1 0x0 DUP4 DUP2 MSTORE PUSH1 0x3 SWAP1 SWAP2 MSTORE PUSH1 0x40 SWAP1 DUP2 SWAP1 KECCAK256 SLOAD PUSH1 0xFF AND ISZERO ISZERO SWAP1 DUP3 ADD MSTORE PUSH2 0xB52 JUMP JUMPDEST PUSH2 0xB4F PUSH2 0x3C8A JUMP JUMPDEST PUSH1 0x1A DUP1 SLOAD PUSH2 0x1E3A SWAP1 PUSH2 0x47E5 JUMP JUMPDEST DUP1 PUSH1 0x1F ADD PUSH1 0x20 DUP1 SWAP2 DIV MUL PUSH1 0x20 ADD PUSH1 0x40 MLOAD SWAP1 DUP2 ADD PUSH1 0x40 MSTORE DUP1 SWAP3 SWAP2 SWAP1 DUP2 DUP2 MSTORE PUSH1 0x20 ADD DUP3 DUP1 SLOAD PUSH2 0x1E66 SWAP1 PUSH2 0x47E5 JUMP JUMPDEST DUP1 ISZERO PUSH2 0x1EB3 JUMPI DUP1 PUSH1 0x1F LT PUSH2 0x1E88 JUMPI PUSH2 0x100 DUP1 DUP4 SLOAD DIV MUL DUP4 MSTORE SWAP2 PUSH1 0x20 ADD SWAP2 PUSH2 0x1EB3 JUMP JUMPDEST DUP3 ADD SWAP2 SWAP1 PUSH1 0x0 MSTORE PUSH1 0x20 PUSH1 0x0 KECCAK256 SWAP1 JUMPDEST DUP2 SLOAD DUP2 MSTORE SWAP1 PUSH1 0x1 ADD SWAP1 PUSH1 0x20 ADD DUP1 DUP4 GT PUSH2 0x1E96 JUMPI DUP3 SWAP1 SUB PUSH1 0x1F AND DUP3 ADD SWAP2 JUMPDEST POP POP POP POP POP DUP2 JUMP JUMPDEST PUSH1 0x60 PUSH1 0xC DUP1 SLOAD PUSH2 0xB66 SWAP1 PUSH2 0x47E5 JUMP JUMPDEST PUSH1 0x1 PUSH1 0x1 PUSH1 0xA0 SHL SUB DUP3 AND CALLER EQ ISZERO PUSH2 0x1F23 JUMPI PUSH1 0x40 MLOAD PUSH3 0x461BCD PUSH1 0xE5 SHL DUP2 MSTORE PUSH1 0x20 PUSH1 0x4 DUP3 ADD MSTORE PUSH1 0x19 PUSH1 0x24 DUP3 ADD MSTORE PUSH32 0x4552433732313A20617070726F766520746F2063616C6C657200000000000000 PUSH1 0x44 DUP3 ADD MSTORE PUSH1 0x64 ADD PUSH2 0xC51 JUMP JUMPDEST CALLER PUSH1 0x0 DUP2 DUP2 MSTORE PUSH1 0x10 PUSH1 0x20 SWAP1 DUP2 MSTORE PUSH1 0x40 DUP1 DUP4 KECCAK256 PUSH1 0x1 PUSH1 0x1 PUSH1 0xA0 SHL SUB DUP8 AND DUP1 DUP6 MSTORE SWAP3 MSTORE SWAP1 SWAP2 KECCAK256 DUP1 SLOAD PUSH1 0xFF NOT AND DUP5 ISZERO ISZERO OR SWAP1 SSTORE SWAP1 PUSH1 0x1 PUSH1 0x1 PUSH1 0xA0 SHL SUB AND PUSH32 0x17307EAB39AB6107E8899845AD3D59BD9653F200F220920489CA2B5937696C31 DUP4 PUSH1 0x40 MLOAD PUSH2 0x1F90 SWAP2 ISZERO ISZERO DUP2 MSTORE PUSH1 0x20 ADD SWAP1 JUMP JUMPDEST PUSH1 0x40 MLOAD DUP1 SWAP2 SUB SWAP1 LOG3 POP POP JUMP JUMPDEST PUSH1 0x0 SLOAD PUSH1 0x1 PUSH1 0x1 PUSH1 0xA0 SHL SUB AND CALLER EQ PUSH2 0x1FC6 JUMPI PUSH1 0x40 MLOAD PUSH3 0x461BCD PUSH1 0xE5 SHL DUP2 MSTORE PUSH1 0x4 ADD PUSH2 0xC51 SWAP1 PUSH2 0x464A JUMP JUMPDEST PUSH1 0x1B SSTORE JUMP JUMPDEST PUSH1 0x0 SLOAD PUSH1 0x1 PUSH1 0x1 PUSH1 0xA0 SHL SUB AND CALLER EQ PUSH2 0x1FF5 JUMPI PUSH1 0x40 MLOAD PUSH3 0x461BCD PUSH1 0xE5 SHL DUP2 MSTORE PUSH1 0x4 ADD PUSH2 0xC51 SWAP1 PUSH2 0x464A JUMP JUMPDEST PUSH2 0xD87 PUSH1 0x1A DUP4 DUP4 PUSH2 0x3CD7 JUMP JUMPDEST PUSH1 0x60 PUSH1 0x14 DUP1 SLOAD DUP1 PUSH1 0x20 MUL PUSH1 0x20 ADD PUSH1 0x40 MLOAD SWAP1 DUP2 ADD PUSH1 0x40 MSTORE DUP1 SWAP3 SWAP2 SWAP1 DUP2 DUP2 MSTORE PUSH1 0x20 ADD PUSH1 0x0 SWAP1 JUMPDEST DUP3 DUP3 LT ISZERO PUSH2 0x2109 JUMPI PUSH1 0x0 DUP5 DUP2 MSTORE PUSH1 0x20 SWAP1 DUP2 SWAP1 KECCAK256 PUSH1 0x40 DUP1 MLOAD PUSH1 0x60 DUP2 ADD SWAP1 SWAP2 MSTORE PUSH1 0x3 DUP6 MUL SWAP1 SWAP2 ADD DUP1 SLOAD PUSH1 0x1 PUSH1 0x1 PUSH1 0xA0 SHL SUB AND DUP3 MSTORE PUSH1 0x1 DUP2 ADD DUP1 SLOAD SWAP3 SWAP4 SWAP2 SWAP3 SWAP2 DUP5 ADD SWAP2 PUSH2 0x206E SWAP1 PUSH2 0x47E5 JUMP JUMPDEST DUP1 PUSH1 0x1F ADD PUSH1 0x20 DUP1 SWAP2 DIV MUL PUSH1 0x20 ADD PUSH1 0x40 MLOAD SWAP1 DUP2 ADD PUSH1 0x40 MSTORE DUP1 SWAP3 SWAP2 SWAP1 DUP2 DUP2 MSTORE PUSH1 0x20 ADD DUP3 DUP1 SLOAD PUSH2 0x209A SWAP1 PUSH2 0x47E5 JUMP JUMPDEST DUP1 ISZERO PUSH2 0x20E7 JUMPI DUP1 PUSH1 0x1F LT PUSH2 0x20BC JUMPI PUSH2 0x100 DUP1 DUP4 SLOAD DIV MUL DUP4 MSTORE SWAP2 PUSH1 0x20 ADD SWAP2 PUSH2 0x20E7 JUMP JUMPDEST DUP3 ADD SWAP2 SWAP1 PUSH1 0x0 MSTORE PUSH1 0x20 PUSH1 0x0 KECCAK256 SWAP1 JUMPDEST DUP2 SLOAD DUP2 MSTORE SWAP1 PUSH1 0x1 ADD SWAP1 PUSH1 0x20 ADD DUP1 DUP4 GT PUSH2 0x20CA JUMPI DUP3 SWAP1 SUB PUSH1 0x1F AND DUP3 ADD SWAP2 JUMPDEST POP POP POP POP POP DUP2 MSTORE PUSH1 0x20 ADD PUSH1 0x2 DUP3 ADD SLOAD DUP2 MSTORE POP POP DUP2 MSTORE PUSH1 0x20 ADD SWAP1 PUSH1 0x1 ADD SWAP1 PUSH2 0x2025 JUMP JUMPDEST POP POP POP POP SWAP1 POP SWAP1 JUMP JUMPDEST PUSH1 0x0 SLOAD PUSH1 0x1 PUSH1 0xA0 SHL SWAP1 DIV PUSH1 0xFF AND ISZERO PUSH2 0x216C JUMPI PUSH1 0x40 MLOAD PUSH3 0x461BCD PUSH1 0xE5 SHL DUP2 MSTORE PUSH1 0x20 PUSH1 0x4 DUP3 ADD MSTORE PUSH1 0x1E PUSH1 0x24 DUP3 ADD MSTORE PUSH32 0x426174746C656669656C643A206E6F7420696E20766F74652073746174650000 PUSH1 0x44 DUP3 ADD MSTORE PUSH1 0x64 ADD PUSH2 0xC51 JUMP JUMPDEST PUSH1 0x1B SLOAD CALLVALUE LT ISZERO PUSH2 0x21CA JUMPI PUSH1 0x40 MLOAD PUSH3 0x461BCD PUSH1 0xE5 SHL DUP2 MSTORE PUSH1 0x20 PUSH1 0x4 DUP3 ADD MSTORE PUSH1 0x24 DUP1 DUP3 ADD MSTORE PUSH32 0x426174746C656669656C643A206E6F7420656E6F75676820736C6F7474696E67 PUSH1 0x44 DUP3 ADD MSTORE PUSH4 0x20666565 PUSH1 0xE0 SHL PUSH1 0x64 DUP3 ADD MSTORE PUSH1 0x84 ADD PUSH2 0xC51 JUMP JUMPDEST PUSH1 0x14 PUSH1 0x40 MLOAD DUP1 PUSH1 0x60 ADD PUSH1 0x40 MSTORE DUP1 CALLER PUSH1 0x1 PUSH1 0x1 PUSH1 0xA0 SHL SUB AND DUP2 MSTORE PUSH1 0x20 ADD DUP5 DUP5 DUP1 DUP1 PUSH1 0x1F ADD PUSH1 0x20 DUP1 SWAP2 DIV MUL PUSH1 0x20 ADD PUSH1 0x40 MLOAD SWAP1 DUP2 ADD PUSH1 0x40 MSTORE DUP1 SWAP4 SWAP3 SWAP2 SWAP1 DUP2 DUP2 MSTORE PUSH1 0x20 ADD DUP4 DUP4 DUP1 DUP3 DUP5 CALLDATACOPY PUSH1 0x0 SWAP3 ADD DUP3 SWAP1 MSTORE POP SWAP4 DUP6 MSTORE POP POP POP PUSH1 0x20 SWAP2 DUP3 ADD DUP2 SWAP1 MSTORE DUP4 SLOAD PUSH1 0x1 DUP1 DUP3 ADD DUP7 SSTORE SWAP5 DUP3 MSTORE SWAP1 DUP3 SWAP1 KECCAK256 DUP4 MLOAD PUSH1 0x3 SWAP1 SWAP3 MUL ADD DUP1 SLOAD PUSH1 0x1 PUSH1 0x1 PUSH1 0xA0 SHL SUB NOT AND PUSH1 0x1 PUSH1 0x1 PUSH1 0xA0 SHL SUB SWAP1 SWAP3 AND SWAP2 SWAP1 SWAP2 OR DUP2 SSTORE DUP3 DUP3 ADD MLOAD DUP1 MLOAD SWAP4 SWAP5 SWAP2 SWAP4 PUSH2 0x2277 SWAP4 SWAP3 DUP6 ADD SWAP3 SWAP2 SWAP1 SWAP2 ADD SWAP1 PUSH2 0x3D57 JUMP JUMPDEST POP PUSH1 0x40 SWAP2 SWAP1 SWAP2 ADD MLOAD PUSH1 0x2 SWAP1 SWAP2 ADD SSTORE PUSH1 0x14 SLOAD CALLER SWAP1 PUSH32 0x75656BCB503B4E9A5D049DB76F375436E37366365E3C547FD8003802DD9804FB SWAP1 PUSH2 0x22B8 SWAP1 PUSH1 0x1 SWAP1 PUSH2 0x478B JUMP JUMPDEST DUP5 DUP5 PUSH1 0x40 MLOAD PUSH2 0x22C9 SWAP4 SWAP3 SWAP2 SWAP1 PUSH2 0x4729 JUMP JUMPDEST PUSH1 0x40 MLOAD DUP1 SWAP2 SUB SWAP1 LOG2 POP POP JUMP JUMPDEST PUSH1 0x0 DUP2 DUP2 MSTORE PUSH1 0x2 PUSH1 0x20 SWAP1 DUP2 MSTORE PUSH1 0x40 SWAP2 DUP3 SWAP1 KECCAK256 DUP1 SLOAD DUP4 MLOAD DUP2 DUP5 MUL DUP2 ADD DUP5 ADD SWAP1 SWAP5 MSTORE DUP1 DUP5 MSTORE PUSH1 0x60 SWAP4 SWAP3 DUP4 ADD DUP3 DUP3 DUP1 ISZERO PUSH2 0x232B JUMPI PUSH1 0x20 MUL DUP3 ADD SWAP2 SWAP1 PUSH1 0x0 MSTORE PUSH1 0x20 PUSH1 0x0 KECCAK256 SWAP1 JUMPDEST DUP2 SLOAD DUP2 MSTORE PUSH1 0x20 ADD SWAP1 PUSH1 0x1 ADD SWAP1 DUP1 DUP4 GT PUSH2 0x2317 JUMPI JUMPDEST POP POP POP POP POP SWAP1 POP SWAP2 SWAP1 POP JUMP JUMPDEST PUSH1 0x0 SLOAD PUSH1 0x1 PUSH1 0xA0 SHL SWAP1 DIV PUSH1 0xFF AND PUSH2 0x2360 JUMPI PUSH1 0x40 MLOAD PUSH3 0x461BCD PUSH1 0xE5 SHL DUP2 MSTORE PUSH1 0x4 ADD PUSH2 0xC51 SWAP1 PUSH2 0x457F JUMP JUMPDEST PUSH1 0x19 SLOAD PUSH1 0x0 DUP4 DUP2 MSTORE PUSH1 0x15 PUSH1 0x20 MSTORE PUSH1 0x40 SWAP1 KECCAK256 SLOAD LT PUSH2 0x23D7 JUMPI PUSH1 0x40 MLOAD PUSH3 0x461BCD PUSH1 0xE5 SHL DUP2 MSTORE PUSH1 0x20 PUSH1 0x4 DUP3 ADD MSTORE PUSH1 0x2F PUSH1 0x24 DUP3 ADD MSTORE PUSH32 0x426174746C656669656C643A206669656C642068617320766F74656420696E20 PUSH1 0x44 DUP3 ADD MSTORE PUSH15 0x3A3434B99033B2B732B930BA34B7B7 PUSH1 0x89 SHL PUSH1 0x64 DUP3 ADD MSTORE PUSH1 0x84 ADD PUSH2 0xC51 JUMP JUMPDEST PUSH1 0x0 DUP3 DUP2 MSTORE PUSH1 0x2 PUSH1 0x20 SWAP1 DUP2 MSTORE PUSH1 0x40 DUP1 DUP4 KECCAK256 DUP1 SLOAD DUP3 MLOAD DUP2 DUP6 MUL DUP2 ADD DUP6 ADD SWAP1 SWAP4 MSTORE DUP1 DUP4 MSTORE SWAP2 SWAP3 SWAP1 SWAP2 SWAP1 DUP4 ADD DUP3 DUP3 DUP1 ISZERO PUSH2 0x242D JUMPI PUSH1 0x20 MUL DUP3 ADD SWAP2 SWAP1 PUSH1 0x0 MSTORE PUSH1 0x20 PUSH1 0x0 KECCAK256 SWAP1 JUMPDEST DUP2 SLOAD DUP2 MSTORE PUSH1 0x20 ADD SWAP1 PUSH1 0x1 ADD SWAP1 DUP1 DUP4 GT PUSH2 0x2419 JUMPI JUMPDEST POP POP POP POP POP SWAP1 POP PUSH1 0x0 DUP2 MLOAD GT PUSH2 0x2491 JUMPI PUSH1 0x40 MLOAD PUSH3 0x461BCD PUSH1 0xE5 SHL DUP2 MSTORE PUSH1 0x20 PUSH1 0x4 DUP3 ADD MSTORE PUSH1 0x23 PUSH1 0x24 DUP3 ADD MSTORE PUSH32 0x426174746C656669656C643A20656D707479206669656C642063616E27742076 PUSH1 0x44 DUP3 ADD MSTORE PUSH3 0x6F7465 PUSH1 0xE8 SHL PUSH1 0x64 DUP3 ADD MSTORE PUSH1 0x84 ADD PUSH2 0xC51 JUMP JUMPDEST PUSH1 0x0 DUP4 DUP2 MSTORE PUSH1 0x3 PUSH1 0x20 MSTORE PUSH1 0x40 SWAP1 KECCAK256 SLOAD PUSH1 0xFF AND ISZERO PUSH2 0x25D3 JUMPI PUSH1 0x6 SLOAD DUP2 MLOAD CALLER SWAP2 PUSH1 0x1 PUSH1 0x1 PUSH1 0xA0 SHL SUB AND SWAP1 PUSH4 0x6352211E SWAP1 DUP5 SWAP1 PUSH1 0x0 SWAP1 PUSH2 0x24DE JUMPI PUSH4 0x4E487B71 PUSH1 0xE0 SHL PUSH1 0x0 MSTORE PUSH1 0x32 PUSH1 0x4 MSTORE PUSH1 0x24 PUSH1 0x0 REVERT JUMPDEST PUSH1 0x20 MUL PUSH1 0x20 ADD ADD MLOAD PUSH1 0x40 MLOAD DUP3 PUSH4 0xFFFFFFFF AND PUSH1 0xE0 SHL DUP2 MSTORE PUSH1 0x4 ADD PUSH2 0x2504 SWAP2 DUP2 MSTORE PUSH1 0x20 ADD SWAP1 JUMP JUMPDEST PUSH1 0x20 PUSH1 0x40 MLOAD DUP1 DUP4 SUB DUP2 DUP7 DUP1 EXTCODESIZE ISZERO DUP1 ISZERO PUSH2 0x251C JUMPI PUSH1 0x0 DUP1 REVERT JUMPDEST POP GAS STATICCALL ISZERO DUP1 ISZERO PUSH2 0x2530 JUMPI RETURNDATASIZE PUSH1 0x0 DUP1 RETURNDATACOPY RETURNDATASIZE PUSH1 0x0 REVERT JUMPDEST POP POP POP POP PUSH1 0x40 MLOAD RETURNDATASIZE PUSH1 0x1F NOT PUSH1 0x1F DUP3 ADD AND DUP3 ADD DUP1 PUSH1 0x40 MSTORE POP DUP2 ADD SWAP1 PUSH2 0x2554 SWAP2 SWAP1 PUSH2 0x3E8E JUMP JUMPDEST PUSH1 0x1 PUSH1 0x1 PUSH1 0xA0 SHL SUB AND EQ PUSH2 0x257A JUMPI PUSH1 0x40 MLOAD PUSH3 0x461BCD PUSH1 0xE5 SHL DUP2 MSTORE PUSH1 0x4 ADD PUSH2 0xC51 SWAP1 PUSH2 0x4613 JUMP JUMPDEST PUSH1 0x9 SLOAD PUSH1 0x8 SLOAD LT ISZERO PUSH2 0x25CE JUMPI PUSH1 0x40 MLOAD PUSH3 0x461BCD PUSH1 0xE5 SHL DUP2 MSTORE PUSH1 0x20 PUSH1 0x4 DUP3 ADD MSTORE PUSH1 0x1E PUSH1 0x24 DUP3 ADD MSTORE PUSH32 0x426174746C656669656C643A20796F75277265206C6F73657220736964650000 PUSH1 0x44 DUP3 ADD MSTORE PUSH1 0x64 ADD PUSH2 0xC51 JUMP JUMPDEST PUSH2 0x26F9 JUMP JUMPDEST PUSH1 0x7 SLOAD DUP2 MLOAD CALLER SWAP2 PUSH1 0x1 PUSH1 0x1 PUSH1 0xA0 SHL SUB AND SWAP1 PUSH4 0x6352211E SWAP1 DUP5 SWAP1 PUSH1 0x0 SWAP1 PUSH2 0x2609 JUMPI PUSH4 0x4E487B71 PUSH1 0xE0 SHL PUSH1 0x0 MSTORE PUSH1 0x32 PUSH1 0x4 MSTORE PUSH1 0x24 PUSH1 0x0 REVERT JUMPDEST PUSH1 0x20 MUL PUSH1 0x20 ADD ADD MLOAD PUSH1 0x40 MLOAD DUP3 PUSH4 0xFFFFFFFF AND PUSH1 0xE0 SHL DUP2 MSTORE PUSH1 0x4 ADD PUSH2 0x262F SWAP2 DUP2 MSTORE PUSH1 0x20 ADD SWAP1 JUMP JUMPDEST PUSH1 0x20 PUSH1 0x40 MLOAD DUP1 DUP4 SUB DUP2 DUP7 DUP1 EXTCODESIZE ISZERO DUP1 ISZERO PUSH2 0x2647 JUMPI PUSH1 0x0 DUP1 REVERT JUMPDEST POP GAS STATICCALL ISZERO DUP1 ISZERO PUSH2 0x265B JUMPI RETURNDATASIZE PUSH1 0x0 DUP1 RETURNDATACOPY RETURNDATASIZE PUSH1 0x0 REVERT JUMPDEST POP POP POP POP PUSH1 0x40 MLOAD RETURNDATASIZE PUSH1 0x1F NOT PUSH1 0x1F DUP3 ADD AND DUP3 ADD DUP1 PUSH1 0x40 MSTORE POP DUP2 ADD SWAP1 PUSH2 0x267F SWAP2 SWAP1 PUSH2 0x3E8E JUMP JUMPDEST PUSH1 0x1 PUSH1 0x1 PUSH1 0xA0 SHL SUB AND EQ PUSH2 0x26A5 JUMPI PUSH1 0x40 MLOAD PUSH3 0x461BCD PUSH1 0xE5 SHL DUP2 MSTORE PUSH1 0x4 ADD PUSH2 0xC51 SWAP1 PUSH2 0x4613 JUMP JUMPDEST PUSH1 0x8 SLOAD PUSH1 0x9 SLOAD LT ISZERO PUSH2 0x26F9 JUMPI PUSH1 0x40 MLOAD PUSH3 0x461BCD PUSH1 0xE5 SHL DUP2 MSTORE PUSH1 0x20 PUSH1 0x4 DUP3 ADD MSTORE PUSH1 0x1E PUSH1 0x24 DUP3 ADD MSTORE PUSH32 0x426174746C656669656C643A20796F75277265206C6F73657220736964650000 PUSH1 0x44 DUP3 ADD MSTORE PUSH1 0x64 ADD PUSH2 0xC51 JUMP JUMPDEST PUSH1 0x0 PUSH1 0x14 DUP4 DUP2 SLOAD DUP2 LT PUSH2 0x271C JUMPI PUSH4 0x4E487B71 PUSH1 0xE0 SHL PUSH1 0x0 MSTORE PUSH1 0x32 PUSH1 0x4 MSTORE PUSH1 0x24 PUSH1 0x0 REVERT JUMPDEST SWAP1 PUSH1 0x0 MSTORE PUSH1 0x20 PUSH1 0x0 KECCAK256 SWAP1 PUSH1 0x3 MUL ADD SWAP1 POP DUP1 PUSH1 0x2 ADD PUSH1 0x0 DUP2 SLOAD DUP1 SWAP3 SWAP2 SWAP1 PUSH2 0x2741 SWAP1 PUSH2 0x481A JUMP JUMPDEST SWAP2 SWAP1 POP SSTORE POP PUSH1 0x19 SLOAD PUSH1 0x15 PUSH1 0x0 DUP7 DUP2 MSTORE PUSH1 0x20 ADD SWAP1 DUP2 MSTORE PUSH1 0x20 ADD PUSH1 0x0 KECCAK256 DUP2 SWAP1 SSTORE POP DUP3 CALLER PUSH1 0x1 PUSH1 0x1 PUSH1 0xA0 SHL SUB AND DUP6 PUSH32 0x691CAAA3FAC07E755C9E46E4877CBD04F37FD1B9BE1BFC9851F6A520AAD29C13 DUP5 PUSH1 0x2 ADD SLOAD PUSH1 0x40 MLOAD PUSH2 0x1A6B SWAP2 DUP2 MSTORE PUSH1 0x20 ADD SWAP1 JUMP JUMPDEST PUSH1 0x0 SLOAD PUSH1 0x1 PUSH1 0x1 PUSH1 0xA0 SHL SUB AND CALLER EQ PUSH2 0x27CB JUMPI PUSH1 0x40 MLOAD PUSH3 0x461BCD PUSH1 0xE5 SHL DUP2 MSTORE PUSH1 0x4 ADD PUSH2 0xC51 SWAP1 PUSH2 0x464A JUMP JUMPDEST PUSH1 0x17 SSTORE JUMP JUMPDEST PUSH2 0x27DA CALLER DUP4 PUSH2 0x32D7 JUMP JUMPDEST PUSH2 0x27F6 JUMPI PUSH1 0x40 MLOAD PUSH3 0x461BCD PUSH1 0xE5 SHL DUP2 MSTORE PUSH1 0x4 ADD PUSH2 0xC51 SWAP1 PUSH2 0x46C5 JUMP JUMPDEST PUSH2 0x2802 DUP5 DUP5 DUP5 DUP5 PUSH2 0x3799 JUMP JUMPDEST POP POP POP POP JUMP JUMPDEST PUSH1 0x0 SLOAD PUSH1 0x1 PUSH1 0xA0 SHL SWAP1 DIV PUSH1 0xFF AND PUSH2 0x2831 JUMPI PUSH1 0x40 MLOAD PUSH3 0x461BCD PUSH1 0xE5 SHL DUP2 MSTORE PUSH1 0x4 ADD PUSH2 0xC51 SWAP1 PUSH2 0x457F JUMP JUMPDEST PUSH1 0x18 SLOAD PUSH1 0x16 SLOAD TIMESTAMP SWAP2 PUSH2 0x2842 SWAP2 PUSH2 0x475F JUMP JUMPDEST DUP2 LT ISZERO PUSH2 0x2891 JUMPI PUSH1 0x40 MLOAD PUSH3 0x461BCD PUSH1 0xE5 SHL DUP2 MSTORE PUSH1 0x20 PUSH1 0x4 DUP3 ADD DUP2 SWAP1 MSTORE PUSH1 0x24 DUP3 ADD MSTORE PUSH32 0x426174746C656669656C643A206E6F742079657420746F20656E6420766F7465 PUSH1 0x44 DUP3 ADD MSTORE PUSH1 0x64 ADD PUSH2 0xC51 JUMP JUMPDEST PUSH1 0x16 DUP2 SWAP1 SSTORE PUSH1 0x0 DUP1 DUP1 JUMPDEST PUSH1 0x14 SLOAD DUP2 LT ISZERO PUSH2 0x292A JUMPI DUP3 PUSH1 0x14 DUP3 DUP2 SLOAD DUP2 LT PUSH2 0x28C7 JUMPI PUSH4 0x4E487B71 PUSH1 0xE0 SHL PUSH1 0x0 MSTORE PUSH1 0x32 PUSH1 0x4 MSTORE PUSH1 0x24 PUSH1 0x0 REVERT JUMPDEST SWAP1 PUSH1 0x0 MSTORE PUSH1 0x20 PUSH1 0x0 KECCAK256 SWAP1 PUSH1 0x3 MUL ADD PUSH1 0x2 ADD SLOAD GT ISZERO PUSH2 0x2918 JUMPI PUSH1 0x14 DUP2 DUP2 SLOAD DUP2 LT PUSH2 0x2900 JUMPI PUSH4 0x4E487B71 PUSH1 0xE0 SHL PUSH1 0x0 MSTORE PUSH1 0x32 PUSH1 0x4 MSTORE PUSH1 0x24 PUSH1 0x0 REVERT JUMPDEST SWAP1 PUSH1 0x0 MSTORE PUSH1 0x20 PUSH1 0x0 KECCAK256 SWAP1 PUSH1 0x3 MUL ADD PUSH1 0x2 ADD SLOAD SWAP3 POP DUP1 SWAP2 POP JUMPDEST DUP1 PUSH2 0x2922 DUP2 PUSH2 0x481A JUMP JUMPDEST SWAP2 POP POP PUSH2 0x289B JUMP JUMPDEST POP PUSH1 0x0 PUSH1 0x14 DUP3 DUP2 SLOAD DUP2 LT PUSH2 0x294E JUMPI PUSH4 0x4E487B71 PUSH1 0xE0 SHL PUSH1 0x0 MSTORE PUSH1 0x32 PUSH1 0x4 MSTORE PUSH1 0x24 PUSH1 0x0 REVERT JUMPDEST PUSH1 0x0 SWAP2 DUP3 MSTORE PUSH1 0x20 SWAP2 DUP3 SWAP1 KECCAK256 PUSH1 0x40 DUP1 MLOAD PUSH1 0x60 DUP2 ADD SWAP1 SWAP2 MSTORE PUSH1 0x3 SWAP1 SWAP3 MUL ADD DUP1 SLOAD PUSH1 0x1 PUSH1 0x1 PUSH1 0xA0 SHL SUB AND DUP3 MSTORE PUSH1 0x1 DUP2 ADD DUP1 SLOAD SWAP3 SWAP4 SWAP2 SWAP3 SWAP2 DUP5 ADD SWAP2 PUSH2 0x298E SWAP1 PUSH2 0x47E5 JUMP JUMPDEST DUP1 PUSH1 0x1F ADD PUSH1 0x20 DUP1 SWAP2 DIV MUL PUSH1 0x20 ADD PUSH1 0x40 MLOAD SWAP1 DUP2 ADD PUSH1 0x40 MSTORE DUP1 SWAP3 SWAP2 SWAP1 DUP2 DUP2 MSTORE PUSH1 0x20 ADD DUP3 DUP1 SLOAD PUSH2 0x29BA SWAP1 PUSH2 0x47E5 JUMP JUMPDEST DUP1 ISZERO PUSH2 0x2A07 JUMPI DUP1 PUSH1 0x1F LT PUSH2 0x29DC JUMPI PUSH2 0x100 DUP1 DUP4 SLOAD DIV MUL DUP4 MSTORE SWAP2 PUSH1 0x20 ADD SWAP2 PUSH2 0x2A07 JUMP JUMPDEST DUP3 ADD SWAP2 SWAP1 PUSH1 0x0 MSTORE PUSH1 0x20 PUSH1 0x0 KECCAK256 SWAP1 JUMPDEST DUP2 SLOAD DUP2 MSTORE SWAP1 PUSH1 0x1 ADD SWAP1 PUSH1 0x20 ADD DUP1 DUP4 GT PUSH2 0x29EA JUMPI DUP3 SWAP1 SUB PUSH1 0x1F AND DUP3 ADD SWAP2 JUMPDEST POP POP POP POP POP DUP2 MSTORE PUSH1 0x20 ADD PUSH1 0x2 DUP3 ADD SLOAD DUP2 MSTORE POP POP SWAP1 POP PUSH1 0x0 DUP1 PUSH1 0x9 SLOAD PUSH1 0x8 SLOAD LT PUSH2 0x2A98 JUMPI PUSH1 0x12 SLOAD PUSH1 0x20 DUP5 ADD MLOAD PUSH1 0x40 MLOAD PUSH4 0x350C02F1 PUSH1 0xE1 SHL DUP2 MSTORE PUSH1 0x1 PUSH1 0x1 PUSH1 0xA0 SHL SUB SWAP1 SWAP3 AND SWAP2 PUSH4 0x6A1805E2 SWAP2 PUSH2 0x2A61 SWAP2 PUSH1 0x0 SWAP2 SWAP1 PUSH1 0x4 ADD PUSH2 0x438E JUMP JUMPDEST PUSH1 0x0 PUSH1 0x40 MLOAD DUP1 DUP4 SUB DUP2 PUSH1 0x0 DUP8 DUP1 EXTCODESIZE ISZERO DUP1 ISZERO PUSH2 0x2A7B JUMPI PUSH1 0x0 DUP1 REVERT JUMPDEST POP GAS CALL ISZERO DUP1 ISZERO PUSH2 0x2A8F JUMPI RETURNDATASIZE PUSH1 0x0 DUP1 RETURNDATACOPY RETURNDATASIZE PUSH1 0x0 REVERT JUMPDEST POP POP POP POP PUSH1 0x1 SWAP2 POP JUMPDEST PUSH1 0x8 SLOAD PUSH1 0x9 SLOAD LT PUSH2 0x2B11 JUMPI PUSH1 0x13 SLOAD PUSH1 0x20 DUP5 ADD MLOAD PUSH1 0x40 MLOAD PUSH4 0x350C02F1 PUSH1 0xE1 SHL DUP2 MSTORE PUSH1 0x1 PUSH1 0x1 PUSH1 0xA0 SHL SUB SWAP1 SWAP3 AND SWAP2 PUSH4 0x6A1805E2 SWAP2 PUSH2 0x2ADA SWAP2 PUSH1 0x0 SWAP2 SWAP1 PUSH1 0x4 ADD PUSH2 0x438E JUMP JUMPDEST PUSH1 0x0 PUSH1 0x40 MLOAD DUP1 DUP4 SUB DUP2 PUSH1 0x0 DUP8 DUP1 EXTCODESIZE ISZERO DUP1 ISZERO PUSH2 0x2AF4 JUMPI PUSH1 0x0 DUP1 REVERT JUMPDEST POP GAS CALL ISZERO DUP1 ISZERO PUSH2 0x2B08 JUMPI RETURNDATASIZE PUSH1 0x0 DUP1 RETURNDATACOPY RETURNDATASIZE PUSH1 0x0 REVERT JUMPDEST POP POP POP POP PUSH1 0x1 SWAP1 POP JUMPDEST PUSH2 0x2B21 DUP4 PUSH1 0x0 ADD MLOAD PUSH1 0x19 SLOAD PUSH2 0x37CC JUMP JUMPDEST PUSH2 0x2B53 PUSH1 0x19 SLOAD DUP5 PUSH1 0x20 ADD MLOAD PUSH1 0x1A PUSH1 0x40 MLOAD PUSH1 0x20 ADD PUSH2 0x2B3F SWAP3 SWAP2 SWAP1 PUSH2 0x42A2 JUMP JUMPDEST PUSH1 0x40 MLOAD PUSH1 0x20 DUP2 DUP4 SUB SUB DUP2 MSTORE SWAP1 PUSH1 0x40 MSTORE PUSH2 0x38FF JUMP JUMPDEST PUSH2 0x2B5F PUSH1 0x14 PUSH1 0x0 PUSH2 0x3DCB JUMP JUMPDEST PUSH1 0x0 DUP1 SLOAD PUSH1 0xFF PUSH1 0xA0 SHL NOT AND SWAP1 SSTORE DUP3 MLOAD PUSH1 0x19 SLOAD PUSH1 0x1 PUSH1 0x1 PUSH1 0xA0 SHL SUB SWAP1 SWAP2 AND SWAP1 PUSH32 0xBCCE7AE1B0EDA5F386742164A672ABB073651089D04D044FAA6352139CEB565C PUSH2 0x2BA7 DUP3 PUSH2 0x2BEA JUMP JUMPDEST PUSH1 0x14 SLOAD PUSH1 0x40 DUP1 DUP10 ADD MLOAD PUSH1 0x1 SLOAD SWAP2 MLOAD PUSH2 0x2BC5 SWAP5 SWAP4 SWAP3 SWAP1 DUP11 SWAP1 DUP11 SWAP1 PUSH2 0x453F JUMP JUMPDEST PUSH1 0x40 MLOAD DUP1 SWAP2 SUB SWAP1 LOG3 PUSH1 0x19 DUP1 SLOAD SWAP1 PUSH1 0x0 PUSH2 0x2BDD DUP4 PUSH2 0x481A JUMP JUMPDEST SWAP2 SWAP1 POP SSTORE POP POP POP POP POP POP POP JUMP JUMPDEST PUSH1 0x60 PUSH2 0x2BF5 DUP3 PUSH2 0x324C JUMP JUMPDEST PUSH2 0x2C5B JUMPI PUSH1 0x40 MLOAD PUSH3 0x461BCD PUSH1 0xE5 SHL DUP2 MSTORE PUSH1 0x20 PUSH1 0x4 DUP3 ADD MSTORE PUSH1 0x31 PUSH1 0x24 DUP3 ADD MSTORE PUSH32 0x45524337323155524953746F726167653A2055524920717565727920666F7220 PUSH1 0x44 DUP3 ADD MSTORE PUSH17 0x3737B732BC34B9BA32B73A103A37B5B2B7 PUSH1 0x79 SHL PUSH1 0x64 DUP3 ADD MSTORE PUSH1 0x84 ADD PUSH2 0xC51 JUMP JUMPDEST PUSH1 0x0 DUP3 DUP2 MSTORE PUSH1 0x11 PUSH1 0x20 MSTORE PUSH1 0x40 DUP2 KECCAK256 DUP1 SLOAD PUSH2 0x2C74 SWAP1 PUSH2 0x47E5 JUMP JUMPDEST DUP1 PUSH1 0x1F ADD PUSH1 0x20 DUP1 SWAP2 DIV MUL PUSH1 0x20 ADD PUSH1 0x40 MLOAD SWAP1 DUP2 ADD PUSH1 0x40 MSTORE DUP1 SWAP3 SWAP2 SWAP1 DUP2 DUP2 MSTORE PUSH1 0x20 ADD DUP3 DUP1 SLOAD PUSH2 0x2CA0 SWAP1 PUSH2 0x47E5 JUMP JUMPDEST DUP1 ISZERO PUSH2 0x2CED JUMPI DUP1 PUSH1 0x1F LT PUSH2 0x2CC2 JUMPI PUSH2 0x100 DUP1 DUP4 SLOAD DIV MUL DUP4 MSTORE SWAP2 PUSH1 0x20 ADD SWAP2 PUSH2 0x2CED JUMP JUMPDEST DUP3 ADD SWAP2 SWAP1 PUSH1 0x0 MSTORE PUSH1 0x20 PUSH1 0x0 KECCAK256 SWAP1 JUMPDEST DUP2 SLOAD DUP2 MSTORE SWAP1 PUSH1 0x1 ADD SWAP1 PUSH1 0x20 ADD DUP1 DUP4 GT PUSH2 0x2CD0 JUMPI DUP3 SWAP1 SUB PUSH1 0x1F AND DUP3 ADD SWAP2 JUMPDEST POP POP POP POP POP SWAP1 POP PUSH1 0x0 PUSH2 0x2D0B PUSH1 0x40 DUP1 MLOAD PUSH1 0x20 DUP2 ADD SWAP1 SWAP2 MSTORE PUSH1 0x0 DUP2 MSTORE SWAP1 JUMP JUMPDEST SWAP1 POP DUP1 MLOAD PUSH1 0x0 EQ ISZERO PUSH2 0x2D1F JUMPI POP SWAP1 POP PUSH2 0xB52 JUMP JUMPDEST DUP2 MLOAD ISZERO PUSH2 0x2D51 JUMPI DUP1 DUP3 PUSH1 0x40 MLOAD PUSH1 0x20 ADD PUSH2 0x2D39 SWAP3 SWAP2 SWAP1 PUSH2 0x4273 JUMP JUMPDEST PUSH1 0x40 MLOAD PUSH1 0x20 DUP2 DUP4 SUB SUB DUP2 MSTORE SWAP1 PUSH1 0x40 MSTORE SWAP3 POP POP POP PUSH2 0xB52 JUMP JUMPDEST PUSH2 0x2D5A DUP5 PUSH2 0x398A JUMP JUMPDEST SWAP5 SWAP4 POP POP POP POP JUMP JUMPDEST PUSH1 0x0 SLOAD DUP3 SWAP1 PUSH1 0x1 PUSH1 0xA0 SHL SWAP1 DIV PUSH1 0xFF AND ISZERO PUSH2 0x2D8E JUMPI PUSH1 0x40 MLOAD PUSH3 0x461BCD PUSH1 0xE5 SHL DUP2 MSTORE PUSH1 0x4 ADD PUSH2 0xC51 SWAP1 PUSH2 0x467F JUMP JUMPDEST PUSH1 0x1 SLOAD DUP2 LT PUSH2 0x2DDF JUMPI PUSH1 0x40 MLOAD PUSH3 0x461BCD PUSH1 0xE5 SHL DUP2 MSTORE PUSH1 0x20 PUSH1 0x4 DUP3 ADD MSTORE PUSH1 0x1F PUSH1 0x24 DUP3 ADD MSTORE PUSH32 0x426174746C656669656C643A206669656C64206F7574206F662072616E676500 PUSH1 0x44 DUP3 ADD MSTORE PUSH1 0x64 ADD PUSH2 0xC51 JUMP JUMPDEST PUSH1 0x0 DUP3 DUP2 MSTORE PUSH1 0x5 PUSH1 0x20 MSTORE PUSH1 0x40 SWAP1 KECCAK256 SLOAD PUSH1 0xFF AND ISZERO PUSH2 0x2E55 JUMPI PUSH1 0x40 MLOAD PUSH3 0x461BCD PUSH1 0xE5 SHL DUP2 MSTORE PUSH1 0x20 PUSH1 0x4 DUP3 ADD MSTORE PUSH1 0x2E PUSH1 0x24 DUP3 ADD MSTORE PUSH32 0x426174746C656669656C643A20746865206661756E61206D696E696F6E20616C PUSH1 0x44 DUP3 ADD MSTORE PUSH14 0x1C9958591E481BDB88199A595B19 PUSH1 0x92 SHL PUSH1 0x64 DUP3 ADD MSTORE PUSH1 0x84 ADD PUSH2 0xC51 JUMP JUMPDEST PUSH1 0x7 SLOAD PUSH1 0x40 MLOAD PUSH4 0x31A9108F PUSH1 0xE1 SHL DUP2 MSTORE PUSH1 0x4 DUP2 ADD DUP5 SWAP1 MSTORE CALLER SWAP2 PUSH1 0x1 PUSH1 0x1 PUSH1 0xA0 SHL SUB AND SWAP1 PUSH4 0x6352211E SWAP1 PUSH1 0x24 ADD PUSH1 0x20 PUSH1 0x40 MLOAD DUP1 DUP4 SUB DUP2 DUP7 DUP1 EXTCODESIZE ISZERO DUP1 ISZERO PUSH2 0x2E99 JUMPI PUSH1 0x0 DUP1 REVERT JUMPDEST POP GAS STATICCALL ISZERO DUP1 ISZERO PUSH2 0x2EAD JUMPI RETURNDATASIZE PUSH1 0x0 DUP1 RETURNDATACOPY RETURNDATASIZE PUSH1 0x0 REVERT JUMPDEST POP POP POP POP PUSH1 0x40 MLOAD RETURNDATASIZE PUSH1 0x1F NOT PUSH1 0x1F DUP3 ADD AND DUP3 ADD DUP1 PUSH1 0x40 MSTORE POP DUP2 ADD SWAP1 PUSH2 0x2ED1 SWAP2 SWAP1 PUSH2 0x3E8E JUMP JUMPDEST PUSH1 0x1 PUSH1 0x1 PUSH1 0xA0 SHL SUB AND EQ PUSH2 0x2F42 JUMPI PUSH1 0x40 MLOAD PUSH3 0x461BCD PUSH1 0xE5 SHL DUP2 MSTORE PUSH1 0x20 PUSH1 0x4 DUP3 ADD MSTORE PUSH1 0x32 PUSH1 0x24 DUP3 ADD MSTORE PUSH32 0x426174746C656669656C643A206E6F742074686520636F6D6D616E646572206F PUSH1 0x44 DUP3 ADD MSTORE PUSH18 0x33103A3432903330BAB7309036B4B734B7B7 PUSH1 0x71 SHL PUSH1 0x64 DUP3 ADD MSTORE PUSH1 0x84 ADD PUSH2 0xC51 JUMP JUMPDEST PUSH1 0x0 DUP4 DUP2 MSTORE PUSH1 0x2 PUSH1 0x20 SWAP1 DUP2 MSTORE PUSH1 0x40 DUP1 DUP4 KECCAK256 DUP1 SLOAD DUP3 MLOAD DUP2 DUP6 MUL DUP2 ADD DUP6 ADD SWAP1 SWAP4 MSTORE DUP1 DUP4 MSTORE SWAP2 SWAP3 SWAP1 SWAP2 SWAP1 DUP4 ADD DUP3 DUP3 DUP1 ISZERO PUSH2 0x2F98 JUMPI PUSH1 0x20 MUL DUP3 ADD SWAP2 SWAP1 PUSH1 0x0 MSTORE PUSH1 0x20 PUSH1 0x0 KECCAK256 SWAP1 JUMPDEST DUP2 SLOAD DUP2 MSTORE PUSH1 0x20 ADD SWAP1 PUSH1 0x1 ADD SWAP1 DUP1 DUP4 GT PUSH2 0x2F84 JUMPI JUMPDEST POP POP POP POP POP SWAP1 POP PUSH1 0x0 DUP2 MLOAD GT ISZERO PUSH2 0x30C3 JUMPI PUSH1 0x0 DUP2 PUSH1 0x0 DUP2 MLOAD DUP2 LT PUSH2 0x2FCC JUMPI PUSH4 0x4E487B71 PUSH1 0xE0 SHL PUSH1 0x0 MSTORE PUSH1 0x32 PUSH1 0x4 MSTORE PUSH1 0x24 PUSH1 0x0 REVERT JUMPDEST PUSH1 0x20 SWAP1 DUP2 MUL SWAP2 SWAP1 SWAP2 ADD DUP2 ADD MLOAD PUSH1 0x0 DUP8 DUP2 MSTORE PUSH1 0x3 SWAP1 SWAP3 MSTORE PUSH1 0x40 SWAP1 SWAP2 KECCAK256 SLOAD SWAP1 SWAP2 POP PUSH1 0xFF AND ISZERO PUSH2 0x3055 JUMPI PUSH1 0x7 SLOAD PUSH1 0x6 SLOAD PUSH2 0x3012 SWAP2 PUSH1 0x1 PUSH1 0x1 PUSH1 0xA0 SHL SUB SWAP1 DUP2 AND SWAP2 DUP8 SWAP2 AND DUP5 PUSH2 0x355D JUMP JUMPDEST PUSH1 0x0 DUP2 DUP2 MSTORE PUSH1 0x4 PUSH1 0x20 MSTORE PUSH1 0x40 DUP2 KECCAK256 DUP1 SLOAD PUSH1 0xFF NOT AND SWAP1 SSTORE PUSH1 0x8 DUP1 SLOAD SWAP2 PUSH2 0x3036 DUP4 PUSH2 0x47CE JUMP JUMPDEST SWAP1 SWAP2 SSTORE POP POP PUSH1 0x9 DUP1 SLOAD SWAP1 PUSH1 0x0 PUSH2 0x304B DUP4 PUSH2 0x481A JUMP JUMPDEST SWAP2 SWAP1 POP SSTORE POP PUSH2 0x3084 JUMP JUMPDEST PUSH1 0x7 SLOAD PUSH2 0x306D SWAP1 PUSH1 0x1 PUSH1 0x1 PUSH1 0xA0 SHL SUB AND DUP6 DUP2 DUP5 PUSH2 0x355D JUMP JUMPDEST PUSH1 0x0 DUP2 DUP2 MSTORE PUSH1 0x5 PUSH1 0x20 MSTORE PUSH1 0x40 SWAP1 KECCAK256 DUP1 SLOAD PUSH1 0xFF NOT AND SWAP1 SSTORE JUMPDEST PUSH1 0x0 DUP6 DUP2 MSTORE PUSH1 0x2 PUSH1 0x20 MSTORE PUSH1 0x40 DUP2 KECCAK256 DUP1 SLOAD DUP7 SWAP3 SWAP1 PUSH2 0x30B1 JUMPI PUSH4 0x4E487B71 PUSH1 0xE0 SHL PUSH1 0x0 MSTORE PUSH1 0x32 PUSH1 0x4 MSTORE PUSH1 0x24 PUSH1 0x0 REVERT JUMPDEST PUSH1 0x0 SWAP2 DUP3 MSTORE PUSH1 0x20 SWAP1 SWAP2 KECCAK256 ADD SSTORE POP PUSH2 0x30F9 JUMP JUMPDEST PUSH1 0x0 DUP5 DUP2 MSTORE PUSH1 0x2 PUSH1 0x20 SWAP1 DUP2 MSTORE PUSH1 0x40 DUP3 KECCAK256 DUP1 SLOAD PUSH1 0x1 DUP2 ADD DUP3 SSTORE SWAP1 DUP4 MSTORE SWAP1 DUP3 KECCAK256 ADD DUP5 SWAP1 SSTORE PUSH1 0x9 DUP1 SLOAD SWAP2 PUSH2 0x30F3 DUP4 PUSH2 0x481A JUMP JUMPDEST SWAP2 SWAP1 POP SSTORE POP JUMPDEST PUSH1 0x0 DUP4 DUP2 MSTORE PUSH1 0x5 PUSH1 0x20 SWAP1 DUP2 MSTORE PUSH1 0x40 DUP1 DUP4 KECCAK256 DUP1 SLOAD PUSH1 0xFF NOT SWAP1 DUP2 AND PUSH1 0x1 OR SWAP1 SWAP2 SSTORE DUP8 DUP5 MSTORE PUSH1 0x3 DUP4 MSTORE DUP2 DUP5 KECCAK256 DUP1 SLOAD SWAP1 SWAP2 AND SWAP1 SSTORE PUSH1 0x2 SWAP1 SWAP2 MSTORE DUP1 DUP3 KECCAK256 SWAP1 MLOAD CALLER SWAP2 DUP8 SWAP2 PUSH32 0x9A3C276128DA5BF5F6A0C9B8DF4DF4C267F0CA732B1708CB8425BF3C308FEF19 SWAP2 PUSH2 0x1A6B SWAP2 PUSH2 0x44E5 JUMP JUMPDEST PUSH1 0x0 SLOAD PUSH1 0x1 PUSH1 0x1 PUSH1 0xA0 SHL SUB AND CALLER EQ PUSH2 0x318C JUMPI PUSH1 0x40 MLOAD PUSH3 0x461BCD PUSH1 0xE5 SHL DUP2 MSTORE PUSH1 0x4 ADD PUSH2 0xC51 SWAP1 PUSH2 0x464A JUMP JUMPDEST PUSH1 0x1 PUSH1 0x1 PUSH1 0xA0 SHL SUB DUP2 AND PUSH2 0x31F1 JUMPI PUSH1 0x40 MLOAD PUSH3 0x461BCD PUSH1 0xE5 SHL DUP2 MSTORE PUSH1 0x20 PUSH1 0x4 DUP3 ADD MSTORE PUSH1 0x26 PUSH1 0x24 DUP3 ADD MSTORE PUSH32 0x4F776E61626C653A206E6577206F776E657220697320746865207A65726F2061 PUSH1 0x44 DUP3 ADD MSTORE PUSH6 0x646472657373 PUSH1 0xD0 SHL PUSH1 0x64 DUP3 ADD MSTORE PUSH1 0x84 ADD PUSH2 0xC51 JUMP JUMPDEST PUSH1 0x0 DUP1 SLOAD PUSH1 0x40 MLOAD PUSH1 0x1 PUSH1 0x1 PUSH1 0xA0 SHL SUB DUP1 DUP6 AND SWAP4 SWAP3 AND SWAP2 PUSH32 0x8BE0079C531659141344CD1FD0A4F28419497F9722A3DAAFE3B4186F6B6457E0 SWAP2 LOG3 PUSH1 0x0 DUP1 SLOAD PUSH1 0x1 PUSH1 0x1 PUSH1 0xA0 SHL SUB NOT AND PUSH1 0x1 PUSH1 0x1 PUSH1 0xA0 SHL SUB SWAP3 SWAP1 SWAP3 AND SWAP2 SWAP1 SWAP2 OR SWAP1 SSTORE JUMP JUMPDEST PUSH1 0x0 SWAP1 DUP2 MSTORE PUSH1 0xD PUSH1 0x20 MSTORE PUSH1 0x40 SWAP1 KECCAK256 SLOAD PUSH1 0x1 PUSH1 0x1 PUSH1 0xA0 SHL SUB AND ISZERO ISZERO SWAP1 JUMP JUMPDEST PUSH1 0x0 DUP2 DUP2 MSTORE PUSH1 0xF PUSH1 0x20 MSTORE PUSH1 0x40 SWAP1 KECCAK256 DUP1 SLOAD PUSH1 0x1 PUSH1 0x1 PUSH1 0xA0 SHL SUB NOT AND PUSH1 0x1 PUSH1 0x1 PUSH1 0xA0 SHL SUB DUP5 AND SWAP1 DUP2 OR SWAP1 SWAP2 SSTORE DUP2 SWAP1 PUSH2 0x329E DUP3 PUSH2 0x1A79 JUMP JUMPDEST PUSH1 0x1 PUSH1 0x1 PUSH1 0xA0 SHL SUB AND PUSH32 0x8C5BE1E5EBEC7D5BD14F71427D1E84F3DD0314C0F7B2291E5B200AC8C7C3B925 PUSH1 0x40 MLOAD PUSH1 0x40 MLOAD DUP1 SWAP2 SUB SWAP1 LOG4 POP POP JUMP JUMPDEST PUSH1 0x0 PUSH2 0x32E2 DUP3 PUSH2 0x324C JUMP JUMPDEST PUSH2 0x3343 JUMPI PUSH1 0x40 MLOAD PUSH3 0x461BCD PUSH1 0xE5 SHL DUP2 MSTORE PUSH1 0x20 PUSH1 0x4 DUP3 ADD MSTORE PUSH1 0x2C PUSH1 0x24 DUP3 ADD MSTORE PUSH32 0x4552433732313A206F70657261746F7220717565727920666F72206E6F6E6578 PUSH1 0x44 DUP3 ADD MSTORE PUSH12 0x34B9BA32B73A103A37B5B2B7 PUSH1 0xA1 SHL PUSH1 0x64 DUP3 ADD MSTORE PUSH1 0x84 ADD PUSH2 0xC51 JUMP JUMPDEST PUSH1 0x0 PUSH2 0x334E DUP4 PUSH2 0x1A79 JUMP JUMPDEST SWAP1 POP DUP1 PUSH1 0x1 PUSH1 0x1 PUSH1 0xA0 SHL SUB AND DUP5 PUSH1 0x1 PUSH1 0x1 PUSH1 0xA0 SHL SUB AND EQ DUP1 PUSH2 0x3389 JUMPI POP DUP4 PUSH1 0x1 PUSH1 0x1 PUSH1 0xA0 SHL SUB AND PUSH2 0x337E DUP5 PUSH2 0xBE9 JUMP JUMPDEST PUSH1 0x1 PUSH1 0x1 PUSH1 0xA0 SHL SUB AND EQ JUMPDEST DUP1 PUSH2 0x2D5A JUMPI POP PUSH1 0x1 PUSH1 0x1 PUSH1 0xA0 SHL SUB DUP1 DUP3 AND PUSH1 0x0 SWAP1 DUP2 MSTORE PUSH1 0x10 PUSH1 0x20 SWAP1 DUP2 MSTORE PUSH1 0x40 DUP1 DUP4 KECCAK256 SWAP4 DUP9 AND DUP4 MSTORE SWAP3 SWAP1 MSTORE KECCAK256 SLOAD PUSH1 0xFF AND PUSH2 0x2D5A JUMP JUMPDEST DUP3 PUSH1 0x1 PUSH1 0x1 PUSH1 0xA0 SHL SUB AND PUSH2 0x33D0 DUP3 PUSH2 0x1A79 JUMP JUMPDEST PUSH1 0x1 PUSH1 0x1 PUSH1 0xA0 SHL SUB AND EQ PUSH2 0x3438 JUMPI PUSH1 0x40 MLOAD PUSH3 0x461BCD PUSH1 0xE5 SHL DUP2 MSTORE PUSH1 0x20 PUSH1 0x4 DUP3 ADD MSTORE PUSH1 0x29 PUSH1 0x24 DUP3 ADD MSTORE PUSH32 0x4552433732313A207472616E73666572206F6620746F6B656E20746861742069 PUSH1 0x44 DUP3 ADD MSTORE PUSH9 0x39903737BA1037BBB7 PUSH1 0xB9 SHL PUSH1 0x64 DUP3 ADD MSTORE PUSH1 0x84 ADD PUSH2 0xC51 JUMP JUMPDEST PUSH1 0x1 PUSH1 0x1 PUSH1 0xA0 SHL SUB DUP3 AND PUSH2 0x349A JUMPI PUSH1 0x40 MLOAD PUSH3 0x461BCD PUSH1 0xE5 SHL DUP2 MSTORE PUSH1 0x20 PUSH1 0x4 DUP3 ADD MSTORE PUSH1 0x24 DUP1 DUP3 ADD MSTORE PUSH32 0x4552433732313A207472616E7366657220746F20746865207A65726F20616464 PUSH1 0x44 DUP3 ADD MSTORE PUSH4 0x72657373 PUSH1 0xE0 SHL PUSH1 0x64 DUP3 ADD MSTORE PUSH1 0x84 ADD PUSH2 0xC51 JUMP JUMPDEST PUSH2 0x34A5 PUSH1 0x0 DUP3 PUSH2 0x3269 JUMP JUMPDEST PUSH1 0x1 PUSH1 0x1 PUSH1 0xA0 SHL SUB DUP4 AND PUSH1 0x0 SWAP1 DUP2 MSTORE PUSH1 0xE PUSH1 0x20 MSTORE PUSH1 0x40 DUP2 KECCAK256 DUP1 SLOAD PUSH1 0x1 SWAP3 SWAP1 PUSH2 0x34CE SWAP1 DUP5 SWAP1 PUSH2 0x478B JUMP JUMPDEST SWAP1 SWAP2 SSTORE POP POP PUSH1 0x1 PUSH1 0x1 PUSH1 0xA0 SHL SUB DUP3 AND PUSH1 0x0 SWAP1 DUP2 MSTORE PUSH1 0xE PUSH1 0x20 MSTORE PUSH1 0x40 DUP2 KECCAK256 DUP1 SLOAD PUSH1 0x1 SWAP3 SWAP1 PUSH2 0x34FC SWAP1 DUP5 SWAP1 PUSH2 0x475F JUMP JUMPDEST SWAP1 SWAP2 SSTORE POP POP PUSH1 0x0 DUP2 DUP2 MSTORE PUSH1 0xD PUSH1 0x20 MSTORE PUSH1 0x40 DUP1 DUP3 KECCAK256 DUP1 SLOAD PUSH1 0x1 PUSH1 0x1 PUSH1 0xA0 SHL SUB NOT AND PUSH1 0x1 PUSH1 0x1 PUSH1 0xA0 SHL SUB DUP7 DUP2 AND SWAP2 DUP3 OR SWAP1 SWAP3 SSTORE SWAP2 MLOAD DUP5 SWAP4 SWAP2 DUP8 AND SWAP2 PUSH32 0xDDF252AD1BE2C89B69C2B068FC378DAA952BA7F163C4A11628F55A4DF523B3EF SWAP2 LOG4 POP POP POP JUMP JUMPDEST PUSH1 0x40 MLOAD PUSH4 0x6812428B PUSH1 0xE1 SHL DUP2 MSTORE PUSH1 0x4 DUP2 ADD DUP3 SWAP1 MSTORE PUSH1 0x1 PUSH1 0x1 PUSH1 0xA0 SHL SUB DUP4 AND SWAP1 PUSH4 0xD0248516 SWAP1 PUSH1 0x24 ADD PUSH1 0x20 PUSH1 0x40 MLOAD DUP1 DUP4 SUB DUP2 DUP7 DUP1 EXTCODESIZE ISZERO DUP1 ISZERO PUSH2 0x359D JUMPI PUSH1 0x0 DUP1 REVERT JUMPDEST POP GAS STATICCALL ISZERO DUP1 ISZERO PUSH2 0x35B1 JUMPI RETURNDATASIZE PUSH1 0x0 DUP1 RETURNDATACOPY RETURNDATASIZE PUSH1 0x0 REVERT JUMPDEST POP POP POP POP PUSH1 0x40 MLOAD RETURNDATASIZE PUSH1 0x1F NOT PUSH1 0x1F DUP3 ADD AND DUP3 ADD DUP1 PUSH1 0x40 MSTORE POP DUP2 ADD SWAP1 PUSH2 0x35D5 SWAP2 SWAP1 PUSH2 0x409A JUMP JUMPDEST ISZERO PUSH2 0x2802 JUMPI PUSH1 0x40 MLOAD PUSH4 0xDF069B11 PUSH1 0xE0 SHL DUP2 MSTORE PUSH1 0x4 DUP2 ADD DUP5 SWAP1 MSTORE PUSH1 0x0 SWAP1 DUP2 SWAP1 PUSH1 0x1 PUSH1 0x1 PUSH1 0xA0 SHL SUB DUP8 AND SWAP1 PUSH4 0xDF069B11 SWAP1 PUSH1 0x24 ADD PUSH1 0x80 PUSH1 0x40 MLOAD DUP1 DUP4 SUB DUP2 DUP7 DUP1 EXTCODESIZE ISZERO DUP1 ISZERO PUSH2 0x361F JUMPI PUSH1 0x0 DUP1 REVERT JUMPDEST POP GAS STATICCALL ISZERO DUP1 ISZERO PUSH2 0x3633 JUMPI RETURNDATASIZE PUSH1 0x0 DUP1 RETURNDATACOPY RETURNDATASIZE PUSH1 0x0 REVERT JUMPDEST POP POP POP POP PUSH1 0x40 MLOAD RETURNDATASIZE PUSH1 0x1F NOT PUSH1 0x1F DUP3 ADD AND DUP3 ADD DUP1 PUSH1 0x40 MSTORE POP DUP2 ADD SWAP1 PUSH2 0x3657 SWAP2 SWAP1 PUSH2 0x4028 JUMP JUMPDEST SWAP4 POP POP SWAP3 POP POP PUSH1 0x0 DUP1 DUP6 PUSH1 0x1 PUSH1 0x1 PUSH1 0xA0 SHL SUB AND PUSH4 0xDF069B11 DUP7 PUSH1 0x40 MLOAD DUP3 PUSH4 0xFFFFFFFF AND PUSH1 0xE0 SHL DUP2 MSTORE PUSH1 0x4 ADD PUSH2 0x368E SWAP2 DUP2 MSTORE PUSH1 0x20 ADD SWAP1 JUMP JUMPDEST PUSH1 0x80 PUSH1 0x40 MLOAD DUP1 DUP4 SUB DUP2 DUP7 DUP1 EXTCODESIZE ISZERO DUP1 ISZERO PUSH2 0x36A6 JUMPI PUSH1 0x0 DUP1 REVERT JUMPDEST POP GAS STATICCALL ISZERO DUP1 ISZERO PUSH2 0x36BA JUMPI RETURNDATASIZE PUSH1 0x0 DUP1 RETURNDATACOPY RETURNDATASIZE PUSH1 0x0 REVERT JUMPDEST POP POP POP POP PUSH1 0x40 MLOAD RETURNDATASIZE PUSH1 0x1F NOT PUSH1 0x1F DUP3 ADD AND DUP3 ADD DUP1 PUSH1 0x40 MSTORE POP DUP2 ADD SWAP1 PUSH2 0x36DE SWAP2 SWAP1 PUSH2 0x4028 JUMP JUMPDEST SWAP4 POP POP SWAP3 POP POP DUP4 PUSH2 0x373F JUMPI PUSH1 0x40 MLOAD PUSH3 0x461BCD PUSH1 0xE5 SHL DUP2 MSTORE PUSH1 0x20 PUSH1 0x4 DUP3 ADD MSTORE PUSH1 0x25 PUSH1 0x24 DUP3 ADD MSTORE PUSH32 0x426174746C656669656C643A2061747461636B65722073686F756C6420626520 PUSH1 0x44 DUP3 ADD MSTORE PUSH5 0x185C9B5959 PUSH1 0xDA SHL PUSH1 0x64 DUP3 ADD MSTORE PUSH1 0x84 ADD PUSH2 0xC51 JUMP JUMPDEST DUP2 ISZERO DUP1 PUSH2 0x374B JUMPI POP DUP1 DUP4 SGT JUMPDEST PUSH2 0x378F JUMPI PUSH1 0x40 MLOAD PUSH3 0x461BCD PUSH1 0xE5 SHL DUP2 MSTORE PUSH1 0x20 PUSH1 0x4 DUP3 ADD MSTORE PUSH1 0x15 PUSH1 0x24 DUP3 ADD MSTORE PUSH21 0x10985D1D1B19599A595B190E8819195999585D1959 PUSH1 0x5A SHL PUSH1 0x44 DUP3 ADD MSTORE PUSH1 0x64 ADD PUSH2 0xC51 JUMP JUMPDEST POP POP POP POP POP POP POP POP JUMP JUMPDEST PUSH2 0x37A4 DUP5 DUP5 DUP5 PUSH2 0x33BD JUMP JUMPDEST PUSH2 0x37B0 DUP5 DUP5 DUP5 DUP5 PUSH2 0x3A62 JUMP JUMPDEST PUSH2 0x2802 JUMPI PUSH1 0x40 MLOAD PUSH3 0x461BCD PUSH1 0xE5 SHL DUP2 MSTORE PUSH1 0x4 ADD PUSH2 0xC51 SWAP1 PUSH2 0x45C1 JUMP JUMPDEST PUSH1 0x1 PUSH1 0x1 PUSH1 0xA0 SHL SUB DUP3 AND PUSH2 0x3822 JUMPI PUSH1 0x40 MLOAD PUSH3 0x461BCD PUSH1 0xE5 SHL DUP2 MSTORE PUSH1 0x20 PUSH1 0x4 DUP3 ADD DUP2 SWAP1 MSTORE PUSH1 0x24 DUP3 ADD MSTORE PUSH32 0x4552433732313A206D696E7420746F20746865207A65726F2061646472657373 PUSH1 0x44 DUP3 ADD MSTORE PUSH1 0x64 ADD PUSH2 0xC51 JUMP JUMPDEST PUSH2 0x382B DUP2 PUSH2 0x324C JUMP JUMPDEST ISZERO PUSH2 0x3878 JUMPI PUSH1 0x40 MLOAD PUSH3 0x461BCD PUSH1 0xE5 SHL DUP2 MSTORE PUSH1 0x20 PUSH1 0x4 DUP3 ADD MSTORE PUSH1 0x1C PUSH1 0x24 DUP3 ADD MSTORE PUSH32 0x4552433732313A20746F6B656E20616C7265616479206D696E74656400000000 PUSH1 0x44 DUP3 ADD MSTORE PUSH1 0x64 ADD PUSH2 0xC51 JUMP JUMPDEST PUSH1 0x1 PUSH1 0x1 PUSH1 0xA0 SHL SUB DUP3 AND PUSH1 0x0 SWAP1 DUP2 MSTORE PUSH1 0xE PUSH1 0x20 MSTORE PUSH1 0x40 DUP2 KECCAK256 DUP1 SLOAD PUSH1 0x1 SWAP3 SWAP1 PUSH2 0x38A1 SWAP1 DUP5 SWAP1 PUSH2 0x475F JUMP JUMPDEST SWAP1 SWAP2 SSTORE POP POP PUSH1 0x0 DUP2 DUP2 MSTORE PUSH1 0xD PUSH1 0x20 MSTORE PUSH1 0x40 DUP1 DUP3 KECCAK256 DUP1 SLOAD PUSH1 0x1 PUSH1 0x1 PUSH1 0xA0 SHL SUB NOT AND PUSH1 0x1 PUSH1 0x1 PUSH1 0xA0 SHL SUB DUP7 AND SWAP1 DUP2 OR SWAP1 SWAP2 SSTORE SWAP1 MLOAD DUP4 SWAP3 SWAP1 PUSH32 0xDDF252AD1BE2C89B69C2B068FC378DAA952BA7F163C4A11628F55A4DF523B3EF SWAP1 DUP3 SWAP1 LOG4 POP POP JUMP JUMPDEST PUSH2 0x3908 DUP3 PUSH2 0x324C JUMP JUMPDEST PUSH2 0x396B JUMPI PUSH1 0x40 MLOAD PUSH3 0x461BCD PUSH1 0xE5 SHL DUP2 MSTORE PUSH1 0x20 PUSH1 0x4 DUP3 ADD MSTORE PUSH1 0x2E PUSH1 0x24 DUP3 ADD MSTORE PUSH32 0x45524337323155524953746F726167653A2055524920736574206F66206E6F6E PUSH1 0x44 DUP3 ADD MSTORE PUSH14 0x32BC34B9BA32B73A103A37B5B2B7 PUSH1 0x91 SHL PUSH1 0x64 DUP3 ADD MSTORE PUSH1 0x84 ADD PUSH2 0xC51 JUMP JUMPDEST PUSH1 0x0 DUP3 DUP2 MSTORE PUSH1 0x11 PUSH1 0x20 SWAP1 DUP2 MSTORE PUSH1 0x40 SWAP1 SWAP2 KECCAK256 DUP3 MLOAD PUSH2 0xD87 SWAP3 DUP5 ADD SWAP1 PUSH2 0x3D57 JUMP JUMPDEST PUSH1 0x60 PUSH2 0x3995 DUP3 PUSH2 0x324C JUMP JUMPDEST PUSH2 0x39F9 JUMPI PUSH1 0x40 MLOAD PUSH3 0x461BCD PUSH1 0xE5 SHL DUP2 MSTORE PUSH1 0x20 PUSH1 0x4 DUP3 ADD MSTORE PUSH1 0x2F PUSH1 0x24 DUP3 ADD MSTORE PUSH32 0x4552433732314D657461646174613A2055524920717565727920666F72206E6F PUSH1 0x44 DUP3 ADD MSTORE PUSH15 0x3732BC34B9BA32B73A103A37B5B2B7 PUSH1 0x89 SHL PUSH1 0x64 DUP3 ADD MSTORE PUSH1 0x84 ADD PUSH2 0xC51 JUMP JUMPDEST PUSH1 0x0 PUSH2 0x3A10 PUSH1 0x40 DUP1 MLOAD PUSH1 0x20 DUP2 ADD SWAP1 SWAP2 MSTORE PUSH1 0x0 DUP2 MSTORE SWAP1 JUMP JUMPDEST SWAP1 POP PUSH1 0x0 DUP2 MLOAD GT PUSH2 0x3A30 JUMPI PUSH1 0x40 MLOAD DUP1 PUSH1 0x20 ADD PUSH1 0x40 MSTORE DUP1 PUSH1 0x0 DUP2 MSTORE POP PUSH2 0x3A5B JUMP JUMPDEST DUP1 PUSH2 0x3A3A DUP5 PUSH2 0x3B6F JUMP JUMPDEST PUSH1 0x40 MLOAD PUSH1 0x20 ADD PUSH2 0x3A4B SWAP3 SWAP2 SWAP1 PUSH2 0x4273 JUMP JUMPDEST PUSH1 0x40 MLOAD PUSH1 0x20 DUP2 DUP4 SUB SUB DUP2 MSTORE SWAP1 PUSH1 0x40 MSTORE JUMPDEST SWAP4 SWAP3 POP POP POP JUMP JUMPDEST PUSH1 0x0 PUSH1 0x1 PUSH1 0x1 PUSH1 0xA0 SHL SUB DUP5 AND EXTCODESIZE ISZERO PUSH2 0x3B64 JUMPI PUSH1 0x40 MLOAD PUSH4 0xA85BD01 PUSH1 0xE1 SHL DUP2 MSTORE PUSH1 0x1 PUSH1 0x1 PUSH1 0xA0 SHL SUB DUP6 AND SWAP1 PUSH4 0x150B7A02 SWAP1 PUSH2 0x3AA6 SWAP1 CALLER SWAP1 DUP10 SWAP1 DUP9 SWAP1 DUP9 SWAP1 PUSH1 0x4 ADD PUSH2 0x4351 JUMP JUMPDEST PUSH1 0x20 PUSH1 0x40 MLOAD DUP1 DUP4 SUB DUP2 PUSH1 0x0 DUP8 DUP1 EXTCODESIZE ISZERO DUP1 ISZERO PUSH2 0x3AC0 JUMPI PUSH1 0x0 DUP1 REVERT JUMPDEST POP GAS CALL SWAP3 POP POP POP DUP1 ISZERO PUSH2 0x3AF0 JUMPI POP PUSH1 0x40 DUP1 MLOAD PUSH1 0x1F RETURNDATASIZE SWAP1 DUP2 ADD PUSH1 0x1F NOT AND DUP3 ADD SWAP1 SWAP3 MSTORE PUSH2 0x3AED SWAP2 DUP2 ADD SWAP1 PUSH2 0x40D2 JUMP JUMPDEST PUSH1 0x1 JUMPDEST PUSH2 0x3B4A JUMPI RETURNDATASIZE DUP1 DUP1 ISZERO PUSH2 0x3B1E JUMPI PUSH1 0x40 MLOAD SWAP2 POP PUSH1 0x1F NOT PUSH1 0x3F RETURNDATASIZE ADD AND DUP3 ADD PUSH1 0x40 MSTORE RETURNDATASIZE DUP3 MSTORE RETURNDATASIZE PUSH1 0x0 PUSH1 0x20 DUP5 ADD RETURNDATACOPY PUSH2 0x3B23 JUMP JUMPDEST PUSH1 0x60 SWAP2 POP JUMPDEST POP DUP1 MLOAD PUSH2 0x3B42 JUMPI PUSH1 0x40 MLOAD PUSH3 0x461BCD PUSH1 0xE5 SHL DUP2 MSTORE PUSH1 0x4 ADD PUSH2 0xC51 SWAP1 PUSH2 0x45C1 JUMP JUMPDEST DUP1 MLOAD DUP2 PUSH1 0x20 ADD REVERT JUMPDEST PUSH1 0x1 PUSH1 0x1 PUSH1 0xE0 SHL SUB NOT AND PUSH4 0xA85BD01 PUSH1 0xE1 SHL EQ SWAP1 POP PUSH2 0x2D5A JUMP JUMPDEST POP PUSH1 0x1 SWAP5 SWAP4 POP POP POP POP JUMP JUMPDEST PUSH1 0x60 DUP2 PUSH2 0x3B94 JUMPI POP PUSH1 0x40 DUP1 MLOAD DUP1 DUP3 ADD SWAP1 SWAP2 MSTORE PUSH1 0x1 DUP2 MSTORE PUSH1 0x3 PUSH1 0xFC SHL PUSH1 0x20 DUP3 ADD MSTORE PUSH2 0xB52 JUMP JUMPDEST DUP2 PUSH1 0x0 JUMPDEST DUP2 ISZERO PUSH2 0x3BBE JUMPI DUP1 PUSH2 0x3BA8 DUP2 PUSH2 0x481A JUMP JUMPDEST SWAP2 POP PUSH2 0x3BB7 SWAP1 POP PUSH1 0xA DUP4 PUSH2 0x4777 JUMP JUMPDEST SWAP2 POP PUSH2 0x3B98 JUMP JUMPDEST PUSH1 0x0 DUP2 PUSH8 0xFFFFFFFFFFFFFFFF DUP2 GT ISZERO PUSH2 0x3BE7 JUMPI PUSH4 0x4E487B71 PUSH1 0xE0 SHL PUSH1 0x0 MSTORE PUSH1 0x41 PUSH1 0x4 MSTORE PUSH1 0x24 PUSH1 0x0 REVERT JUMPDEST PUSH1 0x40 MLOAD SWAP1 DUP1 DUP3 MSTORE DUP1 PUSH1 0x1F ADD PUSH1 0x1F NOT AND PUSH1 0x20 ADD DUP3 ADD PUSH1 0x40 MSTORE DUP1 ISZERO PUSH2 0x3C11 JUMPI PUSH1 0x20 DUP3 ADD DUP2 DUP1 CALLDATASIZE DUP4 CALLDATACOPY ADD SWAP1 POP JUMPDEST POP SWAP1 POP JUMPDEST DUP5 ISZERO PUSH2 0x2D5A JUMPI PUSH2 0x3C26 PUSH1 0x1 DUP4 PUSH2 0x478B JUMP JUMPDEST SWAP2 POP PUSH2 0x3C33 PUSH1 0xA DUP7 PUSH2 0x4835 JUMP JUMPDEST PUSH2 0x3C3E SWAP1 PUSH1 0x30 PUSH2 0x475F JUMP JUMPDEST PUSH1 0xF8 SHL DUP2 DUP4 DUP2 MLOAD DUP2 LT PUSH2 0x3C61 JUMPI PUSH4 0x4E487B71 PUSH1 0xE0 SHL PUSH1 0x0 MSTORE PUSH1 0x32 PUSH1 0x4 MSTORE PUSH1 0x24 PUSH1 0x0 REVERT JUMPDEST PUSH1 0x20 ADD ADD SWAP1 PUSH1 0x1 PUSH1 0x1 PUSH1 0xF8 SHL SUB NOT AND SWAP1 DUP2 PUSH1 0x0 BYTE SWAP1 MSTORE8 POP PUSH2 0x3C83 PUSH1 0xA DUP7 PUSH2 0x4777 JUMP JUMPDEST SWAP5 POP PUSH2 0x3C15 JUMP JUMPDEST PUSH1 0x40 MLOAD DUP1 PUSH1 0x60 ADD PUSH1 0x40 MSTORE DUP1 PUSH1 0x0 PUSH1 0x1 PUSH1 0x1 PUSH1 0xA0 SHL SUB AND DUP2 MSTORE PUSH1 0x20 ADD PUSH1 0x60 DUP2 MSTORE PUSH1 0x20 ADD PUSH1 0x0 ISZERO ISZERO DUP2 MSTORE POP SWAP1 JUMP JUMPDEST POP DUP1 SLOAD PUSH1 0x0 DUP3 SSTORE SWAP1 PUSH1 0x0 MSTORE PUSH1 0x20 PUSH1 0x0 KECCAK256 SWAP1 DUP2 ADD SWAP1 PUSH2 0x3CD4 SWAP2 SWAP1 PUSH2 0x3DEC JUMP JUMPDEST POP JUMP JUMPDEST DUP3 DUP1 SLOAD PUSH2 0x3CE3 SWAP1 PUSH2 0x47E5 JUMP JUMPDEST SWAP1 PUSH1 0x0 MSTORE PUSH1 0x20 PUSH1 0x0 KECCAK256 SWAP1 PUSH1 0x1F ADD PUSH1 0x20 SWAP1 DIV DUP2 ADD SWAP3 DUP3 PUSH2 0x3D05 JUMPI PUSH1 0x0 DUP6 SSTORE PUSH2 0x3D4B JUMP JUMPDEST DUP3 PUSH1 0x1F LT PUSH2 0x3D1E JUMPI DUP3 DUP1 ADD PUSH1 0xFF NOT DUP3 CALLDATALOAD AND OR DUP6 SSTORE PUSH2 0x3D4B JUMP JUMPDEST DUP3 DUP1 ADD PUSH1 0x1 ADD DUP6 SSTORE DUP3 ISZERO PUSH2 0x3D4B JUMPI SWAP2 DUP3 ADD JUMPDEST DUP3 DUP2 GT ISZERO PUSH2 0x3D4B JUMPI DUP3 CALLDATALOAD DUP3 SSTORE SWAP2 PUSH1 0x20 ADD SWAP2 SWAP1 PUSH1 0x1 ADD SWAP1 PUSH2 0x3D30 JUMP JUMPDEST POP PUSH2 0xE47 SWAP3 SWAP2 POP PUSH2 0x3DEC JUMP JUMPDEST DUP3 DUP1 SLOAD PUSH2 0x3D63 SWAP1 PUSH2 0x47E5 JUMP JUMPDEST SWAP1 PUSH1 0x0 MSTORE PUSH1 0x20 PUSH1 0x0 KECCAK256 SWAP1 PUSH1 0x1F ADD PUSH1 0x20 SWAP1 DIV DUP2 ADD SWAP3 DUP3 PUSH2 0x3D85 JUMPI PUSH1 0x0 DUP6 SSTORE PUSH2 0x3D4B JUMP JUMPDEST DUP3 PUSH1 0x1F LT PUSH2 0x3D9E JUMPI DUP1 MLOAD PUSH1 0xFF NOT AND DUP4 DUP1 ADD OR DUP6 SSTORE PUSH2 0x3D4B JUMP JUMPDEST DUP3 DUP1 ADD PUSH1 0x1 ADD DUP6 SSTORE DUP3 ISZERO PUSH2 0x3D4B JUMPI SWAP2 DUP3 ADD JUMPDEST DUP3 DUP2 GT ISZERO PUSH2 0x3D4B JUMPI DUP3 MLOAD DUP3 SSTORE SWAP2 PUSH1 0x20 ADD SWAP2 SWAP1 PUSH1 0x1 ADD SWAP1 PUSH2 0x3DB0 JUMP JUMPDEST POP DUP1 SLOAD PUSH1 0x0 DUP3 SSTORE PUSH1 0x3 MUL SWAP1 PUSH1 0x0 MSTORE PUSH1 0x20 PUSH1 0x0 KECCAK256 SWAP1 DUP2 ADD SWAP1 PUSH2 0x3CD4 SWAP2 SWAP1 PUSH2 0x3E01 JUMP JUMPDEST JUMPDEST DUP1 DUP3 GT ISZERO PUSH2 0xE47 JUMPI PUSH1 0x0 DUP2 SSTORE PUSH1 0x1 ADD PUSH2 0x3DED JUMP JUMPDEST DUP1 DUP3 GT ISZERO PUSH2 0xE47 JUMPI DUP1 SLOAD PUSH1 0x1 PUSH1 0x1 PUSH1 0xA0 SHL SUB NOT AND DUP2 SSTORE PUSH1 0x0 PUSH2 0x3E26 PUSH1 0x1 DUP4 ADD DUP3 PUSH2 0x3E36 JUMP JUMPDEST POP PUSH1 0x0 PUSH1 0x2 DUP3 ADD SSTORE PUSH1 0x3 ADD PUSH2 0x3E01 JUMP JUMPDEST POP DUP1 SLOAD PUSH2 0x3E42 SWAP1 PUSH2 0x47E5 JUMP JUMPDEST PUSH1 0x0 DUP3 SSTORE DUP1 PUSH1 0x1F LT PUSH2 0x3E54 JUMPI POP PUSH2 0x3CD4 JUMP JUMPDEST PUSH1 0x1F ADD PUSH1 0x20 SWAP1 DIV SWAP1 PUSH1 0x0 MSTORE PUSH1 0x20 PUSH1 0x0 KECCAK256 SWAP1 DUP2 ADD SWAP1 PUSH2 0x3CD4 SWAP2 SWAP1 PUSH2 0x3DEC JUMP JUMPDEST PUSH1 0x0 PUSH1 0x20 DUP3 DUP5 SUB SLT ISZERO PUSH2 0x3E83 JUMPI DUP1 DUP2 REVERT JUMPDEST DUP2 CALLDATALOAD PUSH2 0x3A5B DUP2 PUSH2 0x488B JUMP JUMPDEST PUSH1 0x0 PUSH1 0x20 DUP3 DUP5 SUB SLT ISZERO PUSH2 0x3E9F JUMPI DUP1 DUP2 REVERT JUMPDEST DUP2 MLOAD PUSH2 0x3A5B DUP2 PUSH2 0x488B JUMP JUMPDEST PUSH1 0x0 DUP1 PUSH1 0x40 DUP4 DUP6 SUB SLT ISZERO PUSH2 0x3EBC JUMPI DUP1 DUP2 REVERT JUMPDEST DUP3 CALLDATALOAD PUSH2 0x3EC7 DUP2 PUSH2 0x488B JUMP JUMPDEST SWAP2 POP PUSH1 0x20 DUP4 ADD CALLDATALOAD PUSH2 0x3ED7 DUP2 PUSH2 0x488B JUMP JUMPDEST DUP1 SWAP2 POP POP SWAP3 POP SWAP3 SWAP1 POP JUMP JUMPDEST PUSH1 0x0 DUP1 PUSH1 0x0 PUSH1 0x60 DUP5 DUP7 SUB SLT ISZERO PUSH2 0x3EF6 JUMPI DUP1 DUP2 REVERT JUMPDEST DUP4 CALLDATALOAD PUSH2 0x3F01 DUP2 PUSH2 0x488B JUMP JUMPDEST SWAP3 POP PUSH1 0x20 DUP5 ADD CALLDATALOAD PUSH2 0x3F11 DUP2 PUSH2 0x488B JUMP JUMPDEST SWAP3 SWAP6 SWAP3 SWAP5 POP POP POP PUSH1 0x40 SWAP2 SWAP1 SWAP2 ADD CALLDATALOAD SWAP1 JUMP JUMPDEST PUSH1 0x0 DUP1 PUSH1 0x0 DUP1 PUSH1 0x80 DUP6 DUP8 SUB SLT ISZERO PUSH2 0x3F37 JUMPI DUP1 DUP2 REVERT JUMPDEST DUP5 CALLDATALOAD PUSH2 0x3F42 DUP2 PUSH2 0x488B JUMP JUMPDEST SWAP4 POP PUSH1 0x20 DUP6 ADD CALLDATALOAD PUSH2 0x3F52 DUP2 PUSH2 0x488B JUMP JUMPDEST SWAP3 POP PUSH1 0x40 DUP6 ADD CALLDATALOAD SWAP2 POP PUSH1 0x60 DUP6 ADD CALLDATALOAD PUSH8 0xFFFFFFFFFFFFFFFF DUP1 DUP3 GT ISZERO PUSH2 0x3F75 JUMPI DUP3 DUP4 REVERT JUMPDEST DUP2 DUP8 ADD SWAP2 POP DUP8 PUSH1 0x1F DUP4 ADD SLT PUSH2 0x3F88 JUMPI DUP3 DUP4 REVERT JUMPDEST DUP2 CALLDATALOAD DUP2 DUP2 GT ISZERO PUSH2 0x3F9A JUMPI PUSH2 0x3F9A PUSH2 0x4875 JUMP JUMPDEST PUSH1 0x40 MLOAD PUSH1 0x1F DUP3 ADD PUSH1 0x1F NOT SWAP1 DUP2 AND PUSH1 0x3F ADD AND DUP2 ADD SWAP1 DUP4 DUP3 GT DUP2 DUP4 LT OR ISZERO PUSH2 0x3FC2 JUMPI PUSH2 0x3FC2 PUSH2 0x4875 JUMP JUMPDEST DUP2 PUSH1 0x40 MSTORE DUP3 DUP2 MSTORE DUP11 PUSH1 0x20 DUP5 DUP8 ADD ADD GT ISZERO PUSH2 0x3FDA JUMPI DUP6 DUP7 REVERT JUMPDEST DUP3 PUSH1 0x20 DUP7 ADD PUSH1 0x20 DUP4 ADD CALLDATACOPY SWAP2 DUP3 ADD PUSH1 0x20 ADD SWAP5 SWAP1 SWAP5 MSTORE SWAP6 SWAP9 SWAP5 SWAP8 POP SWAP3 SWAP6 POP POP POP POP JUMP JUMPDEST PUSH1 0x0 DUP1 PUSH1 0x40 DUP4 DUP6 SUB SLT ISZERO PUSH2 0x400D JUMPI DUP2 DUP3 REVERT JUMPDEST DUP3 CALLDATALOAD PUSH2 0x4018 DUP2 PUSH2 0x488B JUMP JUMPDEST SWAP2 POP PUSH1 0x20 DUP4 ADD CALLDATALOAD PUSH2 0x3ED7 DUP2 PUSH2 0x48A0 JUMP JUMPDEST PUSH1 0x0 DUP1 PUSH1 0x0 DUP1 PUSH1 0x80 DUP6 DUP8 SUB SLT ISZERO PUSH2 0x403D JUMPI DUP4 DUP5 REVERT JUMPDEST DUP5 MLOAD PUSH2 0x4048 DUP2 PUSH2 0x488B JUMP JUMPDEST PUSH1 0x20 DUP7 ADD MLOAD SWAP1 SWAP5 POP PUSH2 0x4059 DUP2 PUSH2 0x48A0 JUMP JUMPDEST PUSH1 0x40 DUP7 ADD MLOAD PUSH1 0x60 SWAP1 SWAP7 ADD MLOAD SWAP5 SWAP8 SWAP1 SWAP7 POP SWAP3 POP POP POP JUMP JUMPDEST PUSH1 0x0 DUP1 PUSH1 0x40 DUP4 DUP6 SUB SLT ISZERO PUSH2 0x4081 JUMPI DUP2 DUP3 REVERT JUMPDEST DUP3 CALLDATALOAD PUSH2 0x408C DUP2 PUSH2 0x488B JUMP JUMPDEST SWAP5 PUSH1 0x20 SWAP4 SWAP1 SWAP4 ADD CALLDATALOAD SWAP4 POP POP POP JUMP JUMPDEST PUSH1 0x0 PUSH1 0x20 DUP3 DUP5 SUB SLT ISZERO PUSH2 0x40AB JUMPI DUP1 DUP2 REVERT JUMPDEST DUP2 MLOAD PUSH2 0x3A5B DUP2 PUSH2 0x48A0 JUMP JUMPDEST PUSH1 0x0 PUSH1 0x20 DUP3 DUP5 SUB SLT ISZERO PUSH2 0x40C7 JUMPI DUP1 DUP2 REVERT JUMPDEST DUP2 CALLDATALOAD PUSH2 0x3A5B DUP2 PUSH2 0x48AE JUMP JUMPDEST PUSH1 0x0 PUSH1 0x20 DUP3 DUP5 SUB SLT ISZERO PUSH2 0x40E3 JUMPI DUP1 DUP2 REVERT JUMPDEST DUP2 MLOAD PUSH2 0x3A5B DUP2 PUSH2 0x48AE JUMP JUMPDEST PUSH1 0x0 DUP1 PUSH1 0x20 DUP4 DUP6 SUB SLT ISZERO PUSH2 0x4100 JUMPI DUP2 DUP3 REVERT JUMPDEST DUP3 CALLDATALOAD PUSH8 0xFFFFFFFFFFFFFFFF DUP1 DUP3 GT ISZERO PUSH2 0x4117 JUMPI DUP4 DUP5 REVERT JUMPDEST DUP2 DUP6 ADD SWAP2 POP DUP6 PUSH1 0x1F DUP4 ADD SLT PUSH2 0x412A JUMPI DUP4 DUP5 REVERT JUMPDEST DUP2 CALLDATALOAD DUP2 DUP2 GT ISZERO PUSH2 0x4138 JUMPI DUP5 DUP6 REVERT JUMPDEST DUP7 PUSH1 0x20 DUP3 DUP6 ADD ADD GT ISZERO PUSH2 0x4149 JUMPI DUP5 DUP6 REVERT JUMPDEST PUSH1 0x20 SWAP3 SWAP1 SWAP3 ADD SWAP7 SWAP2 SWAP6 POP SWAP1 SWAP4 POP POP POP POP JUMP JUMPDEST PUSH1 0x0 PUSH1 0x20 DUP3 DUP5 SUB SLT ISZERO PUSH2 0x416C JUMPI DUP1 DUP2 REVERT JUMPDEST POP CALLDATALOAD SWAP2 SWAP1 POP JUMP JUMPDEST PUSH1 0x0 PUSH1 0x20 DUP3 DUP5 SUB SLT ISZERO PUSH2 0x4184 JUMPI DUP1 DUP2 REVERT JUMPDEST POP MLOAD SWAP2 SWAP1 POP JUMP JUMPDEST PUSH1 0x0 DUP1 PUSH1 0x40 DUP4 DUP6 SUB SLT ISZERO PUSH2 0x419D JUMPI DUP2 DUP3 REVERT JUMPDEST DUP3 CALLDATALOAD SWAP2 POP PUSH1 0x20 DUP4 ADD CALLDATALOAD PUSH2 0x3ED7 DUP2 PUSH2 0x488B JUMP JUMPDEST PUSH1 0x0 DUP1 PUSH1 0x40 DUP4 DUP6 SUB SLT ISZERO PUSH2 0x41C1 JUMPI DUP2 DUP3 REVERT JUMPDEST POP POP DUP1 CALLDATALOAD SWAP3 PUSH1 0x20 SWAP1 SWAP2 ADD CALLDATALOAD SWAP2 POP JUMP JUMPDEST PUSH1 0x0 DUP2 MLOAD DUP1 DUP5 MSTORE PUSH1 0x20 DUP1 DUP6 ADD SWAP5 POP DUP1 DUP5 ADD DUP4 JUMPDEST DUP4 DUP2 LT ISZERO PUSH2 0x41FF JUMPI DUP2 MLOAD DUP8 MSTORE SWAP6 DUP3 ADD SWAP6 SWAP1 DUP3 ADD SWAP1 PUSH1 0x1 ADD PUSH2 0x41E3 JUMP JUMPDEST POP SWAP5 SWAP6 SWAP5 POP POP POP POP POP JUMP JUMPDEST PUSH1 0x0 DUP2 MLOAD DUP1 DUP5 MSTORE PUSH2 0x4222 DUP2 PUSH1 0x20 DUP7 ADD PUSH1 0x20 DUP7 ADD PUSH2 0x47A2 JUMP JUMPDEST PUSH1 0x1F ADD PUSH1 0x1F NOT AND SWAP3 SWAP1 SWAP3 ADD PUSH1 0x20 ADD SWAP3 SWAP2 POP POP JUMP JUMPDEST PUSH1 0x0 PUSH1 0x1 DUP1 PUSH1 0xA0 SHL SUB DUP3 MLOAD AND DUP4 MSTORE PUSH1 0x20 DUP3 ADD MLOAD PUSH1 0x60 PUSH1 0x20 DUP6 ADD MSTORE PUSH2 0x425D PUSH1 0x60 DUP6 ADD DUP3 PUSH2 0x41D0 JUMP JUMPDEST PUSH1 0x40 SWAP4 DUP5 ADD MLOAD ISZERO ISZERO SWAP5 SWAP1 SWAP4 ADD SWAP4 SWAP1 SWAP4 MSTORE POP SWAP2 SWAP1 POP JUMP JUMPDEST PUSH1 0x0 DUP4 MLOAD PUSH2 0x4285 DUP2 DUP5 PUSH1 0x20 DUP9 ADD PUSH2 0x47A2 JUMP JUMPDEST DUP4 MLOAD SWAP1 DUP4 ADD SWAP1 PUSH2 0x4299 DUP2 DUP4 PUSH1 0x20 DUP9 ADD PUSH2 0x47A2 JUMP JUMPDEST ADD SWAP5 SWAP4 POP POP POP POP JUMP JUMPDEST PUSH1 0x0 DUP4 MLOAD PUSH1 0x20 PUSH2 0x42B5 DUP3 DUP6 DUP4 DUP10 ADD PUSH2 0x47A2 JUMP JUMPDEST DUP5 SLOAD SWAP2 DUP5 ADD SWAP2 DUP4 SWAP1 PUSH1 0x1 DUP2 DUP2 SHR SWAP1 DUP1 DUP4 AND DUP1 PUSH2 0x42D2 JUMPI PUSH1 0x7F DUP4 AND SWAP3 POP JUMPDEST DUP6 DUP4 LT DUP2 EQ ISZERO PUSH2 0x42F0 JUMPI PUSH4 0x4E487B71 PUSH1 0xE0 SHL DUP9 MSTORE PUSH1 0x22 PUSH1 0x4 MSTORE PUSH1 0x24 DUP9 REVERT JUMPDEST DUP1 DUP1 ISZERO PUSH2 0x4304 JUMPI PUSH1 0x1 DUP2 EQ PUSH2 0x4315 JUMPI PUSH2 0x4341 JUMP JUMPDEST PUSH1 0xFF NOT DUP6 AND DUP9 MSTORE DUP4 DUP9 ADD SWAP6 POP PUSH2 0x4341 JUMP JUMPDEST PUSH1 0x0 DUP12 DUP2 MSTORE PUSH1 0x20 SWAP1 KECCAK256 DUP10 JUMPDEST DUP6 DUP2 LT ISZERO PUSH2 0x4339 JUMPI DUP2 SLOAD DUP11 DUP3 ADD MSTORE SWAP1 DUP5 ADD SWAP1 DUP9 ADD PUSH2 0x4320 JUMP JUMPDEST POP POP DUP4 DUP9 ADD SWAP6 POP JUMPDEST POP SWAP4 SWAP11 SWAP10 POP POP POP POP POP POP POP POP POP POP JUMP JUMPDEST PUSH1 0x1 PUSH1 0x1 PUSH1 0xA0 SHL SUB DUP6 DUP2 AND DUP3 MSTORE DUP5 AND PUSH1 0x20 DUP3 ADD MSTORE PUSH1 0x40 DUP2 ADD DUP4 SWAP1 MSTORE PUSH1 0x80 PUSH1 0x60 DUP3 ADD DUP2 SWAP1 MSTORE PUSH1 0x0 SWAP1 PUSH2 0x4384 SWAP1 DUP4 ADD DUP5 PUSH2 0x420A JUMP JUMPDEST SWAP7 SWAP6 POP POP POP POP POP POP JUMP JUMPDEST PUSH1 0x1 PUSH1 0x1 PUSH1 0xA0 SHL SUB DUP4 AND DUP2 MSTORE PUSH1 0x40 PUSH1 0x20 DUP3 ADD DUP2 SWAP1 MSTORE PUSH1 0x0 SWAP1 PUSH2 0x2D5A SWAP1 DUP4 ADD DUP5 PUSH2 0x420A JUMP JUMPDEST PUSH1 0x1 PUSH1 0x1 PUSH1 0xA0 SHL SUB DUP5 AND DUP2 MSTORE PUSH1 0x60 PUSH1 0x20 DUP3 ADD DUP2 SWAP1 MSTORE PUSH1 0x0 SWAP1 PUSH2 0x43D6 SWAP1 DUP4 ADD DUP6 PUSH2 0x420A JUMP JUMPDEST SWAP1 POP DUP3 PUSH1 0x40 DUP4 ADD MSTORE SWAP5 SWAP4 POP POP POP POP JUMP JUMPDEST PUSH1 0x0 PUSH1 0x20 DUP1 DUP4 ADD DUP2 DUP5 MSTORE DUP1 DUP6 MLOAD DUP1 DUP4 MSTORE PUSH1 0x40 DUP7 ADD SWAP2 POP PUSH1 0x40 DUP2 PUSH1 0x5 SHL DUP8 ADD ADD SWAP3 POP DUP4 DUP8 ADD DUP6 JUMPDEST DUP3 DUP2 LT ISZERO PUSH2 0x443A JUMPI PUSH1 0x3F NOT DUP9 DUP7 SUB ADD DUP5 MSTORE PUSH2 0x4428 DUP6 DUP4 MLOAD PUSH2 0x4236 JUMP JUMPDEST SWAP5 POP SWAP3 DUP6 ADD SWAP3 SWAP1 DUP6 ADD SWAP1 PUSH1 0x1 ADD PUSH2 0x440C JUMP JUMPDEST POP SWAP3 SWAP8 SWAP7 POP POP POP POP POP POP POP JUMP JUMPDEST PUSH1 0x0 PUSH1 0x20 DUP1 DUP4 ADD DUP2 DUP5 MSTORE DUP1 DUP6 MLOAD DUP1 DUP4 MSTORE PUSH1 0x40 SWAP3 POP DUP3 DUP7 ADD SWAP2 POP DUP3 DUP2 PUSH1 0x5 SHL DUP8 ADD ADD DUP5 DUP9 ADD DUP7 JUMPDEST DUP4 DUP2 LT ISZERO PUSH2 0x44C4 JUMPI DUP9 DUP4 SUB PUSH1 0x3F NOT ADD DUP6 MSTORE DUP2 MLOAD DUP1 MLOAD PUSH1 0x1 PUSH1 0x1 PUSH1 0xA0 SHL SUB AND DUP5 MSTORE DUP8 DUP2 ADD MLOAD PUSH1 0x60 DUP10 DUP7 ADD DUP2 SWAP1 MSTORE SWAP1 PUSH2 0x44A6 DUP3 DUP8 ADD DUP3 PUSH2 0x420A JUMP JUMPDEST SWAP3 DUP10 ADD MLOAD SWAP6 DUP10 ADD SWAP6 SWAP1 SWAP6 MSTORE POP SWAP5 DUP8 ADD SWAP5 SWAP3 POP SWAP1 DUP7 ADD SWAP1 PUSH1 0x1 ADD PUSH2 0x446D JUMP JUMPDEST POP SWAP1 SWAP9 SWAP8 POP POP POP POP POP POP POP POP JUMP JUMPDEST PUSH1 0x0 PUSH1 0x20 DUP3 MSTORE PUSH2 0x3A5B PUSH1 0x20 DUP4 ADD DUP5 PUSH2 0x41D0 JUMP JUMPDEST PUSH1 0x20 DUP1 DUP3 MSTORE DUP3 SLOAD DUP3 DUP3 ADD DUP2 SWAP1 MSTORE PUSH1 0x0 DUP5 DUP2 MSTORE DUP3 DUP2 KECCAK256 SWAP1 SWAP3 SWAP2 PUSH1 0x40 DUP6 ADD SWAP1 DUP5 JUMPDEST DUP2 DUP2 LT ISZERO PUSH2 0x4520 JUMPI DUP4 SLOAD DUP4 MSTORE PUSH1 0x1 SWAP4 DUP5 ADD SWAP4 SWAP3 DUP6 ADD SWAP3 ADD PUSH2 0x4504 JUMP JUMPDEST POP SWAP1 SWAP7 SWAP6 POP POP POP POP POP POP JUMP JUMPDEST PUSH1 0x0 PUSH1 0x20 DUP3 MSTORE PUSH2 0x3A5B PUSH1 0x20 DUP4 ADD DUP5 PUSH2 0x420A JUMP JUMPDEST PUSH1 0x0 PUSH1 0xC0 DUP3 MSTORE PUSH2 0x4552 PUSH1 0xC0 DUP4 ADD DUP10 PUSH2 0x420A JUMP JUMPDEST PUSH1 0x20 DUP4 ADD SWAP8 SWAP1 SWAP8 MSTORE POP PUSH1 0x40 DUP2 ADD SWAP5 SWAP1 SWAP5 MSTORE PUSH1 0x60 DUP5 ADD SWAP3 SWAP1 SWAP3 MSTORE ISZERO ISZERO PUSH1 0x80 DUP4 ADD MSTORE ISZERO ISZERO PUSH1 0xA0 SWAP1 SWAP2 ADD MSTORE SWAP2 SWAP1 POP JUMP JUMPDEST PUSH1 0x20 DUP1 DUP3 MSTORE PUSH1 0x22 SWAP1 DUP3 ADD MSTORE PUSH32 0x426174746C656669656C643A206E6F7420696E2070726F706F73616C20737461 PUSH1 0x40 DUP3 ADD MSTORE PUSH2 0x7465 PUSH1 0xF0 SHL PUSH1 0x60 DUP3 ADD MSTORE PUSH1 0x80 ADD SWAP1 JUMP JUMPDEST PUSH1 0x20 DUP1 DUP3 MSTORE PUSH1 0x32 SWAP1 DUP3 ADD MSTORE PUSH32 0x4552433732313A207472616E7366657220746F206E6F6E204552433732315265 PUSH1 0x40 DUP3 ADD MSTORE PUSH18 0x31B2B4BB32B91034B6B83632B6B2B73A32B9 PUSH1 0x71 SHL PUSH1 0x60 DUP3 ADD MSTORE PUSH1 0x80 ADD SWAP1 JUMP JUMPDEST PUSH1 0x20 DUP1 DUP3 MSTORE PUSH1 0x17 SWAP1 DUP3 ADD MSTORE PUSH32 0x426174746C656669656C643A206E6F74206C6561646572000000000000000000 PUSH1 0x40 DUP3 ADD MSTORE PUSH1 0x60 ADD SWAP1 JUMP JUMPDEST PUSH1 0x20 DUP1 DUP3 MSTORE DUP2 DUP2 ADD MSTORE PUSH32 0x4F776E61626C653A2063616C6C6572206973206E6F7420746865206F776E6572 PUSH1 0x40 DUP3 ADD MSTORE PUSH1 0x60 ADD SWAP1 JUMP JUMPDEST PUSH1 0x20 DUP1 DUP3 MSTORE PUSH1 0x26 SWAP1 DUP3 ADD MSTORE PUSH32 0x426174746C656669656C643A20626174746C656669656C64206973206C6F636B PUSH1 0x40 DUP3 ADD MSTORE PUSH6 0x6564206E6F77 PUSH1 0xD0 SHL PUSH1 0x60 DUP3 ADD MSTORE PUSH1 0x80 ADD SWAP1 JUMP JUMPDEST PUSH1 0x20 DUP1 DUP3 MSTORE PUSH1 0x31 SWAP1 DUP3 ADD MSTORE PUSH32 0x4552433732313A207472616E736665722063616C6C6572206973206E6F74206F PUSH1 0x40 DUP3 ADD MSTORE PUSH17 0x1DDB995C881B9BDC88185C1C1C9BDD9959 PUSH1 0x7A SHL PUSH1 0x60 DUP3 ADD MSTORE PUSH1 0x80 ADD SWAP1 JUMP JUMPDEST PUSH1 0x0 PUSH1 0x20 DUP3 MSTORE PUSH2 0x3A5B PUSH1 0x20 DUP4 ADD DUP5 PUSH2 0x4236 JUMP JUMPDEST PUSH1 0x0 DUP5 DUP3 MSTORE PUSH1 0x40 PUSH1 0x20 DUP4 ADD MSTORE DUP3 PUSH1 0x40 DUP4 ADD MSTORE DUP3 DUP5 PUSH1 0x60 DUP5 ADD CALLDATACOPY DUP2 DUP4 ADD PUSH1 0x60 SWAP1 DUP2 ADD SWAP2 SWAP1 SWAP2 MSTORE PUSH1 0x1F SWAP1 SWAP3 ADD PUSH1 0x1F NOT AND ADD ADD SWAP3 SWAP2 POP POP JUMP JUMPDEST PUSH1 0x0 DUP3 NOT DUP3 GT ISZERO PUSH2 0x4772 JUMPI PUSH2 0x4772 PUSH2 0x4849 JUMP JUMPDEST POP ADD SWAP1 JUMP JUMPDEST PUSH1 0x0 DUP3 PUSH2 0x4786 JUMPI PUSH2 0x4786 PUSH2 0x485F JUMP JUMPDEST POP DIV SWAP1 JUMP JUMPDEST PUSH1 0x0 DUP3 DUP3 LT ISZERO PUSH2 0x479D JUMPI PUSH2 0x479D PUSH2 0x4849 JUMP JUMPDEST POP SUB SWAP1 JUMP JUMPDEST PUSH1 0x0 JUMPDEST DUP4 DUP2 LT ISZERO PUSH2 0x47BD JUMPI DUP2 DUP2 ADD MLOAD DUP4 DUP3 ADD MSTORE PUSH1 0x20 ADD PUSH2 0x47A5 JUMP JUMPDEST DUP4 DUP2 GT ISZERO PUSH2 0x2802 JUMPI POP POP PUSH1 0x0 SWAP2 ADD MSTORE JUMP JUMPDEST PUSH1 0x0 DUP2 PUSH2 0x47DD JUMPI PUSH2 0x47DD PUSH2 0x4849 JUMP JUMPDEST POP PUSH1 0x0 NOT ADD SWAP1 JUMP JUMPDEST PUSH1 0x1 DUP2 DUP2 SHR SWAP1 DUP3 AND DUP1 PUSH2 0x47F9 JUMPI PUSH1 0x7F DUP3 AND SWAP2 POP JUMPDEST PUSH1 0x20 DUP3 LT DUP2 EQ ISZERO PUSH2 0x165E JUMPI PUSH4 0x4E487B71 PUSH1 0xE0 SHL PUSH1 0x0 MSTORE PUSH1 0x22 PUSH1 0x4 MSTORE PUSH1 0x24 PUSH1 0x0 REVERT JUMPDEST PUSH1 0x0 PUSH1 0x0 NOT DUP3 EQ ISZERO PUSH2 0x482E JUMPI PUSH2 0x482E PUSH2 0x4849 JUMP JUMPDEST POP PUSH1 0x1 ADD SWAP1 JUMP JUMPDEST PUSH1 0x0 DUP3 PUSH2 0x4844 JUMPI PUSH2 0x4844 PUSH2 0x485F JUMP JUMPDEST POP MOD SWAP1 JUMP JUMPDEST PUSH4 0x4E487B71 PUSH1 0xE0 SHL PUSH1 0x0 MSTORE PUSH1 0x11 PUSH1 0x4 MSTORE PUSH1 0x24 PUSH1 0x0 REVERT JUMPDEST PUSH4 0x4E487B71 PUSH1 0xE0 SHL PUSH1 0x0 MSTORE PUSH1 0x12 PUSH1 0x4 MSTORE PUSH1 0x24 PUSH1 0x0 REVERT JUMPDEST PUSH4 0x4E487B71 PUSH1 0xE0 SHL PUSH1 0x0 MSTORE PUSH1 0x41 PUSH1 0x4 MSTORE PUSH1 0x24 PUSH1 0x0 REVERT JUMPDEST PUSH1 0x1 PUSH1 0x1 PUSH1 0xA0 SHL SUB DUP2 AND DUP2 EQ PUSH2 0x3CD4 JUMPI PUSH1 0x0 DUP1 REVERT JUMPDEST DUP1 ISZERO ISZERO DUP2 EQ PUSH2 0x3CD4 JUMPI PUSH1 0x0 DUP1 REVERT JUMPDEST PUSH1 0x1 PUSH1 0x1 PUSH1 0xE0 SHL SUB NOT DUP2 AND DUP2 EQ PUSH2 0x3CD4 JUMPI PUSH1 0x0 DUP1 REVERT INVALID LOG2 PUSH5 0x6970667358 0x22 SLT KECCAK256 0x4F PUSH13 0x18FA002E868DC2F174A939BE80 TIMESTAMP 0xBE 0xA5 PUSH20 0x14E990B29354F081F4F835413864736F6C634300 ADDMOD SUB STOP CALLER ","sha1":"a713e9750b22aa72caf37bb8437773dd0bfc2e91","source":"// SPDX-License-Identifier: MIT\npragma solidity ^0.8.0;\n\nimport \"@openzeppelin/contracts/token/ERC721/extensions/ERC721URIStorage.sol\";\nimport \"./BattleBase.sol\";\n\ninterface RANK {\n    function updateBranchPrefix(address, string calldata) external;\n}\n\n/**\n * @title Battlefield of fighting for next generation\n * @notice Define voting system on battlefield\n * @author Justa Liang\n */\ncontract Battlefield is BattleBase, ERC721URIStorage {\n\n    /// @notice Corresponding FloraRank contract\n    RANK public floraRank;\n\n    /// @notice Corresponding FaunaRank contract\n    RANK public faunaRank;\n\n    /// @dev Proposal contents\n    struct Proposal {\n        address proposer;\n        string prefixURI;\n        uint voteCount;\n    }\n\n    /// @notice All the proposals\n    Proposal[] public proposals;\n\n    /// @notice Latest generation in which field has voted\n    mapping (uint => uint) public fieldGeneration;\n\n    /// @notice Latest time updated for proposal or vote\n    uint public updateTime;\n\n    /// @notice Time interval of proposal state\n    uint public propInterval;\n\n    /// @notice Time interval of vote state\n    uint public voteInterval;\n\n    /// @notice One generation means going through proposal and vote\n    uint public generation;\n\n    /// @notice Name of assembly metadata of the medal designs \n    string public assemblyJson;\n\n    /// @notice Slotting fee for making a proposal\n    uint public slottingFee;\n\n    /// @notice Emit when someone propose\n    event Propose(\n        address indexed proposer,\n        uint proposalID,\n        string prefixURI\n    );\n\n    /// @notice Emit when someone vote behalf of field\n    event Vote(\n        uint indexed fieldID,\n        address indexed voter,\n        uint indexed proposalID,\n        uint voteCount\n    );\n\n    /// @notice Emit the winning proposal's info\n    event Winner(\n        uint indexed generation,\n        address indexed winner,\n        string tokenURI,\n        uint proposalCount,\n        uint voteCount,\n        uint totalArea,\n        bool floraWin,\n        bool faunaWin\n    );\n\n    /**\n     * @dev Set addresses of interactive contracts\n     * @param floraArmyAddr Address of FloraArmy contract\n     * @param faunaArmyAddr Address of FaunaArmy contract\n    */\n    constructor(address floraArmyAddr, address faunaArmyAddr)\n        BattleBase(floraArmyAddr, faunaArmyAddr)\n        ERC721(\"Flora&Fauna Battlefield\", \"F&F-BTF\")\n    {\n        generation = 1;\n        floraRank = RANK(floraArmy.rankContract());\n        faunaRank = RANK(faunaArmy.rankContract());\n        propInterval = 30 days;\n        voteInterval = 5 days;\n        assemblyJson = \"series.json\";\n        slottingFee = 1e12 wei;\n    }\n\n    /**\n     * @notice Get details of all proposals\n     * @return Details of all proposals\n    */\n    function getAllProposalInfo() external view\n                returns (Proposal[] memory) {\n        return proposals;\n    }\n\n    /**\n     * @notice Propose for new style of medals\n     * @param prefixURI Prefix of the URI\n    */\n    function propose(string calldata prefixURI) payable external propState {\n        require(\n            msg.value >= slottingFee,\n            \"Battlefield: not enough slotting fee\");\n        proposals.push(Proposal(msg.sender, prefixURI, 0));\n\n        emit Propose(msg.sender, proposals.length-1, prefixURI);\n    }\n\n    /**\n     * @notice Start the vote state\n    */\n    function startVote() external propState {\n        require(\n            proposals.length > 1,\n            \"Battlefield: not enough proposals\");\n        uint currentTime = block.timestamp;\n        require(\n            currentTime >= updateTime + propInterval,\n            \"Battlefield: not yet to start vote\");\n        updateTime = currentTime;\n        fieldLocked = true;\n    }\n\n    /**\n     * @notice Vote behalf of certain field\n     * @param fieldID ID of the field\n     * @param proposalID ID of the proposal\n    */\n    function vote(uint fieldID, uint proposalID) external voteState {\n        require(\n            fieldGeneration[fieldID] < generation,\n            \"Battlefield: field has voted in this generation\");\n        uint[] memory defender = fieldDefender[fieldID];\n        require(\n            defender.length > 0,\n            \"Battlefield: empty field can't vote\");\n        if (isFloraField[fieldID]) {\n            require(\n                floraArmy.ownerOf(defender[0]) == msg.sender,\n                \"Battlefield: not leader\");\n            require(\n                floraFieldCount >= faunaFieldCount,\n                \"Battlefield: you're loser side\");\n        }\n        else {\n            require(\n                faunaArmy.ownerOf(defender[0]) == msg.sender,\n                \"Battlefield: not leader\");\n            require(\n                faunaFieldCount >= floraFieldCount,\n                \"Battlefield: you're loser side\");\n\n        }\n        Proposal storage target = proposals[proposalID];\n        target.voteCount++;\n        fieldGeneration[fieldID] = generation;\n\n        emit Vote(fieldID, msg.sender, proposalID, target.voteCount);\n    }\n\n    /**\n     * @notice End the vote state, change medal styles and mint an assembly metadata to winner\n    */\n    function endVote() external voteState {\n        uint currentTime = block.timestamp;\n        require(\n            currentTime >= updateTime + voteInterval,\n            \"Battlefield: not yet to end vote\");\n        updateTime = currentTime;\n        \n        uint maxVote = 0;\n        uint maxIdx = 0;\n        for (uint i = 0; i < proposals.length; i++) {\n            if (proposals[i].voteCount > maxVote) {\n                maxVote = proposals[i].voteCount;\n                maxIdx = i;\n            }\n        }\n        \n        Proposal memory winning = proposals[maxIdx];\n\n        bool floraWin = false;\n        bool faunaWin = false;\n        if (floraFieldCount >= faunaFieldCount) {\n            floraRank.updateBranchPrefix(address(0), winning.prefixURI);\n            floraWin = true;\n        }\n        if (faunaFieldCount >= floraFieldCount) {\n            faunaRank.updateBranchPrefix(address(0), winning.prefixURI);\n            faunaWin = true;\n        }\n\n        _mint(winning.proposer, generation);\n        _setTokenURI(generation, string(abi.encodePacked(winning.prefixURI, assemblyJson)));\n\n        delete proposals;\n        fieldLocked = false;\n\n        emit Winner(generation,\n                    winning.proposer,\n                    tokenURI(generation),\n                    proposals.length,\n                    winning.voteCount,\n                    totalArea,\n                    floraWin,\n                    faunaWin);\n        generation++;\n    }\n\n    /// @dev Check if under vote state\n    modifier voteState() {\n        require(fieldLocked, \"Battlefield: not in proposal state\");\n        _;\n    }\n\n    /// @dev Check if under proposal state\n    modifier propState() {\n        require(!fieldLocked, \"Battlefield: not in vote state\");\n        _;\n    }\n\n    /**\n     * @dev Claim the funds from slotting fee\n     * @param amount Amount of Ether\n     * @param receiver Address of receiver\n    */    \n    function claimFunds(uint amount, address payable receiver) external onlyOwner {\n        receiver.transfer(amount);\n    } \n\n    function changePropInterval(uint propInterval_) external onlyOwner {\n        propInterval = propInterval_;\n    }\n\n    function changeVoteInterval(uint voteInterval_) external onlyOwner {\n        voteInterval = voteInterval_;\n    }\n\n    function changeSlottingFee(uint slottingFee_) external onlyOwner {\n        slottingFee = slottingFee_;\n    }\n\n    function changeAssemblyJson(string calldata assemblyJson_) external onlyOwner {\n        assemblyJson = assemblyJson_;\n    }\n}","sourcePath":"contracts/Battlefield.sol","deployment":{"address":"0x47f643023ca6666fc74adaa6b54cd3E1F9E0c9Ce","chainid":"4","blockHeight":9203737}}