{"bytecode":"60806040523480156200001157600080fd5b5060405162000f8f38038062000f8f8339810160408190526200003491620002d0565b600080546001600160a01b031916339081178255604051909182917f8be0079c531659141344cd1fd0a4f28419497f9722a3daafe3b4186f6b6457e0908290a35060005b60058110156200014057828160058110620000a357634e487b7160e01b600052603260045260246000fd5b602002015160028260058110620000ca57634e487b7160e01b600052603260045260246000fd5b0155818160058110620000ed57634e487b7160e01b600052603260045260246000fd5b6020020151600782600581106200011457634e487b7160e01b600052603260045260246000fd5b0190805190602001906200012a92919062000149565b5080620001378162000401565b91505062000078565b5050506200043f565b8280546200015790620003c4565b90600052602060002090601f0160209004810192826200017b5760008555620001c6565b82601f106200019657805160ff1916838001178555620001c6565b82800160010185558215620001c6579182015b82811115620001c6578251825591602001919060010190620001a9565b50620001d4929150620001d8565b5090565b5b80821115620001d45760008155600101620001d9565b6000601f838184011262000201578182fd5b6005620002186200021282620003a1565b6200036e565b8085855b84811015620002c35781518801898782011262000237578788fd5b80516001600160401b0381111562000253576200025362000429565b602062000268828a01601f191682016200036e565b8281528c828486010111156200027c578a8bfd5b8a5b838110156200029b5784810183015182820184015282016200027e565b83811115620002ac578b8385840101525b50875295860195939093019250506001016200021c565b5090979650505050505050565b60008060c08385031215620002e3578182fd5b83601f840112620002f2578182fd5b6005620003036200021282620003a1565b808560a087018881111562000316578687fd5b865b858110156200033857825185526020948501949092019160010162000318565b505191955090925050506001600160401b0381111562000356578182fd5b6200036485828601620001ef565b9150509250929050565b604051601f8201601f191681016001600160401b038111828210171562000399576200039962000429565b604052919050565b60006001600160401b03821115620003bd57620003bd62000429565b5060051b90565b600181811c90821680620003d957607f821691505b60208210811415620003fb57634e487b7160e01b600052602260045260246000fd5b50919050565b60006000198214156200042257634e487b7160e01b81526011600452602481fd5b5060010190565b634e487b7160e01b600052604160045260246000fd5b610b40806200044f6000396000f3fe608060405234801561001057600080fd5b506004361061009e5760003560e01c80638ebc87c3116100665780638ebc87c314610114578063a323d45614610134578063bc20951614610147578063f2fde38b1461015a578063fd62df071461016d5761009e565b80634a6d0f20146100a35780636a1805e2146100b8578063715018a6146100cb57806376034ca9146100d35780638da5cb5b146100f9575b600080fd5b6100b66100b136600461089c565b610180565b005b6100b66100c6366004610803565b610233565b6100b6610286565b6100e66100e13660046108d7565b6102fa565b6040519081526020015b60405180910390f35b6000546040516001600160a01b0390911681526020016100f0565b6101276101223660046108d7565b610311565b6040516100f0919061099c565b6101276101423660046107b9565b6103b1565b6101276101553660046107da565b6103ca565b6100b66101683660046107b9565b610579565b6100b661017b366004610881565b610663565b6000546001600160a01b031633146101b35760405162461bcd60e51b81526004016101aa906109ef565b60405180910390fd5b60005b600581101561022f578181600581106101df57634e487b7160e01b600052603260045260246000fd5b6020028101906101ef9190610a24565b6007836005811061021057634e487b7160e01b600052603260045260246000fd5b61021c939101916106f3565b508061022781610ad9565b9150506101b6565b5050565b6000546001600160a01b0316331461025d5760405162461bcd60e51b81526004016101aa906109ef565b6001600160a01b03831660009081526001602052604090206102809083836106f3565b50505050565b6000546001600160a01b031633146102b05760405162461bcd60e51b81526004016101aa906109ef565b600080546040516001600160a01b03909116907f8be0079c531659141344cd1fd0a4f28419497f9722a3daafe3b4186f6b6457e0908390a3600080546001600160a01b0319169055565b6002816005811061030a57600080fd5b0154905081565b6007816005811061032157600080fd5b01805490915061033090610a9e565b80601f016020809104026020016040519081016040528092919081815260200182805461035c90610a9e565b80156103a95780601f1061037e576101008083540402835291602001916103a9565b820191906000526020600020905b81548152906001019060200180831161038c57829003601f168201915b505050505081565b6001602052600090815260409020805461033090610a9e565b606060006103da60016005610a70565b90505b600281600581106103fe57634e487b7160e01b600052603260045260246000fd5b01548312610561576001600160a01b0384166000908152600160205260408120805461042990610a9e565b80601f016020809104026020016040519081016040528092919081815260200182805461045590610a9e565b80156104a25780601f10610477576101008083540402835291602001916104a2565b820191906000526020600020905b81548152906001019060200180831161048557829003601f168201915b50505050509050805160001415610528576000805260016020527fa6eef7e35abe7026729641147f7915573c7e97b47efa546f5f6e3230263bcb49600783600581106104fe57634e487b7160e01b600052603260045260246000fd5b01604051602001610510929190610987565b60405160208183030381529060405292505050610573565b6001600160a01b0385166000908152600160205260409020600783600581106104fe57634e487b7160e01b600052603260045260246000fd5b8061056b81610a87565b9150506103dd565b92915050565b6000546001600160a01b031633146105a35760405162461bcd60e51b81526004016101aa906109ef565b6001600160a01b0381166106085760405162461bcd60e51b815260206004820152602660248201527f4f776e61626c653a206e6577206f776e657220697320746865207a65726f206160448201526564647265737360d01b60648201526084016101aa565b600080546040516001600160a01b03808516939216917f8be0079c531659141344cd1fd0a4f28419497f9722a3daafe3b4186f6b6457e091a3600080546001600160a01b0319166001600160a01b0392909216919091179055565b6000546001600160a01b0316331461068d5760405162461bcd60e51b81526004016101aa906109ef565b60005b600581101561022f578181600581106106b957634e487b7160e01b600052603260045260246000fd5b6020020135600282600581106106df57634e487b7160e01b600052603260045260246000fd5b0155806106eb81610ad9565b915050610690565b8280546106ff90610a9e565b90600052602060002090601f0160209004810192826107215760008555610767565b82601f1061073a5782800160ff19823516178555610767565b82800160010185558215610767579182015b8281111561076757823582559160200191906001019061074c565b50610773929150610777565b5090565b5b808211156107735760008155600101610778565b80356001600160a01b03811681146107a357600080fd5b919050565b8060a0810183101561057357600080fd5b6000602082840312156107ca578081fd5b6107d38261078c565b9392505050565b600080604083850312156107ec578081fd5b6107f58361078c565b946020939093013593505050565b600080600060408486031215610817578081fd5b6108208461078c565b9250602084013567ffffffffffffffff8082111561083c578283fd5b818601915086601f83011261084f578283fd5b81358181111561085d578384fd5b87602082850101111561086e578384fd5b6020830194508093505050509250925092565b600060a08284031215610892578081fd5b6107d383836107a8565b6000602082840312156108ad578081fd5b813567ffffffffffffffff8111156108c3578182fd5b6108cf848285016107a8565b949350505050565b6000602082840312156108e8578081fd5b5035919050565b8054600090600181811c908083168061090957607f831692505b602080841082141561092957634e487b7160e01b86526022600452602486fd5b81801561093d576001811461094e5761097b565b60ff1986168952848901965061097b565b60008881526020902060005b868110156109735781548b82015290850190830161095a565b505084890196505b50505050505092915050565b60006108cf61099683866108ef565b846108ef565b6000602080835283518082850152825b818110156109c8578581018301518582016040015282016109ac565b818111156109d95783604083870101525b50601f01601f1916929092016040019392505050565b6020808252818101527f4f776e61626c653a2063616c6c6572206973206e6f7420746865206f776e6572604082015260600190565b6000808335601e19843603018112610a3a578283fd5b83018035915067ffffffffffffffff821115610a54578283fd5b602001915036819003821315610a6957600080fd5b9250929050565b600082821015610a8257610a82610af4565b500390565b600081610a9657610a96610af4565b506000190190565b600181811c90821680610ab257607f821691505b60208210811415610ad357634e487b7160e01b600052602260045260246000fd5b50919050565b6000600019821415610aed57610aed610af4565b5060010190565b634e487b7160e01b600052601160045260246000fdfea2646970667358221220dc77a8312c892059baadda4614da3b31b207558117e02e34caed9d8cb4a6d88f64736f6c63430008030033","bytecodeSha1":"8c05019daa26d600f4f76072e43bb1cf4bbd97e2","type":"contract","abi":[{"inputs":[{"internalType":"int256[5]","name":"powerLevels_","type":"int256[5]"},{"internalType":"string[5]","name":"jsonNames_","type":"string[5]"}],"stateMutability":"nonpayable","type":"constructor","name":"constructor"},{"anonymous":false,"inputs":[{"indexed":true,"internalType":"address","name":"previousOwner","type":"address"},{"indexed":true,"internalType":"address","name":"newOwner","type":"address"}],"name":"OwnershipTransferred","type":"event"},{"inputs":[{"internalType":"address","name":"","type":"address"}],"name":"branchPrefix","outputs":[{"internalType":"string","name":"","type":"string"}],"stateMutability":"view","type":"function"},{"inputs":[{"internalType":"string[5]","name":"jsonNames_","type":"string[5]"}],"name":"changeJsonNames","outputs":[],"stateMutability":"nonpayable","type":"function"},{"inputs":[{"internalType":"int256[5]","name":"powerLevels_","type":"int256[5]"}],"name":"changePowerLeves","outputs":[],"stateMutability":"nonpayable","type":"function"},{"inputs":[{"internalType":"uint256","name":"","type":"uint256"}],"name":"jsonNames","outputs":[{"internalType":"string","name":"","type":"string"}],"stateMutability":"view","type":"function"},{"inputs":[],"name":"owner","outputs":[{"internalType":"address","name":"","type":"address"}],"stateMutability":"view","type":"function"},{"inputs":[{"internalType":"uint256","name":"","type":"uint256"}],"name":"powerLevels","outputs":[{"internalType":"int256","name":"","type":"int256"}],"stateMutability":"view","type":"function"},{"inputs":[{"internalType":"address","name":"branchAddr","type":"address"},{"internalType":"int256","name":"power","type":"int256"}],"name":"query","outputs":[{"internalType":"string","name":"","type":"string"}],"stateMutability":"view","type":"function"},{"inputs":[],"name":"renounceOwnership","outputs":[],"stateMutability":"nonpayable","type":"function"},{"inputs":[{"internalType":"address","name":"newOwner","type":"address"}],"name":"transferOwnership","outputs":[],"stateMutability":"nonpayable","type":"function"},{"inputs":[{"internalType":"address","name":"branchAddr","type":"address"},{"internalType":"string","name":"prefix","type":"string"}],"name":"updateBranchPrefix","outputs":[],"stateMutability":"nonpayable","type":"function"}],"compiler":{"version":"0.8.3+commit.8d00100c","evm_version":"istanbul","optimizer":{"enabled":true,"runs":200}},"contractName":"ArmyRank","language":"Solidity","natspec":{"methods":{"owner()":{"details":"Returns the address of the current owner."},"renounceOwnership()":{"details":"Leaves the contract without owner. It will not be possible to call `onlyOwner` functions anymore. Can only be called by the current owner. NOTE: Renouncing ownership will leave the contract without an owner, thereby removing any functionality that is only available to the owner."},"transferOwnership(address)":{"details":"Transfers ownership of the contract to a new account (`newOwner`). Can only be called by the current owner."}},"kind":"dev","version":1},"opcodes":"PUSH1 0x80 PUSH1 0x40 MSTORE CALLVALUE DUP1 ISZERO PUSH2 0x10 JUMPI PUSH1 0x0 DUP1 REVERT JUMPDEST POP PUSH1 0x4 CALLDATASIZE LT PUSH2 0x9E JUMPI PUSH1 0x0 CALLDATALOAD PUSH1 0xE0 SHR DUP1 PUSH4 0x8EBC87C3 GT PUSH2 0x66 JUMPI DUP1 PUSH4 0x8EBC87C3 EQ PUSH2 0x114 JUMPI DUP1 PUSH4 0xA323D456 EQ PUSH2 0x134 JUMPI DUP1 PUSH4 0xBC209516 EQ PUSH2 0x147 JUMPI DUP1 PUSH4 0xF2FDE38B EQ PUSH2 0x15A JUMPI DUP1 PUSH4 0xFD62DF07 EQ PUSH2 0x16D JUMPI PUSH2 0x9E JUMP JUMPDEST DUP1 PUSH4 0x4A6D0F20 EQ PUSH2 0xA3 JUMPI DUP1 PUSH4 0x6A1805E2 EQ PUSH2 0xB8 JUMPI DUP1 PUSH4 0x715018A6 EQ PUSH2 0xCB JUMPI DUP1 PUSH4 0x76034CA9 EQ PUSH2 0xD3 JUMPI DUP1 PUSH4 0x8DA5CB5B EQ PUSH2 0xF9 JUMPI JUMPDEST PUSH1 0x0 DUP1 REVERT JUMPDEST PUSH2 0xB6 PUSH2 0xB1 CALLDATASIZE PUSH1 0x4 PUSH2 0x89C JUMP JUMPDEST PUSH2 0x180 JUMP JUMPDEST STOP JUMPDEST PUSH2 0xB6 PUSH2 0xC6 CALLDATASIZE PUSH1 0x4 PUSH2 0x803 JUMP JUMPDEST PUSH2 0x233 JUMP JUMPDEST PUSH2 0xB6 PUSH2 0x286 JUMP JUMPDEST PUSH2 0xE6 PUSH2 0xE1 CALLDATASIZE PUSH1 0x4 PUSH2 0x8D7 JUMP JUMPDEST PUSH2 0x2FA JUMP JUMPDEST PUSH1 0x40 MLOAD SWAP1 DUP2 MSTORE PUSH1 0x20 ADD JUMPDEST PUSH1 0x40 MLOAD DUP1 SWAP2 SUB SWAP1 RETURN JUMPDEST PUSH1 0x0 SLOAD PUSH1 0x40 MLOAD PUSH1 0x1 PUSH1 0x1 PUSH1 0xA0 SHL SUB SWAP1 SWAP2 AND DUP2 MSTORE PUSH1 0x20 ADD PUSH2 0xF0 JUMP JUMPDEST PUSH2 0x127 PUSH2 0x122 CALLDATASIZE PUSH1 0x4 PUSH2 0x8D7 JUMP JUMPDEST PUSH2 0x311 JUMP JUMPDEST PUSH1 0x40 MLOAD PUSH2 0xF0 SWAP2 SWAP1 PUSH2 0x99C JUMP JUMPDEST PUSH2 0x127 PUSH2 0x142 CALLDATASIZE PUSH1 0x4 PUSH2 0x7B9 JUMP JUMPDEST PUSH2 0x3B1 JUMP JUMPDEST PUSH2 0x127 PUSH2 0x155 CALLDATASIZE PUSH1 0x4 PUSH2 0x7DA JUMP JUMPDEST PUSH2 0x3CA JUMP JUMPDEST PUSH2 0xB6 PUSH2 0x168 CALLDATASIZE PUSH1 0x4 PUSH2 0x7B9 JUMP JUMPDEST PUSH2 0x579 JUMP JUMPDEST PUSH2 0xB6 PUSH2 0x17B CALLDATASIZE PUSH1 0x4 PUSH2 0x881 JUMP JUMPDEST PUSH2 0x663 JUMP JUMPDEST PUSH1 0x0 SLOAD PUSH1 0x1 PUSH1 0x1 PUSH1 0xA0 SHL SUB AND CALLER EQ PUSH2 0x1B3 JUMPI PUSH1 0x40 MLOAD PUSH3 0x461BCD PUSH1 0xE5 SHL DUP2 MSTORE PUSH1 0x4 ADD PUSH2 0x1AA SWAP1 PUSH2 0x9EF JUMP JUMPDEST PUSH1 0x40 MLOAD DUP1 SWAP2 SUB SWAP1 REVERT JUMPDEST PUSH1 0x0 JUMPDEST PUSH1 0x5 DUP2 LT ISZERO PUSH2 0x22F JUMPI DUP2 DUP2 PUSH1 0x5 DUP2 LT PUSH2 0x1DF JUMPI PUSH4 0x4E487B71 PUSH1 0xE0 SHL PUSH1 0x0 MSTORE PUSH1 0x32 PUSH1 0x4 MSTORE PUSH1 0x24 PUSH1 0x0 REVERT JUMPDEST PUSH1 0x20 MUL DUP2 ADD SWAP1 PUSH2 0x1EF SWAP2 SWAP1 PUSH2 0xA24 JUMP JUMPDEST PUSH1 0x7 DUP4 PUSH1 0x5 DUP2 LT PUSH2 0x210 JUMPI PUSH4 0x4E487B71 PUSH1 0xE0 SHL PUSH1 0x0 MSTORE PUSH1 0x32 PUSH1 0x4 MSTORE PUSH1 0x24 PUSH1 0x0 REVERT JUMPDEST PUSH2 0x21C SWAP4 SWAP2 ADD SWAP2 PUSH2 0x6F3 JUMP JUMPDEST POP DUP1 PUSH2 0x227 DUP2 PUSH2 0xAD9 JUMP JUMPDEST SWAP2 POP POP PUSH2 0x1B6 JUMP JUMPDEST POP POP JUMP JUMPDEST PUSH1 0x0 SLOAD PUSH1 0x1 PUSH1 0x1 PUSH1 0xA0 SHL SUB AND CALLER EQ PUSH2 0x25D JUMPI PUSH1 0x40 MLOAD PUSH3 0x461BCD PUSH1 0xE5 SHL DUP2 MSTORE PUSH1 0x4 ADD PUSH2 0x1AA SWAP1 PUSH2 0x9EF JUMP JUMPDEST PUSH1 0x1 PUSH1 0x1 PUSH1 0xA0 SHL SUB DUP4 AND PUSH1 0x0 SWAP1 DUP2 MSTORE PUSH1 0x1 PUSH1 0x20 MSTORE PUSH1 0x40 SWAP1 KECCAK256 PUSH2 0x280 SWAP1 DUP4 DUP4 PUSH2 0x6F3 JUMP JUMPDEST POP POP POP POP JUMP JUMPDEST PUSH1 0x0 SLOAD PUSH1 0x1 PUSH1 0x1 PUSH1 0xA0 SHL SUB AND CALLER EQ PUSH2 0x2B0 JUMPI PUSH1 0x40 MLOAD PUSH3 0x461BCD PUSH1 0xE5 SHL DUP2 MSTORE PUSH1 0x4 ADD PUSH2 0x1AA SWAP1 PUSH2 0x9EF JUMP JUMPDEST PUSH1 0x0 DUP1 SLOAD PUSH1 0x40 MLOAD PUSH1 0x1 PUSH1 0x1 PUSH1 0xA0 SHL SUB SWAP1 SWAP2 AND SWAP1 PUSH32 0x8BE0079C531659141344CD1FD0A4F28419497F9722A3DAAFE3B4186F6B6457E0 SWAP1 DUP4 SWAP1 LOG3 PUSH1 0x0 DUP1 SLOAD PUSH1 0x1 PUSH1 0x1 PUSH1 0xA0 SHL SUB NOT AND SWAP1 SSTORE JUMP JUMPDEST PUSH1 0x2 DUP2 PUSH1 0x5 DUP2 LT PUSH2 0x30A JUMPI PUSH1 0x0 DUP1 REVERT JUMPDEST ADD SLOAD SWAP1 POP DUP2 JUMP JUMPDEST PUSH1 0x7 DUP2 PUSH1 0x5 DUP2 LT PUSH2 0x321 JUMPI PUSH1 0x0 DUP1 REVERT JUMPDEST ADD DUP1 SLOAD SWAP1 SWAP2 POP PUSH2 0x330 SWAP1 PUSH2 0xA9E JUMP JUMPDEST DUP1 PUSH1 0x1F ADD PUSH1 0x20 DUP1 SWAP2 DIV MUL PUSH1 0x20 ADD PUSH1 0x40 MLOAD SWAP1 DUP2 ADD PUSH1 0x40 MSTORE DUP1 SWAP3 SWAP2 SWAP1 DUP2 DUP2 MSTORE PUSH1 0x20 ADD DUP3 DUP1 SLOAD PUSH2 0x35C SWAP1 PUSH2 0xA9E JUMP JUMPDEST DUP1 ISZERO PUSH2 0x3A9 JUMPI DUP1 PUSH1 0x1F LT PUSH2 0x37E JUMPI PUSH2 0x100 DUP1 DUP4 SLOAD DIV MUL DUP4 MSTORE SWAP2 PUSH1 0x20 ADD SWAP2 PUSH2 0x3A9 JUMP JUMPDEST DUP3 ADD SWAP2 SWAP1 PUSH1 0x0 MSTORE PUSH1 0x20 PUSH1 0x0 KECCAK256 SWAP1 JUMPDEST DUP2 SLOAD DUP2 MSTORE SWAP1 PUSH1 0x1 ADD SWAP1 PUSH1 0x20 ADD DUP1 DUP4 GT PUSH2 0x38C JUMPI DUP3 SWAP1 SUB PUSH1 0x1F AND DUP3 ADD SWAP2 JUMPDEST POP POP POP POP POP DUP2 JUMP JUMPDEST PUSH1 0x1 PUSH1 0x20 MSTORE PUSH1 0x0 SWAP1 DUP2 MSTORE PUSH1 0x40 SWAP1 KECCAK256 DUP1 SLOAD PUSH2 0x330 SWAP1 PUSH2 0xA9E JUMP JUMPDEST PUSH1 0x60 PUSH1 0x0 PUSH2 0x3DA PUSH1 0x1 PUSH1 0x5 PUSH2 0xA70 JUMP JUMPDEST SWAP1 POP JUMPDEST PUSH1 0x2 DUP2 PUSH1 0x5 DUP2 LT PUSH2 0x3FE JUMPI PUSH4 0x4E487B71 PUSH1 0xE0 SHL PUSH1 0x0 MSTORE PUSH1 0x32 PUSH1 0x4 MSTORE PUSH1 0x24 PUSH1 0x0 REVERT JUMPDEST ADD SLOAD DUP4 SLT PUSH2 0x561 JUMPI PUSH1 0x1 PUSH1 0x1 PUSH1 0xA0 SHL SUB DUP5 AND PUSH1 0x0 SWAP1 DUP2 MSTORE PUSH1 0x1 PUSH1 0x20 MSTORE PUSH1 0x40 DUP2 KECCAK256 DUP1 SLOAD PUSH2 0x429 SWAP1 PUSH2 0xA9E JUMP JUMPDEST DUP1 PUSH1 0x1F ADD PUSH1 0x20 DUP1 SWAP2 DIV MUL PUSH1 0x20 ADD PUSH1 0x40 MLOAD SWAP1 DUP2 ADD PUSH1 0x40 MSTORE DUP1 SWAP3 SWAP2 SWAP1 DUP2 DUP2 MSTORE PUSH1 0x20 ADD DUP3 DUP1 SLOAD PUSH2 0x455 SWAP1 PUSH2 0xA9E JUMP JUMPDEST DUP1 ISZERO PUSH2 0x4A2 JUMPI DUP1 PUSH1 0x1F LT PUSH2 0x477 JUMPI PUSH2 0x100 DUP1 DUP4 SLOAD DIV MUL DUP4 MSTORE SWAP2 PUSH1 0x20 ADD SWAP2 PUSH2 0x4A2 JUMP JUMPDEST DUP3 ADD SWAP2 SWAP1 PUSH1 0x0 MSTORE PUSH1 0x20 PUSH1 0x0 KECCAK256 SWAP1 JUMPDEST DUP2 SLOAD DUP2 MSTORE SWAP1 PUSH1 0x1 ADD SWAP1 PUSH1 0x20 ADD DUP1 DUP4 GT PUSH2 0x485 JUMPI DUP3 SWAP1 SUB PUSH1 0x1F AND DUP3 ADD SWAP2 JUMPDEST POP POP POP POP POP SWAP1 POP DUP1 MLOAD PUSH1 0x0 EQ ISZERO PUSH2 0x528 JUMPI PUSH1 0x0 DUP1 MSTORE PUSH1 0x1 PUSH1 0x20 MSTORE PUSH32 0xA6EEF7E35ABE7026729641147F7915573C7E97B47EFA546F5F6E3230263BCB49 PUSH1 0x7 DUP4 PUSH1 0x5 DUP2 LT PUSH2 0x4FE JUMPI PUSH4 0x4E487B71 PUSH1 0xE0 SHL PUSH1 0x0 MSTORE PUSH1 0x32 PUSH1 0x4 MSTORE PUSH1 0x24 PUSH1 0x0 REVERT JUMPDEST ADD PUSH1 0x40 MLOAD PUSH1 0x20 ADD PUSH2 0x510 SWAP3 SWAP2 SWAP1 PUSH2 0x987 JUMP JUMPDEST PUSH1 0x40 MLOAD PUSH1 0x20 DUP2 DUP4 SUB SUB DUP2 MSTORE SWAP1 PUSH1 0x40 MSTORE SWAP3 POP POP POP PUSH2 0x573 JUMP JUMPDEST PUSH1 0x1 PUSH1 0x1 PUSH1 0xA0 SHL SUB DUP6 AND PUSH1 0x0 SWAP1 DUP2 MSTORE PUSH1 0x1 PUSH1 0x20 MSTORE PUSH1 0x40 SWAP1 KECCAK256 PUSH1 0x7 DUP4 PUSH1 0x5 DUP2 LT PUSH2 0x4FE JUMPI PUSH4 0x4E487B71 PUSH1 0xE0 SHL PUSH1 0x0 MSTORE PUSH1 0x32 PUSH1 0x4 MSTORE PUSH1 0x24 PUSH1 0x0 REVERT JUMPDEST DUP1 PUSH2 0x56B DUP2 PUSH2 0xA87 JUMP JUMPDEST SWAP2 POP POP PUSH2 0x3DD JUMP JUMPDEST SWAP3 SWAP2 POP POP JUMP JUMPDEST PUSH1 0x0 SLOAD PUSH1 0x1 PUSH1 0x1 PUSH1 0xA0 SHL SUB AND CALLER EQ PUSH2 0x5A3 JUMPI PUSH1 0x40 MLOAD PUSH3 0x461BCD PUSH1 0xE5 SHL DUP2 MSTORE PUSH1 0x4 ADD PUSH2 0x1AA SWAP1 PUSH2 0x9EF JUMP JUMPDEST PUSH1 0x1 PUSH1 0x1 PUSH1 0xA0 SHL SUB DUP2 AND PUSH2 0x608 JUMPI PUSH1 0x40 MLOAD PUSH3 0x461BCD PUSH1 0xE5 SHL DUP2 MSTORE PUSH1 0x20 PUSH1 0x4 DUP3 ADD MSTORE PUSH1 0x26 PUSH1 0x24 DUP3 ADD MSTORE PUSH32 0x4F776E61626C653A206E6577206F776E657220697320746865207A65726F2061 PUSH1 0x44 DUP3 ADD MSTORE PUSH6 0x646472657373 PUSH1 0xD0 SHL PUSH1 0x64 DUP3 ADD MSTORE PUSH1 0x84 ADD PUSH2 0x1AA JUMP JUMPDEST PUSH1 0x0 DUP1 SLOAD PUSH1 0x40 MLOAD PUSH1 0x1 PUSH1 0x1 PUSH1 0xA0 SHL SUB DUP1 DUP6 AND SWAP4 SWAP3 AND SWAP2 PUSH32 0x8BE0079C531659141344CD1FD0A4F28419497F9722A3DAAFE3B4186F6B6457E0 SWAP2 LOG3 PUSH1 0x0 DUP1 SLOAD PUSH1 0x1 PUSH1 0x1 PUSH1 0xA0 SHL SUB NOT AND PUSH1 0x1 PUSH1 0x1 PUSH1 0xA0 SHL SUB SWAP3 SWAP1 SWAP3 AND SWAP2 SWAP1 SWAP2 OR SWAP1 SSTORE JUMP JUMPDEST PUSH1 0x0 SLOAD PUSH1 0x1 PUSH1 0x1 PUSH1 0xA0 SHL SUB AND CALLER EQ PUSH2 0x68D JUMPI PUSH1 0x40 MLOAD PUSH3 0x461BCD PUSH1 0xE5 SHL DUP2 MSTORE PUSH1 0x4 ADD PUSH2 0x1AA SWAP1 PUSH2 0x9EF JUMP JUMPDEST PUSH1 0x0 JUMPDEST PUSH1 0x5 DUP2 LT ISZERO PUSH2 0x22F JUMPI DUP2 DUP2 PUSH1 0x5 DUP2 LT PUSH2 0x6B9 JUMPI PUSH4 0x4E487B71 PUSH1 0xE0 SHL PUSH1 0x0 MSTORE PUSH1 0x32 PUSH1 0x4 MSTORE PUSH1 0x24 PUSH1 0x0 REVERT JUMPDEST PUSH1 0x20 MUL ADD CALLDATALOAD PUSH1 0x2 DUP3 PUSH1 0x5 DUP2 LT PUSH2 0x6DF JUMPI PUSH4 0x4E487B71 PUSH1 0xE0 SHL PUSH1 0x0 MSTORE PUSH1 0x32 PUSH1 0x4 MSTORE PUSH1 0x24 PUSH1 0x0 REVERT JUMPDEST ADD SSTORE DUP1 PUSH2 0x6EB DUP2 PUSH2 0xAD9 JUMP JUMPDEST SWAP2 POP POP PUSH2 0x690 JUMP JUMPDEST DUP3 DUP1 SLOAD PUSH2 0x6FF SWAP1 PUSH2 0xA9E JUMP JUMPDEST SWAP1 PUSH1 0x0 MSTORE PUSH1 0x20 PUSH1 0x0 KECCAK256 SWAP1 PUSH1 0x1F ADD PUSH1 0x20 SWAP1 DIV DUP2 ADD SWAP3 DUP3 PUSH2 0x721 JUMPI PUSH1 0x0 DUP6 SSTORE PUSH2 0x767 JUMP JUMPDEST DUP3 PUSH1 0x1F LT PUSH2 0x73A JUMPI DUP3 DUP1 ADD PUSH1 0xFF NOT DUP3 CALLDATALOAD AND OR DUP6 SSTORE PUSH2 0x767 JUMP JUMPDEST DUP3 DUP1 ADD PUSH1 0x1 ADD DUP6 SSTORE DUP3 ISZERO PUSH2 0x767 JUMPI SWAP2 DUP3 ADD JUMPDEST DUP3 DUP2 GT ISZERO PUSH2 0x767 JUMPI DUP3 CALLDATALOAD DUP3 SSTORE SWAP2 PUSH1 0x20 ADD SWAP2 SWAP1 PUSH1 0x1 ADD SWAP1 PUSH2 0x74C JUMP JUMPDEST POP PUSH2 0x773 SWAP3 SWAP2 POP PUSH2 0x777 JUMP JUMPDEST POP SWAP1 JUMP JUMPDEST JUMPDEST DUP1 DUP3 GT ISZERO PUSH2 0x773 JUMPI PUSH1 0x0 DUP2 SSTORE PUSH1 0x1 ADD PUSH2 0x778 JUMP JUMPDEST DUP1 CALLDATALOAD PUSH1 0x1 PUSH1 0x1 PUSH1 0xA0 SHL SUB DUP2 AND DUP2 EQ PUSH2 0x7A3 JUMPI PUSH1 0x0 DUP1 REVERT JUMPDEST SWAP2 SWAP1 POP JUMP JUMPDEST DUP1 PUSH1 0xA0 DUP2 ADD DUP4 LT ISZERO PUSH2 0x573 JUMPI PUSH1 0x0 DUP1 REVERT JUMPDEST PUSH1 0x0 PUSH1 0x20 DUP3 DUP5 SUB SLT ISZERO PUSH2 0x7CA JUMPI DUP1 DUP2 REVERT JUMPDEST PUSH2 0x7D3 DUP3 PUSH2 0x78C JUMP JUMPDEST SWAP4 SWAP3 POP POP POP JUMP JUMPDEST PUSH1 0x0 DUP1 PUSH1 0x40 DUP4 DUP6 SUB SLT ISZERO PUSH2 0x7EC JUMPI DUP1 DUP2 REVERT JUMPDEST PUSH2 0x7F5 DUP4 PUSH2 0x78C JUMP JUMPDEST SWAP5 PUSH1 0x20 SWAP4 SWAP1 SWAP4 ADD CALLDATALOAD SWAP4 POP POP POP JUMP JUMPDEST PUSH1 0x0 DUP1 PUSH1 0x0 PUSH1 0x40 DUP5 DUP7 SUB SLT ISZERO PUSH2 0x817 JUMPI DUP1 DUP2 REVERT JUMPDEST PUSH2 0x820 DUP5 PUSH2 0x78C JUMP JUMPDEST SWAP3 POP PUSH1 0x20 DUP5 ADD CALLDATALOAD PUSH8 0xFFFFFFFFFFFFFFFF DUP1 DUP3 GT ISZERO PUSH2 0x83C JUMPI DUP3 DUP4 REVERT JUMPDEST DUP2 DUP7 ADD SWAP2 POP DUP7 PUSH1 0x1F DUP4 ADD SLT PUSH2 0x84F JUMPI DUP3 DUP4 REVERT JUMPDEST DUP2 CALLDATALOAD DUP2 DUP2 GT ISZERO PUSH2 0x85D JUMPI DUP4 DUP5 REVERT JUMPDEST DUP8 PUSH1 0x20 DUP3 DUP6 ADD ADD GT ISZERO PUSH2 0x86E JUMPI DUP4 DUP5 REVERT JUMPDEST PUSH1 0x20 DUP4 ADD SWAP5 POP DUP1 SWAP4 POP POP POP POP SWAP3 POP SWAP3 POP SWAP3 JUMP JUMPDEST PUSH1 0x0 PUSH1 0xA0 DUP3 DUP5 SUB SLT ISZERO PUSH2 0x892 JUMPI DUP1 DUP2 REVERT JUMPDEST PUSH2 0x7D3 DUP4 DUP4 PUSH2 0x7A8 JUMP JUMPDEST PUSH1 0x0 PUSH1 0x20 DUP3 DUP5 SUB SLT ISZERO PUSH2 0x8AD JUMPI DUP1 DUP2 REVERT JUMPDEST DUP2 CALLDATALOAD PUSH8 0xFFFFFFFFFFFFFFFF DUP2 GT ISZERO PUSH2 0x8C3 JUMPI DUP2 DUP3 REVERT JUMPDEST PUSH2 0x8CF DUP5 DUP3 DUP6 ADD PUSH2 0x7A8 JUMP JUMPDEST SWAP5 SWAP4 POP POP POP POP JUMP JUMPDEST PUSH1 0x0 PUSH1 0x20 DUP3 DUP5 SUB SLT ISZERO PUSH2 0x8E8 JUMPI DUP1 DUP2 REVERT JUMPDEST POP CALLDATALOAD SWAP2 SWAP1 POP JUMP JUMPDEST DUP1 SLOAD PUSH1 0x0 SWAP1 PUSH1 0x1 DUP2 DUP2 SHR SWAP1 DUP1 DUP4 AND DUP1 PUSH2 0x909 JUMPI PUSH1 0x7F DUP4 AND SWAP3 POP JUMPDEST PUSH1 0x20 DUP1 DUP5 LT DUP3 EQ ISZERO PUSH2 0x929 JUMPI PUSH4 0x4E487B71 PUSH1 0xE0 SHL DUP7 MSTORE PUSH1 0x22 PUSH1 0x4 MSTORE PUSH1 0x24 DUP7 REVERT JUMPDEST DUP2 DUP1 ISZERO PUSH2 0x93D JUMPI PUSH1 0x1 DUP2 EQ PUSH2 0x94E JUMPI PUSH2 0x97B JUMP JUMPDEST PUSH1 0xFF NOT DUP7 AND DUP10 MSTORE DUP5 DUP10 ADD SWAP7 POP PUSH2 0x97B JUMP JUMPDEST PUSH1 0x0 DUP9 DUP2 MSTORE PUSH1 0x20 SWAP1 KECCAK256 PUSH1 0x0 JUMPDEST DUP7 DUP2 LT ISZERO PUSH2 0x973 JUMPI DUP2 SLOAD DUP12 DUP3 ADD MSTORE SWAP1 DUP6 ADD SWAP1 DUP4 ADD PUSH2 0x95A JUMP JUMPDEST POP POP DUP5 DUP10 ADD SWAP7 POP JUMPDEST POP POP POP POP POP POP SWAP3 SWAP2 POP POP JUMP JUMPDEST PUSH1 0x0 PUSH2 0x8CF PUSH2 0x996 DUP4 DUP7 PUSH2 0x8EF JUMP JUMPDEST DUP5 PUSH2 0x8EF JUMP JUMPDEST PUSH1 0x0 PUSH1 0x20 DUP1 DUP4 MSTORE DUP4 MLOAD DUP1 DUP3 DUP6 ADD MSTORE DUP3 JUMPDEST DUP2 DUP2 LT ISZERO PUSH2 0x9C8 JUMPI DUP6 DUP2 ADD DUP4 ADD MLOAD DUP6 DUP3 ADD PUSH1 0x40 ADD MSTORE DUP3 ADD PUSH2 0x9AC JUMP JUMPDEST DUP2 DUP2 GT ISZERO PUSH2 0x9D9 JUMPI DUP4 PUSH1 0x40 DUP4 DUP8 ADD ADD MSTORE JUMPDEST POP PUSH1 0x1F ADD PUSH1 0x1F NOT AND SWAP3 SWAP1 SWAP3 ADD PUSH1 0x40 ADD SWAP4 SWAP3 POP POP POP JUMP JUMPDEST PUSH1 0x20 DUP1 DUP3 MSTORE DUP2 DUP2 ADD MSTORE PUSH32 0x4F776E61626C653A2063616C6C6572206973206E6F7420746865206F776E6572 PUSH1 0x40 DUP3 ADD MSTORE PUSH1 0x60 ADD SWAP1 JUMP JUMPDEST PUSH1 0x0 DUP1 DUP4 CALLDATALOAD PUSH1 0x1E NOT DUP5 CALLDATASIZE SUB ADD DUP2 SLT PUSH2 0xA3A JUMPI DUP3 DUP4 REVERT JUMPDEST DUP4 ADD DUP1 CALLDATALOAD SWAP2 POP PUSH8 0xFFFFFFFFFFFFFFFF DUP3 GT ISZERO PUSH2 0xA54 JUMPI DUP3 DUP4 REVERT JUMPDEST PUSH1 0x20 ADD SWAP2 POP CALLDATASIZE DUP2 SWAP1 SUB DUP3 SGT ISZERO PUSH2 0xA69 JUMPI PUSH1 0x0 DUP1 REVERT JUMPDEST SWAP3 POP SWAP3 SWAP1 POP JUMP JUMPDEST PUSH1 0x0 DUP3 DUP3 LT ISZERO PUSH2 0xA82 JUMPI PUSH2 0xA82 PUSH2 0xAF4 JUMP JUMPDEST POP SUB SWAP1 JUMP JUMPDEST PUSH1 0x0 DUP2 PUSH2 0xA96 JUMPI PUSH2 0xA96 PUSH2 0xAF4 JUMP JUMPDEST POP PUSH1 0x0 NOT ADD SWAP1 JUMP JUMPDEST PUSH1 0x1 DUP2 DUP2 SHR SWAP1 DUP3 AND DUP1 PUSH2 0xAB2 JUMPI PUSH1 0x7F DUP3 AND SWAP2 POP JUMPDEST PUSH1 0x20 DUP3 LT DUP2 EQ ISZERO PUSH2 0xAD3 JUMPI PUSH4 0x4E487B71 PUSH1 0xE0 SHL PUSH1 0x0 MSTORE PUSH1 0x22 PUSH1 0x4 MSTORE PUSH1 0x24 PUSH1 0x0 REVERT JUMPDEST POP SWAP2 SWAP1 POP JUMP JUMPDEST PUSH1 0x0 PUSH1 0x0 NOT DUP3 EQ ISZERO PUSH2 0xAED JUMPI PUSH2 0xAED PUSH2 0xAF4 JUMP JUMPDEST POP PUSH1 0x1 ADD SWAP1 JUMP JUMPDEST PUSH4 0x4E487B71 PUSH1 0xE0 SHL PUSH1 0x0 MSTORE PUSH1 0x11 PUSH1 0x4 MSTORE PUSH1 0x24 PUSH1 0x0 REVERT INVALID LOG2 PUSH5 0x6970667358 0x22 SLT KECCAK256 0xDC PUSH24 0xA8312C892059BAADDA4614DA3B31B207558117E02E34CAED SWAP14 DUP13 0xB4 0xA6 0xD8 DUP16 PUSH5 0x736F6C6343 STOP ADDMOD SUB STOP CALLER ","sha1":"fec9cf9ca623228aec63a08b7b998e2017f48395","source":"// SPDX-License-Identifier: MIT\npragma solidity ^0.8.0;\n\nimport \"@openzeppelin/contracts/access/Ownable.sol\";\n\ninterface RANK {\n    function transferOwnership(address) external;\n    function query(address, int) external view returns (string memory);\n    function updateBranchPrefix(address, string calldata) external;\n}\n\ncontract ArmyRank is Ownable {\n    mapping (address => string) public branchPrefix;\n    int[5] public powerLevels;\n    string[5] public jsonNames;\n\n    constructor(int[5] memory powerLevels_, string[5] memory jsonNames_) {\n        for (uint i = 0; i < 5; i++) {\n            powerLevels[i] = powerLevels_[i];\n            jsonNames[i] = jsonNames_[i];\n        }\n    }\n\n    function query(address branchAddr, int power) external view returns (string memory) {\n        for (uint i = powerLevels.length-1; i >= 0; i--) {\n            if (power >= powerLevels[i]) {\n                string memory prefix = branchPrefix[branchAddr];\n                if (bytes(prefix).length == 0) {\n                    return string(abi.encodePacked(branchPrefix[address(0)], jsonNames[i]));\n                }\n                else {\n                    return string(abi.encodePacked(branchPrefix[branchAddr], jsonNames[i]));\n                }\n            }\n        }\n    }\n\n    function updateBranchPrefix(address branchAddr, string calldata prefix) external onlyOwner {\n        branchPrefix[branchAddr] = prefix;\n    }\n\n    function changeJsonNames(string[5] calldata jsonNames_) external onlyOwner {\n        for (uint i = 0; i < 5; i++) {\n            jsonNames[i] = jsonNames_[i];\n        }\n    }\n\n    function changePowerLeves(int[5] calldata powerLevels_) external onlyOwner {\n        for (uint i = 0; i < 5; i++) {\n            powerLevels[i] = powerLevels_[i];\n        }\n    }\n}","sourcePath":"contracts/ArmyRank.sol","deployment":{"address":"0xaF8fdBAA535CdC9898718106eb1fA9546e54eC54","chainid":"4","blockHeight":9169897}}