{
  "abi": [
    {
      "inputs": [
        {
          "internalType": "int256[5]",
          "name": "powerLevels_",
          "type": "int256[5]"
        },
        {
          "internalType": "string[5]",
          "name": "jsonNames_",
          "type": "string[5]"
        }
      ],
      "stateMutability": "nonpayable",
      "type": "constructor"
    },
    {
      "anonymous": false,
      "inputs": [
        {
          "indexed": true,
          "internalType": "address",
          "name": "previousOwner",
          "type": "address"
        },
        {
          "indexed": true,
          "internalType": "address",
          "name": "newOwner",
          "type": "address"
        }
      ],
      "name": "OwnershipTransferred",
      "type": "event"
    },
    {
      "inputs": [
        {
          "internalType": "address",
          "name": "",
          "type": "address"
        }
      ],
      "name": "branchPrefix",
      "outputs": [
        {
          "internalType": "string",
          "name": "",
          "type": "string"
        }
      ],
      "stateMutability": "view",
      "type": "function"
    },
    {
      "inputs": [
        {
          "internalType": "string[5]",
          "name": "jsonNames_",
          "type": "string[5]"
        }
      ],
      "name": "changeJsonNames",
      "outputs": [],
      "stateMutability": "nonpayable",
      "type": "function"
    },
    {
      "inputs": [
        {
          "internalType": "int256[5]",
          "name": "powerLevels_",
          "type": "int256[5]"
        }
      ],
      "name": "changePowerLevels",
      "outputs": [],
      "stateMutability": "nonpayable",
      "type": "function"
    },
    {
      "inputs": [
        {
          "internalType": "uint256",
          "name": "",
          "type": "uint256"
        }
      ],
      "name": "jsonNames",
      "outputs": [
        {
          "internalType": "string",
          "name": "",
          "type": "string"
        }
      ],
      "stateMutability": "view",
      "type": "function"
    },
    {
      "inputs": [],
      "name": "owner",
      "outputs": [
        {
          "internalType": "address",
          "name": "",
          "type": "address"
        }
      ],
      "stateMutability": "view",
      "type": "function"
    },
    {
      "inputs": [
        {
          "internalType": "uint256",
          "name": "",
          "type": "uint256"
        }
      ],
      "name": "powerLevels",
      "outputs": [
        {
          "internalType": "int256",
          "name": "",
          "type": "int256"
        }
      ],
      "stateMutability": "view",
      "type": "function"
    },
    {
      "inputs": [
        {
          "internalType": "address",
          "name": "branchAddr",
          "type": "address"
        },
        {
          "internalType": "int256",
          "name": "power",
          "type": "int256"
        }
      ],
      "name": "query",
      "outputs": [
        {
          "internalType": "string",
          "name": "",
          "type": "string"
        }
      ],
      "stateMutability": "view",
      "type": "function"
    },
    {
      "inputs": [],
      "name": "renounceOwnership",
      "outputs": [],
      "stateMutability": "nonpayable",
      "type": "function"
    },
    {
      "inputs": [
        {
          "internalType": "address",
          "name": "newOwner",
          "type": "address"
        }
      ],
      "name": "transferOwnership",
      "outputs": [],
      "stateMutability": "nonpayable",
      "type": "function"
    },
    {
      "inputs": [
        {
          "internalType": "address",
          "name": "branchAddr",
          "type": "address"
        },
        {
          "internalType": "string",
          "name": "prefix",
          "type": "string"
        }
      ],
      "name": "updateBranchPrefix",
      "outputs": [],
      "stateMutability": "nonpayable",
      "type": "function"
    }
  ],
  "bytecode": "60806040523480156200001157600080fd5b5060405162000f6038038062000f608339810160408190526200003491620002be565b600080546001600160a01b031916339081178255604051909182917f8be0079c531659141344cd1fd0a4f28419497f9722a3daafe3b4186f6b6457e0908290a35060005b600581101562000110578281600581106200009757620000976200041f565b602002015160028260058110620000b257620000b26200041f565b0155818160058110620000c957620000c96200041f565b602002015160078260058110620000e457620000e46200041f565b019080519060200190620000fa92919062000119565b50806200010781620003f5565b91505062000078565b5050506200044b565b8280546200012790620003b8565b90600052602060002090601f0160209004810192826200014b576000855562000196565b82601f106200016657805160ff191683800117855562000196565b8280016001018555821562000196579182015b828111156200019657825182559160200191906001019062000179565b50620001a4929150620001a8565b5090565b5b80821115620001a45760008155600101620001a9565b6000601f8381840112620001d257600080fd5b620001dc6200035a565b80848660a087011115620001ef57600080fd5b60005b6005811015620002b25781516001600160401b03808211156200021457600080fd5b818901915089878301126200022857600080fd5b8151818111156200023d576200023d62000435565b6020915062000254818901601f1916830162000385565b8181528b838386010111156200026957600080fd5b60005b82811015620002895784810184015182820185015283016200026c565b828111156200029b5760008484840101525b5087525094850194929092019150600101620001f2565b50909695505050505050565b60008060c08385031215620002d257600080fd5b83601f840112620002e257600080fd5b620002ec6200035a565b808460a08601878111156200030057600080fd5b60005b60058110156200032457825185526020948501949092019160010162000303565b5051919450909150506001600160401b038111156200034257600080fd5b6200035085828601620001bf565b9150509250929050565b60405160a081016001600160401b03811182821017156200037f576200037f62000435565b60405290565b604051601f8201601f191681016001600160401b0381118282101715620003b057620003b062000435565b604052919050565b600181811c90821680620003cd57607f821691505b60208210811415620003ef57634e487b7160e01b600052602260045260246000fd5b50919050565b60006000198214156200041857634e487b7160e01b600052601160045260246000fd5b5060010190565b634e487b7160e01b600052603260045260246000fd5b634e487b7160e01b600052604160045260246000fd5b610b05806200045b6000396000f3fe608060405234801561001057600080fd5b506004361061009e5760003560e01c80638ebc87c3116100665780638ebc87c314610114578063a323d45614610134578063bc20951614610147578063cdeba6221461015a578063f2fde38b1461016d57600080fd5b80634a6d0f20146100a35780636a1805e2146100b8578063715018a6146100cb57806376034ca9146100d35780638da5cb5b146100f9575b600080fd5b6100b66100b1366004610842565b610180565b005b6100b66100c63660046107a3565b610217565b6100b661026a565b6100e66100e136600461087f565b6102de565b6040519081526020015b60405180910390f35b6000546040516001600160a01b0390911681526020016100f0565b61012761012236600461087f565b6102f5565b6040516100f09190610947565b610127610142366004610757565b610395565b610127610155366004610779565b6103ae565b6100b6610168366004610826565b610533565b6100b661017b366004610757565b6105a7565b6000546001600160a01b031633146101b35760405162461bcd60e51b81526004016101aa9061099c565b60405180910390fd5b60005b6005811015610213578181600581106101d1576101d1610ab9565b6020028101906101e191906109d1565b600783600581106101f4576101f4610ab9565b61020093910191610691565b508061020b81610a88565b9150506101b6565b5050565b6000546001600160a01b031633146102415760405162461bcd60e51b81526004016101aa9061099c565b6001600160a01b0383166000908152600160205260409020610264908383610691565b50505050565b6000546001600160a01b031633146102945760405162461bcd60e51b81526004016101aa9061099c565b600080546040516001600160a01b03909116907f8be0079c531659141344cd1fd0a4f28419497f9722a3daafe3b4186f6b6457e0908390a3600080546001600160a01b0319169055565b600281600581106102ee57600080fd5b0154905081565b6007816005811061030557600080fd5b01805490915061031490610a4d565b80601f016020809104026020016040519081016040528092919081815260200182805461034090610a4d565b801561038d5780601f106103625761010080835404028352916020019161038d565b820191906000526020600020905b81548152906001019060200180831161037057829003601f168201915b505050505081565b6001602052600090815260409020805461031490610a4d565b606060006103be60016005610a1f565b90505b600281600581106103d4576103d4610ab9565b0154831261051b576001600160a01b038416600090815260016020526040812080546103ff90610a4d565b80601f016020809104026020016040519081016040528092919081815260200182805461042b90610a4d565b80156104785780601f1061044d57610100808354040283529160200191610478565b820191906000526020600020905b81548152906001019060200180831161045b57829003601f168201915b505050505090508051600014156104f0576000805260016020527fa6eef7e35abe7026729641147f7915573c7e97b47efa546f5f6e3230263bcb49600783600581106104c6576104c6610ab9565b016040516020016104d8929190610932565b6040516020818303038152906040529250505061052d565b6001600160a01b0385166000908152600160205260409020600783600581106104c6576104c6610ab9565b8061052581610a36565b9150506103c1565b92915050565b6000546001600160a01b0316331461055d5760405162461bcd60e51b81526004016101aa9061099c565b60005b60058110156102135781816005811061057b5761057b610ab9565b60200201356002826005811061059357610593610ab9565b01558061059f81610a88565b915050610560565b6000546001600160a01b031633146105d15760405162461bcd60e51b81526004016101aa9061099c565b6001600160a01b0381166106365760405162461bcd60e51b815260206004820152602660248201527f4f776e61626c653a206e6577206f776e657220697320746865207a65726f206160448201526564647265737360d01b60648201526084016101aa565b600080546040516001600160a01b03808516939216917f8be0079c531659141344cd1fd0a4f28419497f9722a3daafe3b4186f6b6457e091a3600080546001600160a01b0319166001600160a01b0392909216919091179055565b82805461069d90610a4d565b90600052602060002090601f0160209004810192826106bf5760008555610705565b82601f106106d85782800160ff19823516178555610705565b82800160010185558215610705579182015b828111156107055782358255916020019190600101906106ea565b50610711929150610715565b5090565b5b808211156107115760008155600101610716565b80356001600160a01b038116811461074157600080fd5b919050565b8060a0810183101561052d57600080fd5b60006020828403121561076957600080fd5b6107728261072a565b9392505050565b6000806040838503121561078c57600080fd5b6107958361072a565b946020939093013593505050565b6000806000604084860312156107b857600080fd5b6107c18461072a565b9250602084013567ffffffffffffffff808211156107de57600080fd5b818601915086601f8301126107f257600080fd5b81358181111561080157600080fd5b87602082850101111561081357600080fd5b6020830194508093505050509250925092565b600060a0828403121561083857600080fd5b6107728383610746565b60006020828403121561085457600080fd5b813567ffffffffffffffff81111561086b57600080fd5b61087784828501610746565b949350505050565b60006020828403121561089157600080fd5b5035919050565b8054600090600181811c90808316806108b257607f831692505b60208084108214156108d457634e487b7160e01b600052602260045260246000fd5b8180156108e857600181146108f957610926565b60ff19861689528489019650610926565b60008881526020902060005b8681101561091e5781548b820152908501908301610905565b505084890196505b50505050505092915050565b60006108776109418386610898565b84610898565b600060208083528351808285015260005b8181101561097457858101830151858201604001528201610958565b81811115610986576000604083870101525b50601f01601f1916929092016040019392505050565b6020808252818101527f4f776e61626c653a2063616c6c6572206973206e6f7420746865206f776e6572604082015260600190565b6000808335601e198436030181126109e857600080fd5b83018035915067ffffffffffffffff821115610a0357600080fd5b602001915036819003821315610a1857600080fd5b9250929050565b600082821015610a3157610a31610aa3565b500390565b600081610a4557610a45610aa3565b506000190190565b600181811c90821680610a6157607f821691505b60208210811415610a8257634e487b7160e01b600052602260045260246000fd5b50919050565b6000600019821415610a9c57610a9c610aa3565b5060010190565b634e487b7160e01b600052601160045260246000fd5b634e487b7160e01b600052603260045260246000fdfea26469706673582212207c36a4fc8d713544263fb273ec7fe02d06256a9db0256ec6c3171c0b9229588764736f6c63430008070033",
  "bytecodeSha1": "b89ef45a585dd8e0aab7d5f299b054dab9117c88",
  "compiler": {
    "evm_version": "istanbul",
    "optimizer": {
      "enabled": true,
      "runs": 200
    },
    "version": "0.8.7+commit.e28d00a7"
  },
  "contractName": "ArmyRank",
  "language": "Solidity",
  "natspec": {
    "author": "Justa Liang",
    "kind": "dev",
    "methods": {
      "branchPrefix(address)": {
        "notice": "URI prefix of certain branch"
      },
      "changeJsonNames(string[5])": {
        "details": "Change metadat filename (will be discarded)",
        "params": {
          "jsonNames_": "Array with length 5, from low level URI to high"
        }
      },
      "changePowerLevels(int256[5])": {
        "details": "Change power levels (will be discarded)",
        "params": {
          "powerLevels_": "Array with length 5, from low level to high"
        }
      },
      "constructor": {
        "details": "Set power levels and metadata filenames",
        "params": {
          "jsonNames_": "Array with length 5, from low level URI to high",
          "powerLevels_": "Array with length 5, from low level to high"
        }
      },
      "jsonNames(uint256)": {
        "notice": "Metadata filenames"
      },
      "owner()": {
        "details": "Returns the address of the current owner."
      },
      "powerLevels(uint256)": {
        "notice": "Level of power to reach to upgrade minions"
      },
      "query(address,int256)": {
        "details": "Call by Army Contract, to dynamically get token URI",
        "params": {
          "branchAddr": "Branch address of the minion",
          "power": "Power of the minion"
        }
      },
      "renounceOwnership()": {
        "details": "Leaves the contract without owner. It will not be possible to call `onlyOwner` functions anymore. Can only be called by the current owner. NOTE: Renouncing ownership will leave the contract without an owner, thereby removing any functionality that is only available to the owner."
      },
      "transferOwnership(address)": {
        "details": "Transfers ownership of the contract to a new account (`newOwner`). Can only be called by the current owner."
      },
      "updateBranchPrefix(address,string)": {
        "details": "Update branch prefix (give ownership to Battlefield contract in the future)",
        "params": {
          "branchAddr": "Branch address",
          "prefix": "Prefix of URI to be set"
        }
      }
    },
    "title": "Ranking system of FloraArmy and FaunaArmy",
    "version": 1
  },
  "opcodes": "PUSH1 0x80 PUSH1 0x40 MSTORE CALLVALUE DUP1 ISZERO PUSH2 0x10 JUMPI PUSH1 0x0 DUP1 REVERT JUMPDEST POP PUSH1 0x4 CALLDATASIZE LT PUSH2 0x9E JUMPI PUSH1 0x0 CALLDATALOAD PUSH1 0xE0 SHR DUP1 PUSH4 0x8EBC87C3 GT PUSH2 0x66 JUMPI DUP1 PUSH4 0x8EBC87C3 EQ PUSH2 0x114 JUMPI DUP1 PUSH4 0xA323D456 EQ PUSH2 0x134 JUMPI DUP1 PUSH4 0xBC209516 EQ PUSH2 0x147 JUMPI DUP1 PUSH4 0xCDEBA622 EQ PUSH2 0x15A JUMPI DUP1 PUSH4 0xF2FDE38B EQ PUSH2 0x16D JUMPI PUSH1 0x0 DUP1 REVERT JUMPDEST DUP1 PUSH4 0x4A6D0F20 EQ PUSH2 0xA3 JUMPI DUP1 PUSH4 0x6A1805E2 EQ PUSH2 0xB8 JUMPI DUP1 PUSH4 0x715018A6 EQ PUSH2 0xCB JUMPI DUP1 PUSH4 0x76034CA9 EQ PUSH2 0xD3 JUMPI DUP1 PUSH4 0x8DA5CB5B EQ PUSH2 0xF9 JUMPI JUMPDEST PUSH1 0x0 DUP1 REVERT JUMPDEST PUSH2 0xB6 PUSH2 0xB1 CALLDATASIZE PUSH1 0x4 PUSH2 0x842 JUMP JUMPDEST PUSH2 0x180 JUMP JUMPDEST STOP JUMPDEST PUSH2 0xB6 PUSH2 0xC6 CALLDATASIZE PUSH1 0x4 PUSH2 0x7A3 JUMP JUMPDEST PUSH2 0x217 JUMP JUMPDEST PUSH2 0xB6 PUSH2 0x26A JUMP JUMPDEST PUSH2 0xE6 PUSH2 0xE1 CALLDATASIZE PUSH1 0x4 PUSH2 0x87F JUMP JUMPDEST PUSH2 0x2DE JUMP JUMPDEST PUSH1 0x40 MLOAD SWAP1 DUP2 MSTORE PUSH1 0x20 ADD JUMPDEST PUSH1 0x40 MLOAD DUP1 SWAP2 SUB SWAP1 RETURN JUMPDEST PUSH1 0x0 SLOAD PUSH1 0x40 MLOAD PUSH1 0x1 PUSH1 0x1 PUSH1 0xA0 SHL SUB SWAP1 SWAP2 AND DUP2 MSTORE PUSH1 0x20 ADD PUSH2 0xF0 JUMP JUMPDEST PUSH2 0x127 PUSH2 0x122 CALLDATASIZE PUSH1 0x4 PUSH2 0x87F JUMP JUMPDEST PUSH2 0x2F5 JUMP JUMPDEST PUSH1 0x40 MLOAD PUSH2 0xF0 SWAP2 SWAP1 PUSH2 0x947 JUMP JUMPDEST PUSH2 0x127 PUSH2 0x142 CALLDATASIZE PUSH1 0x4 PUSH2 0x757 JUMP JUMPDEST PUSH2 0x395 JUMP JUMPDEST PUSH2 0x127 PUSH2 0x155 CALLDATASIZE PUSH1 0x4 PUSH2 0x779 JUMP JUMPDEST PUSH2 0x3AE JUMP JUMPDEST PUSH2 0xB6 PUSH2 0x168 CALLDATASIZE PUSH1 0x4 PUSH2 0x826 JUMP JUMPDEST PUSH2 0x533 JUMP JUMPDEST PUSH2 0xB6 PUSH2 0x17B CALLDATASIZE PUSH1 0x4 PUSH2 0x757 JUMP JUMPDEST PUSH2 0x5A7 JUMP JUMPDEST PUSH1 0x0 SLOAD PUSH1 0x1 PUSH1 0x1 PUSH1 0xA0 SHL SUB AND CALLER EQ PUSH2 0x1B3 JUMPI PUSH1 0x40 MLOAD PUSH3 0x461BCD PUSH1 0xE5 SHL DUP2 MSTORE PUSH1 0x4 ADD PUSH2 0x1AA SWAP1 PUSH2 0x99C JUMP JUMPDEST PUSH1 0x40 MLOAD DUP1 SWAP2 SUB SWAP1 REVERT JUMPDEST PUSH1 0x0 JUMPDEST PUSH1 0x5 DUP2 LT ISZERO PUSH2 0x213 JUMPI DUP2 DUP2 PUSH1 0x5 DUP2 LT PUSH2 0x1D1 JUMPI PUSH2 0x1D1 PUSH2 0xAB9 JUMP JUMPDEST PUSH1 0x20 MUL DUP2 ADD SWAP1 PUSH2 0x1E1 SWAP2 SWAP1 PUSH2 0x9D1 JUMP JUMPDEST PUSH1 0x7 DUP4 PUSH1 0x5 DUP2 LT PUSH2 0x1F4 JUMPI PUSH2 0x1F4 PUSH2 0xAB9 JUMP JUMPDEST PUSH2 0x200 SWAP4 SWAP2 ADD SWAP2 PUSH2 0x691 JUMP JUMPDEST POP DUP1 PUSH2 0x20B DUP2 PUSH2 0xA88 JUMP JUMPDEST SWAP2 POP POP PUSH2 0x1B6 JUMP JUMPDEST POP POP JUMP JUMPDEST PUSH1 0x0 SLOAD PUSH1 0x1 PUSH1 0x1 PUSH1 0xA0 SHL SUB AND CALLER EQ PUSH2 0x241 JUMPI PUSH1 0x40 MLOAD PUSH3 0x461BCD PUSH1 0xE5 SHL DUP2 MSTORE PUSH1 0x4 ADD PUSH2 0x1AA SWAP1 PUSH2 0x99C JUMP JUMPDEST PUSH1 0x1 PUSH1 0x1 PUSH1 0xA0 SHL SUB DUP4 AND PUSH1 0x0 SWAP1 DUP2 MSTORE PUSH1 0x1 PUSH1 0x20 MSTORE PUSH1 0x40 SWAP1 KECCAK256 PUSH2 0x264 SWAP1 DUP4 DUP4 PUSH2 0x691 JUMP JUMPDEST POP POP POP POP JUMP JUMPDEST PUSH1 0x0 SLOAD PUSH1 0x1 PUSH1 0x1 PUSH1 0xA0 SHL SUB AND CALLER EQ PUSH2 0x294 JUMPI PUSH1 0x40 MLOAD PUSH3 0x461BCD PUSH1 0xE5 SHL DUP2 MSTORE PUSH1 0x4 ADD PUSH2 0x1AA SWAP1 PUSH2 0x99C JUMP JUMPDEST PUSH1 0x0 DUP1 SLOAD PUSH1 0x40 MLOAD PUSH1 0x1 PUSH1 0x1 PUSH1 0xA0 SHL SUB SWAP1 SWAP2 AND SWAP1 PUSH32 0x8BE0079C531659141344CD1FD0A4F28419497F9722A3DAAFE3B4186F6B6457E0 SWAP1 DUP4 SWAP1 LOG3 PUSH1 0x0 DUP1 SLOAD PUSH1 0x1 PUSH1 0x1 PUSH1 0xA0 SHL SUB NOT AND SWAP1 SSTORE JUMP JUMPDEST PUSH1 0x2 DUP2 PUSH1 0x5 DUP2 LT PUSH2 0x2EE JUMPI PUSH1 0x0 DUP1 REVERT JUMPDEST ADD SLOAD SWAP1 POP DUP2 JUMP JUMPDEST PUSH1 0x7 DUP2 PUSH1 0x5 DUP2 LT PUSH2 0x305 JUMPI PUSH1 0x0 DUP1 REVERT JUMPDEST ADD DUP1 SLOAD SWAP1 SWAP2 POP PUSH2 0x314 SWAP1 PUSH2 0xA4D JUMP JUMPDEST DUP1 PUSH1 0x1F ADD PUSH1 0x20 DUP1 SWAP2 DIV MUL PUSH1 0x20 ADD PUSH1 0x40 MLOAD SWAP1 DUP2 ADD PUSH1 0x40 MSTORE DUP1 SWAP3 SWAP2 SWAP1 DUP2 DUP2 MSTORE PUSH1 0x20 ADD DUP3 DUP1 SLOAD PUSH2 0x340 SWAP1 PUSH2 0xA4D JUMP JUMPDEST DUP1 ISZERO PUSH2 0x38D JUMPI DUP1 PUSH1 0x1F LT PUSH2 0x362 JUMPI PUSH2 0x100 DUP1 DUP4 SLOAD DIV MUL DUP4 MSTORE SWAP2 PUSH1 0x20 ADD SWAP2 PUSH2 0x38D JUMP JUMPDEST DUP3 ADD SWAP2 SWAP1 PUSH1 0x0 MSTORE PUSH1 0x20 PUSH1 0x0 KECCAK256 SWAP1 JUMPDEST DUP2 SLOAD DUP2 MSTORE SWAP1 PUSH1 0x1 ADD SWAP1 PUSH1 0x20 ADD DUP1 DUP4 GT PUSH2 0x370 JUMPI DUP3 SWAP1 SUB PUSH1 0x1F AND DUP3 ADD SWAP2 JUMPDEST POP POP POP POP POP DUP2 JUMP JUMPDEST PUSH1 0x1 PUSH1 0x20 MSTORE PUSH1 0x0 SWAP1 DUP2 MSTORE PUSH1 0x40 SWAP1 KECCAK256 DUP1 SLOAD PUSH2 0x314 SWAP1 PUSH2 0xA4D JUMP JUMPDEST PUSH1 0x60 PUSH1 0x0 PUSH2 0x3BE PUSH1 0x1 PUSH1 0x5 PUSH2 0xA1F JUMP JUMPDEST SWAP1 POP JUMPDEST PUSH1 0x2 DUP2 PUSH1 0x5 DUP2 LT PUSH2 0x3D4 JUMPI PUSH2 0x3D4 PUSH2 0xAB9 JUMP JUMPDEST ADD SLOAD DUP4 SLT PUSH2 0x51B JUMPI PUSH1 0x1 PUSH1 0x1 PUSH1 0xA0 SHL SUB DUP5 AND PUSH1 0x0 SWAP1 DUP2 MSTORE PUSH1 0x1 PUSH1 0x20 MSTORE PUSH1 0x40 DUP2 KECCAK256 DUP1 SLOAD PUSH2 0x3FF SWAP1 PUSH2 0xA4D JUMP JUMPDEST DUP1 PUSH1 0x1F ADD PUSH1 0x20 DUP1 SWAP2 DIV MUL PUSH1 0x20 ADD PUSH1 0x40 MLOAD SWAP1 DUP2 ADD PUSH1 0x40 MSTORE DUP1 SWAP3 SWAP2 SWAP1 DUP2 DUP2 MSTORE PUSH1 0x20 ADD DUP3 DUP1 SLOAD PUSH2 0x42B SWAP1 PUSH2 0xA4D JUMP JUMPDEST DUP1 ISZERO PUSH2 0x478 JUMPI DUP1 PUSH1 0x1F LT PUSH2 0x44D JUMPI PUSH2 0x100 DUP1 DUP4 SLOAD DIV MUL DUP4 MSTORE SWAP2 PUSH1 0x20 ADD SWAP2 PUSH2 0x478 JUMP JUMPDEST DUP3 ADD SWAP2 SWAP1 PUSH1 0x0 MSTORE PUSH1 0x20 PUSH1 0x0 KECCAK256 SWAP1 JUMPDEST DUP2 SLOAD DUP2 MSTORE SWAP1 PUSH1 0x1 ADD SWAP1 PUSH1 0x20 ADD DUP1 DUP4 GT PUSH2 0x45B JUMPI DUP3 SWAP1 SUB PUSH1 0x1F AND DUP3 ADD SWAP2 JUMPDEST POP POP POP POP POP SWAP1 POP DUP1 MLOAD PUSH1 0x0 EQ ISZERO PUSH2 0x4F0 JUMPI PUSH1 0x0 DUP1 MSTORE PUSH1 0x1 PUSH1 0x20 MSTORE PUSH32 0xA6EEF7E35ABE7026729641147F7915573C7E97B47EFA546F5F6E3230263BCB49 PUSH1 0x7 DUP4 PUSH1 0x5 DUP2 LT PUSH2 0x4C6 JUMPI PUSH2 0x4C6 PUSH2 0xAB9 JUMP JUMPDEST ADD PUSH1 0x40 MLOAD PUSH1 0x20 ADD PUSH2 0x4D8 SWAP3 SWAP2 SWAP1 PUSH2 0x932 JUMP JUMPDEST PUSH1 0x40 MLOAD PUSH1 0x20 DUP2 DUP4 SUB SUB DUP2 MSTORE SWAP1 PUSH1 0x40 MSTORE SWAP3 POP POP POP PUSH2 0x52D JUMP JUMPDEST PUSH1 0x1 PUSH1 0x1 PUSH1 0xA0 SHL SUB DUP6 AND PUSH1 0x0 SWAP1 DUP2 MSTORE PUSH1 0x1 PUSH1 0x20 MSTORE PUSH1 0x40 SWAP1 KECCAK256 PUSH1 0x7 DUP4 PUSH1 0x5 DUP2 LT PUSH2 0x4C6 JUMPI PUSH2 0x4C6 PUSH2 0xAB9 JUMP JUMPDEST DUP1 PUSH2 0x525 DUP2 PUSH2 0xA36 JUMP JUMPDEST SWAP2 POP POP PUSH2 0x3C1 JUMP JUMPDEST SWAP3 SWAP2 POP POP JUMP JUMPDEST PUSH1 0x0 SLOAD PUSH1 0x1 PUSH1 0x1 PUSH1 0xA0 SHL SUB AND CALLER EQ PUSH2 0x55D JUMPI PUSH1 0x40 MLOAD PUSH3 0x461BCD PUSH1 0xE5 SHL DUP2 MSTORE PUSH1 0x4 ADD PUSH2 0x1AA SWAP1 PUSH2 0x99C JUMP JUMPDEST PUSH1 0x0 JUMPDEST PUSH1 0x5 DUP2 LT ISZERO PUSH2 0x213 JUMPI DUP2 DUP2 PUSH1 0x5 DUP2 LT PUSH2 0x57B JUMPI PUSH2 0x57B PUSH2 0xAB9 JUMP JUMPDEST PUSH1 0x20 MUL ADD CALLDATALOAD PUSH1 0x2 DUP3 PUSH1 0x5 DUP2 LT PUSH2 0x593 JUMPI PUSH2 0x593 PUSH2 0xAB9 JUMP JUMPDEST ADD SSTORE DUP1 PUSH2 0x59F DUP2 PUSH2 0xA88 JUMP JUMPDEST SWAP2 POP POP PUSH2 0x560 JUMP JUMPDEST PUSH1 0x0 SLOAD PUSH1 0x1 PUSH1 0x1 PUSH1 0xA0 SHL SUB AND CALLER EQ PUSH2 0x5D1 JUMPI PUSH1 0x40 MLOAD PUSH3 0x461BCD PUSH1 0xE5 SHL DUP2 MSTORE PUSH1 0x4 ADD PUSH2 0x1AA SWAP1 PUSH2 0x99C JUMP JUMPDEST PUSH1 0x1 PUSH1 0x1 PUSH1 0xA0 SHL SUB DUP2 AND PUSH2 0x636 JUMPI PUSH1 0x40 MLOAD PUSH3 0x461BCD PUSH1 0xE5 SHL DUP2 MSTORE PUSH1 0x20 PUSH1 0x4 DUP3 ADD MSTORE PUSH1 0x26 PUSH1 0x24 DUP3 ADD MSTORE PUSH32 0x4F776E61626C653A206E6577206F776E657220697320746865207A65726F2061 PUSH1 0x44 DUP3 ADD MSTORE PUSH6 0x646472657373 PUSH1 0xD0 SHL PUSH1 0x64 DUP3 ADD MSTORE PUSH1 0x84 ADD PUSH2 0x1AA JUMP JUMPDEST PUSH1 0x0 DUP1 SLOAD PUSH1 0x40 MLOAD PUSH1 0x1 PUSH1 0x1 PUSH1 0xA0 SHL SUB DUP1 DUP6 AND SWAP4 SWAP3 AND SWAP2 PUSH32 0x8BE0079C531659141344CD1FD0A4F28419497F9722A3DAAFE3B4186F6B6457E0 SWAP2 LOG3 PUSH1 0x0 DUP1 SLOAD PUSH1 0x1 PUSH1 0x1 PUSH1 0xA0 SHL SUB NOT AND PUSH1 0x1 PUSH1 0x1 PUSH1 0xA0 SHL SUB SWAP3 SWAP1 SWAP3 AND SWAP2 SWAP1 SWAP2 OR SWAP1 SSTORE JUMP JUMPDEST DUP3 DUP1 SLOAD PUSH2 0x69D SWAP1 PUSH2 0xA4D JUMP JUMPDEST SWAP1 PUSH1 0x0 MSTORE PUSH1 0x20 PUSH1 0x0 KECCAK256 SWAP1 PUSH1 0x1F ADD PUSH1 0x20 SWAP1 DIV DUP2 ADD SWAP3 DUP3 PUSH2 0x6BF JUMPI PUSH1 0x0 DUP6 SSTORE PUSH2 0x705 JUMP JUMPDEST DUP3 PUSH1 0x1F LT PUSH2 0x6D8 JUMPI DUP3 DUP1 ADD PUSH1 0xFF NOT DUP3 CALLDATALOAD AND OR DUP6 SSTORE PUSH2 0x705 JUMP JUMPDEST DUP3 DUP1 ADD PUSH1 0x1 ADD DUP6 SSTORE DUP3 ISZERO PUSH2 0x705 JUMPI SWAP2 DUP3 ADD JUMPDEST DUP3 DUP2 GT ISZERO PUSH2 0x705 JUMPI DUP3 CALLDATALOAD DUP3 SSTORE SWAP2 PUSH1 0x20 ADD SWAP2 SWAP1 PUSH1 0x1 ADD SWAP1 PUSH2 0x6EA JUMP JUMPDEST POP PUSH2 0x711 SWAP3 SWAP2 POP PUSH2 0x715 JUMP JUMPDEST POP SWAP1 JUMP JUMPDEST JUMPDEST DUP1 DUP3 GT ISZERO PUSH2 0x711 JUMPI PUSH1 0x0 DUP2 SSTORE PUSH1 0x1 ADD PUSH2 0x716 JUMP JUMPDEST DUP1 CALLDATALOAD PUSH1 0x1 PUSH1 0x1 PUSH1 0xA0 SHL SUB DUP2 AND DUP2 EQ PUSH2 0x741 JUMPI PUSH1 0x0 DUP1 REVERT JUMPDEST SWAP2 SWAP1 POP JUMP JUMPDEST DUP1 PUSH1 0xA0 DUP2 ADD DUP4 LT ISZERO PUSH2 0x52D JUMPI PUSH1 0x0 DUP1 REVERT JUMPDEST PUSH1 0x0 PUSH1 0x20 DUP3 DUP5 SUB SLT ISZERO PUSH2 0x769 JUMPI PUSH1 0x0 DUP1 REVERT JUMPDEST PUSH2 0x772 DUP3 PUSH2 0x72A JUMP JUMPDEST SWAP4 SWAP3 POP POP POP JUMP JUMPDEST PUSH1 0x0 DUP1 PUSH1 0x40 DUP4 DUP6 SUB SLT ISZERO PUSH2 0x78C JUMPI PUSH1 0x0 DUP1 REVERT JUMPDEST PUSH2 0x795 DUP4 PUSH2 0x72A JUMP JUMPDEST SWAP5 PUSH1 0x20 SWAP4 SWAP1 SWAP4 ADD CALLDATALOAD SWAP4 POP POP POP JUMP JUMPDEST PUSH1 0x0 DUP1 PUSH1 0x0 PUSH1 0x40 DUP5 DUP7 SUB SLT ISZERO PUSH2 0x7B8 JUMPI PUSH1 0x0 DUP1 REVERT JUMPDEST PUSH2 0x7C1 DUP5 PUSH2 0x72A JUMP JUMPDEST SWAP3 POP PUSH1 0x20 DUP5 ADD CALLDATALOAD PUSH8 0xFFFFFFFFFFFFFFFF DUP1 DUP3 GT ISZERO PUSH2 0x7DE JUMPI PUSH1 0x0 DUP1 REVERT JUMPDEST DUP2 DUP7 ADD SWAP2 POP DUP7 PUSH1 0x1F DUP4 ADD SLT PUSH2 0x7F2 JUMPI PUSH1 0x0 DUP1 REVERT JUMPDEST DUP2 CALLDATALOAD DUP2 DUP2 GT ISZERO PUSH2 0x801 JUMPI PUSH1 0x0 DUP1 REVERT JUMPDEST DUP8 PUSH1 0x20 DUP3 DUP6 ADD ADD GT ISZERO PUSH2 0x813 JUMPI PUSH1 0x0 DUP1 REVERT JUMPDEST PUSH1 0x20 DUP4 ADD SWAP5 POP DUP1 SWAP4 POP POP POP POP SWAP3 POP SWAP3 POP SWAP3 JUMP JUMPDEST PUSH1 0x0 PUSH1 0xA0 DUP3 DUP5 SUB SLT ISZERO PUSH2 0x838 JUMPI PUSH1 0x0 DUP1 REVERT JUMPDEST PUSH2 0x772 DUP4 DUP4 PUSH2 0x746 JUMP JUMPDEST PUSH1 0x0 PUSH1 0x20 DUP3 DUP5 SUB SLT ISZERO PUSH2 0x854 JUMPI PUSH1 0x0 DUP1 REVERT JUMPDEST DUP2 CALLDATALOAD PUSH8 0xFFFFFFFFFFFFFFFF DUP2 GT ISZERO PUSH2 0x86B JUMPI PUSH1 0x0 DUP1 REVERT JUMPDEST PUSH2 0x877 DUP5 DUP3 DUP6 ADD PUSH2 0x746 JUMP JUMPDEST SWAP5 SWAP4 POP POP POP POP JUMP JUMPDEST PUSH1 0x0 PUSH1 0x20 DUP3 DUP5 SUB SLT ISZERO PUSH2 0x891 JUMPI PUSH1 0x0 DUP1 REVERT JUMPDEST POP CALLDATALOAD SWAP2 SWAP1 POP JUMP JUMPDEST DUP1 SLOAD PUSH1 0x0 SWAP1 PUSH1 0x1 DUP2 DUP2 SHR SWAP1 DUP1 DUP4 AND DUP1 PUSH2 0x8B2 JUMPI PUSH1 0x7F DUP4 AND SWAP3 POP JUMPDEST PUSH1 0x20 DUP1 DUP5 LT DUP3 EQ ISZERO PUSH2 0x8D4 JUMPI PUSH4 0x4E487B71 PUSH1 0xE0 SHL PUSH1 0x0 MSTORE PUSH1 0x22 PUSH1 0x4 MSTORE PUSH1 0x24 PUSH1 0x0 REVERT JUMPDEST DUP2 DUP1 ISZERO PUSH2 0x8E8 JUMPI PUSH1 0x1 DUP2 EQ PUSH2 0x8F9 JUMPI PUSH2 0x926 JUMP JUMPDEST PUSH1 0xFF NOT DUP7 AND DUP10 MSTORE DUP5 DUP10 ADD SWAP7 POP PUSH2 0x926 JUMP JUMPDEST PUSH1 0x0 DUP9 DUP2 MSTORE PUSH1 0x20 SWAP1 KECCAK256 PUSH1 0x0 JUMPDEST DUP7 DUP2 LT ISZERO PUSH2 0x91E JUMPI DUP2 SLOAD DUP12 DUP3 ADD MSTORE SWAP1 DUP6 ADD SWAP1 DUP4 ADD PUSH2 0x905 JUMP JUMPDEST POP POP DUP5 DUP10 ADD SWAP7 POP JUMPDEST POP POP POP POP POP POP SWAP3 SWAP2 POP POP JUMP JUMPDEST PUSH1 0x0 PUSH2 0x877 PUSH2 0x941 DUP4 DUP7 PUSH2 0x898 JUMP JUMPDEST DUP5 PUSH2 0x898 JUMP JUMPDEST PUSH1 0x0 PUSH1 0x20 DUP1 DUP4 MSTORE DUP4 MLOAD DUP1 DUP3 DUP6 ADD MSTORE PUSH1 0x0 JUMPDEST DUP2 DUP2 LT ISZERO PUSH2 0x974 JUMPI DUP6 DUP2 ADD DUP4 ADD MLOAD DUP6 DUP3 ADD PUSH1 0x40 ADD MSTORE DUP3 ADD PUSH2 0x958 JUMP JUMPDEST DUP2 DUP2 GT ISZERO PUSH2 0x986 JUMPI PUSH1 0x0 PUSH1 0x40 DUP4 DUP8 ADD ADD MSTORE JUMPDEST POP PUSH1 0x1F ADD PUSH1 0x1F NOT AND SWAP3 SWAP1 SWAP3 ADD PUSH1 0x40 ADD SWAP4 SWAP3 POP POP POP JUMP JUMPDEST PUSH1 0x20 DUP1 DUP3 MSTORE DUP2 DUP2 ADD MSTORE PUSH32 0x4F776E61626C653A2063616C6C6572206973206E6F7420746865206F776E6572 PUSH1 0x40 DUP3 ADD MSTORE PUSH1 0x60 ADD SWAP1 JUMP JUMPDEST PUSH1 0x0 DUP1 DUP4 CALLDATALOAD PUSH1 0x1E NOT DUP5 CALLDATASIZE SUB ADD DUP2 SLT PUSH2 0x9E8 JUMPI PUSH1 0x0 DUP1 REVERT JUMPDEST DUP4 ADD DUP1 CALLDATALOAD SWAP2 POP PUSH8 0xFFFFFFFFFFFFFFFF DUP3 GT ISZERO PUSH2 0xA03 JUMPI PUSH1 0x0 DUP1 REVERT JUMPDEST PUSH1 0x20 ADD SWAP2 POP CALLDATASIZE DUP2 SWAP1 SUB DUP3 SGT ISZERO PUSH2 0xA18 JUMPI PUSH1 0x0 DUP1 REVERT JUMPDEST SWAP3 POP SWAP3 SWAP1 POP JUMP JUMPDEST PUSH1 0x0 DUP3 DUP3 LT ISZERO PUSH2 0xA31 JUMPI PUSH2 0xA31 PUSH2 0xAA3 JUMP JUMPDEST POP SUB SWAP1 JUMP JUMPDEST PUSH1 0x0 DUP2 PUSH2 0xA45 JUMPI PUSH2 0xA45 PUSH2 0xAA3 JUMP JUMPDEST POP PUSH1 0x0 NOT ADD SWAP1 JUMP JUMPDEST PUSH1 0x1 DUP2 DUP2 SHR SWAP1 DUP3 AND DUP1 PUSH2 0xA61 JUMPI PUSH1 0x7F DUP3 AND SWAP2 POP JUMPDEST PUSH1 0x20 DUP3 LT DUP2 EQ ISZERO PUSH2 0xA82 JUMPI PUSH4 0x4E487B71 PUSH1 0xE0 SHL PUSH1 0x0 MSTORE PUSH1 0x22 PUSH1 0x4 MSTORE PUSH1 0x24 PUSH1 0x0 REVERT JUMPDEST POP SWAP2 SWAP1 POP JUMP JUMPDEST PUSH1 0x0 PUSH1 0x0 NOT DUP3 EQ ISZERO PUSH2 0xA9C JUMPI PUSH2 0xA9C PUSH2 0xAA3 JUMP JUMPDEST POP PUSH1 0x1 ADD SWAP1 JUMP JUMPDEST PUSH4 0x4E487B71 PUSH1 0xE0 SHL PUSH1 0x0 MSTORE PUSH1 0x11 PUSH1 0x4 MSTORE PUSH1 0x24 PUSH1 0x0 REVERT JUMPDEST PUSH4 0x4E487B71 PUSH1 0xE0 SHL PUSH1 0x0 MSTORE PUSH1 0x32 PUSH1 0x4 MSTORE PUSH1 0x24 PUSH1 0x0 REVERT INVALID LOG2 PUSH5 0x6970667358 0x22 SLT KECCAK256 PUSH29 0x36A4FC8D713544263FB273EC7FE02D06256A9DB0256EC6C3171C0B9229 PC DUP8 PUSH5 0x736F6C6343 STOP ADDMOD SMOD STOP CALLER ",
  "sha1": "265e961f04ed59ae4e75d1b68409d0c3898ea3a7",
  "source": "// SPDX-License-Identifier: MIT\npragma solidity ^0.8.0;\n\nimport \"@openzeppelin/contracts/access/Ownable.sol\";\n\n/**\n * @notice Methods called by FloraArmy and FaunaArmy\n */\ninterface RANK {\n    function transferOwnership(address) external;\n    function query(address, int) external view returns (string memory);\n}\n\n/**\n * @title Ranking system of FloraArmy and FaunaArmy\n * @author Justa Liang\n */\ncontract ArmyRank is Ownable {\n\n    /// @notice URI prefix of certain branch\n    mapping (address => string) public branchPrefix;\n\n    /// @notice Level of power to reach to upgrade minions\n    int[5] public powerLevels;\n\n    /// @notice Metadata filenames\n    string[5] public jsonNames;\n\n    /**\n     * @dev Set power levels and metadata filenames\n     * @param powerLevels_ Array with length 5, from low level to high\n     * @param jsonNames_ Array with length 5, from low level URI to high\n    */\n    constructor(int[5] memory powerLevels_, string[5] memory jsonNames_) {\n        for (uint i = 0; i < 5; i++) {\n            powerLevels[i] = powerLevels_[i];\n            jsonNames[i] = jsonNames_[i];\n        }\n    }\n\n    /**\n     * @dev Call by Army Contract, to dynamically get token URI\n     * @param branchAddr Branch address of the minion\n     * @param power Power of the minion\n    */\n    function query(address branchAddr, int power) external view returns (string memory) {\n        for (uint i = powerLevels.length-1; i >= 0; i--) {\n            if (power >= powerLevels[i]) {\n                string memory prefix = branchPrefix[branchAddr];\n                if (bytes(prefix).length == 0) {\n                    return string(abi.encodePacked(branchPrefix[address(0)], jsonNames[i]));\n                }\n                else {\n                    return string(abi.encodePacked(branchPrefix[branchAddr], jsonNames[i]));\n                }\n            }\n        }\n    }\n\n    /**\n     * @dev Update branch prefix (give ownership to Battlefield contract in the future)\n     * @param branchAddr Branch address\n     * @param prefix Prefix of URI to be set\n    */\n    function updateBranchPrefix(address branchAddr, string calldata prefix) external onlyOwner {\n        branchPrefix[branchAddr] = prefix;\n    }\n\n    /**\n     * @dev Change power levels (will be discarded)\n     * @param powerLevels_ Array with length 5, from low level to high\n    */\n    function changePowerLevels(int[5] calldata powerLevels_) external onlyOwner {\n        for (uint i = 0; i < 5; i++) {\n            powerLevels[i] = powerLevels_[i];\n        }\n    }\n\n    /**\n     * @dev Change metadat filename (will be discarded)\n     * @param jsonNames_ Array with length 5, from low level URI to high\n    */\n    function changeJsonNames(string[5] calldata jsonNames_) external onlyOwner {\n        for (uint i = 0; i < 5; i++) {\n            jsonNames[i] = jsonNames_[i];\n        }\n    }\n}",
  "sourcePath": "contracts/ArmyRank.sol",
  "type": "contract"
}