{
  "abi": [
    {
      "inputs": [
        {
          "internalType": "address",
          "name": "floraArmyAddr",
          "type": "address"
        },
        {
          "internalType": "address",
          "name": "faunaArmyAddr",
          "type": "address"
        }
      ],
      "stateMutability": "nonpayable",
      "type": "constructor"
    },
    {
      "anonymous": false,
      "inputs": [
        {
          "indexed": false,
          "internalType": "uint256",
          "name": "fieldRange",
          "type": "uint256"
        }
      ],
      "name": "FieldRange",
      "type": "event"
    },
    {
      "anonymous": false,
      "inputs": [
        {
          "indexed": true,
          "internalType": "uint256",
          "name": "fieldID",
          "type": "uint256"
        },
        {
          "indexed": true,
          "internalType": "address",
          "name": "conqueror",
          "type": "address"
        },
        {
          "indexed": false,
          "internalType": "uint256[]",
          "name": "team",
          "type": "uint256[]"
        },
        {
          "indexed": false,
          "internalType": "bool",
          "name": "isGreen",
          "type": "bool"
        }
      ],
      "name": "FieldState",
      "type": "event"
    },
    {
      "anonymous": false,
      "inputs": [
        {
          "indexed": true,
          "internalType": "address",
          "name": "proposer",
          "type": "address"
        },
        {
          "indexed": true,
          "internalType": "address",
          "name": "branchAddress",
          "type": "address"
        },
        {
          "indexed": false,
          "internalType": "string",
          "name": "branchPrefix",
          "type": "string"
        }
      ],
      "name": "Propose",
      "type": "event"
    },
    {
      "inputs": [
        {
          "internalType": "address",
          "name": "",
          "type": "address"
        }
      ],
      "name": "commanderHasField",
      "outputs": [
        {
          "internalType": "bool",
          "name": "",
          "type": "bool"
        }
      ],
      "stateMutability": "view",
      "type": "function"
    },
    {
      "inputs": [
        {
          "internalType": "address",
          "name": "branch",
          "type": "address"
        }
      ],
      "name": "endVote",
      "outputs": [],
      "stateMutability": "nonpayable",
      "type": "function"
    },
    {
      "inputs": [],
      "name": "expand",
      "outputs": [],
      "stateMutability": "nonpayable",
      "type": "function"
    },
    {
      "inputs": [],
      "name": "faunaArmy",
      "outputs": [
        {
          "internalType": "contract ARMY",
          "name": "",
          "type": "address"
        }
      ],
      "stateMutability": "view",
      "type": "function"
    },
    {
      "inputs": [
        {
          "internalType": "uint256",
          "name": "fieldID",
          "type": "uint256"
        },
        {
          "internalType": "uint256[]",
          "name": "attackerTeam",
          "type": "uint256[]"
        }
      ],
      "name": "faunaConquer",
      "outputs": [],
      "stateMutability": "nonpayable",
      "type": "function"
    },
    {
      "inputs": [],
      "name": "faunaFieldCount",
      "outputs": [
        {
          "internalType": "uint256",
          "name": "",
          "type": "uint256"
        }
      ],
      "stateMutability": "view",
      "type": "function"
    },
    {
      "inputs": [],
      "name": "faunaRank",
      "outputs": [
        {
          "internalType": "contract RANK",
          "name": "",
          "type": "address"
        }
      ],
      "stateMutability": "view",
      "type": "function"
    },
    {
      "inputs": [
        {
          "internalType": "address",
          "name": "branch",
          "type": "address"
        },
        {
          "internalType": "uint256",
          "name": "proposalID",
          "type": "uint256"
        },
        {
          "internalType": "uint256",
          "name": "fieldID",
          "type": "uint256"
        }
      ],
      "name": "faunaVote",
      "outputs": [],
      "stateMutability": "nonpayable",
      "type": "function"
    },
    {
      "inputs": [
        {
          "internalType": "uint256",
          "name": "",
          "type": "uint256"
        }
      ],
      "name": "fieldIsGreen",
      "outputs": [
        {
          "internalType": "bool",
          "name": "",
          "type": "bool"
        }
      ],
      "stateMutability": "view",
      "type": "function"
    },
    {
      "inputs": [],
      "name": "fieldRange",
      "outputs": [
        {
          "internalType": "uint256",
          "name": "",
          "type": "uint256"
        }
      ],
      "stateMutability": "view",
      "type": "function"
    },
    {
      "inputs": [
        {
          "internalType": "uint256",
          "name": "",
          "type": "uint256"
        },
        {
          "internalType": "uint256",
          "name": "",
          "type": "uint256"
        }
      ],
      "name": "fieldToDefender",
      "outputs": [
        {
          "internalType": "uint256",
          "name": "",
          "type": "uint256"
        }
      ],
      "stateMutability": "view",
      "type": "function"
    },
    {
      "inputs": [],
      "name": "floraArmy",
      "outputs": [
        {
          "internalType": "contract ARMY",
          "name": "",
          "type": "address"
        }
      ],
      "stateMutability": "view",
      "type": "function"
    },
    {
      "inputs": [
        {
          "internalType": "uint256",
          "name": "fieldID",
          "type": "uint256"
        },
        {
          "internalType": "uint256[]",
          "name": "attackerTeam",
          "type": "uint256[]"
        }
      ],
      "name": "floraConquer",
      "outputs": [],
      "stateMutability": "nonpayable",
      "type": "function"
    },
    {
      "inputs": [],
      "name": "floraFieldCount",
      "outputs": [
        {
          "internalType": "uint256",
          "name": "",
          "type": "uint256"
        }
      ],
      "stateMutability": "view",
      "type": "function"
    },
    {
      "inputs": [],
      "name": "floraRank",
      "outputs": [
        {
          "internalType": "contract RANK",
          "name": "",
          "type": "address"
        }
      ],
      "stateMutability": "view",
      "type": "function"
    },
    {
      "inputs": [
        {
          "internalType": "address",
          "name": "branch",
          "type": "address"
        },
        {
          "internalType": "uint256",
          "name": "proposalID",
          "type": "uint256"
        },
        {
          "internalType": "uint256",
          "name": "fieldID",
          "type": "uint256"
        }
      ],
      "name": "floraVote",
      "outputs": [],
      "stateMutability": "nonpayable",
      "type": "function"
    },
    {
      "inputs": [
        {
          "internalType": "uint256",
          "name": "fieldID",
          "type": "uint256"
        }
      ],
      "name": "getFieldDefender",
      "outputs": [
        {
          "internalType": "uint256[]",
          "name": "",
          "type": "uint256[]"
        }
      ],
      "stateMutability": "view",
      "type": "function"
    },
    {
      "inputs": [
        {
          "internalType": "address",
          "name": "branch",
          "type": "address"
        },
        {
          "internalType": "string",
          "name": "prefix",
          "type": "string"
        }
      ],
      "name": "propose",
      "outputs": [],
      "stateMutability": "nonpayable",
      "type": "function"
    },
    {
      "inputs": [
        {
          "internalType": "address",
          "name": "branch",
          "type": "address"
        }
      ],
      "name": "startVote",
      "outputs": [],
      "stateMutability": "nonpayable",
      "type": "function"
    }
  ],
  "bytecode": "60806040523480156200001157600080fd5b506040516200231a3803806200231a83398101604081905262000034916200021b565b60146005556103e8600f55600980546001600160a01b038085166001600160a01b03199283168117909355600a8054918516919092161790556040805162f8543f60e81b8152905163f8543f0091600480820192602092909190829003018186803b158015620000a357600080fd5b505afa158015620000b8573d6000803e3d6000fd5b505050506040513d601f19601f82011682018060405250810190620000de9190620001f7565b600b80546001600160a01b0319166001600160a01b03928316179055600a546040805162f8543f60e81b81529051919092169163f8543f00916004808301926020929190829003018186803b1580156200013757600080fd5b505afa1580156200014c573d6000803e3d6000fd5b505050506040513d601f19601f82011682018060405250810190620001729190620001f7565b600c80546001600160a01b0319166001600160a01b03929092169190911790556000600d819055600e556005546040519081527fdacfcb7efee486d8235fc7601ca614725fe59616dd1866521a6f45ab6d42840e9060200160405180910390a1505062000252565b80516001600160a01b0381168114620001f257600080fd5b919050565b60006020828403121562000209578081fd5b6200021482620001da565b9392505050565b600080604083850312156200022e578081fd5b6200023983620001da565b91506200024960208401620001da565b90509250929050565b6120b880620002626000396000f3fe608060405234801561001057600080fd5b50600436106101215760003560e01c80639548bfd9116100ad578063cb07b6e211610071578063cb07b6e214610261578063cda7b96614610274578063d3a7ff1314610287578063d6f0948c1461029a578063dc41c478146102ad57610121565b80639548bfd9146102095780639daedb151461021c5780639f6e1b721461022f578063b043292914610238578063b6ad0b4b1461025857610121565b80634fe8cfb9116100f45780634fe8cfb91461019457806353c5587a146101a757806361b5b7fc146101da57806378ca994b146101e35780638f4267f1146101f657610121565b80631cf28a6514610126578063233cf4721461013057806327fc9a68146101605780634bb0b62b14610181575b600080fd5b61012e6102d0565b005b600954610143906001600160a01b031681565b6040516001600160a01b0390911681526020015b60405180910390f35b61017361016e366004611de4565b61044e565b604051908152602001610157565b61012e61018f366004611d7d565b61047f565b61012e6101a2366004611d19565b610810565b6101ca6101b5366004611c0f565b60086020526000908152604090205460ff1681565b6040519015158152602001610157565b610173600e5481565b600c54610143906001600160a01b031681565b61012e610204366004611d7d565b6109b2565b61012e610217366004611d19565b610d39565b600a54610143906001600160a01b031681565b610173600d5481565b61024b610246366004611d4d565b610dde565b6040516101579190611ea9565b61017360055481565b61012e61026f366004611c0f565b610e40565b61012e610282366004611c0f565b6111c4565b600b54610143906001600160a01b031681565b61012e6102a8366004611c99565b611278565b6101ca6102bb366004611d4d565b60076020526000908152604090205460ff1681565b6005546102de906032611f75565b600a60009054906101000a90046001600160a01b03166001600160a01b0316632a0daeea6040518163ffffffff1660e01b815260040160206040518083038186803b15801561032c57600080fd5b505afa158015610340573d6000803e3d6000fd5b505050506040513d601f19601f820116820180604052508101906103649190611d65565b600960009054906101000a90046001600160a01b03166001600160a01b0316632a0daeea6040518163ffffffff1660e01b815260040160206040518083038186803b1580156103b257600080fd5b505afa1580156103c6573d6000803e3d6000fd5b505050506040513d601f19601f820116820180604052508101906103ea9190611d65565b6103f49190611f5d565b116103fe57600080fd5b6014600560008282546104119190611f5d565b90915550506005546040519081527fdacfcb7efee486d8235fc7601ca614725fe59616dd1866521a6f45ab6d42840e9060200160405180910390a1565b6006602052816000526040600020818154811061046a57600080fd5b90600052602060002001600091509150505481565b600554831061048d57600080fd5b3360009081526008602052604090205460ff16156104aa57600080fd5b60005b8181101561058257600a5433906001600160a01b0316636352211e8585858181106104e857634e487b7160e01b600052603260045260246000fd5b905060200201356040518263ffffffff1660e01b815260040161050d91815260200190565b60206040518083038186803b15801561052557600080fd5b505afa158015610539573d6000803e3d6000fd5b505050506040513d601f19601f8201168201806040525081019061055d9190611c32565b6001600160a01b03161461057057600080fd5b8061057a8161203c565b9150506104ad565b506000838152600660209081526040808320805482518185028101850190935280835291929091908301828280156105d957602002820191906000526020600020905b8154815260200190600101908083116105c5575b5050505050905060008151111561074d5760008481526007602052604090205460ff1661060557600080fd5b600a546040805160208086028281018201909352858252610659936001600160a01b031692879187918291850190849080828437600092019190915250506009546001600160a01b03169150859050611335565b600954815160009160089183916001600160a01b031690636352211e908690849061069457634e487b7160e01b600052603260045260246000fd5b60200260200101516040518263ffffffff1660e01b81526004016106ba91815260200190565b60206040518083038186803b1580156106d257600080fd5b505afa1580156106e6573d6000803e3d6000fd5b505050506040513d601f19601f8201168201806040525081019061070a9190611c32565b6001600160a01b0316815260208101919091526040016000908120805460ff191692151592909217909155600d80549161074383611fea565b919050555061075a565b6001821461075a57600080fd5b6000848152600660205260409020610773908484611aa4565b506000848152600760209081526040808320805460ff199081169091558383528184208054821690553384526008909252822080549091166001179055600e8054916107be8361203c565b9190505550336001600160a01b0316847f1132c288e9be7c8db51cc2e4368fdf75b514552c5326c65de7e36d72cb5bae8e8585600060405161080293929190611e68565b60405180910390a350505050565b6001600160a01b038316600090815260046020526040902054839060ff1661083757600080fd5b6001600160a01b03811660009081526001602052604090205461085957600080fd5b60008281526020819052604090205460ff161561087557600080fd5b6009546000838152600660205260408120805433936001600160a01b031692636352211e92916108b557634e487b7160e01b600052603260045260246000fd5b90600052602060002001546040518263ffffffff1660e01b81526004016108de91815260200190565b60206040518083038186803b1580156108f657600080fd5b505afa15801561090a573d6000803e3d6000fd5b505050506040513d601f19601f8201168201806040525081019061092e9190611c32565b6001600160a01b03161461094157600080fd5b6001600160a01b038416600090815260026020526040902080548490811061097957634e487b7160e01b600052603260045260246000fd5b6000918252602082200180549161098f8361203c565b9091555050506000908152602081905260409020805460ff191660011790555050565b60055483106109c057600080fd5b3360009081526008602052604090205460ff16156109dd57600080fd5b60005b81811015610ab55760095433906001600160a01b0316636352211e858585818110610a1b57634e487b7160e01b600052603260045260246000fd5b905060200201356040518263ffffffff1660e01b8152600401610a4091815260200190565b60206040518083038186803b158015610a5857600080fd5b505afa158015610a6c573d6000803e3d6000fd5b505050506040513d601f19601f82011682018060405250810190610a909190611c32565b6001600160a01b031614610aa357600080fd5b80610aad8161203c565b9150506109e0565b50600083815260066020908152604080832080548251818502810185019093528083529192909190830182828015610b0c57602002820191906000526020600020905b815481526020019060010190808311610af8575b50505050509050600081511115610c815760008481526007602052604090205460ff1615610b3957600080fd5b6009546040805160208086028281018201909352858252610b8d936001600160a01b03169287918791829185019084908082843760009201919091525050600a546001600160a01b03169150859050611335565b600a54815160009160089183916001600160a01b031690636352211e9086908490610bc857634e487b7160e01b600052603260045260246000fd5b60200260200101516040518263ffffffff1660e01b8152600401610bee91815260200190565b60206040518083038186803b158015610c0657600080fd5b505afa158015610c1a573d6000803e3d6000fd5b505050506040513d601f19601f82011682018060405250810190610c3e9190611c32565b6001600160a01b0316815260208101919091526040016000908120805460ff191692151592909217909155600e805491610c7783611fea565b9190505550610c8e565b60018214610c8e57600080fd5b6000848152600660205260409020610ca7908484611aa4565b5060008481526007602090815260408083208054600160ff19918216811790925584845282852080548216905533855260089093529083208054909216179055600d805491610cf58361203c565b9190505550336001600160a01b0316847f1132c288e9be7c8db51cc2e4368fdf75b514552c5326c65de7e36d72cb5bae8e8585600160405161080293929190611e68565b6001600160a01b038316600090815260046020526040902054839060ff16610d6057600080fd5b6001600160a01b038116600090815260016020526040902054610d8257600080fd5b60008281526020819052604090205460ff1615610d9e57600080fd5b600a546000838152600660205260408120805433936001600160a01b031692636352211e92916108b557634e487b7160e01b600052603260045260246000fd5b6000818152600660209081526040808320805482518185028101850190935280835260609493830182828015610e3357602002820191906000526020600020905b815481526020019060010190808311610e1f575b5093979650505050505050565b6001600160a01b038116600090815260046020526040902054819060ff16610e6757600080fd5b6001600160a01b038116600090815260016020526040902054610e8957600080fd5b6001600160a01b0382166000908152600360205260409020544290610eb19062093a80611f5d565b811015610ebd57600080fd5b6001600160a01b038316600090815260036020908152604080832084905560028252808320805482518185028101850190935280835284938493929190830182828015610f2957602002820191906000526020600020905b815481526020019060010190808311610f15575b5050505050905060005b8151811015610fab5783828281518110610f5d57634e487b7160e01b600052603260045260246000fd5b60200260200101511115610f9957818181518110610f8b57634e487b7160e01b600052603260045260246000fd5b602002602001015193508092505b80610fa38161203c565b915050610f33565b506001600160a01b0386166000908152600160205260408120805484908110610fe457634e487b7160e01b600052603260045260246000fd5b906000526020600020018054610ff990612001565b80601f016020809104026020016040519081016040528092919081815260200182805461102590612001565b80156110725780601f1061104757610100808354040283529160200191611072565b820191906000526020600020905b81548152906001019060200180831161105557829003601f168201915b50505050509050600e54600d54106110e957600b5460405163350c02f160e11b81526001600160a01b0390911690636a1805e2906110b6908a908590600401611e05565b600060405180830381600087803b1580156110d057600080fd5b505af11580156110e4573d6000803e3d6000fd5b505050505b600d54600e541061115957600c5460405163350c02f160e11b81526001600160a01b0390911690636a1805e290611126908a908590600401611e05565b600060405180830381600087803b15801561114057600080fd5b505af1158015611154573d6000803e3d6000fd5b505050505b6001600160a01b038716600090815260016020526040812061117a91611aef565b6001600160a01b038716600090815260026020526040812061119b91611b10565b5050506001600160a01b039093166000908152600460205260409020805460ff19169055505050565b6001600160a01b038116600090815260046020526040902054819060ff16156111ec57600080fd5b6001600160a01b03821660009081526001602052604090205461120e57600080fd5b6001600160a01b0382166000908152600360205260409020544290611236906224ea00611f5d565b81101561124257600080fd5b6001600160a01b039092166000908152600360209081526040808320949094556004905291909120805460ff1916600117905550565b6001600160a01b038316600090815260046020526040902054839060ff16156112a057600080fd5b6001600160a01b038416600090815260016020818152604083208054928301815583529091206112d291018484611b2e565b506001600160a01b03841660008181526002602090815260408083208054600181018255908452918320909101919091555133907f01db66ff68c851d8b91e62a879d372d17a2dbfaa5a5b64dd3b09cded0a5ec7f3906108029087908790611eed565b600181516113439190611fd3565b835114156115fe576000806000846001600160a01b031663df069b118560008151811061138057634e487b7160e01b600052603260045260246000fd5b60200260200101516040518263ffffffff1660e01b81526004016113a691815260200190565b60806040518083038186803b1580156113be57600080fd5b505afa1580156113d2573d6000803e3d6000fd5b505050506040513d601f19601f820116820180604052508101906113f69190611c4e565b9350509250925060008261140c5750600061141c565b600f546114199083611f94565b90505b60005b87518110156115f45760008060008b6001600160a01b031663df069b118c868151811061145c57634e487b7160e01b600052603260045260246000fd5b60200260200101516040518263ffffffff1660e01b815260040161148291815260200190565b60806040518083038186803b15801561149a57600080fd5b505afa1580156114ae573d6000803e3d6000fd5b505050506040513d601f19601f820116820180604052508101906114d29190611c4e565b9350509250925060008060008c6001600160a01b031663df069b118d8960016114fb9190611f5d565b8151811061151957634e487b7160e01b600052603260045260246000fd5b60200260200101516040518263ffffffff1660e01b815260040161153f91815260200190565b60806040518083038186803b15801561155757600080fd5b505afa15801561156b573d6000803e3d6000fd5b505050506040513d601f19601f8201168201806040525081019061158f9190611c4e565b935050925092508480156115b45750826001600160a01b0316866001600160a01b0316145b6115bd57600080fd5b8115806115d257506115cf8882611f1c565b84135b6115db57600080fd5b50505050505080806115ec9061203c565b91505061141f565b5050505050611a9e565b8051835114156117d15760005b81518110156117cb576000806000876001600160a01b031663df069b1188868151811061164857634e487b7160e01b600052603260045260246000fd5b60200260200101516040518263ffffffff1660e01b815260040161166e91815260200190565b60806040518083038186803b15801561168657600080fd5b505afa15801561169a573d6000803e3d6000fd5b505050506040513d601f19601f820116820180604052508101906116be9190611c4e565b935050925092506000806000886001600160a01b031663df069b118989815181106116f957634e487b7160e01b600052603260045260246000fd5b60200260200101516040518263ffffffff1660e01b815260040161171f91815260200190565b60806040518083038186803b15801561173757600080fd5b505afa15801561174b573d6000803e3d6000fd5b505050506040513d601f19601f8201168201806040525081019061176f9190611c4e565b935050925092508480156117945750826001600160a01b0316866001600160a01b0316145b61179d57600080fd5b8115806117a957508084135b6117b257600080fd5b50505050505080806117c39061203c565b91505061160b565b50611a9e565b80516117de906001611f5d565b83511415610121576000806000866001600160a01b031663df069b118786518151811061181b57634e487b7160e01b600052603260045260246000fd5b60200260200101516040518263ffffffff1660e01b815260040161184191815260200190565b60806040518083038186803b15801561185957600080fd5b505afa15801561186d573d6000803e3d6000fd5b505050506040513d601f19601f820116820180604052508101906118919190611c4e565b93505092509250816118a257600080fd5b6000600f54826118b29190611f94565b905060005b85518110156115f45760008060008b6001600160a01b031663df069b118c86815181106118f457634e487b7160e01b600052603260045260246000fd5b60200260200101516040518263ffffffff1660e01b815260040161191a91815260200190565b60806040518083038186803b15801561193257600080fd5b505afa158015611946573d6000803e3d6000fd5b505050506040513d601f19601f8201168201806040525081019061196a9190611c4e565b9350509250925060008060008c6001600160a01b031663df069b118d89815181106119a557634e487b7160e01b600052603260045260246000fd5b60200260200101516040518263ffffffff1660e01b81526004016119cb91815260200190565b60806040518083038186803b1580156119e357600080fd5b505afa1580156119f7573d6000803e3d6000fd5b505050506040513d601f19601f82011682018060405250810190611a1b9190611c4e565b93505092509250848015611a405750826001600160a01b0316866001600160a01b0316145b8015611a5e5750826001600160a01b03168b6001600160a01b031614155b611a6757600080fd5b811580611a7c575080611a7a8986611f1c565b135b611a8557600080fd5b5050505050508080611a969061203c565b9150506118b7565b50505050565b828054828255906000526020600020908101928215611adf579160200282015b82811115611adf578235825591602001919060010190611ac4565b50611aeb929150611ba1565b5090565b5080546000825590600052602060002090810190611b0d9190611bb6565b50565b5080546000825590600052602060002090810190611b0d9190611ba1565b828054611b3a90612001565b90600052602060002090601f016020900481019282611b5c5760008555611adf565b82601f10611b755782800160ff19823516178555611adf565b82800160010185558215611adf5791820182811115611adf578235825591602001919060010190611ac4565b5b80821115611aeb5760008155600101611ba2565b80821115611aeb576000611bca8282611bd3565b50600101611bb6565b508054611bdf90612001565b6000825580601f10611bf15750611b0d565b601f016020900490600052602060002090810190611b0d9190611ba1565b600060208284031215611c20578081fd5b8135611c2b8161206d565b9392505050565b600060208284031215611c43578081fd5b8151611c2b8161206d565b60008060008060808587031215611c63578283fd5b8451611c6e8161206d565b60208601519094508015158114611c83578384fd5b6040860151606090960151949790965092505050565b600080600060408486031215611cad578283fd5b8335611cb88161206d565b9250602084013567ffffffffffffffff80821115611cd4578384fd5b818601915086601f830112611ce7578384fd5b813581811115611cf5578485fd5b876020828501011115611d06578485fd5b6020830194508093505050509250925092565b600080600060608486031215611d2d578283fd5b8335611d388161206d565b95602085013595506040909401359392505050565b600060208284031215611d5e578081fd5b5035919050565b600060208284031215611d76578081fd5b5051919050565b600080600060408486031215611d91578283fd5b83359250602084013567ffffffffffffffff80821115611daf578384fd5b818601915086601f830112611dc2578384fd5b813581811115611dd0578485fd5b8760208260051b8501011115611d06578485fd5b60008060408385031215611df6578182fd5b50508035926020909101359150565b600060018060a01b038416825260206040818401528351806040850152825b81811015611e4057858101830151858201606001528201611e24565b81811115611e515783606083870101525b50601f01601f191692909201606001949350505050565b6040808252810183905260006001600160fb1b03841115611e87578081fd5b8360051b80866060850137820160600190815291151560209091015292915050565b6020808252825182820181905260009190848201906040850190845b81811015611ee157835183529284019291840191600101611ec5565b50909695505050505050565b60006020825282602083015282846040840137818301604090810191909152601f909201601f19160101919050565b600080821280156001600160ff1b0384900385131615611f3e57611f3e612057565b600160ff1b8390038412811615611f5757611f57612057565b50500190565b60008219821115611f7057611f70612057565b500190565b6000816000190483118215151615611f8f57611f8f612057565b500290565b60008083128015600160ff1b850184121615611fb257611fb2612057565b6001600160ff1b0384018313811615611fcd57611fcd612057565b50500390565b600082821015611fe557611fe5612057565b500390565b600081611ff957611ff9612057565b506000190190565b600181811c9082168061201557607f821691505b6020821081141561203657634e487b7160e01b600052602260045260246000fd5b50919050565b600060001982141561205057612050612057565b5060010190565b634e487b7160e01b600052601160045260246000fd5b6001600160a01b0381168114611b0d57600080fdfea2646970667358221220aaceb730ba4dab0bf73f49fe7922bd8485bc256647ec693ba1cb809095a0ae8c64736f6c63430008030033",
  "bytecodeSha1": "1d724d47e73746470e0a1a58446b0b383a0bb522",
  "compiler": {
    "evm_version": "istanbul",
    "optimizer": {
      "enabled": true,
      "runs": 200
    },
    "version": "0.8.3+commit.8d00100c"
  },
  "contractName": "Battlefield",
  "language": "Solidity",
  "natspec": {
    "kind": "dev",
    "methods": {},
    "version": 1
  },
  "opcodes": "PUSH1 0x80 PUSH1 0x40 MSTORE CALLVALUE DUP1 ISZERO PUSH2 0x10 JUMPI PUSH1 0x0 DUP1 REVERT JUMPDEST POP PUSH1 0x4 CALLDATASIZE LT PUSH2 0x121 JUMPI PUSH1 0x0 CALLDATALOAD PUSH1 0xE0 SHR DUP1 PUSH4 0x9548BFD9 GT PUSH2 0xAD JUMPI DUP1 PUSH4 0xCB07B6E2 GT PUSH2 0x71 JUMPI DUP1 PUSH4 0xCB07B6E2 EQ PUSH2 0x261 JUMPI DUP1 PUSH4 0xCDA7B966 EQ PUSH2 0x274 JUMPI DUP1 PUSH4 0xD3A7FF13 EQ PUSH2 0x287 JUMPI DUP1 PUSH4 0xD6F0948C EQ PUSH2 0x29A JUMPI DUP1 PUSH4 0xDC41C478 EQ PUSH2 0x2AD JUMPI PUSH2 0x121 JUMP JUMPDEST DUP1 PUSH4 0x9548BFD9 EQ PUSH2 0x209 JUMPI DUP1 PUSH4 0x9DAEDB15 EQ PUSH2 0x21C JUMPI DUP1 PUSH4 0x9F6E1B72 EQ PUSH2 0x22F JUMPI DUP1 PUSH4 0xB0432929 EQ PUSH2 0x238 JUMPI DUP1 PUSH4 0xB6AD0B4B EQ PUSH2 0x258 JUMPI PUSH2 0x121 JUMP JUMPDEST DUP1 PUSH4 0x4FE8CFB9 GT PUSH2 0xF4 JUMPI DUP1 PUSH4 0x4FE8CFB9 EQ PUSH2 0x194 JUMPI DUP1 PUSH4 0x53C5587A EQ PUSH2 0x1A7 JUMPI DUP1 PUSH4 0x61B5B7FC EQ PUSH2 0x1DA JUMPI DUP1 PUSH4 0x78CA994B EQ PUSH2 0x1E3 JUMPI DUP1 PUSH4 0x8F4267F1 EQ PUSH2 0x1F6 JUMPI PUSH2 0x121 JUMP JUMPDEST DUP1 PUSH4 0x1CF28A65 EQ PUSH2 0x126 JUMPI DUP1 PUSH4 0x233CF472 EQ PUSH2 0x130 JUMPI DUP1 PUSH4 0x27FC9A68 EQ PUSH2 0x160 JUMPI DUP1 PUSH4 0x4BB0B62B EQ PUSH2 0x181 JUMPI JUMPDEST PUSH1 0x0 DUP1 REVERT JUMPDEST PUSH2 0x12E PUSH2 0x2D0 JUMP JUMPDEST STOP JUMPDEST PUSH1 0x9 SLOAD PUSH2 0x143 SWAP1 PUSH1 0x1 PUSH1 0x1 PUSH1 0xA0 SHL SUB AND DUP2 JUMP JUMPDEST PUSH1 0x40 MLOAD PUSH1 0x1 PUSH1 0x1 PUSH1 0xA0 SHL SUB SWAP1 SWAP2 AND DUP2 MSTORE PUSH1 0x20 ADD JUMPDEST PUSH1 0x40 MLOAD DUP1 SWAP2 SUB SWAP1 RETURN JUMPDEST PUSH2 0x173 PUSH2 0x16E CALLDATASIZE PUSH1 0x4 PUSH2 0x1DE4 JUMP JUMPDEST PUSH2 0x44E JUMP JUMPDEST PUSH1 0x40 MLOAD SWAP1 DUP2 MSTORE PUSH1 0x20 ADD PUSH2 0x157 JUMP JUMPDEST PUSH2 0x12E PUSH2 0x18F CALLDATASIZE PUSH1 0x4 PUSH2 0x1D7D JUMP JUMPDEST PUSH2 0x47F JUMP JUMPDEST PUSH2 0x12E PUSH2 0x1A2 CALLDATASIZE PUSH1 0x4 PUSH2 0x1D19 JUMP JUMPDEST PUSH2 0x810 JUMP JUMPDEST PUSH2 0x1CA PUSH2 0x1B5 CALLDATASIZE PUSH1 0x4 PUSH2 0x1C0F JUMP JUMPDEST PUSH1 0x8 PUSH1 0x20 MSTORE PUSH1 0x0 SWAP1 DUP2 MSTORE PUSH1 0x40 SWAP1 KECCAK256 SLOAD PUSH1 0xFF AND DUP2 JUMP JUMPDEST PUSH1 0x40 MLOAD SWAP1 ISZERO ISZERO DUP2 MSTORE PUSH1 0x20 ADD PUSH2 0x157 JUMP JUMPDEST PUSH2 0x173 PUSH1 0xE SLOAD DUP2 JUMP JUMPDEST PUSH1 0xC SLOAD PUSH2 0x143 SWAP1 PUSH1 0x1 PUSH1 0x1 PUSH1 0xA0 SHL SUB AND DUP2 JUMP JUMPDEST PUSH2 0x12E PUSH2 0x204 CALLDATASIZE PUSH1 0x4 PUSH2 0x1D7D JUMP JUMPDEST PUSH2 0x9B2 JUMP JUMPDEST PUSH2 0x12E PUSH2 0x217 CALLDATASIZE PUSH1 0x4 PUSH2 0x1D19 JUMP JUMPDEST PUSH2 0xD39 JUMP JUMPDEST PUSH1 0xA SLOAD PUSH2 0x143 SWAP1 PUSH1 0x1 PUSH1 0x1 PUSH1 0xA0 SHL SUB AND DUP2 JUMP JUMPDEST PUSH2 0x173 PUSH1 0xD SLOAD DUP2 JUMP JUMPDEST PUSH2 0x24B PUSH2 0x246 CALLDATASIZE PUSH1 0x4 PUSH2 0x1D4D JUMP JUMPDEST PUSH2 0xDDE JUMP JUMPDEST PUSH1 0x40 MLOAD PUSH2 0x157 SWAP2 SWAP1 PUSH2 0x1EA9 JUMP JUMPDEST PUSH2 0x173 PUSH1 0x5 SLOAD DUP2 JUMP JUMPDEST PUSH2 0x12E PUSH2 0x26F CALLDATASIZE PUSH1 0x4 PUSH2 0x1C0F JUMP JUMPDEST PUSH2 0xE40 JUMP JUMPDEST PUSH2 0x12E PUSH2 0x282 CALLDATASIZE PUSH1 0x4 PUSH2 0x1C0F JUMP JUMPDEST PUSH2 0x11C4 JUMP JUMPDEST PUSH1 0xB SLOAD PUSH2 0x143 SWAP1 PUSH1 0x1 PUSH1 0x1 PUSH1 0xA0 SHL SUB AND DUP2 JUMP JUMPDEST PUSH2 0x12E PUSH2 0x2A8 CALLDATASIZE PUSH1 0x4 PUSH2 0x1C99 JUMP JUMPDEST PUSH2 0x1278 JUMP JUMPDEST PUSH2 0x1CA PUSH2 0x2BB CALLDATASIZE PUSH1 0x4 PUSH2 0x1D4D JUMP JUMPDEST PUSH1 0x7 PUSH1 0x20 MSTORE PUSH1 0x0 SWAP1 DUP2 MSTORE PUSH1 0x40 SWAP1 KECCAK256 SLOAD PUSH1 0xFF AND DUP2 JUMP JUMPDEST PUSH1 0x5 SLOAD PUSH2 0x2DE SWAP1 PUSH1 0x32 PUSH2 0x1F75 JUMP JUMPDEST PUSH1 0xA PUSH1 0x0 SWAP1 SLOAD SWAP1 PUSH2 0x100 EXP SWAP1 DIV PUSH1 0x1 PUSH1 0x1 PUSH1 0xA0 SHL SUB AND PUSH1 0x1 PUSH1 0x1 PUSH1 0xA0 SHL SUB AND PUSH4 0x2A0DAEEA PUSH1 0x40 MLOAD DUP2 PUSH4 0xFFFFFFFF AND PUSH1 0xE0 SHL DUP2 MSTORE PUSH1 0x4 ADD PUSH1 0x20 PUSH1 0x40 MLOAD DUP1 DUP4 SUB DUP2 DUP7 DUP1 EXTCODESIZE ISZERO DUP1 ISZERO PUSH2 0x32C JUMPI PUSH1 0x0 DUP1 REVERT JUMPDEST POP GAS STATICCALL ISZERO DUP1 ISZERO PUSH2 0x340 JUMPI RETURNDATASIZE PUSH1 0x0 DUP1 RETURNDATACOPY RETURNDATASIZE PUSH1 0x0 REVERT JUMPDEST POP POP POP POP PUSH1 0x40 MLOAD RETURNDATASIZE PUSH1 0x1F NOT PUSH1 0x1F DUP3 ADD AND DUP3 ADD DUP1 PUSH1 0x40 MSTORE POP DUP2 ADD SWAP1 PUSH2 0x364 SWAP2 SWAP1 PUSH2 0x1D65 JUMP JUMPDEST PUSH1 0x9 PUSH1 0x0 SWAP1 SLOAD SWAP1 PUSH2 0x100 EXP SWAP1 DIV PUSH1 0x1 PUSH1 0x1 PUSH1 0xA0 SHL SUB AND PUSH1 0x1 PUSH1 0x1 PUSH1 0xA0 SHL SUB AND PUSH4 0x2A0DAEEA PUSH1 0x40 MLOAD DUP2 PUSH4 0xFFFFFFFF AND PUSH1 0xE0 SHL DUP2 MSTORE PUSH1 0x4 ADD PUSH1 0x20 PUSH1 0x40 MLOAD DUP1 DUP4 SUB DUP2 DUP7 DUP1 EXTCODESIZE ISZERO DUP1 ISZERO PUSH2 0x3B2 JUMPI PUSH1 0x0 DUP1 REVERT JUMPDEST POP GAS STATICCALL ISZERO DUP1 ISZERO PUSH2 0x3C6 JUMPI RETURNDATASIZE PUSH1 0x0 DUP1 RETURNDATACOPY RETURNDATASIZE PUSH1 0x0 REVERT JUMPDEST POP POP POP POP PUSH1 0x40 MLOAD RETURNDATASIZE PUSH1 0x1F NOT PUSH1 0x1F DUP3 ADD AND DUP3 ADD DUP1 PUSH1 0x40 MSTORE POP DUP2 ADD SWAP1 PUSH2 0x3EA SWAP2 SWAP1 PUSH2 0x1D65 JUMP JUMPDEST PUSH2 0x3F4 SWAP2 SWAP1 PUSH2 0x1F5D JUMP JUMPDEST GT PUSH2 0x3FE JUMPI PUSH1 0x0 DUP1 REVERT JUMPDEST PUSH1 0x14 PUSH1 0x5 PUSH1 0x0 DUP3 DUP3 SLOAD PUSH2 0x411 SWAP2 SWAP1 PUSH2 0x1F5D JUMP JUMPDEST SWAP1 SWAP2 SSTORE POP POP PUSH1 0x5 SLOAD PUSH1 0x40 MLOAD SWAP1 DUP2 MSTORE PUSH32 0xDACFCB7EFEE486D8235FC7601CA614725FE59616DD1866521A6F45AB6D42840E SWAP1 PUSH1 0x20 ADD PUSH1 0x40 MLOAD DUP1 SWAP2 SUB SWAP1 LOG1 JUMP JUMPDEST PUSH1 0x6 PUSH1 0x20 MSTORE DUP2 PUSH1 0x0 MSTORE PUSH1 0x40 PUSH1 0x0 KECCAK256 DUP2 DUP2 SLOAD DUP2 LT PUSH2 0x46A JUMPI PUSH1 0x0 DUP1 REVERT JUMPDEST SWAP1 PUSH1 0x0 MSTORE PUSH1 0x20 PUSH1 0x0 KECCAK256 ADD PUSH1 0x0 SWAP2 POP SWAP2 POP POP SLOAD DUP2 JUMP JUMPDEST PUSH1 0x5 SLOAD DUP4 LT PUSH2 0x48D JUMPI PUSH1 0x0 DUP1 REVERT JUMPDEST CALLER PUSH1 0x0 SWAP1 DUP2 MSTORE PUSH1 0x8 PUSH1 0x20 MSTORE PUSH1 0x40 SWAP1 KECCAK256 SLOAD PUSH1 0xFF AND ISZERO PUSH2 0x4AA JUMPI PUSH1 0x0 DUP1 REVERT JUMPDEST PUSH1 0x0 JUMPDEST DUP2 DUP2 LT ISZERO PUSH2 0x582 JUMPI PUSH1 0xA SLOAD CALLER SWAP1 PUSH1 0x1 PUSH1 0x1 PUSH1 0xA0 SHL SUB AND PUSH4 0x6352211E DUP6 DUP6 DUP6 DUP2 DUP2 LT PUSH2 0x4E8 JUMPI PUSH4 0x4E487B71 PUSH1 0xE0 SHL PUSH1 0x0 MSTORE PUSH1 0x32 PUSH1 0x4 MSTORE PUSH1 0x24 PUSH1 0x0 REVERT JUMPDEST SWAP1 POP PUSH1 0x20 MUL ADD CALLDATALOAD PUSH1 0x40 MLOAD DUP3 PUSH4 0xFFFFFFFF AND PUSH1 0xE0 SHL DUP2 MSTORE PUSH1 0x4 ADD PUSH2 0x50D SWAP2 DUP2 MSTORE PUSH1 0x20 ADD SWAP1 JUMP JUMPDEST PUSH1 0x20 PUSH1 0x40 MLOAD DUP1 DUP4 SUB DUP2 DUP7 DUP1 EXTCODESIZE ISZERO DUP1 ISZERO PUSH2 0x525 JUMPI PUSH1 0x0 DUP1 REVERT JUMPDEST POP GAS STATICCALL ISZERO DUP1 ISZERO PUSH2 0x539 JUMPI RETURNDATASIZE PUSH1 0x0 DUP1 RETURNDATACOPY RETURNDATASIZE PUSH1 0x0 REVERT JUMPDEST POP POP POP POP PUSH1 0x40 MLOAD RETURNDATASIZE PUSH1 0x1F NOT PUSH1 0x1F DUP3 ADD AND DUP3 ADD DUP1 PUSH1 0x40 MSTORE POP DUP2 ADD SWAP1 PUSH2 0x55D SWAP2 SWAP1 PUSH2 0x1C32 JUMP JUMPDEST PUSH1 0x1 PUSH1 0x1 PUSH1 0xA0 SHL SUB AND EQ PUSH2 0x570 JUMPI PUSH1 0x0 DUP1 REVERT JUMPDEST DUP1 PUSH2 0x57A DUP2 PUSH2 0x203C JUMP JUMPDEST SWAP2 POP POP PUSH2 0x4AD JUMP JUMPDEST POP PUSH1 0x0 DUP4 DUP2 MSTORE PUSH1 0x6 PUSH1 0x20 SWAP1 DUP2 MSTORE PUSH1 0x40 DUP1 DUP4 KECCAK256 DUP1 SLOAD DUP3 MLOAD DUP2 DUP6 MUL DUP2 ADD DUP6 ADD SWAP1 SWAP4 MSTORE DUP1 DUP4 MSTORE SWAP2 SWAP3 SWAP1 SWAP2 SWAP1 DUP4 ADD DUP3 DUP3 DUP1 ISZERO PUSH2 0x5D9 JUMPI PUSH1 0x20 MUL DUP3 ADD SWAP2 SWAP1 PUSH1 0x0 MSTORE PUSH1 0x20 PUSH1 0x0 KECCAK256 SWAP1 JUMPDEST DUP2 SLOAD DUP2 MSTORE PUSH1 0x20 ADD SWAP1 PUSH1 0x1 ADD SWAP1 DUP1 DUP4 GT PUSH2 0x5C5 JUMPI JUMPDEST POP POP POP POP POP SWAP1 POP PUSH1 0x0 DUP2 MLOAD GT ISZERO PUSH2 0x74D JUMPI PUSH1 0x0 DUP5 DUP2 MSTORE PUSH1 0x7 PUSH1 0x20 MSTORE PUSH1 0x40 SWAP1 KECCAK256 SLOAD PUSH1 0xFF AND PUSH2 0x605 JUMPI PUSH1 0x0 DUP1 REVERT JUMPDEST PUSH1 0xA SLOAD PUSH1 0x40 DUP1 MLOAD PUSH1 0x20 DUP1 DUP7 MUL DUP3 DUP2 ADD DUP3 ADD SWAP1 SWAP4 MSTORE DUP6 DUP3 MSTORE PUSH2 0x659 SWAP4 PUSH1 0x1 PUSH1 0x1 PUSH1 0xA0 SHL SUB AND SWAP3 DUP8 SWAP2 DUP8 SWAP2 DUP3 SWAP2 DUP6 ADD SWAP1 DUP5 SWAP1 DUP1 DUP3 DUP5 CALLDATACOPY PUSH1 0x0 SWAP3 ADD SWAP2 SWAP1 SWAP2 MSTORE POP POP PUSH1 0x9 SLOAD PUSH1 0x1 PUSH1 0x1 PUSH1 0xA0 SHL SUB AND SWAP2 POP DUP6 SWAP1 POP PUSH2 0x1335 JUMP JUMPDEST PUSH1 0x9 SLOAD DUP2 MLOAD PUSH1 0x0 SWAP2 PUSH1 0x8 SWAP2 DUP4 SWAP2 PUSH1 0x1 PUSH1 0x1 PUSH1 0xA0 SHL SUB AND SWAP1 PUSH4 0x6352211E SWAP1 DUP7 SWAP1 DUP5 SWAP1 PUSH2 0x694 JUMPI PUSH4 0x4E487B71 PUSH1 0xE0 SHL PUSH1 0x0 MSTORE PUSH1 0x32 PUSH1 0x4 MSTORE PUSH1 0x24 PUSH1 0x0 REVERT JUMPDEST PUSH1 0x20 MUL PUSH1 0x20 ADD ADD MLOAD PUSH1 0x40 MLOAD DUP3 PUSH4 0xFFFFFFFF AND PUSH1 0xE0 SHL DUP2 MSTORE PUSH1 0x4 ADD PUSH2 0x6BA SWAP2 DUP2 MSTORE PUSH1 0x20 ADD SWAP1 JUMP JUMPDEST PUSH1 0x20 PUSH1 0x40 MLOAD DUP1 DUP4 SUB DUP2 DUP7 DUP1 EXTCODESIZE ISZERO DUP1 ISZERO PUSH2 0x6D2 JUMPI PUSH1 0x0 DUP1 REVERT JUMPDEST POP GAS STATICCALL ISZERO DUP1 ISZERO PUSH2 0x6E6 JUMPI RETURNDATASIZE PUSH1 0x0 DUP1 RETURNDATACOPY RETURNDATASIZE PUSH1 0x0 REVERT JUMPDEST POP POP POP POP PUSH1 0x40 MLOAD RETURNDATASIZE PUSH1 0x1F NOT PUSH1 0x1F DUP3 ADD AND DUP3 ADD DUP1 PUSH1 0x40 MSTORE POP DUP2 ADD SWAP1 PUSH2 0x70A SWAP2 SWAP1 PUSH2 0x1C32 JUMP JUMPDEST PUSH1 0x1 PUSH1 0x1 PUSH1 0xA0 SHL SUB AND DUP2 MSTORE PUSH1 0x20 DUP2 ADD SWAP2 SWAP1 SWAP2 MSTORE PUSH1 0x40 ADD PUSH1 0x0 SWAP1 DUP2 KECCAK256 DUP1 SLOAD PUSH1 0xFF NOT AND SWAP3 ISZERO ISZERO SWAP3 SWAP1 SWAP3 OR SWAP1 SWAP2 SSTORE PUSH1 0xD DUP1 SLOAD SWAP2 PUSH2 0x743 DUP4 PUSH2 0x1FEA JUMP JUMPDEST SWAP2 SWAP1 POP SSTORE POP PUSH2 0x75A JUMP JUMPDEST PUSH1 0x1 DUP3 EQ PUSH2 0x75A JUMPI PUSH1 0x0 DUP1 REVERT JUMPDEST PUSH1 0x0 DUP5 DUP2 MSTORE PUSH1 0x6 PUSH1 0x20 MSTORE PUSH1 0x40 SWAP1 KECCAK256 PUSH2 0x773 SWAP1 DUP5 DUP5 PUSH2 0x1AA4 JUMP JUMPDEST POP PUSH1 0x0 DUP5 DUP2 MSTORE PUSH1 0x7 PUSH1 0x20 SWAP1 DUP2 MSTORE PUSH1 0x40 DUP1 DUP4 KECCAK256 DUP1 SLOAD PUSH1 0xFF NOT SWAP1 DUP2 AND SWAP1 SWAP2 SSTORE DUP4 DUP4 MSTORE DUP2 DUP5 KECCAK256 DUP1 SLOAD DUP3 AND SWAP1 SSTORE CALLER DUP5 MSTORE PUSH1 0x8 SWAP1 SWAP3 MSTORE DUP3 KECCAK256 DUP1 SLOAD SWAP1 SWAP2 AND PUSH1 0x1 OR SWAP1 SSTORE PUSH1 0xE DUP1 SLOAD SWAP2 PUSH2 0x7BE DUP4 PUSH2 0x203C JUMP JUMPDEST SWAP2 SWAP1 POP SSTORE POP CALLER PUSH1 0x1 PUSH1 0x1 PUSH1 0xA0 SHL SUB AND DUP5 PUSH32 0x1132C288E9BE7C8DB51CC2E4368FDF75B514552C5326C65DE7E36D72CB5BAE8E DUP6 DUP6 PUSH1 0x0 PUSH1 0x40 MLOAD PUSH2 0x802 SWAP4 SWAP3 SWAP2 SWAP1 PUSH2 0x1E68 JUMP JUMPDEST PUSH1 0x40 MLOAD DUP1 SWAP2 SUB SWAP1 LOG3 POP POP POP POP JUMP JUMPDEST PUSH1 0x1 PUSH1 0x1 PUSH1 0xA0 SHL SUB DUP4 AND PUSH1 0x0 SWAP1 DUP2 MSTORE PUSH1 0x4 PUSH1 0x20 MSTORE PUSH1 0x40 SWAP1 KECCAK256 SLOAD DUP4 SWAP1 PUSH1 0xFF AND PUSH2 0x837 JUMPI PUSH1 0x0 DUP1 REVERT JUMPDEST PUSH1 0x1 PUSH1 0x1 PUSH1 0xA0 SHL SUB DUP2 AND PUSH1 0x0 SWAP1 DUP2 MSTORE PUSH1 0x1 PUSH1 0x20 MSTORE PUSH1 0x40 SWAP1 KECCAK256 SLOAD PUSH2 0x859 JUMPI PUSH1 0x0 DUP1 REVERT JUMPDEST PUSH1 0x0 DUP3 DUP2 MSTORE PUSH1 0x20 DUP2 SWAP1 MSTORE PUSH1 0x40 SWAP1 KECCAK256 SLOAD PUSH1 0xFF AND ISZERO PUSH2 0x875 JUMPI PUSH1 0x0 DUP1 REVERT JUMPDEST PUSH1 0x9 SLOAD PUSH1 0x0 DUP4 DUP2 MSTORE PUSH1 0x6 PUSH1 0x20 MSTORE PUSH1 0x40 DUP2 KECCAK256 DUP1 SLOAD CALLER SWAP4 PUSH1 0x1 PUSH1 0x1 PUSH1 0xA0 SHL SUB AND SWAP3 PUSH4 0x6352211E SWAP3 SWAP2 PUSH2 0x8B5 JUMPI PUSH4 0x4E487B71 PUSH1 0xE0 SHL PUSH1 0x0 MSTORE PUSH1 0x32 PUSH1 0x4 MSTORE PUSH1 0x24 PUSH1 0x0 REVERT JUMPDEST SWAP1 PUSH1 0x0 MSTORE PUSH1 0x20 PUSH1 0x0 KECCAK256 ADD SLOAD PUSH1 0x40 MLOAD DUP3 PUSH4 0xFFFFFFFF AND PUSH1 0xE0 SHL DUP2 MSTORE PUSH1 0x4 ADD PUSH2 0x8DE SWAP2 DUP2 MSTORE PUSH1 0x20 ADD SWAP1 JUMP JUMPDEST PUSH1 0x20 PUSH1 0x40 MLOAD DUP1 DUP4 SUB DUP2 DUP7 DUP1 EXTCODESIZE ISZERO DUP1 ISZERO PUSH2 0x8F6 JUMPI PUSH1 0x0 DUP1 REVERT JUMPDEST POP GAS STATICCALL ISZERO DUP1 ISZERO PUSH2 0x90A JUMPI RETURNDATASIZE PUSH1 0x0 DUP1 RETURNDATACOPY RETURNDATASIZE PUSH1 0x0 REVERT JUMPDEST POP POP POP POP PUSH1 0x40 MLOAD RETURNDATASIZE PUSH1 0x1F NOT PUSH1 0x1F DUP3 ADD AND DUP3 ADD DUP1 PUSH1 0x40 MSTORE POP DUP2 ADD SWAP1 PUSH2 0x92E SWAP2 SWAP1 PUSH2 0x1C32 JUMP JUMPDEST PUSH1 0x1 PUSH1 0x1 PUSH1 0xA0 SHL SUB AND EQ PUSH2 0x941 JUMPI PUSH1 0x0 DUP1 REVERT JUMPDEST PUSH1 0x1 PUSH1 0x1 PUSH1 0xA0 SHL SUB DUP5 AND PUSH1 0x0 SWAP1 DUP2 MSTORE PUSH1 0x2 PUSH1 0x20 MSTORE PUSH1 0x40 SWAP1 KECCAK256 DUP1 SLOAD DUP5 SWAP1 DUP2 LT PUSH2 0x979 JUMPI PUSH4 0x4E487B71 PUSH1 0xE0 SHL PUSH1 0x0 MSTORE PUSH1 0x32 PUSH1 0x4 MSTORE PUSH1 0x24 PUSH1 0x0 REVERT JUMPDEST PUSH1 0x0 SWAP2 DUP3 MSTORE PUSH1 0x20 DUP3 KECCAK256 ADD DUP1 SLOAD SWAP2 PUSH2 0x98F DUP4 PUSH2 0x203C JUMP JUMPDEST SWAP1 SWAP2 SSTORE POP POP POP PUSH1 0x0 SWAP1 DUP2 MSTORE PUSH1 0x20 DUP2 SWAP1 MSTORE PUSH1 0x40 SWAP1 KECCAK256 DUP1 SLOAD PUSH1 0xFF NOT AND PUSH1 0x1 OR SWAP1 SSTORE POP POP JUMP JUMPDEST PUSH1 0x5 SLOAD DUP4 LT PUSH2 0x9C0 JUMPI PUSH1 0x0 DUP1 REVERT JUMPDEST CALLER PUSH1 0x0 SWAP1 DUP2 MSTORE PUSH1 0x8 PUSH1 0x20 MSTORE PUSH1 0x40 SWAP1 KECCAK256 SLOAD PUSH1 0xFF AND ISZERO PUSH2 0x9DD JUMPI PUSH1 0x0 DUP1 REVERT JUMPDEST PUSH1 0x0 JUMPDEST DUP2 DUP2 LT ISZERO PUSH2 0xAB5 JUMPI PUSH1 0x9 SLOAD CALLER SWAP1 PUSH1 0x1 PUSH1 0x1 PUSH1 0xA0 SHL SUB AND PUSH4 0x6352211E DUP6 DUP6 DUP6 DUP2 DUP2 LT PUSH2 0xA1B JUMPI PUSH4 0x4E487B71 PUSH1 0xE0 SHL PUSH1 0x0 MSTORE PUSH1 0x32 PUSH1 0x4 MSTORE PUSH1 0x24 PUSH1 0x0 REVERT JUMPDEST SWAP1 POP PUSH1 0x20 MUL ADD CALLDATALOAD PUSH1 0x40 MLOAD DUP3 PUSH4 0xFFFFFFFF AND PUSH1 0xE0 SHL DUP2 MSTORE PUSH1 0x4 ADD PUSH2 0xA40 SWAP2 DUP2 MSTORE PUSH1 0x20 ADD SWAP1 JUMP JUMPDEST PUSH1 0x20 PUSH1 0x40 MLOAD DUP1 DUP4 SUB DUP2 DUP7 DUP1 EXTCODESIZE ISZERO DUP1 ISZERO PUSH2 0xA58 JUMPI PUSH1 0x0 DUP1 REVERT JUMPDEST POP GAS STATICCALL ISZERO DUP1 ISZERO PUSH2 0xA6C JUMPI RETURNDATASIZE PUSH1 0x0 DUP1 RETURNDATACOPY RETURNDATASIZE PUSH1 0x0 REVERT JUMPDEST POP POP POP POP PUSH1 0x40 MLOAD RETURNDATASIZE PUSH1 0x1F NOT PUSH1 0x1F DUP3 ADD AND DUP3 ADD DUP1 PUSH1 0x40 MSTORE POP DUP2 ADD SWAP1 PUSH2 0xA90 SWAP2 SWAP1 PUSH2 0x1C32 JUMP JUMPDEST PUSH1 0x1 PUSH1 0x1 PUSH1 0xA0 SHL SUB AND EQ PUSH2 0xAA3 JUMPI PUSH1 0x0 DUP1 REVERT JUMPDEST DUP1 PUSH2 0xAAD DUP2 PUSH2 0x203C JUMP JUMPDEST SWAP2 POP POP PUSH2 0x9E0 JUMP JUMPDEST POP PUSH1 0x0 DUP4 DUP2 MSTORE PUSH1 0x6 PUSH1 0x20 SWAP1 DUP2 MSTORE PUSH1 0x40 DUP1 DUP4 KECCAK256 DUP1 SLOAD DUP3 MLOAD DUP2 DUP6 MUL DUP2 ADD DUP6 ADD SWAP1 SWAP4 MSTORE DUP1 DUP4 MSTORE SWAP2 SWAP3 SWAP1 SWAP2 SWAP1 DUP4 ADD DUP3 DUP3 DUP1 ISZERO PUSH2 0xB0C JUMPI PUSH1 0x20 MUL DUP3 ADD SWAP2 SWAP1 PUSH1 0x0 MSTORE PUSH1 0x20 PUSH1 0x0 KECCAK256 SWAP1 JUMPDEST DUP2 SLOAD DUP2 MSTORE PUSH1 0x20 ADD SWAP1 PUSH1 0x1 ADD SWAP1 DUP1 DUP4 GT PUSH2 0xAF8 JUMPI JUMPDEST POP POP POP POP POP SWAP1 POP PUSH1 0x0 DUP2 MLOAD GT ISZERO PUSH2 0xC81 JUMPI PUSH1 0x0 DUP5 DUP2 MSTORE PUSH1 0x7 PUSH1 0x20 MSTORE PUSH1 0x40 SWAP1 KECCAK256 SLOAD PUSH1 0xFF AND ISZERO PUSH2 0xB39 JUMPI PUSH1 0x0 DUP1 REVERT JUMPDEST PUSH1 0x9 SLOAD PUSH1 0x40 DUP1 MLOAD PUSH1 0x20 DUP1 DUP7 MUL DUP3 DUP2 ADD DUP3 ADD SWAP1 SWAP4 MSTORE DUP6 DUP3 MSTORE PUSH2 0xB8D SWAP4 PUSH1 0x1 PUSH1 0x1 PUSH1 0xA0 SHL SUB AND SWAP3 DUP8 SWAP2 DUP8 SWAP2 DUP3 SWAP2 DUP6 ADD SWAP1 DUP5 SWAP1 DUP1 DUP3 DUP5 CALLDATACOPY PUSH1 0x0 SWAP3 ADD SWAP2 SWAP1 SWAP2 MSTORE POP POP PUSH1 0xA SLOAD PUSH1 0x1 PUSH1 0x1 PUSH1 0xA0 SHL SUB AND SWAP2 POP DUP6 SWAP1 POP PUSH2 0x1335 JUMP JUMPDEST PUSH1 0xA SLOAD DUP2 MLOAD PUSH1 0x0 SWAP2 PUSH1 0x8 SWAP2 DUP4 SWAP2 PUSH1 0x1 PUSH1 0x1 PUSH1 0xA0 SHL SUB AND SWAP1 PUSH4 0x6352211E SWAP1 DUP7 SWAP1 DUP5 SWAP1 PUSH2 0xBC8 JUMPI PUSH4 0x4E487B71 PUSH1 0xE0 SHL PUSH1 0x0 MSTORE PUSH1 0x32 PUSH1 0x4 MSTORE PUSH1 0x24 PUSH1 0x0 REVERT JUMPDEST PUSH1 0x20 MUL PUSH1 0x20 ADD ADD MLOAD PUSH1 0x40 MLOAD DUP3 PUSH4 0xFFFFFFFF AND PUSH1 0xE0 SHL DUP2 MSTORE PUSH1 0x4 ADD PUSH2 0xBEE SWAP2 DUP2 MSTORE PUSH1 0x20 ADD SWAP1 JUMP JUMPDEST PUSH1 0x20 PUSH1 0x40 MLOAD DUP1 DUP4 SUB DUP2 DUP7 DUP1 EXTCODESIZE ISZERO DUP1 ISZERO PUSH2 0xC06 JUMPI PUSH1 0x0 DUP1 REVERT JUMPDEST POP GAS STATICCALL ISZERO DUP1 ISZERO PUSH2 0xC1A JUMPI RETURNDATASIZE PUSH1 0x0 DUP1 RETURNDATACOPY RETURNDATASIZE PUSH1 0x0 REVERT JUMPDEST POP POP POP POP PUSH1 0x40 MLOAD RETURNDATASIZE PUSH1 0x1F NOT PUSH1 0x1F DUP3 ADD AND DUP3 ADD DUP1 PUSH1 0x40 MSTORE POP DUP2 ADD SWAP1 PUSH2 0xC3E SWAP2 SWAP1 PUSH2 0x1C32 JUMP JUMPDEST PUSH1 0x1 PUSH1 0x1 PUSH1 0xA0 SHL SUB AND DUP2 MSTORE PUSH1 0x20 DUP2 ADD SWAP2 SWAP1 SWAP2 MSTORE PUSH1 0x40 ADD PUSH1 0x0 SWAP1 DUP2 KECCAK256 DUP1 SLOAD PUSH1 0xFF NOT AND SWAP3 ISZERO ISZERO SWAP3 SWAP1 SWAP3 OR SWAP1 SWAP2 SSTORE PUSH1 0xE DUP1 SLOAD SWAP2 PUSH2 0xC77 DUP4 PUSH2 0x1FEA JUMP JUMPDEST SWAP2 SWAP1 POP SSTORE POP PUSH2 0xC8E JUMP JUMPDEST PUSH1 0x1 DUP3 EQ PUSH2 0xC8E JUMPI PUSH1 0x0 DUP1 REVERT JUMPDEST PUSH1 0x0 DUP5 DUP2 MSTORE PUSH1 0x6 PUSH1 0x20 MSTORE PUSH1 0x40 SWAP1 KECCAK256 PUSH2 0xCA7 SWAP1 DUP5 DUP5 PUSH2 0x1AA4 JUMP JUMPDEST POP PUSH1 0x0 DUP5 DUP2 MSTORE PUSH1 0x7 PUSH1 0x20 SWAP1 DUP2 MSTORE PUSH1 0x40 DUP1 DUP4 KECCAK256 DUP1 SLOAD PUSH1 0x1 PUSH1 0xFF NOT SWAP2 DUP3 AND DUP2 OR SWAP1 SWAP3 SSTORE DUP5 DUP5 MSTORE DUP3 DUP6 KECCAK256 DUP1 SLOAD DUP3 AND SWAP1 SSTORE CALLER DUP6 MSTORE PUSH1 0x8 SWAP1 SWAP4 MSTORE SWAP1 DUP4 KECCAK256 DUP1 SLOAD SWAP1 SWAP3 AND OR SWAP1 SSTORE PUSH1 0xD DUP1 SLOAD SWAP2 PUSH2 0xCF5 DUP4 PUSH2 0x203C JUMP JUMPDEST SWAP2 SWAP1 POP SSTORE POP CALLER PUSH1 0x1 PUSH1 0x1 PUSH1 0xA0 SHL SUB AND DUP5 PUSH32 0x1132C288E9BE7C8DB51CC2E4368FDF75B514552C5326C65DE7E36D72CB5BAE8E DUP6 DUP6 PUSH1 0x1 PUSH1 0x40 MLOAD PUSH2 0x802 SWAP4 SWAP3 SWAP2 SWAP1 PUSH2 0x1E68 JUMP JUMPDEST PUSH1 0x1 PUSH1 0x1 PUSH1 0xA0 SHL SUB DUP4 AND PUSH1 0x0 SWAP1 DUP2 MSTORE PUSH1 0x4 PUSH1 0x20 MSTORE PUSH1 0x40 SWAP1 KECCAK256 SLOAD DUP4 SWAP1 PUSH1 0xFF AND PUSH2 0xD60 JUMPI PUSH1 0x0 DUP1 REVERT JUMPDEST PUSH1 0x1 PUSH1 0x1 PUSH1 0xA0 SHL SUB DUP2 AND PUSH1 0x0 SWAP1 DUP2 MSTORE PUSH1 0x1 PUSH1 0x20 MSTORE PUSH1 0x40 SWAP1 KECCAK256 SLOAD PUSH2 0xD82 JUMPI PUSH1 0x0 DUP1 REVERT JUMPDEST PUSH1 0x0 DUP3 DUP2 MSTORE PUSH1 0x20 DUP2 SWAP1 MSTORE PUSH1 0x40 SWAP1 KECCAK256 SLOAD PUSH1 0xFF AND ISZERO PUSH2 0xD9E JUMPI PUSH1 0x0 DUP1 REVERT JUMPDEST PUSH1 0xA SLOAD PUSH1 0x0 DUP4 DUP2 MSTORE PUSH1 0x6 PUSH1 0x20 MSTORE PUSH1 0x40 DUP2 KECCAK256 DUP1 SLOAD CALLER SWAP4 PUSH1 0x1 PUSH1 0x1 PUSH1 0xA0 SHL SUB AND SWAP3 PUSH4 0x6352211E SWAP3 SWAP2 PUSH2 0x8B5 JUMPI PUSH4 0x4E487B71 PUSH1 0xE0 SHL PUSH1 0x0 MSTORE PUSH1 0x32 PUSH1 0x4 MSTORE PUSH1 0x24 PUSH1 0x0 REVERT JUMPDEST PUSH1 0x0 DUP2 DUP2 MSTORE PUSH1 0x6 PUSH1 0x20 SWAP1 DUP2 MSTORE PUSH1 0x40 DUP1 DUP4 KECCAK256 DUP1 SLOAD DUP3 MLOAD DUP2 DUP6 MUL DUP2 ADD DUP6 ADD SWAP1 SWAP4 MSTORE DUP1 DUP4 MSTORE PUSH1 0x60 SWAP5 SWAP4 DUP4 ADD DUP3 DUP3 DUP1 ISZERO PUSH2 0xE33 JUMPI PUSH1 0x20 MUL DUP3 ADD SWAP2 SWAP1 PUSH1 0x0 MSTORE PUSH1 0x20 PUSH1 0x0 KECCAK256 SWAP1 JUMPDEST DUP2 SLOAD DUP2 MSTORE PUSH1 0x20 ADD SWAP1 PUSH1 0x1 ADD SWAP1 DUP1 DUP4 GT PUSH2 0xE1F JUMPI JUMPDEST POP SWAP4 SWAP8 SWAP7 POP POP POP POP POP POP POP JUMP JUMPDEST PUSH1 0x1 PUSH1 0x1 PUSH1 0xA0 SHL SUB DUP2 AND PUSH1 0x0 SWAP1 DUP2 MSTORE PUSH1 0x4 PUSH1 0x20 MSTORE PUSH1 0x40 SWAP1 KECCAK256 SLOAD DUP2 SWAP1 PUSH1 0xFF AND PUSH2 0xE67 JUMPI PUSH1 0x0 DUP1 REVERT JUMPDEST PUSH1 0x1 PUSH1 0x1 PUSH1 0xA0 SHL SUB DUP2 AND PUSH1 0x0 SWAP1 DUP2 MSTORE PUSH1 0x1 PUSH1 0x20 MSTORE PUSH1 0x40 SWAP1 KECCAK256 SLOAD PUSH2 0xE89 JUMPI PUSH1 0x0 DUP1 REVERT JUMPDEST PUSH1 0x1 PUSH1 0x1 PUSH1 0xA0 SHL SUB DUP3 AND PUSH1 0x0 SWAP1 DUP2 MSTORE PUSH1 0x3 PUSH1 0x20 MSTORE PUSH1 0x40 SWAP1 KECCAK256 SLOAD TIMESTAMP SWAP1 PUSH2 0xEB1 SWAP1 PUSH3 0x93A80 PUSH2 0x1F5D JUMP JUMPDEST DUP2 LT ISZERO PUSH2 0xEBD JUMPI PUSH1 0x0 DUP1 REVERT JUMPDEST PUSH1 0x1 PUSH1 0x1 PUSH1 0xA0 SHL SUB DUP4 AND PUSH1 0x0 SWAP1 DUP2 MSTORE PUSH1 0x3 PUSH1 0x20 SWAP1 DUP2 MSTORE PUSH1 0x40 DUP1 DUP4 KECCAK256 DUP5 SWAP1 SSTORE PUSH1 0x2 DUP3 MSTORE DUP1 DUP4 KECCAK256 DUP1 SLOAD DUP3 MLOAD DUP2 DUP6 MUL DUP2 ADD DUP6 ADD SWAP1 SWAP4 MSTORE DUP1 DUP4 MSTORE DUP5 SWAP4 DUP5 SWAP4 SWAP3 SWAP2 SWAP1 DUP4 ADD DUP3 DUP3 DUP1 ISZERO PUSH2 0xF29 JUMPI PUSH1 0x20 MUL DUP3 ADD SWAP2 SWAP1 PUSH1 0x0 MSTORE PUSH1 0x20 PUSH1 0x0 KECCAK256 SWAP1 JUMPDEST DUP2 SLOAD DUP2 MSTORE PUSH1 0x20 ADD SWAP1 PUSH1 0x1 ADD SWAP1 DUP1 DUP4 GT PUSH2 0xF15 JUMPI JUMPDEST POP POP POP POP POP SWAP1 POP PUSH1 0x0 JUMPDEST DUP2 MLOAD DUP2 LT ISZERO PUSH2 0xFAB JUMPI DUP4 DUP3 DUP3 DUP2 MLOAD DUP2 LT PUSH2 0xF5D JUMPI PUSH4 0x4E487B71 PUSH1 0xE0 SHL PUSH1 0x0 MSTORE PUSH1 0x32 PUSH1 0x4 MSTORE PUSH1 0x24 PUSH1 0x0 REVERT JUMPDEST PUSH1 0x20 MUL PUSH1 0x20 ADD ADD MLOAD GT ISZERO PUSH2 0xF99 JUMPI DUP2 DUP2 DUP2 MLOAD DUP2 LT PUSH2 0xF8B JUMPI PUSH4 0x4E487B71 PUSH1 0xE0 SHL PUSH1 0x0 MSTORE PUSH1 0x32 PUSH1 0x4 MSTORE PUSH1 0x24 PUSH1 0x0 REVERT JUMPDEST PUSH1 0x20 MUL PUSH1 0x20 ADD ADD MLOAD SWAP4 POP DUP1 SWAP3 POP JUMPDEST DUP1 PUSH2 0xFA3 DUP2 PUSH2 0x203C JUMP JUMPDEST SWAP2 POP POP PUSH2 0xF33 JUMP JUMPDEST POP PUSH1 0x1 PUSH1 0x1 PUSH1 0xA0 SHL SUB DUP7 AND PUSH1 0x0 SWAP1 DUP2 MSTORE PUSH1 0x1 PUSH1 0x20 MSTORE PUSH1 0x40 DUP2 KECCAK256 DUP1 SLOAD DUP5 SWAP1 DUP2 LT PUSH2 0xFE4 JUMPI PUSH4 0x4E487B71 PUSH1 0xE0 SHL PUSH1 0x0 MSTORE PUSH1 0x32 PUSH1 0x4 MSTORE PUSH1 0x24 PUSH1 0x0 REVERT JUMPDEST SWAP1 PUSH1 0x0 MSTORE PUSH1 0x20 PUSH1 0x0 KECCAK256 ADD DUP1 SLOAD PUSH2 0xFF9 SWAP1 PUSH2 0x2001 JUMP JUMPDEST DUP1 PUSH1 0x1F ADD PUSH1 0x20 DUP1 SWAP2 DIV MUL PUSH1 0x20 ADD PUSH1 0x40 MLOAD SWAP1 DUP2 ADD PUSH1 0x40 MSTORE DUP1 SWAP3 SWAP2 SWAP1 DUP2 DUP2 MSTORE PUSH1 0x20 ADD DUP3 DUP1 SLOAD PUSH2 0x1025 SWAP1 PUSH2 0x2001 JUMP JUMPDEST DUP1 ISZERO PUSH2 0x1072 JUMPI DUP1 PUSH1 0x1F LT PUSH2 0x1047 JUMPI PUSH2 0x100 DUP1 DUP4 SLOAD DIV MUL DUP4 MSTORE SWAP2 PUSH1 0x20 ADD SWAP2 PUSH2 0x1072 JUMP JUMPDEST DUP3 ADD SWAP2 SWAP1 PUSH1 0x0 MSTORE PUSH1 0x20 PUSH1 0x0 KECCAK256 SWAP1 JUMPDEST DUP2 SLOAD DUP2 MSTORE SWAP1 PUSH1 0x1 ADD SWAP1 PUSH1 0x20 ADD DUP1 DUP4 GT PUSH2 0x1055 JUMPI DUP3 SWAP1 SUB PUSH1 0x1F AND DUP3 ADD SWAP2 JUMPDEST POP POP POP POP POP SWAP1 POP PUSH1 0xE SLOAD PUSH1 0xD SLOAD LT PUSH2 0x10E9 JUMPI PUSH1 0xB SLOAD PUSH1 0x40 MLOAD PUSH4 0x350C02F1 PUSH1 0xE1 SHL DUP2 MSTORE PUSH1 0x1 PUSH1 0x1 PUSH1 0xA0 SHL SUB SWAP1 SWAP2 AND SWAP1 PUSH4 0x6A1805E2 SWAP1 PUSH2 0x10B6 SWAP1 DUP11 SWAP1 DUP6 SWAP1 PUSH1 0x4 ADD PUSH2 0x1E05 JUMP JUMPDEST PUSH1 0x0 PUSH1 0x40 MLOAD DUP1 DUP4 SUB DUP2 PUSH1 0x0 DUP8 DUP1 EXTCODESIZE ISZERO DUP1 ISZERO PUSH2 0x10D0 JUMPI PUSH1 0x0 DUP1 REVERT JUMPDEST POP GAS CALL ISZERO DUP1 ISZERO PUSH2 0x10E4 JUMPI RETURNDATASIZE PUSH1 0x0 DUP1 RETURNDATACOPY RETURNDATASIZE PUSH1 0x0 REVERT JUMPDEST POP POP POP POP JUMPDEST PUSH1 0xD SLOAD PUSH1 0xE SLOAD LT PUSH2 0x1159 JUMPI PUSH1 0xC SLOAD PUSH1 0x40 MLOAD PUSH4 0x350C02F1 PUSH1 0xE1 SHL DUP2 MSTORE PUSH1 0x1 PUSH1 0x1 PUSH1 0xA0 SHL SUB SWAP1 SWAP2 AND SWAP1 PUSH4 0x6A1805E2 SWAP1 PUSH2 0x1126 SWAP1 DUP11 SWAP1 DUP6 SWAP1 PUSH1 0x4 ADD PUSH2 0x1E05 JUMP JUMPDEST PUSH1 0x0 PUSH1 0x40 MLOAD DUP1 DUP4 SUB DUP2 PUSH1 0x0 DUP8 DUP1 EXTCODESIZE ISZERO DUP1 ISZERO PUSH2 0x1140 JUMPI PUSH1 0x0 DUP1 REVERT JUMPDEST POP GAS CALL ISZERO DUP1 ISZERO PUSH2 0x1154 JUMPI RETURNDATASIZE PUSH1 0x0 DUP1 RETURNDATACOPY RETURNDATASIZE PUSH1 0x0 REVERT JUMPDEST POP POP POP POP JUMPDEST PUSH1 0x1 PUSH1 0x1 PUSH1 0xA0 SHL SUB DUP8 AND PUSH1 0x0 SWAP1 DUP2 MSTORE PUSH1 0x1 PUSH1 0x20 MSTORE PUSH1 0x40 DUP2 KECCAK256 PUSH2 0x117A SWAP2 PUSH2 0x1AEF JUMP JUMPDEST PUSH1 0x1 PUSH1 0x1 PUSH1 0xA0 SHL SUB DUP8 AND PUSH1 0x0 SWAP1 DUP2 MSTORE PUSH1 0x2 PUSH1 0x20 MSTORE PUSH1 0x40 DUP2 KECCAK256 PUSH2 0x119B SWAP2 PUSH2 0x1B10 JUMP JUMPDEST POP POP POP PUSH1 0x1 PUSH1 0x1 PUSH1 0xA0 SHL SUB SWAP1 SWAP4 AND PUSH1 0x0 SWAP1 DUP2 MSTORE PUSH1 0x4 PUSH1 0x20 MSTORE PUSH1 0x40 SWAP1 KECCAK256 DUP1 SLOAD PUSH1 0xFF NOT AND SWAP1 SSTORE POP POP POP JUMP JUMPDEST PUSH1 0x1 PUSH1 0x1 PUSH1 0xA0 SHL SUB DUP2 AND PUSH1 0x0 SWAP1 DUP2 MSTORE PUSH1 0x4 PUSH1 0x20 MSTORE PUSH1 0x40 SWAP1 KECCAK256 SLOAD DUP2 SWAP1 PUSH1 0xFF AND ISZERO PUSH2 0x11EC JUMPI PUSH1 0x0 DUP1 REVERT JUMPDEST PUSH1 0x1 PUSH1 0x1 PUSH1 0xA0 SHL SUB DUP3 AND PUSH1 0x0 SWAP1 DUP2 MSTORE PUSH1 0x1 PUSH1 0x20 MSTORE PUSH1 0x40 SWAP1 KECCAK256 SLOAD PUSH2 0x120E JUMPI PUSH1 0x0 DUP1 REVERT JUMPDEST PUSH1 0x1 PUSH1 0x1 PUSH1 0xA0 SHL SUB DUP3 AND PUSH1 0x0 SWAP1 DUP2 MSTORE PUSH1 0x3 PUSH1 0x20 MSTORE PUSH1 0x40 SWAP1 KECCAK256 SLOAD TIMESTAMP SWAP1 PUSH2 0x1236 SWAP1 PUSH3 0x24EA00 PUSH2 0x1F5D JUMP JUMPDEST DUP2 LT ISZERO PUSH2 0x1242 JUMPI PUSH1 0x0 DUP1 REVERT JUMPDEST PUSH1 0x1 PUSH1 0x1 PUSH1 0xA0 SHL SUB SWAP1 SWAP3 AND PUSH1 0x0 SWAP1 DUP2 MSTORE PUSH1 0x3 PUSH1 0x20 SWAP1 DUP2 MSTORE PUSH1 0x40 DUP1 DUP4 KECCAK256 SWAP5 SWAP1 SWAP5 SSTORE PUSH1 0x4 SWAP1 MSTORE SWAP2 SWAP1 SWAP2 KECCAK256 DUP1 SLOAD PUSH1 0xFF NOT AND PUSH1 0x1 OR SWAP1 SSTORE POP JUMP JUMPDEST PUSH1 0x1 PUSH1 0x1 PUSH1 0xA0 SHL SUB DUP4 AND PUSH1 0x0 SWAP1 DUP2 MSTORE PUSH1 0x4 PUSH1 0x20 MSTORE PUSH1 0x40 SWAP1 KECCAK256 SLOAD DUP4 SWAP1 PUSH1 0xFF AND ISZERO PUSH2 0x12A0 JUMPI PUSH1 0x0 DUP1 REVERT JUMPDEST PUSH1 0x1 PUSH1 0x1 PUSH1 0xA0 SHL SUB DUP5 AND PUSH1 0x0 SWAP1 DUP2 MSTORE PUSH1 0x1 PUSH1 0x20 DUP2 DUP2 MSTORE PUSH1 0x40 DUP4 KECCAK256 DUP1 SLOAD SWAP3 DUP4 ADD DUP2 SSTORE DUP4 MSTORE SWAP1 SWAP2 KECCAK256 PUSH2 0x12D2 SWAP2 ADD DUP5 DUP5 PUSH2 0x1B2E JUMP JUMPDEST POP PUSH1 0x1 PUSH1 0x1 PUSH1 0xA0 SHL SUB DUP5 AND PUSH1 0x0 DUP2 DUP2 MSTORE PUSH1 0x2 PUSH1 0x20 SWAP1 DUP2 MSTORE PUSH1 0x40 DUP1 DUP4 KECCAK256 DUP1 SLOAD PUSH1 0x1 DUP2 ADD DUP3 SSTORE SWAP1 DUP5 MSTORE SWAP2 DUP4 KECCAK256 SWAP1 SWAP2 ADD SWAP2 SWAP1 SWAP2 SSTORE MLOAD CALLER SWAP1 PUSH32 0x1DB66FF68C851D8B91E62A879D372D17A2DBFAA5A5B64DD3B09CDED0A5EC7F3 SWAP1 PUSH2 0x802 SWAP1 DUP8 SWAP1 DUP8 SWAP1 PUSH2 0x1EED JUMP JUMPDEST PUSH1 0x1 DUP2 MLOAD PUSH2 0x1343 SWAP2 SWAP1 PUSH2 0x1FD3 JUMP JUMPDEST DUP4 MLOAD EQ ISZERO PUSH2 0x15FE JUMPI PUSH1 0x0 DUP1 PUSH1 0x0 DUP5 PUSH1 0x1 PUSH1 0x1 PUSH1 0xA0 SHL SUB AND PUSH4 0xDF069B11 DUP6 PUSH1 0x0 DUP2 MLOAD DUP2 LT PUSH2 0x1380 JUMPI PUSH4 0x4E487B71 PUSH1 0xE0 SHL PUSH1 0x0 MSTORE PUSH1 0x32 PUSH1 0x4 MSTORE PUSH1 0x24 PUSH1 0x0 REVERT JUMPDEST PUSH1 0x20 MUL PUSH1 0x20 ADD ADD MLOAD PUSH1 0x40 MLOAD DUP3 PUSH4 0xFFFFFFFF AND PUSH1 0xE0 SHL DUP2 MSTORE PUSH1 0x4 ADD PUSH2 0x13A6 SWAP2 DUP2 MSTORE PUSH1 0x20 ADD SWAP1 JUMP JUMPDEST PUSH1 0x80 PUSH1 0x40 MLOAD DUP1 DUP4 SUB DUP2 DUP7 DUP1 EXTCODESIZE ISZERO DUP1 ISZERO PUSH2 0x13BE JUMPI PUSH1 0x0 DUP1 REVERT JUMPDEST POP GAS STATICCALL ISZERO DUP1 ISZERO PUSH2 0x13D2 JUMPI RETURNDATASIZE PUSH1 0x0 DUP1 RETURNDATACOPY RETURNDATASIZE PUSH1 0x0 REVERT JUMPDEST POP POP POP POP PUSH1 0x40 MLOAD RETURNDATASIZE PUSH1 0x1F NOT PUSH1 0x1F DUP3 ADD AND DUP3 ADD DUP1 PUSH1 0x40 MSTORE POP DUP2 ADD SWAP1 PUSH2 0x13F6 SWAP2 SWAP1 PUSH2 0x1C4E JUMP JUMPDEST SWAP4 POP POP SWAP3 POP SWAP3 POP PUSH1 0x0 DUP3 PUSH2 0x140C JUMPI POP PUSH1 0x0 PUSH2 0x141C JUMP JUMPDEST PUSH1 0xF SLOAD PUSH2 0x1419 SWAP1 DUP4 PUSH2 0x1F94 JUMP JUMPDEST SWAP1 POP JUMPDEST PUSH1 0x0 JUMPDEST DUP8 MLOAD DUP2 LT ISZERO PUSH2 0x15F4 JUMPI PUSH1 0x0 DUP1 PUSH1 0x0 DUP12 PUSH1 0x1 PUSH1 0x1 PUSH1 0xA0 SHL SUB AND PUSH4 0xDF069B11 DUP13 DUP7 DUP2 MLOAD DUP2 LT PUSH2 0x145C JUMPI PUSH4 0x4E487B71 PUSH1 0xE0 SHL PUSH1 0x0 MSTORE PUSH1 0x32 PUSH1 0x4 MSTORE PUSH1 0x24 PUSH1 0x0 REVERT JUMPDEST PUSH1 0x20 MUL PUSH1 0x20 ADD ADD MLOAD PUSH1 0x40 MLOAD DUP3 PUSH4 0xFFFFFFFF AND PUSH1 0xE0 SHL DUP2 MSTORE PUSH1 0x4 ADD PUSH2 0x1482 SWAP2 DUP2 MSTORE PUSH1 0x20 ADD SWAP1 JUMP JUMPDEST PUSH1 0x80 PUSH1 0x40 MLOAD DUP1 DUP4 SUB DUP2 DUP7 DUP1 EXTCODESIZE ISZERO DUP1 ISZERO PUSH2 0x149A JUMPI PUSH1 0x0 DUP1 REVERT JUMPDEST POP GAS STATICCALL ISZERO DUP1 ISZERO PUSH2 0x14AE JUMPI RETURNDATASIZE PUSH1 0x0 DUP1 RETURNDATACOPY RETURNDATASIZE PUSH1 0x0 REVERT JUMPDEST POP POP POP POP PUSH1 0x40 MLOAD RETURNDATASIZE PUSH1 0x1F NOT PUSH1 0x1F DUP3 ADD AND DUP3 ADD DUP1 PUSH1 0x40 MSTORE POP DUP2 ADD SWAP1 PUSH2 0x14D2 SWAP2 SWAP1 PUSH2 0x1C4E JUMP JUMPDEST SWAP4 POP POP SWAP3 POP SWAP3 POP PUSH1 0x0 DUP1 PUSH1 0x0 DUP13 PUSH1 0x1 PUSH1 0x1 PUSH1 0xA0 SHL SUB AND PUSH4 0xDF069B11 DUP14 DUP10 PUSH1 0x1 PUSH2 0x14FB SWAP2 SWAP1 PUSH2 0x1F5D JUMP JUMPDEST DUP2 MLOAD DUP2 LT PUSH2 0x1519 JUMPI PUSH4 0x4E487B71 PUSH1 0xE0 SHL PUSH1 0x0 MSTORE PUSH1 0x32 PUSH1 0x4 MSTORE PUSH1 0x24 PUSH1 0x0 REVERT JUMPDEST PUSH1 0x20 MUL PUSH1 0x20 ADD ADD MLOAD PUSH1 0x40 MLOAD DUP3 PUSH4 0xFFFFFFFF AND PUSH1 0xE0 SHL DUP2 MSTORE PUSH1 0x4 ADD PUSH2 0x153F SWAP2 DUP2 MSTORE PUSH1 0x20 ADD SWAP1 JUMP JUMPDEST PUSH1 0x80 PUSH1 0x40 MLOAD DUP1 DUP4 SUB DUP2 DUP7 DUP1 EXTCODESIZE ISZERO DUP1 ISZERO PUSH2 0x1557 JUMPI PUSH1 0x0 DUP1 REVERT JUMPDEST POP GAS STATICCALL ISZERO DUP1 ISZERO PUSH2 0x156B JUMPI RETURNDATASIZE PUSH1 0x0 DUP1 RETURNDATACOPY RETURNDATASIZE PUSH1 0x0 REVERT JUMPDEST POP POP POP POP PUSH1 0x40 MLOAD RETURNDATASIZE PUSH1 0x1F NOT PUSH1 0x1F DUP3 ADD AND DUP3 ADD DUP1 PUSH1 0x40 MSTORE POP DUP2 ADD SWAP1 PUSH2 0x158F SWAP2 SWAP1 PUSH2 0x1C4E JUMP JUMPDEST SWAP4 POP POP SWAP3 POP SWAP3 POP DUP5 DUP1 ISZERO PUSH2 0x15B4 JUMPI POP DUP3 PUSH1 0x1 PUSH1 0x1 PUSH1 0xA0 SHL SUB AND DUP7 PUSH1 0x1 PUSH1 0x1 PUSH1 0xA0 SHL SUB AND EQ JUMPDEST PUSH2 0x15BD JUMPI PUSH1 0x0 DUP1 REVERT JUMPDEST DUP2 ISZERO DUP1 PUSH2 0x15D2 JUMPI POP PUSH2 0x15CF DUP9 DUP3 PUSH2 0x1F1C JUMP JUMPDEST DUP5 SGT JUMPDEST PUSH2 0x15DB JUMPI PUSH1 0x0 DUP1 REVERT JUMPDEST POP POP POP POP POP POP DUP1 DUP1 PUSH2 0x15EC SWAP1 PUSH2 0x203C JUMP JUMPDEST SWAP2 POP POP PUSH2 0x141F JUMP JUMPDEST POP POP POP POP POP PUSH2 0x1A9E JUMP JUMPDEST DUP1 MLOAD DUP4 MLOAD EQ ISZERO PUSH2 0x17D1 JUMPI PUSH1 0x0 JUMPDEST DUP2 MLOAD DUP2 LT ISZERO PUSH2 0x17CB JUMPI PUSH1 0x0 DUP1 PUSH1 0x0 DUP8 PUSH1 0x1 PUSH1 0x1 PUSH1 0xA0 SHL SUB AND PUSH4 0xDF069B11 DUP9 DUP7 DUP2 MLOAD DUP2 LT PUSH2 0x1648 JUMPI PUSH4 0x4E487B71 PUSH1 0xE0 SHL PUSH1 0x0 MSTORE PUSH1 0x32 PUSH1 0x4 MSTORE PUSH1 0x24 PUSH1 0x0 REVERT JUMPDEST PUSH1 0x20 MUL PUSH1 0x20 ADD ADD MLOAD PUSH1 0x40 MLOAD DUP3 PUSH4 0xFFFFFFFF AND PUSH1 0xE0 SHL DUP2 MSTORE PUSH1 0x4 ADD PUSH2 0x166E SWAP2 DUP2 MSTORE PUSH1 0x20 ADD SWAP1 JUMP JUMPDEST PUSH1 0x80 PUSH1 0x40 MLOAD DUP1 DUP4 SUB DUP2 DUP7 DUP1 EXTCODESIZE ISZERO DUP1 ISZERO PUSH2 0x1686 JUMPI PUSH1 0x0 DUP1 REVERT JUMPDEST POP GAS STATICCALL ISZERO DUP1 ISZERO PUSH2 0x169A JUMPI RETURNDATASIZE PUSH1 0x0 DUP1 RETURNDATACOPY RETURNDATASIZE PUSH1 0x0 REVERT JUMPDEST POP POP POP POP PUSH1 0x40 MLOAD RETURNDATASIZE PUSH1 0x1F NOT PUSH1 0x1F DUP3 ADD AND DUP3 ADD DUP1 PUSH1 0x40 MSTORE POP DUP2 ADD SWAP1 PUSH2 0x16BE SWAP2 SWAP1 PUSH2 0x1C4E JUMP JUMPDEST SWAP4 POP POP SWAP3 POP SWAP3 POP PUSH1 0x0 DUP1 PUSH1 0x0 DUP9 PUSH1 0x1 PUSH1 0x1 PUSH1 0xA0 SHL SUB AND PUSH4 0xDF069B11 DUP10 DUP10 DUP2 MLOAD DUP2 LT PUSH2 0x16F9 JUMPI PUSH4 0x4E487B71 PUSH1 0xE0 SHL PUSH1 0x0 MSTORE PUSH1 0x32 PUSH1 0x4 MSTORE PUSH1 0x24 PUSH1 0x0 REVERT JUMPDEST PUSH1 0x20 MUL PUSH1 0x20 ADD ADD MLOAD PUSH1 0x40 MLOAD DUP3 PUSH4 0xFFFFFFFF AND PUSH1 0xE0 SHL DUP2 MSTORE PUSH1 0x4 ADD PUSH2 0x171F SWAP2 DUP2 MSTORE PUSH1 0x20 ADD SWAP1 JUMP JUMPDEST PUSH1 0x80 PUSH1 0x40 MLOAD DUP1 DUP4 SUB DUP2 DUP7 DUP1 EXTCODESIZE ISZERO DUP1 ISZERO PUSH2 0x1737 JUMPI PUSH1 0x0 DUP1 REVERT JUMPDEST POP GAS STATICCALL ISZERO DUP1 ISZERO PUSH2 0x174B JUMPI RETURNDATASIZE PUSH1 0x0 DUP1 RETURNDATACOPY RETURNDATASIZE PUSH1 0x0 REVERT JUMPDEST POP POP POP POP PUSH1 0x40 MLOAD RETURNDATASIZE PUSH1 0x1F NOT PUSH1 0x1F DUP3 ADD AND DUP3 ADD DUP1 PUSH1 0x40 MSTORE POP DUP2 ADD SWAP1 PUSH2 0x176F SWAP2 SWAP1 PUSH2 0x1C4E JUMP JUMPDEST SWAP4 POP POP SWAP3 POP SWAP3 POP DUP5 DUP1 ISZERO PUSH2 0x1794 JUMPI POP DUP3 PUSH1 0x1 PUSH1 0x1 PUSH1 0xA0 SHL SUB AND DUP7 PUSH1 0x1 PUSH1 0x1 PUSH1 0xA0 SHL SUB AND EQ JUMPDEST PUSH2 0x179D JUMPI PUSH1 0x0 DUP1 REVERT JUMPDEST DUP2 ISZERO DUP1 PUSH2 0x17A9 JUMPI POP DUP1 DUP5 SGT JUMPDEST PUSH2 0x17B2 JUMPI PUSH1 0x0 DUP1 REVERT JUMPDEST POP POP POP POP POP POP DUP1 DUP1 PUSH2 0x17C3 SWAP1 PUSH2 0x203C JUMP JUMPDEST SWAP2 POP POP PUSH2 0x160B JUMP JUMPDEST POP PUSH2 0x1A9E JUMP JUMPDEST DUP1 MLOAD PUSH2 0x17DE SWAP1 PUSH1 0x1 PUSH2 0x1F5D JUMP JUMPDEST DUP4 MLOAD EQ ISZERO PUSH2 0x121 JUMPI PUSH1 0x0 DUP1 PUSH1 0x0 DUP7 PUSH1 0x1 PUSH1 0x1 PUSH1 0xA0 SHL SUB AND PUSH4 0xDF069B11 DUP8 DUP7 MLOAD DUP2 MLOAD DUP2 LT PUSH2 0x181B JUMPI PUSH4 0x4E487B71 PUSH1 0xE0 SHL PUSH1 0x0 MSTORE PUSH1 0x32 PUSH1 0x4 MSTORE PUSH1 0x24 PUSH1 0x0 REVERT JUMPDEST PUSH1 0x20 MUL PUSH1 0x20 ADD ADD MLOAD PUSH1 0x40 MLOAD DUP3 PUSH4 0xFFFFFFFF AND PUSH1 0xE0 SHL DUP2 MSTORE PUSH1 0x4 ADD PUSH2 0x1841 SWAP2 DUP2 MSTORE PUSH1 0x20 ADD SWAP1 JUMP JUMPDEST PUSH1 0x80 PUSH1 0x40 MLOAD DUP1 DUP4 SUB DUP2 DUP7 DUP1 EXTCODESIZE ISZERO DUP1 ISZERO PUSH2 0x1859 JUMPI PUSH1 0x0 DUP1 REVERT JUMPDEST POP GAS STATICCALL ISZERO DUP1 ISZERO PUSH2 0x186D JUMPI RETURNDATASIZE PUSH1 0x0 DUP1 RETURNDATACOPY RETURNDATASIZE PUSH1 0x0 REVERT JUMPDEST POP POP POP POP PUSH1 0x40 MLOAD RETURNDATASIZE PUSH1 0x1F NOT PUSH1 0x1F DUP3 ADD AND DUP3 ADD DUP1 PUSH1 0x40 MSTORE POP DUP2 ADD SWAP1 PUSH2 0x1891 SWAP2 SWAP1 PUSH2 0x1C4E JUMP JUMPDEST SWAP4 POP POP SWAP3 POP SWAP3 POP DUP2 PUSH2 0x18A2 JUMPI PUSH1 0x0 DUP1 REVERT JUMPDEST PUSH1 0x0 PUSH1 0xF SLOAD DUP3 PUSH2 0x18B2 SWAP2 SWAP1 PUSH2 0x1F94 JUMP JUMPDEST SWAP1 POP PUSH1 0x0 JUMPDEST DUP6 MLOAD DUP2 LT ISZERO PUSH2 0x15F4 JUMPI PUSH1 0x0 DUP1 PUSH1 0x0 DUP12 PUSH1 0x1 PUSH1 0x1 PUSH1 0xA0 SHL SUB AND PUSH4 0xDF069B11 DUP13 DUP7 DUP2 MLOAD DUP2 LT PUSH2 0x18F4 JUMPI PUSH4 0x4E487B71 PUSH1 0xE0 SHL PUSH1 0x0 MSTORE PUSH1 0x32 PUSH1 0x4 MSTORE PUSH1 0x24 PUSH1 0x0 REVERT JUMPDEST PUSH1 0x20 MUL PUSH1 0x20 ADD ADD MLOAD PUSH1 0x40 MLOAD DUP3 PUSH4 0xFFFFFFFF AND PUSH1 0xE0 SHL DUP2 MSTORE PUSH1 0x4 ADD PUSH2 0x191A SWAP2 DUP2 MSTORE PUSH1 0x20 ADD SWAP1 JUMP JUMPDEST PUSH1 0x80 PUSH1 0x40 MLOAD DUP1 DUP4 SUB DUP2 DUP7 DUP1 EXTCODESIZE ISZERO DUP1 ISZERO PUSH2 0x1932 JUMPI PUSH1 0x0 DUP1 REVERT JUMPDEST POP GAS STATICCALL ISZERO DUP1 ISZERO PUSH2 0x1946 JUMPI RETURNDATASIZE PUSH1 0x0 DUP1 RETURNDATACOPY RETURNDATASIZE PUSH1 0x0 REVERT JUMPDEST POP POP POP POP PUSH1 0x40 MLOAD RETURNDATASIZE PUSH1 0x1F NOT PUSH1 0x1F DUP3 ADD AND DUP3 ADD DUP1 PUSH1 0x40 MSTORE POP DUP2 ADD SWAP1 PUSH2 0x196A SWAP2 SWAP1 PUSH2 0x1C4E JUMP JUMPDEST SWAP4 POP POP SWAP3 POP SWAP3 POP PUSH1 0x0 DUP1 PUSH1 0x0 DUP13 PUSH1 0x1 PUSH1 0x1 PUSH1 0xA0 SHL SUB AND PUSH4 0xDF069B11 DUP14 DUP10 DUP2 MLOAD DUP2 LT PUSH2 0x19A5 JUMPI PUSH4 0x4E487B71 PUSH1 0xE0 SHL PUSH1 0x0 MSTORE PUSH1 0x32 PUSH1 0x4 MSTORE PUSH1 0x24 PUSH1 0x0 REVERT JUMPDEST PUSH1 0x20 MUL PUSH1 0x20 ADD ADD MLOAD PUSH1 0x40 MLOAD DUP3 PUSH4 0xFFFFFFFF AND PUSH1 0xE0 SHL DUP2 MSTORE PUSH1 0x4 ADD PUSH2 0x19CB SWAP2 DUP2 MSTORE PUSH1 0x20 ADD SWAP1 JUMP JUMPDEST PUSH1 0x80 PUSH1 0x40 MLOAD DUP1 DUP4 SUB DUP2 DUP7 DUP1 EXTCODESIZE ISZERO DUP1 ISZERO PUSH2 0x19E3 JUMPI PUSH1 0x0 DUP1 REVERT JUMPDEST POP GAS STATICCALL ISZERO DUP1 ISZERO PUSH2 0x19F7 JUMPI RETURNDATASIZE PUSH1 0x0 DUP1 RETURNDATACOPY RETURNDATASIZE PUSH1 0x0 REVERT JUMPDEST POP POP POP POP PUSH1 0x40 MLOAD RETURNDATASIZE PUSH1 0x1F NOT PUSH1 0x1F DUP3 ADD AND DUP3 ADD DUP1 PUSH1 0x40 MSTORE POP DUP2 ADD SWAP1 PUSH2 0x1A1B SWAP2 SWAP1 PUSH2 0x1C4E JUMP JUMPDEST SWAP4 POP POP SWAP3 POP SWAP3 POP DUP5 DUP1 ISZERO PUSH2 0x1A40 JUMPI POP DUP3 PUSH1 0x1 PUSH1 0x1 PUSH1 0xA0 SHL SUB AND DUP7 PUSH1 0x1 PUSH1 0x1 PUSH1 0xA0 SHL SUB AND EQ JUMPDEST DUP1 ISZERO PUSH2 0x1A5E JUMPI POP DUP3 PUSH1 0x1 PUSH1 0x1 PUSH1 0xA0 SHL SUB AND DUP12 PUSH1 0x1 PUSH1 0x1 PUSH1 0xA0 SHL SUB AND EQ ISZERO JUMPDEST PUSH2 0x1A67 JUMPI PUSH1 0x0 DUP1 REVERT JUMPDEST DUP2 ISZERO DUP1 PUSH2 0x1A7C JUMPI POP DUP1 PUSH2 0x1A7A DUP10 DUP7 PUSH2 0x1F1C JUMP JUMPDEST SGT JUMPDEST PUSH2 0x1A85 JUMPI PUSH1 0x0 DUP1 REVERT JUMPDEST POP POP POP POP POP POP DUP1 DUP1 PUSH2 0x1A96 SWAP1 PUSH2 0x203C JUMP JUMPDEST SWAP2 POP POP PUSH2 0x18B7 JUMP JUMPDEST POP POP POP POP JUMP JUMPDEST DUP3 DUP1 SLOAD DUP3 DUP3 SSTORE SWAP1 PUSH1 0x0 MSTORE PUSH1 0x20 PUSH1 0x0 KECCAK256 SWAP1 DUP2 ADD SWAP3 DUP3 ISZERO PUSH2 0x1ADF JUMPI SWAP2 PUSH1 0x20 MUL DUP3 ADD JUMPDEST DUP3 DUP2 GT ISZERO PUSH2 0x1ADF JUMPI DUP3 CALLDATALOAD DUP3 SSTORE SWAP2 PUSH1 0x20 ADD SWAP2 SWAP1 PUSH1 0x1 ADD SWAP1 PUSH2 0x1AC4 JUMP JUMPDEST POP PUSH2 0x1AEB SWAP3 SWAP2 POP PUSH2 0x1BA1 JUMP JUMPDEST POP SWAP1 JUMP JUMPDEST POP DUP1 SLOAD PUSH1 0x0 DUP3 SSTORE SWAP1 PUSH1 0x0 MSTORE PUSH1 0x20 PUSH1 0x0 KECCAK256 SWAP1 DUP2 ADD SWAP1 PUSH2 0x1B0D SWAP2 SWAP1 PUSH2 0x1BB6 JUMP JUMPDEST POP JUMP JUMPDEST POP DUP1 SLOAD PUSH1 0x0 DUP3 SSTORE SWAP1 PUSH1 0x0 MSTORE PUSH1 0x20 PUSH1 0x0 KECCAK256 SWAP1 DUP2 ADD SWAP1 PUSH2 0x1B0D SWAP2 SWAP1 PUSH2 0x1BA1 JUMP JUMPDEST DUP3 DUP1 SLOAD PUSH2 0x1B3A SWAP1 PUSH2 0x2001 JUMP JUMPDEST SWAP1 PUSH1 0x0 MSTORE PUSH1 0x20 PUSH1 0x0 KECCAK256 SWAP1 PUSH1 0x1F ADD PUSH1 0x20 SWAP1 DIV DUP2 ADD SWAP3 DUP3 PUSH2 0x1B5C JUMPI PUSH1 0x0 DUP6 SSTORE PUSH2 0x1ADF JUMP JUMPDEST DUP3 PUSH1 0x1F LT PUSH2 0x1B75 JUMPI DUP3 DUP1 ADD PUSH1 0xFF NOT DUP3 CALLDATALOAD AND OR DUP6 SSTORE PUSH2 0x1ADF JUMP JUMPDEST DUP3 DUP1 ADD PUSH1 0x1 ADD DUP6 SSTORE DUP3 ISZERO PUSH2 0x1ADF JUMPI SWAP2 DUP3 ADD DUP3 DUP2 GT ISZERO PUSH2 0x1ADF JUMPI DUP3 CALLDATALOAD DUP3 SSTORE SWAP2 PUSH1 0x20 ADD SWAP2 SWAP1 PUSH1 0x1 ADD SWAP1 PUSH2 0x1AC4 JUMP JUMPDEST JUMPDEST DUP1 DUP3 GT ISZERO PUSH2 0x1AEB JUMPI PUSH1 0x0 DUP2 SSTORE PUSH1 0x1 ADD PUSH2 0x1BA2 JUMP JUMPDEST DUP1 DUP3 GT ISZERO PUSH2 0x1AEB JUMPI PUSH1 0x0 PUSH2 0x1BCA DUP3 DUP3 PUSH2 0x1BD3 JUMP JUMPDEST POP PUSH1 0x1 ADD PUSH2 0x1BB6 JUMP JUMPDEST POP DUP1 SLOAD PUSH2 0x1BDF SWAP1 PUSH2 0x2001 JUMP JUMPDEST PUSH1 0x0 DUP3 SSTORE DUP1 PUSH1 0x1F LT PUSH2 0x1BF1 JUMPI POP PUSH2 0x1B0D JUMP JUMPDEST PUSH1 0x1F ADD PUSH1 0x20 SWAP1 DIV SWAP1 PUSH1 0x0 MSTORE PUSH1 0x20 PUSH1 0x0 KECCAK256 SWAP1 DUP2 ADD SWAP1 PUSH2 0x1B0D SWAP2 SWAP1 PUSH2 0x1BA1 JUMP JUMPDEST PUSH1 0x0 PUSH1 0x20 DUP3 DUP5 SUB SLT ISZERO PUSH2 0x1C20 JUMPI DUP1 DUP2 REVERT JUMPDEST DUP2 CALLDATALOAD PUSH2 0x1C2B DUP2 PUSH2 0x206D JUMP JUMPDEST SWAP4 SWAP3 POP POP POP JUMP JUMPDEST PUSH1 0x0 PUSH1 0x20 DUP3 DUP5 SUB SLT ISZERO PUSH2 0x1C43 JUMPI DUP1 DUP2 REVERT JUMPDEST DUP2 MLOAD PUSH2 0x1C2B DUP2 PUSH2 0x206D JUMP JUMPDEST PUSH1 0x0 DUP1 PUSH1 0x0 DUP1 PUSH1 0x80 DUP6 DUP8 SUB SLT ISZERO PUSH2 0x1C63 JUMPI DUP3 DUP4 REVERT JUMPDEST DUP5 MLOAD PUSH2 0x1C6E DUP2 PUSH2 0x206D JUMP JUMPDEST PUSH1 0x20 DUP7 ADD MLOAD SWAP1 SWAP5 POP DUP1 ISZERO ISZERO DUP2 EQ PUSH2 0x1C83 JUMPI DUP4 DUP5 REVERT JUMPDEST PUSH1 0x40 DUP7 ADD MLOAD PUSH1 0x60 SWAP1 SWAP7 ADD MLOAD SWAP5 SWAP8 SWAP1 SWAP7 POP SWAP3 POP POP POP JUMP JUMPDEST PUSH1 0x0 DUP1 PUSH1 0x0 PUSH1 0x40 DUP5 DUP7 SUB SLT ISZERO PUSH2 0x1CAD JUMPI DUP3 DUP4 REVERT JUMPDEST DUP4 CALLDATALOAD PUSH2 0x1CB8 DUP2 PUSH2 0x206D JUMP JUMPDEST SWAP3 POP PUSH1 0x20 DUP5 ADD CALLDATALOAD PUSH8 0xFFFFFFFFFFFFFFFF DUP1 DUP3 GT ISZERO PUSH2 0x1CD4 JUMPI DUP4 DUP5 REVERT JUMPDEST DUP2 DUP7 ADD SWAP2 POP DUP7 PUSH1 0x1F DUP4 ADD SLT PUSH2 0x1CE7 JUMPI DUP4 DUP5 REVERT JUMPDEST DUP2 CALLDATALOAD DUP2 DUP2 GT ISZERO PUSH2 0x1CF5 JUMPI DUP5 DUP6 REVERT JUMPDEST DUP8 PUSH1 0x20 DUP3 DUP6 ADD ADD GT ISZERO PUSH2 0x1D06 JUMPI DUP5 DUP6 REVERT JUMPDEST PUSH1 0x20 DUP4 ADD SWAP5 POP DUP1 SWAP4 POP POP POP POP SWAP3 POP SWAP3 POP SWAP3 JUMP JUMPDEST PUSH1 0x0 DUP1 PUSH1 0x0 PUSH1 0x60 DUP5 DUP7 SUB SLT ISZERO PUSH2 0x1D2D JUMPI DUP3 DUP4 REVERT JUMPDEST DUP4 CALLDATALOAD PUSH2 0x1D38 DUP2 PUSH2 0x206D JUMP JUMPDEST SWAP6 PUSH1 0x20 DUP6 ADD CALLDATALOAD SWAP6 POP PUSH1 0x40 SWAP1 SWAP5 ADD CALLDATALOAD SWAP4 SWAP3 POP POP POP JUMP JUMPDEST PUSH1 0x0 PUSH1 0x20 DUP3 DUP5 SUB SLT ISZERO PUSH2 0x1D5E JUMPI DUP1 DUP2 REVERT JUMPDEST POP CALLDATALOAD SWAP2 SWAP1 POP JUMP JUMPDEST PUSH1 0x0 PUSH1 0x20 DUP3 DUP5 SUB SLT ISZERO PUSH2 0x1D76 JUMPI DUP1 DUP2 REVERT JUMPDEST POP MLOAD SWAP2 SWAP1 POP JUMP JUMPDEST PUSH1 0x0 DUP1 PUSH1 0x0 PUSH1 0x40 DUP5 DUP7 SUB SLT ISZERO PUSH2 0x1D91 JUMPI DUP3 DUP4 REVERT JUMPDEST DUP4 CALLDATALOAD SWAP3 POP PUSH1 0x20 DUP5 ADD CALLDATALOAD PUSH8 0xFFFFFFFFFFFFFFFF DUP1 DUP3 GT ISZERO PUSH2 0x1DAF JUMPI DUP4 DUP5 REVERT JUMPDEST DUP2 DUP7 ADD SWAP2 POP DUP7 PUSH1 0x1F DUP4 ADD SLT PUSH2 0x1DC2 JUMPI DUP4 DUP5 REVERT JUMPDEST DUP2 CALLDATALOAD DUP2 DUP2 GT ISZERO PUSH2 0x1DD0 JUMPI DUP5 DUP6 REVERT JUMPDEST DUP8 PUSH1 0x20 DUP3 PUSH1 0x5 SHL DUP6 ADD ADD GT ISZERO PUSH2 0x1D06 JUMPI DUP5 DUP6 REVERT JUMPDEST PUSH1 0x0 DUP1 PUSH1 0x40 DUP4 DUP6 SUB SLT ISZERO PUSH2 0x1DF6 JUMPI DUP2 DUP3 REVERT JUMPDEST POP POP DUP1 CALLDATALOAD SWAP3 PUSH1 0x20 SWAP1 SWAP2 ADD CALLDATALOAD SWAP2 POP JUMP JUMPDEST PUSH1 0x0 PUSH1 0x1 DUP1 PUSH1 0xA0 SHL SUB DUP5 AND DUP3 MSTORE PUSH1 0x20 PUSH1 0x40 DUP2 DUP5 ADD MSTORE DUP4 MLOAD DUP1 PUSH1 0x40 DUP6 ADD MSTORE DUP3 JUMPDEST DUP2 DUP2 LT ISZERO PUSH2 0x1E40 JUMPI DUP6 DUP2 ADD DUP4 ADD MLOAD DUP6 DUP3 ADD PUSH1 0x60 ADD MSTORE DUP3 ADD PUSH2 0x1E24 JUMP JUMPDEST DUP2 DUP2 GT ISZERO PUSH2 0x1E51 JUMPI DUP4 PUSH1 0x60 DUP4 DUP8 ADD ADD MSTORE JUMPDEST POP PUSH1 0x1F ADD PUSH1 0x1F NOT AND SWAP3 SWAP1 SWAP3 ADD PUSH1 0x60 ADD SWAP5 SWAP4 POP POP POP POP JUMP JUMPDEST PUSH1 0x40 DUP1 DUP3 MSTORE DUP2 ADD DUP4 SWAP1 MSTORE PUSH1 0x0 PUSH1 0x1 PUSH1 0x1 PUSH1 0xFB SHL SUB DUP5 GT ISZERO PUSH2 0x1E87 JUMPI DUP1 DUP2 REVERT JUMPDEST DUP4 PUSH1 0x5 SHL DUP1 DUP7 PUSH1 0x60 DUP6 ADD CALLDATACOPY DUP3 ADD PUSH1 0x60 ADD SWAP1 DUP2 MSTORE SWAP2 ISZERO ISZERO PUSH1 0x20 SWAP1 SWAP2 ADD MSTORE SWAP3 SWAP2 POP POP JUMP JUMPDEST PUSH1 0x20 DUP1 DUP3 MSTORE DUP3 MLOAD DUP3 DUP3 ADD DUP2 SWAP1 MSTORE PUSH1 0x0 SWAP2 SWAP1 DUP5 DUP3 ADD SWAP1 PUSH1 0x40 DUP6 ADD SWAP1 DUP5 JUMPDEST DUP2 DUP2 LT ISZERO PUSH2 0x1EE1 JUMPI DUP4 MLOAD DUP4 MSTORE SWAP3 DUP5 ADD SWAP3 SWAP2 DUP5 ADD SWAP2 PUSH1 0x1 ADD PUSH2 0x1EC5 JUMP JUMPDEST POP SWAP1 SWAP7 SWAP6 POP POP POP POP POP POP JUMP JUMPDEST PUSH1 0x0 PUSH1 0x20 DUP3 MSTORE DUP3 PUSH1 0x20 DUP4 ADD MSTORE DUP3 DUP5 PUSH1 0x40 DUP5 ADD CALLDATACOPY DUP2 DUP4 ADD PUSH1 0x40 SWAP1 DUP2 ADD SWAP2 SWAP1 SWAP2 MSTORE PUSH1 0x1F SWAP1 SWAP3 ADD PUSH1 0x1F NOT AND ADD ADD SWAP2 SWAP1 POP JUMP JUMPDEST PUSH1 0x0 DUP1 DUP3 SLT DUP1 ISZERO PUSH1 0x1 PUSH1 0x1 PUSH1 0xFF SHL SUB DUP5 SWAP1 SUB DUP6 SGT AND ISZERO PUSH2 0x1F3E JUMPI PUSH2 0x1F3E PUSH2 0x2057 JUMP JUMPDEST PUSH1 0x1 PUSH1 0xFF SHL DUP4 SWAP1 SUB DUP5 SLT DUP2 AND ISZERO PUSH2 0x1F57 JUMPI PUSH2 0x1F57 PUSH2 0x2057 JUMP JUMPDEST POP POP ADD SWAP1 JUMP JUMPDEST PUSH1 0x0 DUP3 NOT DUP3 GT ISZERO PUSH2 0x1F70 JUMPI PUSH2 0x1F70 PUSH2 0x2057 JUMP JUMPDEST POP ADD SWAP1 JUMP JUMPDEST PUSH1 0x0 DUP2 PUSH1 0x0 NOT DIV DUP4 GT DUP3 ISZERO ISZERO AND ISZERO PUSH2 0x1F8F JUMPI PUSH2 0x1F8F PUSH2 0x2057 JUMP JUMPDEST POP MUL SWAP1 JUMP JUMPDEST PUSH1 0x0 DUP1 DUP4 SLT DUP1 ISZERO PUSH1 0x1 PUSH1 0xFF SHL DUP6 ADD DUP5 SLT AND ISZERO PUSH2 0x1FB2 JUMPI PUSH2 0x1FB2 PUSH2 0x2057 JUMP JUMPDEST PUSH1 0x1 PUSH1 0x1 PUSH1 0xFF SHL SUB DUP5 ADD DUP4 SGT DUP2 AND ISZERO PUSH2 0x1FCD JUMPI PUSH2 0x1FCD PUSH2 0x2057 JUMP JUMPDEST POP POP SUB SWAP1 JUMP JUMPDEST PUSH1 0x0 DUP3 DUP3 LT ISZERO PUSH2 0x1FE5 JUMPI PUSH2 0x1FE5 PUSH2 0x2057 JUMP JUMPDEST POP SUB SWAP1 JUMP JUMPDEST PUSH1 0x0 DUP2 PUSH2 0x1FF9 JUMPI PUSH2 0x1FF9 PUSH2 0x2057 JUMP JUMPDEST POP PUSH1 0x0 NOT ADD SWAP1 JUMP JUMPDEST PUSH1 0x1 DUP2 DUP2 SHR SWAP1 DUP3 AND DUP1 PUSH2 0x2015 JUMPI PUSH1 0x7F DUP3 AND SWAP2 POP JUMPDEST PUSH1 0x20 DUP3 LT DUP2 EQ ISZERO PUSH2 0x2036 JUMPI PUSH4 0x4E487B71 PUSH1 0xE0 SHL PUSH1 0x0 MSTORE PUSH1 0x22 PUSH1 0x4 MSTORE PUSH1 0x24 PUSH1 0x0 REVERT JUMPDEST POP SWAP2 SWAP1 POP JUMP JUMPDEST PUSH1 0x0 PUSH1 0x0 NOT DUP3 EQ ISZERO PUSH2 0x2050 JUMPI PUSH2 0x2050 PUSH2 0x2057 JUMP JUMPDEST POP PUSH1 0x1 ADD SWAP1 JUMP JUMPDEST PUSH4 0x4E487B71 PUSH1 0xE0 SHL PUSH1 0x0 MSTORE PUSH1 0x11 PUSH1 0x4 MSTORE PUSH1 0x24 PUSH1 0x0 REVERT JUMPDEST PUSH1 0x1 PUSH1 0x1 PUSH1 0xA0 SHL SUB DUP2 AND DUP2 EQ PUSH2 0x1B0D JUMPI PUSH1 0x0 DUP1 REVERT INVALID LOG2 PUSH5 0x6970667358 0x22 SLT KECCAK256 0xAA 0xCE 0xB7 ADDRESS 0xBA 0x4D 0xAB SIGNEXTEND 0xF7 EXTCODEHASH 0x49 INVALID PUSH26 0x22BD8485BC256647EC693BA1CB809095A0AE8C64736F6C634300 ADDMOD SUB STOP CALLER ",
  "sha1": "c082d14c6a144ce95c0376af4e027c93cd4cd99b",
  "source": "// SPDX-License-Identifier: MIT\npragma solidity ^0.8.0;\n\nimport \"../interfaces/ArmyInterface.sol\";\nimport \"./BattleProposal.sol\";\n\ninterface ARMY is ArmyInterface {\n    function serialNumber() external view returns (uint);\n    function rankContract() external view returns (address);\n}\n\ninterface RANK {\n    function updateBranchPrefix(address, string calldata) external;\n}\n\ncontract Battlefield is BattleProposal {\n\n    uint public fieldRange;\n    mapping (uint => uint[]) public fieldToDefender;\n    mapping (uint => bool) public fieldIsGreen;\n    mapping (address => bool) public commanderHasField;\n    ARMY public floraArmy;\n    ARMY public faunaArmy;\n    RANK public floraRank;\n    RANK public faunaRank;\n    uint public floraFieldCount;\n    uint public faunaFieldCount;\n    int private _refPower;\n\n    event FieldState(uint indexed fieldID,\n                     address indexed conqueror,\n                     uint[] team,\n                     bool isGreen);\n\n    event FieldRange(uint fieldRange);\n\n    constructor(address floraArmyAddr, address faunaArmyAddr) {\n        fieldRange = 20;\n        _refPower = 1000;\n        floraArmy = ARMY(floraArmyAddr);\n        faunaArmy = ARMY(faunaArmyAddr);\n        floraRank = RANK(floraArmy.rankContract());\n        faunaRank = RANK(faunaArmy.rankContract());\n        floraFieldCount = 0;\n        faunaFieldCount = 0;\n\n        emit FieldRange(fieldRange);\n    }\n\n    function expand() external {\n        require(floraArmy.serialNumber() + faunaArmy.serialNumber() > fieldRange*50);\n        fieldRange += 20;\n\n        emit FieldRange(fieldRange);\n    }\n\n    function getFieldDefender(uint fieldID) external view returns (uint[] memory) {\n        uint[] memory defender = fieldToDefender[fieldID];\n        return defender;\n    }\n\n    function floraConquer(uint fieldID, uint[] calldata attackerTeam) external {\n        require(fieldID < fieldRange);\n        require(!commanderHasField[msg.sender]);\n        for(uint i = 0; i < attackerTeam.length; i++) {\n            require(floraArmy.ownerOf(attackerTeam[i]) == msg.sender);\n        }\n        uint[] memory defenderTeam = fieldToDefender[fieldID];\n        if (defenderTeam.length > 0) {\n            require(!fieldIsGreen[fieldID]);\n            _fight(floraArmy, attackerTeam, faunaArmy, defenderTeam);\n            commanderHasField[faunaArmy.ownerOf(defenderTeam[0])] = false;\n            faunaFieldCount--;\n        }\n        else {\n            require(attackerTeam.length == 1);\n        }\n        fieldToDefender[fieldID] = attackerTeam;\n        fieldIsGreen[fieldID] = true;\n        fieldHasVoted[fieldID] = false;\n        commanderHasField[msg.sender] = true;\n        floraFieldCount++;\n\n        emit FieldState(fieldID, msg.sender, attackerTeam, true);\n    }\n\n    function faunaConquer(uint fieldID, uint[] calldata attackerTeam) external {\n        require(fieldID < fieldRange);\n        require(!commanderHasField[msg.sender]);\n        for(uint i = 0; i < attackerTeam.length; i++) {\n            require(faunaArmy.ownerOf(attackerTeam[i]) == msg.sender);\n        }\n        uint[] memory defenderTeam = fieldToDefender[fieldID];\n        if (defenderTeam.length > 0) {\n            require(fieldIsGreen[fieldID]);\n            _fight(faunaArmy, attackerTeam, floraArmy, defenderTeam);\n            commanderHasField[floraArmy.ownerOf(defenderTeam[0])] = false;\n            floraFieldCount--;\n        }\n        else {\n            require(attackerTeam.length == 1);\n        }\n        fieldToDefender[fieldID] = attackerTeam;\n        fieldIsGreen[fieldID] = false;\n        fieldHasVoted[fieldID] = false;\n        commanderHasField[msg.sender] = true;\n        faunaFieldCount++;\n\n        emit FieldState(fieldID, msg.sender, attackerTeam, false);\n    }\n\n    function floraVote(address branch, uint proposalID, uint fieldID)\n            external voteState(branch) {\n        require(!fieldHasVoted[fieldID]);\n        require(floraArmy.ownerOf(fieldToDefender[fieldID][0]) == msg.sender);\n        branchVotes[branch][proposalID]++;\n        fieldHasVoted[fieldID] = true;\n    }\n\n    function faunaVote(address branch, uint proposalID, uint fieldID)\n            external voteState(branch) {\n        require(!fieldHasVoted[fieldID]);\n        require(faunaArmy.ownerOf(fieldToDefender[fieldID][0]) == msg.sender);\n        branchVotes[branch][proposalID]++;        \n        fieldHasVoted[fieldID] = true;\n    }\n\n    function endVote(address branch) external voteState(branch) {\n        uint currentTime = block.timestamp;\n        require(currentTime >= branchUpdateTimes[branch] + 7 days);\n        branchUpdateTimes[branch] = currentTime;\n        \n        uint maxVote = 0;\n        uint maxIdx = 0;\n        uint[] memory votes = branchVotes[branch];\n        for (uint i = 0; i < votes.length; i++) {\n            if (votes[i] > maxVote) {\n                maxVote = votes[i];\n                maxIdx = i;\n            }\n        }\n\n        string memory resultPrefix = branchProposals[branch][maxIdx];\n\n        if (floraFieldCount >= faunaFieldCount) {\n            floraRank.updateBranchPrefix(branch, resultPrefix);\n        }\n        if (faunaFieldCount >= floraFieldCount) {\n            faunaRank.updateBranchPrefix(branch, resultPrefix);\n        }\n\n        delete branchProposals[branch];\n        delete branchVotes[branch];\n        branchEnableVote[branch] = false;\n    }\n\n    function _fight(ArmyInterface attacker, uint[] memory attackerTeam,\n                    ArmyInterface defender, uint[] memory defenderTeam\n                    ) private view {\n        if (attackerTeam.length == defenderTeam.length-1) {\n            (address eBranch,bool eArmed,,int ePower) = defender.getMinionInfo(defenderTeam[0]);\n            int dBuff;\n            if (!eArmed) {\n                dBuff = 0;\n            }\n            else {\n                dBuff = ePower - _refPower;\n            }\n            for (uint i = 0; i < attackerTeam.length; i++) {\n                (address aBranch,bool aArmed,,int aPower) = attacker.getMinionInfo(attackerTeam[i]);\n                (address dBranch,bool dArmed,,int dPower) = defender.getMinionInfo(defenderTeam[i+1]);                    \n                require(aArmed && aBranch == dBranch); \n                require(!dArmed || aPower > dPower + dBuff);\n            }            \n        }\n        else if (attackerTeam.length == defenderTeam.length) {\n            for (uint i = 0; i < defenderTeam.length; i++) {\n                (address aBranch,bool aArmed,,int aPower) = attacker.getMinionInfo(attackerTeam[i]);\n                (address dBranch,bool dArmed,,int dPower) = defender.getMinionInfo(defenderTeam[i]);\n                require(aArmed && aBranch == dBranch);\n                require(!dArmed || aPower > dPower);\n            }\n        }\n        else if (attackerTeam.length == defenderTeam.length+1) {\n            (address eBranch,bool eArmed,,int ePower) = attacker.getMinionInfo(attackerTeam[defenderTeam.length]);\n            require(eArmed);\n            int aBuff = ePower - _refPower;\n            for (uint i = 0; i < defenderTeam.length; i++) {\n                (address aBranch,bool aArmed,,int aPower) = attacker.getMinionInfo(attackerTeam[i]);\n                (address dBranch,bool dArmed,,int dPower) = defender.getMinionInfo(defenderTeam[i]);                    \n                require(aArmed && aBranch == dBranch && eBranch != dBranch);\n                require(!dArmed || aPower + aBuff > dPower);\n            }\n        }\n        else {\n            require(false);\n        }\n    }\n}",
  "sourcePath": "contracts/Battlefield.sol",
  "type": "contract"
}