{
  "abi": [
    {
      "inputs": [
        {
          "internalType": "address",
          "name": "ensRegistryAddr",
          "type": "address"
        },
        {
          "internalType": "uint256",
          "name": "initEnhancer",
          "type": "uint256"
        },
        {
          "internalType": "int256[5]",
          "name": "powerLevels",
          "type": "int256[5]"
        },
        {
          "internalType": "string[5]",
          "name": "jsonNames",
          "type": "string[5]"
        }
      ],
      "stateMutability": "nonpayable",
      "type": "constructor"
    },
    {
      "anonymous": false,
      "inputs": [
        {
          "indexed": true,
          "internalType": "address",
          "name": "owner",
          "type": "address"
        },
        {
          "indexed": true,
          "internalType": "address",
          "name": "approved",
          "type": "address"
        },
        {
          "indexed": true,
          "internalType": "uint256",
          "name": "tokenId",
          "type": "uint256"
        }
      ],
      "name": "Approval",
      "type": "event"
    },
    {
      "anonymous": false,
      "inputs": [
        {
          "indexed": true,
          "internalType": "address",
          "name": "owner",
          "type": "address"
        },
        {
          "indexed": true,
          "internalType": "address",
          "name": "operator",
          "type": "address"
        },
        {
          "indexed": false,
          "internalType": "bool",
          "name": "approved",
          "type": "bool"
        }
      ],
      "name": "ApprovalForAll",
      "type": "event"
    },
    {
      "anonymous": false,
      "inputs": [
        {
          "indexed": true,
          "internalType": "uint256",
          "name": "minionID",
          "type": "uint256"
        },
        {
          "indexed": true,
          "internalType": "address",
          "name": "branchAddress",
          "type": "address"
        },
        {
          "indexed": true,
          "internalType": "bool",
          "name": "armed",
          "type": "bool"
        },
        {
          "indexed": false,
          "internalType": "int256",
          "name": "environmentFactor",
          "type": "int256"
        },
        {
          "indexed": false,
          "internalType": "int256",
          "name": "power",
          "type": "int256"
        }
      ],
      "name": "MinionState",
      "type": "event"
    },
    {
      "anonymous": false,
      "inputs": [
        {
          "indexed": true,
          "internalType": "address",
          "name": "from",
          "type": "address"
        },
        {
          "indexed": true,
          "internalType": "address",
          "name": "to",
          "type": "address"
        },
        {
          "indexed": true,
          "internalType": "uint256",
          "name": "tokenId",
          "type": "uint256"
        }
      ],
      "name": "Transfer",
      "type": "event"
    },
    {
      "inputs": [
        {
          "internalType": "address",
          "name": "to",
          "type": "address"
        },
        {
          "internalType": "uint256",
          "name": "tokenId",
          "type": "uint256"
        }
      ],
      "name": "approve",
      "outputs": [],
      "stateMutability": "nonpayable",
      "type": "function"
    },
    {
      "inputs": [
        {
          "internalType": "uint256",
          "name": "minionID",
          "type": "uint256"
        }
      ],
      "name": "arm",
      "outputs": [],
      "stateMutability": "nonpayable",
      "type": "function"
    },
    {
      "inputs": [
        {
          "internalType": "address",
          "name": "owner",
          "type": "address"
        }
      ],
      "name": "balanceOf",
      "outputs": [
        {
          "internalType": "uint256",
          "name": "",
          "type": "uint256"
        }
      ],
      "stateMutability": "view",
      "type": "function"
    },
    {
      "inputs": [
        {
          "internalType": "uint256",
          "name": "minionID",
          "type": "uint256"
        }
      ],
      "name": "boost",
      "outputs": [],
      "stateMutability": "nonpayable",
      "type": "function"
    },
    {
      "inputs": [],
      "name": "enhancerContract",
      "outputs": [
        {
          "internalType": "contract ENHR",
          "name": "",
          "type": "address"
        }
      ],
      "stateMutability": "view",
      "type": "function"
    },
    {
      "inputs": [],
      "name": "ens",
      "outputs": [
        {
          "internalType": "contract ENS",
          "name": "",
          "type": "address"
        }
      ],
      "stateMutability": "view",
      "type": "function"
    },
    {
      "inputs": [
        {
          "internalType": "uint256",
          "name": "tokenId",
          "type": "uint256"
        }
      ],
      "name": "getApproved",
      "outputs": [
        {
          "internalType": "address",
          "name": "",
          "type": "address"
        }
      ],
      "stateMutability": "view",
      "type": "function"
    },
    {
      "inputs": [
        {
          "internalType": "address",
          "name": "commander",
          "type": "address"
        }
      ],
      "name": "getCommanderTeamInfo",
      "outputs": [
        {
          "components": [
            {
              "internalType": "address",
              "name": "branchAddr",
              "type": "address"
            },
            {
              "internalType": "bool",
              "name": "armed",
              "type": "bool"
            },
            {
              "internalType": "int256",
              "name": "envFactor",
              "type": "int256"
            },
            {
              "internalType": "int256",
              "name": "power",
              "type": "int256"
            }
          ],
          "internalType": "struct ArmyBase.Minion[]",
          "name": "teamInfo",
          "type": "tuple[]"
        }
      ],
      "stateMutability": "view",
      "type": "function"
    },
    {
      "inputs": [
        {
          "internalType": "address",
          "name": "commander",
          "type": "address"
        }
      ],
      "name": "getMinionIDs",
      "outputs": [
        {
          "internalType": "uint256[]",
          "name": "minionIDs",
          "type": "uint256[]"
        }
      ],
      "stateMutability": "view",
      "type": "function"
    },
    {
      "inputs": [
        {
          "internalType": "uint256",
          "name": "minionID",
          "type": "uint256"
        }
      ],
      "name": "getMinionInfo",
      "outputs": [
        {
          "internalType": "address",
          "name": "",
          "type": "address"
        },
        {
          "internalType": "bool",
          "name": "",
          "type": "bool"
        },
        {
          "internalType": "int256",
          "name": "",
          "type": "int256"
        },
        {
          "internalType": "int256",
          "name": "",
          "type": "int256"
        }
      ],
      "stateMutability": "view",
      "type": "function"
    },
    {
      "inputs": [
        {
          "internalType": "uint256",
          "name": "minionID",
          "type": "uint256"
        }
      ],
      "name": "getMinionProfile",
      "outputs": [
        {
          "components": [
            {
              "internalType": "address",
              "name": "branch",
              "type": "address"
            },
            {
              "internalType": "bool",
              "name": "armed",
              "type": "bool"
            },
            {
              "internalType": "int256",
              "name": "price",
              "type": "int256"
            },
            {
              "internalType": "int256",
              "name": "power",
              "type": "int256"
            },
            {
              "internalType": "string",
              "name": "uri",
              "type": "string"
            }
          ],
          "internalType": "struct ArmyBase.MinionProfile",
          "name": "profile",
          "type": "tuple"
        }
      ],
      "stateMutability": "view",
      "type": "function"
    },
    {
      "inputs": [
        {
          "internalType": "uint256[]",
          "name": "minionIDs",
          "type": "uint256[]"
        }
      ],
      "name": "getTeamInfo",
      "outputs": [
        {
          "components": [
            {
              "internalType": "address",
              "name": "branchAddr",
              "type": "address"
            },
            {
              "internalType": "bool",
              "name": "armed",
              "type": "bool"
            },
            {
              "internalType": "int256",
              "name": "envFactor",
              "type": "int256"
            },
            {
              "internalType": "int256",
              "name": "power",
              "type": "int256"
            }
          ],
          "internalType": "struct ArmyBase.Minion[]",
          "name": "teamInfo",
          "type": "tuple[]"
        }
      ],
      "stateMutability": "view",
      "type": "function"
    },
    {
      "inputs": [
        {
          "internalType": "uint256",
          "name": "minionID",
          "type": "uint256"
        }
      ],
      "name": "grant",
      "outputs": [],
      "stateMutability": "nonpayable",
      "type": "function"
    },
    {
      "inputs": [
        {
          "internalType": "uint256",
          "name": "minionID",
          "type": "uint256"
        }
      ],
      "name": "heal",
      "outputs": [],
      "stateMutability": "nonpayable",
      "type": "function"
    },
    {
      "inputs": [],
      "name": "initPower",
      "outputs": [
        {
          "internalType": "int256",
          "name": "",
          "type": "int256"
        }
      ],
      "stateMutability": "view",
      "type": "function"
    },
    {
      "inputs": [
        {
          "internalType": "address",
          "name": "owner",
          "type": "address"
        },
        {
          "internalType": "address",
          "name": "operator",
          "type": "address"
        }
      ],
      "name": "isApprovedForAll",
      "outputs": [
        {
          "internalType": "bool",
          "name": "",
          "type": "bool"
        }
      ],
      "stateMutability": "view",
      "type": "function"
    },
    {
      "inputs": [
        {
          "internalType": "uint256",
          "name": "minionID",
          "type": "uint256"
        }
      ],
      "name": "liberate",
      "outputs": [],
      "stateMutability": "nonpayable",
      "type": "function"
    },
    {
      "inputs": [
        {
          "internalType": "uint256",
          "name": "minionID",
          "type": "uint256"
        }
      ],
      "name": "minionExists",
      "outputs": [
        {
          "internalType": "bool",
          "name": "",
          "type": "bool"
        }
      ],
      "stateMutability": "view",
      "type": "function"
    },
    {
      "inputs": [
        {
          "internalType": "uint256",
          "name": "",
          "type": "uint256"
        }
      ],
      "name": "minions",
      "outputs": [
        {
          "internalType": "address",
          "name": "branchAddr",
          "type": "address"
        },
        {
          "internalType": "bool",
          "name": "armed",
          "type": "bool"
        },
        {
          "internalType": "int256",
          "name": "envFactor",
          "type": "int256"
        },
        {
          "internalType": "int256",
          "name": "power",
          "type": "int256"
        }
      ],
      "stateMutability": "view",
      "type": "function"
    },
    {
      "inputs": [],
      "name": "name",
      "outputs": [
        {
          "internalType": "string",
          "name": "",
          "type": "string"
        }
      ],
      "stateMutability": "view",
      "type": "function"
    },
    {
      "inputs": [
        {
          "internalType": "uint256",
          "name": "tokenId",
          "type": "uint256"
        }
      ],
      "name": "ownerOf",
      "outputs": [
        {
          "internalType": "address",
          "name": "",
          "type": "address"
        }
      ],
      "stateMutability": "view",
      "type": "function"
    },
    {
      "inputs": [],
      "name": "population",
      "outputs": [
        {
          "internalType": "uint256",
          "name": "",
          "type": "uint256"
        }
      ],
      "stateMutability": "view",
      "type": "function"
    },
    {
      "inputs": [],
      "name": "rankContract",
      "outputs": [
        {
          "internalType": "contract RANK",
          "name": "",
          "type": "address"
        }
      ],
      "stateMutability": "view",
      "type": "function"
    },
    {
      "inputs": [
        {
          "internalType": "bytes32",
          "name": "branchHash",
          "type": "bytes32"
        }
      ],
      "name": "recruit",
      "outputs": [
        {
          "internalType": "uint256",
          "name": "",
          "type": "uint256"
        }
      ],
      "stateMutability": "nonpayable",
      "type": "function"
    },
    {
      "inputs": [
        {
          "internalType": "address",
          "name": "from",
          "type": "address"
        },
        {
          "internalType": "address",
          "name": "to",
          "type": "address"
        },
        {
          "internalType": "uint256",
          "name": "tokenId",
          "type": "uint256"
        }
      ],
      "name": "safeTransferFrom",
      "outputs": [],
      "stateMutability": "nonpayable",
      "type": "function"
    },
    {
      "inputs": [
        {
          "internalType": "address",
          "name": "from",
          "type": "address"
        },
        {
          "internalType": "address",
          "name": "to",
          "type": "address"
        },
        {
          "internalType": "uint256",
          "name": "tokenId",
          "type": "uint256"
        },
        {
          "internalType": "bytes",
          "name": "_data",
          "type": "bytes"
        }
      ],
      "name": "safeTransferFrom",
      "outputs": [],
      "stateMutability": "nonpayable",
      "type": "function"
    },
    {
      "inputs": [],
      "name": "serialNumber",
      "outputs": [
        {
          "internalType": "uint256",
          "name": "",
          "type": "uint256"
        }
      ],
      "stateMutability": "view",
      "type": "function"
    },
    {
      "inputs": [
        {
          "internalType": "address",
          "name": "operator",
          "type": "address"
        },
        {
          "internalType": "bool",
          "name": "approved",
          "type": "bool"
        }
      ],
      "name": "setApprovalForAll",
      "outputs": [],
      "stateMutability": "nonpayable",
      "type": "function"
    },
    {
      "inputs": [
        {
          "internalType": "bytes4",
          "name": "interfaceId",
          "type": "bytes4"
        }
      ],
      "name": "supportsInterface",
      "outputs": [
        {
          "internalType": "bool",
          "name": "",
          "type": "bool"
        }
      ],
      "stateMutability": "view",
      "type": "function"
    },
    {
      "inputs": [],
      "name": "symbol",
      "outputs": [
        {
          "internalType": "string",
          "name": "",
          "type": "string"
        }
      ],
      "stateMutability": "view",
      "type": "function"
    },
    {
      "inputs": [
        {
          "internalType": "uint256",
          "name": "minionID",
          "type": "uint256"
        }
      ],
      "name": "tokenURI",
      "outputs": [
        {
          "internalType": "string",
          "name": "",
          "type": "string"
        }
      ],
      "stateMutability": "view",
      "type": "function"
    },
    {
      "inputs": [
        {
          "internalType": "uint256",
          "name": "minionID",
          "type": "uint256"
        }
      ],
      "name": "train",
      "outputs": [],
      "stateMutability": "nonpayable",
      "type": "function"
    },
    {
      "inputs": [
        {
          "internalType": "address",
          "name": "from",
          "type": "address"
        },
        {
          "internalType": "address",
          "name": "to",
          "type": "address"
        },
        {
          "internalType": "uint256",
          "name": "tokenId",
          "type": "uint256"
        }
      ],
      "name": "transferFrom",
      "outputs": [],
      "stateMutability": "nonpayable",
      "type": "function"
    }
  ],
  "bytecode": "60806040523480156200001157600080fd5b5060405162005b0638038062005b068339810160408190526200003491620003e1565b60408051808201825260098152684661756e6141726d7960b81b6020808301918252835180850190945260058452644661756e4160d81b9084015281518793916200008391600091906200025e565b508051620000999060019060208401906200025e565b505060006009819055600a55506103e8600b55600c80546001600160a01b0319166001600160a01b0392909216919091179055604051620000da90620002ed565b6040808252600a90820152692432b6b7b3b637b134b760b11b6060820152608060208201819052600390820152622423a160e91b60a082015260c001604051809103906000f08015801562000133573d6000803e3d6000fd5b50600780546001600160a01b0319166001600160a01b03929092169182179055604051633365086560e11b8152336004820152602481018590526366ca10ca90604401600060405180830381600087803b1580156200019157600080fd5b505af1158015620001a6573d6000803e3d6000fd5b505050508181604051620001ba90620002fb565b620001c7929190620004ab565b604051809103906000f080158015620001e4573d6000803e3d6000fd5b50600880546001600160a01b0319166001600160a01b0392909216918217905560405163f2fde38b60e01b815233600482015263f2fde38b90602401600060405180830381600087803b1580156200023b57600080fd5b505af115801562000250573d6000803e3d6000fd5b505050505050505062000622565b8280546200026c90620005cf565b90600052602060002090601f016020900481019282620002905760008555620002db565b82601f10620002ab57805160ff1916838001178555620002db565b82800160010185558215620002db579182015b82811115620002db578251825591602001919060010190620002be565b50620002e992915062000309565b5090565b611226806200395183390190565b610f8f8062004b7783390190565b5b80821115620002e957600081556001016200030a565b6000601f838184011262000332578182fd5b600562000349620003438262000579565b62000546565b8085855b84811015620003d45781518801898782011262000368578788fd5b805160206001600160401b038211156200038657620003866200060c565b62000399828a01601f1916820162000546565b8281528c82848601011115620003ad578a8bfd5b620003be838383018487016200059c565b875295860195939093019250506001016200034d565b5090979650505050505050565b6000806000806101008587031215620003f8578384fd5b84516001600160a01b03811681146200040f578485fd5b80945050602080860151935086605f8701126200042a578283fd5b60056200043b620003438262000579565b806040890160e08a018b81111562000451578788fd5b875b85811015620004715782518552938601939186019160010162000453565b505191965090935050506001600160401b03821115905062000491578182fd5b6200049f8782880162000320565b91505092959194509250565b600060c082018285835b6005811015620004d6578151835260209283019290910190600101620004b5565b505060c060a08501525061016083019084835b60058110156200053a5785840360bf1901835281518051808652602062000516828289018386016200059c565b601f91909101601f19169590950185019493840193929092019150600101620004e9565b50919695505050505050565b604051601f8201601f191681016001600160401b03811182821017156200057157620005716200060c565b604052919050565b60006001600160401b038211156200059557620005956200060c565b5060051b90565b60005b83811015620005b95781810151838201526020016200059f565b83811115620005c9576000848401525b50505050565b600181811c90821680620005e457607f821691505b602082108114156200060657634e487b7160e01b600052602260045260246000fd5b50919050565b634e487b7160e01b600052604160045260246000fd5b61331f80620006326000396000f3fe608060405234801561001057600080fd5b50600436106101fb5760003560e01c806378880f4a1161011a578063d0248516116100ad578063efebc7b01161007c578063efebc7b0146104a4578063f19c74cc146104b7578063f37ac61c146104ca578063f8543f00146104dd578063fccc6623146104f0576101fb565b8063d0248516146103f8578063d10384681461040b578063df069b111461042b578063e985e9c514610468576101fb565b8063a22cb465116100e9578063a22cb465146103ac578063b5b0d782146103bf578063b88d4fde146103d2578063c87b56dd146103e5576101fb565b806378880f4a146103685780637fb7ce86146103715780638c7a774a1461039157806395d89b41146103a4576101fb565b80632a0daeea1161019257806342842e0e1161016157806342842e0e1461030f5780634b202537146103225780636352211e1461034257806370a0823114610355576101fb565b80632a0daeea146102c95780632e3fca11146102e0578063368004ed146102e95780633f15457f146102fc576101fb565b8063160e3f3d116101ce578063160e3f3d1461027d5780631b55d19e1461029057806320c69c89146102a357806323b872dd146102b6576101fb565b806301ffc9a71461020057806306fdde0314610228578063081812fc1461023d578063095ea7b314610268575b600080fd5b61021361020e366004612bfe565b610503565b60405190151581526020015b60405180910390f35b610230610557565b60405161021f9190612e43565b61025061024b366004612be6565b6105e9565b6040516001600160a01b03909116815260200161021f565b61027b610276366004612b4b565b610676565b005b61027b61028b366004612be6565b61078c565b61027b61029e366004612be6565b6108b8565b61027b6102b1366004612be6565b610ac2565b61027b6102c4366004612a33565b610c7c565b6102d260095481565b60405190815260200161021f565b6102d2600b5481565b61027b6102f7366004612be6565b610cad565b600c54610250906001600160a01b031681565b61027b61031d366004612a33565b610e08565b610335610330366004612be6565b610e23565b60405161021f9190612fd6565b610250610350366004612be6565b610f37565b6102d26103633660046129c3565b610fae565b6102d2600a5481565b61038461037f3660046129c3565b611035565b60405161021f9190612dff565b61027b61039f366004612be6565b61112a565b6102306112a4565b61027b6103ba366004612b1a565b6112b3565b600754610250906001600160a01b031681565b61027b6103e0366004612a73565b611385565b6102306103f3366004612be6565b6113bd565b610213610406366004612be6565b61150f565b61041e610419366004612b76565b61151a565b60405161021f9190612d90565b61043e610439366004612be6565b611684565b604080516001600160a01b039095168552921515602085015291830152606082015260800161021f565b6102136104763660046129fb565b6001600160a01b03918216600090815260056020908152604080832093909416825291909152205460ff1690565b61043e6104b2366004612be6565b611739565b61041e6104c53660046129c3565b611782565b61027b6104d8366004612be6565b61190e565b600854610250906001600160a01b031681565b6102d26104fe366004612be6565b611b51565b60006001600160e01b031982166380ac58cd60e01b148061053457506001600160e01b03198216635b5e139f60e01b145b8061054f57506301ffc9a760e01b6001600160e01b03198316145b90505b919050565b606060008054610566906131f2565b80601f0160208091040260200160405190810160405280929190818152602001828054610592906131f2565b80156105df5780601f106105b4576101008083540402835291602001916105df565b820191906000526020600020905b8154815290600101906020018083116105c257829003601f168201915b5050505050905090565b60006105f482611d81565b61065a5760405162461bcd60e51b815260206004820152602c60248201527f4552433732313a20617070726f76656420717565727920666f72206e6f6e657860448201526b34b9ba32b73a103a37b5b2b760a11b60648201526084015b60405180910390fd5b506000908152600460205260409020546001600160a01b031690565b600061068182610f37565b9050806001600160a01b0316836001600160a01b031614156106ef5760405162461bcd60e51b815260206004820152602160248201527f4552433732313a20617070726f76616c20746f2063757272656e74206f776e656044820152603960f91b6064820152608401610651565b336001600160a01b038216148061070b575061070b8133610476565b61077d5760405162461bcd60e51b815260206004820152603860248201527f4552433732313a20617070726f76652063616c6c6572206973206e6f74206f7760448201527f6e6572206e6f7220617070726f76656420666f7220616c6c00000000000000006064820152608401610651565b6107878383611d9e565b505050565b806107973382611e0c565b6107b35760405162461bcd60e51b815260040161065190612ef4565b6000600d83815481106107d657634e487b7160e01b600052603260045260246000fd5b60009182526020918290206040805160808101825260039390930290910180546001600160a01b03808216808652600160a01b90920460ff16151595850195909552600182015484840152600290910154606084018190526008549251635e104a8b60e11b81526004810192909252602482015291935061078792869291169063bc2095169060440160006040518083038186803b15801561087757600080fd5b505afa15801561088b573d6000803e3d6000fd5b505050506040513d6000823e601f3d908101601f191682016040526108b39190810190612c36565b611ef6565b806108c33382611e0c565b6108df5760405162461bcd60e51b815260040161065190612ef4565b6000600d838154811061090257634e487b7160e01b600052603260045260246000fd5b600091825260209091206003909102018054909150600160a01b900460ff1661093d5760405162461bcd60e51b815260040161065190612f8d565b805460408051633fabe5a360e21b815290516001600160a01b0390921691600091839163feaf968c9160048082019260a092909190829003018186803b15801561098657600080fd5b505afa15801561099a573d6000803e3d6000fd5b505050506040513d601f19601f820116820180604052508101906109be9190612ca9565b5050509150508260010154811215610a6d57600754600284015460018501546001600160a01b039092169163224b5c7291339160109190610a02908790841b613094565b610a0c91906130d6565b6040516001600160e01b031960e086901b1681526001600160a01b039093166004840152901d6024820152604401600060405180830381600087803b158015610a5457600080fd5b505af1158015610a68573d6000803e3d6000fd5b505050505b825460ff60a01b1981168455600184015460028501546040805192835260208301919091526000926001600160a01b03169188916000805160206132ca83398151915291015b60405180910390a45050505050565b80610acd3382611e0c565b610ae95760405162461bcd60e51b815260040161065190612ef4565b6000600d8381548110610b0c57634e487b7160e01b600052603260045260246000fd5b600091825260209091206003909102018054909150600160a01b900460ff1615610b785760405162461bcd60e51b815260206004820152601d60248201527f41524d593a206d696e696f6e20697320616c72656164792061726d65640000006044820152606401610651565b805460408051633fabe5a360e21b815290516001600160a01b0390921691600091839163feaf968c9160048082019260a092909190829003018186803b158015610bc157600080fd5b505afa158015610bd5573d6000803e3d6000fd5b505050506040513d601f19601f82011682018060405250810190610bf99190612ca9565b505050915050601083600201548260108660010154901b610c1a9190613094565b610c2491906130d6565b901d600284018190556001808501839055845460ff60a01b198116600160a01b17865560405191926001600160a01b039091169188916000805160206132ca83398151915291610ab391878252602082015260400190565b610c863382611e0c565b610ca25760405162461bcd60e51b815260040161065190612f3c565b610787838383611f81565b80610cb83382611e0c565b610cd45760405162461bcd60e51b815260040161065190612ef4565b6000600d8381548110610cf757634e487b7160e01b600052603260045260246000fd5b600091825260209091206003909102018054909150600160a01b900460ff16610d325760405162461bcd60e51b815260040161065190612f8d565b805460408051633fabe5a360e21b815290516001600160a01b0390921691600091839163feaf968c9160048082019260a092909190829003018186803b158015610d7b57600080fd5b505afa158015610d8f573d6000803e3d6000fd5b505050506040513d601f19601f82011682018060405250810190610db39190612ca9565b50505060018501819055845460ff60a01b19811686556002860154604051929450600093506001600160a01b039091169188916000805160206132ca83398151915291610ab391878252602082015260400190565b61078783838360405180602001604052806000815250611385565b610e606040518060a0016040528060006001600160a01b031681526020016000151581526020016000815260200160008152602001606081525090565b610e6982611d81565b610e855760405162461bcd60e51b815260040161065190612e56565b6000600d8381548110610ea857634e487b7160e01b600052603260045260246000fd5b60009182526020918290206040805160808101825260039390930290910180546001600160a01b038116808552600160a01b90910460ff1615158486019081526001830154858501908152600290930154606080870191825292895290511515958801959095529051918601919091529151918401919091529050610f2c836113bd565b608083015250919050565b6000818152600260205260408120546001600160a01b03168061054f5760405162461bcd60e51b815260206004820152602960248201527f4552433732313a206f776e657220717565727920666f72206e6f6e657869737460448201526832b73a103a37b5b2b760b91b6064820152608401610651565b60006001600160a01b0382166110195760405162461bcd60e51b815260206004820152602a60248201527f4552433732313a2062616c616e636520717565727920666f7220746865207a65604482015269726f206164647265737360b01b6064820152608401610651565b506001600160a01b031660009081526003602052604090205490565b6060600061104283610fae565b90508067ffffffffffffffff81111561106b57634e487b7160e01b600052604160045260246000fd5b604051908082528060200260200182016040528015611094578160200160208202803683370190505b5091506000805b82821015611122576110ac81611d81565b80156110d15750846001600160a01b03166110c682610f37565b6001600160a01b0316145b1561111057808483815181106110f757634e487b7160e01b600052603260045260246000fd5b60209081029190910101528161110c8161322d565b9250505b8061111a8161322d565b91505061109b565b505050919050565b806111353382611e0c565b6111515760405162461bcd60e51b815260040161065190612ef4565b6000600d838154811061117457634e487b7160e01b600052603260045260246000fd5b600091825260209091206003909102018054909150600160a01b900460ff166111eb5760405162461bcd60e51b8152602060048201526024808201527f41524d593a2063616e206f6e6c79206c696265726174652061726d6564206d696044820152633734b7b760e11b6064820152608401610651565b600b548160020154131561128157600754600b5460028301546001600160a01b03909216916366ca10ca9133916112229190613159565b6040516001600160e01b031960e085901b1681526001600160a01b0390921660048301526024820152604401600060405180830381600087803b15801561126857600080fd5b505af115801561127c573d6000803e3d6000fd5b505050505b61128a83612121565b600a805490600061129a836131db565b9190505550505050565b606060018054610566906131f2565b6001600160a01b03821633141561130c5760405162461bcd60e51b815260206004820152601960248201527f4552433732313a20617070726f766520746f2063616c6c6572000000000000006044820152606401610651565b3360008181526005602090815260408083206001600160a01b0387168085529252909120805460ff1916841515179055906001600160a01b03167f17307eab39ab6107e8899845ad3d59bd9653f200f220920489ca2b5937696c3183604051611379911515815260200190565b60405180910390a35050565b61138f3383611e0c565b6113ab5760405162461bcd60e51b815260040161065190612f3c565b6113b784848484612164565b50505050565b60606113c882611d81565b6113e45760405162461bcd60e51b815260040161065190612e56565b6000600d838154811061140757634e487b7160e01b600052603260045260246000fd5b6000918252602080832060408051608081018252600390940290910180546001600160a01b038116855260ff600160a01b90910416151592840192909252600182015490830152600201546060820152915061146284612197565b9050600b815111156114775791506105529050565b60085482516060840151604051635e104a8b60e11b81526001600160a01b039283166004820152602481019190915291169063bc2095169060440160006040518083038186803b1580156114ca57600080fd5b505afa1580156114de573d6000803e3d6000fd5b505050506040513d6000823e601f3d908101601f191682016040526115069190810190612c36565b92505050610552565b600061054f82611d81565b60608167ffffffffffffffff81111561154357634e487b7160e01b600052604160045260246000fd5b60405190808252806020026020018201604052801561159557816020015b6040805160808101825260008082526020808301829052928201819052606082015282526000199092019101816115615790505b50905060005b8281101561167d57600d8484838181106115c557634e487b7160e01b600052603260045260246000fd5b90506020020135815481106115ea57634e487b7160e01b600052603260045260246000fd5b600091825260209182902060408051608081018252600390930290910180546001600160a01b038116845260ff600160a01b909104161515938301939093526001830154908201526002909101546060820152825183908390811061165f57634e487b7160e01b600052603260045260246000fd5b602002602001018190525080806116759061322d565b91505061159b565b5092915050565b60008060008061169385611d81565b6116af5760405162461bcd60e51b815260040161065190612e56565b6000600d86815481106116d257634e487b7160e01b600052603260045260246000fd5b60009182526020918290206040805160808101825260039390930290910180546001600160a01b038116808552600160a01b90910460ff16151594840185905260018201549284018390526002909101546060909301839052999298509650945092505050565b600d818154811061174957600080fd5b60009182526020909120600390910201805460018201546002909201546001600160a01b0382169350600160a01b90910460ff16919084565b6060600061178f83610fae565b90508067ffffffffffffffff8111156117b857634e487b7160e01b600052604160045260246000fd5b60405190808252806020026020018201604052801561180a57816020015b6040805160808101825260008082526020808301829052928201819052606082015282526000199092019101816117d65790505b5091506000805b828210156111225761182281611d81565b80156118475750846001600160a01b031661183c82610f37565b6001600160a01b0316145b156118fc57600d818154811061186d57634e487b7160e01b600052603260045260246000fd5b600091825260209182902060408051608081018252600390930290910180546001600160a01b038116845260ff600160a01b90910416151593830193909352600183015490820152600290910154606082015284518590849081106118e257634e487b7160e01b600052603260045260246000fd5b602002602001018190525081806118f89061322d565b9250505b806119068161322d565b915050611811565b806119193382611e0c565b6119355760405162461bcd60e51b815260040161065190612ef4565b6000600d838154811061195857634e487b7160e01b600052603260045260246000fd5b600091825260209091206003909102018054909150600160a01b900460ff16156119d25760405162461bcd60e51b815260206004820152602560248201527f41524d593a206d696e696f6e206973206e6f7420696e20747261696e696e6720604482015264737461746560d81b6064820152608401610651565b805460408051633fabe5a360e21b815290516001600160a01b0390921691600091839163feaf968c9160048082019260a092909190829003018186803b158015611a1b57600080fd5b505afa158015611a2f573d6000803e3d6000fd5b505050506040513d601f19601f82011682018060405250810190611a539190612ca9565b5050509150508260010154811315611b0157600754600284015460018501546001600160a01b039092169163224b5c7291339160109190611a969087841b613094565b611aa091906130d6565b6040516001600160e01b031960e086901b1681526001600160a01b039093166004840152901d6024820152604401600060405180830381600087803b158015611ae857600080fd5b505af1158015611afc573d6000803e3d6000fd5b505050505b825460ff60a01b198116600160a01b178455600184810154600286015460405192936001600160a01b03169289926000805160206132ca83398151915292610ab392918252602082015260400190565b600080611b5d83612307565b90506001600160a01b038116611bac5760405162461bcd60e51b8152602060048201526014602482015273082a49ab27440d2dcecc2d8d2c840c4e4c2dcc6d60631b6044820152606401610651565b60008190506000816001600160a01b031663feaf968c6040518163ffffffff1660e01b815260040160a06040518083038186803b158015611bec57600080fd5b505afa158015611c00573d6000803e3d6000fd5b505050506040513d601f19601f82011682018060405250810190611c249190612ca9565b50505091505060006009549050611c3b338261240a565b604080516080810182526001600160a01b03808716808352600060208401818152848601888152600b805460608801908152600d8054600181018255908652975160039098027fd7b6990105719101dabeb77144f2a3385c8033acd3af97e9423a695e81ad1eb58101805495511515600160a01b026001600160a81b0319909616999098169890981793909317909555517fd7b6990105719101dabeb77144f2a3385c8033acd3af97e9423a695e81ad1eb6860155517fd7b6990105719101dabeb77144f2a3385c8033acd3af97e9423a695e81ad1eb790940193909355905492519192909184916000805160206132ca83398151915291611d4591888252602082015260400190565b60405180910390a460098054906000611d5d8361322d565b9091555050600a8054906000611d728361322d565b90915550909695505050505050565b6000908152600260205260409020546001600160a01b0316151590565b600081815260046020526040902080546001600160a01b0319166001600160a01b0384169081179091558190611dd382610f37565b6001600160a01b03167f8c5be1e5ebec7d5bd14f71427d1e84f3dd0314c0f7b2291e5b200ac8c7c3b92560405160405180910390a45050565b6000611e1782611d81565b611e785760405162461bcd60e51b815260206004820152602c60248201527f4552433732313a206f70657261746f7220717565727920666f72206e6f6e657860448201526b34b9ba32b73a103a37b5b2b760a11b6064820152608401610651565b6000611e8383610f37565b9050806001600160a01b0316846001600160a01b03161480611ebe5750836001600160a01b0316611eb3846105e9565b6001600160a01b0316145b80611eee57506001600160a01b0380821660009081526005602090815260408083209388168352929052205460ff165b949350505050565b611eff82611d81565b611f625760405162461bcd60e51b815260206004820152602e60248201527f45524337323155524953746f726167653a2055524920736574206f66206e6f6e60448201526d32bc34b9ba32b73a103a37b5b2b760911b6064820152608401610651565b60008281526006602090815260409091208251610787928401906128d8565b826001600160a01b0316611f9482610f37565b6001600160a01b031614611ffc5760405162461bcd60e51b815260206004820152602960248201527f4552433732313a207472616e73666572206f6620746f6b656e2074686174206960448201526839903737ba1037bbb760b91b6064820152608401610651565b6001600160a01b03821661205e5760405162461bcd60e51b8152602060048201526024808201527f4552433732313a207472616e7366657220746f20746865207a65726f206164646044820152637265737360e01b6064820152608401610651565b612069600082611d9e565b6001600160a01b0383166000908152600360205260408120805460019290612092908490613198565b90915550506001600160a01b03821660009081526003602052604081208054600192906120c090849061307c565b909155505060008181526002602052604080822080546001600160a01b0319166001600160a01b0386811691821790925591518493918716917fddf252ad1be2c89b69c2b068fc378daa952ba7f163c4a11628f55a4df523b3ef91a4505050565b61212a8161253d565b60008181526006602052604090208054612143906131f2565b1590506121615760008181526006602052604081206121619161295c565b50565b61216f848484611f81565b61217b848484846125d8565b6113b75760405162461bcd60e51b815260040161065190612ea2565b60606121a282611d81565b6122085760405162461bcd60e51b815260206004820152603160248201527f45524337323155524953746f726167653a2055524920717565727920666f72206044820152703737b732bc34b9ba32b73a103a37b5b2b760791b6064820152608401610651565b60008281526006602052604081208054612221906131f2565b80601f016020809104026020016040519081016040528092919081815260200182805461224d906131f2565b801561229a5780601f1061226f5761010080835404028352916020019161229a565b820191906000526020600020905b81548152906001019060200180831161227d57829003601f168201915b5050505050905060006122b860408051602081019091526000815290565b90508051600014156122cc57509050610552565b8151156122fe5780826040516020016122e6929190612d24565b60405160208183030381529060405292505050610552565b611eee846126e5565b600c54604051630178b8bf60e01b81526004810183905260009182916001600160a01b0390911690630178b8bf9060240160206040518083038186803b15801561235057600080fd5b505afa158015612364573d6000803e3d6000fd5b505050506040513d601f19601f8201168201806040525081019061238891906129df565b604051631d9dabef60e11b8152600481018590529091506001600160a01b03821690633b3b57de9060240160206040518083038186803b1580156123cb57600080fd5b505afa1580156123df573d6000803e3d6000fd5b505050506040513d601f19601f8201168201806040525081019061240391906129df565b9392505050565b6001600160a01b0382166124605760405162461bcd60e51b815260206004820181905260248201527f4552433732313a206d696e7420746f20746865207a65726f20616464726573736044820152606401610651565b61246981611d81565b156124b65760405162461bcd60e51b815260206004820152601c60248201527f4552433732313a20746f6b656e20616c7265616479206d696e746564000000006044820152606401610651565b6001600160a01b03821660009081526003602052604081208054600192906124df90849061307c565b909155505060008181526002602052604080822080546001600160a01b0319166001600160a01b03861690811790915590518392907fddf252ad1be2c89b69c2b068fc378daa952ba7f163c4a11628f55a4df523b3ef908290a45050565b600061254882610f37565b9050612555600083611d9e565b6001600160a01b038116600090815260036020526040812080546001929061257e908490613198565b909155505060008281526002602052604080822080546001600160a01b0319169055518391906001600160a01b038416907fddf252ad1be2c89b69c2b068fc378daa952ba7f163c4a11628f55a4df523b3ef908390a45050565b60006001600160a01b0384163b156126da57604051630a85bd0160e11b81526001600160a01b0385169063150b7a029061261c903390899088908890600401612d53565b602060405180830381600087803b15801561263657600080fd5b505af1925050508015612666575060408051601f3d908101601f1916820190925261266391810190612c1a565b60015b6126c0573d808015612694576040519150601f19603f3d011682016040523d82523d6000602084013e612699565b606091505b5080516126b85760405162461bcd60e51b815260040161065190612ea2565b805181602001fd5b6001600160e01b031916630a85bd0160e11b149050611eee565b506001949350505050565b60606126f082611d81565b6127545760405162461bcd60e51b815260206004820152602f60248201527f4552433732314d657461646174613a2055524920717565727920666f72206e6f60448201526e3732bc34b9ba32b73a103a37b5b2b760891b6064820152608401610651565b600061276b60408051602081019091526000815290565b9050600081511161278b5760405180602001604052806000815250612403565b80612795846127bd565b6040516020016127a6929190612d24565b604051602081830303815290604052915050919050565b6060816127e257506040805180820190915260018152600360fc1b6020820152610552565b8160005b811561280c57806127f68161322d565b91506128059050600a836130c2565b91506127e6565b60008167ffffffffffffffff81111561283557634e487b7160e01b600052604160045260246000fd5b6040519080825280601f01601f19166020018201604052801561285f576020820181803683370190505b5090505b8415611eee57612874600183613198565b9150612881600a86613248565b61288c90603061307c565b60f81b8183815181106128af57634e487b7160e01b600052603260045260246000fd5b60200101906001600160f81b031916908160001a9053506128d1600a866130c2565b9450612863565b8280546128e4906131f2565b90600052602060002090601f016020900481019282612906576000855561294c565b82601f1061291f57805160ff191683800117855561294c565b8280016001018555821561294c579182015b8281111561294c578251825591602001919060010190612931565b50612958929150612994565b5090565b508054612968906131f2565b6000825580601f1061297a5750612161565b601f01602090049060005260206000209081019061216191905b5b808211156129585760008155600101612995565b805169ffffffffffffffffffff8116811461055257600080fd5b6000602082840312156129d4578081fd5b81356124038161329e565b6000602082840312156129f0578081fd5b81516124038161329e565b60008060408385031215612a0d578081fd5b8235612a188161329e565b91506020830135612a288161329e565b809150509250929050565b600080600060608486031215612a47578081fd5b8335612a528161329e565b92506020840135612a628161329e565b929592945050506040919091013590565b60008060008060808587031215612a88578081fd5b8435612a938161329e565b93506020850135612aa38161329e565b925060408501359150606085013567ffffffffffffffff811115612ac5578182fd5b8501601f81018713612ad5578182fd5b8035612ae8612ae382613054565b613023565b818152886020838501011115612afc578384fd5b81602084016020830137908101602001929092525092959194509250565b60008060408385031215612b2c578182fd5b8235612b378161329e565b915060208301358015158114612a28578182fd5b60008060408385031215612b5d578182fd5b8235612b688161329e565b946020939093013593505050565b60008060208385031215612b88578182fd5b823567ffffffffffffffff80821115612b9f578384fd5b818501915085601f830112612bb2578384fd5b813581811115612bc0578485fd5b8660208260051b8501011115612bd4578485fd5b60209290920196919550909350505050565b600060208284031215612bf7578081fd5b5035919050565b600060208284031215612c0f578081fd5b8135612403816132b3565b600060208284031215612c2b578081fd5b8151612403816132b3565b600060208284031215612c47578081fd5b815167ffffffffffffffff811115612c5d578182fd5b8201601f81018413612c6d578182fd5b8051612c7b612ae382613054565b818152856020838501011115612c8f578384fd5b612ca08260208301602086016131af565b95945050505050565b600080600080600060a08688031215612cc0578283fd5b612cc9866129a9565b9450602086015193506040860151925060608601519150612cec608087016129a9565b90509295509295909350565b60008151808452612d108160208601602086016131af565b601f01601f19169290920160200192915050565b60008351612d368184602088016131af565b835190830190612d4a8183602088016131af565b01949350505050565b6001600160a01b0385811682528416602082015260408101839052608060608201819052600090612d8690830184612cf8565b9695505050505050565b602080825282518282018190526000919060409081850190868401855b82811015612df257815180516001600160a01b031685528681015115158786015285810151868601526060908101519085015260809093019290850190600101612dad565b5091979650505050505050565b6020808252825182820181905260009190848201906040850190845b81811015612e3757835183529284019291840191600101612e1b565b50909695505050505050565b6000602082526124036020830184612cf8565b6020808252602c908201527f41524d593a20636f6d6d616e64657220717565727920666f72206e6f6e65786960408201526b39ba32b73a1036b4b734b7b760a11b606082015260800190565b60208082526032908201527f4552433732313a207472616e7366657220746f206e6f6e20455243373231526560408201527131b2b4bb32b91034b6b83632b6b2b73a32b960711b606082015260800190565b60208082526028908201527f41524d593a20636f6d6d616e6465722063616e277420636f6d6d616e64207468604082015267329036b4b734b7b760c11b606082015260800190565b60208082526031908201527f4552433732313a207472616e736665722063616c6c6572206973206e6f74206f6040820152701ddb995c881b9bdc88185c1c1c9bdd9959607a1b606082015260800190565b60208082526029908201527f41524d593a206d696e696f6e20697320616c726561647920696e20747261696e604082015268696e6720737461746560b81b606082015260800190565b60006020825260018060a01b0383511660208301526020830151151560408301526040830151606083015260608301516080830152608083015160a080840152611eee60c0840182612cf8565b604051601f8201601f1916810167ffffffffffffffff8111828210171561304c5761304c613288565b604052919050565b600067ffffffffffffffff82111561306e5761306e613288565b50601f01601f191660200190565b6000821982111561308f5761308f61325c565b500190565b6000826130a3576130a3613272565b600160ff1b8214600019841416156130bd576130bd61325c565b500590565b6000826130d1576130d1613272565b500490565b60006001600160ff1b03818413828413808216868404861116156130fc576130fc61325c565b600160ff1b8487128281168783058912161561311a5761311a61325c565b8587129250878205871284841616156131355761313561325c565b8785058712818416161561314b5761314b61325c565b505050929093029392505050565b60008083128015600160ff1b8501841216156131775761317761325c565b6001600160ff1b03840183138116156131925761319261325c565b50500390565b6000828210156131aa576131aa61325c565b500390565b60005b838110156131ca5781810151838201526020016131b2565b838111156113b75750506000910152565b6000816131ea576131ea61325c565b506000190190565b600181811c9082168061320657607f821691505b6020821081141561322757634e487b7160e01b600052602260045260246000fd5b50919050565b60006000198214156132415761324161325c565b5060010190565b60008261325757613257613272565b500690565b634e487b7160e01b600052601160045260246000fd5b634e487b7160e01b600052601260045260246000fd5b634e487b7160e01b600052604160045260246000fd5b6001600160a01b038116811461216157600080fd5b6001600160e01b03198116811461216157600080fdfe05cf8ce068bd8f8c0e2cfd6182aff2bc80fdfbbf05a0a7ee70f867dc2cecdb0ea264697066735822122009aa02accc47de2763130e5f55febf8e65bd9fcc7797f79318942d8dea0b662e64736f6c6343000803003360806040523480156200001157600080fd5b50604051620012263803806200122683398101604081905262000034916200022b565b8151829082906200004d906003906020850190620000d2565b50805162000063906004906020840190620000d2565b505050600062000078620000ce60201b60201c565b600580546001600160a01b0319166001600160a01b038316908117909155604051919250906000907f8be0079c531659141344cd1fd0a4f28419497f9722a3daafe3b4186f6b6457e0908290a3505050620002e5565b3390565b828054620000e09062000292565b90600052602060002090601f0160209004810192826200010457600085556200014f565b82601f106200011f57805160ff19168380011785556200014f565b828001600101855582156200014f579182015b828111156200014f57825182559160200191906001019062000132565b506200015d92915062000161565b5090565b5b808211156200015d576000815560010162000162565b600082601f83011262000189578081fd5b81516001600160401b0380821115620001a657620001a6620002cf565b604051601f8301601f19908116603f01168101908282118183101715620001d157620001d1620002cf565b81604052838152602092508683858801011115620001ed578485fd5b8491505b83821015620002105785820183015181830184015290820190620001f1565b838211156200022157848385830101525b9695505050505050565b600080604083850312156200023e578182fd5b82516001600160401b038082111562000255578384fd5b620002638683870162000178565b9350602085015191508082111562000279578283fd5b50620002888582860162000178565b9150509250929050565b600181811c90821680620002a757607f821691505b60208210811415620002c957634e487b7160e01b600052602260045260246000fd5b50919050565b634e487b7160e01b600052604160045260246000fd5b610f3180620002f56000396000f3fe608060405234801561001057600080fd5b50600436106101005760003560e01c806370a0823111610097578063a457c2d711610066578063a457c2d7146101f3578063a9059cbb14610206578063dd62ed3e14610219578063f2fde38b1461025257610100565b806370a08231146101b5578063715018a6146101c85780638da5cb5b146101d057806395d89b41146101eb57610100565b806323b872dd116100d357806323b872dd1461016d578063313ce56714610180578063395093511461018f57806366ca10ca146101a257610100565b806306fdde0314610105578063095ea7b31461012357806318160ddd14610146578063224b5c7214610158575b600080fd5b61010d610265565b60405161011a9190610cbd565b60405180910390f35b610136610131366004610c94565b6102f7565b604051901515815260200161011a565b6002545b60405190815260200161011a565b61016b610166366004610c94565b61030d565b005b61013661017b366004610c59565b610363565b6040516012815260200161011a565b61013661019d366004610c94565b610416565b61016b6101b0366004610c94565b61044d565b61014a6101c3366004610c0d565b610496565b61016b6104b5565b6005546040516001600160a01b03909116815260200161011a565b61010d610529565b610136610201366004610c94565b610538565b610136610214366004610c94565b6105d3565b61014a610227366004610c27565b6001600160a01b03918216600090815260016020908152604080832093909416825291909152205490565b61016b610260366004610c0d565b6105e0565b60606003805461027490610eaa565b80601f01602080910402602001604051908101604052809291908181526020018280546102a090610eaa565b80156102ed5780601f106102c2576101008083540402835291602001916102ed565b820191906000526020600020905b8154815290600101906020018083116102d057829003601f168201915b5050505050905090565b60006103043384846106cb565b50600192915050565b6005546001600160a01b031633146103405760405162461bcd60e51b815260040161033790610d10565b60405180910390fd5b61035f826103506012600a610da3565b61035a9084610e74565b6107f0565b5050565b600061037084848461093f565b6001600160a01b0384166000908152600160209081526040808320338452909152902054828110156103f55760405162461bcd60e51b815260206004820152602860248201527f45524332303a207472616e7366657220616d6f756e74206578636565647320616044820152676c6c6f77616e636560c01b6064820152608401610337565b61040985336104048685610e93565b6106cb565b60019150505b9392505050565b3360008181526001602090815260408083206001600160a01b03871684529091528120549091610304918590610404908690610d45565b6005546001600160a01b031633146104775760405162461bcd60e51b815260040161033790610d10565b61035f826104876012600a610da3565b6104919084610e74565b610b17565b6001600160a01b0381166000908152602081905260409020545b919050565b6005546001600160a01b031633146104df5760405162461bcd60e51b815260040161033790610d10565b6005546040516000916001600160a01b0316907f8be0079c531659141344cd1fd0a4f28419497f9722a3daafe3b4186f6b6457e0908390a3600580546001600160a01b0319169055565b60606004805461027490610eaa565b3360009081526001602090815260408083206001600160a01b0386168452909152812054828110156105ba5760405162461bcd60e51b815260206004820152602560248201527f45524332303a2064656372656173656420616c6c6f77616e63652062656c6f77604482015264207a65726f60d81b6064820152608401610337565b6105c933856104048685610e93565b5060019392505050565b600061030433848461093f565b6005546001600160a01b0316331461060a5760405162461bcd60e51b815260040161033790610d10565b6001600160a01b03811661066f5760405162461bcd60e51b815260206004820152602660248201527f4f776e61626c653a206e6577206f776e657220697320746865207a65726f206160448201526564647265737360d01b6064820152608401610337565b6005546040516001600160a01b038084169216907f8be0079c531659141344cd1fd0a4f28419497f9722a3daafe3b4186f6b6457e090600090a3600580546001600160a01b0319166001600160a01b0392909216919091179055565b6001600160a01b03831661072d5760405162461bcd60e51b8152602060048201526024808201527f45524332303a20617070726f76652066726f6d20746865207a65726f206164646044820152637265737360e01b6064820152608401610337565b6001600160a01b03821661078e5760405162461bcd60e51b815260206004820152602260248201527f45524332303a20617070726f766520746f20746865207a65726f206164647265604482015261737360f01b6064820152608401610337565b6001600160a01b0383811660008181526001602090815260408083209487168084529482529182902085905590518481527f8c5be1e5ebec7d5bd14f71427d1e84f3dd0314c0f7b2291e5b200ac8c7c3b92591015b60405180910390a3505050565b6001600160a01b0382166108505760405162461bcd60e51b815260206004820152602160248201527f45524332303a206275726e2066726f6d20746865207a65726f206164647265736044820152607360f81b6064820152608401610337565b6001600160a01b038216600090815260208190526040902054818110156108c45760405162461bcd60e51b815260206004820152602260248201527f45524332303a206275726e20616d6f756e7420657863656564732062616c616e604482015261636560f01b6064820152608401610337565b6108ce8282610e93565b6001600160a01b038416600090815260208190526040812091909155600280548492906108fc908490610e93565b90915550506040518281526000906001600160a01b038516907fddf252ad1be2c89b69c2b068fc378daa952ba7f163c4a11628f55a4df523b3ef906020016107e3565b6001600160a01b0383166109a35760405162461bcd60e51b815260206004820152602560248201527f45524332303a207472616e736665722066726f6d20746865207a65726f206164604482015264647265737360d81b6064820152608401610337565b6001600160a01b038216610a055760405162461bcd60e51b815260206004820152602360248201527f45524332303a207472616e7366657220746f20746865207a65726f206164647260448201526265737360e81b6064820152608401610337565b6001600160a01b03831660009081526020819052604090205481811015610a7d5760405162461bcd60e51b815260206004820152602660248201527f45524332303a207472616e7366657220616d6f756e7420657863656564732062604482015265616c616e636560d01b6064820152608401610337565b610a878282610e93565b6001600160a01b038086166000908152602081905260408082209390935590851681529081208054849290610abd908490610d45565b92505081905550826001600160a01b0316846001600160a01b03167fddf252ad1be2c89b69c2b068fc378daa952ba7f163c4a11628f55a4df523b3ef84604051610b0991815260200190565b60405180910390a350505050565b6001600160a01b038216610b6d5760405162461bcd60e51b815260206004820152601f60248201527f45524332303a206d696e7420746f20746865207a65726f2061646472657373006044820152606401610337565b8060026000828254610b7f9190610d45565b90915550506001600160a01b03821660009081526020819052604081208054839290610bac908490610d45565b90915550506040518181526001600160a01b038316906000907fddf252ad1be2c89b69c2b068fc378daa952ba7f163c4a11628f55a4df523b3ef9060200160405180910390a35050565b80356001600160a01b03811681146104b057600080fd5b600060208284031215610c1e578081fd5b61040f82610bf6565b60008060408385031215610c39578081fd5b610c4283610bf6565b9150610c5060208401610bf6565b90509250929050565b600080600060608486031215610c6d578081fd5b610c7684610bf6565b9250610c8460208501610bf6565b9150604084013590509250925092565b60008060408385031215610ca6578182fd5b610caf83610bf6565b946020939093013593505050565b6000602080835283518082850152825b81811015610ce957858101830151858201604001528201610ccd565b81811115610cfa5783604083870101525b50601f01601f1916929092016040019392505050565b6020808252818101527f4f776e61626c653a2063616c6c6572206973206e6f7420746865206f776e6572604082015260600190565b60008219821115610d5857610d58610ee5565b500190565b80825b6001808611610d6f5750610d9a565b818704821115610d8157610d81610ee5565b80861615610d8e57918102915b9490941c938002610d60565b94509492505050565b600061040f60001960ff851684600082610dbf5750600161040f565b81610dcc5750600061040f565b8160018114610de25760028114610dec57610e19565b600191505061040f565b60ff841115610dfd57610dfd610ee5565b6001841b915084821115610e1357610e13610ee5565b5061040f565b5060208310610133831016604e8410600b8410161715610e4c575081810a83811115610e4757610e47610ee5565b61040f565b610e598484846001610d5d565b808604821115610e6b57610e6b610ee5565b02949350505050565b6000816000190483118215151615610e8e57610e8e610ee5565b500290565b600082821015610ea557610ea5610ee5565b500390565b600181811c90821680610ebe57607f821691505b60208210811415610edf57634e487b7160e01b600052602260045260246000fd5b50919050565b634e487b7160e01b600052601160045260246000fdfea2646970667358221220a28397254a1ef153a914e27021d39c36f0f0428ad4443a76d95c1245a66ed42264736f6c6343000803003360806040523480156200001157600080fd5b5060405162000f8f38038062000f8f8339810160408190526200003491620002d0565b600080546001600160a01b031916339081178255604051909182917f8be0079c531659141344cd1fd0a4f28419497f9722a3daafe3b4186f6b6457e0908290a35060005b60058110156200014057828160058110620000a357634e487b7160e01b600052603260045260246000fd5b602002015160028260058110620000ca57634e487b7160e01b600052603260045260246000fd5b0155818160058110620000ed57634e487b7160e01b600052603260045260246000fd5b6020020151600782600581106200011457634e487b7160e01b600052603260045260246000fd5b0190805190602001906200012a92919062000149565b5080620001378162000401565b91505062000078565b5050506200043f565b8280546200015790620003c4565b90600052602060002090601f0160209004810192826200017b5760008555620001c6565b82601f106200019657805160ff1916838001178555620001c6565b82800160010185558215620001c6579182015b82811115620001c6578251825591602001919060010190620001a9565b50620001d4929150620001d8565b5090565b5b80821115620001d45760008155600101620001d9565b6000601f838184011262000201578182fd5b6005620002186200021282620003a1565b6200036e565b8085855b84811015620002c35781518801898782011262000237578788fd5b80516001600160401b0381111562000253576200025362000429565b602062000268828a01601f191682016200036e565b8281528c828486010111156200027c578a8bfd5b8a5b838110156200029b5784810183015182820184015282016200027e565b83811115620002ac578b8385840101525b50875295860195939093019250506001016200021c565b5090979650505050505050565b60008060c08385031215620002e3578182fd5b83601f840112620002f2578182fd5b6005620003036200021282620003a1565b808560a087018881111562000316578687fd5b865b858110156200033857825185526020948501949092019160010162000318565b505191955090925050506001600160401b0381111562000356578182fd5b6200036485828601620001ef565b9150509250929050565b604051601f8201601f191681016001600160401b038111828210171562000399576200039962000429565b604052919050565b60006001600160401b03821115620003bd57620003bd62000429565b5060051b90565b600181811c90821680620003d957607f821691505b60208210811415620003fb57634e487b7160e01b600052602260045260246000fd5b50919050565b60006000198214156200042257634e487b7160e01b81526011600452602481fd5b5060010190565b634e487b7160e01b600052604160045260246000fd5b610b40806200044f6000396000f3fe608060405234801561001057600080fd5b506004361061009e5760003560e01c80638ebc87c3116100665780638ebc87c314610114578063a323d45614610134578063bc20951614610147578063cdeba6221461015a578063f2fde38b1461016d5761009e565b80634a6d0f20146100a35780636a1805e2146100b8578063715018a6146100cb57806376034ca9146100d35780638da5cb5b146100f9575b600080fd5b6100b66100b136600461089c565b610180565b005b6100b66100c6366004610803565b610233565b6100b6610286565b6100e66100e13660046108d7565b6102fa565b6040519081526020015b60405180910390f35b6000546040516001600160a01b0390911681526020016100f0565b6101276101223660046108d7565b610311565b6040516100f0919061099c565b6101276101423660046107b9565b6103b1565b6101276101553660046107da565b6103ca565b6100b6610168366004610881565b610579565b6100b661017b3660046107b9565b610609565b6000546001600160a01b031633146101b35760405162461bcd60e51b81526004016101aa906109ef565b60405180910390fd5b60005b600581101561022f578181600581106101df57634e487b7160e01b600052603260045260246000fd5b6020028101906101ef9190610a24565b6007836005811061021057634e487b7160e01b600052603260045260246000fd5b61021c939101916106f3565b508061022781610ad9565b9150506101b6565b5050565b6000546001600160a01b0316331461025d5760405162461bcd60e51b81526004016101aa906109ef565b6001600160a01b03831660009081526001602052604090206102809083836106f3565b50505050565b6000546001600160a01b031633146102b05760405162461bcd60e51b81526004016101aa906109ef565b600080546040516001600160a01b03909116907f8be0079c531659141344cd1fd0a4f28419497f9722a3daafe3b4186f6b6457e0908390a3600080546001600160a01b0319169055565b6002816005811061030a57600080fd5b0154905081565b6007816005811061032157600080fd5b01805490915061033090610a9e565b80601f016020809104026020016040519081016040528092919081815260200182805461035c90610a9e565b80156103a95780601f1061037e576101008083540402835291602001916103a9565b820191906000526020600020905b81548152906001019060200180831161038c57829003601f168201915b505050505081565b6001602052600090815260409020805461033090610a9e565b606060006103da60016005610a70565b90505b600281600581106103fe57634e487b7160e01b600052603260045260246000fd5b01548312610561576001600160a01b0384166000908152600160205260408120805461042990610a9e565b80601f016020809104026020016040519081016040528092919081815260200182805461045590610a9e565b80156104a25780601f10610477576101008083540402835291602001916104a2565b820191906000526020600020905b81548152906001019060200180831161048557829003601f168201915b50505050509050805160001415610528576000805260016020527fa6eef7e35abe7026729641147f7915573c7e97b47efa546f5f6e3230263bcb49600783600581106104fe57634e487b7160e01b600052603260045260246000fd5b01604051602001610510929190610987565b60405160208183030381529060405292505050610573565b6001600160a01b0385166000908152600160205260409020600783600581106104fe57634e487b7160e01b600052603260045260246000fd5b8061056b81610a87565b9150506103dd565b92915050565b6000546001600160a01b031633146105a35760405162461bcd60e51b81526004016101aa906109ef565b60005b600581101561022f578181600581106105cf57634e487b7160e01b600052603260045260246000fd5b6020020135600282600581106105f557634e487b7160e01b600052603260045260246000fd5b01558061060181610ad9565b9150506105a6565b6000546001600160a01b031633146106335760405162461bcd60e51b81526004016101aa906109ef565b6001600160a01b0381166106985760405162461bcd60e51b815260206004820152602660248201527f4f776e61626c653a206e6577206f776e657220697320746865207a65726f206160448201526564647265737360d01b60648201526084016101aa565b600080546040516001600160a01b03808516939216917f8be0079c531659141344cd1fd0a4f28419497f9722a3daafe3b4186f6b6457e091a3600080546001600160a01b0319166001600160a01b0392909216919091179055565b8280546106ff90610a9e565b90600052602060002090601f0160209004810192826107215760008555610767565b82601f1061073a5782800160ff19823516178555610767565b82800160010185558215610767579182015b8281111561076757823582559160200191906001019061074c565b50610773929150610777565b5090565b5b808211156107735760008155600101610778565b80356001600160a01b03811681146107a357600080fd5b919050565b8060a0810183101561057357600080fd5b6000602082840312156107ca578081fd5b6107d38261078c565b9392505050565b600080604083850312156107ec578081fd5b6107f58361078c565b946020939093013593505050565b600080600060408486031215610817578081fd5b6108208461078c565b9250602084013567ffffffffffffffff8082111561083c578283fd5b818601915086601f83011261084f578283fd5b81358181111561085d578384fd5b87602082850101111561086e578384fd5b6020830194508093505050509250925092565b600060a08284031215610892578081fd5b6107d383836107a8565b6000602082840312156108ad578081fd5b813567ffffffffffffffff8111156108c3578182fd5b6108cf848285016107a8565b949350505050565b6000602082840312156108e8578081fd5b5035919050565b8054600090600181811c908083168061090957607f831692505b602080841082141561092957634e487b7160e01b86526022600452602486fd5b81801561093d576001811461094e5761097b565b60ff1986168952848901965061097b565b60008881526020902060005b868110156109735781548b82015290850190830161095a565b505084890196505b50505050505092915050565b60006108cf61099683866108ef565b846108ef565b6000602080835283518082850152825b818110156109c8578581018301518582016040015282016109ac565b818111156109d95783604083870101525b50601f01601f1916929092016040019392505050565b6020808252818101527f4f776e61626c653a2063616c6c6572206973206e6f7420746865206f776e6572604082015260600190565b6000808335601e19843603018112610a3a578283fd5b83018035915067ffffffffffffffff821115610a54578283fd5b602001915036819003821315610a6957600080fd5b9250929050565b600082821015610a8257610a82610af4565b500390565b600081610a9657610a96610af4565b506000190190565b600181811c90821680610ab257607f821691505b60208210811415610ad357634e487b7160e01b600052602260045260246000fd5b50919050565b6000600019821415610aed57610aed610af4565b5060010190565b634e487b7160e01b600052601160045260246000fdfea2646970667358221220f715b8846f76a57df9c894cf6a5bf42d322872c19c4aef58d809bacf63f6e64864736f6c63430008030033",
  "bytecodeSha1": "59a8107deaf4bac01144c6e81a083e72d613c8d5",
  "compiler": {
    "evm_version": "istanbul",
    "optimizer": {
      "enabled": true,
      "runs": 200
    },
    "version": "0.8.3+commit.8d00100c"
  },
  "contractName": "FaunaArmy",
  "language": "Solidity",
  "natspec": {
    "author": "Justa Liang",
    "kind": "dev",
    "methods": {
      "approve(address,uint256)": {
        "details": "See {IERC721-approve}."
      },
      "arm(uint256)": {
        "notice": "Arm a minion and update its power",
        "params": {
          "minionID": "ID of the minion"
        }
      },
      "balanceOf(address)": {
        "details": "See {IERC721-balanceOf}."
      },
      "boost(uint256)": {
        "details": "Commander cost Hemoglobin",
        "notice": "Use Hemoglobin to stimulate an armed minion to catch up with training",
        "params": {
          "minionID": "ID of the minion"
        }
      },
      "constructor": {
        "details": "Set name, symbol, and addresses of interactive contracts",
        "params": {
          "ensRegistryAddr": "Address of ENS Registry"
        }
      },
      "enhancerContract()": {
        "notice": "Corresponding Enhancer contract"
      },
      "ens()": {
        "notice": "ENS interface (fixed address)"
      },
      "getApproved(uint256)": {
        "details": "See {IERC721-getApproved}."
      },
      "getCommanderTeamInfo(address)": {
        "notice": "Get all minions' info given their commander",
        "params": {
          "commander": "Commander of these minions"
        },
        "returns": {
          "teamInfo": "Array of minion info"
        }
      },
      "getMinionIDs(address)": {
        "notice": "Get minion IDs, like (2,6,9), given commander",
        "params": {
          "commander": "Commander of these minions"
        },
        "returns": {
          "minionIDs": "IDs of these minions"
        }
      },
      "getMinionInfo(uint256)": {
        "notice": "Get minion's on-chain information",
        "params": {
          "minionID": "ID of the minion"
        },
        "returns": {
          "_0": "On-chain information of the minion"
        }
      },
      "getTeamInfo(uint256[])": {
        "notice": "Get all minions' info given minion IDs",
        "params": {
          "minionIDs": "IDs of the minions"
        },
        "returns": {
          "teamInfo": "Array of minion info"
        }
      },
      "grant(uint256)": {
        "notice": "Grant minion with current token URI",
        "params": {
          "minionID": "ID of the minion"
        }
      },
      "heal(uint256)": {
        "details": "Commander cost Hemoglobin",
        "notice": "Use Hemoglobin to heal a minion who suffer from negative training",
        "params": {
          "minionID": "ID of the minion"
        }
      },
      "initPower()": {
        "notice": "Inital minion's power"
      },
      "isApprovedForAll(address,address)": {
        "details": "See {IERC721-isApprovedForAll}."
      },
      "liberate(uint256)": {
        "notice": "Liberate a minion and get some enhancer",
        "params": {
          "minionID": "ID of the minion"
        }
      },
      "minionExists(uint256)": {
        "notice": "Get if minion exists",
        "params": {
          "minionID": "ID of the minion"
        },
        "returns": {
          "_0": "Exists or not"
        }
      },
      "name()": {
        "details": "See {IERC721Metadata-name}."
      },
      "ownerOf(uint256)": {
        "details": "See {IERC721-ownerOf}."
      },
      "population()": {
        "notice": "Population of minions"
      },
      "rankContract()": {
        "notice": "Corresponding Rank contract"
      },
      "recruit(bytes32)": {
        "notice": "Recruit a minion",
        "params": {
          "branchHash": "ENS-namehash of given pair (ex: eth-usd.data.eth)"
        },
        "returns": {
          "_0": "ID of the newly recruited minion"
        }
      },
      "safeTransferFrom(address,address,uint256)": {
        "details": "See {IERC721-safeTransferFrom}."
      },
      "safeTransferFrom(address,address,uint256,bytes)": {
        "details": "See {IERC721-safeTransferFrom}."
      },
      "serialNumber()": {
        "notice": "Serial number of minions, imply how many minions have been created"
      },
      "setApprovalForAll(address,bool)": {
        "details": "See {IERC721-setApprovalForAll}."
      },
      "supportsInterface(bytes4)": {
        "details": "See {IERC165-supportsInterface}."
      },
      "symbol()": {
        "details": "See {IERC721Metadata-symbol}."
      },
      "tokenURI(uint256)": {
        "notice": "Get minion's metadata URI",
        "params": {
          "minionID": "ID of the minion"
        }
      },
      "train(uint256)": {
        "notice": "Train a minion and update the environment factor",
        "params": {
          "minionID": "ID of the minion"
        }
      },
      "transferFrom(address,address,uint256)": {
        "details": "See {IERC721-transferFrom}."
      }
    },
    "notice": "ERC721 token cultivated by predicting market price (using Chainlink oracle)",
    "title": "Fauna Army, which grows in bearish market",
    "version": 1
  },
  "opcodes": "PUSH1 0x80 PUSH1 0x40 MSTORE CALLVALUE DUP1 ISZERO PUSH2 0x10 JUMPI PUSH1 0x0 DUP1 REVERT JUMPDEST POP PUSH1 0x4 CALLDATASIZE LT PUSH2 0x1FB JUMPI PUSH1 0x0 CALLDATALOAD PUSH1 0xE0 SHR DUP1 PUSH4 0x78880F4A GT PUSH2 0x11A JUMPI DUP1 PUSH4 0xD0248516 GT PUSH2 0xAD JUMPI DUP1 PUSH4 0xEFEBC7B0 GT PUSH2 0x7C JUMPI DUP1 PUSH4 0xEFEBC7B0 EQ PUSH2 0x4A4 JUMPI DUP1 PUSH4 0xF19C74CC EQ PUSH2 0x4B7 JUMPI DUP1 PUSH4 0xF37AC61C EQ PUSH2 0x4CA JUMPI DUP1 PUSH4 0xF8543F00 EQ PUSH2 0x4DD JUMPI DUP1 PUSH4 0xFCCC6623 EQ PUSH2 0x4F0 JUMPI PUSH2 0x1FB JUMP JUMPDEST DUP1 PUSH4 0xD0248516 EQ PUSH2 0x3F8 JUMPI DUP1 PUSH4 0xD1038468 EQ PUSH2 0x40B JUMPI DUP1 PUSH4 0xDF069B11 EQ PUSH2 0x42B JUMPI DUP1 PUSH4 0xE985E9C5 EQ PUSH2 0x468 JUMPI PUSH2 0x1FB JUMP JUMPDEST DUP1 PUSH4 0xA22CB465 GT PUSH2 0xE9 JUMPI DUP1 PUSH4 0xA22CB465 EQ PUSH2 0x3AC JUMPI DUP1 PUSH4 0xB5B0D782 EQ PUSH2 0x3BF JUMPI DUP1 PUSH4 0xB88D4FDE EQ PUSH2 0x3D2 JUMPI DUP1 PUSH4 0xC87B56DD EQ PUSH2 0x3E5 JUMPI PUSH2 0x1FB JUMP JUMPDEST DUP1 PUSH4 0x78880F4A EQ PUSH2 0x368 JUMPI DUP1 PUSH4 0x7FB7CE86 EQ PUSH2 0x371 JUMPI DUP1 PUSH4 0x8C7A774A EQ PUSH2 0x391 JUMPI DUP1 PUSH4 0x95D89B41 EQ PUSH2 0x3A4 JUMPI PUSH2 0x1FB JUMP JUMPDEST DUP1 PUSH4 0x2A0DAEEA GT PUSH2 0x192 JUMPI DUP1 PUSH4 0x42842E0E GT PUSH2 0x161 JUMPI DUP1 PUSH4 0x42842E0E EQ PUSH2 0x30F JUMPI DUP1 PUSH4 0x4B202537 EQ PUSH2 0x322 JUMPI DUP1 PUSH4 0x6352211E EQ PUSH2 0x342 JUMPI DUP1 PUSH4 0x70A08231 EQ PUSH2 0x355 JUMPI PUSH2 0x1FB JUMP JUMPDEST DUP1 PUSH4 0x2A0DAEEA EQ PUSH2 0x2C9 JUMPI DUP1 PUSH4 0x2E3FCA11 EQ PUSH2 0x2E0 JUMPI DUP1 PUSH4 0x368004ED EQ PUSH2 0x2E9 JUMPI DUP1 PUSH4 0x3F15457F EQ PUSH2 0x2FC JUMPI PUSH2 0x1FB JUMP JUMPDEST DUP1 PUSH4 0x160E3F3D GT PUSH2 0x1CE JUMPI DUP1 PUSH4 0x160E3F3D EQ PUSH2 0x27D JUMPI DUP1 PUSH4 0x1B55D19E EQ PUSH2 0x290 JUMPI DUP1 PUSH4 0x20C69C89 EQ PUSH2 0x2A3 JUMPI DUP1 PUSH4 0x23B872DD EQ PUSH2 0x2B6 JUMPI PUSH2 0x1FB JUMP JUMPDEST DUP1 PUSH4 0x1FFC9A7 EQ PUSH2 0x200 JUMPI DUP1 PUSH4 0x6FDDE03 EQ PUSH2 0x228 JUMPI DUP1 PUSH4 0x81812FC EQ PUSH2 0x23D JUMPI DUP1 PUSH4 0x95EA7B3 EQ PUSH2 0x268 JUMPI JUMPDEST PUSH1 0x0 DUP1 REVERT JUMPDEST PUSH2 0x213 PUSH2 0x20E CALLDATASIZE PUSH1 0x4 PUSH2 0x2BFE JUMP JUMPDEST PUSH2 0x503 JUMP JUMPDEST PUSH1 0x40 MLOAD SWAP1 ISZERO ISZERO DUP2 MSTORE PUSH1 0x20 ADD JUMPDEST PUSH1 0x40 MLOAD DUP1 SWAP2 SUB SWAP1 RETURN JUMPDEST PUSH2 0x230 PUSH2 0x557 JUMP JUMPDEST PUSH1 0x40 MLOAD PUSH2 0x21F SWAP2 SWAP1 PUSH2 0x2E43 JUMP JUMPDEST PUSH2 0x250 PUSH2 0x24B CALLDATASIZE PUSH1 0x4 PUSH2 0x2BE6 JUMP JUMPDEST PUSH2 0x5E9 JUMP JUMPDEST PUSH1 0x40 MLOAD PUSH1 0x1 PUSH1 0x1 PUSH1 0xA0 SHL SUB SWAP1 SWAP2 AND DUP2 MSTORE PUSH1 0x20 ADD PUSH2 0x21F JUMP JUMPDEST PUSH2 0x27B PUSH2 0x276 CALLDATASIZE PUSH1 0x4 PUSH2 0x2B4B JUMP JUMPDEST PUSH2 0x676 JUMP JUMPDEST STOP JUMPDEST PUSH2 0x27B PUSH2 0x28B CALLDATASIZE PUSH1 0x4 PUSH2 0x2BE6 JUMP JUMPDEST PUSH2 0x78C JUMP JUMPDEST PUSH2 0x27B PUSH2 0x29E CALLDATASIZE PUSH1 0x4 PUSH2 0x2BE6 JUMP JUMPDEST PUSH2 0x8B8 JUMP JUMPDEST PUSH2 0x27B PUSH2 0x2B1 CALLDATASIZE PUSH1 0x4 PUSH2 0x2BE6 JUMP JUMPDEST PUSH2 0xAC2 JUMP JUMPDEST PUSH2 0x27B PUSH2 0x2C4 CALLDATASIZE PUSH1 0x4 PUSH2 0x2A33 JUMP JUMPDEST PUSH2 0xC7C JUMP JUMPDEST PUSH2 0x2D2 PUSH1 0x9 SLOAD DUP2 JUMP JUMPDEST PUSH1 0x40 MLOAD SWAP1 DUP2 MSTORE PUSH1 0x20 ADD PUSH2 0x21F JUMP JUMPDEST PUSH2 0x2D2 PUSH1 0xB SLOAD DUP2 JUMP JUMPDEST PUSH2 0x27B PUSH2 0x2F7 CALLDATASIZE PUSH1 0x4 PUSH2 0x2BE6 JUMP JUMPDEST PUSH2 0xCAD JUMP JUMPDEST PUSH1 0xC SLOAD PUSH2 0x250 SWAP1 PUSH1 0x1 PUSH1 0x1 PUSH1 0xA0 SHL SUB AND DUP2 JUMP JUMPDEST PUSH2 0x27B PUSH2 0x31D CALLDATASIZE PUSH1 0x4 PUSH2 0x2A33 JUMP JUMPDEST PUSH2 0xE08 JUMP JUMPDEST PUSH2 0x335 PUSH2 0x330 CALLDATASIZE PUSH1 0x4 PUSH2 0x2BE6 JUMP JUMPDEST PUSH2 0xE23 JUMP JUMPDEST PUSH1 0x40 MLOAD PUSH2 0x21F SWAP2 SWAP1 PUSH2 0x2FD6 JUMP JUMPDEST PUSH2 0x250 PUSH2 0x350 CALLDATASIZE PUSH1 0x4 PUSH2 0x2BE6 JUMP JUMPDEST PUSH2 0xF37 JUMP JUMPDEST PUSH2 0x2D2 PUSH2 0x363 CALLDATASIZE PUSH1 0x4 PUSH2 0x29C3 JUMP JUMPDEST PUSH2 0xFAE JUMP JUMPDEST PUSH2 0x2D2 PUSH1 0xA SLOAD DUP2 JUMP JUMPDEST PUSH2 0x384 PUSH2 0x37F CALLDATASIZE PUSH1 0x4 PUSH2 0x29C3 JUMP JUMPDEST PUSH2 0x1035 JUMP JUMPDEST PUSH1 0x40 MLOAD PUSH2 0x21F SWAP2 SWAP1 PUSH2 0x2DFF JUMP JUMPDEST PUSH2 0x27B PUSH2 0x39F CALLDATASIZE PUSH1 0x4 PUSH2 0x2BE6 JUMP JUMPDEST PUSH2 0x112A JUMP JUMPDEST PUSH2 0x230 PUSH2 0x12A4 JUMP JUMPDEST PUSH2 0x27B PUSH2 0x3BA CALLDATASIZE PUSH1 0x4 PUSH2 0x2B1A JUMP JUMPDEST PUSH2 0x12B3 JUMP JUMPDEST PUSH1 0x7 SLOAD PUSH2 0x250 SWAP1 PUSH1 0x1 PUSH1 0x1 PUSH1 0xA0 SHL SUB AND DUP2 JUMP JUMPDEST PUSH2 0x27B PUSH2 0x3E0 CALLDATASIZE PUSH1 0x4 PUSH2 0x2A73 JUMP JUMPDEST PUSH2 0x1385 JUMP JUMPDEST PUSH2 0x230 PUSH2 0x3F3 CALLDATASIZE PUSH1 0x4 PUSH2 0x2BE6 JUMP JUMPDEST PUSH2 0x13BD JUMP JUMPDEST PUSH2 0x213 PUSH2 0x406 CALLDATASIZE PUSH1 0x4 PUSH2 0x2BE6 JUMP JUMPDEST PUSH2 0x150F JUMP JUMPDEST PUSH2 0x41E PUSH2 0x419 CALLDATASIZE PUSH1 0x4 PUSH2 0x2B76 JUMP JUMPDEST PUSH2 0x151A JUMP JUMPDEST PUSH1 0x40 MLOAD PUSH2 0x21F SWAP2 SWAP1 PUSH2 0x2D90 JUMP JUMPDEST PUSH2 0x43E PUSH2 0x439 CALLDATASIZE PUSH1 0x4 PUSH2 0x2BE6 JUMP JUMPDEST PUSH2 0x1684 JUMP JUMPDEST PUSH1 0x40 DUP1 MLOAD PUSH1 0x1 PUSH1 0x1 PUSH1 0xA0 SHL SUB SWAP1 SWAP6 AND DUP6 MSTORE SWAP3 ISZERO ISZERO PUSH1 0x20 DUP6 ADD MSTORE SWAP2 DUP4 ADD MSTORE PUSH1 0x60 DUP3 ADD MSTORE PUSH1 0x80 ADD PUSH2 0x21F JUMP JUMPDEST PUSH2 0x213 PUSH2 0x476 CALLDATASIZE PUSH1 0x4 PUSH2 0x29FB JUMP JUMPDEST PUSH1 0x1 PUSH1 0x1 PUSH1 0xA0 SHL SUB SWAP2 DUP3 AND PUSH1 0x0 SWAP1 DUP2 MSTORE PUSH1 0x5 PUSH1 0x20 SWAP1 DUP2 MSTORE PUSH1 0x40 DUP1 DUP4 KECCAK256 SWAP4 SWAP1 SWAP5 AND DUP3 MSTORE SWAP2 SWAP1 SWAP2 MSTORE KECCAK256 SLOAD PUSH1 0xFF AND SWAP1 JUMP JUMPDEST PUSH2 0x43E PUSH2 0x4B2 CALLDATASIZE PUSH1 0x4 PUSH2 0x2BE6 JUMP JUMPDEST PUSH2 0x1739 JUMP JUMPDEST PUSH2 0x41E PUSH2 0x4C5 CALLDATASIZE PUSH1 0x4 PUSH2 0x29C3 JUMP JUMPDEST PUSH2 0x1782 JUMP JUMPDEST PUSH2 0x27B PUSH2 0x4D8 CALLDATASIZE PUSH1 0x4 PUSH2 0x2BE6 JUMP JUMPDEST PUSH2 0x190E JUMP JUMPDEST PUSH1 0x8 SLOAD PUSH2 0x250 SWAP1 PUSH1 0x1 PUSH1 0x1 PUSH1 0xA0 SHL SUB AND DUP2 JUMP JUMPDEST PUSH2 0x2D2 PUSH2 0x4FE CALLDATASIZE PUSH1 0x4 PUSH2 0x2BE6 JUMP JUMPDEST PUSH2 0x1B51 JUMP JUMPDEST PUSH1 0x0 PUSH1 0x1 PUSH1 0x1 PUSH1 0xE0 SHL SUB NOT DUP3 AND PUSH4 0x80AC58CD PUSH1 0xE0 SHL EQ DUP1 PUSH2 0x534 JUMPI POP PUSH1 0x1 PUSH1 0x1 PUSH1 0xE0 SHL SUB NOT DUP3 AND PUSH4 0x5B5E139F PUSH1 0xE0 SHL EQ JUMPDEST DUP1 PUSH2 0x54F JUMPI POP PUSH4 0x1FFC9A7 PUSH1 0xE0 SHL PUSH1 0x1 PUSH1 0x1 PUSH1 0xE0 SHL SUB NOT DUP4 AND EQ JUMPDEST SWAP1 POP JUMPDEST SWAP2 SWAP1 POP JUMP JUMPDEST PUSH1 0x60 PUSH1 0x0 DUP1 SLOAD PUSH2 0x566 SWAP1 PUSH2 0x31F2 JUMP JUMPDEST DUP1 PUSH1 0x1F ADD PUSH1 0x20 DUP1 SWAP2 DIV MUL PUSH1 0x20 ADD PUSH1 0x40 MLOAD SWAP1 DUP2 ADD PUSH1 0x40 MSTORE DUP1 SWAP3 SWAP2 SWAP1 DUP2 DUP2 MSTORE PUSH1 0x20 ADD DUP3 DUP1 SLOAD PUSH2 0x592 SWAP1 PUSH2 0x31F2 JUMP JUMPDEST DUP1 ISZERO PUSH2 0x5DF JUMPI DUP1 PUSH1 0x1F LT PUSH2 0x5B4 JUMPI PUSH2 0x100 DUP1 DUP4 SLOAD DIV MUL DUP4 MSTORE SWAP2 PUSH1 0x20 ADD SWAP2 PUSH2 0x5DF JUMP JUMPDEST DUP3 ADD SWAP2 SWAP1 PUSH1 0x0 MSTORE PUSH1 0x20 PUSH1 0x0 KECCAK256 SWAP1 JUMPDEST DUP2 SLOAD DUP2 MSTORE SWAP1 PUSH1 0x1 ADD SWAP1 PUSH1 0x20 ADD DUP1 DUP4 GT PUSH2 0x5C2 JUMPI DUP3 SWAP1 SUB PUSH1 0x1F AND DUP3 ADD SWAP2 JUMPDEST POP POP POP POP POP SWAP1 POP SWAP1 JUMP JUMPDEST PUSH1 0x0 PUSH2 0x5F4 DUP3 PUSH2 0x1D81 JUMP JUMPDEST PUSH2 0x65A JUMPI PUSH1 0x40 MLOAD PUSH3 0x461BCD PUSH1 0xE5 SHL DUP2 MSTORE PUSH1 0x20 PUSH1 0x4 DUP3 ADD MSTORE PUSH1 0x2C PUSH1 0x24 DUP3 ADD MSTORE PUSH32 0x4552433732313A20617070726F76656420717565727920666F72206E6F6E6578 PUSH1 0x44 DUP3 ADD MSTORE PUSH12 0x34B9BA32B73A103A37B5B2B7 PUSH1 0xA1 SHL PUSH1 0x64 DUP3 ADD MSTORE PUSH1 0x84 ADD JUMPDEST PUSH1 0x40 MLOAD DUP1 SWAP2 SUB SWAP1 REVERT JUMPDEST POP PUSH1 0x0 SWAP1 DUP2 MSTORE PUSH1 0x4 PUSH1 0x20 MSTORE PUSH1 0x40 SWAP1 KECCAK256 SLOAD PUSH1 0x1 PUSH1 0x1 PUSH1 0xA0 SHL SUB AND SWAP1 JUMP JUMPDEST PUSH1 0x0 PUSH2 0x681 DUP3 PUSH2 0xF37 JUMP JUMPDEST SWAP1 POP DUP1 PUSH1 0x1 PUSH1 0x1 PUSH1 0xA0 SHL SUB AND DUP4 PUSH1 0x1 PUSH1 0x1 PUSH1 0xA0 SHL SUB AND EQ ISZERO PUSH2 0x6EF JUMPI PUSH1 0x40 MLOAD PUSH3 0x461BCD PUSH1 0xE5 SHL DUP2 MSTORE PUSH1 0x20 PUSH1 0x4 DUP3 ADD MSTORE PUSH1 0x21 PUSH1 0x24 DUP3 ADD MSTORE PUSH32 0x4552433732313A20617070726F76616C20746F2063757272656E74206F776E65 PUSH1 0x44 DUP3 ADD MSTORE PUSH1 0x39 PUSH1 0xF9 SHL PUSH1 0x64 DUP3 ADD MSTORE PUSH1 0x84 ADD PUSH2 0x651 JUMP JUMPDEST CALLER PUSH1 0x1 PUSH1 0x1 PUSH1 0xA0 SHL SUB DUP3 AND EQ DUP1 PUSH2 0x70B JUMPI POP PUSH2 0x70B DUP2 CALLER PUSH2 0x476 JUMP JUMPDEST PUSH2 0x77D JUMPI PUSH1 0x40 MLOAD PUSH3 0x461BCD PUSH1 0xE5 SHL DUP2 MSTORE PUSH1 0x20 PUSH1 0x4 DUP3 ADD MSTORE PUSH1 0x38 PUSH1 0x24 DUP3 ADD MSTORE PUSH32 0x4552433732313A20617070726F76652063616C6C6572206973206E6F74206F77 PUSH1 0x44 DUP3 ADD MSTORE PUSH32 0x6E6572206E6F7220617070726F76656420666F7220616C6C0000000000000000 PUSH1 0x64 DUP3 ADD MSTORE PUSH1 0x84 ADD PUSH2 0x651 JUMP JUMPDEST PUSH2 0x787 DUP4 DUP4 PUSH2 0x1D9E JUMP JUMPDEST POP POP POP JUMP JUMPDEST DUP1 PUSH2 0x797 CALLER DUP3 PUSH2 0x1E0C JUMP JUMPDEST PUSH2 0x7B3 JUMPI PUSH1 0x40 MLOAD PUSH3 0x461BCD PUSH1 0xE5 SHL DUP2 MSTORE PUSH1 0x4 ADD PUSH2 0x651 SWAP1 PUSH2 0x2EF4 JUMP JUMPDEST PUSH1 0x0 PUSH1 0xD DUP4 DUP2 SLOAD DUP2 LT PUSH2 0x7D6 JUMPI PUSH4 0x4E487B71 PUSH1 0xE0 SHL PUSH1 0x0 MSTORE PUSH1 0x32 PUSH1 0x4 MSTORE PUSH1 0x24 PUSH1 0x0 REVERT JUMPDEST PUSH1 0x0 SWAP2 DUP3 MSTORE PUSH1 0x20 SWAP2 DUP3 SWAP1 KECCAK256 PUSH1 0x40 DUP1 MLOAD PUSH1 0x80 DUP2 ADD DUP3 MSTORE PUSH1 0x3 SWAP4 SWAP1 SWAP4 MUL SWAP1 SWAP2 ADD DUP1 SLOAD PUSH1 0x1 PUSH1 0x1 PUSH1 0xA0 SHL SUB DUP1 DUP3 AND DUP1 DUP7 MSTORE PUSH1 0x1 PUSH1 0xA0 SHL SWAP1 SWAP3 DIV PUSH1 0xFF AND ISZERO ISZERO SWAP6 DUP6 ADD SWAP6 SWAP1 SWAP6 MSTORE PUSH1 0x1 DUP3 ADD SLOAD DUP5 DUP5 ADD MSTORE PUSH1 0x2 SWAP1 SWAP2 ADD SLOAD PUSH1 0x60 DUP5 ADD DUP2 SWAP1 MSTORE PUSH1 0x8 SLOAD SWAP3 MLOAD PUSH4 0x5E104A8B PUSH1 0xE1 SHL DUP2 MSTORE PUSH1 0x4 DUP2 ADD SWAP3 SWAP1 SWAP3 MSTORE PUSH1 0x24 DUP3 ADD MSTORE SWAP2 SWAP4 POP PUSH2 0x787 SWAP3 DUP7 SWAP3 SWAP2 AND SWAP1 PUSH4 0xBC209516 SWAP1 PUSH1 0x44 ADD PUSH1 0x0 PUSH1 0x40 MLOAD DUP1 DUP4 SUB DUP2 DUP7 DUP1 EXTCODESIZE ISZERO DUP1 ISZERO PUSH2 0x877 JUMPI PUSH1 0x0 DUP1 REVERT JUMPDEST POP GAS STATICCALL ISZERO DUP1 ISZERO PUSH2 0x88B JUMPI RETURNDATASIZE PUSH1 0x0 DUP1 RETURNDATACOPY RETURNDATASIZE PUSH1 0x0 REVERT JUMPDEST POP POP POP POP PUSH1 0x40 MLOAD RETURNDATASIZE PUSH1 0x0 DUP3 RETURNDATACOPY PUSH1 0x1F RETURNDATASIZE SWAP1 DUP2 ADD PUSH1 0x1F NOT AND DUP3 ADD PUSH1 0x40 MSTORE PUSH2 0x8B3 SWAP2 SWAP1 DUP2 ADD SWAP1 PUSH2 0x2C36 JUMP JUMPDEST PUSH2 0x1EF6 JUMP JUMPDEST DUP1 PUSH2 0x8C3 CALLER DUP3 PUSH2 0x1E0C JUMP JUMPDEST PUSH2 0x8DF JUMPI PUSH1 0x40 MLOAD PUSH3 0x461BCD PUSH1 0xE5 SHL DUP2 MSTORE PUSH1 0x4 ADD PUSH2 0x651 SWAP1 PUSH2 0x2EF4 JUMP JUMPDEST PUSH1 0x0 PUSH1 0xD DUP4 DUP2 SLOAD DUP2 LT PUSH2 0x902 JUMPI PUSH4 0x4E487B71 PUSH1 0xE0 SHL PUSH1 0x0 MSTORE PUSH1 0x32 PUSH1 0x4 MSTORE PUSH1 0x24 PUSH1 0x0 REVERT JUMPDEST PUSH1 0x0 SWAP2 DUP3 MSTORE PUSH1 0x20 SWAP1 SWAP2 KECCAK256 PUSH1 0x3 SWAP1 SWAP2 MUL ADD DUP1 SLOAD SWAP1 SWAP2 POP PUSH1 0x1 PUSH1 0xA0 SHL SWAP1 DIV PUSH1 0xFF AND PUSH2 0x93D JUMPI PUSH1 0x40 MLOAD PUSH3 0x461BCD PUSH1 0xE5 SHL DUP2 MSTORE PUSH1 0x4 ADD PUSH2 0x651 SWAP1 PUSH2 0x2F8D JUMP JUMPDEST DUP1 SLOAD PUSH1 0x40 DUP1 MLOAD PUSH4 0x3FABE5A3 PUSH1 0xE2 SHL DUP2 MSTORE SWAP1 MLOAD PUSH1 0x1 PUSH1 0x1 PUSH1 0xA0 SHL SUB SWAP1 SWAP3 AND SWAP2 PUSH1 0x0 SWAP2 DUP4 SWAP2 PUSH4 0xFEAF968C SWAP2 PUSH1 0x4 DUP1 DUP3 ADD SWAP3 PUSH1 0xA0 SWAP3 SWAP1 SWAP2 SWAP1 DUP3 SWAP1 SUB ADD DUP2 DUP7 DUP1 EXTCODESIZE ISZERO DUP1 ISZERO PUSH2 0x986 JUMPI PUSH1 0x0 DUP1 REVERT JUMPDEST POP GAS STATICCALL ISZERO DUP1 ISZERO PUSH2 0x99A JUMPI RETURNDATASIZE PUSH1 0x0 DUP1 RETURNDATACOPY RETURNDATASIZE PUSH1 0x0 REVERT JUMPDEST POP POP POP POP PUSH1 0x40 MLOAD RETURNDATASIZE PUSH1 0x1F NOT PUSH1 0x1F DUP3 ADD AND DUP3 ADD DUP1 PUSH1 0x40 MSTORE POP DUP2 ADD SWAP1 PUSH2 0x9BE SWAP2 SWAP1 PUSH2 0x2CA9 JUMP JUMPDEST POP POP POP SWAP2 POP POP DUP3 PUSH1 0x1 ADD SLOAD DUP2 SLT ISZERO PUSH2 0xA6D JUMPI PUSH1 0x7 SLOAD PUSH1 0x2 DUP5 ADD SLOAD PUSH1 0x1 DUP6 ADD SLOAD PUSH1 0x1 PUSH1 0x1 PUSH1 0xA0 SHL SUB SWAP1 SWAP3 AND SWAP2 PUSH4 0x224B5C72 SWAP2 CALLER SWAP2 PUSH1 0x10 SWAP2 SWAP1 PUSH2 0xA02 SWAP1 DUP8 SWAP1 DUP5 SHL PUSH2 0x3094 JUMP JUMPDEST PUSH2 0xA0C SWAP2 SWAP1 PUSH2 0x30D6 JUMP JUMPDEST PUSH1 0x40 MLOAD PUSH1 0x1 PUSH1 0x1 PUSH1 0xE0 SHL SUB NOT PUSH1 0xE0 DUP7 SWAP1 SHL AND DUP2 MSTORE PUSH1 0x1 PUSH1 0x1 PUSH1 0xA0 SHL SUB SWAP1 SWAP4 AND PUSH1 0x4 DUP5 ADD MSTORE SWAP1 SAR PUSH1 0x24 DUP3 ADD MSTORE PUSH1 0x44 ADD PUSH1 0x0 PUSH1 0x40 MLOAD DUP1 DUP4 SUB DUP2 PUSH1 0x0 DUP8 DUP1 EXTCODESIZE ISZERO DUP1 ISZERO PUSH2 0xA54 JUMPI PUSH1 0x0 DUP1 REVERT JUMPDEST POP GAS CALL ISZERO DUP1 ISZERO PUSH2 0xA68 JUMPI RETURNDATASIZE PUSH1 0x0 DUP1 RETURNDATACOPY RETURNDATASIZE PUSH1 0x0 REVERT JUMPDEST POP POP POP POP JUMPDEST DUP3 SLOAD PUSH1 0xFF PUSH1 0xA0 SHL NOT DUP2 AND DUP5 SSTORE PUSH1 0x1 DUP5 ADD SLOAD PUSH1 0x2 DUP6 ADD SLOAD PUSH1 0x40 DUP1 MLOAD SWAP3 DUP4 MSTORE PUSH1 0x20 DUP4 ADD SWAP2 SWAP1 SWAP2 MSTORE PUSH1 0x0 SWAP3 PUSH1 0x1 PUSH1 0x1 PUSH1 0xA0 SHL SUB AND SWAP2 DUP9 SWAP2 PUSH1 0x0 DUP1 MLOAD PUSH1 0x20 PUSH2 0x32CA DUP4 CODECOPY DUP2 MLOAD SWAP2 MSTORE SWAP2 ADD JUMPDEST PUSH1 0x40 MLOAD DUP1 SWAP2 SUB SWAP1 LOG4 POP POP POP POP POP JUMP JUMPDEST DUP1 PUSH2 0xACD CALLER DUP3 PUSH2 0x1E0C JUMP JUMPDEST PUSH2 0xAE9 JUMPI PUSH1 0x40 MLOAD PUSH3 0x461BCD PUSH1 0xE5 SHL DUP2 MSTORE PUSH1 0x4 ADD PUSH2 0x651 SWAP1 PUSH2 0x2EF4 JUMP JUMPDEST PUSH1 0x0 PUSH1 0xD DUP4 DUP2 SLOAD DUP2 LT PUSH2 0xB0C JUMPI PUSH4 0x4E487B71 PUSH1 0xE0 SHL PUSH1 0x0 MSTORE PUSH1 0x32 PUSH1 0x4 MSTORE PUSH1 0x24 PUSH1 0x0 REVERT JUMPDEST PUSH1 0x0 SWAP2 DUP3 MSTORE PUSH1 0x20 SWAP1 SWAP2 KECCAK256 PUSH1 0x3 SWAP1 SWAP2 MUL ADD DUP1 SLOAD SWAP1 SWAP2 POP PUSH1 0x1 PUSH1 0xA0 SHL SWAP1 DIV PUSH1 0xFF AND ISZERO PUSH2 0xB78 JUMPI PUSH1 0x40 MLOAD PUSH3 0x461BCD PUSH1 0xE5 SHL DUP2 MSTORE PUSH1 0x20 PUSH1 0x4 DUP3 ADD MSTORE PUSH1 0x1D PUSH1 0x24 DUP3 ADD MSTORE PUSH32 0x41524D593A206D696E696F6E20697320616C72656164792061726D6564000000 PUSH1 0x44 DUP3 ADD MSTORE PUSH1 0x64 ADD PUSH2 0x651 JUMP JUMPDEST DUP1 SLOAD PUSH1 0x40 DUP1 MLOAD PUSH4 0x3FABE5A3 PUSH1 0xE2 SHL DUP2 MSTORE SWAP1 MLOAD PUSH1 0x1 PUSH1 0x1 PUSH1 0xA0 SHL SUB SWAP1 SWAP3 AND SWAP2 PUSH1 0x0 SWAP2 DUP4 SWAP2 PUSH4 0xFEAF968C SWAP2 PUSH1 0x4 DUP1 DUP3 ADD SWAP3 PUSH1 0xA0 SWAP3 SWAP1 SWAP2 SWAP1 DUP3 SWAP1 SUB ADD DUP2 DUP7 DUP1 EXTCODESIZE ISZERO DUP1 ISZERO PUSH2 0xBC1 JUMPI PUSH1 0x0 DUP1 REVERT JUMPDEST POP GAS STATICCALL ISZERO DUP1 ISZERO PUSH2 0xBD5 JUMPI RETURNDATASIZE PUSH1 0x0 DUP1 RETURNDATACOPY RETURNDATASIZE PUSH1 0x0 REVERT JUMPDEST POP POP POP POP PUSH1 0x40 MLOAD RETURNDATASIZE PUSH1 0x1F NOT PUSH1 0x1F DUP3 ADD AND DUP3 ADD DUP1 PUSH1 0x40 MSTORE POP DUP2 ADD SWAP1 PUSH2 0xBF9 SWAP2 SWAP1 PUSH2 0x2CA9 JUMP JUMPDEST POP POP POP SWAP2 POP POP PUSH1 0x10 DUP4 PUSH1 0x2 ADD SLOAD DUP3 PUSH1 0x10 DUP7 PUSH1 0x1 ADD SLOAD SWAP1 SHL PUSH2 0xC1A SWAP2 SWAP1 PUSH2 0x3094 JUMP JUMPDEST PUSH2 0xC24 SWAP2 SWAP1 PUSH2 0x30D6 JUMP JUMPDEST SWAP1 SAR PUSH1 0x2 DUP5 ADD DUP2 SWAP1 SSTORE PUSH1 0x1 DUP1 DUP6 ADD DUP4 SWAP1 SSTORE DUP5 SLOAD PUSH1 0xFF PUSH1 0xA0 SHL NOT DUP2 AND PUSH1 0x1 PUSH1 0xA0 SHL OR DUP7 SSTORE PUSH1 0x40 MLOAD SWAP2 SWAP3 PUSH1 0x1 PUSH1 0x1 PUSH1 0xA0 SHL SUB SWAP1 SWAP2 AND SWAP2 DUP9 SWAP2 PUSH1 0x0 DUP1 MLOAD PUSH1 0x20 PUSH2 0x32CA DUP4 CODECOPY DUP2 MLOAD SWAP2 MSTORE SWAP2 PUSH2 0xAB3 SWAP2 DUP8 DUP3 MSTORE PUSH1 0x20 DUP3 ADD MSTORE PUSH1 0x40 ADD SWAP1 JUMP JUMPDEST PUSH2 0xC86 CALLER DUP3 PUSH2 0x1E0C JUMP JUMPDEST PUSH2 0xCA2 JUMPI PUSH1 0x40 MLOAD PUSH3 0x461BCD PUSH1 0xE5 SHL DUP2 MSTORE PUSH1 0x4 ADD PUSH2 0x651 SWAP1 PUSH2 0x2F3C JUMP JUMPDEST PUSH2 0x787 DUP4 DUP4 DUP4 PUSH2 0x1F81 JUMP JUMPDEST DUP1 PUSH2 0xCB8 CALLER DUP3 PUSH2 0x1E0C JUMP JUMPDEST PUSH2 0xCD4 JUMPI PUSH1 0x40 MLOAD PUSH3 0x461BCD PUSH1 0xE5 SHL DUP2 MSTORE PUSH1 0x4 ADD PUSH2 0x651 SWAP1 PUSH2 0x2EF4 JUMP JUMPDEST PUSH1 0x0 PUSH1 0xD DUP4 DUP2 SLOAD DUP2 LT PUSH2 0xCF7 JUMPI PUSH4 0x4E487B71 PUSH1 0xE0 SHL PUSH1 0x0 MSTORE PUSH1 0x32 PUSH1 0x4 MSTORE PUSH1 0x24 PUSH1 0x0 REVERT JUMPDEST PUSH1 0x0 SWAP2 DUP3 MSTORE PUSH1 0x20 SWAP1 SWAP2 KECCAK256 PUSH1 0x3 SWAP1 SWAP2 MUL ADD DUP1 SLOAD SWAP1 SWAP2 POP PUSH1 0x1 PUSH1 0xA0 SHL SWAP1 DIV PUSH1 0xFF AND PUSH2 0xD32 JUMPI PUSH1 0x40 MLOAD PUSH3 0x461BCD PUSH1 0xE5 SHL DUP2 MSTORE PUSH1 0x4 ADD PUSH2 0x651 SWAP1 PUSH2 0x2F8D JUMP JUMPDEST DUP1 SLOAD PUSH1 0x40 DUP1 MLOAD PUSH4 0x3FABE5A3 PUSH1 0xE2 SHL DUP2 MSTORE SWAP1 MLOAD PUSH1 0x1 PUSH1 0x1 PUSH1 0xA0 SHL SUB SWAP1 SWAP3 AND SWAP2 PUSH1 0x0 SWAP2 DUP4 SWAP2 PUSH4 0xFEAF968C SWAP2 PUSH1 0x4 DUP1 DUP3 ADD SWAP3 PUSH1 0xA0 SWAP3 SWAP1 SWAP2 SWAP1 DUP3 SWAP1 SUB ADD DUP2 DUP7 DUP1 EXTCODESIZE ISZERO DUP1 ISZERO PUSH2 0xD7B JUMPI PUSH1 0x0 DUP1 REVERT JUMPDEST POP GAS STATICCALL ISZERO DUP1 ISZERO PUSH2 0xD8F JUMPI RETURNDATASIZE PUSH1 0x0 DUP1 RETURNDATACOPY RETURNDATASIZE PUSH1 0x0 REVERT JUMPDEST POP POP POP POP PUSH1 0x40 MLOAD RETURNDATASIZE PUSH1 0x1F NOT PUSH1 0x1F DUP3 ADD AND DUP3 ADD DUP1 PUSH1 0x40 MSTORE POP DUP2 ADD SWAP1 PUSH2 0xDB3 SWAP2 SWAP1 PUSH2 0x2CA9 JUMP JUMPDEST POP POP POP PUSH1 0x1 DUP6 ADD DUP2 SWAP1 SSTORE DUP5 SLOAD PUSH1 0xFF PUSH1 0xA0 SHL NOT DUP2 AND DUP7 SSTORE PUSH1 0x2 DUP7 ADD SLOAD PUSH1 0x40 MLOAD SWAP3 SWAP5 POP PUSH1 0x0 SWAP4 POP PUSH1 0x1 PUSH1 0x1 PUSH1 0xA0 SHL SUB SWAP1 SWAP2 AND SWAP2 DUP9 SWAP2 PUSH1 0x0 DUP1 MLOAD PUSH1 0x20 PUSH2 0x32CA DUP4 CODECOPY DUP2 MLOAD SWAP2 MSTORE SWAP2 PUSH2 0xAB3 SWAP2 DUP8 DUP3 MSTORE PUSH1 0x20 DUP3 ADD MSTORE PUSH1 0x40 ADD SWAP1 JUMP JUMPDEST PUSH2 0x787 DUP4 DUP4 DUP4 PUSH1 0x40 MLOAD DUP1 PUSH1 0x20 ADD PUSH1 0x40 MSTORE DUP1 PUSH1 0x0 DUP2 MSTORE POP PUSH2 0x1385 JUMP JUMPDEST PUSH2 0xE60 PUSH1 0x40 MLOAD DUP1 PUSH1 0xA0 ADD PUSH1 0x40 MSTORE DUP1 PUSH1 0x0 PUSH1 0x1 PUSH1 0x1 PUSH1 0xA0 SHL SUB AND DUP2 MSTORE PUSH1 0x20 ADD PUSH1 0x0 ISZERO ISZERO DUP2 MSTORE PUSH1 0x20 ADD PUSH1 0x0 DUP2 MSTORE PUSH1 0x20 ADD PUSH1 0x0 DUP2 MSTORE PUSH1 0x20 ADD PUSH1 0x60 DUP2 MSTORE POP SWAP1 JUMP JUMPDEST PUSH2 0xE69 DUP3 PUSH2 0x1D81 JUMP JUMPDEST PUSH2 0xE85 JUMPI PUSH1 0x40 MLOAD PUSH3 0x461BCD PUSH1 0xE5 SHL DUP2 MSTORE PUSH1 0x4 ADD PUSH2 0x651 SWAP1 PUSH2 0x2E56 JUMP JUMPDEST PUSH1 0x0 PUSH1 0xD DUP4 DUP2 SLOAD DUP2 LT PUSH2 0xEA8 JUMPI PUSH4 0x4E487B71 PUSH1 0xE0 SHL PUSH1 0x0 MSTORE PUSH1 0x32 PUSH1 0x4 MSTORE PUSH1 0x24 PUSH1 0x0 REVERT JUMPDEST PUSH1 0x0 SWAP2 DUP3 MSTORE PUSH1 0x20 SWAP2 DUP3 SWAP1 KECCAK256 PUSH1 0x40 DUP1 MLOAD PUSH1 0x80 DUP2 ADD DUP3 MSTORE PUSH1 0x3 SWAP4 SWAP1 SWAP4 MUL SWAP1 SWAP2 ADD DUP1 SLOAD PUSH1 0x1 PUSH1 0x1 PUSH1 0xA0 SHL SUB DUP2 AND DUP1 DUP6 MSTORE PUSH1 0x1 PUSH1 0xA0 SHL SWAP1 SWAP2 DIV PUSH1 0xFF AND ISZERO ISZERO DUP5 DUP7 ADD SWAP1 DUP2 MSTORE PUSH1 0x1 DUP4 ADD SLOAD DUP6 DUP6 ADD SWAP1 DUP2 MSTORE PUSH1 0x2 SWAP1 SWAP4 ADD SLOAD PUSH1 0x60 DUP1 DUP8 ADD SWAP2 DUP3 MSTORE SWAP3 DUP10 MSTORE SWAP1 MLOAD ISZERO ISZERO SWAP6 DUP9 ADD SWAP6 SWAP1 SWAP6 MSTORE SWAP1 MLOAD SWAP2 DUP7 ADD SWAP2 SWAP1 SWAP2 MSTORE SWAP2 MLOAD SWAP2 DUP5 ADD SWAP2 SWAP1 SWAP2 MSTORE SWAP1 POP PUSH2 0xF2C DUP4 PUSH2 0x13BD JUMP JUMPDEST PUSH1 0x80 DUP4 ADD MSTORE POP SWAP2 SWAP1 POP JUMP JUMPDEST PUSH1 0x0 DUP2 DUP2 MSTORE PUSH1 0x2 PUSH1 0x20 MSTORE PUSH1 0x40 DUP2 KECCAK256 SLOAD PUSH1 0x1 PUSH1 0x1 PUSH1 0xA0 SHL SUB AND DUP1 PUSH2 0x54F JUMPI PUSH1 0x40 MLOAD PUSH3 0x461BCD PUSH1 0xE5 SHL DUP2 MSTORE PUSH1 0x20 PUSH1 0x4 DUP3 ADD MSTORE PUSH1 0x29 PUSH1 0x24 DUP3 ADD MSTORE PUSH32 0x4552433732313A206F776E657220717565727920666F72206E6F6E6578697374 PUSH1 0x44 DUP3 ADD MSTORE PUSH9 0x32B73A103A37B5B2B7 PUSH1 0xB9 SHL PUSH1 0x64 DUP3 ADD MSTORE PUSH1 0x84 ADD PUSH2 0x651 JUMP JUMPDEST PUSH1 0x0 PUSH1 0x1 PUSH1 0x1 PUSH1 0xA0 SHL SUB DUP3 AND PUSH2 0x1019 JUMPI PUSH1 0x40 MLOAD PUSH3 0x461BCD PUSH1 0xE5 SHL DUP2 MSTORE PUSH1 0x20 PUSH1 0x4 DUP3 ADD MSTORE PUSH1 0x2A PUSH1 0x24 DUP3 ADD MSTORE PUSH32 0x4552433732313A2062616C616E636520717565727920666F7220746865207A65 PUSH1 0x44 DUP3 ADD MSTORE PUSH10 0x726F2061646472657373 PUSH1 0xB0 SHL PUSH1 0x64 DUP3 ADD MSTORE PUSH1 0x84 ADD PUSH2 0x651 JUMP JUMPDEST POP PUSH1 0x1 PUSH1 0x1 PUSH1 0xA0 SHL SUB AND PUSH1 0x0 SWAP1 DUP2 MSTORE PUSH1 0x3 PUSH1 0x20 MSTORE PUSH1 0x40 SWAP1 KECCAK256 SLOAD SWAP1 JUMP JUMPDEST PUSH1 0x60 PUSH1 0x0 PUSH2 0x1042 DUP4 PUSH2 0xFAE JUMP JUMPDEST SWAP1 POP DUP1 PUSH8 0xFFFFFFFFFFFFFFFF DUP2 GT ISZERO PUSH2 0x106B JUMPI PUSH4 0x4E487B71 PUSH1 0xE0 SHL PUSH1 0x0 MSTORE PUSH1 0x41 PUSH1 0x4 MSTORE PUSH1 0x24 PUSH1 0x0 REVERT JUMPDEST PUSH1 0x40 MLOAD SWAP1 DUP1 DUP3 MSTORE DUP1 PUSH1 0x20 MUL PUSH1 0x20 ADD DUP3 ADD PUSH1 0x40 MSTORE DUP1 ISZERO PUSH2 0x1094 JUMPI DUP2 PUSH1 0x20 ADD PUSH1 0x20 DUP3 MUL DUP1 CALLDATASIZE DUP4 CALLDATACOPY ADD SWAP1 POP JUMPDEST POP SWAP2 POP PUSH1 0x0 DUP1 JUMPDEST DUP3 DUP3 LT ISZERO PUSH2 0x1122 JUMPI PUSH2 0x10AC DUP2 PUSH2 0x1D81 JUMP JUMPDEST DUP1 ISZERO PUSH2 0x10D1 JUMPI POP DUP5 PUSH1 0x1 PUSH1 0x1 PUSH1 0xA0 SHL SUB AND PUSH2 0x10C6 DUP3 PUSH2 0xF37 JUMP JUMPDEST PUSH1 0x1 PUSH1 0x1 PUSH1 0xA0 SHL SUB AND EQ JUMPDEST ISZERO PUSH2 0x1110 JUMPI DUP1 DUP5 DUP4 DUP2 MLOAD DUP2 LT PUSH2 0x10F7 JUMPI PUSH4 0x4E487B71 PUSH1 0xE0 SHL PUSH1 0x0 MSTORE PUSH1 0x32 PUSH1 0x4 MSTORE PUSH1 0x24 PUSH1 0x0 REVERT JUMPDEST PUSH1 0x20 SWAP1 DUP2 MUL SWAP2 SWAP1 SWAP2 ADD ADD MSTORE DUP2 PUSH2 0x110C DUP2 PUSH2 0x322D JUMP JUMPDEST SWAP3 POP POP JUMPDEST DUP1 PUSH2 0x111A DUP2 PUSH2 0x322D JUMP JUMPDEST SWAP2 POP POP PUSH2 0x109B JUMP JUMPDEST POP POP POP SWAP2 SWAP1 POP JUMP JUMPDEST DUP1 PUSH2 0x1135 CALLER DUP3 PUSH2 0x1E0C JUMP JUMPDEST PUSH2 0x1151 JUMPI PUSH1 0x40 MLOAD PUSH3 0x461BCD PUSH1 0xE5 SHL DUP2 MSTORE PUSH1 0x4 ADD PUSH2 0x651 SWAP1 PUSH2 0x2EF4 JUMP JUMPDEST PUSH1 0x0 PUSH1 0xD DUP4 DUP2 SLOAD DUP2 LT PUSH2 0x1174 JUMPI PUSH4 0x4E487B71 PUSH1 0xE0 SHL PUSH1 0x0 MSTORE PUSH1 0x32 PUSH1 0x4 MSTORE PUSH1 0x24 PUSH1 0x0 REVERT JUMPDEST PUSH1 0x0 SWAP2 DUP3 MSTORE PUSH1 0x20 SWAP1 SWAP2 KECCAK256 PUSH1 0x3 SWAP1 SWAP2 MUL ADD DUP1 SLOAD SWAP1 SWAP2 POP PUSH1 0x1 PUSH1 0xA0 SHL SWAP1 DIV PUSH1 0xFF AND PUSH2 0x11EB JUMPI PUSH1 0x40 MLOAD PUSH3 0x461BCD PUSH1 0xE5 SHL DUP2 MSTORE PUSH1 0x20 PUSH1 0x4 DUP3 ADD MSTORE PUSH1 0x24 DUP1 DUP3 ADD MSTORE PUSH32 0x41524D593A2063616E206F6E6C79206C696265726174652061726D6564206D69 PUSH1 0x44 DUP3 ADD MSTORE PUSH4 0x3734B7B7 PUSH1 0xE1 SHL PUSH1 0x64 DUP3 ADD MSTORE PUSH1 0x84 ADD PUSH2 0x651 JUMP JUMPDEST PUSH1 0xB SLOAD DUP2 PUSH1 0x2 ADD SLOAD SGT ISZERO PUSH2 0x1281 JUMPI PUSH1 0x7 SLOAD PUSH1 0xB SLOAD PUSH1 0x2 DUP4 ADD SLOAD PUSH1 0x1 PUSH1 0x1 PUSH1 0xA0 SHL SUB SWAP1 SWAP3 AND SWAP2 PUSH4 0x66CA10CA SWAP2 CALLER SWAP2 PUSH2 0x1222 SWAP2 SWAP1 PUSH2 0x3159 JUMP JUMPDEST PUSH1 0x40 MLOAD PUSH1 0x1 PUSH1 0x1 PUSH1 0xE0 SHL SUB NOT PUSH1 0xE0 DUP6 SWAP1 SHL AND DUP2 MSTORE PUSH1 0x1 PUSH1 0x1 PUSH1 0xA0 SHL SUB SWAP1 SWAP3 AND PUSH1 0x4 DUP4 ADD MSTORE PUSH1 0x24 DUP3 ADD MSTORE PUSH1 0x44 ADD PUSH1 0x0 PUSH1 0x40 MLOAD DUP1 DUP4 SUB DUP2 PUSH1 0x0 DUP8 DUP1 EXTCODESIZE ISZERO DUP1 ISZERO PUSH2 0x1268 JUMPI PUSH1 0x0 DUP1 REVERT JUMPDEST POP GAS CALL ISZERO DUP1 ISZERO PUSH2 0x127C JUMPI RETURNDATASIZE PUSH1 0x0 DUP1 RETURNDATACOPY RETURNDATASIZE PUSH1 0x0 REVERT JUMPDEST POP POP POP POP JUMPDEST PUSH2 0x128A DUP4 PUSH2 0x2121 JUMP JUMPDEST PUSH1 0xA DUP1 SLOAD SWAP1 PUSH1 0x0 PUSH2 0x129A DUP4 PUSH2 0x31DB JUMP JUMPDEST SWAP2 SWAP1 POP SSTORE POP POP POP POP JUMP JUMPDEST PUSH1 0x60 PUSH1 0x1 DUP1 SLOAD PUSH2 0x566 SWAP1 PUSH2 0x31F2 JUMP JUMPDEST PUSH1 0x1 PUSH1 0x1 PUSH1 0xA0 SHL SUB DUP3 AND CALLER EQ ISZERO PUSH2 0x130C JUMPI PUSH1 0x40 MLOAD PUSH3 0x461BCD PUSH1 0xE5 SHL DUP2 MSTORE PUSH1 0x20 PUSH1 0x4 DUP3 ADD MSTORE PUSH1 0x19 PUSH1 0x24 DUP3 ADD MSTORE PUSH32 0x4552433732313A20617070726F766520746F2063616C6C657200000000000000 PUSH1 0x44 DUP3 ADD MSTORE PUSH1 0x64 ADD PUSH2 0x651 JUMP JUMPDEST CALLER PUSH1 0x0 DUP2 DUP2 MSTORE PUSH1 0x5 PUSH1 0x20 SWAP1 DUP2 MSTORE PUSH1 0x40 DUP1 DUP4 KECCAK256 PUSH1 0x1 PUSH1 0x1 PUSH1 0xA0 SHL SUB DUP8 AND DUP1 DUP6 MSTORE SWAP3 MSTORE SWAP1 SWAP2 KECCAK256 DUP1 SLOAD PUSH1 0xFF NOT AND DUP5 ISZERO ISZERO OR SWAP1 SSTORE SWAP1 PUSH1 0x1 PUSH1 0x1 PUSH1 0xA0 SHL SUB AND PUSH32 0x17307EAB39AB6107E8899845AD3D59BD9653F200F220920489CA2B5937696C31 DUP4 PUSH1 0x40 MLOAD PUSH2 0x1379 SWAP2 ISZERO ISZERO DUP2 MSTORE PUSH1 0x20 ADD SWAP1 JUMP JUMPDEST PUSH1 0x40 MLOAD DUP1 SWAP2 SUB SWAP1 LOG3 POP POP JUMP JUMPDEST PUSH2 0x138F CALLER DUP4 PUSH2 0x1E0C JUMP JUMPDEST PUSH2 0x13AB JUMPI PUSH1 0x40 MLOAD PUSH3 0x461BCD PUSH1 0xE5 SHL DUP2 MSTORE PUSH1 0x4 ADD PUSH2 0x651 SWAP1 PUSH2 0x2F3C JUMP JUMPDEST PUSH2 0x13B7 DUP5 DUP5 DUP5 DUP5 PUSH2 0x2164 JUMP JUMPDEST POP POP POP POP JUMP JUMPDEST PUSH1 0x60 PUSH2 0x13C8 DUP3 PUSH2 0x1D81 JUMP JUMPDEST PUSH2 0x13E4 JUMPI PUSH1 0x40 MLOAD PUSH3 0x461BCD PUSH1 0xE5 SHL DUP2 MSTORE PUSH1 0x4 ADD PUSH2 0x651 SWAP1 PUSH2 0x2E56 JUMP JUMPDEST PUSH1 0x0 PUSH1 0xD DUP4 DUP2 SLOAD DUP2 LT PUSH2 0x1407 JUMPI PUSH4 0x4E487B71 PUSH1 0xE0 SHL PUSH1 0x0 MSTORE PUSH1 0x32 PUSH1 0x4 MSTORE PUSH1 0x24 PUSH1 0x0 REVERT JUMPDEST PUSH1 0x0 SWAP2 DUP3 MSTORE PUSH1 0x20 DUP1 DUP4 KECCAK256 PUSH1 0x40 DUP1 MLOAD PUSH1 0x80 DUP2 ADD DUP3 MSTORE PUSH1 0x3 SWAP1 SWAP5 MUL SWAP1 SWAP2 ADD DUP1 SLOAD PUSH1 0x1 PUSH1 0x1 PUSH1 0xA0 SHL SUB DUP2 AND DUP6 MSTORE PUSH1 0xFF PUSH1 0x1 PUSH1 0xA0 SHL SWAP1 SWAP2 DIV AND ISZERO ISZERO SWAP3 DUP5 ADD SWAP3 SWAP1 SWAP3 MSTORE PUSH1 0x1 DUP3 ADD SLOAD SWAP1 DUP4 ADD MSTORE PUSH1 0x2 ADD SLOAD PUSH1 0x60 DUP3 ADD MSTORE SWAP2 POP PUSH2 0x1462 DUP5 PUSH2 0x2197 JUMP JUMPDEST SWAP1 POP PUSH1 0xB DUP2 MLOAD GT ISZERO PUSH2 0x1477 JUMPI SWAP2 POP PUSH2 0x552 SWAP1 POP JUMP JUMPDEST PUSH1 0x8 SLOAD DUP3 MLOAD PUSH1 0x60 DUP5 ADD MLOAD PUSH1 0x40 MLOAD PUSH4 0x5E104A8B PUSH1 0xE1 SHL DUP2 MSTORE PUSH1 0x1 PUSH1 0x1 PUSH1 0xA0 SHL SUB SWAP3 DUP4 AND PUSH1 0x4 DUP3 ADD MSTORE PUSH1 0x24 DUP2 ADD SWAP2 SWAP1 SWAP2 MSTORE SWAP2 AND SWAP1 PUSH4 0xBC209516 SWAP1 PUSH1 0x44 ADD PUSH1 0x0 PUSH1 0x40 MLOAD DUP1 DUP4 SUB DUP2 DUP7 DUP1 EXTCODESIZE ISZERO DUP1 ISZERO PUSH2 0x14CA JUMPI PUSH1 0x0 DUP1 REVERT JUMPDEST POP GAS STATICCALL ISZERO DUP1 ISZERO PUSH2 0x14DE JUMPI RETURNDATASIZE PUSH1 0x0 DUP1 RETURNDATACOPY RETURNDATASIZE PUSH1 0x0 REVERT JUMPDEST POP POP POP POP PUSH1 0x40 MLOAD RETURNDATASIZE PUSH1 0x0 DUP3 RETURNDATACOPY PUSH1 0x1F RETURNDATASIZE SWAP1 DUP2 ADD PUSH1 0x1F NOT AND DUP3 ADD PUSH1 0x40 MSTORE PUSH2 0x1506 SWAP2 SWAP1 DUP2 ADD SWAP1 PUSH2 0x2C36 JUMP JUMPDEST SWAP3 POP POP POP PUSH2 0x552 JUMP JUMPDEST PUSH1 0x0 PUSH2 0x54F DUP3 PUSH2 0x1D81 JUMP JUMPDEST PUSH1 0x60 DUP2 PUSH8 0xFFFFFFFFFFFFFFFF DUP2 GT ISZERO PUSH2 0x1543 JUMPI PUSH4 0x4E487B71 PUSH1 0xE0 SHL PUSH1 0x0 MSTORE PUSH1 0x41 PUSH1 0x4 MSTORE PUSH1 0x24 PUSH1 0x0 REVERT JUMPDEST PUSH1 0x40 MLOAD SWAP1 DUP1 DUP3 MSTORE DUP1 PUSH1 0x20 MUL PUSH1 0x20 ADD DUP3 ADD PUSH1 0x40 MSTORE DUP1 ISZERO PUSH2 0x1595 JUMPI DUP2 PUSH1 0x20 ADD JUMPDEST PUSH1 0x40 DUP1 MLOAD PUSH1 0x80 DUP2 ADD DUP3 MSTORE PUSH1 0x0 DUP1 DUP3 MSTORE PUSH1 0x20 DUP1 DUP4 ADD DUP3 SWAP1 MSTORE SWAP3 DUP3 ADD DUP2 SWAP1 MSTORE PUSH1 0x60 DUP3 ADD MSTORE DUP3 MSTORE PUSH1 0x0 NOT SWAP1 SWAP3 ADD SWAP2 ADD DUP2 PUSH2 0x1561 JUMPI SWAP1 POP JUMPDEST POP SWAP1 POP PUSH1 0x0 JUMPDEST DUP3 DUP2 LT ISZERO PUSH2 0x167D JUMPI PUSH1 0xD DUP5 DUP5 DUP4 DUP2 DUP2 LT PUSH2 0x15C5 JUMPI PUSH4 0x4E487B71 PUSH1 0xE0 SHL PUSH1 0x0 MSTORE PUSH1 0x32 PUSH1 0x4 MSTORE PUSH1 0x24 PUSH1 0x0 REVERT JUMPDEST SWAP1 POP PUSH1 0x20 MUL ADD CALLDATALOAD DUP2 SLOAD DUP2 LT PUSH2 0x15EA JUMPI PUSH4 0x4E487B71 PUSH1 0xE0 SHL PUSH1 0x0 MSTORE PUSH1 0x32 PUSH1 0x4 MSTORE PUSH1 0x24 PUSH1 0x0 REVERT JUMPDEST PUSH1 0x0 SWAP2 DUP3 MSTORE PUSH1 0x20 SWAP2 DUP3 SWAP1 KECCAK256 PUSH1 0x40 DUP1 MLOAD PUSH1 0x80 DUP2 ADD DUP3 MSTORE PUSH1 0x3 SWAP1 SWAP4 MUL SWAP1 SWAP2 ADD DUP1 SLOAD PUSH1 0x1 PUSH1 0x1 PUSH1 0xA0 SHL SUB DUP2 AND DUP5 MSTORE PUSH1 0xFF PUSH1 0x1 PUSH1 0xA0 SHL SWAP1 SWAP2 DIV AND ISZERO ISZERO SWAP4 DUP4 ADD SWAP4 SWAP1 SWAP4 MSTORE PUSH1 0x1 DUP4 ADD SLOAD SWAP1 DUP3 ADD MSTORE PUSH1 0x2 SWAP1 SWAP2 ADD SLOAD PUSH1 0x60 DUP3 ADD MSTORE DUP3 MLOAD DUP4 SWAP1 DUP4 SWAP1 DUP2 LT PUSH2 0x165F JUMPI PUSH4 0x4E487B71 PUSH1 0xE0 SHL PUSH1 0x0 MSTORE PUSH1 0x32 PUSH1 0x4 MSTORE PUSH1 0x24 PUSH1 0x0 REVERT JUMPDEST PUSH1 0x20 MUL PUSH1 0x20 ADD ADD DUP2 SWAP1 MSTORE POP DUP1 DUP1 PUSH2 0x1675 SWAP1 PUSH2 0x322D JUMP JUMPDEST SWAP2 POP POP PUSH2 0x159B JUMP JUMPDEST POP SWAP3 SWAP2 POP POP JUMP JUMPDEST PUSH1 0x0 DUP1 PUSH1 0x0 DUP1 PUSH2 0x1693 DUP6 PUSH2 0x1D81 JUMP JUMPDEST PUSH2 0x16AF JUMPI PUSH1 0x40 MLOAD PUSH3 0x461BCD PUSH1 0xE5 SHL DUP2 MSTORE PUSH1 0x4 ADD PUSH2 0x651 SWAP1 PUSH2 0x2E56 JUMP JUMPDEST PUSH1 0x0 PUSH1 0xD DUP7 DUP2 SLOAD DUP2 LT PUSH2 0x16D2 JUMPI PUSH4 0x4E487B71 PUSH1 0xE0 SHL PUSH1 0x0 MSTORE PUSH1 0x32 PUSH1 0x4 MSTORE PUSH1 0x24 PUSH1 0x0 REVERT JUMPDEST PUSH1 0x0 SWAP2 DUP3 MSTORE PUSH1 0x20 SWAP2 DUP3 SWAP1 KECCAK256 PUSH1 0x40 DUP1 MLOAD PUSH1 0x80 DUP2 ADD DUP3 MSTORE PUSH1 0x3 SWAP4 SWAP1 SWAP4 MUL SWAP1 SWAP2 ADD DUP1 SLOAD PUSH1 0x1 PUSH1 0x1 PUSH1 0xA0 SHL SUB DUP2 AND DUP1 DUP6 MSTORE PUSH1 0x1 PUSH1 0xA0 SHL SWAP1 SWAP2 DIV PUSH1 0xFF AND ISZERO ISZERO SWAP5 DUP5 ADD DUP6 SWAP1 MSTORE PUSH1 0x1 DUP3 ADD SLOAD SWAP3 DUP5 ADD DUP4 SWAP1 MSTORE PUSH1 0x2 SWAP1 SWAP2 ADD SLOAD PUSH1 0x60 SWAP1 SWAP4 ADD DUP4 SWAP1 MSTORE SWAP10 SWAP3 SWAP9 POP SWAP7 POP SWAP5 POP SWAP3 POP POP POP JUMP JUMPDEST PUSH1 0xD DUP2 DUP2 SLOAD DUP2 LT PUSH2 0x1749 JUMPI PUSH1 0x0 DUP1 REVERT JUMPDEST PUSH1 0x0 SWAP2 DUP3 MSTORE PUSH1 0x20 SWAP1 SWAP2 KECCAK256 PUSH1 0x3 SWAP1 SWAP2 MUL ADD DUP1 SLOAD PUSH1 0x1 DUP3 ADD SLOAD PUSH1 0x2 SWAP1 SWAP3 ADD SLOAD PUSH1 0x1 PUSH1 0x1 PUSH1 0xA0 SHL SUB DUP3 AND SWAP4 POP PUSH1 0x1 PUSH1 0xA0 SHL SWAP1 SWAP2 DIV PUSH1 0xFF AND SWAP2 SWAP1 DUP5 JUMP JUMPDEST PUSH1 0x60 PUSH1 0x0 PUSH2 0x178F DUP4 PUSH2 0xFAE JUMP JUMPDEST SWAP1 POP DUP1 PUSH8 0xFFFFFFFFFFFFFFFF DUP2 GT ISZERO PUSH2 0x17B8 JUMPI PUSH4 0x4E487B71 PUSH1 0xE0 SHL PUSH1 0x0 MSTORE PUSH1 0x41 PUSH1 0x4 MSTORE PUSH1 0x24 PUSH1 0x0 REVERT JUMPDEST PUSH1 0x40 MLOAD SWAP1 DUP1 DUP3 MSTORE DUP1 PUSH1 0x20 MUL PUSH1 0x20 ADD DUP3 ADD PUSH1 0x40 MSTORE DUP1 ISZERO PUSH2 0x180A JUMPI DUP2 PUSH1 0x20 ADD JUMPDEST PUSH1 0x40 DUP1 MLOAD PUSH1 0x80 DUP2 ADD DUP3 MSTORE PUSH1 0x0 DUP1 DUP3 MSTORE PUSH1 0x20 DUP1 DUP4 ADD DUP3 SWAP1 MSTORE SWAP3 DUP3 ADD DUP2 SWAP1 MSTORE PUSH1 0x60 DUP3 ADD MSTORE DUP3 MSTORE PUSH1 0x0 NOT SWAP1 SWAP3 ADD SWAP2 ADD DUP2 PUSH2 0x17D6 JUMPI SWAP1 POP JUMPDEST POP SWAP2 POP PUSH1 0x0 DUP1 JUMPDEST DUP3 DUP3 LT ISZERO PUSH2 0x1122 JUMPI PUSH2 0x1822 DUP2 PUSH2 0x1D81 JUMP JUMPDEST DUP1 ISZERO PUSH2 0x1847 JUMPI POP DUP5 PUSH1 0x1 PUSH1 0x1 PUSH1 0xA0 SHL SUB AND PUSH2 0x183C DUP3 PUSH2 0xF37 JUMP JUMPDEST PUSH1 0x1 PUSH1 0x1 PUSH1 0xA0 SHL SUB AND EQ JUMPDEST ISZERO PUSH2 0x18FC JUMPI PUSH1 0xD DUP2 DUP2 SLOAD DUP2 LT PUSH2 0x186D JUMPI PUSH4 0x4E487B71 PUSH1 0xE0 SHL PUSH1 0x0 MSTORE PUSH1 0x32 PUSH1 0x4 MSTORE PUSH1 0x24 PUSH1 0x0 REVERT JUMPDEST PUSH1 0x0 SWAP2 DUP3 MSTORE PUSH1 0x20 SWAP2 DUP3 SWAP1 KECCAK256 PUSH1 0x40 DUP1 MLOAD PUSH1 0x80 DUP2 ADD DUP3 MSTORE PUSH1 0x3 SWAP1 SWAP4 MUL SWAP1 SWAP2 ADD DUP1 SLOAD PUSH1 0x1 PUSH1 0x1 PUSH1 0xA0 SHL SUB DUP2 AND DUP5 MSTORE PUSH1 0xFF PUSH1 0x1 PUSH1 0xA0 SHL SWAP1 SWAP2 DIV AND ISZERO ISZERO SWAP4 DUP4 ADD SWAP4 SWAP1 SWAP4 MSTORE PUSH1 0x1 DUP4 ADD SLOAD SWAP1 DUP3 ADD MSTORE PUSH1 0x2 SWAP1 SWAP2 ADD SLOAD PUSH1 0x60 DUP3 ADD MSTORE DUP5 MLOAD DUP6 SWAP1 DUP5 SWAP1 DUP2 LT PUSH2 0x18E2 JUMPI PUSH4 0x4E487B71 PUSH1 0xE0 SHL PUSH1 0x0 MSTORE PUSH1 0x32 PUSH1 0x4 MSTORE PUSH1 0x24 PUSH1 0x0 REVERT JUMPDEST PUSH1 0x20 MUL PUSH1 0x20 ADD ADD DUP2 SWAP1 MSTORE POP DUP2 DUP1 PUSH2 0x18F8 SWAP1 PUSH2 0x322D JUMP JUMPDEST SWAP3 POP POP JUMPDEST DUP1 PUSH2 0x1906 DUP2 PUSH2 0x322D JUMP JUMPDEST SWAP2 POP POP PUSH2 0x1811 JUMP JUMPDEST DUP1 PUSH2 0x1919 CALLER DUP3 PUSH2 0x1E0C JUMP JUMPDEST PUSH2 0x1935 JUMPI PUSH1 0x40 MLOAD PUSH3 0x461BCD PUSH1 0xE5 SHL DUP2 MSTORE PUSH1 0x4 ADD PUSH2 0x651 SWAP1 PUSH2 0x2EF4 JUMP JUMPDEST PUSH1 0x0 PUSH1 0xD DUP4 DUP2 SLOAD DUP2 LT PUSH2 0x1958 JUMPI PUSH4 0x4E487B71 PUSH1 0xE0 SHL PUSH1 0x0 MSTORE PUSH1 0x32 PUSH1 0x4 MSTORE PUSH1 0x24 PUSH1 0x0 REVERT JUMPDEST PUSH1 0x0 SWAP2 DUP3 MSTORE PUSH1 0x20 SWAP1 SWAP2 KECCAK256 PUSH1 0x3 SWAP1 SWAP2 MUL ADD DUP1 SLOAD SWAP1 SWAP2 POP PUSH1 0x1 PUSH1 0xA0 SHL SWAP1 DIV PUSH1 0xFF AND ISZERO PUSH2 0x19D2 JUMPI PUSH1 0x40 MLOAD PUSH3 0x461BCD PUSH1 0xE5 SHL DUP2 MSTORE PUSH1 0x20 PUSH1 0x4 DUP3 ADD MSTORE PUSH1 0x25 PUSH1 0x24 DUP3 ADD MSTORE PUSH32 0x41524D593A206D696E696F6E206973206E6F7420696E20747261696E696E6720 PUSH1 0x44 DUP3 ADD MSTORE PUSH5 0x7374617465 PUSH1 0xD8 SHL PUSH1 0x64 DUP3 ADD MSTORE PUSH1 0x84 ADD PUSH2 0x651 JUMP JUMPDEST DUP1 SLOAD PUSH1 0x40 DUP1 MLOAD PUSH4 0x3FABE5A3 PUSH1 0xE2 SHL DUP2 MSTORE SWAP1 MLOAD PUSH1 0x1 PUSH1 0x1 PUSH1 0xA0 SHL SUB SWAP1 SWAP3 AND SWAP2 PUSH1 0x0 SWAP2 DUP4 SWAP2 PUSH4 0xFEAF968C SWAP2 PUSH1 0x4 DUP1 DUP3 ADD SWAP3 PUSH1 0xA0 SWAP3 SWAP1 SWAP2 SWAP1 DUP3 SWAP1 SUB ADD DUP2 DUP7 DUP1 EXTCODESIZE ISZERO DUP1 ISZERO PUSH2 0x1A1B JUMPI PUSH1 0x0 DUP1 REVERT JUMPDEST POP GAS STATICCALL ISZERO DUP1 ISZERO PUSH2 0x1A2F JUMPI RETURNDATASIZE PUSH1 0x0 DUP1 RETURNDATACOPY RETURNDATASIZE PUSH1 0x0 REVERT JUMPDEST POP POP POP POP PUSH1 0x40 MLOAD RETURNDATASIZE PUSH1 0x1F NOT PUSH1 0x1F DUP3 ADD AND DUP3 ADD DUP1 PUSH1 0x40 MSTORE POP DUP2 ADD SWAP1 PUSH2 0x1A53 SWAP2 SWAP1 PUSH2 0x2CA9 JUMP JUMPDEST POP POP POP SWAP2 POP POP DUP3 PUSH1 0x1 ADD SLOAD DUP2 SGT ISZERO PUSH2 0x1B01 JUMPI PUSH1 0x7 SLOAD PUSH1 0x2 DUP5 ADD SLOAD PUSH1 0x1 DUP6 ADD SLOAD PUSH1 0x1 PUSH1 0x1 PUSH1 0xA0 SHL SUB SWAP1 SWAP3 AND SWAP2 PUSH4 0x224B5C72 SWAP2 CALLER SWAP2 PUSH1 0x10 SWAP2 SWAP1 PUSH2 0x1A96 SWAP1 DUP8 DUP5 SHL PUSH2 0x3094 JUMP JUMPDEST PUSH2 0x1AA0 SWAP2 SWAP1 PUSH2 0x30D6 JUMP JUMPDEST PUSH1 0x40 MLOAD PUSH1 0x1 PUSH1 0x1 PUSH1 0xE0 SHL SUB NOT PUSH1 0xE0 DUP7 SWAP1 SHL AND DUP2 MSTORE PUSH1 0x1 PUSH1 0x1 PUSH1 0xA0 SHL SUB SWAP1 SWAP4 AND PUSH1 0x4 DUP5 ADD MSTORE SWAP1 SAR PUSH1 0x24 DUP3 ADD MSTORE PUSH1 0x44 ADD PUSH1 0x0 PUSH1 0x40 MLOAD DUP1 DUP4 SUB DUP2 PUSH1 0x0 DUP8 DUP1 EXTCODESIZE ISZERO DUP1 ISZERO PUSH2 0x1AE8 JUMPI PUSH1 0x0 DUP1 REVERT JUMPDEST POP GAS CALL ISZERO DUP1 ISZERO PUSH2 0x1AFC JUMPI RETURNDATASIZE PUSH1 0x0 DUP1 RETURNDATACOPY RETURNDATASIZE PUSH1 0x0 REVERT JUMPDEST POP POP POP POP JUMPDEST DUP3 SLOAD PUSH1 0xFF PUSH1 0xA0 SHL NOT DUP2 AND PUSH1 0x1 PUSH1 0xA0 SHL OR DUP5 SSTORE PUSH1 0x1 DUP5 DUP2 ADD SLOAD PUSH1 0x2 DUP7 ADD SLOAD PUSH1 0x40 MLOAD SWAP3 SWAP4 PUSH1 0x1 PUSH1 0x1 PUSH1 0xA0 SHL SUB AND SWAP3 DUP10 SWAP3 PUSH1 0x0 DUP1 MLOAD PUSH1 0x20 PUSH2 0x32CA DUP4 CODECOPY DUP2 MLOAD SWAP2 MSTORE SWAP3 PUSH2 0xAB3 SWAP3 SWAP2 DUP3 MSTORE PUSH1 0x20 DUP3 ADD MSTORE PUSH1 0x40 ADD SWAP1 JUMP JUMPDEST PUSH1 0x0 DUP1 PUSH2 0x1B5D DUP4 PUSH2 0x2307 JUMP JUMPDEST SWAP1 POP PUSH1 0x1 PUSH1 0x1 PUSH1 0xA0 SHL SUB DUP2 AND PUSH2 0x1BAC JUMPI PUSH1 0x40 MLOAD PUSH3 0x461BCD PUSH1 0xE5 SHL DUP2 MSTORE PUSH1 0x20 PUSH1 0x4 DUP3 ADD MSTORE PUSH1 0x14 PUSH1 0x24 DUP3 ADD MSTORE PUSH20 0x82A49AB27440D2DCECC2D8D2C840C4E4C2DCC6D PUSH1 0x63 SHL PUSH1 0x44 DUP3 ADD MSTORE PUSH1 0x64 ADD PUSH2 0x651 JUMP JUMPDEST PUSH1 0x0 DUP2 SWAP1 POP PUSH1 0x0 DUP2 PUSH1 0x1 PUSH1 0x1 PUSH1 0xA0 SHL SUB AND PUSH4 0xFEAF968C PUSH1 0x40 MLOAD DUP2 PUSH4 0xFFFFFFFF AND PUSH1 0xE0 SHL DUP2 MSTORE PUSH1 0x4 ADD PUSH1 0xA0 PUSH1 0x40 MLOAD DUP1 DUP4 SUB DUP2 DUP7 DUP1 EXTCODESIZE ISZERO DUP1 ISZERO PUSH2 0x1BEC JUMPI PUSH1 0x0 DUP1 REVERT JUMPDEST POP GAS STATICCALL ISZERO DUP1 ISZERO PUSH2 0x1C00 JUMPI RETURNDATASIZE PUSH1 0x0 DUP1 RETURNDATACOPY RETURNDATASIZE PUSH1 0x0 REVERT JUMPDEST POP POP POP POP PUSH1 0x40 MLOAD RETURNDATASIZE PUSH1 0x1F NOT PUSH1 0x1F DUP3 ADD AND DUP3 ADD DUP1 PUSH1 0x40 MSTORE POP DUP2 ADD SWAP1 PUSH2 0x1C24 SWAP2 SWAP1 PUSH2 0x2CA9 JUMP JUMPDEST POP POP POP SWAP2 POP POP PUSH1 0x0 PUSH1 0x9 SLOAD SWAP1 POP PUSH2 0x1C3B CALLER DUP3 PUSH2 0x240A JUMP JUMPDEST PUSH1 0x40 DUP1 MLOAD PUSH1 0x80 DUP2 ADD DUP3 MSTORE PUSH1 0x1 PUSH1 0x1 PUSH1 0xA0 SHL SUB DUP1 DUP8 AND DUP1 DUP4 MSTORE PUSH1 0x0 PUSH1 0x20 DUP5 ADD DUP2 DUP2 MSTORE DUP5 DUP7 ADD DUP9 DUP2 MSTORE PUSH1 0xB DUP1 SLOAD PUSH1 0x60 DUP9 ADD SWAP1 DUP2 MSTORE PUSH1 0xD DUP1 SLOAD PUSH1 0x1 DUP2 ADD DUP3 SSTORE SWAP1 DUP7 MSTORE SWAP8 MLOAD PUSH1 0x3 SWAP1 SWAP9 MUL PUSH32 0xD7B6990105719101DABEB77144F2A3385C8033ACD3AF97E9423A695E81AD1EB5 DUP2 ADD DUP1 SLOAD SWAP6 MLOAD ISZERO ISZERO PUSH1 0x1 PUSH1 0xA0 SHL MUL PUSH1 0x1 PUSH1 0x1 PUSH1 0xA8 SHL SUB NOT SWAP1 SWAP7 AND SWAP10 SWAP1 SWAP9 AND SWAP9 SWAP1 SWAP9 OR SWAP4 SWAP1 SWAP4 OR SWAP1 SWAP6 SSTORE MLOAD PUSH32 0xD7B6990105719101DABEB77144F2A3385C8033ACD3AF97E9423A695E81AD1EB6 DUP7 ADD SSTORE MLOAD PUSH32 0xD7B6990105719101DABEB77144F2A3385C8033ACD3AF97E9423A695E81AD1EB7 SWAP1 SWAP5 ADD SWAP4 SWAP1 SWAP4 SSTORE SWAP1 SLOAD SWAP3 MLOAD SWAP2 SWAP3 SWAP1 SWAP2 DUP5 SWAP2 PUSH1 0x0 DUP1 MLOAD PUSH1 0x20 PUSH2 0x32CA DUP4 CODECOPY DUP2 MLOAD SWAP2 MSTORE SWAP2 PUSH2 0x1D45 SWAP2 DUP9 DUP3 MSTORE PUSH1 0x20 DUP3 ADD MSTORE PUSH1 0x40 ADD SWAP1 JUMP JUMPDEST PUSH1 0x40 MLOAD DUP1 SWAP2 SUB SWAP1 LOG4 PUSH1 0x9 DUP1 SLOAD SWAP1 PUSH1 0x0 PUSH2 0x1D5D DUP4 PUSH2 0x322D JUMP JUMPDEST SWAP1 SWAP2 SSTORE POP POP PUSH1 0xA DUP1 SLOAD SWAP1 PUSH1 0x0 PUSH2 0x1D72 DUP4 PUSH2 0x322D JUMP JUMPDEST SWAP1 SWAP2 SSTORE POP SWAP1 SWAP7 SWAP6 POP POP POP POP POP POP JUMP JUMPDEST PUSH1 0x0 SWAP1 DUP2 MSTORE PUSH1 0x2 PUSH1 0x20 MSTORE PUSH1 0x40 SWAP1 KECCAK256 SLOAD PUSH1 0x1 PUSH1 0x1 PUSH1 0xA0 SHL SUB AND ISZERO ISZERO SWAP1 JUMP JUMPDEST PUSH1 0x0 DUP2 DUP2 MSTORE PUSH1 0x4 PUSH1 0x20 MSTORE PUSH1 0x40 SWAP1 KECCAK256 DUP1 SLOAD PUSH1 0x1 PUSH1 0x1 PUSH1 0xA0 SHL SUB NOT AND PUSH1 0x1 PUSH1 0x1 PUSH1 0xA0 SHL SUB DUP5 AND SWAP1 DUP2 OR SWAP1 SWAP2 SSTORE DUP2 SWAP1 PUSH2 0x1DD3 DUP3 PUSH2 0xF37 JUMP JUMPDEST PUSH1 0x1 PUSH1 0x1 PUSH1 0xA0 SHL SUB AND PUSH32 0x8C5BE1E5EBEC7D5BD14F71427D1E84F3DD0314C0F7B2291E5B200AC8C7C3B925 PUSH1 0x40 MLOAD PUSH1 0x40 MLOAD DUP1 SWAP2 SUB SWAP1 LOG4 POP POP JUMP JUMPDEST PUSH1 0x0 PUSH2 0x1E17 DUP3 PUSH2 0x1D81 JUMP JUMPDEST PUSH2 0x1E78 JUMPI PUSH1 0x40 MLOAD PUSH3 0x461BCD PUSH1 0xE5 SHL DUP2 MSTORE PUSH1 0x20 PUSH1 0x4 DUP3 ADD MSTORE PUSH1 0x2C PUSH1 0x24 DUP3 ADD MSTORE PUSH32 0x4552433732313A206F70657261746F7220717565727920666F72206E6F6E6578 PUSH1 0x44 DUP3 ADD MSTORE PUSH12 0x34B9BA32B73A103A37B5B2B7 PUSH1 0xA1 SHL PUSH1 0x64 DUP3 ADD MSTORE PUSH1 0x84 ADD PUSH2 0x651 JUMP JUMPDEST PUSH1 0x0 PUSH2 0x1E83 DUP4 PUSH2 0xF37 JUMP JUMPDEST SWAP1 POP DUP1 PUSH1 0x1 PUSH1 0x1 PUSH1 0xA0 SHL SUB AND DUP5 PUSH1 0x1 PUSH1 0x1 PUSH1 0xA0 SHL SUB AND EQ DUP1 PUSH2 0x1EBE JUMPI POP DUP4 PUSH1 0x1 PUSH1 0x1 PUSH1 0xA0 SHL SUB AND PUSH2 0x1EB3 DUP5 PUSH2 0x5E9 JUMP JUMPDEST PUSH1 0x1 PUSH1 0x1 PUSH1 0xA0 SHL SUB AND EQ JUMPDEST DUP1 PUSH2 0x1EEE JUMPI POP PUSH1 0x1 PUSH1 0x1 PUSH1 0xA0 SHL SUB DUP1 DUP3 AND PUSH1 0x0 SWAP1 DUP2 MSTORE PUSH1 0x5 PUSH1 0x20 SWAP1 DUP2 MSTORE PUSH1 0x40 DUP1 DUP4 KECCAK256 SWAP4 DUP9 AND DUP4 MSTORE SWAP3 SWAP1 MSTORE KECCAK256 SLOAD PUSH1 0xFF AND JUMPDEST SWAP5 SWAP4 POP POP POP POP JUMP JUMPDEST PUSH2 0x1EFF DUP3 PUSH2 0x1D81 JUMP JUMPDEST PUSH2 0x1F62 JUMPI PUSH1 0x40 MLOAD PUSH3 0x461BCD PUSH1 0xE5 SHL DUP2 MSTORE PUSH1 0x20 PUSH1 0x4 DUP3 ADD MSTORE PUSH1 0x2E PUSH1 0x24 DUP3 ADD MSTORE PUSH32 0x45524337323155524953746F726167653A2055524920736574206F66206E6F6E PUSH1 0x44 DUP3 ADD MSTORE PUSH14 0x32BC34B9BA32B73A103A37B5B2B7 PUSH1 0x91 SHL PUSH1 0x64 DUP3 ADD MSTORE PUSH1 0x84 ADD PUSH2 0x651 JUMP JUMPDEST PUSH1 0x0 DUP3 DUP2 MSTORE PUSH1 0x6 PUSH1 0x20 SWAP1 DUP2 MSTORE PUSH1 0x40 SWAP1 SWAP2 KECCAK256 DUP3 MLOAD PUSH2 0x787 SWAP3 DUP5 ADD SWAP1 PUSH2 0x28D8 JUMP JUMPDEST DUP3 PUSH1 0x1 PUSH1 0x1 PUSH1 0xA0 SHL SUB AND PUSH2 0x1F94 DUP3 PUSH2 0xF37 JUMP JUMPDEST PUSH1 0x1 PUSH1 0x1 PUSH1 0xA0 SHL SUB AND EQ PUSH2 0x1FFC JUMPI PUSH1 0x40 MLOAD PUSH3 0x461BCD PUSH1 0xE5 SHL DUP2 MSTORE PUSH1 0x20 PUSH1 0x4 DUP3 ADD MSTORE PUSH1 0x29 PUSH1 0x24 DUP3 ADD MSTORE PUSH32 0x4552433732313A207472616E73666572206F6620746F6B656E20746861742069 PUSH1 0x44 DUP3 ADD MSTORE PUSH9 0x39903737BA1037BBB7 PUSH1 0xB9 SHL PUSH1 0x64 DUP3 ADD MSTORE PUSH1 0x84 ADD PUSH2 0x651 JUMP JUMPDEST PUSH1 0x1 PUSH1 0x1 PUSH1 0xA0 SHL SUB DUP3 AND PUSH2 0x205E JUMPI PUSH1 0x40 MLOAD PUSH3 0x461BCD PUSH1 0xE5 SHL DUP2 MSTORE PUSH1 0x20 PUSH1 0x4 DUP3 ADD MSTORE PUSH1 0x24 DUP1 DUP3 ADD MSTORE PUSH32 0x4552433732313A207472616E7366657220746F20746865207A65726F20616464 PUSH1 0x44 DUP3 ADD MSTORE PUSH4 0x72657373 PUSH1 0xE0 SHL PUSH1 0x64 DUP3 ADD MSTORE PUSH1 0x84 ADD PUSH2 0x651 JUMP JUMPDEST PUSH2 0x2069 PUSH1 0x0 DUP3 PUSH2 0x1D9E JUMP JUMPDEST PUSH1 0x1 PUSH1 0x1 PUSH1 0xA0 SHL SUB DUP4 AND PUSH1 0x0 SWAP1 DUP2 MSTORE PUSH1 0x3 PUSH1 0x20 MSTORE PUSH1 0x40 DUP2 KECCAK256 DUP1 SLOAD PUSH1 0x1 SWAP3 SWAP1 PUSH2 0x2092 SWAP1 DUP5 SWAP1 PUSH2 0x3198 JUMP JUMPDEST SWAP1 SWAP2 SSTORE POP POP PUSH1 0x1 PUSH1 0x1 PUSH1 0xA0 SHL SUB DUP3 AND PUSH1 0x0 SWAP1 DUP2 MSTORE PUSH1 0x3 PUSH1 0x20 MSTORE PUSH1 0x40 DUP2 KECCAK256 DUP1 SLOAD PUSH1 0x1 SWAP3 SWAP1 PUSH2 0x20C0 SWAP1 DUP5 SWAP1 PUSH2 0x307C JUMP JUMPDEST SWAP1 SWAP2 SSTORE POP POP PUSH1 0x0 DUP2 DUP2 MSTORE PUSH1 0x2 PUSH1 0x20 MSTORE PUSH1 0x40 DUP1 DUP3 KECCAK256 DUP1 SLOAD PUSH1 0x1 PUSH1 0x1 PUSH1 0xA0 SHL SUB NOT AND PUSH1 0x1 PUSH1 0x1 PUSH1 0xA0 SHL SUB DUP7 DUP2 AND SWAP2 DUP3 OR SWAP1 SWAP3 SSTORE SWAP2 MLOAD DUP5 SWAP4 SWAP2 DUP8 AND SWAP2 PUSH32 0xDDF252AD1BE2C89B69C2B068FC378DAA952BA7F163C4A11628F55A4DF523B3EF SWAP2 LOG4 POP POP POP JUMP JUMPDEST PUSH2 0x212A DUP2 PUSH2 0x253D JUMP JUMPDEST PUSH1 0x0 DUP2 DUP2 MSTORE PUSH1 0x6 PUSH1 0x20 MSTORE PUSH1 0x40 SWAP1 KECCAK256 DUP1 SLOAD PUSH2 0x2143 SWAP1 PUSH2 0x31F2 JUMP JUMPDEST ISZERO SWAP1 POP PUSH2 0x2161 JUMPI PUSH1 0x0 DUP2 DUP2 MSTORE PUSH1 0x6 PUSH1 0x20 MSTORE PUSH1 0x40 DUP2 KECCAK256 PUSH2 0x2161 SWAP2 PUSH2 0x295C JUMP JUMPDEST POP JUMP JUMPDEST PUSH2 0x216F DUP5 DUP5 DUP5 PUSH2 0x1F81 JUMP JUMPDEST PUSH2 0x217B DUP5 DUP5 DUP5 DUP5 PUSH2 0x25D8 JUMP JUMPDEST PUSH2 0x13B7 JUMPI PUSH1 0x40 MLOAD PUSH3 0x461BCD PUSH1 0xE5 SHL DUP2 MSTORE PUSH1 0x4 ADD PUSH2 0x651 SWAP1 PUSH2 0x2EA2 JUMP JUMPDEST PUSH1 0x60 PUSH2 0x21A2 DUP3 PUSH2 0x1D81 JUMP JUMPDEST PUSH2 0x2208 JUMPI PUSH1 0x40 MLOAD PUSH3 0x461BCD PUSH1 0xE5 SHL DUP2 MSTORE PUSH1 0x20 PUSH1 0x4 DUP3 ADD MSTORE PUSH1 0x31 PUSH1 0x24 DUP3 ADD MSTORE PUSH32 0x45524337323155524953746F726167653A2055524920717565727920666F7220 PUSH1 0x44 DUP3 ADD MSTORE PUSH17 0x3737B732BC34B9BA32B73A103A37B5B2B7 PUSH1 0x79 SHL PUSH1 0x64 DUP3 ADD MSTORE PUSH1 0x84 ADD PUSH2 0x651 JUMP JUMPDEST PUSH1 0x0 DUP3 DUP2 MSTORE PUSH1 0x6 PUSH1 0x20 MSTORE PUSH1 0x40 DUP2 KECCAK256 DUP1 SLOAD PUSH2 0x2221 SWAP1 PUSH2 0x31F2 JUMP JUMPDEST DUP1 PUSH1 0x1F ADD PUSH1 0x20 DUP1 SWAP2 DIV MUL PUSH1 0x20 ADD PUSH1 0x40 MLOAD SWAP1 DUP2 ADD PUSH1 0x40 MSTORE DUP1 SWAP3 SWAP2 SWAP1 DUP2 DUP2 MSTORE PUSH1 0x20 ADD DUP3 DUP1 SLOAD PUSH2 0x224D SWAP1 PUSH2 0x31F2 JUMP JUMPDEST DUP1 ISZERO PUSH2 0x229A JUMPI DUP1 PUSH1 0x1F LT PUSH2 0x226F JUMPI PUSH2 0x100 DUP1 DUP4 SLOAD DIV MUL DUP4 MSTORE SWAP2 PUSH1 0x20 ADD SWAP2 PUSH2 0x229A JUMP JUMPDEST DUP3 ADD SWAP2 SWAP1 PUSH1 0x0 MSTORE PUSH1 0x20 PUSH1 0x0 KECCAK256 SWAP1 JUMPDEST DUP2 SLOAD DUP2 MSTORE SWAP1 PUSH1 0x1 ADD SWAP1 PUSH1 0x20 ADD DUP1 DUP4 GT PUSH2 0x227D JUMPI DUP3 SWAP1 SUB PUSH1 0x1F AND DUP3 ADD SWAP2 JUMPDEST POP POP POP POP POP SWAP1 POP PUSH1 0x0 PUSH2 0x22B8 PUSH1 0x40 DUP1 MLOAD PUSH1 0x20 DUP2 ADD SWAP1 SWAP2 MSTORE PUSH1 0x0 DUP2 MSTORE SWAP1 JUMP JUMPDEST SWAP1 POP DUP1 MLOAD PUSH1 0x0 EQ ISZERO PUSH2 0x22CC JUMPI POP SWAP1 POP PUSH2 0x552 JUMP JUMPDEST DUP2 MLOAD ISZERO PUSH2 0x22FE JUMPI DUP1 DUP3 PUSH1 0x40 MLOAD PUSH1 0x20 ADD PUSH2 0x22E6 SWAP3 SWAP2 SWAP1 PUSH2 0x2D24 JUMP JUMPDEST PUSH1 0x40 MLOAD PUSH1 0x20 DUP2 DUP4 SUB SUB DUP2 MSTORE SWAP1 PUSH1 0x40 MSTORE SWAP3 POP POP POP PUSH2 0x552 JUMP JUMPDEST PUSH2 0x1EEE DUP5 PUSH2 0x26E5 JUMP JUMPDEST PUSH1 0xC SLOAD PUSH1 0x40 MLOAD PUSH4 0x178B8BF PUSH1 0xE0 SHL DUP2 MSTORE PUSH1 0x4 DUP2 ADD DUP4 SWAP1 MSTORE PUSH1 0x0 SWAP2 DUP3 SWAP2 PUSH1 0x1 PUSH1 0x1 PUSH1 0xA0 SHL SUB SWAP1 SWAP2 AND SWAP1 PUSH4 0x178B8BF SWAP1 PUSH1 0x24 ADD PUSH1 0x20 PUSH1 0x40 MLOAD DUP1 DUP4 SUB DUP2 DUP7 DUP1 EXTCODESIZE ISZERO DUP1 ISZERO PUSH2 0x2350 JUMPI PUSH1 0x0 DUP1 REVERT JUMPDEST POP GAS STATICCALL ISZERO DUP1 ISZERO PUSH2 0x2364 JUMPI RETURNDATASIZE PUSH1 0x0 DUP1 RETURNDATACOPY RETURNDATASIZE PUSH1 0x0 REVERT JUMPDEST POP POP POP POP PUSH1 0x40 MLOAD RETURNDATASIZE PUSH1 0x1F NOT PUSH1 0x1F DUP3 ADD AND DUP3 ADD DUP1 PUSH1 0x40 MSTORE POP DUP2 ADD SWAP1 PUSH2 0x2388 SWAP2 SWAP1 PUSH2 0x29DF JUMP JUMPDEST PUSH1 0x40 MLOAD PUSH4 0x1D9DABEF PUSH1 0xE1 SHL DUP2 MSTORE PUSH1 0x4 DUP2 ADD DUP6 SWAP1 MSTORE SWAP1 SWAP2 POP PUSH1 0x1 PUSH1 0x1 PUSH1 0xA0 SHL SUB DUP3 AND SWAP1 PUSH4 0x3B3B57DE SWAP1 PUSH1 0x24 ADD PUSH1 0x20 PUSH1 0x40 MLOAD DUP1 DUP4 SUB DUP2 DUP7 DUP1 EXTCODESIZE ISZERO DUP1 ISZERO PUSH2 0x23CB JUMPI PUSH1 0x0 DUP1 REVERT JUMPDEST POP GAS STATICCALL ISZERO DUP1 ISZERO PUSH2 0x23DF JUMPI RETURNDATASIZE PUSH1 0x0 DUP1 RETURNDATACOPY RETURNDATASIZE PUSH1 0x0 REVERT JUMPDEST POP POP POP POP PUSH1 0x40 MLOAD RETURNDATASIZE PUSH1 0x1F NOT PUSH1 0x1F DUP3 ADD AND DUP3 ADD DUP1 PUSH1 0x40 MSTORE POP DUP2 ADD SWAP1 PUSH2 0x2403 SWAP2 SWAP1 PUSH2 0x29DF JUMP JUMPDEST SWAP4 SWAP3 POP POP POP JUMP JUMPDEST PUSH1 0x1 PUSH1 0x1 PUSH1 0xA0 SHL SUB DUP3 AND PUSH2 0x2460 JUMPI PUSH1 0x40 MLOAD PUSH3 0x461BCD PUSH1 0xE5 SHL DUP2 MSTORE PUSH1 0x20 PUSH1 0x4 DUP3 ADD DUP2 SWAP1 MSTORE PUSH1 0x24 DUP3 ADD MSTORE PUSH32 0x4552433732313A206D696E7420746F20746865207A65726F2061646472657373 PUSH1 0x44 DUP3 ADD MSTORE PUSH1 0x64 ADD PUSH2 0x651 JUMP JUMPDEST PUSH2 0x2469 DUP2 PUSH2 0x1D81 JUMP JUMPDEST ISZERO PUSH2 0x24B6 JUMPI PUSH1 0x40 MLOAD PUSH3 0x461BCD PUSH1 0xE5 SHL DUP2 MSTORE PUSH1 0x20 PUSH1 0x4 DUP3 ADD MSTORE PUSH1 0x1C PUSH1 0x24 DUP3 ADD MSTORE PUSH32 0x4552433732313A20746F6B656E20616C7265616479206D696E74656400000000 PUSH1 0x44 DUP3 ADD MSTORE PUSH1 0x64 ADD PUSH2 0x651 JUMP JUMPDEST PUSH1 0x1 PUSH1 0x1 PUSH1 0xA0 SHL SUB DUP3 AND PUSH1 0x0 SWAP1 DUP2 MSTORE PUSH1 0x3 PUSH1 0x20 MSTORE PUSH1 0x40 DUP2 KECCAK256 DUP1 SLOAD PUSH1 0x1 SWAP3 SWAP1 PUSH2 0x24DF SWAP1 DUP5 SWAP1 PUSH2 0x307C JUMP JUMPDEST SWAP1 SWAP2 SSTORE POP POP PUSH1 0x0 DUP2 DUP2 MSTORE PUSH1 0x2 PUSH1 0x20 MSTORE PUSH1 0x40 DUP1 DUP3 KECCAK256 DUP1 SLOAD PUSH1 0x1 PUSH1 0x1 PUSH1 0xA0 SHL SUB NOT AND PUSH1 0x1 PUSH1 0x1 PUSH1 0xA0 SHL SUB DUP7 AND SWAP1 DUP2 OR SWAP1 SWAP2 SSTORE SWAP1 MLOAD DUP4 SWAP3 SWAP1 PUSH32 0xDDF252AD1BE2C89B69C2B068FC378DAA952BA7F163C4A11628F55A4DF523B3EF SWAP1 DUP3 SWAP1 LOG4 POP POP JUMP JUMPDEST PUSH1 0x0 PUSH2 0x2548 DUP3 PUSH2 0xF37 JUMP JUMPDEST SWAP1 POP PUSH2 0x2555 PUSH1 0x0 DUP4 PUSH2 0x1D9E JUMP JUMPDEST PUSH1 0x1 PUSH1 0x1 PUSH1 0xA0 SHL SUB DUP2 AND PUSH1 0x0 SWAP1 DUP2 MSTORE PUSH1 0x3 PUSH1 0x20 MSTORE PUSH1 0x40 DUP2 KECCAK256 DUP1 SLOAD PUSH1 0x1 SWAP3 SWAP1 PUSH2 0x257E SWAP1 DUP5 SWAP1 PUSH2 0x3198 JUMP JUMPDEST SWAP1 SWAP2 SSTORE POP POP PUSH1 0x0 DUP3 DUP2 MSTORE PUSH1 0x2 PUSH1 0x20 MSTORE PUSH1 0x40 DUP1 DUP3 KECCAK256 DUP1 SLOAD PUSH1 0x1 PUSH1 0x1 PUSH1 0xA0 SHL SUB NOT AND SWAP1 SSTORE MLOAD DUP4 SWAP2 SWAP1 PUSH1 0x1 PUSH1 0x1 PUSH1 0xA0 SHL SUB DUP5 AND SWAP1 PUSH32 0xDDF252AD1BE2C89B69C2B068FC378DAA952BA7F163C4A11628F55A4DF523B3EF SWAP1 DUP4 SWAP1 LOG4 POP POP JUMP JUMPDEST PUSH1 0x0 PUSH1 0x1 PUSH1 0x1 PUSH1 0xA0 SHL SUB DUP5 AND EXTCODESIZE ISZERO PUSH2 0x26DA JUMPI PUSH1 0x40 MLOAD PUSH4 0xA85BD01 PUSH1 0xE1 SHL DUP2 MSTORE PUSH1 0x1 PUSH1 0x1 PUSH1 0xA0 SHL SUB DUP6 AND SWAP1 PUSH4 0x150B7A02 SWAP1 PUSH2 0x261C SWAP1 CALLER SWAP1 DUP10 SWAP1 DUP9 SWAP1 DUP9 SWAP1 PUSH1 0x4 ADD PUSH2 0x2D53 JUMP JUMPDEST PUSH1 0x20 PUSH1 0x40 MLOAD DUP1 DUP4 SUB DUP2 PUSH1 0x0 DUP8 DUP1 EXTCODESIZE ISZERO DUP1 ISZERO PUSH2 0x2636 JUMPI PUSH1 0x0 DUP1 REVERT JUMPDEST POP GAS CALL SWAP3 POP POP POP DUP1 ISZERO PUSH2 0x2666 JUMPI POP PUSH1 0x40 DUP1 MLOAD PUSH1 0x1F RETURNDATASIZE SWAP1 DUP2 ADD PUSH1 0x1F NOT AND DUP3 ADD SWAP1 SWAP3 MSTORE PUSH2 0x2663 SWAP2 DUP2 ADD SWAP1 PUSH2 0x2C1A JUMP JUMPDEST PUSH1 0x1 JUMPDEST PUSH2 0x26C0 JUMPI RETURNDATASIZE DUP1 DUP1 ISZERO PUSH2 0x2694 JUMPI PUSH1 0x40 MLOAD SWAP2 POP PUSH1 0x1F NOT PUSH1 0x3F RETURNDATASIZE ADD AND DUP3 ADD PUSH1 0x40 MSTORE RETURNDATASIZE DUP3 MSTORE RETURNDATASIZE PUSH1 0x0 PUSH1 0x20 DUP5 ADD RETURNDATACOPY PUSH2 0x2699 JUMP JUMPDEST PUSH1 0x60 SWAP2 POP JUMPDEST POP DUP1 MLOAD PUSH2 0x26B8 JUMPI PUSH1 0x40 MLOAD PUSH3 0x461BCD PUSH1 0xE5 SHL DUP2 MSTORE PUSH1 0x4 ADD PUSH2 0x651 SWAP1 PUSH2 0x2EA2 JUMP JUMPDEST DUP1 MLOAD DUP2 PUSH1 0x20 ADD REVERT JUMPDEST PUSH1 0x1 PUSH1 0x1 PUSH1 0xE0 SHL SUB NOT AND PUSH4 0xA85BD01 PUSH1 0xE1 SHL EQ SWAP1 POP PUSH2 0x1EEE JUMP JUMPDEST POP PUSH1 0x1 SWAP5 SWAP4 POP POP POP POP JUMP JUMPDEST PUSH1 0x60 PUSH2 0x26F0 DUP3 PUSH2 0x1D81 JUMP JUMPDEST PUSH2 0x2754 JUMPI PUSH1 0x40 MLOAD PUSH3 0x461BCD PUSH1 0xE5 SHL DUP2 MSTORE PUSH1 0x20 PUSH1 0x4 DUP3 ADD MSTORE PUSH1 0x2F PUSH1 0x24 DUP3 ADD MSTORE PUSH32 0x4552433732314D657461646174613A2055524920717565727920666F72206E6F PUSH1 0x44 DUP3 ADD MSTORE PUSH15 0x3732BC34B9BA32B73A103A37B5B2B7 PUSH1 0x89 SHL PUSH1 0x64 DUP3 ADD MSTORE PUSH1 0x84 ADD PUSH2 0x651 JUMP JUMPDEST PUSH1 0x0 PUSH2 0x276B PUSH1 0x40 DUP1 MLOAD PUSH1 0x20 DUP2 ADD SWAP1 SWAP2 MSTORE PUSH1 0x0 DUP2 MSTORE SWAP1 JUMP JUMPDEST SWAP1 POP PUSH1 0x0 DUP2 MLOAD GT PUSH2 0x278B JUMPI PUSH1 0x40 MLOAD DUP1 PUSH1 0x20 ADD PUSH1 0x40 MSTORE DUP1 PUSH1 0x0 DUP2 MSTORE POP PUSH2 0x2403 JUMP JUMPDEST DUP1 PUSH2 0x2795 DUP5 PUSH2 0x27BD JUMP JUMPDEST PUSH1 0x40 MLOAD PUSH1 0x20 ADD PUSH2 0x27A6 SWAP3 SWAP2 SWAP1 PUSH2 0x2D24 JUMP JUMPDEST PUSH1 0x40 MLOAD PUSH1 0x20 DUP2 DUP4 SUB SUB DUP2 MSTORE SWAP1 PUSH1 0x40 MSTORE SWAP2 POP POP SWAP2 SWAP1 POP JUMP JUMPDEST PUSH1 0x60 DUP2 PUSH2 0x27E2 JUMPI POP PUSH1 0x40 DUP1 MLOAD DUP1 DUP3 ADD SWAP1 SWAP2 MSTORE PUSH1 0x1 DUP2 MSTORE PUSH1 0x3 PUSH1 0xFC SHL PUSH1 0x20 DUP3 ADD MSTORE PUSH2 0x552 JUMP JUMPDEST DUP2 PUSH1 0x0 JUMPDEST DUP2 ISZERO PUSH2 0x280C JUMPI DUP1 PUSH2 0x27F6 DUP2 PUSH2 0x322D JUMP JUMPDEST SWAP2 POP PUSH2 0x2805 SWAP1 POP PUSH1 0xA DUP4 PUSH2 0x30C2 JUMP JUMPDEST SWAP2 POP PUSH2 0x27E6 JUMP JUMPDEST PUSH1 0x0 DUP2 PUSH8 0xFFFFFFFFFFFFFFFF DUP2 GT ISZERO PUSH2 0x2835 JUMPI PUSH4 0x4E487B71 PUSH1 0xE0 SHL PUSH1 0x0 MSTORE PUSH1 0x41 PUSH1 0x4 MSTORE PUSH1 0x24 PUSH1 0x0 REVERT JUMPDEST PUSH1 0x40 MLOAD SWAP1 DUP1 DUP3 MSTORE DUP1 PUSH1 0x1F ADD PUSH1 0x1F NOT AND PUSH1 0x20 ADD DUP3 ADD PUSH1 0x40 MSTORE DUP1 ISZERO PUSH2 0x285F JUMPI PUSH1 0x20 DUP3 ADD DUP2 DUP1 CALLDATASIZE DUP4 CALLDATACOPY ADD SWAP1 POP JUMPDEST POP SWAP1 POP JUMPDEST DUP5 ISZERO PUSH2 0x1EEE JUMPI PUSH2 0x2874 PUSH1 0x1 DUP4 PUSH2 0x3198 JUMP JUMPDEST SWAP2 POP PUSH2 0x2881 PUSH1 0xA DUP7 PUSH2 0x3248 JUMP JUMPDEST PUSH2 0x288C SWAP1 PUSH1 0x30 PUSH2 0x307C JUMP JUMPDEST PUSH1 0xF8 SHL DUP2 DUP4 DUP2 MLOAD DUP2 LT PUSH2 0x28AF JUMPI PUSH4 0x4E487B71 PUSH1 0xE0 SHL PUSH1 0x0 MSTORE PUSH1 0x32 PUSH1 0x4 MSTORE PUSH1 0x24 PUSH1 0x0 REVERT JUMPDEST PUSH1 0x20 ADD ADD SWAP1 PUSH1 0x1 PUSH1 0x1 PUSH1 0xF8 SHL SUB NOT AND SWAP1 DUP2 PUSH1 0x0 BYTE SWAP1 MSTORE8 POP PUSH2 0x28D1 PUSH1 0xA DUP7 PUSH2 0x30C2 JUMP JUMPDEST SWAP5 POP PUSH2 0x2863 JUMP JUMPDEST DUP3 DUP1 SLOAD PUSH2 0x28E4 SWAP1 PUSH2 0x31F2 JUMP JUMPDEST SWAP1 PUSH1 0x0 MSTORE PUSH1 0x20 PUSH1 0x0 KECCAK256 SWAP1 PUSH1 0x1F ADD PUSH1 0x20 SWAP1 DIV DUP2 ADD SWAP3 DUP3 PUSH2 0x2906 JUMPI PUSH1 0x0 DUP6 SSTORE PUSH2 0x294C JUMP JUMPDEST DUP3 PUSH1 0x1F LT PUSH2 0x291F JUMPI DUP1 MLOAD PUSH1 0xFF NOT AND DUP4 DUP1 ADD OR DUP6 SSTORE PUSH2 0x294C JUMP JUMPDEST DUP3 DUP1 ADD PUSH1 0x1 ADD DUP6 SSTORE DUP3 ISZERO PUSH2 0x294C JUMPI SWAP2 DUP3 ADD JUMPDEST DUP3 DUP2 GT ISZERO PUSH2 0x294C JUMPI DUP3 MLOAD DUP3 SSTORE SWAP2 PUSH1 0x20 ADD SWAP2 SWAP1 PUSH1 0x1 ADD SWAP1 PUSH2 0x2931 JUMP JUMPDEST POP PUSH2 0x2958 SWAP3 SWAP2 POP PUSH2 0x2994 JUMP JUMPDEST POP SWAP1 JUMP JUMPDEST POP DUP1 SLOAD PUSH2 0x2968 SWAP1 PUSH2 0x31F2 JUMP JUMPDEST PUSH1 0x0 DUP3 SSTORE DUP1 PUSH1 0x1F LT PUSH2 0x297A JUMPI POP PUSH2 0x2161 JUMP JUMPDEST PUSH1 0x1F ADD PUSH1 0x20 SWAP1 DIV SWAP1 PUSH1 0x0 MSTORE PUSH1 0x20 PUSH1 0x0 KECCAK256 SWAP1 DUP2 ADD SWAP1 PUSH2 0x2161 SWAP2 SWAP1 JUMPDEST JUMPDEST DUP1 DUP3 GT ISZERO PUSH2 0x2958 JUMPI PUSH1 0x0 DUP2 SSTORE PUSH1 0x1 ADD PUSH2 0x2995 JUMP JUMPDEST DUP1 MLOAD PUSH10 0xFFFFFFFFFFFFFFFFFFFF DUP2 AND DUP2 EQ PUSH2 0x552 JUMPI PUSH1 0x0 DUP1 REVERT JUMPDEST PUSH1 0x0 PUSH1 0x20 DUP3 DUP5 SUB SLT ISZERO PUSH2 0x29D4 JUMPI DUP1 DUP2 REVERT JUMPDEST DUP2 CALLDATALOAD PUSH2 0x2403 DUP2 PUSH2 0x329E JUMP JUMPDEST PUSH1 0x0 PUSH1 0x20 DUP3 DUP5 SUB SLT ISZERO PUSH2 0x29F0 JUMPI DUP1 DUP2 REVERT JUMPDEST DUP2 MLOAD PUSH2 0x2403 DUP2 PUSH2 0x329E JUMP JUMPDEST PUSH1 0x0 DUP1 PUSH1 0x40 DUP4 DUP6 SUB SLT ISZERO PUSH2 0x2A0D JUMPI DUP1 DUP2 REVERT JUMPDEST DUP3 CALLDATALOAD PUSH2 0x2A18 DUP2 PUSH2 0x329E JUMP JUMPDEST SWAP2 POP PUSH1 0x20 DUP4 ADD CALLDATALOAD PUSH2 0x2A28 DUP2 PUSH2 0x329E JUMP JUMPDEST DUP1 SWAP2 POP POP SWAP3 POP SWAP3 SWAP1 POP JUMP JUMPDEST PUSH1 0x0 DUP1 PUSH1 0x0 PUSH1 0x60 DUP5 DUP7 SUB SLT ISZERO PUSH2 0x2A47 JUMPI DUP1 DUP2 REVERT JUMPDEST DUP4 CALLDATALOAD PUSH2 0x2A52 DUP2 PUSH2 0x329E JUMP JUMPDEST SWAP3 POP PUSH1 0x20 DUP5 ADD CALLDATALOAD PUSH2 0x2A62 DUP2 PUSH2 0x329E JUMP JUMPDEST SWAP3 SWAP6 SWAP3 SWAP5 POP POP POP PUSH1 0x40 SWAP2 SWAP1 SWAP2 ADD CALLDATALOAD SWAP1 JUMP JUMPDEST PUSH1 0x0 DUP1 PUSH1 0x0 DUP1 PUSH1 0x80 DUP6 DUP8 SUB SLT ISZERO PUSH2 0x2A88 JUMPI DUP1 DUP2 REVERT JUMPDEST DUP5 CALLDATALOAD PUSH2 0x2A93 DUP2 PUSH2 0x329E JUMP JUMPDEST SWAP4 POP PUSH1 0x20 DUP6 ADD CALLDATALOAD PUSH2 0x2AA3 DUP2 PUSH2 0x329E JUMP JUMPDEST SWAP3 POP PUSH1 0x40 DUP6 ADD CALLDATALOAD SWAP2 POP PUSH1 0x60 DUP6 ADD CALLDATALOAD PUSH8 0xFFFFFFFFFFFFFFFF DUP2 GT ISZERO PUSH2 0x2AC5 JUMPI DUP2 DUP3 REVERT JUMPDEST DUP6 ADD PUSH1 0x1F DUP2 ADD DUP8 SGT PUSH2 0x2AD5 JUMPI DUP2 DUP3 REVERT JUMPDEST DUP1 CALLDATALOAD PUSH2 0x2AE8 PUSH2 0x2AE3 DUP3 PUSH2 0x3054 JUMP JUMPDEST PUSH2 0x3023 JUMP JUMPDEST DUP2 DUP2 MSTORE DUP9 PUSH1 0x20 DUP4 DUP6 ADD ADD GT ISZERO PUSH2 0x2AFC JUMPI DUP4 DUP5 REVERT JUMPDEST DUP2 PUSH1 0x20 DUP5 ADD PUSH1 0x20 DUP4 ADD CALLDATACOPY SWAP1 DUP2 ADD PUSH1 0x20 ADD SWAP3 SWAP1 SWAP3 MSTORE POP SWAP3 SWAP6 SWAP2 SWAP5 POP SWAP3 POP JUMP JUMPDEST PUSH1 0x0 DUP1 PUSH1 0x40 DUP4 DUP6 SUB SLT ISZERO PUSH2 0x2B2C JUMPI DUP2 DUP3 REVERT JUMPDEST DUP3 CALLDATALOAD PUSH2 0x2B37 DUP2 PUSH2 0x329E JUMP JUMPDEST SWAP2 POP PUSH1 0x20 DUP4 ADD CALLDATALOAD DUP1 ISZERO ISZERO DUP2 EQ PUSH2 0x2A28 JUMPI DUP2 DUP3 REVERT JUMPDEST PUSH1 0x0 DUP1 PUSH1 0x40 DUP4 DUP6 SUB SLT ISZERO PUSH2 0x2B5D JUMPI DUP2 DUP3 REVERT JUMPDEST DUP3 CALLDATALOAD PUSH2 0x2B68 DUP2 PUSH2 0x329E JUMP JUMPDEST SWAP5 PUSH1 0x20 SWAP4 SWAP1 SWAP4 ADD CALLDATALOAD SWAP4 POP POP POP JUMP JUMPDEST PUSH1 0x0 DUP1 PUSH1 0x20 DUP4 DUP6 SUB SLT ISZERO PUSH2 0x2B88 JUMPI DUP2 DUP3 REVERT JUMPDEST DUP3 CALLDATALOAD PUSH8 0xFFFFFFFFFFFFFFFF DUP1 DUP3 GT ISZERO PUSH2 0x2B9F JUMPI DUP4 DUP5 REVERT JUMPDEST DUP2 DUP6 ADD SWAP2 POP DUP6 PUSH1 0x1F DUP4 ADD SLT PUSH2 0x2BB2 JUMPI DUP4 DUP5 REVERT JUMPDEST DUP2 CALLDATALOAD DUP2 DUP2 GT ISZERO PUSH2 0x2BC0 JUMPI DUP5 DUP6 REVERT JUMPDEST DUP7 PUSH1 0x20 DUP3 PUSH1 0x5 SHL DUP6 ADD ADD GT ISZERO PUSH2 0x2BD4 JUMPI DUP5 DUP6 REVERT JUMPDEST PUSH1 0x20 SWAP3 SWAP1 SWAP3 ADD SWAP7 SWAP2 SWAP6 POP SWAP1 SWAP4 POP POP POP POP JUMP JUMPDEST PUSH1 0x0 PUSH1 0x20 DUP3 DUP5 SUB SLT ISZERO PUSH2 0x2BF7 JUMPI DUP1 DUP2 REVERT JUMPDEST POP CALLDATALOAD SWAP2 SWAP1 POP JUMP JUMPDEST PUSH1 0x0 PUSH1 0x20 DUP3 DUP5 SUB SLT ISZERO PUSH2 0x2C0F JUMPI DUP1 DUP2 REVERT JUMPDEST DUP2 CALLDATALOAD PUSH2 0x2403 DUP2 PUSH2 0x32B3 JUMP JUMPDEST PUSH1 0x0 PUSH1 0x20 DUP3 DUP5 SUB SLT ISZERO PUSH2 0x2C2B JUMPI DUP1 DUP2 REVERT JUMPDEST DUP2 MLOAD PUSH2 0x2403 DUP2 PUSH2 0x32B3 JUMP JUMPDEST PUSH1 0x0 PUSH1 0x20 DUP3 DUP5 SUB SLT ISZERO PUSH2 0x2C47 JUMPI DUP1 DUP2 REVERT JUMPDEST DUP2 MLOAD PUSH8 0xFFFFFFFFFFFFFFFF DUP2 GT ISZERO PUSH2 0x2C5D JUMPI DUP2 DUP3 REVERT JUMPDEST DUP3 ADD PUSH1 0x1F DUP2 ADD DUP5 SGT PUSH2 0x2C6D JUMPI DUP2 DUP3 REVERT JUMPDEST DUP1 MLOAD PUSH2 0x2C7B PUSH2 0x2AE3 DUP3 PUSH2 0x3054 JUMP JUMPDEST DUP2 DUP2 MSTORE DUP6 PUSH1 0x20 DUP4 DUP6 ADD ADD GT ISZERO PUSH2 0x2C8F JUMPI DUP4 DUP5 REVERT JUMPDEST PUSH2 0x2CA0 DUP3 PUSH1 0x20 DUP4 ADD PUSH1 0x20 DUP7 ADD PUSH2 0x31AF JUMP JUMPDEST SWAP6 SWAP5 POP POP POP POP POP JUMP JUMPDEST PUSH1 0x0 DUP1 PUSH1 0x0 DUP1 PUSH1 0x0 PUSH1 0xA0 DUP7 DUP9 SUB SLT ISZERO PUSH2 0x2CC0 JUMPI DUP3 DUP4 REVERT JUMPDEST PUSH2 0x2CC9 DUP7 PUSH2 0x29A9 JUMP JUMPDEST SWAP5 POP PUSH1 0x20 DUP7 ADD MLOAD SWAP4 POP PUSH1 0x40 DUP7 ADD MLOAD SWAP3 POP PUSH1 0x60 DUP7 ADD MLOAD SWAP2 POP PUSH2 0x2CEC PUSH1 0x80 DUP8 ADD PUSH2 0x29A9 JUMP JUMPDEST SWAP1 POP SWAP3 SWAP6 POP SWAP3 SWAP6 SWAP1 SWAP4 POP JUMP JUMPDEST PUSH1 0x0 DUP2 MLOAD DUP1 DUP5 MSTORE PUSH2 0x2D10 DUP2 PUSH1 0x20 DUP7 ADD PUSH1 0x20 DUP7 ADD PUSH2 0x31AF JUMP JUMPDEST PUSH1 0x1F ADD PUSH1 0x1F NOT AND SWAP3 SWAP1 SWAP3 ADD PUSH1 0x20 ADD SWAP3 SWAP2 POP POP JUMP JUMPDEST PUSH1 0x0 DUP4 MLOAD PUSH2 0x2D36 DUP2 DUP5 PUSH1 0x20 DUP9 ADD PUSH2 0x31AF JUMP JUMPDEST DUP4 MLOAD SWAP1 DUP4 ADD SWAP1 PUSH2 0x2D4A DUP2 DUP4 PUSH1 0x20 DUP9 ADD PUSH2 0x31AF JUMP JUMPDEST ADD SWAP5 SWAP4 POP POP POP POP JUMP JUMPDEST PUSH1 0x1 PUSH1 0x1 PUSH1 0xA0 SHL SUB DUP6 DUP2 AND DUP3 MSTORE DUP5 AND PUSH1 0x20 DUP3 ADD MSTORE PUSH1 0x40 DUP2 ADD DUP4 SWAP1 MSTORE PUSH1 0x80 PUSH1 0x60 DUP3 ADD DUP2 SWAP1 MSTORE PUSH1 0x0 SWAP1 PUSH2 0x2D86 SWAP1 DUP4 ADD DUP5 PUSH2 0x2CF8 JUMP JUMPDEST SWAP7 SWAP6 POP POP POP POP POP POP JUMP JUMPDEST PUSH1 0x20 DUP1 DUP3 MSTORE DUP3 MLOAD DUP3 DUP3 ADD DUP2 SWAP1 MSTORE PUSH1 0x0 SWAP2 SWAP1 PUSH1 0x40 SWAP1 DUP2 DUP6 ADD SWAP1 DUP7 DUP5 ADD DUP6 JUMPDEST DUP3 DUP2 LT ISZERO PUSH2 0x2DF2 JUMPI DUP2 MLOAD DUP1 MLOAD PUSH1 0x1 PUSH1 0x1 PUSH1 0xA0 SHL SUB AND DUP6 MSTORE DUP7 DUP2 ADD MLOAD ISZERO ISZERO DUP8 DUP7 ADD MSTORE DUP6 DUP2 ADD MLOAD DUP7 DUP7 ADD MSTORE PUSH1 0x60 SWAP1 DUP2 ADD MLOAD SWAP1 DUP6 ADD MSTORE PUSH1 0x80 SWAP1 SWAP4 ADD SWAP3 SWAP1 DUP6 ADD SWAP1 PUSH1 0x1 ADD PUSH2 0x2DAD JUMP JUMPDEST POP SWAP2 SWAP8 SWAP7 POP POP POP POP POP POP POP JUMP JUMPDEST PUSH1 0x20 DUP1 DUP3 MSTORE DUP3 MLOAD DUP3 DUP3 ADD DUP2 SWAP1 MSTORE PUSH1 0x0 SWAP2 SWAP1 DUP5 DUP3 ADD SWAP1 PUSH1 0x40 DUP6 ADD SWAP1 DUP5 JUMPDEST DUP2 DUP2 LT ISZERO PUSH2 0x2E37 JUMPI DUP4 MLOAD DUP4 MSTORE SWAP3 DUP5 ADD SWAP3 SWAP2 DUP5 ADD SWAP2 PUSH1 0x1 ADD PUSH2 0x2E1B JUMP JUMPDEST POP SWAP1 SWAP7 SWAP6 POP POP POP POP POP POP JUMP JUMPDEST PUSH1 0x0 PUSH1 0x20 DUP3 MSTORE PUSH2 0x2403 PUSH1 0x20 DUP4 ADD DUP5 PUSH2 0x2CF8 JUMP JUMPDEST PUSH1 0x20 DUP1 DUP3 MSTORE PUSH1 0x2C SWAP1 DUP3 ADD MSTORE PUSH32 0x41524D593A20636F6D6D616E64657220717565727920666F72206E6F6E657869 PUSH1 0x40 DUP3 ADD MSTORE PUSH12 0x39BA32B73A1036B4B734B7B7 PUSH1 0xA1 SHL PUSH1 0x60 DUP3 ADD MSTORE PUSH1 0x80 ADD SWAP1 JUMP JUMPDEST PUSH1 0x20 DUP1 DUP3 MSTORE PUSH1 0x32 SWAP1 DUP3 ADD MSTORE PUSH32 0x4552433732313A207472616E7366657220746F206E6F6E204552433732315265 PUSH1 0x40 DUP3 ADD MSTORE PUSH18 0x31B2B4BB32B91034B6B83632B6B2B73A32B9 PUSH1 0x71 SHL PUSH1 0x60 DUP3 ADD MSTORE PUSH1 0x80 ADD SWAP1 JUMP JUMPDEST PUSH1 0x20 DUP1 DUP3 MSTORE PUSH1 0x28 SWAP1 DUP3 ADD MSTORE PUSH32 0x41524D593A20636F6D6D616E6465722063616E277420636F6D6D616E64207468 PUSH1 0x40 DUP3 ADD MSTORE PUSH8 0x329036B4B734B7B7 PUSH1 0xC1 SHL PUSH1 0x60 DUP3 ADD MSTORE PUSH1 0x80 ADD SWAP1 JUMP JUMPDEST PUSH1 0x20 DUP1 DUP3 MSTORE PUSH1 0x31 SWAP1 DUP3 ADD MSTORE PUSH32 0x4552433732313A207472616E736665722063616C6C6572206973206E6F74206F PUSH1 0x40 DUP3 ADD MSTORE PUSH17 0x1DDB995C881B9BDC88185C1C1C9BDD9959 PUSH1 0x7A SHL PUSH1 0x60 DUP3 ADD MSTORE PUSH1 0x80 ADD SWAP1 JUMP JUMPDEST PUSH1 0x20 DUP1 DUP3 MSTORE PUSH1 0x29 SWAP1 DUP3 ADD MSTORE PUSH32 0x41524D593A206D696E696F6E20697320616C726561647920696E20747261696E PUSH1 0x40 DUP3 ADD MSTORE PUSH9 0x696E67207374617465 PUSH1 0xB8 SHL PUSH1 0x60 DUP3 ADD MSTORE PUSH1 0x80 ADD SWAP1 JUMP JUMPDEST PUSH1 0x0 PUSH1 0x20 DUP3 MSTORE PUSH1 0x1 DUP1 PUSH1 0xA0 SHL SUB DUP4 MLOAD AND PUSH1 0x20 DUP4 ADD MSTORE PUSH1 0x20 DUP4 ADD MLOAD ISZERO ISZERO PUSH1 0x40 DUP4 ADD MSTORE PUSH1 0x40 DUP4 ADD MLOAD PUSH1 0x60 DUP4 ADD MSTORE PUSH1 0x60 DUP4 ADD MLOAD PUSH1 0x80 DUP4 ADD MSTORE PUSH1 0x80 DUP4 ADD MLOAD PUSH1 0xA0 DUP1 DUP5 ADD MSTORE PUSH2 0x1EEE PUSH1 0xC0 DUP5 ADD DUP3 PUSH2 0x2CF8 JUMP JUMPDEST PUSH1 0x40 MLOAD PUSH1 0x1F DUP3 ADD PUSH1 0x1F NOT AND DUP2 ADD PUSH8 0xFFFFFFFFFFFFFFFF DUP2 GT DUP3 DUP3 LT OR ISZERO PUSH2 0x304C JUMPI PUSH2 0x304C PUSH2 0x3288 JUMP JUMPDEST PUSH1 0x40 MSTORE SWAP2 SWAP1 POP JUMP JUMPDEST PUSH1 0x0 PUSH8 0xFFFFFFFFFFFFFFFF DUP3 GT ISZERO PUSH2 0x306E JUMPI PUSH2 0x306E PUSH2 0x3288 JUMP JUMPDEST POP PUSH1 0x1F ADD PUSH1 0x1F NOT AND PUSH1 0x20 ADD SWAP1 JUMP JUMPDEST PUSH1 0x0 DUP3 NOT DUP3 GT ISZERO PUSH2 0x308F JUMPI PUSH2 0x308F PUSH2 0x325C JUMP JUMPDEST POP ADD SWAP1 JUMP JUMPDEST PUSH1 0x0 DUP3 PUSH2 0x30A3 JUMPI PUSH2 0x30A3 PUSH2 0x3272 JUMP JUMPDEST PUSH1 0x1 PUSH1 0xFF SHL DUP3 EQ PUSH1 0x0 NOT DUP5 EQ AND ISZERO PUSH2 0x30BD JUMPI PUSH2 0x30BD PUSH2 0x325C JUMP JUMPDEST POP SDIV SWAP1 JUMP JUMPDEST PUSH1 0x0 DUP3 PUSH2 0x30D1 JUMPI PUSH2 0x30D1 PUSH2 0x3272 JUMP JUMPDEST POP DIV SWAP1 JUMP JUMPDEST PUSH1 0x0 PUSH1 0x1 PUSH1 0x1 PUSH1 0xFF SHL SUB DUP2 DUP5 SGT DUP3 DUP5 SGT DUP1 DUP3 AND DUP7 DUP5 DIV DUP7 GT AND ISZERO PUSH2 0x30FC JUMPI PUSH2 0x30FC PUSH2 0x325C JUMP JUMPDEST PUSH1 0x1 PUSH1 0xFF SHL DUP5 DUP8 SLT DUP3 DUP2 AND DUP8 DUP4 SDIV DUP10 SLT AND ISZERO PUSH2 0x311A JUMPI PUSH2 0x311A PUSH2 0x325C JUMP JUMPDEST DUP6 DUP8 SLT SWAP3 POP DUP8 DUP3 SDIV DUP8 SLT DUP5 DUP5 AND AND ISZERO PUSH2 0x3135 JUMPI PUSH2 0x3135 PUSH2 0x325C JUMP JUMPDEST DUP8 DUP6 SDIV DUP8 SLT DUP2 DUP5 AND AND ISZERO PUSH2 0x314B JUMPI PUSH2 0x314B PUSH2 0x325C JUMP JUMPDEST POP POP POP SWAP3 SWAP1 SWAP4 MUL SWAP4 SWAP3 POP POP POP JUMP JUMPDEST PUSH1 0x0 DUP1 DUP4 SLT DUP1 ISZERO PUSH1 0x1 PUSH1 0xFF SHL DUP6 ADD DUP5 SLT AND ISZERO PUSH2 0x3177 JUMPI PUSH2 0x3177 PUSH2 0x325C JUMP JUMPDEST PUSH1 0x1 PUSH1 0x1 PUSH1 0xFF SHL SUB DUP5 ADD DUP4 SGT DUP2 AND ISZERO PUSH2 0x3192 JUMPI PUSH2 0x3192 PUSH2 0x325C JUMP JUMPDEST POP POP SUB SWAP1 JUMP JUMPDEST PUSH1 0x0 DUP3 DUP3 LT ISZERO PUSH2 0x31AA JUMPI PUSH2 0x31AA PUSH2 0x325C JUMP JUMPDEST POP SUB SWAP1 JUMP JUMPDEST PUSH1 0x0 JUMPDEST DUP4 DUP2 LT ISZERO PUSH2 0x31CA JUMPI DUP2 DUP2 ADD MLOAD DUP4 DUP3 ADD MSTORE PUSH1 0x20 ADD PUSH2 0x31B2 JUMP JUMPDEST DUP4 DUP2 GT ISZERO PUSH2 0x13B7 JUMPI POP POP PUSH1 0x0 SWAP2 ADD MSTORE JUMP JUMPDEST PUSH1 0x0 DUP2 PUSH2 0x31EA JUMPI PUSH2 0x31EA PUSH2 0x325C JUMP JUMPDEST POP PUSH1 0x0 NOT ADD SWAP1 JUMP JUMPDEST PUSH1 0x1 DUP2 DUP2 SHR SWAP1 DUP3 AND DUP1 PUSH2 0x3206 JUMPI PUSH1 0x7F DUP3 AND SWAP2 POP JUMPDEST PUSH1 0x20 DUP3 LT DUP2 EQ ISZERO PUSH2 0x3227 JUMPI PUSH4 0x4E487B71 PUSH1 0xE0 SHL PUSH1 0x0 MSTORE PUSH1 0x22 PUSH1 0x4 MSTORE PUSH1 0x24 PUSH1 0x0 REVERT JUMPDEST POP SWAP2 SWAP1 POP JUMP JUMPDEST PUSH1 0x0 PUSH1 0x0 NOT DUP3 EQ ISZERO PUSH2 0x3241 JUMPI PUSH2 0x3241 PUSH2 0x325C JUMP JUMPDEST POP PUSH1 0x1 ADD SWAP1 JUMP JUMPDEST PUSH1 0x0 DUP3 PUSH2 0x3257 JUMPI PUSH2 0x3257 PUSH2 0x3272 JUMP JUMPDEST POP MOD SWAP1 JUMP JUMPDEST PUSH4 0x4E487B71 PUSH1 0xE0 SHL PUSH1 0x0 MSTORE PUSH1 0x11 PUSH1 0x4 MSTORE PUSH1 0x24 PUSH1 0x0 REVERT JUMPDEST PUSH4 0x4E487B71 PUSH1 0xE0 SHL PUSH1 0x0 MSTORE PUSH1 0x12 PUSH1 0x4 MSTORE PUSH1 0x24 PUSH1 0x0 REVERT JUMPDEST PUSH4 0x4E487B71 PUSH1 0xE0 SHL PUSH1 0x0 MSTORE PUSH1 0x41 PUSH1 0x4 MSTORE PUSH1 0x24 PUSH1 0x0 REVERT JUMPDEST PUSH1 0x1 PUSH1 0x1 PUSH1 0xA0 SHL SUB DUP2 AND DUP2 EQ PUSH2 0x2161 JUMPI PUSH1 0x0 DUP1 REVERT JUMPDEST PUSH1 0x1 PUSH1 0x1 PUSH1 0xE0 SHL SUB NOT DUP2 AND DUP2 EQ PUSH2 0x2161 JUMPI PUSH1 0x0 DUP1 REVERT INVALID SDIV 0xCF DUP13 0xE0 PUSH9 0xBD8F8C0E2CFD6182AF CALLCODE 0xBC DUP1 REVERT 0xFB 0xBF SDIV LOG0 0xA7 0xEE PUSH17 0xF867DC2CECDB0EA2646970667358221220 MULMOD 0xAA MUL 0xAC 0xCC SELFBALANCE 0xDE 0x27 PUSH4 0x130E5F55 INVALID 0xBF DUP15 PUSH6 0xBD9FCC7797F7 SWAP4 XOR SWAP5 0x2D DUP14 0xEA SIGNEXTEND PUSH7 0x2E64736F6C6343 STOP ADDMOD SUB STOP CALLER ",
  "sha1": "5043b02ff9cc4eb9d3d3b7791fc7b699b4dc4baa",
  "source": "// SPDX-License-Identifier: MIT\npragma solidity ^0.8.0;\n\nimport \"./ArmyBase.sol\";\n\n/**\n * @title Fauna Army, which grows in bearish market\n * @notice ERC721 token cultivated by predicting market price (using Chainlink oracle)\n * @author Justa Liang\n */\ncontract FaunaArmy is ArmyBase {\n\n    /**\n     * @dev Set name, symbol, and addresses of interactive contracts\n     * @param ensRegistryAddr Address of ENS Registry\n    */\n    constructor(address ensRegistryAddr, uint initEnhancer,\n                int[5] memory powerLevels, string[5] memory jsonNames) \n        ArmyBase(ensRegistryAddr)\n        ERC721(\"FaunaArmy\", \"FaunA\")\n    {\n        enhancerContract = ENHR(address(new ArmyEnhancer(\"Hemoglobin\", \"HGB\")));\n        enhancerContract.produce(msg.sender, initEnhancer);\n        rankContract = RANK(address(new ArmyRank(powerLevels, jsonNames)));\n        rankContract.transferOwnership(msg.sender);\n    }\n\n    /**\n     * @notice Train a minion and update the environment factor\n     * @param minionID ID of the minion\n    */\n    function train(uint minionID) external override checkCommander(minionID) {\n        Minion storage target = minions[minionID];\n        require(\n            target.armed,\n            \"ARMY: minion is already in training state\");\n\n        // get current price\n        AggregatorV3Interface pricefeed = AggregatorV3Interface(target.branchAddr);\n        (,int currPrice,,,) = pricefeed.latestRoundData();\n\n        // update on-chain data\n        target.envFactor = currPrice;\n        target.armed = false;\n\n        // emit minion state\n        emit MinionState(minionID, target.branchAddr, false, currPrice, target.power);\n    }\n\n    /**\n     * @notice Arm a minion and update its power\n     * @param minionID ID of the minion\n    */\n    function arm(uint minionID) external override checkCommander(minionID) {\n        Minion storage target = minions[minionID];\n        require(\n            !target.armed,\n            \"ARMY: minion is already armed\");\n\n        // get current price\n        AggregatorV3Interface pricefeed = AggregatorV3Interface(target.branchAddr);\n        (,int currPrice,,,) = pricefeed.latestRoundData();\n\n        // update on-chain data\n        target.power = ((target.envFactor << 16)/currPrice*target.power) >> 16;\n        target.envFactor = currPrice;\n        target.armed = true;\n\n        // emit minion state\n        emit MinionState(minionID, target.branchAddr, true, currPrice, target.power);\n    }\n\n    /**\n     * @notice Use Hemoglobin to stimulate an armed minion to catch up with training\n     * @dev Commander cost Hemoglobin\n     * @param minionID ID of the minion\n    */\n    function boost(uint minionID) external override checkCommander(minionID) {\n        Minion storage target = minions[minionID];\n        require(\n            target.armed,\n            \"ARMY: minion is already in training state\");\n\n        // get current price\n        AggregatorV3Interface pricefeed = AggregatorV3Interface(target.branchAddr);\n        (,int currPrice,,,) = pricefeed.latestRoundData();\n\n        // change state\n        if (currPrice < target.envFactor) {\n             enhancerContract.consume(msg.sender, uint(((target.envFactor << 16)/currPrice*target.power) >> 16));\n        }\n        target.armed = false;\n\n        // emit minion state\n        emit MinionState(minionID, target.branchAddr, false, target.envFactor, target.power);\n    }\n\n    /**\n     * @notice Use Hemoglobin to heal a minion who suffer from negative training\n     * @dev Commander cost Hemoglobin\n     * @param minionID ID of the minion\n    */\n    function heal(uint minionID) external override checkCommander(minionID) {\n        Minion storage target = minions[minionID];\n        require(\n            !target.armed,\n            \"ARMY: minion is not in training state\");\n\n        // get current price\n        AggregatorV3Interface pricefeed = AggregatorV3Interface(target.branchAddr);\n        (,int currPrice,,,) = pricefeed.latestRoundData();\n\n        // change state\n        if (currPrice > target.envFactor) {\n            enhancerContract.consume(msg.sender, uint(((currPrice << 16)/target.envFactor*target.power) >> 16));\n        }\n        target.armed = true;\n\n        // emit minion state\n        emit MinionState(minionID, target.branchAddr, true, target.envFactor, target.power);\n    }\n}",
  "sourcePath": "contracts/FaunaArmy.sol",
  "type": "contract"
}