{
  "abi": [
    {
      "inputs": [
        {
          "internalType": "address",
          "name": "ensRegistryAddr",
          "type": "address"
        },
        {
          "internalType": "uint256",
          "name": "initEnhancer",
          "type": "uint256"
        },
        {
          "internalType": "int256[5]",
          "name": "powerLevels",
          "type": "int256[5]"
        },
        {
          "internalType": "string[5]",
          "name": "jsonNames",
          "type": "string[5]"
        }
      ],
      "stateMutability": "nonpayable",
      "type": "constructor"
    },
    {
      "anonymous": false,
      "inputs": [
        {
          "indexed": true,
          "internalType": "address",
          "name": "owner",
          "type": "address"
        },
        {
          "indexed": true,
          "internalType": "address",
          "name": "approved",
          "type": "address"
        },
        {
          "indexed": true,
          "internalType": "uint256",
          "name": "tokenId",
          "type": "uint256"
        }
      ],
      "name": "Approval",
      "type": "event"
    },
    {
      "anonymous": false,
      "inputs": [
        {
          "indexed": true,
          "internalType": "address",
          "name": "owner",
          "type": "address"
        },
        {
          "indexed": true,
          "internalType": "address",
          "name": "operator",
          "type": "address"
        },
        {
          "indexed": false,
          "internalType": "bool",
          "name": "approved",
          "type": "bool"
        }
      ],
      "name": "ApprovalForAll",
      "type": "event"
    },
    {
      "anonymous": false,
      "inputs": [
        {
          "indexed": true,
          "internalType": "uint256",
          "name": "minionID",
          "type": "uint256"
        },
        {
          "indexed": true,
          "internalType": "address",
          "name": "branchAddress",
          "type": "address"
        },
        {
          "indexed": true,
          "internalType": "bool",
          "name": "armed",
          "type": "bool"
        },
        {
          "indexed": false,
          "internalType": "int256",
          "name": "environmentFactor",
          "type": "int256"
        },
        {
          "indexed": false,
          "internalType": "int256",
          "name": "power",
          "type": "int256"
        }
      ],
      "name": "MinionState",
      "type": "event"
    },
    {
      "anonymous": false,
      "inputs": [
        {
          "indexed": true,
          "internalType": "address",
          "name": "from",
          "type": "address"
        },
        {
          "indexed": true,
          "internalType": "address",
          "name": "to",
          "type": "address"
        },
        {
          "indexed": true,
          "internalType": "uint256",
          "name": "tokenId",
          "type": "uint256"
        }
      ],
      "name": "Transfer",
      "type": "event"
    },
    {
      "inputs": [
        {
          "internalType": "address",
          "name": "to",
          "type": "address"
        },
        {
          "internalType": "uint256",
          "name": "tokenId",
          "type": "uint256"
        }
      ],
      "name": "approve",
      "outputs": [],
      "stateMutability": "nonpayable",
      "type": "function"
    },
    {
      "inputs": [
        {
          "internalType": "uint256",
          "name": "minionID",
          "type": "uint256"
        }
      ],
      "name": "arm",
      "outputs": [],
      "stateMutability": "nonpayable",
      "type": "function"
    },
    {
      "inputs": [
        {
          "internalType": "address",
          "name": "owner",
          "type": "address"
        }
      ],
      "name": "balanceOf",
      "outputs": [
        {
          "internalType": "uint256",
          "name": "",
          "type": "uint256"
        }
      ],
      "stateMutability": "view",
      "type": "function"
    },
    {
      "inputs": [
        {
          "internalType": "uint256",
          "name": "minionID",
          "type": "uint256"
        }
      ],
      "name": "boost",
      "outputs": [],
      "stateMutability": "nonpayable",
      "type": "function"
    },
    {
      "inputs": [],
      "name": "enhancerContract",
      "outputs": [
        {
          "internalType": "contract ENHR",
          "name": "",
          "type": "address"
        }
      ],
      "stateMutability": "view",
      "type": "function"
    },
    {
      "inputs": [
        {
          "internalType": "uint256",
          "name": "tokenId",
          "type": "uint256"
        }
      ],
      "name": "getApproved",
      "outputs": [
        {
          "internalType": "address",
          "name": "",
          "type": "address"
        }
      ],
      "stateMutability": "view",
      "type": "function"
    },
    {
      "inputs": [
        {
          "internalType": "address",
          "name": "commander",
          "type": "address"
        }
      ],
      "name": "getMinionIDs",
      "outputs": [
        {
          "internalType": "uint256[]",
          "name": "",
          "type": "uint256[]"
        }
      ],
      "stateMutability": "view",
      "type": "function"
    },
    {
      "inputs": [
        {
          "internalType": "uint256",
          "name": "minionID",
          "type": "uint256"
        }
      ],
      "name": "getMinionInfo",
      "outputs": [
        {
          "internalType": "address",
          "name": "",
          "type": "address"
        },
        {
          "internalType": "bool",
          "name": "",
          "type": "bool"
        },
        {
          "internalType": "int256",
          "name": "",
          "type": "int256"
        },
        {
          "internalType": "int256",
          "name": "",
          "type": "int256"
        }
      ],
      "stateMutability": "view",
      "type": "function"
    },
    {
      "inputs": [
        {
          "internalType": "uint256",
          "name": "minionID",
          "type": "uint256"
        }
      ],
      "name": "grant",
      "outputs": [],
      "stateMutability": "nonpayable",
      "type": "function"
    },
    {
      "inputs": [
        {
          "internalType": "uint256",
          "name": "minionID",
          "type": "uint256"
        }
      ],
      "name": "heal",
      "outputs": [],
      "stateMutability": "nonpayable",
      "type": "function"
    },
    {
      "inputs": [
        {
          "internalType": "address",
          "name": "owner",
          "type": "address"
        },
        {
          "internalType": "address",
          "name": "operator",
          "type": "address"
        }
      ],
      "name": "isApprovedForAll",
      "outputs": [
        {
          "internalType": "bool",
          "name": "",
          "type": "bool"
        }
      ],
      "stateMutability": "view",
      "type": "function"
    },
    {
      "inputs": [
        {
          "internalType": "uint256",
          "name": "minionID",
          "type": "uint256"
        }
      ],
      "name": "liberate",
      "outputs": [],
      "stateMutability": "nonpayable",
      "type": "function"
    },
    {
      "inputs": [],
      "name": "name",
      "outputs": [
        {
          "internalType": "string",
          "name": "",
          "type": "string"
        }
      ],
      "stateMutability": "view",
      "type": "function"
    },
    {
      "inputs": [
        {
          "internalType": "uint256",
          "name": "tokenId",
          "type": "uint256"
        }
      ],
      "name": "ownerOf",
      "outputs": [
        {
          "internalType": "address",
          "name": "",
          "type": "address"
        }
      ],
      "stateMutability": "view",
      "type": "function"
    },
    {
      "inputs": [],
      "name": "rankContract",
      "outputs": [
        {
          "internalType": "contract RANK",
          "name": "",
          "type": "address"
        }
      ],
      "stateMutability": "view",
      "type": "function"
    },
    {
      "inputs": [
        {
          "internalType": "bytes32",
          "name": "branchHash",
          "type": "bytes32"
        }
      ],
      "name": "recruit",
      "outputs": [
        {
          "internalType": "uint256",
          "name": "",
          "type": "uint256"
        }
      ],
      "stateMutability": "nonpayable",
      "type": "function"
    },
    {
      "inputs": [
        {
          "internalType": "address",
          "name": "from",
          "type": "address"
        },
        {
          "internalType": "address",
          "name": "to",
          "type": "address"
        },
        {
          "internalType": "uint256",
          "name": "tokenId",
          "type": "uint256"
        }
      ],
      "name": "safeTransferFrom",
      "outputs": [],
      "stateMutability": "nonpayable",
      "type": "function"
    },
    {
      "inputs": [
        {
          "internalType": "address",
          "name": "from",
          "type": "address"
        },
        {
          "internalType": "address",
          "name": "to",
          "type": "address"
        },
        {
          "internalType": "uint256",
          "name": "tokenId",
          "type": "uint256"
        },
        {
          "internalType": "bytes",
          "name": "_data",
          "type": "bytes"
        }
      ],
      "name": "safeTransferFrom",
      "outputs": [],
      "stateMutability": "nonpayable",
      "type": "function"
    },
    {
      "inputs": [],
      "name": "serialNumber",
      "outputs": [
        {
          "internalType": "uint256",
          "name": "",
          "type": "uint256"
        }
      ],
      "stateMutability": "view",
      "type": "function"
    },
    {
      "inputs": [
        {
          "internalType": "address",
          "name": "operator",
          "type": "address"
        },
        {
          "internalType": "bool",
          "name": "approved",
          "type": "bool"
        }
      ],
      "name": "setApprovalForAll",
      "outputs": [],
      "stateMutability": "nonpayable",
      "type": "function"
    },
    {
      "inputs": [
        {
          "internalType": "bytes4",
          "name": "interfaceId",
          "type": "bytes4"
        }
      ],
      "name": "supportsInterface",
      "outputs": [
        {
          "internalType": "bool",
          "name": "",
          "type": "bool"
        }
      ],
      "stateMutability": "view",
      "type": "function"
    },
    {
      "inputs": [],
      "name": "symbol",
      "outputs": [
        {
          "internalType": "string",
          "name": "",
          "type": "string"
        }
      ],
      "stateMutability": "view",
      "type": "function"
    },
    {
      "inputs": [
        {
          "internalType": "uint256",
          "name": "minionID",
          "type": "uint256"
        }
      ],
      "name": "tokenURI",
      "outputs": [
        {
          "internalType": "string",
          "name": "",
          "type": "string"
        }
      ],
      "stateMutability": "view",
      "type": "function"
    },
    {
      "inputs": [
        {
          "internalType": "uint256",
          "name": "minionID",
          "type": "uint256"
        }
      ],
      "name": "train",
      "outputs": [],
      "stateMutability": "nonpayable",
      "type": "function"
    },
    {
      "inputs": [
        {
          "internalType": "address",
          "name": "from",
          "type": "address"
        },
        {
          "internalType": "address",
          "name": "to",
          "type": "address"
        },
        {
          "internalType": "uint256",
          "name": "tokenId",
          "type": "uint256"
        }
      ],
      "name": "transferFrom",
      "outputs": [],
      "stateMutability": "nonpayable",
      "type": "function"
    }
  ],
  "bytecode": "60806040523480156200001157600080fd5b506040516200546b3803806200546b8339810160408190526200003491620003de565b604080518082018252600a815269466c6f72612041726d7960b01b602080830191825283518085019094526005845264466c6f724160d81b9084015281518793916200008491600091906200025b565b5080516200009a9060019060208401906200025b565b50506000600955506103e8600a55600b80546001600160a01b0319166001600160a01b0392909216919091179055604051620000d690620002ea565b6040808252600b908201526a10da1b1bdc9bdc1a1e5b1b60aa1b60608201526080602082018190526003908201526210d21360ea1b60a082015260c001604051809103906000f08015801562000130573d6000803e3d6000fd5b50600780546001600160a01b0319166001600160a01b03929092169182179055604051633365086560e11b8152336004820152602481018590526366ca10ca90604401600060405180830381600087803b1580156200018e57600080fd5b505af1158015620001a3573d6000803e3d6000fd5b505050508181604051620001b790620002f8565b620001c4929190620004a8565b604051809103906000f080158015620001e1573d6000803e3d6000fd5b50600880546001600160a01b0319166001600160a01b0392909216918217905560405163f2fde38b60e01b815233600482015263f2fde38b90602401600060405180830381600087803b1580156200023857600080fd5b505af11580156200024d573d6000803e3d6000fd5b50505050505050506200061f565b8280546200026990620005cc565b90600052602060002090601f0160209004810192826200028d5760008555620002d8565b82601f10620002a857805160ff1916838001178555620002d8565b82800160010185558215620002d8579182015b82811115620002d8578251825591602001919060010190620002bb565b50620002e692915062000306565b5090565b61122680620032b683390190565b610f8f80620044dc83390190565b5b80821115620002e6576000815560010162000307565b6000601f83818401126200032f578182fd5b600562000346620003408262000576565b62000543565b8085855b84811015620003d15781518801898782011262000365578788fd5b805160206001600160401b0382111562000383576200038362000609565b62000396828a01601f1916820162000543565b8281528c82848601011115620003aa578a8bfd5b620003bb8383830184870162000599565b875295860195939093019250506001016200034a565b5090979650505050505050565b6000806000806101008587031215620003f5578384fd5b84516001600160a01b03811681146200040c578485fd5b80945050602080860151935086605f87011262000427578283fd5b600562000438620003408262000576565b806040890160e08a018b8111156200044e578788fd5b875b858110156200046e5782518552938601939186019160010162000450565b505191965090935050506001600160401b0382111590506200048e578182fd5b6200049c878288016200031d565b91505092959194509250565b600060c082018285835b6005811015620004d3578151835260209283019290910190600101620004b2565b505060c060a08501525061016083019084835b6005811015620005375785840360bf19018352815180518086526020620005138282890183860162000599565b601f91909101601f19169590950185019493840193929092019150600101620004e6565b50919695505050505050565b604051601f8201601f191681016001600160401b03811182821017156200056e576200056e62000609565b604052919050565b60006001600160401b0382111562000592576200059262000609565b5060051b90565b60005b83811015620005b65781810151838201526020016200059c565b83811115620005c6576000848401525b50505050565b600181811c90821680620005e157607f821691505b602082108114156200060357634e487b7160e01b600052602260045260246000fd5b50919050565b634e487b7160e01b600052604160045260246000fd5b612c87806200062f6000396000f3fe608060405234801561001057600080fd5b50600436106101735760003560e01c806370a08231116100de578063b88d4fde11610097578063e985e9c511610071578063e985e9c514610368578063f37ac61c146103a4578063f8543f00146103b7578063fccc6623146103ca57610173565b8063b88d4fde14610305578063c87b56dd14610318578063df069b111461032b57610173565b806370a08231146102915780637fb7ce86146102a45780638c7a774a146102c457806395d89b41146102d7578063a22cb465146102df578063b5b0d782146102f257610173565b806320c69c891161013057806320c69c891461021b57806323b872dd1461022e5780632a0daeea14610241578063368004ed1461025857806342842e0e1461026b5780636352211e1461027e57610173565b806301ffc9a71461017857806306fdde03146101a0578063081812fc146101b5578063095ea7b3146101e0578063160e3f3d146101f55780631b55d19e14610208575b600080fd5b61018b610186366004612639565b6103dd565b60405190151581526020015b60405180910390f35b6101a8610431565b604051610197919061280f565b6101c86101c3366004612621565b6104c3565b6040516001600160a01b039091168152602001610197565b6101f36101ee3660046125f6565b610550565b005b6101f3610203366004612621565b610666565b6101f3610216366004612621565b610792565b6101f3610229366004612621565b61099b565b6101f361023c3660046124de565b610b55565b61024a60095481565b604051908152602001610197565b6101f3610266366004612621565b610b86565b6101f36102793660046124de565b610ce1565b6101c861028c366004612621565b610cfc565b61024a61029f36600461246e565b610d73565b6102b76102b236600461246e565b610dfa565b60405161019791906127cb565b6101f36102d2366004612621565b610ef3565b6101a86110ad565b6101f36102ed3660046125c5565b6110bc565b6007546101c8906001600160a01b031681565b6101f361031336600461251e565b61118e565b6101a8610326366004612621565b6111c6565b61033e610339366004612621565b611318565b604080516001600160a01b0390951685529215156020850152918301526060820152608001610197565b61018b6103763660046124a6565b6001600160a01b03918216600090815260056020908152604080832093909416825291909152205460ff1690565b6101f36103b2366004612621565b6113cd565b6008546101c8906001600160a01b031681565b61024a6103d8366004612621565b611611565b60006001600160e01b031982166380ac58cd60e01b148061040e57506001600160e01b03198216635b5e139f60e01b145b8061042957506301ffc9a760e01b6001600160e01b03198316145b90505b919050565b60606000805461044090612b5a565b80601f016020809104026020016040519081016040528092919081815260200182805461046c90612b5a565b80156104b95780601f1061048e576101008083540402835291602001916104b9565b820191906000526020600020905b81548152906001019060200180831161049c57829003601f168201915b5050505050905090565b60006104ce8261182c565b6105345760405162461bcd60e51b815260206004820152602c60248201527f4552433732313a20617070726f76656420717565727920666f72206e6f6e657860448201526b34b9ba32b73a103a37b5b2b760a11b60648201526084015b60405180910390fd5b506000908152600460205260409020546001600160a01b031690565b600061055b82610cfc565b9050806001600160a01b0316836001600160a01b031614156105c95760405162461bcd60e51b815260206004820152602160248201527f4552433732313a20617070726f76616c20746f2063757272656e74206f776e656044820152603960f91b606482015260840161052b565b336001600160a01b03821614806105e557506105e58133610376565b6106575760405162461bcd60e51b815260206004820152603860248201527f4552433732313a20617070726f76652063616c6c6572206973206e6f74206f7760448201527f6e6572206e6f7220617070726f76656420666f7220616c6c0000000000000000606482015260840161052b565b6106618383611849565b505050565b8061067133826118b7565b61068d5760405162461bcd60e51b815260040161052b906128c0565b6000600c83815481106106b057634e487b7160e01b600052603260045260246000fd5b60009182526020918290206040805160808101825260039390930290910180546001600160a01b03808216808652600160a01b90920460ff16151595850195909552600182015484840152600290910154606084018190526008549251635e104a8b60e11b81526004810192909252602482015291935061066192869291169063bc2095169060440160006040518083038186803b15801561075157600080fd5b505afa158015610765573d6000803e3d6000fd5b505050506040513d6000823e601f3d908101601f1916820160405261078d9190810190612671565b6119a1565b8061079d33826118b7565b6107b95760405162461bcd60e51b815260040161052b906128c0565b6000600c83815481106107dc57634e487b7160e01b600052603260045260246000fd5b600091825260209091206003909102018054909150600160a01b900460ff166108175760405162461bcd60e51b815260040161052b90612959565b805460408051633fabe5a360e21b815290516001600160a01b0390921691600091839163feaf968c9160048082019260a092909190829003018186803b15801561086057600080fd5b505afa158015610874573d6000803e3d6000fd5b505050506040513d601f19601f8201168201806040525081019061089891906126e4565b505050915050826001015481131561094657600754600284015460018501546001600160a01b039092169163224b5c72913391601091906108db9087841b612a13565b6108e59190612a55565b6040516001600160e01b031960e086901b1681526001600160a01b039093166004840152901d6024820152604401600060405180830381600087803b15801561092d57600080fd5b505af1158015610941573d6000803e3d6000fd5b505050505b825460ff60a01b1981168455600184015460028501546040805192835260208301919091526000926001600160a01b0316918891600080516020612c3283398151915291015b60405180910390a45050505050565b806109a633826118b7565b6109c25760405162461bcd60e51b815260040161052b906128c0565b6000600c83815481106109e557634e487b7160e01b600052603260045260246000fd5b600091825260209091206003909102018054909150600160a01b900460ff1615610a515760405162461bcd60e51b815260206004820152601d60248201527f41524d593a206d696e696f6e20697320616c72656164792061726d6564000000604482015260640161052b565b805460408051633fabe5a360e21b815290516001600160a01b0390921691600091839163feaf968c9160048082019260a092909190829003018186803b158015610a9a57600080fd5b505afa158015610aae573d6000803e3d6000fd5b505050506040513d601f19601f82011682018060405250810190610ad291906126e4565b505050915050601083600201548460010154601084901b610af39190612a13565b610afd9190612a55565b901d600284018190556001808501839055845460ff60a01b198116600160a01b17865560405191926001600160a01b03909116918891600080516020612c328339815191529161098c91878252602082015260400190565b610b5f33826118b7565b610b7b5760405162461bcd60e51b815260040161052b90612908565b610661838383611a2c565b80610b9133826118b7565b610bad5760405162461bcd60e51b815260040161052b906128c0565b6000600c8381548110610bd057634e487b7160e01b600052603260045260246000fd5b600091825260209091206003909102018054909150600160a01b900460ff16610c0b5760405162461bcd60e51b815260040161052b90612959565b805460408051633fabe5a360e21b815290516001600160a01b0390921691600091839163feaf968c9160048082019260a092909190829003018186803b158015610c5457600080fd5b505afa158015610c68573d6000803e3d6000fd5b505050506040513d601f19601f82011682018060405250810190610c8c91906126e4565b50505060018501819055845460ff60a01b19811686556002860154604051929450600093506001600160a01b03909116918891600080516020612c328339815191529161098c91878252602082015260400190565b6106618383836040518060200160405280600081525061118e565b6000818152600260205260408120546001600160a01b0316806104295760405162461bcd60e51b815260206004820152602960248201527f4552433732313a206f776e657220717565727920666f72206e6f6e657869737460448201526832b73a103a37b5b2b760b91b606482015260840161052b565b60006001600160a01b038216610dde5760405162461bcd60e51b815260206004820152602a60248201527f4552433732313a2062616c616e636520717565727920666f7220746865207a65604482015269726f206164647265737360b01b606482015260840161052b565b506001600160a01b031660009081526003602052604090205490565b60606000610e0783610d73565b905060008167ffffffffffffffff811115610e3257634e487b7160e01b600052604160045260246000fd5b604051908082528060200260200182016040528015610e5b578160200160208202803683370190505b5090506000805b83821015610ee957610e738161182c565b8015610e985750856001600160a01b0316610e8d82610cfc565b6001600160a01b0316145b15610ed75780838381518110610ebe57634e487b7160e01b600052603260045260246000fd5b602090810291909101015281610ed381612b95565b9250505b80610ee181612b95565b915050610e62565b5090949350505050565b80610efe33826118b7565b610f1a5760405162461bcd60e51b815260040161052b906128c0565b6000600c8381548110610f3d57634e487b7160e01b600052603260045260246000fd5b600091825260209091206003909102018054909150600160a01b900460ff16610fb45760405162461bcd60e51b8152602060048201526024808201527f41524d593a2063616e206f6e6c79206c696265726174652061726d6564206d696044820152633734b7b760e11b606482015260840161052b565b600a548160020154136110185760405162461bcd60e51b815260206004820152602660248201527f41524d593a2063616e206f6e6c79206c69626572617465206865616c7468792060448201526536b4b734b7b760d11b606482015260840161052b565b61102183611bcc565b600754600a5460028301546001600160a01b03909216916366ca10ca91339161104a9190612ad8565b6040516001600160e01b031960e085901b1681526001600160a01b0390921660048301526024820152604401600060405180830381600087803b15801561109057600080fd5b505af11580156110a4573d6000803e3d6000fd5b50505050505050565b60606001805461044090612b5a565b6001600160a01b0382163314156111155760405162461bcd60e51b815260206004820152601960248201527f4552433732313a20617070726f766520746f2063616c6c657200000000000000604482015260640161052b565b3360008181526005602090815260408083206001600160a01b0387168085529252909120805460ff1916841515179055906001600160a01b03167f17307eab39ab6107e8899845ad3d59bd9653f200f220920489ca2b5937696c3183604051611182911515815260200190565b60405180910390a35050565b61119833836118b7565b6111b45760405162461bcd60e51b815260040161052b90612908565b6111c084848484611c0f565b50505050565b60606111d18261182c565b6111ed5760405162461bcd60e51b815260040161052b90612822565b6000600c838154811061121057634e487b7160e01b600052603260045260246000fd5b6000918252602080832060408051608081018252600390940290910180546001600160a01b038116855260ff600160a01b90910416151592840192909252600182015490830152600201546060820152915061126b84611c42565b9050600b8151111561128057915061042c9050565b60085482516060840151604051635e104a8b60e11b81526001600160a01b039283166004820152602481019190915291169063bc2095169060440160006040518083038186803b1580156112d357600080fd5b505afa1580156112e7573d6000803e3d6000fd5b505050506040513d6000823e601f3d908101601f1916820160405261130f9190810190612671565b9250505061042c565b6000806000806113278561182c565b6113435760405162461bcd60e51b815260040161052b90612822565b6000600c868154811061136657634e487b7160e01b600052603260045260246000fd5b60009182526020918290206040805160808101825260039390930290910180546001600160a01b038116808552600160a01b90910460ff16151594840185905260018201549284018390526002909101546060909301839052999298509650945092505050565b806113d833826118b7565b6113f45760405162461bcd60e51b815260040161052b906128c0565b6000600c838154811061141757634e487b7160e01b600052603260045260246000fd5b600091825260209091206003909102018054909150600160a01b900460ff16156114915760405162461bcd60e51b815260206004820152602560248201527f41524d593a206d696e696f6e206973206e6f7420696e20747261696e696e6720604482015264737461746560d81b606482015260840161052b565b805460408051633fabe5a360e21b815290516001600160a01b0390921691600091839163feaf968c9160048082019260a092909190829003018186803b1580156114da57600080fd5b505afa1580156114ee573d6000803e3d6000fd5b505050506040513d601f19601f8201168201806040525081019061151291906126e4565b50505091505082600101548112156115c157600754600284015460018501546001600160a01b039092169163224b5c7291339160109190611556908790841b612a13565b6115609190612a55565b6040516001600160e01b031960e086901b1681526001600160a01b039093166004840152901d6024820152604401600060405180830381600087803b1580156115a857600080fd5b505af11580156115bc573d6000803e3d6000fd5b505050505b825460ff60a01b198116600160a01b178455600184810154600286015460405192936001600160a01b0316928992600080516020612c328339815191529261098c92918252602082015260400190565b60008061161d83611db2565b90506001600160a01b03811661166c5760405162461bcd60e51b8152602060048201526014602482015273082a49ab27440d2dcecc2d8d2c840c4e4c2dcc6d60631b604482015260640161052b565b60008190506000816001600160a01b031663feaf968c6040518163ffffffff1660e01b815260040160a06040518083038186803b1580156116ac57600080fd5b505afa1580156116c0573d6000803e3d6000fd5b505050506040513d601f19601f820116820180604052508101906116e491906126e4565b505050915050600060095490506116fb3382611eb5565b604080516080810182526001600160a01b03808716808352600060208401818152848601888152600a805460608801908152600c8054600181018255908652975160039098027fdf6966c971051c3d54ec59162606531493a51404a002842f56009d7e5cf4a8c78101805495511515600160a01b026001600160a81b0319909616999098169890981793909317909555517fdf6966c971051c3d54ec59162606531493a51404a002842f56009d7e5cf4a8c8860155517fdf6966c971051c3d54ec59162606531493a51404a002842f56009d7e5cf4a8c99094019390935590549251919290918491600080516020612c328339815191529161180591888252602082015260400190565b60405180910390a46009805490600061181d83612b95565b90915550909695505050505050565b6000908152600260205260409020546001600160a01b0316151590565b600081815260046020526040902080546001600160a01b0319166001600160a01b038416908117909155819061187e82610cfc565b6001600160a01b03167f8c5be1e5ebec7d5bd14f71427d1e84f3dd0314c0f7b2291e5b200ac8c7c3b92560405160405180910390a45050565b60006118c28261182c565b6119235760405162461bcd60e51b815260206004820152602c60248201527f4552433732313a206f70657261746f7220717565727920666f72206e6f6e657860448201526b34b9ba32b73a103a37b5b2b760a11b606482015260840161052b565b600061192e83610cfc565b9050806001600160a01b0316846001600160a01b031614806119695750836001600160a01b031661195e846104c3565b6001600160a01b0316145b8061199957506001600160a01b0380821660009081526005602090815260408083209388168352929052205460ff165b949350505050565b6119aa8261182c565b611a0d5760405162461bcd60e51b815260206004820152602e60248201527f45524337323155524953746f726167653a2055524920736574206f66206e6f6e60448201526d32bc34b9ba32b73a103a37b5b2b760911b606482015260840161052b565b6000828152600660209081526040909120825161066192840190612383565b826001600160a01b0316611a3f82610cfc565b6001600160a01b031614611aa75760405162461bcd60e51b815260206004820152602960248201527f4552433732313a207472616e73666572206f6620746f6b656e2074686174206960448201526839903737ba1037bbb760b91b606482015260840161052b565b6001600160a01b038216611b095760405162461bcd60e51b8152602060048201526024808201527f4552433732313a207472616e7366657220746f20746865207a65726f206164646044820152637265737360e01b606482015260840161052b565b611b14600082611849565b6001600160a01b0383166000908152600360205260408120805460019290611b3d908490612b17565b90915550506001600160a01b0382166000908152600360205260408120805460019290611b6b9084906129fb565b909155505060008181526002602052604080822080546001600160a01b0319166001600160a01b0386811691821790925591518493918716917fddf252ad1be2c89b69c2b068fc378daa952ba7f163c4a11628f55a4df523b3ef91a4505050565b611bd581611fe8565b60008181526006602052604090208054611bee90612b5a565b159050611c0c576000818152600660205260408120611c0c91612407565b50565b611c1a848484611a2c565b611c2684848484612083565b6111c05760405162461bcd60e51b815260040161052b9061286e565b6060611c4d8261182c565b611cb35760405162461bcd60e51b815260206004820152603160248201527f45524337323155524953746f726167653a2055524920717565727920666f72206044820152703737b732bc34b9ba32b73a103a37b5b2b760791b606482015260840161052b565b60008281526006602052604081208054611ccc90612b5a565b80601f0160208091040260200160405190810160405280929190818152602001828054611cf890612b5a565b8015611d455780601f10611d1a57610100808354040283529160200191611d45565b820191906000526020600020905b815481529060010190602001808311611d2857829003601f168201915b505050505090506000611d6360408051602081019091526000815290565b9050805160001415611d775750905061042c565b815115611da9578082604051602001611d9192919061275f565b6040516020818303038152906040529250505061042c565b61199984612190565b600b54604051630178b8bf60e01b81526004810183905260009182916001600160a01b0390911690630178b8bf9060240160206040518083038186803b158015611dfb57600080fd5b505afa158015611e0f573d6000803e3d6000fd5b505050506040513d601f19601f82011682018060405250810190611e33919061248a565b604051631d9dabef60e11b8152600481018590529091506001600160a01b03821690633b3b57de9060240160206040518083038186803b158015611e7657600080fd5b505afa158015611e8a573d6000803e3d6000fd5b505050506040513d601f19601f82011682018060405250810190611eae919061248a565b9392505050565b6001600160a01b038216611f0b5760405162461bcd60e51b815260206004820181905260248201527f4552433732313a206d696e7420746f20746865207a65726f2061646472657373604482015260640161052b565b611f148161182c565b15611f615760405162461bcd60e51b815260206004820152601c60248201527f4552433732313a20746f6b656e20616c7265616479206d696e74656400000000604482015260640161052b565b6001600160a01b0382166000908152600360205260408120805460019290611f8a9084906129fb565b909155505060008181526002602052604080822080546001600160a01b0319166001600160a01b03861690811790915590518392907fddf252ad1be2c89b69c2b068fc378daa952ba7f163c4a11628f55a4df523b3ef908290a45050565b6000611ff382610cfc565b9050612000600083611849565b6001600160a01b0381166000908152600360205260408120805460019290612029908490612b17565b909155505060008281526002602052604080822080546001600160a01b0319169055518391906001600160a01b038416907fddf252ad1be2c89b69c2b068fc378daa952ba7f163c4a11628f55a4df523b3ef908390a45050565b60006001600160a01b0384163b1561218557604051630a85bd0160e11b81526001600160a01b0385169063150b7a02906120c790339089908890889060040161278e565b602060405180830381600087803b1580156120e157600080fd5b505af1925050508015612111575060408051601f3d908101601f1916820190925261210e91810190612655565b60015b61216b573d80801561213f576040519150601f19603f3d011682016040523d82523d6000602084013e612144565b606091505b5080516121635760405162461bcd60e51b815260040161052b9061286e565b805181602001fd5b6001600160e01b031916630a85bd0160e11b149050611999565b506001949350505050565b606061219b8261182c565b6121ff5760405162461bcd60e51b815260206004820152602f60248201527f4552433732314d657461646174613a2055524920717565727920666f72206e6f60448201526e3732bc34b9ba32b73a103a37b5b2b760891b606482015260840161052b565b600061221660408051602081019091526000815290565b905060008151116122365760405180602001604052806000815250611eae565b8061224084612268565b60405160200161225192919061275f565b604051602081830303815290604052915050919050565b60608161228d57506040805180820190915260018152600360fc1b602082015261042c565b8160005b81156122b757806122a181612b95565b91506122b09050600a83612a41565b9150612291565b60008167ffffffffffffffff8111156122e057634e487b7160e01b600052604160045260246000fd5b6040519080825280601f01601f19166020018201604052801561230a576020820181803683370190505b5090505b84156119995761231f600183612b17565b915061232c600a86612bb0565b6123379060306129fb565b60f81b81838151811061235a57634e487b7160e01b600052603260045260246000fd5b60200101906001600160f81b031916908160001a90535061237c600a86612a41565b945061230e565b82805461238f90612b5a565b90600052602060002090601f0160209004810192826123b157600085556123f7565b82601f106123ca57805160ff19168380011785556123f7565b828001600101855582156123f7579182015b828111156123f75782518255916020019190600101906123dc565b5061240392915061243f565b5090565b50805461241390612b5a565b6000825580601f106124255750611c0c565b601f016020900490600052602060002090810190611c0c91905b5b808211156124035760008155600101612440565b805169ffffffffffffffffffff8116811461042c57600080fd5b60006020828403121561247f578081fd5b8135611eae81612c06565b60006020828403121561249b578081fd5b8151611eae81612c06565b600080604083850312156124b8578081fd5b82356124c381612c06565b915060208301356124d381612c06565b809150509250929050565b6000806000606084860312156124f2578081fd5b83356124fd81612c06565b9250602084013561250d81612c06565b929592945050506040919091013590565b60008060008060808587031215612533578081fd5b843561253e81612c06565b9350602085013561254e81612c06565b925060408501359150606085013567ffffffffffffffff811115612570578182fd5b8501601f81018713612580578182fd5b803561259361258e826129d3565b6129a2565b8181528860208385010111156125a7578384fd5b81602084016020830137908101602001929092525092959194509250565b600080604083850312156125d7578182fd5b82356125e281612c06565b9150602083013580151581146124d3578182fd5b60008060408385031215612608578182fd5b823561261381612c06565b946020939093013593505050565b600060208284031215612632578081fd5b5035919050565b60006020828403121561264a578081fd5b8135611eae81612c1b565b600060208284031215612666578081fd5b8151611eae81612c1b565b600060208284031215612682578081fd5b815167ffffffffffffffff811115612698578182fd5b8201601f810184136126a8578182fd5b80516126b661258e826129d3565b8181528560208385010111156126ca578384fd5b6126db826020830160208601612b2e565b95945050505050565b600080600080600060a086880312156126fb578283fd5b61270486612454565b945060208601519350604086015192506060860151915061272760808701612454565b90509295509295909350565b6000815180845261274b816020860160208601612b2e565b601f01601f19169290920160200192915050565b60008351612771818460208801612b2e565b835190830190612785818360208801612b2e565b01949350505050565b6001600160a01b03858116825284166020820152604081018390526080606082018190526000906127c190830184612733565b9695505050505050565b6020808252825182820181905260009190848201906040850190845b81811015612803578351835292840192918401916001016127e7565b50909695505050505050565b600060208252611eae6020830184612733565b6020808252602c908201527f41524d593a20636f6d6d616e64657220717565727920666f72206e6f6e65786960408201526b39ba32b73a1036b4b734b7b760a11b606082015260800190565b60208082526032908201527f4552433732313a207472616e7366657220746f206e6f6e20455243373231526560408201527131b2b4bb32b91034b6b83632b6b2b73a32b960711b606082015260800190565b60208082526028908201527f41524d593a20636f6d6d616e6465722063616e277420636f6d6d616e64207468604082015267329036b4b734b7b760c11b606082015260800190565b60208082526031908201527f4552433732313a207472616e736665722063616c6c6572206973206e6f74206f6040820152701ddb995c881b9bdc88185c1c1c9bdd9959607a1b606082015260800190565b60208082526029908201527f41524d593a206d696e696f6e20697320616c726561647920696e20747261696e604082015268696e6720737461746560b81b606082015260800190565b604051601f8201601f1916810167ffffffffffffffff811182821017156129cb576129cb612bf0565b604052919050565b600067ffffffffffffffff8211156129ed576129ed612bf0565b50601f01601f191660200190565b60008219821115612a0e57612a0e612bc4565b500190565b600082612a2257612a22612bda565b600160ff1b821460001984141615612a3c57612a3c612bc4565b500590565b600082612a5057612a50612bda565b500490565b60006001600160ff1b0381841382841380821686840486111615612a7b57612a7b612bc4565b600160ff1b84871282811687830589121615612a9957612a99612bc4565b858712925087820587128484161615612ab457612ab4612bc4565b87850587128184161615612aca57612aca612bc4565b505050929093029392505050565b60008083128015600160ff1b850184121615612af657612af6612bc4565b6001600160ff1b0384018313811615612b1157612b11612bc4565b50500390565b600082821015612b2957612b29612bc4565b500390565b60005b83811015612b49578181015183820152602001612b31565b838111156111c05750506000910152565b600181811c90821680612b6e57607f821691505b60208210811415612b8f57634e487b7160e01b600052602260045260246000fd5b50919050565b6000600019821415612ba957612ba9612bc4565b5060010190565b600082612bbf57612bbf612bda565b500690565b634e487b7160e01b600052601160045260246000fd5b634e487b7160e01b600052601260045260246000fd5b634e487b7160e01b600052604160045260246000fd5b6001600160a01b0381168114611c0c57600080fd5b6001600160e01b031981168114611c0c57600080fdfe05cf8ce068bd8f8c0e2cfd6182aff2bc80fdfbbf05a0a7ee70f867dc2cecdb0ea264697066735822122067ad5a50b63bc462a9c27180bf0ff2309152b00aa662dd2204f547711ee4193264736f6c6343000803003360806040523480156200001157600080fd5b50604051620012263803806200122683398101604081905262000034916200022b565b8151829082906200004d906003906020850190620000d2565b50805162000063906004906020840190620000d2565b505050600062000078620000ce60201b60201c565b600580546001600160a01b0319166001600160a01b038316908117909155604051919250906000907f8be0079c531659141344cd1fd0a4f28419497f9722a3daafe3b4186f6b6457e0908290a3505050620002e5565b3390565b828054620000e09062000292565b90600052602060002090601f0160209004810192826200010457600085556200014f565b82601f106200011f57805160ff19168380011785556200014f565b828001600101855582156200014f579182015b828111156200014f57825182559160200191906001019062000132565b506200015d92915062000161565b5090565b5b808211156200015d576000815560010162000162565b600082601f83011262000189578081fd5b81516001600160401b0380821115620001a657620001a6620002cf565b604051601f8301601f19908116603f01168101908282118183101715620001d157620001d1620002cf565b81604052838152602092508683858801011115620001ed578485fd5b8491505b83821015620002105785820183015181830184015290820190620001f1565b838211156200022157848385830101525b9695505050505050565b600080604083850312156200023e578182fd5b82516001600160401b038082111562000255578384fd5b620002638683870162000178565b9350602085015191508082111562000279578283fd5b50620002888582860162000178565b9150509250929050565b600181811c90821680620002a757607f821691505b60208210811415620002c957634e487b7160e01b600052602260045260246000fd5b50919050565b634e487b7160e01b600052604160045260246000fd5b610f3180620002f56000396000f3fe608060405234801561001057600080fd5b50600436106101005760003560e01c806370a0823111610097578063a457c2d711610066578063a457c2d7146101f3578063a9059cbb14610206578063dd62ed3e14610219578063f2fde38b1461025257610100565b806370a08231146101b5578063715018a6146101c85780638da5cb5b146101d057806395d89b41146101eb57610100565b806323b872dd116100d357806323b872dd1461016d578063313ce56714610180578063395093511461018f57806366ca10ca146101a257610100565b806306fdde0314610105578063095ea7b31461012357806318160ddd14610146578063224b5c7214610158575b600080fd5b61010d610265565b60405161011a9190610cbd565b60405180910390f35b610136610131366004610c94565b6102f7565b604051901515815260200161011a565b6002545b60405190815260200161011a565b61016b610166366004610c94565b61030d565b005b61013661017b366004610c59565b610363565b6040516012815260200161011a565b61013661019d366004610c94565b610416565b61016b6101b0366004610c94565b61044d565b61014a6101c3366004610c0d565b610496565b61016b6104b5565b6005546040516001600160a01b03909116815260200161011a565b61010d610529565b610136610201366004610c94565b610538565b610136610214366004610c94565b6105d3565b61014a610227366004610c27565b6001600160a01b03918216600090815260016020908152604080832093909416825291909152205490565b61016b610260366004610c0d565b6105e0565b60606003805461027490610eaa565b80601f01602080910402602001604051908101604052809291908181526020018280546102a090610eaa565b80156102ed5780601f106102c2576101008083540402835291602001916102ed565b820191906000526020600020905b8154815290600101906020018083116102d057829003601f168201915b5050505050905090565b60006103043384846106cb565b50600192915050565b6005546001600160a01b031633146103405760405162461bcd60e51b815260040161033790610d10565b60405180910390fd5b61035f826103506012600a610da3565b61035a9084610e74565b6107f0565b5050565b600061037084848461093f565b6001600160a01b0384166000908152600160209081526040808320338452909152902054828110156103f55760405162461bcd60e51b815260206004820152602860248201527f45524332303a207472616e7366657220616d6f756e74206578636565647320616044820152676c6c6f77616e636560c01b6064820152608401610337565b61040985336104048685610e93565b6106cb565b60019150505b9392505050565b3360008181526001602090815260408083206001600160a01b03871684529091528120549091610304918590610404908690610d45565b6005546001600160a01b031633146104775760405162461bcd60e51b815260040161033790610d10565b61035f826104876012600a610da3565b6104919084610e74565b610b17565b6001600160a01b0381166000908152602081905260409020545b919050565b6005546001600160a01b031633146104df5760405162461bcd60e51b815260040161033790610d10565b6005546040516000916001600160a01b0316907f8be0079c531659141344cd1fd0a4f28419497f9722a3daafe3b4186f6b6457e0908390a3600580546001600160a01b0319169055565b60606004805461027490610eaa565b3360009081526001602090815260408083206001600160a01b0386168452909152812054828110156105ba5760405162461bcd60e51b815260206004820152602560248201527f45524332303a2064656372656173656420616c6c6f77616e63652062656c6f77604482015264207a65726f60d81b6064820152608401610337565b6105c933856104048685610e93565b5060019392505050565b600061030433848461093f565b6005546001600160a01b0316331461060a5760405162461bcd60e51b815260040161033790610d10565b6001600160a01b03811661066f5760405162461bcd60e51b815260206004820152602660248201527f4f776e61626c653a206e6577206f776e657220697320746865207a65726f206160448201526564647265737360d01b6064820152608401610337565b6005546040516001600160a01b038084169216907f8be0079c531659141344cd1fd0a4f28419497f9722a3daafe3b4186f6b6457e090600090a3600580546001600160a01b0319166001600160a01b0392909216919091179055565b6001600160a01b03831661072d5760405162461bcd60e51b8152602060048201526024808201527f45524332303a20617070726f76652066726f6d20746865207a65726f206164646044820152637265737360e01b6064820152608401610337565b6001600160a01b03821661078e5760405162461bcd60e51b815260206004820152602260248201527f45524332303a20617070726f766520746f20746865207a65726f206164647265604482015261737360f01b6064820152608401610337565b6001600160a01b0383811660008181526001602090815260408083209487168084529482529182902085905590518481527f8c5be1e5ebec7d5bd14f71427d1e84f3dd0314c0f7b2291e5b200ac8c7c3b92591015b60405180910390a3505050565b6001600160a01b0382166108505760405162461bcd60e51b815260206004820152602160248201527f45524332303a206275726e2066726f6d20746865207a65726f206164647265736044820152607360f81b6064820152608401610337565b6001600160a01b038216600090815260208190526040902054818110156108c45760405162461bcd60e51b815260206004820152602260248201527f45524332303a206275726e20616d6f756e7420657863656564732062616c616e604482015261636560f01b6064820152608401610337565b6108ce8282610e93565b6001600160a01b038416600090815260208190526040812091909155600280548492906108fc908490610e93565b90915550506040518281526000906001600160a01b038516907fddf252ad1be2c89b69c2b068fc378daa952ba7f163c4a11628f55a4df523b3ef906020016107e3565b6001600160a01b0383166109a35760405162461bcd60e51b815260206004820152602560248201527f45524332303a207472616e736665722066726f6d20746865207a65726f206164604482015264647265737360d81b6064820152608401610337565b6001600160a01b038216610a055760405162461bcd60e51b815260206004820152602360248201527f45524332303a207472616e7366657220746f20746865207a65726f206164647260448201526265737360e81b6064820152608401610337565b6001600160a01b03831660009081526020819052604090205481811015610a7d5760405162461bcd60e51b815260206004820152602660248201527f45524332303a207472616e7366657220616d6f756e7420657863656564732062604482015265616c616e636560d01b6064820152608401610337565b610a878282610e93565b6001600160a01b038086166000908152602081905260408082209390935590851681529081208054849290610abd908490610d45565b92505081905550826001600160a01b0316846001600160a01b03167fddf252ad1be2c89b69c2b068fc378daa952ba7f163c4a11628f55a4df523b3ef84604051610b0991815260200190565b60405180910390a350505050565b6001600160a01b038216610b6d5760405162461bcd60e51b815260206004820152601f60248201527f45524332303a206d696e7420746f20746865207a65726f2061646472657373006044820152606401610337565b8060026000828254610b7f9190610d45565b90915550506001600160a01b03821660009081526020819052604081208054839290610bac908490610d45565b90915550506040518181526001600160a01b038316906000907fddf252ad1be2c89b69c2b068fc378daa952ba7f163c4a11628f55a4df523b3ef9060200160405180910390a35050565b80356001600160a01b03811681146104b057600080fd5b600060208284031215610c1e578081fd5b61040f82610bf6565b60008060408385031215610c39578081fd5b610c4283610bf6565b9150610c5060208401610bf6565b90509250929050565b600080600060608486031215610c6d578081fd5b610c7684610bf6565b9250610c8460208501610bf6565b9150604084013590509250925092565b60008060408385031215610ca6578182fd5b610caf83610bf6565b946020939093013593505050565b6000602080835283518082850152825b81811015610ce957858101830151858201604001528201610ccd565b81811115610cfa5783604083870101525b50601f01601f1916929092016040019392505050565b6020808252818101527f4f776e61626c653a2063616c6c6572206973206e6f7420746865206f776e6572604082015260600190565b60008219821115610d5857610d58610ee5565b500190565b80825b6001808611610d6f5750610d9a565b818704821115610d8157610d81610ee5565b80861615610d8e57918102915b9490941c938002610d60565b94509492505050565b600061040f60001960ff851684600082610dbf5750600161040f565b81610dcc5750600061040f565b8160018114610de25760028114610dec57610e19565b600191505061040f565b60ff841115610dfd57610dfd610ee5565b6001841b915084821115610e1357610e13610ee5565b5061040f565b5060208310610133831016604e8410600b8410161715610e4c575081810a83811115610e4757610e47610ee5565b61040f565b610e598484846001610d5d565b808604821115610e6b57610e6b610ee5565b02949350505050565b6000816000190483118215151615610e8e57610e8e610ee5565b500290565b600082821015610ea557610ea5610ee5565b500390565b600181811c90821680610ebe57607f821691505b60208210811415610edf57634e487b7160e01b600052602260045260246000fd5b50919050565b634e487b7160e01b600052601160045260246000fdfea26469706673582212209ecbf66560ec92551c46075b235d3ec96bf4f1bbd64e4d336b6f03737a423c4c64736f6c6343000803003360806040523480156200001157600080fd5b5060405162000f8f38038062000f8f8339810160408190526200003491620002d0565b600080546001600160a01b031916339081178255604051909182917f8be0079c531659141344cd1fd0a4f28419497f9722a3daafe3b4186f6b6457e0908290a35060005b60058110156200014057828160058110620000a357634e487b7160e01b600052603260045260246000fd5b602002015160028260058110620000ca57634e487b7160e01b600052603260045260246000fd5b0155818160058110620000ed57634e487b7160e01b600052603260045260246000fd5b6020020151600782600581106200011457634e487b7160e01b600052603260045260246000fd5b0190805190602001906200012a92919062000149565b5080620001378162000401565b91505062000078565b5050506200043f565b8280546200015790620003c4565b90600052602060002090601f0160209004810192826200017b5760008555620001c6565b82601f106200019657805160ff1916838001178555620001c6565b82800160010185558215620001c6579182015b82811115620001c6578251825591602001919060010190620001a9565b50620001d4929150620001d8565b5090565b5b80821115620001d45760008155600101620001d9565b6000601f838184011262000201578182fd5b6005620002186200021282620003a1565b6200036e565b8085855b84811015620002c35781518801898782011262000237578788fd5b80516001600160401b0381111562000253576200025362000429565b602062000268828a01601f191682016200036e565b8281528c828486010111156200027c578a8bfd5b8a5b838110156200029b5784810183015182820184015282016200027e565b83811115620002ac578b8385840101525b50875295860195939093019250506001016200021c565b5090979650505050505050565b60008060c08385031215620002e3578182fd5b83601f840112620002f2578182fd5b6005620003036200021282620003a1565b808560a087018881111562000316578687fd5b865b858110156200033857825185526020948501949092019160010162000318565b505191955090925050506001600160401b0381111562000356578182fd5b6200036485828601620001ef565b9150509250929050565b604051601f8201601f191681016001600160401b038111828210171562000399576200039962000429565b604052919050565b60006001600160401b03821115620003bd57620003bd62000429565b5060051b90565b600181811c90821680620003d957607f821691505b60208210811415620003fb57634e487b7160e01b600052602260045260246000fd5b50919050565b60006000198214156200042257634e487b7160e01b81526011600452602481fd5b5060010190565b634e487b7160e01b600052604160045260246000fd5b610b40806200044f6000396000f3fe608060405234801561001057600080fd5b506004361061009e5760003560e01c80638ebc87c3116100665780638ebc87c314610114578063a323d45614610134578063bc20951614610147578063f2fde38b1461015a578063fd62df071461016d5761009e565b80634a6d0f20146100a35780636a1805e2146100b8578063715018a6146100cb57806376034ca9146100d35780638da5cb5b146100f9575b600080fd5b6100b66100b136600461089c565b610180565b005b6100b66100c6366004610803565b610233565b6100b6610286565b6100e66100e13660046108d7565b6102fa565b6040519081526020015b60405180910390f35b6000546040516001600160a01b0390911681526020016100f0565b6101276101223660046108d7565b610311565b6040516100f0919061099c565b6101276101423660046107b9565b6103b1565b6101276101553660046107da565b6103ca565b6100b66101683660046107b9565b610579565b6100b661017b366004610881565b610663565b6000546001600160a01b031633146101b35760405162461bcd60e51b81526004016101aa906109ef565b60405180910390fd5b60005b600581101561022f578181600581106101df57634e487b7160e01b600052603260045260246000fd5b6020028101906101ef9190610a24565b6007836005811061021057634e487b7160e01b600052603260045260246000fd5b61021c939101916106f3565b508061022781610ad9565b9150506101b6565b5050565b6000546001600160a01b0316331461025d5760405162461bcd60e51b81526004016101aa906109ef565b6001600160a01b03831660009081526001602052604090206102809083836106f3565b50505050565b6000546001600160a01b031633146102b05760405162461bcd60e51b81526004016101aa906109ef565b600080546040516001600160a01b03909116907f8be0079c531659141344cd1fd0a4f28419497f9722a3daafe3b4186f6b6457e0908390a3600080546001600160a01b0319169055565b6002816005811061030a57600080fd5b0154905081565b6007816005811061032157600080fd5b01805490915061033090610a9e565b80601f016020809104026020016040519081016040528092919081815260200182805461035c90610a9e565b80156103a95780601f1061037e576101008083540402835291602001916103a9565b820191906000526020600020905b81548152906001019060200180831161038c57829003601f168201915b505050505081565b6001602052600090815260409020805461033090610a9e565b606060006103da60016005610a70565b90505b600281600581106103fe57634e487b7160e01b600052603260045260246000fd5b01548312610561576001600160a01b0384166000908152600160205260408120805461042990610a9e565b80601f016020809104026020016040519081016040528092919081815260200182805461045590610a9e565b80156104a25780601f10610477576101008083540402835291602001916104a2565b820191906000526020600020905b81548152906001019060200180831161048557829003601f168201915b50505050509050805160001415610528576000805260016020527fa6eef7e35abe7026729641147f7915573c7e97b47efa546f5f6e3230263bcb49600783600581106104fe57634e487b7160e01b600052603260045260246000fd5b01604051602001610510929190610987565b60405160208183030381529060405292505050610573565b6001600160a01b0385166000908152600160205260409020600783600581106104fe57634e487b7160e01b600052603260045260246000fd5b8061056b81610a87565b9150506103dd565b92915050565b6000546001600160a01b031633146105a35760405162461bcd60e51b81526004016101aa906109ef565b6001600160a01b0381166106085760405162461bcd60e51b815260206004820152602660248201527f4f776e61626c653a206e6577206f776e657220697320746865207a65726f206160448201526564647265737360d01b60648201526084016101aa565b600080546040516001600160a01b03808516939216917f8be0079c531659141344cd1fd0a4f28419497f9722a3daafe3b4186f6b6457e091a3600080546001600160a01b0319166001600160a01b0392909216919091179055565b6000546001600160a01b0316331461068d5760405162461bcd60e51b81526004016101aa906109ef565b60005b600581101561022f578181600581106106b957634e487b7160e01b600052603260045260246000fd5b6020020135600282600581106106df57634e487b7160e01b600052603260045260246000fd5b0155806106eb81610ad9565b915050610690565b8280546106ff90610a9e565b90600052602060002090601f0160209004810192826107215760008555610767565b82601f1061073a5782800160ff19823516178555610767565b82800160010185558215610767579182015b8281111561076757823582559160200191906001019061074c565b50610773929150610777565b5090565b5b808211156107735760008155600101610778565b80356001600160a01b03811681146107a357600080fd5b919050565b8060a0810183101561057357600080fd5b6000602082840312156107ca578081fd5b6107d38261078c565b9392505050565b600080604083850312156107ec578081fd5b6107f58361078c565b946020939093013593505050565b600080600060408486031215610817578081fd5b6108208461078c565b9250602084013567ffffffffffffffff8082111561083c578283fd5b818601915086601f83011261084f578283fd5b81358181111561085d578384fd5b87602082850101111561086e578384fd5b6020830194508093505050509250925092565b600060a08284031215610892578081fd5b6107d383836107a8565b6000602082840312156108ad578081fd5b813567ffffffffffffffff8111156108c3578182fd5b6108cf848285016107a8565b949350505050565b6000602082840312156108e8578081fd5b5035919050565b8054600090600181811c908083168061090957607f831692505b602080841082141561092957634e487b7160e01b86526022600452602486fd5b81801561093d576001811461094e5761097b565b60ff1986168952848901965061097b565b60008881526020902060005b868110156109735781548b82015290850190830161095a565b505084890196505b50505050505092915050565b60006108cf61099683866108ef565b846108ef565b6000602080835283518082850152825b818110156109c8578581018301518582016040015282016109ac565b818111156109d95783604083870101525b50601f01601f1916929092016040019392505050565b6020808252818101527f4f776e61626c653a2063616c6c6572206973206e6f7420746865206f776e6572604082015260600190565b6000808335601e19843603018112610a3a578283fd5b83018035915067ffffffffffffffff821115610a54578283fd5b602001915036819003821315610a6957600080fd5b9250929050565b600082821015610a8257610a82610af4565b500390565b600081610a9657610a96610af4565b506000190190565b600181811c90821680610ab257607f821691505b60208210811415610ad357634e487b7160e01b600052602260045260246000fd5b50919050565b6000600019821415610aed57610aed610af4565b5060010190565b634e487b7160e01b600052601160045260246000fdfea2646970667358221220dc77a8312c892059baadda4614da3b31b207558117e02e34caed9d8cb4a6d88f64736f6c63430008030033",
  "bytecodeSha1": "b1b0a58ed2bd5c6a4024fb221a4311274aefbab4",
  "compiler": {
    "evm_version": "istanbul",
    "optimizer": {
      "enabled": true,
      "runs": 200
    },
    "version": "0.8.3+commit.8d00100c"
  },
  "contractName": "FloraArmy",
  "language": "Solidity",
  "natspec": {
    "author": "Justa Liang",
    "kind": "dev",
    "methods": {
      "approve(address,uint256)": {
        "details": "See {IERC721-approve}."
      },
      "arm(uint256)": {
        "notice": "Arm a minion and update its power",
        "params": {
          "minionID": "ID of the minion"
        }
      },
      "balanceOf(address)": {
        "details": "See {IERC721-balanceOf}."
      },
      "boost(uint256)": {
        "details": "Commander cost Chlorophyll",
        "notice": "Use Chlorophyll to stimulate an armed minion to catch up training",
        "params": {
          "minionID": "ID of the minion"
        }
      },
      "constructor": {
        "details": "Set name, symbol, and addresses of interactive contracts",
        "params": {
          "ensRegistryAddr": "Address of ENS Registry"
        }
      },
      "enhancerContract()": {
        "notice": "Corresponding Enhancer contract"
      },
      "getApproved(uint256)": {
        "details": "See {IERC721-getApproved}."
      },
      "getMinionIDs(address)": {
        "notice": "Get minion IDs, like (2,6,9), given commander",
        "params": {
          "commander": "Commander of these minions"
        },
        "returns": {
          "_0": "IDs of these minions"
        }
      },
      "getMinionInfo(uint256)": {
        "notice": "Get minion's on-chain information",
        "params": {
          "minionID": "ID of the minion"
        },
        "returns": {
          "_0": "On-chain information of the minion"
        }
      },
      "heal(uint256)": {
        "details": "Commander cost Chlorophyll",
        "notice": "Use Chlorophyll to heal a minion who suffer from negative training",
        "params": {
          "minionID": "ID of the minion"
        }
      },
      "isApprovedForAll(address,address)": {
        "details": "See {IERC721-isApprovedForAll}."
      },
      "liberate(uint256)": {
        "details": "Commander get enhancer",
        "notice": "Liberate a minion and get some enhancer",
        "params": {
          "minionID": "ID of the minion"
        }
      },
      "name()": {
        "details": "See {IERC721Metadata-name}."
      },
      "ownerOf(uint256)": {
        "details": "See {IERC721-ownerOf}."
      },
      "rankContract()": {
        "notice": "Corresponding Rank contract"
      },
      "recruit(bytes32)": {
        "notice": "Recruit a minion",
        "params": {
          "branchHash": "ENS-namehash of given pair (ex: eth-usd.data.eth)"
        },
        "returns": {
          "_0": "ID of the newly recruited minion"
        }
      },
      "safeTransferFrom(address,address,uint256)": {
        "details": "See {IERC721-safeTransferFrom}."
      },
      "safeTransferFrom(address,address,uint256,bytes)": {
        "details": "See {IERC721-safeTransferFrom}."
      },
      "serialNumber()": {
        "notice": "Serial number of minions, imply how many minions have been created"
      },
      "setApprovalForAll(address,bool)": {
        "details": "See {IERC721-setApprovalForAll}."
      },
      "supportsInterface(bytes4)": {
        "details": "See {IERC165-supportsInterface}."
      },
      "symbol()": {
        "details": "See {IERC721Metadata-symbol}."
      },
      "train(uint256)": {
        "notice": "Train a minion and update the environment factor",
        "params": {
          "minionID": "ID of the minion"
        }
      },
      "transferFrom(address,address,uint256)": {
        "details": "See {IERC721-transferFrom}."
      }
    },
    "notice": "ERC721 token cultivated by predicting market price (using Chainlink oracle)",
    "title": "Flora Army, which grows in bullish market",
    "version": 1
  },
  "opcodes": "PUSH1 0x80 PUSH1 0x40 MSTORE CALLVALUE DUP1 ISZERO PUSH2 0x10 JUMPI PUSH1 0x0 DUP1 REVERT JUMPDEST POP PUSH1 0x4 CALLDATASIZE LT PUSH2 0x173 JUMPI PUSH1 0x0 CALLDATALOAD PUSH1 0xE0 SHR DUP1 PUSH4 0x70A08231 GT PUSH2 0xDE JUMPI DUP1 PUSH4 0xB88D4FDE GT PUSH2 0x97 JUMPI DUP1 PUSH4 0xE985E9C5 GT PUSH2 0x71 JUMPI DUP1 PUSH4 0xE985E9C5 EQ PUSH2 0x368 JUMPI DUP1 PUSH4 0xF37AC61C EQ PUSH2 0x3A4 JUMPI DUP1 PUSH4 0xF8543F00 EQ PUSH2 0x3B7 JUMPI DUP1 PUSH4 0xFCCC6623 EQ PUSH2 0x3CA JUMPI PUSH2 0x173 JUMP JUMPDEST DUP1 PUSH4 0xB88D4FDE EQ PUSH2 0x305 JUMPI DUP1 PUSH4 0xC87B56DD EQ PUSH2 0x318 JUMPI DUP1 PUSH4 0xDF069B11 EQ PUSH2 0x32B JUMPI PUSH2 0x173 JUMP JUMPDEST DUP1 PUSH4 0x70A08231 EQ PUSH2 0x291 JUMPI DUP1 PUSH4 0x7FB7CE86 EQ PUSH2 0x2A4 JUMPI DUP1 PUSH4 0x8C7A774A EQ PUSH2 0x2C4 JUMPI DUP1 PUSH4 0x95D89B41 EQ PUSH2 0x2D7 JUMPI DUP1 PUSH4 0xA22CB465 EQ PUSH2 0x2DF JUMPI DUP1 PUSH4 0xB5B0D782 EQ PUSH2 0x2F2 JUMPI PUSH2 0x173 JUMP JUMPDEST DUP1 PUSH4 0x20C69C89 GT PUSH2 0x130 JUMPI DUP1 PUSH4 0x20C69C89 EQ PUSH2 0x21B JUMPI DUP1 PUSH4 0x23B872DD EQ PUSH2 0x22E JUMPI DUP1 PUSH4 0x2A0DAEEA EQ PUSH2 0x241 JUMPI DUP1 PUSH4 0x368004ED EQ PUSH2 0x258 JUMPI DUP1 PUSH4 0x42842E0E EQ PUSH2 0x26B JUMPI DUP1 PUSH4 0x6352211E EQ PUSH2 0x27E JUMPI PUSH2 0x173 JUMP JUMPDEST DUP1 PUSH4 0x1FFC9A7 EQ PUSH2 0x178 JUMPI DUP1 PUSH4 0x6FDDE03 EQ PUSH2 0x1A0 JUMPI DUP1 PUSH4 0x81812FC EQ PUSH2 0x1B5 JUMPI DUP1 PUSH4 0x95EA7B3 EQ PUSH2 0x1E0 JUMPI DUP1 PUSH4 0x160E3F3D EQ PUSH2 0x1F5 JUMPI DUP1 PUSH4 0x1B55D19E EQ PUSH2 0x208 JUMPI JUMPDEST PUSH1 0x0 DUP1 REVERT JUMPDEST PUSH2 0x18B PUSH2 0x186 CALLDATASIZE PUSH1 0x4 PUSH2 0x2639 JUMP JUMPDEST PUSH2 0x3DD JUMP JUMPDEST PUSH1 0x40 MLOAD SWAP1 ISZERO ISZERO DUP2 MSTORE PUSH1 0x20 ADD JUMPDEST PUSH1 0x40 MLOAD DUP1 SWAP2 SUB SWAP1 RETURN JUMPDEST PUSH2 0x1A8 PUSH2 0x431 JUMP JUMPDEST PUSH1 0x40 MLOAD PUSH2 0x197 SWAP2 SWAP1 PUSH2 0x280F JUMP JUMPDEST PUSH2 0x1C8 PUSH2 0x1C3 CALLDATASIZE PUSH1 0x4 PUSH2 0x2621 JUMP JUMPDEST PUSH2 0x4C3 JUMP JUMPDEST PUSH1 0x40 MLOAD PUSH1 0x1 PUSH1 0x1 PUSH1 0xA0 SHL SUB SWAP1 SWAP2 AND DUP2 MSTORE PUSH1 0x20 ADD PUSH2 0x197 JUMP JUMPDEST PUSH2 0x1F3 PUSH2 0x1EE CALLDATASIZE PUSH1 0x4 PUSH2 0x25F6 JUMP JUMPDEST PUSH2 0x550 JUMP JUMPDEST STOP JUMPDEST PUSH2 0x1F3 PUSH2 0x203 CALLDATASIZE PUSH1 0x4 PUSH2 0x2621 JUMP JUMPDEST PUSH2 0x666 JUMP JUMPDEST PUSH2 0x1F3 PUSH2 0x216 CALLDATASIZE PUSH1 0x4 PUSH2 0x2621 JUMP JUMPDEST PUSH2 0x792 JUMP JUMPDEST PUSH2 0x1F3 PUSH2 0x229 CALLDATASIZE PUSH1 0x4 PUSH2 0x2621 JUMP JUMPDEST PUSH2 0x99B JUMP JUMPDEST PUSH2 0x1F3 PUSH2 0x23C CALLDATASIZE PUSH1 0x4 PUSH2 0x24DE JUMP JUMPDEST PUSH2 0xB55 JUMP JUMPDEST PUSH2 0x24A PUSH1 0x9 SLOAD DUP2 JUMP JUMPDEST PUSH1 0x40 MLOAD SWAP1 DUP2 MSTORE PUSH1 0x20 ADD PUSH2 0x197 JUMP JUMPDEST PUSH2 0x1F3 PUSH2 0x266 CALLDATASIZE PUSH1 0x4 PUSH2 0x2621 JUMP JUMPDEST PUSH2 0xB86 JUMP JUMPDEST PUSH2 0x1F3 PUSH2 0x279 CALLDATASIZE PUSH1 0x4 PUSH2 0x24DE JUMP JUMPDEST PUSH2 0xCE1 JUMP JUMPDEST PUSH2 0x1C8 PUSH2 0x28C CALLDATASIZE PUSH1 0x4 PUSH2 0x2621 JUMP JUMPDEST PUSH2 0xCFC JUMP JUMPDEST PUSH2 0x24A PUSH2 0x29F CALLDATASIZE PUSH1 0x4 PUSH2 0x246E JUMP JUMPDEST PUSH2 0xD73 JUMP JUMPDEST PUSH2 0x2B7 PUSH2 0x2B2 CALLDATASIZE PUSH1 0x4 PUSH2 0x246E JUMP JUMPDEST PUSH2 0xDFA JUMP JUMPDEST PUSH1 0x40 MLOAD PUSH2 0x197 SWAP2 SWAP1 PUSH2 0x27CB JUMP JUMPDEST PUSH2 0x1F3 PUSH2 0x2D2 CALLDATASIZE PUSH1 0x4 PUSH2 0x2621 JUMP JUMPDEST PUSH2 0xEF3 JUMP JUMPDEST PUSH2 0x1A8 PUSH2 0x10AD JUMP JUMPDEST PUSH2 0x1F3 PUSH2 0x2ED CALLDATASIZE PUSH1 0x4 PUSH2 0x25C5 JUMP JUMPDEST PUSH2 0x10BC JUMP JUMPDEST PUSH1 0x7 SLOAD PUSH2 0x1C8 SWAP1 PUSH1 0x1 PUSH1 0x1 PUSH1 0xA0 SHL SUB AND DUP2 JUMP JUMPDEST PUSH2 0x1F3 PUSH2 0x313 CALLDATASIZE PUSH1 0x4 PUSH2 0x251E JUMP JUMPDEST PUSH2 0x118E JUMP JUMPDEST PUSH2 0x1A8 PUSH2 0x326 CALLDATASIZE PUSH1 0x4 PUSH2 0x2621 JUMP JUMPDEST PUSH2 0x11C6 JUMP JUMPDEST PUSH2 0x33E PUSH2 0x339 CALLDATASIZE PUSH1 0x4 PUSH2 0x2621 JUMP JUMPDEST PUSH2 0x1318 JUMP JUMPDEST PUSH1 0x40 DUP1 MLOAD PUSH1 0x1 PUSH1 0x1 PUSH1 0xA0 SHL SUB SWAP1 SWAP6 AND DUP6 MSTORE SWAP3 ISZERO ISZERO PUSH1 0x20 DUP6 ADD MSTORE SWAP2 DUP4 ADD MSTORE PUSH1 0x60 DUP3 ADD MSTORE PUSH1 0x80 ADD PUSH2 0x197 JUMP JUMPDEST PUSH2 0x18B PUSH2 0x376 CALLDATASIZE PUSH1 0x4 PUSH2 0x24A6 JUMP JUMPDEST PUSH1 0x1 PUSH1 0x1 PUSH1 0xA0 SHL SUB SWAP2 DUP3 AND PUSH1 0x0 SWAP1 DUP2 MSTORE PUSH1 0x5 PUSH1 0x20 SWAP1 DUP2 MSTORE PUSH1 0x40 DUP1 DUP4 KECCAK256 SWAP4 SWAP1 SWAP5 AND DUP3 MSTORE SWAP2 SWAP1 SWAP2 MSTORE KECCAK256 SLOAD PUSH1 0xFF AND SWAP1 JUMP JUMPDEST PUSH2 0x1F3 PUSH2 0x3B2 CALLDATASIZE PUSH1 0x4 PUSH2 0x2621 JUMP JUMPDEST PUSH2 0x13CD JUMP JUMPDEST PUSH1 0x8 SLOAD PUSH2 0x1C8 SWAP1 PUSH1 0x1 PUSH1 0x1 PUSH1 0xA0 SHL SUB AND DUP2 JUMP JUMPDEST PUSH2 0x24A PUSH2 0x3D8 CALLDATASIZE PUSH1 0x4 PUSH2 0x2621 JUMP JUMPDEST PUSH2 0x1611 JUMP JUMPDEST PUSH1 0x0 PUSH1 0x1 PUSH1 0x1 PUSH1 0xE0 SHL SUB NOT DUP3 AND PUSH4 0x80AC58CD PUSH1 0xE0 SHL EQ DUP1 PUSH2 0x40E JUMPI POP PUSH1 0x1 PUSH1 0x1 PUSH1 0xE0 SHL SUB NOT DUP3 AND PUSH4 0x5B5E139F PUSH1 0xE0 SHL EQ JUMPDEST DUP1 PUSH2 0x429 JUMPI POP PUSH4 0x1FFC9A7 PUSH1 0xE0 SHL PUSH1 0x1 PUSH1 0x1 PUSH1 0xE0 SHL SUB NOT DUP4 AND EQ JUMPDEST SWAP1 POP JUMPDEST SWAP2 SWAP1 POP JUMP JUMPDEST PUSH1 0x60 PUSH1 0x0 DUP1 SLOAD PUSH2 0x440 SWAP1 PUSH2 0x2B5A JUMP JUMPDEST DUP1 PUSH1 0x1F ADD PUSH1 0x20 DUP1 SWAP2 DIV MUL PUSH1 0x20 ADD PUSH1 0x40 MLOAD SWAP1 DUP2 ADD PUSH1 0x40 MSTORE DUP1 SWAP3 SWAP2 SWAP1 DUP2 DUP2 MSTORE PUSH1 0x20 ADD DUP3 DUP1 SLOAD PUSH2 0x46C SWAP1 PUSH2 0x2B5A JUMP JUMPDEST DUP1 ISZERO PUSH2 0x4B9 JUMPI DUP1 PUSH1 0x1F LT PUSH2 0x48E JUMPI PUSH2 0x100 DUP1 DUP4 SLOAD DIV MUL DUP4 MSTORE SWAP2 PUSH1 0x20 ADD SWAP2 PUSH2 0x4B9 JUMP JUMPDEST DUP3 ADD SWAP2 SWAP1 PUSH1 0x0 MSTORE PUSH1 0x20 PUSH1 0x0 KECCAK256 SWAP1 JUMPDEST DUP2 SLOAD DUP2 MSTORE SWAP1 PUSH1 0x1 ADD SWAP1 PUSH1 0x20 ADD DUP1 DUP4 GT PUSH2 0x49C JUMPI DUP3 SWAP1 SUB PUSH1 0x1F AND DUP3 ADD SWAP2 JUMPDEST POP POP POP POP POP SWAP1 POP SWAP1 JUMP JUMPDEST PUSH1 0x0 PUSH2 0x4CE DUP3 PUSH2 0x182C JUMP JUMPDEST PUSH2 0x534 JUMPI PUSH1 0x40 MLOAD PUSH3 0x461BCD PUSH1 0xE5 SHL DUP2 MSTORE PUSH1 0x20 PUSH1 0x4 DUP3 ADD MSTORE PUSH1 0x2C PUSH1 0x24 DUP3 ADD MSTORE PUSH32 0x4552433732313A20617070726F76656420717565727920666F72206E6F6E6578 PUSH1 0x44 DUP3 ADD MSTORE PUSH12 0x34B9BA32B73A103A37B5B2B7 PUSH1 0xA1 SHL PUSH1 0x64 DUP3 ADD MSTORE PUSH1 0x84 ADD JUMPDEST PUSH1 0x40 MLOAD DUP1 SWAP2 SUB SWAP1 REVERT JUMPDEST POP PUSH1 0x0 SWAP1 DUP2 MSTORE PUSH1 0x4 PUSH1 0x20 MSTORE PUSH1 0x40 SWAP1 KECCAK256 SLOAD PUSH1 0x1 PUSH1 0x1 PUSH1 0xA0 SHL SUB AND SWAP1 JUMP JUMPDEST PUSH1 0x0 PUSH2 0x55B DUP3 PUSH2 0xCFC JUMP JUMPDEST SWAP1 POP DUP1 PUSH1 0x1 PUSH1 0x1 PUSH1 0xA0 SHL SUB AND DUP4 PUSH1 0x1 PUSH1 0x1 PUSH1 0xA0 SHL SUB AND EQ ISZERO PUSH2 0x5C9 JUMPI PUSH1 0x40 MLOAD PUSH3 0x461BCD PUSH1 0xE5 SHL DUP2 MSTORE PUSH1 0x20 PUSH1 0x4 DUP3 ADD MSTORE PUSH1 0x21 PUSH1 0x24 DUP3 ADD MSTORE PUSH32 0x4552433732313A20617070726F76616C20746F2063757272656E74206F776E65 PUSH1 0x44 DUP3 ADD MSTORE PUSH1 0x39 PUSH1 0xF9 SHL PUSH1 0x64 DUP3 ADD MSTORE PUSH1 0x84 ADD PUSH2 0x52B JUMP JUMPDEST CALLER PUSH1 0x1 PUSH1 0x1 PUSH1 0xA0 SHL SUB DUP3 AND EQ DUP1 PUSH2 0x5E5 JUMPI POP PUSH2 0x5E5 DUP2 CALLER PUSH2 0x376 JUMP JUMPDEST PUSH2 0x657 JUMPI PUSH1 0x40 MLOAD PUSH3 0x461BCD PUSH1 0xE5 SHL DUP2 MSTORE PUSH1 0x20 PUSH1 0x4 DUP3 ADD MSTORE PUSH1 0x38 PUSH1 0x24 DUP3 ADD MSTORE PUSH32 0x4552433732313A20617070726F76652063616C6C6572206973206E6F74206F77 PUSH1 0x44 DUP3 ADD MSTORE PUSH32 0x6E6572206E6F7220617070726F76656420666F7220616C6C0000000000000000 PUSH1 0x64 DUP3 ADD MSTORE PUSH1 0x84 ADD PUSH2 0x52B JUMP JUMPDEST PUSH2 0x661 DUP4 DUP4 PUSH2 0x1849 JUMP JUMPDEST POP POP POP JUMP JUMPDEST DUP1 PUSH2 0x671 CALLER DUP3 PUSH2 0x18B7 JUMP JUMPDEST PUSH2 0x68D JUMPI PUSH1 0x40 MLOAD PUSH3 0x461BCD PUSH1 0xE5 SHL DUP2 MSTORE PUSH1 0x4 ADD PUSH2 0x52B SWAP1 PUSH2 0x28C0 JUMP JUMPDEST PUSH1 0x0 PUSH1 0xC DUP4 DUP2 SLOAD DUP2 LT PUSH2 0x6B0 JUMPI PUSH4 0x4E487B71 PUSH1 0xE0 SHL PUSH1 0x0 MSTORE PUSH1 0x32 PUSH1 0x4 MSTORE PUSH1 0x24 PUSH1 0x0 REVERT JUMPDEST PUSH1 0x0 SWAP2 DUP3 MSTORE PUSH1 0x20 SWAP2 DUP3 SWAP1 KECCAK256 PUSH1 0x40 DUP1 MLOAD PUSH1 0x80 DUP2 ADD DUP3 MSTORE PUSH1 0x3 SWAP4 SWAP1 SWAP4 MUL SWAP1 SWAP2 ADD DUP1 SLOAD PUSH1 0x1 PUSH1 0x1 PUSH1 0xA0 SHL SUB DUP1 DUP3 AND DUP1 DUP7 MSTORE PUSH1 0x1 PUSH1 0xA0 SHL SWAP1 SWAP3 DIV PUSH1 0xFF AND ISZERO ISZERO SWAP6 DUP6 ADD SWAP6 SWAP1 SWAP6 MSTORE PUSH1 0x1 DUP3 ADD SLOAD DUP5 DUP5 ADD MSTORE PUSH1 0x2 SWAP1 SWAP2 ADD SLOAD PUSH1 0x60 DUP5 ADD DUP2 SWAP1 MSTORE PUSH1 0x8 SLOAD SWAP3 MLOAD PUSH4 0x5E104A8B PUSH1 0xE1 SHL DUP2 MSTORE PUSH1 0x4 DUP2 ADD SWAP3 SWAP1 SWAP3 MSTORE PUSH1 0x24 DUP3 ADD MSTORE SWAP2 SWAP4 POP PUSH2 0x661 SWAP3 DUP7 SWAP3 SWAP2 AND SWAP1 PUSH4 0xBC209516 SWAP1 PUSH1 0x44 ADD PUSH1 0x0 PUSH1 0x40 MLOAD DUP1 DUP4 SUB DUP2 DUP7 DUP1 EXTCODESIZE ISZERO DUP1 ISZERO PUSH2 0x751 JUMPI PUSH1 0x0 DUP1 REVERT JUMPDEST POP GAS STATICCALL ISZERO DUP1 ISZERO PUSH2 0x765 JUMPI RETURNDATASIZE PUSH1 0x0 DUP1 RETURNDATACOPY RETURNDATASIZE PUSH1 0x0 REVERT JUMPDEST POP POP POP POP PUSH1 0x40 MLOAD RETURNDATASIZE PUSH1 0x0 DUP3 RETURNDATACOPY PUSH1 0x1F RETURNDATASIZE SWAP1 DUP2 ADD PUSH1 0x1F NOT AND DUP3 ADD PUSH1 0x40 MSTORE PUSH2 0x78D SWAP2 SWAP1 DUP2 ADD SWAP1 PUSH2 0x2671 JUMP JUMPDEST PUSH2 0x19A1 JUMP JUMPDEST DUP1 PUSH2 0x79D CALLER DUP3 PUSH2 0x18B7 JUMP JUMPDEST PUSH2 0x7B9 JUMPI PUSH1 0x40 MLOAD PUSH3 0x461BCD PUSH1 0xE5 SHL DUP2 MSTORE PUSH1 0x4 ADD PUSH2 0x52B SWAP1 PUSH2 0x28C0 JUMP JUMPDEST PUSH1 0x0 PUSH1 0xC DUP4 DUP2 SLOAD DUP2 LT PUSH2 0x7DC JUMPI PUSH4 0x4E487B71 PUSH1 0xE0 SHL PUSH1 0x0 MSTORE PUSH1 0x32 PUSH1 0x4 MSTORE PUSH1 0x24 PUSH1 0x0 REVERT JUMPDEST PUSH1 0x0 SWAP2 DUP3 MSTORE PUSH1 0x20 SWAP1 SWAP2 KECCAK256 PUSH1 0x3 SWAP1 SWAP2 MUL ADD DUP1 SLOAD SWAP1 SWAP2 POP PUSH1 0x1 PUSH1 0xA0 SHL SWAP1 DIV PUSH1 0xFF AND PUSH2 0x817 JUMPI PUSH1 0x40 MLOAD PUSH3 0x461BCD PUSH1 0xE5 SHL DUP2 MSTORE PUSH1 0x4 ADD PUSH2 0x52B SWAP1 PUSH2 0x2959 JUMP JUMPDEST DUP1 SLOAD PUSH1 0x40 DUP1 MLOAD PUSH4 0x3FABE5A3 PUSH1 0xE2 SHL DUP2 MSTORE SWAP1 MLOAD PUSH1 0x1 PUSH1 0x1 PUSH1 0xA0 SHL SUB SWAP1 SWAP3 AND SWAP2 PUSH1 0x0 SWAP2 DUP4 SWAP2 PUSH4 0xFEAF968C SWAP2 PUSH1 0x4 DUP1 DUP3 ADD SWAP3 PUSH1 0xA0 SWAP3 SWAP1 SWAP2 SWAP1 DUP3 SWAP1 SUB ADD DUP2 DUP7 DUP1 EXTCODESIZE ISZERO DUP1 ISZERO PUSH2 0x860 JUMPI PUSH1 0x0 DUP1 REVERT JUMPDEST POP GAS STATICCALL ISZERO DUP1 ISZERO PUSH2 0x874 JUMPI RETURNDATASIZE PUSH1 0x0 DUP1 RETURNDATACOPY RETURNDATASIZE PUSH1 0x0 REVERT JUMPDEST POP POP POP POP PUSH1 0x40 MLOAD RETURNDATASIZE PUSH1 0x1F NOT PUSH1 0x1F DUP3 ADD AND DUP3 ADD DUP1 PUSH1 0x40 MSTORE POP DUP2 ADD SWAP1 PUSH2 0x898 SWAP2 SWAP1 PUSH2 0x26E4 JUMP JUMPDEST POP POP POP SWAP2 POP POP DUP3 PUSH1 0x1 ADD SLOAD DUP2 SGT ISZERO PUSH2 0x946 JUMPI PUSH1 0x7 SLOAD PUSH1 0x2 DUP5 ADD SLOAD PUSH1 0x1 DUP6 ADD SLOAD PUSH1 0x1 PUSH1 0x1 PUSH1 0xA0 SHL SUB SWAP1 SWAP3 AND SWAP2 PUSH4 0x224B5C72 SWAP2 CALLER SWAP2 PUSH1 0x10 SWAP2 SWAP1 PUSH2 0x8DB SWAP1 DUP8 DUP5 SHL PUSH2 0x2A13 JUMP JUMPDEST PUSH2 0x8E5 SWAP2 SWAP1 PUSH2 0x2A55 JUMP JUMPDEST PUSH1 0x40 MLOAD PUSH1 0x1 PUSH1 0x1 PUSH1 0xE0 SHL SUB NOT PUSH1 0xE0 DUP7 SWAP1 SHL AND DUP2 MSTORE PUSH1 0x1 PUSH1 0x1 PUSH1 0xA0 SHL SUB SWAP1 SWAP4 AND PUSH1 0x4 DUP5 ADD MSTORE SWAP1 SAR PUSH1 0x24 DUP3 ADD MSTORE PUSH1 0x44 ADD PUSH1 0x0 PUSH1 0x40 MLOAD DUP1 DUP4 SUB DUP2 PUSH1 0x0 DUP8 DUP1 EXTCODESIZE ISZERO DUP1 ISZERO PUSH2 0x92D JUMPI PUSH1 0x0 DUP1 REVERT JUMPDEST POP GAS CALL ISZERO DUP1 ISZERO PUSH2 0x941 JUMPI RETURNDATASIZE PUSH1 0x0 DUP1 RETURNDATACOPY RETURNDATASIZE PUSH1 0x0 REVERT JUMPDEST POP POP POP POP JUMPDEST DUP3 SLOAD PUSH1 0xFF PUSH1 0xA0 SHL NOT DUP2 AND DUP5 SSTORE PUSH1 0x1 DUP5 ADD SLOAD PUSH1 0x2 DUP6 ADD SLOAD PUSH1 0x40 DUP1 MLOAD SWAP3 DUP4 MSTORE PUSH1 0x20 DUP4 ADD SWAP2 SWAP1 SWAP2 MSTORE PUSH1 0x0 SWAP3 PUSH1 0x1 PUSH1 0x1 PUSH1 0xA0 SHL SUB AND SWAP2 DUP9 SWAP2 PUSH1 0x0 DUP1 MLOAD PUSH1 0x20 PUSH2 0x2C32 DUP4 CODECOPY DUP2 MLOAD SWAP2 MSTORE SWAP2 ADD JUMPDEST PUSH1 0x40 MLOAD DUP1 SWAP2 SUB SWAP1 LOG4 POP POP POP POP POP JUMP JUMPDEST DUP1 PUSH2 0x9A6 CALLER DUP3 PUSH2 0x18B7 JUMP JUMPDEST PUSH2 0x9C2 JUMPI PUSH1 0x40 MLOAD PUSH3 0x461BCD PUSH1 0xE5 SHL DUP2 MSTORE PUSH1 0x4 ADD PUSH2 0x52B SWAP1 PUSH2 0x28C0 JUMP JUMPDEST PUSH1 0x0 PUSH1 0xC DUP4 DUP2 SLOAD DUP2 LT PUSH2 0x9E5 JUMPI PUSH4 0x4E487B71 PUSH1 0xE0 SHL PUSH1 0x0 MSTORE PUSH1 0x32 PUSH1 0x4 MSTORE PUSH1 0x24 PUSH1 0x0 REVERT JUMPDEST PUSH1 0x0 SWAP2 DUP3 MSTORE PUSH1 0x20 SWAP1 SWAP2 KECCAK256 PUSH1 0x3 SWAP1 SWAP2 MUL ADD DUP1 SLOAD SWAP1 SWAP2 POP PUSH1 0x1 PUSH1 0xA0 SHL SWAP1 DIV PUSH1 0xFF AND ISZERO PUSH2 0xA51 JUMPI PUSH1 0x40 MLOAD PUSH3 0x461BCD PUSH1 0xE5 SHL DUP2 MSTORE PUSH1 0x20 PUSH1 0x4 DUP3 ADD MSTORE PUSH1 0x1D PUSH1 0x24 DUP3 ADD MSTORE PUSH32 0x41524D593A206D696E696F6E20697320616C72656164792061726D6564000000 PUSH1 0x44 DUP3 ADD MSTORE PUSH1 0x64 ADD PUSH2 0x52B JUMP JUMPDEST DUP1 SLOAD PUSH1 0x40 DUP1 MLOAD PUSH4 0x3FABE5A3 PUSH1 0xE2 SHL DUP2 MSTORE SWAP1 MLOAD PUSH1 0x1 PUSH1 0x1 PUSH1 0xA0 SHL SUB SWAP1 SWAP3 AND SWAP2 PUSH1 0x0 SWAP2 DUP4 SWAP2 PUSH4 0xFEAF968C SWAP2 PUSH1 0x4 DUP1 DUP3 ADD SWAP3 PUSH1 0xA0 SWAP3 SWAP1 SWAP2 SWAP1 DUP3 SWAP1 SUB ADD DUP2 DUP7 DUP1 EXTCODESIZE ISZERO DUP1 ISZERO PUSH2 0xA9A JUMPI PUSH1 0x0 DUP1 REVERT JUMPDEST POP GAS STATICCALL ISZERO DUP1 ISZERO PUSH2 0xAAE JUMPI RETURNDATASIZE PUSH1 0x0 DUP1 RETURNDATACOPY RETURNDATASIZE PUSH1 0x0 REVERT JUMPDEST POP POP POP POP PUSH1 0x40 MLOAD RETURNDATASIZE PUSH1 0x1F NOT PUSH1 0x1F DUP3 ADD AND DUP3 ADD DUP1 PUSH1 0x40 MSTORE POP DUP2 ADD SWAP1 PUSH2 0xAD2 SWAP2 SWAP1 PUSH2 0x26E4 JUMP JUMPDEST POP POP POP SWAP2 POP POP PUSH1 0x10 DUP4 PUSH1 0x2 ADD SLOAD DUP5 PUSH1 0x1 ADD SLOAD PUSH1 0x10 DUP5 SWAP1 SHL PUSH2 0xAF3 SWAP2 SWAP1 PUSH2 0x2A13 JUMP JUMPDEST PUSH2 0xAFD SWAP2 SWAP1 PUSH2 0x2A55 JUMP JUMPDEST SWAP1 SAR PUSH1 0x2 DUP5 ADD DUP2 SWAP1 SSTORE PUSH1 0x1 DUP1 DUP6 ADD DUP4 SWAP1 SSTORE DUP5 SLOAD PUSH1 0xFF PUSH1 0xA0 SHL NOT DUP2 AND PUSH1 0x1 PUSH1 0xA0 SHL OR DUP7 SSTORE PUSH1 0x40 MLOAD SWAP2 SWAP3 PUSH1 0x1 PUSH1 0x1 PUSH1 0xA0 SHL SUB SWAP1 SWAP2 AND SWAP2 DUP9 SWAP2 PUSH1 0x0 DUP1 MLOAD PUSH1 0x20 PUSH2 0x2C32 DUP4 CODECOPY DUP2 MLOAD SWAP2 MSTORE SWAP2 PUSH2 0x98C SWAP2 DUP8 DUP3 MSTORE PUSH1 0x20 DUP3 ADD MSTORE PUSH1 0x40 ADD SWAP1 JUMP JUMPDEST PUSH2 0xB5F CALLER DUP3 PUSH2 0x18B7 JUMP JUMPDEST PUSH2 0xB7B JUMPI PUSH1 0x40 MLOAD PUSH3 0x461BCD PUSH1 0xE5 SHL DUP2 MSTORE PUSH1 0x4 ADD PUSH2 0x52B SWAP1 PUSH2 0x2908 JUMP JUMPDEST PUSH2 0x661 DUP4 DUP4 DUP4 PUSH2 0x1A2C JUMP JUMPDEST DUP1 PUSH2 0xB91 CALLER DUP3 PUSH2 0x18B7 JUMP JUMPDEST PUSH2 0xBAD JUMPI PUSH1 0x40 MLOAD PUSH3 0x461BCD PUSH1 0xE5 SHL DUP2 MSTORE PUSH1 0x4 ADD PUSH2 0x52B SWAP1 PUSH2 0x28C0 JUMP JUMPDEST PUSH1 0x0 PUSH1 0xC DUP4 DUP2 SLOAD DUP2 LT PUSH2 0xBD0 JUMPI PUSH4 0x4E487B71 PUSH1 0xE0 SHL PUSH1 0x0 MSTORE PUSH1 0x32 PUSH1 0x4 MSTORE PUSH1 0x24 PUSH1 0x0 REVERT JUMPDEST PUSH1 0x0 SWAP2 DUP3 MSTORE PUSH1 0x20 SWAP1 SWAP2 KECCAK256 PUSH1 0x3 SWAP1 SWAP2 MUL ADD DUP1 SLOAD SWAP1 SWAP2 POP PUSH1 0x1 PUSH1 0xA0 SHL SWAP1 DIV PUSH1 0xFF AND PUSH2 0xC0B JUMPI PUSH1 0x40 MLOAD PUSH3 0x461BCD PUSH1 0xE5 SHL DUP2 MSTORE PUSH1 0x4 ADD PUSH2 0x52B SWAP1 PUSH2 0x2959 JUMP JUMPDEST DUP1 SLOAD PUSH1 0x40 DUP1 MLOAD PUSH4 0x3FABE5A3 PUSH1 0xE2 SHL DUP2 MSTORE SWAP1 MLOAD PUSH1 0x1 PUSH1 0x1 PUSH1 0xA0 SHL SUB SWAP1 SWAP3 AND SWAP2 PUSH1 0x0 SWAP2 DUP4 SWAP2 PUSH4 0xFEAF968C SWAP2 PUSH1 0x4 DUP1 DUP3 ADD SWAP3 PUSH1 0xA0 SWAP3 SWAP1 SWAP2 SWAP1 DUP3 SWAP1 SUB ADD DUP2 DUP7 DUP1 EXTCODESIZE ISZERO DUP1 ISZERO PUSH2 0xC54 JUMPI PUSH1 0x0 DUP1 REVERT JUMPDEST POP GAS STATICCALL ISZERO DUP1 ISZERO PUSH2 0xC68 JUMPI RETURNDATASIZE PUSH1 0x0 DUP1 RETURNDATACOPY RETURNDATASIZE PUSH1 0x0 REVERT JUMPDEST POP POP POP POP PUSH1 0x40 MLOAD RETURNDATASIZE PUSH1 0x1F NOT PUSH1 0x1F DUP3 ADD AND DUP3 ADD DUP1 PUSH1 0x40 MSTORE POP DUP2 ADD SWAP1 PUSH2 0xC8C SWAP2 SWAP1 PUSH2 0x26E4 JUMP JUMPDEST POP POP POP PUSH1 0x1 DUP6 ADD DUP2 SWAP1 SSTORE DUP5 SLOAD PUSH1 0xFF PUSH1 0xA0 SHL NOT DUP2 AND DUP7 SSTORE PUSH1 0x2 DUP7 ADD SLOAD PUSH1 0x40 MLOAD SWAP3 SWAP5 POP PUSH1 0x0 SWAP4 POP PUSH1 0x1 PUSH1 0x1 PUSH1 0xA0 SHL SUB SWAP1 SWAP2 AND SWAP2 DUP9 SWAP2 PUSH1 0x0 DUP1 MLOAD PUSH1 0x20 PUSH2 0x2C32 DUP4 CODECOPY DUP2 MLOAD SWAP2 MSTORE SWAP2 PUSH2 0x98C SWAP2 DUP8 DUP3 MSTORE PUSH1 0x20 DUP3 ADD MSTORE PUSH1 0x40 ADD SWAP1 JUMP JUMPDEST PUSH2 0x661 DUP4 DUP4 DUP4 PUSH1 0x40 MLOAD DUP1 PUSH1 0x20 ADD PUSH1 0x40 MSTORE DUP1 PUSH1 0x0 DUP2 MSTORE POP PUSH2 0x118E JUMP JUMPDEST PUSH1 0x0 DUP2 DUP2 MSTORE PUSH1 0x2 PUSH1 0x20 MSTORE PUSH1 0x40 DUP2 KECCAK256 SLOAD PUSH1 0x1 PUSH1 0x1 PUSH1 0xA0 SHL SUB AND DUP1 PUSH2 0x429 JUMPI PUSH1 0x40 MLOAD PUSH3 0x461BCD PUSH1 0xE5 SHL DUP2 MSTORE PUSH1 0x20 PUSH1 0x4 DUP3 ADD MSTORE PUSH1 0x29 PUSH1 0x24 DUP3 ADD MSTORE PUSH32 0x4552433732313A206F776E657220717565727920666F72206E6F6E6578697374 PUSH1 0x44 DUP3 ADD MSTORE PUSH9 0x32B73A103A37B5B2B7 PUSH1 0xB9 SHL PUSH1 0x64 DUP3 ADD MSTORE PUSH1 0x84 ADD PUSH2 0x52B JUMP JUMPDEST PUSH1 0x0 PUSH1 0x1 PUSH1 0x1 PUSH1 0xA0 SHL SUB DUP3 AND PUSH2 0xDDE JUMPI PUSH1 0x40 MLOAD PUSH3 0x461BCD PUSH1 0xE5 SHL DUP2 MSTORE PUSH1 0x20 PUSH1 0x4 DUP3 ADD MSTORE PUSH1 0x2A PUSH1 0x24 DUP3 ADD MSTORE PUSH32 0x4552433732313A2062616C616E636520717565727920666F7220746865207A65 PUSH1 0x44 DUP3 ADD MSTORE PUSH10 0x726F2061646472657373 PUSH1 0xB0 SHL PUSH1 0x64 DUP3 ADD MSTORE PUSH1 0x84 ADD PUSH2 0x52B JUMP JUMPDEST POP PUSH1 0x1 PUSH1 0x1 PUSH1 0xA0 SHL SUB AND PUSH1 0x0 SWAP1 DUP2 MSTORE PUSH1 0x3 PUSH1 0x20 MSTORE PUSH1 0x40 SWAP1 KECCAK256 SLOAD SWAP1 JUMP JUMPDEST PUSH1 0x60 PUSH1 0x0 PUSH2 0xE07 DUP4 PUSH2 0xD73 JUMP JUMPDEST SWAP1 POP PUSH1 0x0 DUP2 PUSH8 0xFFFFFFFFFFFFFFFF DUP2 GT ISZERO PUSH2 0xE32 JUMPI PUSH4 0x4E487B71 PUSH1 0xE0 SHL PUSH1 0x0 MSTORE PUSH1 0x41 PUSH1 0x4 MSTORE PUSH1 0x24 PUSH1 0x0 REVERT JUMPDEST PUSH1 0x40 MLOAD SWAP1 DUP1 DUP3 MSTORE DUP1 PUSH1 0x20 MUL PUSH1 0x20 ADD DUP3 ADD PUSH1 0x40 MSTORE DUP1 ISZERO PUSH2 0xE5B JUMPI DUP2 PUSH1 0x20 ADD PUSH1 0x20 DUP3 MUL DUP1 CALLDATASIZE DUP4 CALLDATACOPY ADD SWAP1 POP JUMPDEST POP SWAP1 POP PUSH1 0x0 DUP1 JUMPDEST DUP4 DUP3 LT ISZERO PUSH2 0xEE9 JUMPI PUSH2 0xE73 DUP2 PUSH2 0x182C JUMP JUMPDEST DUP1 ISZERO PUSH2 0xE98 JUMPI POP DUP6 PUSH1 0x1 PUSH1 0x1 PUSH1 0xA0 SHL SUB AND PUSH2 0xE8D DUP3 PUSH2 0xCFC JUMP JUMPDEST PUSH1 0x1 PUSH1 0x1 PUSH1 0xA0 SHL SUB AND EQ JUMPDEST ISZERO PUSH2 0xED7 JUMPI DUP1 DUP4 DUP4 DUP2 MLOAD DUP2 LT PUSH2 0xEBE JUMPI PUSH4 0x4E487B71 PUSH1 0xE0 SHL PUSH1 0x0 MSTORE PUSH1 0x32 PUSH1 0x4 MSTORE PUSH1 0x24 PUSH1 0x0 REVERT JUMPDEST PUSH1 0x20 SWAP1 DUP2 MUL SWAP2 SWAP1 SWAP2 ADD ADD MSTORE DUP2 PUSH2 0xED3 DUP2 PUSH2 0x2B95 JUMP JUMPDEST SWAP3 POP POP JUMPDEST DUP1 PUSH2 0xEE1 DUP2 PUSH2 0x2B95 JUMP JUMPDEST SWAP2 POP POP PUSH2 0xE62 JUMP JUMPDEST POP SWAP1 SWAP5 SWAP4 POP POP POP POP JUMP JUMPDEST DUP1 PUSH2 0xEFE CALLER DUP3 PUSH2 0x18B7 JUMP JUMPDEST PUSH2 0xF1A JUMPI PUSH1 0x40 MLOAD PUSH3 0x461BCD PUSH1 0xE5 SHL DUP2 MSTORE PUSH1 0x4 ADD PUSH2 0x52B SWAP1 PUSH2 0x28C0 JUMP JUMPDEST PUSH1 0x0 PUSH1 0xC DUP4 DUP2 SLOAD DUP2 LT PUSH2 0xF3D JUMPI PUSH4 0x4E487B71 PUSH1 0xE0 SHL PUSH1 0x0 MSTORE PUSH1 0x32 PUSH1 0x4 MSTORE PUSH1 0x24 PUSH1 0x0 REVERT JUMPDEST PUSH1 0x0 SWAP2 DUP3 MSTORE PUSH1 0x20 SWAP1 SWAP2 KECCAK256 PUSH1 0x3 SWAP1 SWAP2 MUL ADD DUP1 SLOAD SWAP1 SWAP2 POP PUSH1 0x1 PUSH1 0xA0 SHL SWAP1 DIV PUSH1 0xFF AND PUSH2 0xFB4 JUMPI PUSH1 0x40 MLOAD PUSH3 0x461BCD PUSH1 0xE5 SHL DUP2 MSTORE PUSH1 0x20 PUSH1 0x4 DUP3 ADD MSTORE PUSH1 0x24 DUP1 DUP3 ADD MSTORE PUSH32 0x41524D593A2063616E206F6E6C79206C696265726174652061726D6564206D69 PUSH1 0x44 DUP3 ADD MSTORE PUSH4 0x3734B7B7 PUSH1 0xE1 SHL PUSH1 0x64 DUP3 ADD MSTORE PUSH1 0x84 ADD PUSH2 0x52B JUMP JUMPDEST PUSH1 0xA SLOAD DUP2 PUSH1 0x2 ADD SLOAD SGT PUSH2 0x1018 JUMPI PUSH1 0x40 MLOAD PUSH3 0x461BCD PUSH1 0xE5 SHL DUP2 MSTORE PUSH1 0x20 PUSH1 0x4 DUP3 ADD MSTORE PUSH1 0x26 PUSH1 0x24 DUP3 ADD MSTORE PUSH32 0x41524D593A2063616E206F6E6C79206C69626572617465206865616C74687920 PUSH1 0x44 DUP3 ADD MSTORE PUSH6 0x36B4B734B7B7 PUSH1 0xD1 SHL PUSH1 0x64 DUP3 ADD MSTORE PUSH1 0x84 ADD PUSH2 0x52B JUMP JUMPDEST PUSH2 0x1021 DUP4 PUSH2 0x1BCC JUMP JUMPDEST PUSH1 0x7 SLOAD PUSH1 0xA SLOAD PUSH1 0x2 DUP4 ADD SLOAD PUSH1 0x1 PUSH1 0x1 PUSH1 0xA0 SHL SUB SWAP1 SWAP3 AND SWAP2 PUSH4 0x66CA10CA SWAP2 CALLER SWAP2 PUSH2 0x104A SWAP2 SWAP1 PUSH2 0x2AD8 JUMP JUMPDEST PUSH1 0x40 MLOAD PUSH1 0x1 PUSH1 0x1 PUSH1 0xE0 SHL SUB NOT PUSH1 0xE0 DUP6 SWAP1 SHL AND DUP2 MSTORE PUSH1 0x1 PUSH1 0x1 PUSH1 0xA0 SHL SUB SWAP1 SWAP3 AND PUSH1 0x4 DUP4 ADD MSTORE PUSH1 0x24 DUP3 ADD MSTORE PUSH1 0x44 ADD PUSH1 0x0 PUSH1 0x40 MLOAD DUP1 DUP4 SUB DUP2 PUSH1 0x0 DUP8 DUP1 EXTCODESIZE ISZERO DUP1 ISZERO PUSH2 0x1090 JUMPI PUSH1 0x0 DUP1 REVERT JUMPDEST POP GAS CALL ISZERO DUP1 ISZERO PUSH2 0x10A4 JUMPI RETURNDATASIZE PUSH1 0x0 DUP1 RETURNDATACOPY RETURNDATASIZE PUSH1 0x0 REVERT JUMPDEST POP POP POP POP POP POP POP JUMP JUMPDEST PUSH1 0x60 PUSH1 0x1 DUP1 SLOAD PUSH2 0x440 SWAP1 PUSH2 0x2B5A JUMP JUMPDEST PUSH1 0x1 PUSH1 0x1 PUSH1 0xA0 SHL SUB DUP3 AND CALLER EQ ISZERO PUSH2 0x1115 JUMPI PUSH1 0x40 MLOAD PUSH3 0x461BCD PUSH1 0xE5 SHL DUP2 MSTORE PUSH1 0x20 PUSH1 0x4 DUP3 ADD MSTORE PUSH1 0x19 PUSH1 0x24 DUP3 ADD MSTORE PUSH32 0x4552433732313A20617070726F766520746F2063616C6C657200000000000000 PUSH1 0x44 DUP3 ADD MSTORE PUSH1 0x64 ADD PUSH2 0x52B JUMP JUMPDEST CALLER PUSH1 0x0 DUP2 DUP2 MSTORE PUSH1 0x5 PUSH1 0x20 SWAP1 DUP2 MSTORE PUSH1 0x40 DUP1 DUP4 KECCAK256 PUSH1 0x1 PUSH1 0x1 PUSH1 0xA0 SHL SUB DUP8 AND DUP1 DUP6 MSTORE SWAP3 MSTORE SWAP1 SWAP2 KECCAK256 DUP1 SLOAD PUSH1 0xFF NOT AND DUP5 ISZERO ISZERO OR SWAP1 SSTORE SWAP1 PUSH1 0x1 PUSH1 0x1 PUSH1 0xA0 SHL SUB AND PUSH32 0x17307EAB39AB6107E8899845AD3D59BD9653F200F220920489CA2B5937696C31 DUP4 PUSH1 0x40 MLOAD PUSH2 0x1182 SWAP2 ISZERO ISZERO DUP2 MSTORE PUSH1 0x20 ADD SWAP1 JUMP JUMPDEST PUSH1 0x40 MLOAD DUP1 SWAP2 SUB SWAP1 LOG3 POP POP JUMP JUMPDEST PUSH2 0x1198 CALLER DUP4 PUSH2 0x18B7 JUMP JUMPDEST PUSH2 0x11B4 JUMPI PUSH1 0x40 MLOAD PUSH3 0x461BCD PUSH1 0xE5 SHL DUP2 MSTORE PUSH1 0x4 ADD PUSH2 0x52B SWAP1 PUSH2 0x2908 JUMP JUMPDEST PUSH2 0x11C0 DUP5 DUP5 DUP5 DUP5 PUSH2 0x1C0F JUMP JUMPDEST POP POP POP POP JUMP JUMPDEST PUSH1 0x60 PUSH2 0x11D1 DUP3 PUSH2 0x182C JUMP JUMPDEST PUSH2 0x11ED JUMPI PUSH1 0x40 MLOAD PUSH3 0x461BCD PUSH1 0xE5 SHL DUP2 MSTORE PUSH1 0x4 ADD PUSH2 0x52B SWAP1 PUSH2 0x2822 JUMP JUMPDEST PUSH1 0x0 PUSH1 0xC DUP4 DUP2 SLOAD DUP2 LT PUSH2 0x1210 JUMPI PUSH4 0x4E487B71 PUSH1 0xE0 SHL PUSH1 0x0 MSTORE PUSH1 0x32 PUSH1 0x4 MSTORE PUSH1 0x24 PUSH1 0x0 REVERT JUMPDEST PUSH1 0x0 SWAP2 DUP3 MSTORE PUSH1 0x20 DUP1 DUP4 KECCAK256 PUSH1 0x40 DUP1 MLOAD PUSH1 0x80 DUP2 ADD DUP3 MSTORE PUSH1 0x3 SWAP1 SWAP5 MUL SWAP1 SWAP2 ADD DUP1 SLOAD PUSH1 0x1 PUSH1 0x1 PUSH1 0xA0 SHL SUB DUP2 AND DUP6 MSTORE PUSH1 0xFF PUSH1 0x1 PUSH1 0xA0 SHL SWAP1 SWAP2 DIV AND ISZERO ISZERO SWAP3 DUP5 ADD SWAP3 SWAP1 SWAP3 MSTORE PUSH1 0x1 DUP3 ADD SLOAD SWAP1 DUP4 ADD MSTORE PUSH1 0x2 ADD SLOAD PUSH1 0x60 DUP3 ADD MSTORE SWAP2 POP PUSH2 0x126B DUP5 PUSH2 0x1C42 JUMP JUMPDEST SWAP1 POP PUSH1 0xB DUP2 MLOAD GT ISZERO PUSH2 0x1280 JUMPI SWAP2 POP PUSH2 0x42C SWAP1 POP JUMP JUMPDEST PUSH1 0x8 SLOAD DUP3 MLOAD PUSH1 0x60 DUP5 ADD MLOAD PUSH1 0x40 MLOAD PUSH4 0x5E104A8B PUSH1 0xE1 SHL DUP2 MSTORE PUSH1 0x1 PUSH1 0x1 PUSH1 0xA0 SHL SUB SWAP3 DUP4 AND PUSH1 0x4 DUP3 ADD MSTORE PUSH1 0x24 DUP2 ADD SWAP2 SWAP1 SWAP2 MSTORE SWAP2 AND SWAP1 PUSH4 0xBC209516 SWAP1 PUSH1 0x44 ADD PUSH1 0x0 PUSH1 0x40 MLOAD DUP1 DUP4 SUB DUP2 DUP7 DUP1 EXTCODESIZE ISZERO DUP1 ISZERO PUSH2 0x12D3 JUMPI PUSH1 0x0 DUP1 REVERT JUMPDEST POP GAS STATICCALL ISZERO DUP1 ISZERO PUSH2 0x12E7 JUMPI RETURNDATASIZE PUSH1 0x0 DUP1 RETURNDATACOPY RETURNDATASIZE PUSH1 0x0 REVERT JUMPDEST POP POP POP POP PUSH1 0x40 MLOAD RETURNDATASIZE PUSH1 0x0 DUP3 RETURNDATACOPY PUSH1 0x1F RETURNDATASIZE SWAP1 DUP2 ADD PUSH1 0x1F NOT AND DUP3 ADD PUSH1 0x40 MSTORE PUSH2 0x130F SWAP2 SWAP1 DUP2 ADD SWAP1 PUSH2 0x2671 JUMP JUMPDEST SWAP3 POP POP POP PUSH2 0x42C JUMP JUMPDEST PUSH1 0x0 DUP1 PUSH1 0x0 DUP1 PUSH2 0x1327 DUP6 PUSH2 0x182C JUMP JUMPDEST PUSH2 0x1343 JUMPI PUSH1 0x40 MLOAD PUSH3 0x461BCD PUSH1 0xE5 SHL DUP2 MSTORE PUSH1 0x4 ADD PUSH2 0x52B SWAP1 PUSH2 0x2822 JUMP JUMPDEST PUSH1 0x0 PUSH1 0xC DUP7 DUP2 SLOAD DUP2 LT PUSH2 0x1366 JUMPI PUSH4 0x4E487B71 PUSH1 0xE0 SHL PUSH1 0x0 MSTORE PUSH1 0x32 PUSH1 0x4 MSTORE PUSH1 0x24 PUSH1 0x0 REVERT JUMPDEST PUSH1 0x0 SWAP2 DUP3 MSTORE PUSH1 0x20 SWAP2 DUP3 SWAP1 KECCAK256 PUSH1 0x40 DUP1 MLOAD PUSH1 0x80 DUP2 ADD DUP3 MSTORE PUSH1 0x3 SWAP4 SWAP1 SWAP4 MUL SWAP1 SWAP2 ADD DUP1 SLOAD PUSH1 0x1 PUSH1 0x1 PUSH1 0xA0 SHL SUB DUP2 AND DUP1 DUP6 MSTORE PUSH1 0x1 PUSH1 0xA0 SHL SWAP1 SWAP2 DIV PUSH1 0xFF AND ISZERO ISZERO SWAP5 DUP5 ADD DUP6 SWAP1 MSTORE PUSH1 0x1 DUP3 ADD SLOAD SWAP3 DUP5 ADD DUP4 SWAP1 MSTORE PUSH1 0x2 SWAP1 SWAP2 ADD SLOAD PUSH1 0x60 SWAP1 SWAP4 ADD DUP4 SWAP1 MSTORE SWAP10 SWAP3 SWAP9 POP SWAP7 POP SWAP5 POP SWAP3 POP POP POP JUMP JUMPDEST DUP1 PUSH2 0x13D8 CALLER DUP3 PUSH2 0x18B7 JUMP JUMPDEST PUSH2 0x13F4 JUMPI PUSH1 0x40 MLOAD PUSH3 0x461BCD PUSH1 0xE5 SHL DUP2 MSTORE PUSH1 0x4 ADD PUSH2 0x52B SWAP1 PUSH2 0x28C0 JUMP JUMPDEST PUSH1 0x0 PUSH1 0xC DUP4 DUP2 SLOAD DUP2 LT PUSH2 0x1417 JUMPI PUSH4 0x4E487B71 PUSH1 0xE0 SHL PUSH1 0x0 MSTORE PUSH1 0x32 PUSH1 0x4 MSTORE PUSH1 0x24 PUSH1 0x0 REVERT JUMPDEST PUSH1 0x0 SWAP2 DUP3 MSTORE PUSH1 0x20 SWAP1 SWAP2 KECCAK256 PUSH1 0x3 SWAP1 SWAP2 MUL ADD DUP1 SLOAD SWAP1 SWAP2 POP PUSH1 0x1 PUSH1 0xA0 SHL SWAP1 DIV PUSH1 0xFF AND ISZERO PUSH2 0x1491 JUMPI PUSH1 0x40 MLOAD PUSH3 0x461BCD PUSH1 0xE5 SHL DUP2 MSTORE PUSH1 0x20 PUSH1 0x4 DUP3 ADD MSTORE PUSH1 0x25 PUSH1 0x24 DUP3 ADD MSTORE PUSH32 0x41524D593A206D696E696F6E206973206E6F7420696E20747261696E696E6720 PUSH1 0x44 DUP3 ADD MSTORE PUSH5 0x7374617465 PUSH1 0xD8 SHL PUSH1 0x64 DUP3 ADD MSTORE PUSH1 0x84 ADD PUSH2 0x52B JUMP JUMPDEST DUP1 SLOAD PUSH1 0x40 DUP1 MLOAD PUSH4 0x3FABE5A3 PUSH1 0xE2 SHL DUP2 MSTORE SWAP1 MLOAD PUSH1 0x1 PUSH1 0x1 PUSH1 0xA0 SHL SUB SWAP1 SWAP3 AND SWAP2 PUSH1 0x0 SWAP2 DUP4 SWAP2 PUSH4 0xFEAF968C SWAP2 PUSH1 0x4 DUP1 DUP3 ADD SWAP3 PUSH1 0xA0 SWAP3 SWAP1 SWAP2 SWAP1 DUP3 SWAP1 SUB ADD DUP2 DUP7 DUP1 EXTCODESIZE ISZERO DUP1 ISZERO PUSH2 0x14DA JUMPI PUSH1 0x0 DUP1 REVERT JUMPDEST POP GAS STATICCALL ISZERO DUP1 ISZERO PUSH2 0x14EE JUMPI RETURNDATASIZE PUSH1 0x0 DUP1 RETURNDATACOPY RETURNDATASIZE PUSH1 0x0 REVERT JUMPDEST POP POP POP POP PUSH1 0x40 MLOAD RETURNDATASIZE PUSH1 0x1F NOT PUSH1 0x1F DUP3 ADD AND DUP3 ADD DUP1 PUSH1 0x40 MSTORE POP DUP2 ADD SWAP1 PUSH2 0x1512 SWAP2 SWAP1 PUSH2 0x26E4 JUMP JUMPDEST POP POP POP SWAP2 POP POP DUP3 PUSH1 0x1 ADD SLOAD DUP2 SLT ISZERO PUSH2 0x15C1 JUMPI PUSH1 0x7 SLOAD PUSH1 0x2 DUP5 ADD SLOAD PUSH1 0x1 DUP6 ADD SLOAD PUSH1 0x1 PUSH1 0x1 PUSH1 0xA0 SHL SUB SWAP1 SWAP3 AND SWAP2 PUSH4 0x224B5C72 SWAP2 CALLER SWAP2 PUSH1 0x10 SWAP2 SWAP1 PUSH2 0x1556 SWAP1 DUP8 SWAP1 DUP5 SHL PUSH2 0x2A13 JUMP JUMPDEST PUSH2 0x1560 SWAP2 SWAP1 PUSH2 0x2A55 JUMP JUMPDEST PUSH1 0x40 MLOAD PUSH1 0x1 PUSH1 0x1 PUSH1 0xE0 SHL SUB NOT PUSH1 0xE0 DUP7 SWAP1 SHL AND DUP2 MSTORE PUSH1 0x1 PUSH1 0x1 PUSH1 0xA0 SHL SUB SWAP1 SWAP4 AND PUSH1 0x4 DUP5 ADD MSTORE SWAP1 SAR PUSH1 0x24 DUP3 ADD MSTORE PUSH1 0x44 ADD PUSH1 0x0 PUSH1 0x40 MLOAD DUP1 DUP4 SUB DUP2 PUSH1 0x0 DUP8 DUP1 EXTCODESIZE ISZERO DUP1 ISZERO PUSH2 0x15A8 JUMPI PUSH1 0x0 DUP1 REVERT JUMPDEST POP GAS CALL ISZERO DUP1 ISZERO PUSH2 0x15BC JUMPI RETURNDATASIZE PUSH1 0x0 DUP1 RETURNDATACOPY RETURNDATASIZE PUSH1 0x0 REVERT JUMPDEST POP POP POP POP JUMPDEST DUP3 SLOAD PUSH1 0xFF PUSH1 0xA0 SHL NOT DUP2 AND PUSH1 0x1 PUSH1 0xA0 SHL OR DUP5 SSTORE PUSH1 0x1 DUP5 DUP2 ADD SLOAD PUSH1 0x2 DUP7 ADD SLOAD PUSH1 0x40 MLOAD SWAP3 SWAP4 PUSH1 0x1 PUSH1 0x1 PUSH1 0xA0 SHL SUB AND SWAP3 DUP10 SWAP3 PUSH1 0x0 DUP1 MLOAD PUSH1 0x20 PUSH2 0x2C32 DUP4 CODECOPY DUP2 MLOAD SWAP2 MSTORE SWAP3 PUSH2 0x98C SWAP3 SWAP2 DUP3 MSTORE PUSH1 0x20 DUP3 ADD MSTORE PUSH1 0x40 ADD SWAP1 JUMP JUMPDEST PUSH1 0x0 DUP1 PUSH2 0x161D DUP4 PUSH2 0x1DB2 JUMP JUMPDEST SWAP1 POP PUSH1 0x1 PUSH1 0x1 PUSH1 0xA0 SHL SUB DUP2 AND PUSH2 0x166C JUMPI PUSH1 0x40 MLOAD PUSH3 0x461BCD PUSH1 0xE5 SHL DUP2 MSTORE PUSH1 0x20 PUSH1 0x4 DUP3 ADD MSTORE PUSH1 0x14 PUSH1 0x24 DUP3 ADD MSTORE PUSH20 0x82A49AB27440D2DCECC2D8D2C840C4E4C2DCC6D PUSH1 0x63 SHL PUSH1 0x44 DUP3 ADD MSTORE PUSH1 0x64 ADD PUSH2 0x52B JUMP JUMPDEST PUSH1 0x0 DUP2 SWAP1 POP PUSH1 0x0 DUP2 PUSH1 0x1 PUSH1 0x1 PUSH1 0xA0 SHL SUB AND PUSH4 0xFEAF968C PUSH1 0x40 MLOAD DUP2 PUSH4 0xFFFFFFFF AND PUSH1 0xE0 SHL DUP2 MSTORE PUSH1 0x4 ADD PUSH1 0xA0 PUSH1 0x40 MLOAD DUP1 DUP4 SUB DUP2 DUP7 DUP1 EXTCODESIZE ISZERO DUP1 ISZERO PUSH2 0x16AC JUMPI PUSH1 0x0 DUP1 REVERT JUMPDEST POP GAS STATICCALL ISZERO DUP1 ISZERO PUSH2 0x16C0 JUMPI RETURNDATASIZE PUSH1 0x0 DUP1 RETURNDATACOPY RETURNDATASIZE PUSH1 0x0 REVERT JUMPDEST POP POP POP POP PUSH1 0x40 MLOAD RETURNDATASIZE PUSH1 0x1F NOT PUSH1 0x1F DUP3 ADD AND DUP3 ADD DUP1 PUSH1 0x40 MSTORE POP DUP2 ADD SWAP1 PUSH2 0x16E4 SWAP2 SWAP1 PUSH2 0x26E4 JUMP JUMPDEST POP POP POP SWAP2 POP POP PUSH1 0x0 PUSH1 0x9 SLOAD SWAP1 POP PUSH2 0x16FB CALLER DUP3 PUSH2 0x1EB5 JUMP JUMPDEST PUSH1 0x40 DUP1 MLOAD PUSH1 0x80 DUP2 ADD DUP3 MSTORE PUSH1 0x1 PUSH1 0x1 PUSH1 0xA0 SHL SUB DUP1 DUP8 AND DUP1 DUP4 MSTORE PUSH1 0x0 PUSH1 0x20 DUP5 ADD DUP2 DUP2 MSTORE DUP5 DUP7 ADD DUP9 DUP2 MSTORE PUSH1 0xA DUP1 SLOAD PUSH1 0x60 DUP9 ADD SWAP1 DUP2 MSTORE PUSH1 0xC DUP1 SLOAD PUSH1 0x1 DUP2 ADD DUP3 SSTORE SWAP1 DUP7 MSTORE SWAP8 MLOAD PUSH1 0x3 SWAP1 SWAP9 MUL PUSH32 0xDF6966C971051C3D54EC59162606531493A51404A002842F56009D7E5CF4A8C7 DUP2 ADD DUP1 SLOAD SWAP6 MLOAD ISZERO ISZERO PUSH1 0x1 PUSH1 0xA0 SHL MUL PUSH1 0x1 PUSH1 0x1 PUSH1 0xA8 SHL SUB NOT SWAP1 SWAP7 AND SWAP10 SWAP1 SWAP9 AND SWAP9 SWAP1 SWAP9 OR SWAP4 SWAP1 SWAP4 OR SWAP1 SWAP6 SSTORE MLOAD PUSH32 0xDF6966C971051C3D54EC59162606531493A51404A002842F56009D7E5CF4A8C8 DUP7 ADD SSTORE MLOAD PUSH32 0xDF6966C971051C3D54EC59162606531493A51404A002842F56009D7E5CF4A8C9 SWAP1 SWAP5 ADD SWAP4 SWAP1 SWAP4 SSTORE SWAP1 SLOAD SWAP3 MLOAD SWAP2 SWAP3 SWAP1 SWAP2 DUP5 SWAP2 PUSH1 0x0 DUP1 MLOAD PUSH1 0x20 PUSH2 0x2C32 DUP4 CODECOPY DUP2 MLOAD SWAP2 MSTORE SWAP2 PUSH2 0x1805 SWAP2 DUP9 DUP3 MSTORE PUSH1 0x20 DUP3 ADD MSTORE PUSH1 0x40 ADD SWAP1 JUMP JUMPDEST PUSH1 0x40 MLOAD DUP1 SWAP2 SUB SWAP1 LOG4 PUSH1 0x9 DUP1 SLOAD SWAP1 PUSH1 0x0 PUSH2 0x181D DUP4 PUSH2 0x2B95 JUMP JUMPDEST SWAP1 SWAP2 SSTORE POP SWAP1 SWAP7 SWAP6 POP POP POP POP POP POP JUMP JUMPDEST PUSH1 0x0 SWAP1 DUP2 MSTORE PUSH1 0x2 PUSH1 0x20 MSTORE PUSH1 0x40 SWAP1 KECCAK256 SLOAD PUSH1 0x1 PUSH1 0x1 PUSH1 0xA0 SHL SUB AND ISZERO ISZERO SWAP1 JUMP JUMPDEST PUSH1 0x0 DUP2 DUP2 MSTORE PUSH1 0x4 PUSH1 0x20 MSTORE PUSH1 0x40 SWAP1 KECCAK256 DUP1 SLOAD PUSH1 0x1 PUSH1 0x1 PUSH1 0xA0 SHL SUB NOT AND PUSH1 0x1 PUSH1 0x1 PUSH1 0xA0 SHL SUB DUP5 AND SWAP1 DUP2 OR SWAP1 SWAP2 SSTORE DUP2 SWAP1 PUSH2 0x187E DUP3 PUSH2 0xCFC JUMP JUMPDEST PUSH1 0x1 PUSH1 0x1 PUSH1 0xA0 SHL SUB AND PUSH32 0x8C5BE1E5EBEC7D5BD14F71427D1E84F3DD0314C0F7B2291E5B200AC8C7C3B925 PUSH1 0x40 MLOAD PUSH1 0x40 MLOAD DUP1 SWAP2 SUB SWAP1 LOG4 POP POP JUMP JUMPDEST PUSH1 0x0 PUSH2 0x18C2 DUP3 PUSH2 0x182C JUMP JUMPDEST PUSH2 0x1923 JUMPI PUSH1 0x40 MLOAD PUSH3 0x461BCD PUSH1 0xE5 SHL DUP2 MSTORE PUSH1 0x20 PUSH1 0x4 DUP3 ADD MSTORE PUSH1 0x2C PUSH1 0x24 DUP3 ADD MSTORE PUSH32 0x4552433732313A206F70657261746F7220717565727920666F72206E6F6E6578 PUSH1 0x44 DUP3 ADD MSTORE PUSH12 0x34B9BA32B73A103A37B5B2B7 PUSH1 0xA1 SHL PUSH1 0x64 DUP3 ADD MSTORE PUSH1 0x84 ADD PUSH2 0x52B JUMP JUMPDEST PUSH1 0x0 PUSH2 0x192E DUP4 PUSH2 0xCFC JUMP JUMPDEST SWAP1 POP DUP1 PUSH1 0x1 PUSH1 0x1 PUSH1 0xA0 SHL SUB AND DUP5 PUSH1 0x1 PUSH1 0x1 PUSH1 0xA0 SHL SUB AND EQ DUP1 PUSH2 0x1969 JUMPI POP DUP4 PUSH1 0x1 PUSH1 0x1 PUSH1 0xA0 SHL SUB AND PUSH2 0x195E DUP5 PUSH2 0x4C3 JUMP JUMPDEST PUSH1 0x1 PUSH1 0x1 PUSH1 0xA0 SHL SUB AND EQ JUMPDEST DUP1 PUSH2 0x1999 JUMPI POP PUSH1 0x1 PUSH1 0x1 PUSH1 0xA0 SHL SUB DUP1 DUP3 AND PUSH1 0x0 SWAP1 DUP2 MSTORE PUSH1 0x5 PUSH1 0x20 SWAP1 DUP2 MSTORE PUSH1 0x40 DUP1 DUP4 KECCAK256 SWAP4 DUP9 AND DUP4 MSTORE SWAP3 SWAP1 MSTORE KECCAK256 SLOAD PUSH1 0xFF AND JUMPDEST SWAP5 SWAP4 POP POP POP POP JUMP JUMPDEST PUSH2 0x19AA DUP3 PUSH2 0x182C JUMP JUMPDEST PUSH2 0x1A0D JUMPI PUSH1 0x40 MLOAD PUSH3 0x461BCD PUSH1 0xE5 SHL DUP2 MSTORE PUSH1 0x20 PUSH1 0x4 DUP3 ADD MSTORE PUSH1 0x2E PUSH1 0x24 DUP3 ADD MSTORE PUSH32 0x45524337323155524953746F726167653A2055524920736574206F66206E6F6E PUSH1 0x44 DUP3 ADD MSTORE PUSH14 0x32BC34B9BA32B73A103A37B5B2B7 PUSH1 0x91 SHL PUSH1 0x64 DUP3 ADD MSTORE PUSH1 0x84 ADD PUSH2 0x52B JUMP JUMPDEST PUSH1 0x0 DUP3 DUP2 MSTORE PUSH1 0x6 PUSH1 0x20 SWAP1 DUP2 MSTORE PUSH1 0x40 SWAP1 SWAP2 KECCAK256 DUP3 MLOAD PUSH2 0x661 SWAP3 DUP5 ADD SWAP1 PUSH2 0x2383 JUMP JUMPDEST DUP3 PUSH1 0x1 PUSH1 0x1 PUSH1 0xA0 SHL SUB AND PUSH2 0x1A3F DUP3 PUSH2 0xCFC JUMP JUMPDEST PUSH1 0x1 PUSH1 0x1 PUSH1 0xA0 SHL SUB AND EQ PUSH2 0x1AA7 JUMPI PUSH1 0x40 MLOAD PUSH3 0x461BCD PUSH1 0xE5 SHL DUP2 MSTORE PUSH1 0x20 PUSH1 0x4 DUP3 ADD MSTORE PUSH1 0x29 PUSH1 0x24 DUP3 ADD MSTORE PUSH32 0x4552433732313A207472616E73666572206F6620746F6B656E20746861742069 PUSH1 0x44 DUP3 ADD MSTORE PUSH9 0x39903737BA1037BBB7 PUSH1 0xB9 SHL PUSH1 0x64 DUP3 ADD MSTORE PUSH1 0x84 ADD PUSH2 0x52B JUMP JUMPDEST PUSH1 0x1 PUSH1 0x1 PUSH1 0xA0 SHL SUB DUP3 AND PUSH2 0x1B09 JUMPI PUSH1 0x40 MLOAD PUSH3 0x461BCD PUSH1 0xE5 SHL DUP2 MSTORE PUSH1 0x20 PUSH1 0x4 DUP3 ADD MSTORE PUSH1 0x24 DUP1 DUP3 ADD MSTORE PUSH32 0x4552433732313A207472616E7366657220746F20746865207A65726F20616464 PUSH1 0x44 DUP3 ADD MSTORE PUSH4 0x72657373 PUSH1 0xE0 SHL PUSH1 0x64 DUP3 ADD MSTORE PUSH1 0x84 ADD PUSH2 0x52B JUMP JUMPDEST PUSH2 0x1B14 PUSH1 0x0 DUP3 PUSH2 0x1849 JUMP JUMPDEST PUSH1 0x1 PUSH1 0x1 PUSH1 0xA0 SHL SUB DUP4 AND PUSH1 0x0 SWAP1 DUP2 MSTORE PUSH1 0x3 PUSH1 0x20 MSTORE PUSH1 0x40 DUP2 KECCAK256 DUP1 SLOAD PUSH1 0x1 SWAP3 SWAP1 PUSH2 0x1B3D SWAP1 DUP5 SWAP1 PUSH2 0x2B17 JUMP JUMPDEST SWAP1 SWAP2 SSTORE POP POP PUSH1 0x1 PUSH1 0x1 PUSH1 0xA0 SHL SUB DUP3 AND PUSH1 0x0 SWAP1 DUP2 MSTORE PUSH1 0x3 PUSH1 0x20 MSTORE PUSH1 0x40 DUP2 KECCAK256 DUP1 SLOAD PUSH1 0x1 SWAP3 SWAP1 PUSH2 0x1B6B SWAP1 DUP5 SWAP1 PUSH2 0x29FB JUMP JUMPDEST SWAP1 SWAP2 SSTORE POP POP PUSH1 0x0 DUP2 DUP2 MSTORE PUSH1 0x2 PUSH1 0x20 MSTORE PUSH1 0x40 DUP1 DUP3 KECCAK256 DUP1 SLOAD PUSH1 0x1 PUSH1 0x1 PUSH1 0xA0 SHL SUB NOT AND PUSH1 0x1 PUSH1 0x1 PUSH1 0xA0 SHL SUB DUP7 DUP2 AND SWAP2 DUP3 OR SWAP1 SWAP3 SSTORE SWAP2 MLOAD DUP5 SWAP4 SWAP2 DUP8 AND SWAP2 PUSH32 0xDDF252AD1BE2C89B69C2B068FC378DAA952BA7F163C4A11628F55A4DF523B3EF SWAP2 LOG4 POP POP POP JUMP JUMPDEST PUSH2 0x1BD5 DUP2 PUSH2 0x1FE8 JUMP JUMPDEST PUSH1 0x0 DUP2 DUP2 MSTORE PUSH1 0x6 PUSH1 0x20 MSTORE PUSH1 0x40 SWAP1 KECCAK256 DUP1 SLOAD PUSH2 0x1BEE SWAP1 PUSH2 0x2B5A JUMP JUMPDEST ISZERO SWAP1 POP PUSH2 0x1C0C JUMPI PUSH1 0x0 DUP2 DUP2 MSTORE PUSH1 0x6 PUSH1 0x20 MSTORE PUSH1 0x40 DUP2 KECCAK256 PUSH2 0x1C0C SWAP2 PUSH2 0x2407 JUMP JUMPDEST POP JUMP JUMPDEST PUSH2 0x1C1A DUP5 DUP5 DUP5 PUSH2 0x1A2C JUMP JUMPDEST PUSH2 0x1C26 DUP5 DUP5 DUP5 DUP5 PUSH2 0x2083 JUMP JUMPDEST PUSH2 0x11C0 JUMPI PUSH1 0x40 MLOAD PUSH3 0x461BCD PUSH1 0xE5 SHL DUP2 MSTORE PUSH1 0x4 ADD PUSH2 0x52B SWAP1 PUSH2 0x286E JUMP JUMPDEST PUSH1 0x60 PUSH2 0x1C4D DUP3 PUSH2 0x182C JUMP JUMPDEST PUSH2 0x1CB3 JUMPI PUSH1 0x40 MLOAD PUSH3 0x461BCD PUSH1 0xE5 SHL DUP2 MSTORE PUSH1 0x20 PUSH1 0x4 DUP3 ADD MSTORE PUSH1 0x31 PUSH1 0x24 DUP3 ADD MSTORE PUSH32 0x45524337323155524953746F726167653A2055524920717565727920666F7220 PUSH1 0x44 DUP3 ADD MSTORE PUSH17 0x3737B732BC34B9BA32B73A103A37B5B2B7 PUSH1 0x79 SHL PUSH1 0x64 DUP3 ADD MSTORE PUSH1 0x84 ADD PUSH2 0x52B JUMP JUMPDEST PUSH1 0x0 DUP3 DUP2 MSTORE PUSH1 0x6 PUSH1 0x20 MSTORE PUSH1 0x40 DUP2 KECCAK256 DUP1 SLOAD PUSH2 0x1CCC SWAP1 PUSH2 0x2B5A JUMP JUMPDEST DUP1 PUSH1 0x1F ADD PUSH1 0x20 DUP1 SWAP2 DIV MUL PUSH1 0x20 ADD PUSH1 0x40 MLOAD SWAP1 DUP2 ADD PUSH1 0x40 MSTORE DUP1 SWAP3 SWAP2 SWAP1 DUP2 DUP2 MSTORE PUSH1 0x20 ADD DUP3 DUP1 SLOAD PUSH2 0x1CF8 SWAP1 PUSH2 0x2B5A JUMP JUMPDEST DUP1 ISZERO PUSH2 0x1D45 JUMPI DUP1 PUSH1 0x1F LT PUSH2 0x1D1A JUMPI PUSH2 0x100 DUP1 DUP4 SLOAD DIV MUL DUP4 MSTORE SWAP2 PUSH1 0x20 ADD SWAP2 PUSH2 0x1D45 JUMP JUMPDEST DUP3 ADD SWAP2 SWAP1 PUSH1 0x0 MSTORE PUSH1 0x20 PUSH1 0x0 KECCAK256 SWAP1 JUMPDEST DUP2 SLOAD DUP2 MSTORE SWAP1 PUSH1 0x1 ADD SWAP1 PUSH1 0x20 ADD DUP1 DUP4 GT PUSH2 0x1D28 JUMPI DUP3 SWAP1 SUB PUSH1 0x1F AND DUP3 ADD SWAP2 JUMPDEST POP POP POP POP POP SWAP1 POP PUSH1 0x0 PUSH2 0x1D63 PUSH1 0x40 DUP1 MLOAD PUSH1 0x20 DUP2 ADD SWAP1 SWAP2 MSTORE PUSH1 0x0 DUP2 MSTORE SWAP1 JUMP JUMPDEST SWAP1 POP DUP1 MLOAD PUSH1 0x0 EQ ISZERO PUSH2 0x1D77 JUMPI POP SWAP1 POP PUSH2 0x42C JUMP JUMPDEST DUP2 MLOAD ISZERO PUSH2 0x1DA9 JUMPI DUP1 DUP3 PUSH1 0x40 MLOAD PUSH1 0x20 ADD PUSH2 0x1D91 SWAP3 SWAP2 SWAP1 PUSH2 0x275F JUMP JUMPDEST PUSH1 0x40 MLOAD PUSH1 0x20 DUP2 DUP4 SUB SUB DUP2 MSTORE SWAP1 PUSH1 0x40 MSTORE SWAP3 POP POP POP PUSH2 0x42C JUMP JUMPDEST PUSH2 0x1999 DUP5 PUSH2 0x2190 JUMP JUMPDEST PUSH1 0xB SLOAD PUSH1 0x40 MLOAD PUSH4 0x178B8BF PUSH1 0xE0 SHL DUP2 MSTORE PUSH1 0x4 DUP2 ADD DUP4 SWAP1 MSTORE PUSH1 0x0 SWAP2 DUP3 SWAP2 PUSH1 0x1 PUSH1 0x1 PUSH1 0xA0 SHL SUB SWAP1 SWAP2 AND SWAP1 PUSH4 0x178B8BF SWAP1 PUSH1 0x24 ADD PUSH1 0x20 PUSH1 0x40 MLOAD DUP1 DUP4 SUB DUP2 DUP7 DUP1 EXTCODESIZE ISZERO DUP1 ISZERO PUSH2 0x1DFB JUMPI PUSH1 0x0 DUP1 REVERT JUMPDEST POP GAS STATICCALL ISZERO DUP1 ISZERO PUSH2 0x1E0F JUMPI RETURNDATASIZE PUSH1 0x0 DUP1 RETURNDATACOPY RETURNDATASIZE PUSH1 0x0 REVERT JUMPDEST POP POP POP POP PUSH1 0x40 MLOAD RETURNDATASIZE PUSH1 0x1F NOT PUSH1 0x1F DUP3 ADD AND DUP3 ADD DUP1 PUSH1 0x40 MSTORE POP DUP2 ADD SWAP1 PUSH2 0x1E33 SWAP2 SWAP1 PUSH2 0x248A JUMP JUMPDEST PUSH1 0x40 MLOAD PUSH4 0x1D9DABEF PUSH1 0xE1 SHL DUP2 MSTORE PUSH1 0x4 DUP2 ADD DUP6 SWAP1 MSTORE SWAP1 SWAP2 POP PUSH1 0x1 PUSH1 0x1 PUSH1 0xA0 SHL SUB DUP3 AND SWAP1 PUSH4 0x3B3B57DE SWAP1 PUSH1 0x24 ADD PUSH1 0x20 PUSH1 0x40 MLOAD DUP1 DUP4 SUB DUP2 DUP7 DUP1 EXTCODESIZE ISZERO DUP1 ISZERO PUSH2 0x1E76 JUMPI PUSH1 0x0 DUP1 REVERT JUMPDEST POP GAS STATICCALL ISZERO DUP1 ISZERO PUSH2 0x1E8A JUMPI RETURNDATASIZE PUSH1 0x0 DUP1 RETURNDATACOPY RETURNDATASIZE PUSH1 0x0 REVERT JUMPDEST POP POP POP POP PUSH1 0x40 MLOAD RETURNDATASIZE PUSH1 0x1F NOT PUSH1 0x1F DUP3 ADD AND DUP3 ADD DUP1 PUSH1 0x40 MSTORE POP DUP2 ADD SWAP1 PUSH2 0x1EAE SWAP2 SWAP1 PUSH2 0x248A JUMP JUMPDEST SWAP4 SWAP3 POP POP POP JUMP JUMPDEST PUSH1 0x1 PUSH1 0x1 PUSH1 0xA0 SHL SUB DUP3 AND PUSH2 0x1F0B JUMPI PUSH1 0x40 MLOAD PUSH3 0x461BCD PUSH1 0xE5 SHL DUP2 MSTORE PUSH1 0x20 PUSH1 0x4 DUP3 ADD DUP2 SWAP1 MSTORE PUSH1 0x24 DUP3 ADD MSTORE PUSH32 0x4552433732313A206D696E7420746F20746865207A65726F2061646472657373 PUSH1 0x44 DUP3 ADD MSTORE PUSH1 0x64 ADD PUSH2 0x52B JUMP JUMPDEST PUSH2 0x1F14 DUP2 PUSH2 0x182C JUMP JUMPDEST ISZERO PUSH2 0x1F61 JUMPI PUSH1 0x40 MLOAD PUSH3 0x461BCD PUSH1 0xE5 SHL DUP2 MSTORE PUSH1 0x20 PUSH1 0x4 DUP3 ADD MSTORE PUSH1 0x1C PUSH1 0x24 DUP3 ADD MSTORE PUSH32 0x4552433732313A20746F6B656E20616C7265616479206D696E74656400000000 PUSH1 0x44 DUP3 ADD MSTORE PUSH1 0x64 ADD PUSH2 0x52B JUMP JUMPDEST PUSH1 0x1 PUSH1 0x1 PUSH1 0xA0 SHL SUB DUP3 AND PUSH1 0x0 SWAP1 DUP2 MSTORE PUSH1 0x3 PUSH1 0x20 MSTORE PUSH1 0x40 DUP2 KECCAK256 DUP1 SLOAD PUSH1 0x1 SWAP3 SWAP1 PUSH2 0x1F8A SWAP1 DUP5 SWAP1 PUSH2 0x29FB JUMP JUMPDEST SWAP1 SWAP2 SSTORE POP POP PUSH1 0x0 DUP2 DUP2 MSTORE PUSH1 0x2 PUSH1 0x20 MSTORE PUSH1 0x40 DUP1 DUP3 KECCAK256 DUP1 SLOAD PUSH1 0x1 PUSH1 0x1 PUSH1 0xA0 SHL SUB NOT AND PUSH1 0x1 PUSH1 0x1 PUSH1 0xA0 SHL SUB DUP7 AND SWAP1 DUP2 OR SWAP1 SWAP2 SSTORE SWAP1 MLOAD DUP4 SWAP3 SWAP1 PUSH32 0xDDF252AD1BE2C89B69C2B068FC378DAA952BA7F163C4A11628F55A4DF523B3EF SWAP1 DUP3 SWAP1 LOG4 POP POP JUMP JUMPDEST PUSH1 0x0 PUSH2 0x1FF3 DUP3 PUSH2 0xCFC JUMP JUMPDEST SWAP1 POP PUSH2 0x2000 PUSH1 0x0 DUP4 PUSH2 0x1849 JUMP JUMPDEST PUSH1 0x1 PUSH1 0x1 PUSH1 0xA0 SHL SUB DUP2 AND PUSH1 0x0 SWAP1 DUP2 MSTORE PUSH1 0x3 PUSH1 0x20 MSTORE PUSH1 0x40 DUP2 KECCAK256 DUP1 SLOAD PUSH1 0x1 SWAP3 SWAP1 PUSH2 0x2029 SWAP1 DUP5 SWAP1 PUSH2 0x2B17 JUMP JUMPDEST SWAP1 SWAP2 SSTORE POP POP PUSH1 0x0 DUP3 DUP2 MSTORE PUSH1 0x2 PUSH1 0x20 MSTORE PUSH1 0x40 DUP1 DUP3 KECCAK256 DUP1 SLOAD PUSH1 0x1 PUSH1 0x1 PUSH1 0xA0 SHL SUB NOT AND SWAP1 SSTORE MLOAD DUP4 SWAP2 SWAP1 PUSH1 0x1 PUSH1 0x1 PUSH1 0xA0 SHL SUB DUP5 AND SWAP1 PUSH32 0xDDF252AD1BE2C89B69C2B068FC378DAA952BA7F163C4A11628F55A4DF523B3EF SWAP1 DUP4 SWAP1 LOG4 POP POP JUMP JUMPDEST PUSH1 0x0 PUSH1 0x1 PUSH1 0x1 PUSH1 0xA0 SHL SUB DUP5 AND EXTCODESIZE ISZERO PUSH2 0x2185 JUMPI PUSH1 0x40 MLOAD PUSH4 0xA85BD01 PUSH1 0xE1 SHL DUP2 MSTORE PUSH1 0x1 PUSH1 0x1 PUSH1 0xA0 SHL SUB DUP6 AND SWAP1 PUSH4 0x150B7A02 SWAP1 PUSH2 0x20C7 SWAP1 CALLER SWAP1 DUP10 SWAP1 DUP9 SWAP1 DUP9 SWAP1 PUSH1 0x4 ADD PUSH2 0x278E JUMP JUMPDEST PUSH1 0x20 PUSH1 0x40 MLOAD DUP1 DUP4 SUB DUP2 PUSH1 0x0 DUP8 DUP1 EXTCODESIZE ISZERO DUP1 ISZERO PUSH2 0x20E1 JUMPI PUSH1 0x0 DUP1 REVERT JUMPDEST POP GAS CALL SWAP3 POP POP POP DUP1 ISZERO PUSH2 0x2111 JUMPI POP PUSH1 0x40 DUP1 MLOAD PUSH1 0x1F RETURNDATASIZE SWAP1 DUP2 ADD PUSH1 0x1F NOT AND DUP3 ADD SWAP1 SWAP3 MSTORE PUSH2 0x210E SWAP2 DUP2 ADD SWAP1 PUSH2 0x2655 JUMP JUMPDEST PUSH1 0x1 JUMPDEST PUSH2 0x216B JUMPI RETURNDATASIZE DUP1 DUP1 ISZERO PUSH2 0x213F JUMPI PUSH1 0x40 MLOAD SWAP2 POP PUSH1 0x1F NOT PUSH1 0x3F RETURNDATASIZE ADD AND DUP3 ADD PUSH1 0x40 MSTORE RETURNDATASIZE DUP3 MSTORE RETURNDATASIZE PUSH1 0x0 PUSH1 0x20 DUP5 ADD RETURNDATACOPY PUSH2 0x2144 JUMP JUMPDEST PUSH1 0x60 SWAP2 POP JUMPDEST POP DUP1 MLOAD PUSH2 0x2163 JUMPI PUSH1 0x40 MLOAD PUSH3 0x461BCD PUSH1 0xE5 SHL DUP2 MSTORE PUSH1 0x4 ADD PUSH2 0x52B SWAP1 PUSH2 0x286E JUMP JUMPDEST DUP1 MLOAD DUP2 PUSH1 0x20 ADD REVERT JUMPDEST PUSH1 0x1 PUSH1 0x1 PUSH1 0xE0 SHL SUB NOT AND PUSH4 0xA85BD01 PUSH1 0xE1 SHL EQ SWAP1 POP PUSH2 0x1999 JUMP JUMPDEST POP PUSH1 0x1 SWAP5 SWAP4 POP POP POP POP JUMP JUMPDEST PUSH1 0x60 PUSH2 0x219B DUP3 PUSH2 0x182C JUMP JUMPDEST PUSH2 0x21FF JUMPI PUSH1 0x40 MLOAD PUSH3 0x461BCD PUSH1 0xE5 SHL DUP2 MSTORE PUSH1 0x20 PUSH1 0x4 DUP3 ADD MSTORE PUSH1 0x2F PUSH1 0x24 DUP3 ADD MSTORE PUSH32 0x4552433732314D657461646174613A2055524920717565727920666F72206E6F PUSH1 0x44 DUP3 ADD MSTORE PUSH15 0x3732BC34B9BA32B73A103A37B5B2B7 PUSH1 0x89 SHL PUSH1 0x64 DUP3 ADD MSTORE PUSH1 0x84 ADD PUSH2 0x52B JUMP JUMPDEST PUSH1 0x0 PUSH2 0x2216 PUSH1 0x40 DUP1 MLOAD PUSH1 0x20 DUP2 ADD SWAP1 SWAP2 MSTORE PUSH1 0x0 DUP2 MSTORE SWAP1 JUMP JUMPDEST SWAP1 POP PUSH1 0x0 DUP2 MLOAD GT PUSH2 0x2236 JUMPI PUSH1 0x40 MLOAD DUP1 PUSH1 0x20 ADD PUSH1 0x40 MSTORE DUP1 PUSH1 0x0 DUP2 MSTORE POP PUSH2 0x1EAE JUMP JUMPDEST DUP1 PUSH2 0x2240 DUP5 PUSH2 0x2268 JUMP JUMPDEST PUSH1 0x40 MLOAD PUSH1 0x20 ADD PUSH2 0x2251 SWAP3 SWAP2 SWAP1 PUSH2 0x275F JUMP JUMPDEST PUSH1 0x40 MLOAD PUSH1 0x20 DUP2 DUP4 SUB SUB DUP2 MSTORE SWAP1 PUSH1 0x40 MSTORE SWAP2 POP POP SWAP2 SWAP1 POP JUMP JUMPDEST PUSH1 0x60 DUP2 PUSH2 0x228D JUMPI POP PUSH1 0x40 DUP1 MLOAD DUP1 DUP3 ADD SWAP1 SWAP2 MSTORE PUSH1 0x1 DUP2 MSTORE PUSH1 0x3 PUSH1 0xFC SHL PUSH1 0x20 DUP3 ADD MSTORE PUSH2 0x42C JUMP JUMPDEST DUP2 PUSH1 0x0 JUMPDEST DUP2 ISZERO PUSH2 0x22B7 JUMPI DUP1 PUSH2 0x22A1 DUP2 PUSH2 0x2B95 JUMP JUMPDEST SWAP2 POP PUSH2 0x22B0 SWAP1 POP PUSH1 0xA DUP4 PUSH2 0x2A41 JUMP JUMPDEST SWAP2 POP PUSH2 0x2291 JUMP JUMPDEST PUSH1 0x0 DUP2 PUSH8 0xFFFFFFFFFFFFFFFF DUP2 GT ISZERO PUSH2 0x22E0 JUMPI PUSH4 0x4E487B71 PUSH1 0xE0 SHL PUSH1 0x0 MSTORE PUSH1 0x41 PUSH1 0x4 MSTORE PUSH1 0x24 PUSH1 0x0 REVERT JUMPDEST PUSH1 0x40 MLOAD SWAP1 DUP1 DUP3 MSTORE DUP1 PUSH1 0x1F ADD PUSH1 0x1F NOT AND PUSH1 0x20 ADD DUP3 ADD PUSH1 0x40 MSTORE DUP1 ISZERO PUSH2 0x230A JUMPI PUSH1 0x20 DUP3 ADD DUP2 DUP1 CALLDATASIZE DUP4 CALLDATACOPY ADD SWAP1 POP JUMPDEST POP SWAP1 POP JUMPDEST DUP5 ISZERO PUSH2 0x1999 JUMPI PUSH2 0x231F PUSH1 0x1 DUP4 PUSH2 0x2B17 JUMP JUMPDEST SWAP2 POP PUSH2 0x232C PUSH1 0xA DUP7 PUSH2 0x2BB0 JUMP JUMPDEST PUSH2 0x2337 SWAP1 PUSH1 0x30 PUSH2 0x29FB JUMP JUMPDEST PUSH1 0xF8 SHL DUP2 DUP4 DUP2 MLOAD DUP2 LT PUSH2 0x235A JUMPI PUSH4 0x4E487B71 PUSH1 0xE0 SHL PUSH1 0x0 MSTORE PUSH1 0x32 PUSH1 0x4 MSTORE PUSH1 0x24 PUSH1 0x0 REVERT JUMPDEST PUSH1 0x20 ADD ADD SWAP1 PUSH1 0x1 PUSH1 0x1 PUSH1 0xF8 SHL SUB NOT AND SWAP1 DUP2 PUSH1 0x0 BYTE SWAP1 MSTORE8 POP PUSH2 0x237C PUSH1 0xA DUP7 PUSH2 0x2A41 JUMP JUMPDEST SWAP5 POP PUSH2 0x230E JUMP JUMPDEST DUP3 DUP1 SLOAD PUSH2 0x238F SWAP1 PUSH2 0x2B5A JUMP JUMPDEST SWAP1 PUSH1 0x0 MSTORE PUSH1 0x20 PUSH1 0x0 KECCAK256 SWAP1 PUSH1 0x1F ADD PUSH1 0x20 SWAP1 DIV DUP2 ADD SWAP3 DUP3 PUSH2 0x23B1 JUMPI PUSH1 0x0 DUP6 SSTORE PUSH2 0x23F7 JUMP JUMPDEST DUP3 PUSH1 0x1F LT PUSH2 0x23CA JUMPI DUP1 MLOAD PUSH1 0xFF NOT AND DUP4 DUP1 ADD OR DUP6 SSTORE PUSH2 0x23F7 JUMP JUMPDEST DUP3 DUP1 ADD PUSH1 0x1 ADD DUP6 SSTORE DUP3 ISZERO PUSH2 0x23F7 JUMPI SWAP2 DUP3 ADD JUMPDEST DUP3 DUP2 GT ISZERO PUSH2 0x23F7 JUMPI DUP3 MLOAD DUP3 SSTORE SWAP2 PUSH1 0x20 ADD SWAP2 SWAP1 PUSH1 0x1 ADD SWAP1 PUSH2 0x23DC JUMP JUMPDEST POP PUSH2 0x2403 SWAP3 SWAP2 POP PUSH2 0x243F JUMP JUMPDEST POP SWAP1 JUMP JUMPDEST POP DUP1 SLOAD PUSH2 0x2413 SWAP1 PUSH2 0x2B5A JUMP JUMPDEST PUSH1 0x0 DUP3 SSTORE DUP1 PUSH1 0x1F LT PUSH2 0x2425 JUMPI POP PUSH2 0x1C0C JUMP JUMPDEST PUSH1 0x1F ADD PUSH1 0x20 SWAP1 DIV SWAP1 PUSH1 0x0 MSTORE PUSH1 0x20 PUSH1 0x0 KECCAK256 SWAP1 DUP2 ADD SWAP1 PUSH2 0x1C0C SWAP2 SWAP1 JUMPDEST JUMPDEST DUP1 DUP3 GT ISZERO PUSH2 0x2403 JUMPI PUSH1 0x0 DUP2 SSTORE PUSH1 0x1 ADD PUSH2 0x2440 JUMP JUMPDEST DUP1 MLOAD PUSH10 0xFFFFFFFFFFFFFFFFFFFF DUP2 AND DUP2 EQ PUSH2 0x42C JUMPI PUSH1 0x0 DUP1 REVERT JUMPDEST PUSH1 0x0 PUSH1 0x20 DUP3 DUP5 SUB SLT ISZERO PUSH2 0x247F JUMPI DUP1 DUP2 REVERT JUMPDEST DUP2 CALLDATALOAD PUSH2 0x1EAE DUP2 PUSH2 0x2C06 JUMP JUMPDEST PUSH1 0x0 PUSH1 0x20 DUP3 DUP5 SUB SLT ISZERO PUSH2 0x249B JUMPI DUP1 DUP2 REVERT JUMPDEST DUP2 MLOAD PUSH2 0x1EAE DUP2 PUSH2 0x2C06 JUMP JUMPDEST PUSH1 0x0 DUP1 PUSH1 0x40 DUP4 DUP6 SUB SLT ISZERO PUSH2 0x24B8 JUMPI DUP1 DUP2 REVERT JUMPDEST DUP3 CALLDATALOAD PUSH2 0x24C3 DUP2 PUSH2 0x2C06 JUMP JUMPDEST SWAP2 POP PUSH1 0x20 DUP4 ADD CALLDATALOAD PUSH2 0x24D3 DUP2 PUSH2 0x2C06 JUMP JUMPDEST DUP1 SWAP2 POP POP SWAP3 POP SWAP3 SWAP1 POP JUMP JUMPDEST PUSH1 0x0 DUP1 PUSH1 0x0 PUSH1 0x60 DUP5 DUP7 SUB SLT ISZERO PUSH2 0x24F2 JUMPI DUP1 DUP2 REVERT JUMPDEST DUP4 CALLDATALOAD PUSH2 0x24FD DUP2 PUSH2 0x2C06 JUMP JUMPDEST SWAP3 POP PUSH1 0x20 DUP5 ADD CALLDATALOAD PUSH2 0x250D DUP2 PUSH2 0x2C06 JUMP JUMPDEST SWAP3 SWAP6 SWAP3 SWAP5 POP POP POP PUSH1 0x40 SWAP2 SWAP1 SWAP2 ADD CALLDATALOAD SWAP1 JUMP JUMPDEST PUSH1 0x0 DUP1 PUSH1 0x0 DUP1 PUSH1 0x80 DUP6 DUP8 SUB SLT ISZERO PUSH2 0x2533 JUMPI DUP1 DUP2 REVERT JUMPDEST DUP5 CALLDATALOAD PUSH2 0x253E DUP2 PUSH2 0x2C06 JUMP JUMPDEST SWAP4 POP PUSH1 0x20 DUP6 ADD CALLDATALOAD PUSH2 0x254E DUP2 PUSH2 0x2C06 JUMP JUMPDEST SWAP3 POP PUSH1 0x40 DUP6 ADD CALLDATALOAD SWAP2 POP PUSH1 0x60 DUP6 ADD CALLDATALOAD PUSH8 0xFFFFFFFFFFFFFFFF DUP2 GT ISZERO PUSH2 0x2570 JUMPI DUP2 DUP3 REVERT JUMPDEST DUP6 ADD PUSH1 0x1F DUP2 ADD DUP8 SGT PUSH2 0x2580 JUMPI DUP2 DUP3 REVERT JUMPDEST DUP1 CALLDATALOAD PUSH2 0x2593 PUSH2 0x258E DUP3 PUSH2 0x29D3 JUMP JUMPDEST PUSH2 0x29A2 JUMP JUMPDEST DUP2 DUP2 MSTORE DUP9 PUSH1 0x20 DUP4 DUP6 ADD ADD GT ISZERO PUSH2 0x25A7 JUMPI DUP4 DUP5 REVERT JUMPDEST DUP2 PUSH1 0x20 DUP5 ADD PUSH1 0x20 DUP4 ADD CALLDATACOPY SWAP1 DUP2 ADD PUSH1 0x20 ADD SWAP3 SWAP1 SWAP3 MSTORE POP SWAP3 SWAP6 SWAP2 SWAP5 POP SWAP3 POP JUMP JUMPDEST PUSH1 0x0 DUP1 PUSH1 0x40 DUP4 DUP6 SUB SLT ISZERO PUSH2 0x25D7 JUMPI DUP2 DUP3 REVERT JUMPDEST DUP3 CALLDATALOAD PUSH2 0x25E2 DUP2 PUSH2 0x2C06 JUMP JUMPDEST SWAP2 POP PUSH1 0x20 DUP4 ADD CALLDATALOAD DUP1 ISZERO ISZERO DUP2 EQ PUSH2 0x24D3 JUMPI DUP2 DUP3 REVERT JUMPDEST PUSH1 0x0 DUP1 PUSH1 0x40 DUP4 DUP6 SUB SLT ISZERO PUSH2 0x2608 JUMPI DUP2 DUP3 REVERT JUMPDEST DUP3 CALLDATALOAD PUSH2 0x2613 DUP2 PUSH2 0x2C06 JUMP JUMPDEST SWAP5 PUSH1 0x20 SWAP4 SWAP1 SWAP4 ADD CALLDATALOAD SWAP4 POP POP POP JUMP JUMPDEST PUSH1 0x0 PUSH1 0x20 DUP3 DUP5 SUB SLT ISZERO PUSH2 0x2632 JUMPI DUP1 DUP2 REVERT JUMPDEST POP CALLDATALOAD SWAP2 SWAP1 POP JUMP JUMPDEST PUSH1 0x0 PUSH1 0x20 DUP3 DUP5 SUB SLT ISZERO PUSH2 0x264A JUMPI DUP1 DUP2 REVERT JUMPDEST DUP2 CALLDATALOAD PUSH2 0x1EAE DUP2 PUSH2 0x2C1B JUMP JUMPDEST PUSH1 0x0 PUSH1 0x20 DUP3 DUP5 SUB SLT ISZERO PUSH2 0x2666 JUMPI DUP1 DUP2 REVERT JUMPDEST DUP2 MLOAD PUSH2 0x1EAE DUP2 PUSH2 0x2C1B JUMP JUMPDEST PUSH1 0x0 PUSH1 0x20 DUP3 DUP5 SUB SLT ISZERO PUSH2 0x2682 JUMPI DUP1 DUP2 REVERT JUMPDEST DUP2 MLOAD PUSH8 0xFFFFFFFFFFFFFFFF DUP2 GT ISZERO PUSH2 0x2698 JUMPI DUP2 DUP3 REVERT JUMPDEST DUP3 ADD PUSH1 0x1F DUP2 ADD DUP5 SGT PUSH2 0x26A8 JUMPI DUP2 DUP3 REVERT JUMPDEST DUP1 MLOAD PUSH2 0x26B6 PUSH2 0x258E DUP3 PUSH2 0x29D3 JUMP JUMPDEST DUP2 DUP2 MSTORE DUP6 PUSH1 0x20 DUP4 DUP6 ADD ADD GT ISZERO PUSH2 0x26CA JUMPI DUP4 DUP5 REVERT JUMPDEST PUSH2 0x26DB DUP3 PUSH1 0x20 DUP4 ADD PUSH1 0x20 DUP7 ADD PUSH2 0x2B2E JUMP JUMPDEST SWAP6 SWAP5 POP POP POP POP POP JUMP JUMPDEST PUSH1 0x0 DUP1 PUSH1 0x0 DUP1 PUSH1 0x0 PUSH1 0xA0 DUP7 DUP9 SUB SLT ISZERO PUSH2 0x26FB JUMPI DUP3 DUP4 REVERT JUMPDEST PUSH2 0x2704 DUP7 PUSH2 0x2454 JUMP JUMPDEST SWAP5 POP PUSH1 0x20 DUP7 ADD MLOAD SWAP4 POP PUSH1 0x40 DUP7 ADD MLOAD SWAP3 POP PUSH1 0x60 DUP7 ADD MLOAD SWAP2 POP PUSH2 0x2727 PUSH1 0x80 DUP8 ADD PUSH2 0x2454 JUMP JUMPDEST SWAP1 POP SWAP3 SWAP6 POP SWAP3 SWAP6 SWAP1 SWAP4 POP JUMP JUMPDEST PUSH1 0x0 DUP2 MLOAD DUP1 DUP5 MSTORE PUSH2 0x274B DUP2 PUSH1 0x20 DUP7 ADD PUSH1 0x20 DUP7 ADD PUSH2 0x2B2E JUMP JUMPDEST PUSH1 0x1F ADD PUSH1 0x1F NOT AND SWAP3 SWAP1 SWAP3 ADD PUSH1 0x20 ADD SWAP3 SWAP2 POP POP JUMP JUMPDEST PUSH1 0x0 DUP4 MLOAD PUSH2 0x2771 DUP2 DUP5 PUSH1 0x20 DUP9 ADD PUSH2 0x2B2E JUMP JUMPDEST DUP4 MLOAD SWAP1 DUP4 ADD SWAP1 PUSH2 0x2785 DUP2 DUP4 PUSH1 0x20 DUP9 ADD PUSH2 0x2B2E JUMP JUMPDEST ADD SWAP5 SWAP4 POP POP POP POP JUMP JUMPDEST PUSH1 0x1 PUSH1 0x1 PUSH1 0xA0 SHL SUB DUP6 DUP2 AND DUP3 MSTORE DUP5 AND PUSH1 0x20 DUP3 ADD MSTORE PUSH1 0x40 DUP2 ADD DUP4 SWAP1 MSTORE PUSH1 0x80 PUSH1 0x60 DUP3 ADD DUP2 SWAP1 MSTORE PUSH1 0x0 SWAP1 PUSH2 0x27C1 SWAP1 DUP4 ADD DUP5 PUSH2 0x2733 JUMP JUMPDEST SWAP7 SWAP6 POP POP POP POP POP POP JUMP JUMPDEST PUSH1 0x20 DUP1 DUP3 MSTORE DUP3 MLOAD DUP3 DUP3 ADD DUP2 SWAP1 MSTORE PUSH1 0x0 SWAP2 SWAP1 DUP5 DUP3 ADD SWAP1 PUSH1 0x40 DUP6 ADD SWAP1 DUP5 JUMPDEST DUP2 DUP2 LT ISZERO PUSH2 0x2803 JUMPI DUP4 MLOAD DUP4 MSTORE SWAP3 DUP5 ADD SWAP3 SWAP2 DUP5 ADD SWAP2 PUSH1 0x1 ADD PUSH2 0x27E7 JUMP JUMPDEST POP SWAP1 SWAP7 SWAP6 POP POP POP POP POP POP JUMP JUMPDEST PUSH1 0x0 PUSH1 0x20 DUP3 MSTORE PUSH2 0x1EAE PUSH1 0x20 DUP4 ADD DUP5 PUSH2 0x2733 JUMP JUMPDEST PUSH1 0x20 DUP1 DUP3 MSTORE PUSH1 0x2C SWAP1 DUP3 ADD MSTORE PUSH32 0x41524D593A20636F6D6D616E64657220717565727920666F72206E6F6E657869 PUSH1 0x40 DUP3 ADD MSTORE PUSH12 0x39BA32B73A1036B4B734B7B7 PUSH1 0xA1 SHL PUSH1 0x60 DUP3 ADD MSTORE PUSH1 0x80 ADD SWAP1 JUMP JUMPDEST PUSH1 0x20 DUP1 DUP3 MSTORE PUSH1 0x32 SWAP1 DUP3 ADD MSTORE PUSH32 0x4552433732313A207472616E7366657220746F206E6F6E204552433732315265 PUSH1 0x40 DUP3 ADD MSTORE PUSH18 0x31B2B4BB32B91034B6B83632B6B2B73A32B9 PUSH1 0x71 SHL PUSH1 0x60 DUP3 ADD MSTORE PUSH1 0x80 ADD SWAP1 JUMP JUMPDEST PUSH1 0x20 DUP1 DUP3 MSTORE PUSH1 0x28 SWAP1 DUP3 ADD MSTORE PUSH32 0x41524D593A20636F6D6D616E6465722063616E277420636F6D6D616E64207468 PUSH1 0x40 DUP3 ADD MSTORE PUSH8 0x329036B4B734B7B7 PUSH1 0xC1 SHL PUSH1 0x60 DUP3 ADD MSTORE PUSH1 0x80 ADD SWAP1 JUMP JUMPDEST PUSH1 0x20 DUP1 DUP3 MSTORE PUSH1 0x31 SWAP1 DUP3 ADD MSTORE PUSH32 0x4552433732313A207472616E736665722063616C6C6572206973206E6F74206F PUSH1 0x40 DUP3 ADD MSTORE PUSH17 0x1DDB995C881B9BDC88185C1C1C9BDD9959 PUSH1 0x7A SHL PUSH1 0x60 DUP3 ADD MSTORE PUSH1 0x80 ADD SWAP1 JUMP JUMPDEST PUSH1 0x20 DUP1 DUP3 MSTORE PUSH1 0x29 SWAP1 DUP3 ADD MSTORE PUSH32 0x41524D593A206D696E696F6E20697320616C726561647920696E20747261696E PUSH1 0x40 DUP3 ADD MSTORE PUSH9 0x696E67207374617465 PUSH1 0xB8 SHL PUSH1 0x60 DUP3 ADD MSTORE PUSH1 0x80 ADD SWAP1 JUMP JUMPDEST PUSH1 0x40 MLOAD PUSH1 0x1F DUP3 ADD PUSH1 0x1F NOT AND DUP2 ADD PUSH8 0xFFFFFFFFFFFFFFFF DUP2 GT DUP3 DUP3 LT OR ISZERO PUSH2 0x29CB JUMPI PUSH2 0x29CB PUSH2 0x2BF0 JUMP JUMPDEST PUSH1 0x40 MSTORE SWAP2 SWAP1 POP JUMP JUMPDEST PUSH1 0x0 PUSH8 0xFFFFFFFFFFFFFFFF DUP3 GT ISZERO PUSH2 0x29ED JUMPI PUSH2 0x29ED PUSH2 0x2BF0 JUMP JUMPDEST POP PUSH1 0x1F ADD PUSH1 0x1F NOT AND PUSH1 0x20 ADD SWAP1 JUMP JUMPDEST PUSH1 0x0 DUP3 NOT DUP3 GT ISZERO PUSH2 0x2A0E JUMPI PUSH2 0x2A0E PUSH2 0x2BC4 JUMP JUMPDEST POP ADD SWAP1 JUMP JUMPDEST PUSH1 0x0 DUP3 PUSH2 0x2A22 JUMPI PUSH2 0x2A22 PUSH2 0x2BDA JUMP JUMPDEST PUSH1 0x1 PUSH1 0xFF SHL DUP3 EQ PUSH1 0x0 NOT DUP5 EQ AND ISZERO PUSH2 0x2A3C JUMPI PUSH2 0x2A3C PUSH2 0x2BC4 JUMP JUMPDEST POP SDIV SWAP1 JUMP JUMPDEST PUSH1 0x0 DUP3 PUSH2 0x2A50 JUMPI PUSH2 0x2A50 PUSH2 0x2BDA JUMP JUMPDEST POP DIV SWAP1 JUMP JUMPDEST PUSH1 0x0 PUSH1 0x1 PUSH1 0x1 PUSH1 0xFF SHL SUB DUP2 DUP5 SGT DUP3 DUP5 SGT DUP1 DUP3 AND DUP7 DUP5 DIV DUP7 GT AND ISZERO PUSH2 0x2A7B JUMPI PUSH2 0x2A7B PUSH2 0x2BC4 JUMP JUMPDEST PUSH1 0x1 PUSH1 0xFF SHL DUP5 DUP8 SLT DUP3 DUP2 AND DUP8 DUP4 SDIV DUP10 SLT AND ISZERO PUSH2 0x2A99 JUMPI PUSH2 0x2A99 PUSH2 0x2BC4 JUMP JUMPDEST DUP6 DUP8 SLT SWAP3 POP DUP8 DUP3 SDIV DUP8 SLT DUP5 DUP5 AND AND ISZERO PUSH2 0x2AB4 JUMPI PUSH2 0x2AB4 PUSH2 0x2BC4 JUMP JUMPDEST DUP8 DUP6 SDIV DUP8 SLT DUP2 DUP5 AND AND ISZERO PUSH2 0x2ACA JUMPI PUSH2 0x2ACA PUSH2 0x2BC4 JUMP JUMPDEST POP POP POP SWAP3 SWAP1 SWAP4 MUL SWAP4 SWAP3 POP POP POP JUMP JUMPDEST PUSH1 0x0 DUP1 DUP4 SLT DUP1 ISZERO PUSH1 0x1 PUSH1 0xFF SHL DUP6 ADD DUP5 SLT AND ISZERO PUSH2 0x2AF6 JUMPI PUSH2 0x2AF6 PUSH2 0x2BC4 JUMP JUMPDEST PUSH1 0x1 PUSH1 0x1 PUSH1 0xFF SHL SUB DUP5 ADD DUP4 SGT DUP2 AND ISZERO PUSH2 0x2B11 JUMPI PUSH2 0x2B11 PUSH2 0x2BC4 JUMP JUMPDEST POP POP SUB SWAP1 JUMP JUMPDEST PUSH1 0x0 DUP3 DUP3 LT ISZERO PUSH2 0x2B29 JUMPI PUSH2 0x2B29 PUSH2 0x2BC4 JUMP JUMPDEST POP SUB SWAP1 JUMP JUMPDEST PUSH1 0x0 JUMPDEST DUP4 DUP2 LT ISZERO PUSH2 0x2B49 JUMPI DUP2 DUP2 ADD MLOAD DUP4 DUP3 ADD MSTORE PUSH1 0x20 ADD PUSH2 0x2B31 JUMP JUMPDEST DUP4 DUP2 GT ISZERO PUSH2 0x11C0 JUMPI POP POP PUSH1 0x0 SWAP2 ADD MSTORE JUMP JUMPDEST PUSH1 0x1 DUP2 DUP2 SHR SWAP1 DUP3 AND DUP1 PUSH2 0x2B6E JUMPI PUSH1 0x7F DUP3 AND SWAP2 POP JUMPDEST PUSH1 0x20 DUP3 LT DUP2 EQ ISZERO PUSH2 0x2B8F JUMPI PUSH4 0x4E487B71 PUSH1 0xE0 SHL PUSH1 0x0 MSTORE PUSH1 0x22 PUSH1 0x4 MSTORE PUSH1 0x24 PUSH1 0x0 REVERT JUMPDEST POP SWAP2 SWAP1 POP JUMP JUMPDEST PUSH1 0x0 PUSH1 0x0 NOT DUP3 EQ ISZERO PUSH2 0x2BA9 JUMPI PUSH2 0x2BA9 PUSH2 0x2BC4 JUMP JUMPDEST POP PUSH1 0x1 ADD SWAP1 JUMP JUMPDEST PUSH1 0x0 DUP3 PUSH2 0x2BBF JUMPI PUSH2 0x2BBF PUSH2 0x2BDA JUMP JUMPDEST POP MOD SWAP1 JUMP JUMPDEST PUSH4 0x4E487B71 PUSH1 0xE0 SHL PUSH1 0x0 MSTORE PUSH1 0x11 PUSH1 0x4 MSTORE PUSH1 0x24 PUSH1 0x0 REVERT JUMPDEST PUSH4 0x4E487B71 PUSH1 0xE0 SHL PUSH1 0x0 MSTORE PUSH1 0x12 PUSH1 0x4 MSTORE PUSH1 0x24 PUSH1 0x0 REVERT JUMPDEST PUSH4 0x4E487B71 PUSH1 0xE0 SHL PUSH1 0x0 MSTORE PUSH1 0x41 PUSH1 0x4 MSTORE PUSH1 0x24 PUSH1 0x0 REVERT JUMPDEST PUSH1 0x1 PUSH1 0x1 PUSH1 0xA0 SHL SUB DUP2 AND DUP2 EQ PUSH2 0x1C0C JUMPI PUSH1 0x0 DUP1 REVERT JUMPDEST PUSH1 0x1 PUSH1 0x1 PUSH1 0xE0 SHL SUB NOT DUP2 AND DUP2 EQ PUSH2 0x1C0C JUMPI PUSH1 0x0 DUP1 REVERT INVALID SDIV 0xCF DUP13 0xE0 PUSH9 0xBD8F8C0E2CFD6182AF CALLCODE 0xBC DUP1 REVERT 0xFB 0xBF SDIV LOG0 0xA7 0xEE PUSH17 0xF867DC2CECDB0EA2646970667358221220 PUSH8 0xAD5A50B63BC462A9 0xC2 PUSH18 0x80BF0FF2309152B00AA662DD2204F547711E 0xE4 NOT ORIGIN PUSH5 0x736F6C6343 STOP ADDMOD SUB STOP CALLER ",
  "sha1": "7d7dc374a9c7b65a80cf648977551efc6e559c75",
  "source": "// SPDX-License-Identifier: MIT\npragma solidity ^0.8.0;\n\nimport \"./ArmyBase.sol\";\n\n/**\n * @title Flora Army, which grows in bullish market\n * @notice ERC721 token cultivated by predicting market price (using Chainlink oracle)\n * @author Justa Liang\n */\ncontract FloraArmy is ArmyBase {\n\n    /**\n     * @dev Set name, symbol, and addresses of interactive contracts\n     * @param ensRegistryAddr Address of ENS Registry\n    */\n    constructor(address ensRegistryAddr, uint initEnhancer,\n                int[5] memory powerLevels, string[5] memory jsonNames) \n        ArmyBase(ensRegistryAddr)\n        ERC721(\"Flora Army\", \"FlorA\")\n    {\n        enhancerContract = ENHR(address(new ArmyEnhancer(\"Chlorophyll\", \"CHL\")));\n        enhancerContract.produce(msg.sender, initEnhancer);\n        rankContract = RANK(address(new ArmyRank(powerLevels, jsonNames)));\n        rankContract.transferOwnership(msg.sender);\n    }\n\n    /**\n     * @notice Train a minion and update the environment factor\n     * @param minionID ID of the minion\n    */\n    function train(uint minionID) external override checkCommander(minionID) {\n        Minion storage target = _minions[minionID];\n        require(\n            target.armed,\n            \"ARMY: minion is already in training state\");\n\n        // get current price\n        AggregatorV3Interface pricefeed = AggregatorV3Interface(target.branchAddr);\n        (,int currPrice,,,) = pricefeed.latestRoundData();\n\n        // update on-chain data\n        target.envFactor = currPrice;\n        target.armed = false;\n\n        // emit minion state\n        emit MinionState(minionID, target.branchAddr, false, currPrice, target.power);\n    }\n\n    /**\n     * @notice Arm a minion and update its power\n     * @param minionID ID of the minion\n    */\n    function arm(uint minionID) external override checkCommander(minionID) {\n        Minion storage target = _minions[minionID];\n        require(\n            !target.armed,\n            \"ARMY: minion is already armed\");\n\n        // get current price\n        AggregatorV3Interface pricefeed = AggregatorV3Interface(target.branchAddr);\n        (,int currPrice,,,) = pricefeed.latestRoundData();\n\n        // update on-chain data\n        target.power = ((currPrice << 16)/target.envFactor*target.power) >> 16;\n        target.envFactor = currPrice;\n        target.armed = true;\n\n        // emit minion state\n        emit MinionState(minionID, target.branchAddr, true, currPrice, target.power);\n    }\n\n    /**\n     * @notice Use Chlorophyll to stimulate an armed minion to catch up training\n     * @dev Commander cost Chlorophyll\n     * @param minionID ID of the minion\n    */\n    function boost(uint minionID) external override checkCommander(minionID) {\n        Minion storage target = _minions[minionID];\n        require(\n            target.armed,\n            \"ARMY: minion is already in training state\");\n\n        // get current price\n        AggregatorV3Interface pricefeed = AggregatorV3Interface(target.branchAddr);\n        (,int currPrice,,,) = pricefeed.latestRoundData();\n\n        // change state\n        if (currPrice > target.envFactor) {\n             enhancerContract.consume(msg.sender, uint(((currPrice << 16)/target.envFactor*target.power) >> 16));\n        }\n        target.armed = false;\n\n        // emit minion state\n        emit MinionState(minionID, target.branchAddr, false, target.envFactor, target.power);\n    }\n\n    /**\n     * @notice Use Chlorophyll to heal a minion who suffer from negative training\n     * @dev Commander cost Chlorophyll\n     * @param minionID ID of the minion\n    */\n    function heal(uint minionID) external override checkCommander(minionID) {\n        Minion storage target = _minions[minionID];\n        require(\n            !target.armed,\n            \"ARMY: minion is not in training state\");\n\n        // get current price\n        AggregatorV3Interface pricefeed = AggregatorV3Interface(target.branchAddr);\n        (,int currPrice,,,) = pricefeed.latestRoundData();\n\n        // change state\n        if (currPrice < target.envFactor) {\n            enhancerContract.consume(msg.sender, uint(((target.envFactor << 16)/currPrice*target.power) >> 16));\n        }\n        target.armed = true;\n\n        // emit minion state\n        emit MinionState(minionID, target.branchAddr, true, target.envFactor, target.power);\n    }\n}",
  "sourcePath": "contracts/FloraArmy.sol",
  "type": "contract"
}