{
  "address": "0x68B1D87F95878fE05B998F19b66F4baba5De1aed",
  "abi": [
    {
      "inputs": [
        {
          "internalType": "address",
          "name": "floraArmyAddr",
          "type": "address"
        },
        {
          "internalType": "address",
          "name": "faunaArmyAddr",
          "type": "address"
        }
      ],
      "stateMutability": "nonpayable",
      "type": "constructor"
    },
    {
      "anonymous": false,
      "inputs": [
        {
          "indexed": true,
          "internalType": "address",
          "name": "owner",
          "type": "address"
        },
        {
          "indexed": true,
          "internalType": "address",
          "name": "approved",
          "type": "address"
        },
        {
          "indexed": true,
          "internalType": "uint256",
          "name": "tokenId",
          "type": "uint256"
        }
      ],
      "name": "Approval",
      "type": "event"
    },
    {
      "anonymous": false,
      "inputs": [
        {
          "indexed": true,
          "internalType": "address",
          "name": "owner",
          "type": "address"
        },
        {
          "indexed": true,
          "internalType": "address",
          "name": "operator",
          "type": "address"
        },
        {
          "indexed": false,
          "internalType": "bool",
          "name": "approved",
          "type": "bool"
        }
      ],
      "name": "ApprovalForAll",
      "type": "event"
    },
    {
      "anonymous": false,
      "inputs": [
        {
          "indexed": true,
          "internalType": "uint256",
          "name": "fieldID",
          "type": "uint256"
        },
        {
          "indexed": true,
          "internalType": "address",
          "name": "conqueror",
          "type": "address"
        },
        {
          "indexed": true,
          "internalType": "bool",
          "name": "isGreen",
          "type": "bool"
        },
        {
          "indexed": false,
          "internalType": "uint256[]",
          "name": "defender",
          "type": "uint256[]"
        }
      ],
      "name": "FieldState",
      "type": "event"
    },
    {
      "anonymous": false,
      "inputs": [
        {
          "indexed": true,
          "internalType": "address",
          "name": "previousOwner",
          "type": "address"
        },
        {
          "indexed": true,
          "internalType": "address",
          "name": "newOwner",
          "type": "address"
        }
      ],
      "name": "OwnershipTransferred",
      "type": "event"
    },
    {
      "anonymous": false,
      "inputs": [
        {
          "indexed": true,
          "internalType": "address",
          "name": "proposer",
          "type": "address"
        },
        {
          "indexed": false,
          "internalType": "uint256",
          "name": "proposalID",
          "type": "uint256"
        },
        {
          "indexed": false,
          "internalType": "string",
          "name": "prefixURI",
          "type": "string"
        }
      ],
      "name": "Propose",
      "type": "event"
    },
    {
      "anonymous": false,
      "inputs": [
        {
          "indexed": false,
          "internalType": "uint256",
          "name": "totalArea",
          "type": "uint256"
        }
      ],
      "name": "TotalArea",
      "type": "event"
    },
    {
      "anonymous": false,
      "inputs": [
        {
          "indexed": true,
          "internalType": "address",
          "name": "from",
          "type": "address"
        },
        {
          "indexed": true,
          "internalType": "address",
          "name": "to",
          "type": "address"
        },
        {
          "indexed": true,
          "internalType": "uint256",
          "name": "tokenId",
          "type": "uint256"
        }
      ],
      "name": "Transfer",
      "type": "event"
    },
    {
      "anonymous": false,
      "inputs": [
        {
          "indexed": true,
          "internalType": "uint256",
          "name": "fieldID",
          "type": "uint256"
        },
        {
          "indexed": true,
          "internalType": "address",
          "name": "voter",
          "type": "address"
        },
        {
          "indexed": true,
          "internalType": "uint256",
          "name": "proposalID",
          "type": "uint256"
        },
        {
          "indexed": false,
          "internalType": "uint256",
          "name": "voteCount",
          "type": "uint256"
        }
      ],
      "name": "Vote",
      "type": "event"
    },
    {
      "anonymous": false,
      "inputs": [
        {
          "indexed": true,
          "internalType": "uint256",
          "name": "generation",
          "type": "uint256"
        },
        {
          "indexed": true,
          "internalType": "address",
          "name": "winner",
          "type": "address"
        },
        {
          "indexed": false,
          "internalType": "string",
          "name": "tokenURI",
          "type": "string"
        },
        {
          "indexed": false,
          "internalType": "uint256",
          "name": "proposalCount",
          "type": "uint256"
        },
        {
          "indexed": false,
          "internalType": "uint256",
          "name": "voteCount",
          "type": "uint256"
        },
        {
          "indexed": false,
          "internalType": "uint256",
          "name": "totalArea",
          "type": "uint256"
        },
        {
          "indexed": false,
          "internalType": "bool",
          "name": "floraWin",
          "type": "bool"
        },
        {
          "indexed": false,
          "internalType": "bool",
          "name": "faunaWin",
          "type": "bool"
        }
      ],
      "name": "Winner",
      "type": "event"
    },
    {
      "inputs": [
        {
          "internalType": "address",
          "name": "to",
          "type": "address"
        },
        {
          "internalType": "uint256",
          "name": "tokenId",
          "type": "uint256"
        }
      ],
      "name": "approve",
      "outputs": [],
      "stateMutability": "nonpayable",
      "type": "function"
    },
    {
      "inputs": [],
      "name": "assemblyJson",
      "outputs": [
        {
          "internalType": "string",
          "name": "",
          "type": "string"
        }
      ],
      "stateMutability": "view",
      "type": "function"
    },
    {
      "inputs": [
        {
          "internalType": "address",
          "name": "owner",
          "type": "address"
        }
      ],
      "name": "balanceOf",
      "outputs": [
        {
          "internalType": "uint256",
          "name": "",
          "type": "uint256"
        }
      ],
      "stateMutability": "view",
      "type": "function"
    },
    {
      "inputs": [
        {
          "internalType": "string",
          "name": "assemblyJson_",
          "type": "string"
        }
      ],
      "name": "changeAssemblyJson",
      "outputs": [],
      "stateMutability": "nonpayable",
      "type": "function"
    },
    {
      "inputs": [
        {
          "internalType": "uint256",
          "name": "propInterval_",
          "type": "uint256"
        }
      ],
      "name": "changePropInterval",
      "outputs": [],
      "stateMutability": "nonpayable",
      "type": "function"
    },
    {
      "inputs": [
        {
          "internalType": "uint256",
          "name": "slottingFee_",
          "type": "uint256"
        }
      ],
      "name": "changeSlottingFee",
      "outputs": [],
      "stateMutability": "nonpayable",
      "type": "function"
    },
    {
      "inputs": [
        {
          "internalType": "uint256",
          "name": "voteInterval_",
          "type": "uint256"
        }
      ],
      "name": "changeVoteInterval",
      "outputs": [],
      "stateMutability": "nonpayable",
      "type": "function"
    },
    {
      "inputs": [
        {
          "internalType": "uint256",
          "name": "amount",
          "type": "uint256"
        },
        {
          "internalType": "address payable",
          "name": "receiver",
          "type": "address"
        }
      ],
      "name": "claimFunds",
      "outputs": [],
      "stateMutability": "nonpayable",
      "type": "function"
    },
    {
      "inputs": [],
      "name": "endVote",
      "outputs": [],
      "stateMutability": "nonpayable",
      "type": "function"
    },
    {
      "inputs": [
        {
          "internalType": "uint256",
          "name": "increaseSize",
          "type": "uint256"
        }
      ],
      "name": "expand",
      "outputs": [],
      "stateMutability": "nonpayable",
      "type": "function"
    },
    {
      "inputs": [],
      "name": "faunaArmy",
      "outputs": [
        {
          "internalType": "contract ARMY",
          "name": "",
          "type": "address"
        }
      ],
      "stateMutability": "view",
      "type": "function"
    },
    {
      "inputs": [
        {
          "internalType": "uint256",
          "name": "fieldID",
          "type": "uint256"
        },
        {
          "internalType": "uint256",
          "name": "attackerID",
          "type": "uint256"
        }
      ],
      "name": "faunaConquer",
      "outputs": [],
      "stateMutability": "nonpayable",
      "type": "function"
    },
    {
      "inputs": [],
      "name": "faunaFieldCount",
      "outputs": [
        {
          "internalType": "uint256",
          "name": "",
          "type": "uint256"
        }
      ],
      "stateMutability": "view",
      "type": "function"
    },
    {
      "inputs": [
        {
          "internalType": "uint256",
          "name": "",
          "type": "uint256"
        }
      ],
      "name": "faunaOnField",
      "outputs": [
        {
          "internalType": "bool",
          "name": "",
          "type": "bool"
        }
      ],
      "stateMutability": "view",
      "type": "function"
    },
    {
      "inputs": [],
      "name": "faunaRank",
      "outputs": [
        {
          "internalType": "contract RANK",
          "name": "",
          "type": "address"
        }
      ],
      "stateMutability": "view",
      "type": "function"
    },
    {
      "inputs": [
        {
          "internalType": "uint256",
          "name": "",
          "type": "uint256"
        },
        {
          "internalType": "uint256",
          "name": "",
          "type": "uint256"
        }
      ],
      "name": "fieldDefender",
      "outputs": [
        {
          "internalType": "uint256",
          "name": "",
          "type": "uint256"
        }
      ],
      "stateMutability": "view",
      "type": "function"
    },
    {
      "inputs": [
        {
          "internalType": "uint256",
          "name": "",
          "type": "uint256"
        }
      ],
      "name": "fieldGeneration",
      "outputs": [
        {
          "internalType": "uint256",
          "name": "",
          "type": "uint256"
        }
      ],
      "stateMutability": "view",
      "type": "function"
    },
    {
      "inputs": [],
      "name": "fieldLocked",
      "outputs": [
        {
          "internalType": "bool",
          "name": "",
          "type": "bool"
        }
      ],
      "stateMutability": "view",
      "type": "function"
    },
    {
      "inputs": [],
      "name": "floraArmy",
      "outputs": [
        {
          "internalType": "contract ARMY",
          "name": "",
          "type": "address"
        }
      ],
      "stateMutability": "view",
      "type": "function"
    },
    {
      "inputs": [
        {
          "internalType": "uint256",
          "name": "fieldID",
          "type": "uint256"
        },
        {
          "internalType": "uint256",
          "name": "attackerID",
          "type": "uint256"
        }
      ],
      "name": "floraConquer",
      "outputs": [],
      "stateMutability": "nonpayable",
      "type": "function"
    },
    {
      "inputs": [],
      "name": "floraFieldCount",
      "outputs": [
        {
          "internalType": "uint256",
          "name": "",
          "type": "uint256"
        }
      ],
      "stateMutability": "view",
      "type": "function"
    },
    {
      "inputs": [
        {
          "internalType": "uint256",
          "name": "",
          "type": "uint256"
        }
      ],
      "name": "floraOnField",
      "outputs": [
        {
          "internalType": "bool",
          "name": "",
          "type": "bool"
        }
      ],
      "stateMutability": "view",
      "type": "function"
    },
    {
      "inputs": [],
      "name": "floraRank",
      "outputs": [
        {
          "internalType": "contract RANK",
          "name": "",
          "type": "address"
        }
      ],
      "stateMutability": "view",
      "type": "function"
    },
    {
      "inputs": [],
      "name": "generation",
      "outputs": [
        {
          "internalType": "uint256",
          "name": "",
          "type": "uint256"
        }
      ],
      "stateMutability": "view",
      "type": "function"
    },
    {
      "inputs": [],
      "name": "getAllFieldInfo",
      "outputs": [
        {
          "components": [
            {
              "internalType": "address",
              "name": "leader",
              "type": "address"
            },
            {
              "internalType": "uint256[]",
              "name": "defender",
              "type": "uint256[]"
            },
            {
              "internalType": "bool",
              "name": "isFlora",
              "type": "bool"
            }
          ],
          "internalType": "struct BattleBase.FieldInfo[]",
          "name": "allFieldInfo",
          "type": "tuple[]"
        }
      ],
      "stateMutability": "view",
      "type": "function"
    },
    {
      "inputs": [],
      "name": "getAllProposalInfo",
      "outputs": [
        {
          "components": [
            {
              "internalType": "address",
              "name": "proposer",
              "type": "address"
            },
            {
              "internalType": "string",
              "name": "prefixURI",
              "type": "string"
            },
            {
              "internalType": "uint256",
              "name": "voteCount",
              "type": "uint256"
            }
          ],
          "internalType": "struct Battlefield.Proposal[]",
          "name": "",
          "type": "tuple[]"
        }
      ],
      "stateMutability": "view",
      "type": "function"
    },
    {
      "inputs": [
        {
          "internalType": "uint256",
          "name": "tokenId",
          "type": "uint256"
        }
      ],
      "name": "getApproved",
      "outputs": [
        {
          "internalType": "address",
          "name": "",
          "type": "address"
        }
      ],
      "stateMutability": "view",
      "type": "function"
    },
    {
      "inputs": [
        {
          "internalType": "uint256",
          "name": "fieldID",
          "type": "uint256"
        }
      ],
      "name": "getFieldDefender",
      "outputs": [
        {
          "internalType": "uint256[]",
          "name": "",
          "type": "uint256[]"
        }
      ],
      "stateMutability": "view",
      "type": "function"
    },
    {
      "inputs": [
        {
          "internalType": "uint256",
          "name": "fieldID",
          "type": "uint256"
        }
      ],
      "name": "getFieldInfo",
      "outputs": [
        {
          "components": [
            {
              "internalType": "address",
              "name": "leader",
              "type": "address"
            },
            {
              "internalType": "uint256[]",
              "name": "defender",
              "type": "uint256[]"
            },
            {
              "internalType": "bool",
              "name": "isFlora",
              "type": "bool"
            }
          ],
          "internalType": "struct BattleBase.FieldInfo",
          "name": "fieldInfo",
          "type": "tuple"
        }
      ],
      "stateMutability": "view",
      "type": "function"
    },
    {
      "inputs": [
        {
          "internalType": "uint256",
          "name": "fieldID",
          "type": "uint256"
        }
      ],
      "name": "getFieldLeader",
      "outputs": [
        {
          "internalType": "address",
          "name": "",
          "type": "address"
        }
      ],
      "stateMutability": "view",
      "type": "function"
    },
    {
      "inputs": [],
      "name": "getProposalCount",
      "outputs": [
        {
          "internalType": "uint256",
          "name": "",
          "type": "uint256"
        }
      ],
      "stateMutability": "view",
      "type": "function"
    },
    {
      "inputs": [
        {
          "internalType": "address",
          "name": "owner",
          "type": "address"
        },
        {
          "internalType": "address",
          "name": "operator",
          "type": "address"
        }
      ],
      "name": "isApprovedForAll",
      "outputs": [
        {
          "internalType": "bool",
          "name": "",
          "type": "bool"
        }
      ],
      "stateMutability": "view",
      "type": "function"
    },
    {
      "inputs": [
        {
          "internalType": "uint256",
          "name": "",
          "type": "uint256"
        }
      ],
      "name": "isFloraField",
      "outputs": [
        {
          "internalType": "bool",
          "name": "",
          "type": "bool"
        }
      ],
      "stateMutability": "view",
      "type": "function"
    },
    {
      "inputs": [],
      "name": "name",
      "outputs": [
        {
          "internalType": "string",
          "name": "",
          "type": "string"
        }
      ],
      "stateMutability": "view",
      "type": "function"
    },
    {
      "inputs": [],
      "name": "owner",
      "outputs": [
        {
          "internalType": "address",
          "name": "",
          "type": "address"
        }
      ],
      "stateMutability": "view",
      "type": "function"
    },
    {
      "inputs": [
        {
          "internalType": "uint256",
          "name": "tokenId",
          "type": "uint256"
        }
      ],
      "name": "ownerOf",
      "outputs": [
        {
          "internalType": "address",
          "name": "",
          "type": "address"
        }
      ],
      "stateMutability": "view",
      "type": "function"
    },
    {
      "inputs": [],
      "name": "propInterval",
      "outputs": [
        {
          "internalType": "uint256",
          "name": "",
          "type": "uint256"
        }
      ],
      "stateMutability": "view",
      "type": "function"
    },
    {
      "inputs": [
        {
          "internalType": "uint256",
          "name": "",
          "type": "uint256"
        }
      ],
      "name": "proposals",
      "outputs": [
        {
          "internalType": "address",
          "name": "proposer",
          "type": "address"
        },
        {
          "internalType": "string",
          "name": "prefixURI",
          "type": "string"
        },
        {
          "internalType": "uint256",
          "name": "voteCount",
          "type": "uint256"
        }
      ],
      "stateMutability": "view",
      "type": "function"
    },
    {
      "inputs": [
        {
          "internalType": "string",
          "name": "prefixURI",
          "type": "string"
        }
      ],
      "name": "propose",
      "outputs": [],
      "stateMutability": "payable",
      "type": "function"
    },
    {
      "inputs": [],
      "name": "renounceOwnership",
      "outputs": [],
      "stateMutability": "nonpayable",
      "type": "function"
    },
    {
      "inputs": [
        {
          "internalType": "uint256",
          "name": "fieldID",
          "type": "uint256"
        }
      ],
      "name": "retreat",
      "outputs": [],
      "stateMutability": "nonpayable",
      "type": "function"
    },
    {
      "inputs": [
        {
          "internalType": "address",
          "name": "from",
          "type": "address"
        },
        {
          "internalType": "address",
          "name": "to",
          "type": "address"
        },
        {
          "internalType": "uint256",
          "name": "tokenId",
          "type": "uint256"
        }
      ],
      "name": "safeTransferFrom",
      "outputs": [],
      "stateMutability": "nonpayable",
      "type": "function"
    },
    {
      "inputs": [
        {
          "internalType": "address",
          "name": "from",
          "type": "address"
        },
        {
          "internalType": "address",
          "name": "to",
          "type": "address"
        },
        {
          "internalType": "uint256",
          "name": "tokenId",
          "type": "uint256"
        },
        {
          "internalType": "bytes",
          "name": "_data",
          "type": "bytes"
        }
      ],
      "name": "safeTransferFrom",
      "outputs": [],
      "stateMutability": "nonpayable",
      "type": "function"
    },
    {
      "inputs": [
        {
          "internalType": "address",
          "name": "operator",
          "type": "address"
        },
        {
          "internalType": "bool",
          "name": "approved",
          "type": "bool"
        }
      ],
      "name": "setApprovalForAll",
      "outputs": [],
      "stateMutability": "nonpayable",
      "type": "function"
    },
    {
      "inputs": [],
      "name": "slottingFee",
      "outputs": [
        {
          "internalType": "uint256",
          "name": "",
          "type": "uint256"
        }
      ],
      "stateMutability": "view",
      "type": "function"
    },
    {
      "inputs": [],
      "name": "startVote",
      "outputs": [],
      "stateMutability": "nonpayable",
      "type": "function"
    },
    {
      "inputs": [
        {
          "internalType": "bytes4",
          "name": "interfaceId",
          "type": "bytes4"
        }
      ],
      "name": "supportsInterface",
      "outputs": [
        {
          "internalType": "bool",
          "name": "",
          "type": "bool"
        }
      ],
      "stateMutability": "view",
      "type": "function"
    },
    {
      "inputs": [],
      "name": "symbol",
      "outputs": [
        {
          "internalType": "string",
          "name": "",
          "type": "string"
        }
      ],
      "stateMutability": "view",
      "type": "function"
    },
    {
      "inputs": [
        {
          "internalType": "uint256",
          "name": "tokenId",
          "type": "uint256"
        }
      ],
      "name": "tokenURI",
      "outputs": [
        {
          "internalType": "string",
          "name": "",
          "type": "string"
        }
      ],
      "stateMutability": "view",
      "type": "function"
    },
    {
      "inputs": [],
      "name": "totalArea",
      "outputs": [
        {
          "internalType": "uint256",
          "name": "",
          "type": "uint256"
        }
      ],
      "stateMutability": "view",
      "type": "function"
    },
    {
      "inputs": [
        {
          "internalType": "address",
          "name": "from",
          "type": "address"
        },
        {
          "internalType": "address",
          "name": "to",
          "type": "address"
        },
        {
          "internalType": "uint256",
          "name": "tokenId",
          "type": "uint256"
        }
      ],
      "name": "transferFrom",
      "outputs": [],
      "stateMutability": "nonpayable",
      "type": "function"
    },
    {
      "inputs": [
        {
          "internalType": "address",
          "name": "newOwner",
          "type": "address"
        }
      ],
      "name": "transferOwnership",
      "outputs": [],
      "stateMutability": "nonpayable",
      "type": "function"
    },
    {
      "inputs": [],
      "name": "updateTime",
      "outputs": [
        {
          "internalType": "uint256",
          "name": "",
          "type": "uint256"
        }
      ],
      "stateMutability": "view",
      "type": "function"
    },
    {
      "inputs": [
        {
          "internalType": "uint256",
          "name": "fieldID",
          "type": "uint256"
        },
        {
          "internalType": "uint256",
          "name": "proposalID",
          "type": "uint256"
        }
      ],
      "name": "vote",
      "outputs": [],
      "stateMutability": "nonpayable",
      "type": "function"
    },
    {
      "inputs": [],
      "name": "voteInterval",
      "outputs": [
        {
          "internalType": "uint256",
          "name": "",
          "type": "uint256"
        }
      ],
      "stateMutability": "view",
      "type": "function"
    }
  ],
  "transactionHash": "0x4d9ed28174ece481ba07e0b4b14f4aab7e8249da63dd6ec46c7135495c40e832",
  "args": [
    "0x0165878A594ca255338adfa4d48449f69242Eb8F",
    "0xB7f8BC63BbcaD18155201308C8f3540b07f84F5e"
  ],
  "solcInputHash": "41a7aa6c2396b908af18b6ea5b363b11",
  "bytecode": "0x60806040523480156200001157600080fd5b5060405162004c4038038062004c4083398101604081905262000034916200042e565b6040518060400160405280601781526020017f466c6f7261264661756e6120426174746c656669656c640000000000000000008152506040518060400160405280600781526020016623132316a12a2360c91b8152508383620000a6620000a0620002f360201b60201c565b620002f7565b6000805460ff60a01b19168155601460018190556103e8600a55600680546001600160a01b038087166001600160a01b031992831617909255600780549286169290911691909117905560088290556009919091556040517f21e5668ec8085df78c0955e48cdf5939d94bd27059bd915d1258f6ec278c922d916200012e9190815260200190565b60405180910390a1505081516200014d90600b90602085019062000347565b5080516200016390600c90602084019062000347565b50506001601955506006546040805162f8543f60e81b815290516001600160a01b039092169163f8543f0091600480820192602092909190829003018186803b158015620001b057600080fd5b505afa158015620001c5573d6000803e3d6000fd5b505050506040513d601f19601f82011682018060405250810190620001eb91906200040a565b601280546001600160a01b0319166001600160a01b039283161790556007546040805162f8543f60e81b81529051919092169163f8543f00916004808301926020929190829003018186803b1580156200024457600080fd5b505afa15801562000259573d6000803e3d6000fd5b505050506040513d601f19601f820116820180604052508101906200027f91906200040a565b601380546001600160a01b0319166001600160a01b039290921691909117905562278d006017556206978060185560408051808201909152600b8082526a39b2b934b2b9973539b7b760a91b6020909201918252620002e191601a9162000347565b505064e8d4a51000601b5550620004a2565b3390565b600080546001600160a01b038381166001600160a01b0319831681178455604051919092169283917f8be0079c531659141344cd1fd0a4f28419497f9722a3daafe3b4186f6b6457e09190a35050565b828054620003559062000465565b90600052602060002090601f016020900481019282620003795760008555620003c4565b82601f106200039457805160ff1916838001178555620003c4565b82800160010185558215620003c4579182015b82811115620003c4578251825591602001919060010190620003a7565b50620003d2929150620003d6565b5090565b5b80821115620003d25760008155600101620003d7565b80516001600160a01b03811681146200040557600080fd5b919050565b6000602082840312156200041c578081fd5b6200042782620003ed565b9392505050565b6000806040838503121562000441578081fd5b6200044c83620003ed565b91506200045c60208401620003ed565b90509250929050565b600181811c908216806200047a57607f821691505b602082108114156200049c57634e487b7160e01b600052602260045260246000fd5b50919050565b61478e80620004b26000396000f3fe6080604052600436106102a05760003560e01c806378ca994b11610166578063b6806492116100c7578063b6806492146107f7578063b88d4fde14610817578063b922394614610837578063c08cc02d1461084c578063c60043ab14610861578063c72eafa914610877578063c87b56dd146108a7578063d3a7ff13146108c7578063da9f2f68146108e7578063dc55509014610907578063e985e9c51461091d578063ea88a3b81461093d578063ec4155a414610953578063f2fde38b1461096957600080fd5b806378ca994b146106535780638da5cb5b1461067357806392e8bbdc1461068857806395414cce146106b557806395d89b41146106ca5780639daedb15146106df5780639f6e1b72146106ff578063a22cb46514610715578063a4a3578a14610735578063a4acce6f14610755578063a4cf84d114610775578063aa98df3914610797578063b0432929146107aa578063b384abef146107d757600080fd5b8063331cd2cc11610210578063331cd2cc1461049557806336baa7f7146104c557806338e1359a146104e6578063390d68551461050657806342842e0e146105265780634c0a6af01461054657806353fb45121461055b57806355ba23741461057b57806361b5b7fc1461059b5780636352211e146105b1578063682904a5146105d157806370a08231146105f1578063715018a61461061157806376ad68731461062657600080fd5b8063013cf08b146102a557806301b7fc1d146102dd57806301ffc9a71461031d57806306fdde031461033d578063081812fc1461035f578063095ea7b31461039757806315cea39b146103b957806317219522146103db578063233cf472146103ff57806323b872dd1461041f5780632a46ceb71461043f5780632c708d141461045557806330df044714610475575b600080fd5b3480156102b157600080fd5b506102c56102c0366004613f30565b610989565b6040516102d493929190614187565b60405180910390f35b3480156102e957600080fd5b5061030d6102f8366004613f30565b60046020526000908152604090205460ff1681565b60405190151581526020016102d4565b34801561032957600080fd5b5061030d610338366004613e8c565b610a51565b34801561034957600080fd5b50610352610aa3565b6040516102d49190614301565b34801561036b57600080fd5b5061037f61037a366004613f30565b610b35565b6040516001600160a01b0390911681526020016102d4565b3480156103a357600080fd5b506103b76103b2366004613e45565b610bc2565b005b3480156103c557600080fd5b506103ce610cd3565b6040516102d491906141bb565b3480156103e757600080fd5b506103f160195481565b6040519081526020016102d4565b34801561040b57600080fd5b5060065461037f906001600160a01b031681565b34801561042b57600080fd5b506103b761043a366004613cb9565b610d91565b34801561044b57600080fd5b506103f160185481565b34801561046157600080fd5b506103f1610470366004613f84565b610dc2565b34801561048157600080fd5b506103b7610490366004613f30565b610df3565b3480156104a157600080fd5b5061030d6104b0366004613f30565b60036020526000908152604090205460ff1681565b3480156104d157600080fd5b5060005461030d90600160a01b900460ff1681565b3480156104f257600080fd5b506103b7610501366004613f30565b610e27565b34801561051257600080fd5b506103b7610521366004613f60565b611108565b34801561053257600080fd5b506103b7610541366004613cb9565b61116d565b34801561055257600080fd5b506103b7611188565b34801561056757600080fd5b5061037f610576366004613f30565b611291565b34801561058757600080fd5b506103b7610596366004613f84565b61156f565b3480156105a757600080fd5b506103f160095481565b3480156105bd57600080fd5b5061037f6105cc366004613f30565b611942565b3480156105dd57600080fd5b506103b76105ec366004613f30565b6119b9565b3480156105fd57600080fd5b506103f161060c366004613c49565b611ba5565b34801561061d57600080fd5b506103b7611c2c565b34801561063257600080fd5b50610646610641366004613f30565b611c67565b6040516102d4919061458a565b34801561065f57600080fd5b5060135461037f906001600160a01b031681565b34801561067f57600080fd5b5061037f611cc2565b34801561069457600080fd5b506103f16106a3366004613f30565b60156020526000908152604090205481565b3480156106c157600080fd5b50610352611cd1565b3480156106d657600080fd5b50610352611d5f565b3480156106eb57600080fd5b5060075461037f906001600160a01b031681565b34801561070b57600080fd5b506103f160085481565b34801561072157600080fd5b506103b7610730366004613dd1565b611d6e565b34801561074157600080fd5b506103b7610750366004613f30565b611e2f565b34801561076157600080fd5b506103b7610770366004613ec4565b611e63565b34801561078157600080fd5b5061078a611e9e565b6040516102d4919061421c565b6103b76107a5366004613ec4565b611faf565b3480156107b657600080fd5b506107ca6107c5366004613f30565b612142565b6040516102d491906142a7565b3480156107e357600080fd5b506103b76107f2366004613f84565b6121a4565b34801561080357600080fd5b506103b7610812366004613f30565b6125ae565b34801561082357600080fd5b506103b7610832366004613cf9565b6125e2565b34801561084357600080fd5b506103b761261a565b34801561085857600080fd5b506014546103f1565b34801561086d57600080fd5b506103f160015481565b34801561088357600080fd5b5061030d610892366004613f30565b60056020526000908152604090205460ff1681565b3480156108b357600080fd5b506103526108c2366004613f30565b6129fc565b3480156108d357600080fd5b5060125461037f906001600160a01b031681565b3480156108f357600080fd5b506103b7610902366004613f84565b612b73565b34801561091357600080fd5b506103f160165481565b34801561092957600080fd5b5061030d610938366004613c81565b612f31565b34801561094957600080fd5b506103f1601b5481565b34801561095f57600080fd5b506103f160175481565b34801561097557600080fd5b506103b7610984366004613c49565b612f5f565b6014818154811061099957600080fd5b6000918252602090912060039091020180546001820180546001600160a01b039092169350906109c890614659565b80601f01602080910402602001604051908101604052809291908181526020018280546109f490614659565b8015610a415780601f10610a1657610100808354040283529160200191610a41565b820191906000526020600020905b815481529060010190602001808311610a2457829003601f168201915b5050505050908060020154905083565b60006001600160e01b031982166380ac58cd60e01b1480610a8257506001600160e01b03198216635b5e139f60e01b145b80610a9d57506301ffc9a760e01b6001600160e01b03198316145b92915050565b6060600b8054610ab290614659565b80601f0160208091040260200160405190810160405280929190818152602001828054610ade90614659565b8015610b2b5780601f10610b0057610100808354040283529160200191610b2b565b820191906000526020600020905b815481529060010190602001808311610b0e57829003601f168201915b5050505050905090565b6000610b4082612fff565b610ba65760405162461bcd60e51b815260206004820152602c60248201527f4552433732313a20617070726f76656420717565727920666f72206e6f6e657860448201526b34b9ba32b73a103a37b5b2b760a11b60648201526084015b60405180910390fd5b506000908152600f60205260409020546001600160a01b031690565b6000610bcd82611942565b9050806001600160a01b0316836001600160a01b03161415610c3b5760405162461bcd60e51b815260206004820152602160248201527f4552433732313a20617070726f76616c20746f2063757272656e74206f776e656044820152603960f91b6064820152608401610b9d565b336001600160a01b0382161480610c575750610c578133612f31565b610cc45760405162461bcd60e51b815260206004820152603860248201527f4552433732313a20617070726f76652063616c6c6572206973206e6f74206f776044820152771b995c881b9bdc88185c1c1c9bdd995908199bdc88185b1b60421b6064820152608401610b9d565b610cce838361301c565b505050565b60606001546001600160401b03811115610cfd57634e487b7160e01b600052604160045260246000fd5b604051908082528060200260200182016040528015610d3657816020015b610d23613a66565b815260200190600190039081610d1b5790505b50905060005b600154811015610d8d57610d4f81611c67565b828281518110610d6f57634e487b7160e01b600052603260045260246000fd5b60200260200101819052508080610d859061468e565b915050610d3c565b5090565b610d9b338261308a565b610db75760405162461bcd60e51b8152600401610b9d90614539565b610cce83838361314c565b60026020528160005260406000208181548110610dde57600080fd5b90600052602060002001600091509150505481565b33610dfc611cc2565b6001600160a01b031614610e225760405162461bcd60e51b8152600401610b9d90614487565b601855565b600081815260026020908152604080832080548251818502810185019093528083529192909190830182828015610e7d57602002820191906000526020600020905b815481526020019060010190808311610e69575b505050505090506000815111610ee35760405162461bcd60e51b815260206004820152602560248201527f426174746c656669656c643a20726574726561742066726f6d20656d70747920604482015264199a595b1960da1b6064820152608401610b9d565b600081600081518110610f0657634e487b7160e01b600052603260045260246000fd5b6020908102919091018101516000858152600390925260409091205490915060ff1615610fea576006546040516331a9108f60e11b81526004810183905233916001600160a01b031690636352211e9060240160206040518083038186803b158015610f7157600080fd5b505afa158015610f85573d6000803e3d6000fd5b505050506040513d601f19601f82011682018060405250810190610fa99190613c65565b6001600160a01b031614610fcf5760405162461bcd60e51b8152600401610b9d9061441f565b6000818152600460205260409020805460ff191690556110a3565b6007546040516331a9108f60e11b81526004810183905233916001600160a01b031690636352211e9060240160206040518083038186803b15801561102e57600080fd5b505afa158015611042573d6000803e3d6000fd5b505050506040513d601f19601f820116820180604052508101906110669190613c65565b6001600160a01b03161461108c5760405162461bcd60e51b8152600401610b9d9061441f565b6000818152600560205260409020805460ff191690555b60008381526002602052604081206110ba91613a92565b6000838152600360209081526040808320546002909252808320905160ff909216151592918691600080516020614739833981519152916110fb91906142ba565b60405180910390a4505050565b33611111611cc2565b6001600160a01b0316146111375760405162461bcd60e51b8152600401610b9d90614487565b6040516001600160a01b0382169083156108fc029084906000818181858888f19350505050158015610cce573d6000803e3d6000fd5b610cce838383604051806020016040528060008152506125e2565b600054600160a01b900460ff16156111b25760405162461bcd60e51b8152600401610b9d90614450565b60145460011061120e5760405162461bcd60e51b815260206004820152602160248201527f426174746c656669656c643a206e6f7420656e6f7567682070726f706f73616c6044820152607360f81b6064820152608401610b9d565b601754601654429161121f916145d3565b8110156112795760405162461bcd60e51b815260206004820152602260248201527f426174746c656669656c643a206e6f742079657420746f20737461727420766f604482015261746560f01b6064820152608401610b9d565b6016556000805460ff60a01b1916600160a01b179055565b6000818152600260209081526040808320805482518185028101850190935280835284938301828280156112e457602002820191906000526020600020905b8154815260200190600101908083116112d0575b505050505090508051600014156112fe5750600092915050565b60008381526003602052604090205460ff16156114825760065481516001600160a01b039091169063d024851690839060009061134b57634e487b7160e01b600052603260045260246000fd5b60200260200101516040518263ffffffff1660e01b815260040161137191815260200190565b60206040518083038186803b15801561138957600080fd5b505afa15801561139d573d6000803e3d6000fd5b505050506040513d601f19601f820116820180604052508101906113c19190613e70565b156114795760065481516001600160a01b0390911690636352211e9083906000906113fc57634e487b7160e01b600052603260045260246000fd5b60200260200101516040518263ffffffff1660e01b815260040161142291815260200190565b60206040518083038186803b15801561143a57600080fd5b505afa15801561144e573d6000803e3d6000fd5b505050506040513d601f19601f820116820180604052508101906114729190613c65565b9392505050565b50600092915050565b60075481516001600160a01b039091169063d02485169083906000906114b857634e487b7160e01b600052603260045260246000fd5b60200260200101516040518263ffffffff1660e01b81526004016114de91815260200190565b60206040518083038186803b1580156114f657600080fd5b505afa15801561150a573d6000803e3d6000fd5b505050506040513d601f19601f8201168201806040525081019061152e9190613e70565b156114795760075481516001600160a01b0390911690636352211e9083906000906113fc57634e487b7160e01b600052603260045260246000fd5b50919050565b6000548290600160a01b900460ff161561159b5760405162461bcd60e51b8152600401610b9d906144bc565b60015481106115bc5760405162461bcd60e51b8152600401610b9d906143e8565b60008281526004602052604090205460ff16156116325760405162461bcd60e51b815260206004820152602e60248201527f426174746c656669656c643a2074686520666c6f7261206d696e696f6e20616c60448201526d1c9958591e481bdb88199a595b1960921b6064820152608401610b9d565b6006546040516331a9108f60e11b81526004810184905233916001600160a01b031690636352211e9060240160206040518083038186803b15801561167657600080fd5b505afa15801561168a573d6000803e3d6000fd5b505050506040513d601f19601f820116820180604052508101906116ae9190613c65565b6001600160a01b03161461171f5760405162461bcd60e51b815260206004820152603260248201527f426174746c656669656c643a206e6f742074686520636f6d6d616e646572206f60448201527133103a343290333637b9309036b4b734b7b760711b6064820152608401610b9d565b60008381526002602090815260408083208054825181850281018501909352808352919290919083018282801561177557602002820191906000526020600020905b815481526020019060010190808311611761575b505050505090506000815111156118a0576000816000815181106117a957634e487b7160e01b600052603260045260246000fd5b6020908102919091018101516000878152600390925260409091205490915060ff1615611803576006546117e8906001600160a01b03168581846132ec565b6000818152600460205260409020805460ff19169055611861565b600654600754611822916001600160a01b0390811691879116846132ec565b6000818152600560205260408120805460ff19169055600980549161184683614642565b90915550506008805490600061185b8361468e565b91905055505b6000858152600260205260408120805486929061188e57634e487b7160e01b600052603260045260246000fd5b600091825260209091200155506118d6565b6000848152600260209081526040822080546001810182559083529082200184905560088054916118d08361468e565b91905055505b60008381526004602090815260408083208054600160ff1991821681179092558885526003845282852080549091168217905560029092529182902091519091339187916000805160206147398339815191529161193491906142ba565b60405180910390a450505050565b6000818152600d60205260408120546001600160a01b031680610a9d5760405162461bcd60e51b815260206004820152602960248201527f4552433732313a206f776e657220717565727920666f72206e6f6e657869737460448201526832b73a103a37b5b2b760b91b6064820152608401610b9d565b336119c2611cc2565b6001600160a01b0316146119e85760405162461bcd60e51b8152600401610b9d90614487565b80600160008282546119fa91906145d3565b909155505060075460408051633c4407a560e11b815290516001600160a01b03909216916378880f4a91600480820192602092909190829003018186803b158015611a4457600080fd5b505afa158015611a58573d6000803e3d6000fd5b505050506040513d601f19601f82011682018060405250810190611a7c9190613f48565b600660009054906101000a90046001600160a01b03166001600160a01b03166378880f4a6040518163ffffffff1660e01b815260040160206040518083038186803b158015611aca57600080fd5b505afa158015611ade573d6000803e3d6000fd5b505050506040513d601f19601f82011682018060405250810190611b029190613f48565b611b0c91906145d3565b60015410611b675760405162461bcd60e51b815260206004820152602260248201527f426174746c656669656c643a206e6f206e65656420666f7220657870616e736960448201526137b760f11b6064820152608401610b9d565b7f21e5668ec8085df78c0955e48cdf5939d94bd27059bd915d1258f6ec278c922d600154604051611b9a91815260200190565b60405180910390a150565b60006001600160a01b038216611c105760405162461bcd60e51b815260206004820152602a60248201527f4552433732313a2062616c616e636520717565727920666f7220746865207a65604482015269726f206164647265737360b01b6064820152608401610b9d565b506001600160a01b03166000908152600e602052604090205490565b33611c35611cc2565b6001600160a01b031614611c5b5760405162461bcd60e51b8152600401610b9d90614487565b611c656000613528565b565b611c6f613a66565b611c7882611291565b6001600160a01b031680825215611cba57611c9282612142565b602080830191909152600083815260039091526040908190205460ff16151590820152919050565b610a9d613a66565b6000546001600160a01b031690565b601a8054611cde90614659565b80601f0160208091040260200160405190810160405280929190818152602001828054611d0a90614659565b8015611d575780601f10611d2c57610100808354040283529160200191611d57565b820191906000526020600020905b815481529060010190602001808311611d3a57829003601f168201915b505050505081565b6060600c8054610ab290614659565b6001600160a01b038216331415611dc35760405162461bcd60e51b815260206004820152601960248201527822a9219b99189d1030b8383937bb32903a379031b0b63632b960391b6044820152606401610b9d565b3360008181526010602090815260408083206001600160a01b03871680855290835292819020805460ff191686151590811790915590519081529192917f17307eab39ab6107e8899845ad3d59bd9653f200f220920489ca2b5937696c31910160405180910390a35050565b33611e38611cc2565b6001600160a01b031614611e5e5760405162461bcd60e51b8152600401610b9d90614487565b601b55565b33611e6c611cc2565b6001600160a01b031614611e925760405162461bcd60e51b8152600401610b9d90614487565b610cce601a8383613ab0565b60606014805480602002602001604051908101604052809291908181526020016000905b82821015611fa657600084815260209081902060408051606081019091526003850290910180546001600160a01b031682526001810180549293919291840191611f0b90614659565b80601f0160208091040260200160405190810160405280929190818152602001828054611f3790614659565b8015611f845780601f10611f5957610100808354040283529160200191611f84565b820191906000526020600020905b815481529060010190602001808311611f6757829003601f168201915b5050505050815260200160028201548152505081526020019060010190611ec2565b50505050905090565b600054600160a01b900460ff1615611fd95760405162461bcd60e51b8152600401610b9d90614450565b601b543410156120375760405162461bcd60e51b8152602060048201526024808201527f426174746c656669656c643a206e6f7420656e6f75676820736c6f7474696e676044820152632066656560e01b6064820152608401610b9d565b60146040518060600160405280336001600160a01b0316815260200184848080601f0160208091040260200160405190810160405280939291908181526020018383808284376000920182905250938552505050602091820181905283546001808201865594825290829020835160039092020180546001600160a01b0319166001600160a01b03909216919091178155828201518051939491936120e493928501929190910190613b30565b506040919091015160029091015560145433907f75656bcb503b4e9a5d049db76f375436e37366365e3c547fd8003802dd9804fb90612125906001906145ff565b84846040516121369392919061459d565b60405180910390a25050565b60008181526002602090815260409182902080548351818402810184019094528084526060939283018282801561219857602002820191906000526020600020905b815481526020019060010190808311612184575b50505050509050919050565b600054600160a01b900460ff166121cd5760405162461bcd60e51b8152600401610b9d90614354565b601954600083815260156020526040902054106122445760405162461bcd60e51b815260206004820152602f60248201527f426174746c656669656c643a206669656c642068617320766f74656420696e2060448201526e3a3434b99033b2b732b930ba34b7b760891b6064820152608401610b9d565b60008281526002602090815260408083208054825181850281018501909352808352919290919083018282801561229a57602002820191906000526020600020905b815481526020019060010190808311612286575b5050505050905060008151116122fe5760405162461bcd60e51b815260206004820152602360248201527f426174746c656669656c643a20656d707479206669656c642063616e277420766044820152626f746560e81b6064820152608401610b9d565b60008381526003602052604090205460ff161561241057600654815133916001600160a01b031690636352211e90849060009061234b57634e487b7160e01b600052603260045260246000fd5b60200260200101516040518263ffffffff1660e01b815260040161237191815260200190565b60206040518083038186803b15801561238957600080fd5b505afa15801561239d573d6000803e3d6000fd5b505050506040513d601f19601f820116820180604052508101906123c19190613c65565b6001600160a01b0316146123e75760405162461bcd60e51b8152600401610b9d9061441f565b600954600854101561240b5760405162461bcd60e51b8152600401610b9d90614502565b612506565b600754815133916001600160a01b031690636352211e90849060009061244657634e487b7160e01b600052603260045260246000fd5b60200260200101516040518263ffffffff1660e01b815260040161246c91815260200190565b60206040518083038186803b15801561248457600080fd5b505afa158015612498573d6000803e3d6000fd5b505050506040513d601f19601f820116820180604052508101906124bc9190613c65565b6001600160a01b0316146124e25760405162461bcd60e51b8152600401610b9d9061441f565b60085460095410156125065760405162461bcd60e51b8152600401610b9d90614502565b60006014838154811061252957634e487b7160e01b600052603260045260246000fd5b9060005260206000209060030201905080600201600081548092919061254e9061468e565b9190505550601954601560008681526020019081526020016000208190555082336001600160a01b0316857f691caaa3fac07e755c9e46e4877cbd04f37fd1b9be1bfc9851f6a520aad29c13846002015460405161193491815260200190565b336125b7611cc2565b6001600160a01b0316146125dd5760405162461bcd60e51b8152600401610b9d90614487565b601755565b6125ec338361308a565b6126085760405162461bcd60e51b8152600401610b9d90614539565b61261484848484613578565b50505050565b600054600160a01b900460ff166126435760405162461bcd60e51b8152600401610b9d90614354565b6018546016544291612654916145d3565b8110156126a35760405162461bcd60e51b815260206004820181905260248201527f426174746c656669656c643a206e6f742079657420746f20656e6420766f74656044820152606401610b9d565b6016819055600080805b60145481101561273c5782601482815481106126d957634e487b7160e01b600052603260045260246000fd5b906000526020600020906003020160020154111561272a576014818154811061271257634e487b7160e01b600052603260045260246000fd5b90600052602060002090600302016002015492508091505b806127348161468e565b9150506126ad565b5060006014828154811061276057634e487b7160e01b600052603260045260246000fd5b6000918252602091829020604080516060810190915260039092020180546001600160a01b0316825260018101805492939192918401916127a090614659565b80601f01602080910402602001604051908101604052809291908181526020018280546127cc90614659565b80156128195780601f106127ee57610100808354040283529160200191612819565b820191906000526020600020905b8154815290600101906020018083116127fc57829003601f168201915b505050505081526020016002820154815250509050600080600954600854106128aa57601254602084015160405163350c02f160e11b81526001600160a01b0390921691636a1805e2916128739160009190600401614163565b600060405180830381600087803b15801561288d57600080fd5b505af11580156128a1573d6000803e3d6000fd5b50505050600191505b6008546009541061292357601354602084015160405163350c02f160e11b81526001600160a01b0390921691636a1805e2916128ec9160009190600401614163565b600060405180830381600087803b15801561290657600080fd5b505af115801561291a573d6000803e3d6000fd5b50505050600190505b61293383600001516019546135ab565b6129656019548460200151601a604051602001612951929190614077565b6040516020818303038152906040526136de565b61297160146000613ba4565b6000805460ff60a01b1916905582516019546001600160a01b03909116907fbcce7ae1b0eda5f386742164a672abb073651089d04d044faa6352139ceb565c6129b9826129fc565b60145460408089015160015491516129d7949392908a908a90614314565b60405180910390a3601980549060006129ef8361468e565b9190505550505050505050565b6060612a0782612fff565b612a6d5760405162461bcd60e51b815260206004820152603160248201527f45524337323155524953746f726167653a2055524920717565727920666f72206044820152703737b732bc34b9ba32b73a103a37b5b2b760791b6064820152608401610b9d565b60008281526011602052604081208054612a8690614659565b80601f0160208091040260200160405190810160405280929190818152602001828054612ab290614659565b8015612aff5780601f10612ad457610100808354040283529160200191612aff565b820191906000526020600020905b815481529060010190602001808311612ae257829003601f168201915b505050505090506000612b1d60408051602081019091526000815290565b9050805160001415612b30575092915050565b815115612b62578082604051602001612b4a929190614048565b60405160208183030381529060405292505050919050565b612b6b84613769565b949350505050565b6000548290600160a01b900460ff1615612b9f5760405162461bcd60e51b8152600401610b9d906144bc565b6001548110612bc05760405162461bcd60e51b8152600401610b9d906143e8565b60008281526005602052604090205460ff1615612c365760405162461bcd60e51b815260206004820152602e60248201527f426174746c656669656c643a20746865206661756e61206d696e696f6e20616c60448201526d1c9958591e481bdb88199a595b1960921b6064820152608401610b9d565b6007546040516331a9108f60e11b81526004810184905233916001600160a01b031690636352211e9060240160206040518083038186803b158015612c7a57600080fd5b505afa158015612c8e573d6000803e3d6000fd5b505050506040513d601f19601f82011682018060405250810190612cb29190613c65565b6001600160a01b031614612d235760405162461bcd60e51b815260206004820152603260248201527f426174746c656669656c643a206e6f742074686520636f6d6d616e646572206f60448201527133103a3432903330bab7309036b4b734b7b760711b6064820152608401610b9d565b600083815260026020908152604080832080548251818502810185019093528083529192909190830182828015612d7957602002820191906000526020600020905b815481526020019060010190808311612d65575b50505050509050600081511115612ea457600081600081518110612dad57634e487b7160e01b600052603260045260246000fd5b6020908102919091018101516000878152600390925260409091205490915060ff1615612e3657600754600654612df3916001600160a01b0390811691879116846132ec565b6000818152600460205260408120805460ff191690556008805491612e1783614642565b909155505060098054906000612e2c8361468e565b9190505550612e65565b600754612e4e906001600160a01b03168581846132ec565b6000818152600560205260409020805460ff191690555b60008581526002602052604081208054869290612e9257634e487b7160e01b600052603260045260246000fd5b60009182526020909120015550612eda565b600084815260026020908152604082208054600181018255908352908220018490556009805491612ed48361468e565b91905055505b6000838152600560209081526040808320805460ff199081166001179091558784526003835281842080549091169055600290915280822090513391879160008051602061473983398151915291611934916142ba565b6001600160a01b03918216600090815260106020908152604080832093909416825291909152205460ff1690565b33612f68611cc2565b6001600160a01b031614612f8e5760405162461bcd60e51b8152600401610b9d90614487565b6001600160a01b038116612ff35760405162461bcd60e51b815260206004820152602660248201527f4f776e61626c653a206e6577206f776e657220697320746865207a65726f206160448201526564647265737360d01b6064820152608401610b9d565b612ffc81613528565b50565b6000908152600d60205260409020546001600160a01b0316151590565b6000818152600f6020526040902080546001600160a01b0319166001600160a01b038416908117909155819061305182611942565b6001600160a01b03167f8c5be1e5ebec7d5bd14f71427d1e84f3dd0314c0f7b2291e5b200ac8c7c3b92560405160405180910390a45050565b600061309582612fff565b6130f65760405162461bcd60e51b815260206004820152602c60248201527f4552433732313a206f70657261746f7220717565727920666f72206e6f6e657860448201526b34b9ba32b73a103a37b5b2b760a11b6064820152608401610b9d565b600061310183611942565b9050806001600160a01b0316846001600160a01b0316148061313c5750836001600160a01b031661313184610b35565b6001600160a01b0316145b80612b6b5750612b6b8185612f31565b826001600160a01b031661315f82611942565b6001600160a01b0316146131c75760405162461bcd60e51b815260206004820152602960248201527f4552433732313a207472616e73666572206f6620746f6b656e2074686174206960448201526839903737ba1037bbb760b91b6064820152608401610b9d565b6001600160a01b0382166132295760405162461bcd60e51b8152602060048201526024808201527f4552433732313a207472616e7366657220746f20746865207a65726f206164646044820152637265737360e01b6064820152608401610b9d565b61323460008261301c565b6001600160a01b0383166000908152600e6020526040812080546001929061325d9084906145ff565b90915550506001600160a01b0382166000908152600e6020526040812080546001929061328b9084906145d3565b90915550506000818152600d602052604080822080546001600160a01b0319166001600160a01b0386811691821790925591518493918716917fddf252ad1be2c89b69c2b068fc378daa952ba7f163c4a11628f55a4df523b3ef91a4505050565b604051636812428b60e11b8152600481018290526001600160a01b0383169063d02485169060240160206040518083038186803b15801561332c57600080fd5b505afa158015613340573d6000803e3d6000fd5b505050506040513d601f19601f820116820180604052508101906133649190613e70565b156126145760405163df069b1160e01b81526004810184905260009081906001600160a01b0387169063df069b119060240160806040518083038186803b1580156133ae57600080fd5b505afa1580156133c2573d6000803e3d6000fd5b505050506040513d601f19601f820116820180604052508101906133e69190613dfe565b935050925050600080856001600160a01b031663df069b11866040518263ffffffff1660e01b815260040161341d91815260200190565b60806040518083038186803b15801561343557600080fd5b505afa158015613449573d6000803e3d6000fd5b505050506040513d601f19601f8201168201806040525081019061346d9190613dfe565b935050925050836134ce5760405162461bcd60e51b815260206004820152602560248201527f426174746c656669656c643a2061747461636b65722073686f756c6420626520604482015264185c9b595960da1b6064820152608401610b9d565b8115806134da57508083135b61351e5760405162461bcd60e51b815260206004820152601560248201527410985d1d1b19599a595b190e8819195999585d1959605a1b6044820152606401610b9d565b5050505050505050565b600080546001600160a01b038381166001600160a01b0319831681178455604051919092169283917f8be0079c531659141344cd1fd0a4f28419497f9722a3daafe3b4186f6b6457e09190a35050565b61358384848461314c565b61358f84848484613840565b6126145760405162461bcd60e51b8152600401610b9d90614396565b6001600160a01b0382166136015760405162461bcd60e51b815260206004820181905260248201527f4552433732313a206d696e7420746f20746865207a65726f20616464726573736044820152606401610b9d565b61360a81612fff565b156136575760405162461bcd60e51b815260206004820152601c60248201527f4552433732313a20746f6b656e20616c7265616479206d696e746564000000006044820152606401610b9d565b6001600160a01b0382166000908152600e602052604081208054600192906136809084906145d3565b90915550506000818152600d602052604080822080546001600160a01b0319166001600160a01b03861690811790915590518392907fddf252ad1be2c89b69c2b068fc378daa952ba7f163c4a11628f55a4df523b3ef908290a45050565b6136e782612fff565b61374a5760405162461bcd60e51b815260206004820152602e60248201527f45524337323155524953746f726167653a2055524920736574206f66206e6f6e60448201526d32bc34b9ba32b73a103a37b5b2b760911b6064820152608401610b9d565b60008281526011602090815260409091208251610cce92840190613b30565b606061377482612fff565b6137d85760405162461bcd60e51b815260206004820152602f60248201527f4552433732314d657461646174613a2055524920717565727920666f72206e6f60448201526e3732bc34b9ba32b73a103a37b5b2b760891b6064820152608401610b9d565b60006137ef60408051602081019091526000815290565b9050600081511161380f5760405180602001604052806000815250611472565b806138198461394d565b60405160200161382a929190614048565b6040516020818303038152906040529392505050565b60006001600160a01b0384163b1561394257604051630a85bd0160e11b81526001600160a01b0385169063150b7a0290613884903390899088908890600401614126565b602060405180830381600087803b15801561389e57600080fd5b505af19250505080156138ce575060408051601f3d908101601f191682019092526138cb91810190613ea8565b60015b613928573d8080156138fc576040519150601f19603f3d011682016040523d82523d6000602084013e613901565b606091505b5080516139205760405162461bcd60e51b8152600401610b9d90614396565b805181602001fd5b6001600160e01b031916630a85bd0160e11b149050612b6b565b506001949350505050565b6060816139715750506040805180820190915260018152600360fc1b602082015290565b8160005b811561399b57806139858161468e565b91506139949050600a836145eb565b9150613975565b6000816001600160401b038111156139c357634e487b7160e01b600052604160045260246000fd5b6040519080825280601f01601f1916602001820160405280156139ed576020820181803683370190505b5090505b8415612b6b57613a026001836145ff565b9150613a0f600a866146a9565b613a1a9060306145d3565b60f81b818381518110613a3d57634e487b7160e01b600052603260045260246000fd5b60200101906001600160f81b031916908160001a905350613a5f600a866145eb565b94506139f1565b604051806060016040528060006001600160a01b03168152602001606081526020016000151581525090565b5080546000825590600052602060002090810190612ffc9190613bc5565b828054613abc90614659565b90600052602060002090601f016020900481019282613ade5760008555613b24565b82601f10613af75782800160ff19823516178555613b24565b82800160010185558215613b24579182015b82811115613b24578235825591602001919060010190613b09565b50610d8d929150613bc5565b828054613b3c90614659565b90600052602060002090601f016020900481019282613b5e5760008555613b24565b82601f10613b7757805160ff1916838001178555613b24565b82800160010185558215613b24579182015b82811115613b24578251825591602001919060010190613b89565b5080546000825560030290600052602060002090810190612ffc9190613bda565b5b80821115610d8d5760008155600101613bc6565b80821115610d8d5780546001600160a01b03191681556000613bff6001830182613c0f565b5060006002820155600301613bda565b508054613c1b90614659565b6000825580601f10613c2b575050565b601f016020900490600052602060002090810190612ffc9190613bc5565b600060208284031215613c5a578081fd5b8135611472816146ff565b600060208284031215613c76578081fd5b8151611472816146ff565b60008060408385031215613c93578081fd5b8235613c9e816146ff565b91506020830135613cae816146ff565b809150509250929050565b600080600060608486031215613ccd578081fd5b8335613cd8816146ff565b92506020840135613ce8816146ff565b929592945050506040919091013590565b60008060008060808587031215613d0e578081fd5b8435613d19816146ff565b93506020850135613d29816146ff565b92506040850135915060608501356001600160401b0380821115613d4b578283fd5b818701915087601f830112613d5e578283fd5b813581811115613d7057613d706146e9565b604051601f8201601f19908116603f01168101908382118183101715613d9857613d986146e9565b816040528281528a6020848701011115613db0578586fd5b82602086016020830137918201602001949094529598949750929550505050565b60008060408385031215613de3578182fd5b8235613dee816146ff565b91506020830135613cae81614714565b60008060008060808587031215613e13578384fd5b8451613e1e816146ff565b6020860151909450613e2f81614714565b6040860151606090960151949790965092505050565b60008060408385031215613e57578182fd5b8235613e62816146ff565b946020939093013593505050565b600060208284031215613e81578081fd5b815161147281614714565b600060208284031215613e9d578081fd5b813561147281614722565b600060208284031215613eb9578081fd5b815161147281614722565b60008060208385031215613ed6578182fd5b82356001600160401b0380821115613eec578384fd5b818501915085601f830112613eff578384fd5b813581811115613f0d578485fd5b866020828501011115613f1e578485fd5b60209290920196919550909350505050565b600060208284031215613f41578081fd5b5035919050565b600060208284031215613f59578081fd5b5051919050565b60008060408385031215613f72578182fd5b823591506020830135613cae816146ff565b60008060408385031215613f96578182fd5b50508035926020909101359150565b6000815180845260208085019450808401835b83811015613fd457815187529582019590820190600101613fb8565b509495945050505050565b60008151808452613ff7816020860160208601614616565b601f01601f19169290920160200192915050565b60018060a01b03815116825260006020820151606060208501526140326060850182613fa5565b6040938401511515949093019390935250919050565b6000835161405a818460208801614616565b83519083019061406e818360208801614616565b01949350505050565b60008351602061408a8285838901614616565b8454918401918390600181811c90808316806140a757607f831692505b8583108114156140c557634e487b7160e01b88526022600452602488fd5b8080156140d957600181146140ea57614116565b60ff19851688528388019550614116565b60008b815260209020895b8581101561410e5781548a8201529084019088016140f5565b505083880195505b50939a9950505050505050505050565b6001600160a01b038581168252841660208201526040810183905260806060820181905260009061415990830184613fdf565b9695505050505050565b6001600160a01b0383168152604060208201819052600090612b6b90830184613fdf565b6001600160a01b03841681526060602082018190526000906141ab90830185613fdf565b9050826040830152949350505050565b6000602080830181845280855180835260408601915060408160051b8701019250838701855b8281101561420f57603f198886030184526141fd85835161400b565b945092850192908501906001016141e1565b5092979650505050505050565b60006020808301818452808551808352604092508286019150828160051b870101848801865b8381101561429957888303603f19018552815180516001600160a01b031684528781015160608986018190529061427b82870182613fdf565b92890151958901959095525094870194925090860190600101614242565b509098975050505050505050565b6020815260006114726020830184613fa5565b6020808252825482820181905260008481528281209092916040850190845b818110156142f5578354835260019384019392850192016142d9565b50909695505050505050565b6020815260006114726020830184613fdf565b60c08152600061432760c0830189613fdf565b6020830197909752506040810194909452606084019290925215156080830152151560a090910152919050565b60208082526022908201527f426174746c656669656c643a206e6f7420696e2070726f706f73616c20737461604082015261746560f01b606082015260800190565b60208082526032908201527f4552433732313a207472616e7366657220746f206e6f6e20455243373231526560408201527131b2b4bb32b91034b6b83632b6b2b73a32b960711b606082015260800190565b6020808252601f908201527f426174746c656669656c643a206669656c64206f7574206f662072616e676500604082015260600190565b6020808252601790820152762130ba3a3632b334b2b6321d103737ba103632b0b232b960491b604082015260600190565b6020808252601e908201527f426174746c656669656c643a206e6f7420696e20766f74652073746174650000604082015260600190565b6020808252818101527f4f776e61626c653a2063616c6c6572206973206e6f7420746865206f776e6572604082015260600190565b60208082526026908201527f426174746c656669656c643a20626174746c656669656c64206973206c6f636b6040820152656564206e6f7760d01b606082015260800190565b6020808252601e908201527f426174746c656669656c643a20796f75277265206c6f73657220736964650000604082015260600190565b60208082526031908201527f4552433732313a207472616e736665722063616c6c6572206973206e6f74206f6040820152701ddb995c881b9bdc88185c1c1c9bdd9959607a1b606082015260800190565b602081526000611472602083018461400b565b83815260406020820152816040820152818360608301376000818301606090810191909152601f909201601f1916010192915050565b600082198211156145e6576145e66146bd565b500190565b6000826145fa576145fa6146d3565b500490565b600082821015614611576146116146bd565b500390565b60005b83811015614631578181015183820152602001614619565b838111156126145750506000910152565b600081614651576146516146bd565b506000190190565b600181811c9082168061466d57607f821691505b6020821081141561156957634e487b7160e01b600052602260045260246000fd5b60006000198214156146a2576146a26146bd565b5060010190565b6000826146b8576146b86146d3565b500690565b634e487b7160e01b600052601160045260246000fd5b634e487b7160e01b600052601260045260246000fd5b634e487b7160e01b600052604160045260246000fd5b6001600160a01b0381168114612ffc57600080fd5b8015158114612ffc57600080fd5b6001600160e01b031981168114612ffc57600080fdfe9a3c276128da5bf5f6a0c9b8df4df4c267f0ca732b1708cb8425bf3c308fef19a26469706673582212200fcf0bc771b9a042a6c98ab193f68b48ca09c3ab3a6e9798112bfc576fc17f5b64736f6c63430008040033",
  "devdoc": {
    "author": "Justa Liang",
    "kind": "dev",
    "methods": {
      "approve(address,uint256)": {
        "details": "See {IERC721-approve}."
      },
      "balanceOf(address)": {
        "details": "See {IERC721-balanceOf}."
      },
      "claimFunds(uint256,address)": {
        "details": "Claim the funds from slotting fee",
        "params": {
          "amount": "Amount of Ether",
          "receiver": "Address of receiver"
        }
      },
      "constructor": {
        "details": "Set addresses of interactive contracts",
        "params": {
          "faunaArmyAddr": "Address of FaunaArmy contract",
          "floraArmyAddr": "Address of FloraArmy contract"
        }
      },
      "faunaConquer(uint256,uint256)": {
        "params": {
          "attackerID": "ID of the fauna attacker minion",
          "fieldID": "ID of the field"
        }
      },
      "floraConquer(uint256,uint256)": {
        "params": {
          "attackerID": "ID of the flora attacker minion",
          "fieldID": "ID of the field"
        }
      },
      "getAllFieldInfo()": {
        "returns": {
          "allFieldInfo": "Info of every field"
        }
      },
      "getAllProposalInfo()": {
        "returns": {
          "_0": "Details of all proposals"
        }
      },
      "getApproved(uint256)": {
        "details": "See {IERC721-getApproved}."
      },
      "getFieldDefender(uint256)": {
        "params": {
          "fieldID": "ID of the field"
        },
        "returns": {
          "_0": "Array of minion IDs"
        }
      },
      "getFieldInfo(uint256)": {
        "params": {
          "fieldID": "ID of the field"
        },
        "returns": {
          "fieldInfo": "Leader, defender and side"
        }
      },
      "getFieldLeader(uint256)": {
        "params": {
          "fieldID": "ID of the field"
        },
        "returns": {
          "_0": "Owner of the first minion"
        }
      },
      "getProposalCount()": {
        "returns": {
          "_0": "Number of current proposals"
        }
      },
      "isApprovedForAll(address,address)": {
        "details": "See {IERC721-isApprovedForAll}."
      },
      "name()": {
        "details": "See {IERC721Metadata-name}."
      },
      "owner()": {
        "details": "Returns the address of the current owner."
      },
      "ownerOf(uint256)": {
        "details": "See {IERC721-ownerOf}."
      },
      "propose(string)": {
        "params": {
          "prefixURI": "Prefix of the URI"
        }
      },
      "renounceOwnership()": {
        "details": "Leaves the contract without owner. It will not be possible to call `onlyOwner` functions anymore. Can only be called by the current owner. NOTE: Renouncing ownership will leave the contract without an owner, thereby removing any functionality that is only available to the owner."
      },
      "retreat(uint256)": {
        "params": {
          "fieldID": "ID of the field"
        }
      },
      "safeTransferFrom(address,address,uint256)": {
        "details": "See {IERC721-safeTransferFrom}."
      },
      "safeTransferFrom(address,address,uint256,bytes)": {
        "details": "See {IERC721-safeTransferFrom}."
      },
      "setApprovalForAll(address,bool)": {
        "details": "See {IERC721-setApprovalForAll}."
      },
      "supportsInterface(bytes4)": {
        "details": "See {IERC165-supportsInterface}."
      },
      "symbol()": {
        "details": "See {IERC721Metadata-symbol}."
      },
      "tokenURI(uint256)": {
        "details": "See {IERC721Metadata-tokenURI}."
      },
      "transferFrom(address,address,uint256)": {
        "details": "See {IERC721-transferFrom}."
      },
      "transferOwnership(address)": {
        "details": "Transfers ownership of the contract to a new account (`newOwner`). Can only be called by the current owner."
      },
      "vote(uint256,uint256)": {
        "params": {
          "fieldID": "ID of the field",
          "proposalID": "ID of the proposal"
        }
      }
    },
    "title": "Battlefield of fighting for next generation",
    "version": 1
  },
  "userdoc": {
    "events": {
      "FieldState(uint256,address,bool,uint256[])": {
        "notice": "Emit when field's state changes"
      },
      "Propose(address,uint256,string)": {
        "notice": "Emit when someone propose"
      },
      "TotalArea(uint256)": {
        "notice": "Emit when total area of battlefield changes"
      },
      "Vote(uint256,address,uint256,uint256)": {
        "notice": "Emit when someone vote behalf of field"
      },
      "Winner(uint256,address,string,uint256,uint256,uint256,bool,bool)": {
        "notice": "Emit the winning proposal's info"
      }
    },
    "kind": "user",
    "methods": {
      "assemblyJson()": {
        "notice": "Name of assembly metadata of the medal designs "
      },
      "endVote()": {
        "notice": "End the vote state, change medal styles and mint an assembly metadata to winner"
      },
      "expand(uint256)": {
        "notice": "Expand the battlefield and increase it's total area"
      },
      "faunaArmy()": {
        "notice": "Corresponding FaunaArmy contract"
      },
      "faunaConquer(uint256,uint256)": {
        "notice": "Send fauna army to conquer certain field"
      },
      "faunaFieldCount()": {
        "notice": "Number of fields occupied by fauna army"
      },
      "faunaOnField(uint256)": {
        "notice": "If certain fauna minion on field"
      },
      "faunaRank()": {
        "notice": "Corresponding FaunaRank contract"
      },
      "fieldDefender(uint256,uint256)": {
        "notice": "Defenders on cetain field"
      },
      "fieldGeneration(uint256)": {
        "notice": "Latest generation in which field has voted"
      },
      "fieldLocked()": {
        "notice": "If Battlefield locked, lock for vote, unlock for proposal"
      },
      "floraArmy()": {
        "notice": "Corresponding FloraArmy contract"
      },
      "floraConquer(uint256,uint256)": {
        "notice": "Send flora army to conquer certain field"
      },
      "floraFieldCount()": {
        "notice": "Number of fields occupied by flora army"
      },
      "floraOnField(uint256)": {
        "notice": "If certain flora minion on field"
      },
      "floraRank()": {
        "notice": "Corresponding FloraRank contract"
      },
      "generation()": {
        "notice": "One generation means going through proposal and vote"
      },
      "getAllFieldInfo()": {
        "notice": "Get the every field info "
      },
      "getAllProposalInfo()": {
        "notice": "Get details of all proposals"
      },
      "getFieldDefender(uint256)": {
        "notice": "Get minion IDs on certain field"
      },
      "getFieldInfo(uint256)": {
        "notice": "Get the field info"
      },
      "getFieldLeader(uint256)": {
        "notice": "Get the leader on certain field"
      },
      "getProposalCount()": {
        "notice": "Get number of current proposals"
      },
      "isFloraField(uint256)": {
        "notice": "If field be occupied by flora army "
      },
      "propInterval()": {
        "notice": "Time interval of proposal state"
      },
      "proposals(uint256)": {
        "notice": "All the proposals"
      },
      "propose(string)": {
        "notice": "Propose for new style of medals"
      },
      "retreat(uint256)": {
        "notice": "Retreat from certain field"
      },
      "slottingFee()": {
        "notice": "Slotting fee for making a proposal"
      },
      "startVote()": {
        "notice": "Start the vote state"
      },
      "totalArea()": {
        "notice": "Total area of battlefield"
      },
      "updateTime()": {
        "notice": "Latest time updated for proposal or vote"
      },
      "vote(uint256,uint256)": {
        "notice": "Vote behalf of certain field"
      },
      "voteInterval()": {
        "notice": "Time interval of vote state"
      }
    },
    "notice": "Define voting system on battlefield",
    "version": 1
  },
  "storageLayout": {
    "storage": [
      {
        "astId": 110,
        "contract": "contracts/Battlefield.sol:Battlefield",
        "label": "_owner",
        "offset": 0,
        "slot": "0",
        "type": "t_address"
      },
      {
        "astId": 3510,
        "contract": "contracts/Battlefield.sol:Battlefield",
        "label": "fieldLocked",
        "offset": 20,
        "slot": "0",
        "type": "t_bool"
      },
      {
        "astId": 3513,
        "contract": "contracts/Battlefield.sol:Battlefield",
        "label": "totalArea",
        "offset": 0,
        "slot": "1",
        "type": "t_uint256"
      },
      {
        "astId": 3519,
        "contract": "contracts/Battlefield.sol:Battlefield",
        "label": "fieldDefender",
        "offset": 0,
        "slot": "2",
        "type": "t_mapping(t_uint256,t_array(t_uint256)dyn_storage)"
      },
      {
        "astId": 3524,
        "contract": "contracts/Battlefield.sol:Battlefield",
        "label": "isFloraField",
        "offset": 0,
        "slot": "3",
        "type": "t_mapping(t_uint256,t_bool)"
      },
      {
        "astId": 3529,
        "contract": "contracts/Battlefield.sol:Battlefield",
        "label": "floraOnField",
        "offset": 0,
        "slot": "4",
        "type": "t_mapping(t_uint256,t_bool)"
      },
      {
        "astId": 3534,
        "contract": "contracts/Battlefield.sol:Battlefield",
        "label": "faunaOnField",
        "offset": 0,
        "slot": "5",
        "type": "t_mapping(t_uint256,t_bool)"
      },
      {
        "astId": 3538,
        "contract": "contracts/Battlefield.sol:Battlefield",
        "label": "floraArmy",
        "offset": 0,
        "slot": "6",
        "type": "t_contract(ARMY)3504"
      },
      {
        "astId": 3542,
        "contract": "contracts/Battlefield.sol:Battlefield",
        "label": "faunaArmy",
        "offset": 0,
        "slot": "7",
        "type": "t_contract(ARMY)3504"
      },
      {
        "astId": 3545,
        "contract": "contracts/Battlefield.sol:Battlefield",
        "label": "floraFieldCount",
        "offset": 0,
        "slot": "8",
        "type": "t_uint256"
      },
      {
        "astId": 3548,
        "contract": "contracts/Battlefield.sol:Battlefield",
        "label": "faunaFieldCount",
        "offset": 0,
        "slot": "9",
        "type": "t_uint256"
      },
      {
        "astId": 3551,
        "contract": "contracts/Battlefield.sol:Battlefield",
        "label": "_refPower",
        "offset": 0,
        "slot": "10",
        "type": "t_int256"
      },
      {
        "astId": 881,
        "contract": "contracts/Battlefield.sol:Battlefield",
        "label": "_name",
        "offset": 0,
        "slot": "11",
        "type": "t_string_storage"
      },
      {
        "astId": 883,
        "contract": "contracts/Battlefield.sol:Battlefield",
        "label": "_symbol",
        "offset": 0,
        "slot": "12",
        "type": "t_string_storage"
      },
      {
        "astId": 887,
        "contract": "contracts/Battlefield.sol:Battlefield",
        "label": "_owners",
        "offset": 0,
        "slot": "13",
        "type": "t_mapping(t_uint256,t_address)"
      },
      {
        "astId": 891,
        "contract": "contracts/Battlefield.sol:Battlefield",
        "label": "_balances",
        "offset": 0,
        "slot": "14",
        "type": "t_mapping(t_address,t_uint256)"
      },
      {
        "astId": 895,
        "contract": "contracts/Battlefield.sol:Battlefield",
        "label": "_tokenApprovals",
        "offset": 0,
        "slot": "15",
        "type": "t_mapping(t_uint256,t_address)"
      },
      {
        "astId": 901,
        "contract": "contracts/Battlefield.sol:Battlefield",
        "label": "_operatorApprovals",
        "offset": 0,
        "slot": "16",
        "type": "t_mapping(t_address,t_mapping(t_address,t_bool))"
      },
      {
        "astId": 1818,
        "contract": "contracts/Battlefield.sol:Battlefield",
        "label": "_tokenURIs",
        "offset": 0,
        "slot": "17",
        "type": "t_mapping(t_uint256,t_string_storage)"
      },
      {
        "astId": 4274,
        "contract": "contracts/Battlefield.sol:Battlefield",
        "label": "floraRank",
        "offset": 0,
        "slot": "18",
        "type": "t_contract(RANK)4265"
      },
      {
        "astId": 4278,
        "contract": "contracts/Battlefield.sol:Battlefield",
        "label": "faunaRank",
        "offset": 0,
        "slot": "19",
        "type": "t_contract(RANK)4265"
      },
      {
        "astId": 4290,
        "contract": "contracts/Battlefield.sol:Battlefield",
        "label": "proposals",
        "offset": 0,
        "slot": "20",
        "type": "t_array(t_struct(Proposal)4285_storage)dyn_storage"
      },
      {
        "astId": 4295,
        "contract": "contracts/Battlefield.sol:Battlefield",
        "label": "fieldGeneration",
        "offset": 0,
        "slot": "21",
        "type": "t_mapping(t_uint256,t_uint256)"
      },
      {
        "astId": 4298,
        "contract": "contracts/Battlefield.sol:Battlefield",
        "label": "updateTime",
        "offset": 0,
        "slot": "22",
        "type": "t_uint256"
      },
      {
        "astId": 4301,
        "contract": "contracts/Battlefield.sol:Battlefield",
        "label": "propInterval",
        "offset": 0,
        "slot": "23",
        "type": "t_uint256"
      },
      {
        "astId": 4304,
        "contract": "contracts/Battlefield.sol:Battlefield",
        "label": "voteInterval",
        "offset": 0,
        "slot": "24",
        "type": "t_uint256"
      },
      {
        "astId": 4307,
        "contract": "contracts/Battlefield.sol:Battlefield",
        "label": "generation",
        "offset": 0,
        "slot": "25",
        "type": "t_uint256"
      },
      {
        "astId": 4310,
        "contract": "contracts/Battlefield.sol:Battlefield",
        "label": "assemblyJson",
        "offset": 0,
        "slot": "26",
        "type": "t_string_storage"
      },
      {
        "astId": 4313,
        "contract": "contracts/Battlefield.sol:Battlefield",
        "label": "slottingFee",
        "offset": 0,
        "slot": "27",
        "type": "t_uint256"
      }
    ],
    "types": {
      "t_address": {
        "encoding": "inplace",
        "label": "address",
        "numberOfBytes": "20"
      },
      "t_array(t_struct(Proposal)4285_storage)dyn_storage": {
        "base": "t_struct(Proposal)4285_storage",
        "encoding": "dynamic_array",
        "label": "struct Battlefield.Proposal[]",
        "numberOfBytes": "32"
      },
      "t_array(t_uint256)dyn_storage": {
        "base": "t_uint256",
        "encoding": "dynamic_array",
        "label": "uint256[]",
        "numberOfBytes": "32"
      },
      "t_bool": {
        "encoding": "inplace",
        "label": "bool",
        "numberOfBytes": "1"
      },
      "t_contract(ARMY)3504": {
        "encoding": "inplace",
        "label": "contract ARMY",
        "numberOfBytes": "20"
      },
      "t_contract(RANK)4265": {
        "encoding": "inplace",
        "label": "contract RANK",
        "numberOfBytes": "20"
      },
      "t_int256": {
        "encoding": "inplace",
        "label": "int256",
        "numberOfBytes": "32"
      },
      "t_mapping(t_address,t_bool)": {
        "encoding": "mapping",
        "key": "t_address",
        "label": "mapping(address => bool)",
        "numberOfBytes": "32",
        "value": "t_bool"
      },
      "t_mapping(t_address,t_mapping(t_address,t_bool))": {
        "encoding": "mapping",
        "key": "t_address",
        "label": "mapping(address => mapping(address => bool))",
        "numberOfBytes": "32",
        "value": "t_mapping(t_address,t_bool)"
      },
      "t_mapping(t_address,t_uint256)": {
        "encoding": "mapping",
        "key": "t_address",
        "label": "mapping(address => uint256)",
        "numberOfBytes": "32",
        "value": "t_uint256"
      },
      "t_mapping(t_uint256,t_address)": {
        "encoding": "mapping",
        "key": "t_uint256",
        "label": "mapping(uint256 => address)",
        "numberOfBytes": "32",
        "value": "t_address"
      },
      "t_mapping(t_uint256,t_array(t_uint256)dyn_storage)": {
        "encoding": "mapping",
        "key": "t_uint256",
        "label": "mapping(uint256 => uint256[])",
        "numberOfBytes": "32",
        "value": "t_array(t_uint256)dyn_storage"
      },
      "t_mapping(t_uint256,t_bool)": {
        "encoding": "mapping",
        "key": "t_uint256",
        "label": "mapping(uint256 => bool)",
        "numberOfBytes": "32",
        "value": "t_bool"
      },
      "t_mapping(t_uint256,t_string_storage)": {
        "encoding": "mapping",
        "key": "t_uint256",
        "label": "mapping(uint256 => string)",
        "numberOfBytes": "32",
        "value": "t_string_storage"
      },
      "t_mapping(t_uint256,t_uint256)": {
        "encoding": "mapping",
        "key": "t_uint256",
        "label": "mapping(uint256 => uint256)",
        "numberOfBytes": "32",
        "value": "t_uint256"
      },
      "t_string_storage": {
        "encoding": "bytes",
        "label": "string",
        "numberOfBytes": "32"
      },
      "t_struct(Proposal)4285_storage": {
        "encoding": "inplace",
        "label": "struct Battlefield.Proposal",
        "members": [
          {
            "astId": 4280,
            "contract": "contracts/Battlefield.sol:Battlefield",
            "label": "proposer",
            "offset": 0,
            "slot": "0",
            "type": "t_address"
          },
          {
            "astId": 4282,
            "contract": "contracts/Battlefield.sol:Battlefield",
            "label": "prefixURI",
            "offset": 0,
            "slot": "1",
            "type": "t_string_storage"
          },
          {
            "astId": 4284,
            "contract": "contracts/Battlefield.sol:Battlefield",
            "label": "voteCount",
            "offset": 0,
            "slot": "2",
            "type": "t_uint256"
          }
        ],
        "numberOfBytes": "96"
      },
      "t_uint256": {
        "encoding": "inplace",
        "label": "uint256",
        "numberOfBytes": "32"
      }
    }
  }
}