{
  "address": "0xB7f8BC63BbcaD18155201308C8f3540b07f84F5e",
  "abi": [
    {
      "inputs": [
        {
          "internalType": "address",
          "name": "ensRegistryAddr",
          "type": "address"
        },
        {
          "internalType": "uint256",
          "name": "initEnhancer",
          "type": "uint256"
        },
        {
          "internalType": "int256[5]",
          "name": "powerLevels",
          "type": "int256[5]"
        },
        {
          "internalType": "string[5]",
          "name": "jsonNames",
          "type": "string[5]"
        }
      ],
      "stateMutability": "nonpayable",
      "type": "constructor"
    },
    {
      "anonymous": false,
      "inputs": [
        {
          "indexed": true,
          "internalType": "address",
          "name": "owner",
          "type": "address"
        },
        {
          "indexed": true,
          "internalType": "address",
          "name": "approved",
          "type": "address"
        },
        {
          "indexed": true,
          "internalType": "uint256",
          "name": "tokenId",
          "type": "uint256"
        }
      ],
      "name": "Approval",
      "type": "event"
    },
    {
      "anonymous": false,
      "inputs": [
        {
          "indexed": true,
          "internalType": "address",
          "name": "owner",
          "type": "address"
        },
        {
          "indexed": true,
          "internalType": "address",
          "name": "operator",
          "type": "address"
        },
        {
          "indexed": false,
          "internalType": "bool",
          "name": "approved",
          "type": "bool"
        }
      ],
      "name": "ApprovalForAll",
      "type": "event"
    },
    {
      "anonymous": false,
      "inputs": [
        {
          "indexed": true,
          "internalType": "uint256",
          "name": "minionID",
          "type": "uint256"
        },
        {
          "indexed": true,
          "internalType": "address",
          "name": "branchAddress",
          "type": "address"
        },
        {
          "indexed": true,
          "internalType": "bool",
          "name": "armed",
          "type": "bool"
        },
        {
          "indexed": false,
          "internalType": "int256",
          "name": "environmentFactor",
          "type": "int256"
        },
        {
          "indexed": false,
          "internalType": "int256",
          "name": "power",
          "type": "int256"
        }
      ],
      "name": "MinionState",
      "type": "event"
    },
    {
      "anonymous": false,
      "inputs": [
        {
          "indexed": true,
          "internalType": "address",
          "name": "from",
          "type": "address"
        },
        {
          "indexed": true,
          "internalType": "address",
          "name": "to",
          "type": "address"
        },
        {
          "indexed": true,
          "internalType": "uint256",
          "name": "tokenId",
          "type": "uint256"
        }
      ],
      "name": "Transfer",
      "type": "event"
    },
    {
      "inputs": [
        {
          "internalType": "address",
          "name": "to",
          "type": "address"
        },
        {
          "internalType": "uint256",
          "name": "tokenId",
          "type": "uint256"
        }
      ],
      "name": "approve",
      "outputs": [],
      "stateMutability": "nonpayable",
      "type": "function"
    },
    {
      "inputs": [
        {
          "internalType": "uint256",
          "name": "minionID",
          "type": "uint256"
        }
      ],
      "name": "arm",
      "outputs": [],
      "stateMutability": "nonpayable",
      "type": "function"
    },
    {
      "inputs": [
        {
          "internalType": "address",
          "name": "owner",
          "type": "address"
        }
      ],
      "name": "balanceOf",
      "outputs": [
        {
          "internalType": "uint256",
          "name": "",
          "type": "uint256"
        }
      ],
      "stateMutability": "view",
      "type": "function"
    },
    {
      "inputs": [
        {
          "internalType": "uint256",
          "name": "minionID",
          "type": "uint256"
        }
      ],
      "name": "boost",
      "outputs": [],
      "stateMutability": "nonpayable",
      "type": "function"
    },
    {
      "inputs": [],
      "name": "enhancerContract",
      "outputs": [
        {
          "internalType": "contract ENHR",
          "name": "",
          "type": "address"
        }
      ],
      "stateMutability": "view",
      "type": "function"
    },
    {
      "inputs": [],
      "name": "ens",
      "outputs": [
        {
          "internalType": "contract ENS",
          "name": "",
          "type": "address"
        }
      ],
      "stateMutability": "view",
      "type": "function"
    },
    {
      "inputs": [
        {
          "internalType": "uint256",
          "name": "tokenId",
          "type": "uint256"
        }
      ],
      "name": "getApproved",
      "outputs": [
        {
          "internalType": "address",
          "name": "",
          "type": "address"
        }
      ],
      "stateMutability": "view",
      "type": "function"
    },
    {
      "inputs": [
        {
          "internalType": "address",
          "name": "commander",
          "type": "address"
        }
      ],
      "name": "getMinionIDs",
      "outputs": [
        {
          "internalType": "uint256[]",
          "name": "minionIDs",
          "type": "uint256[]"
        }
      ],
      "stateMutability": "view",
      "type": "function"
    },
    {
      "inputs": [
        {
          "internalType": "uint256",
          "name": "minionID",
          "type": "uint256"
        }
      ],
      "name": "getMinionInfo",
      "outputs": [
        {
          "internalType": "address",
          "name": "",
          "type": "address"
        },
        {
          "internalType": "bool",
          "name": "",
          "type": "bool"
        },
        {
          "internalType": "int256",
          "name": "",
          "type": "int256"
        },
        {
          "internalType": "int256",
          "name": "",
          "type": "int256"
        }
      ],
      "stateMutability": "view",
      "type": "function"
    },
    {
      "inputs": [
        {
          "internalType": "uint256",
          "name": "minionID",
          "type": "uint256"
        }
      ],
      "name": "getMinionProfile",
      "outputs": [
        {
          "components": [
            {
              "internalType": "address",
              "name": "branch",
              "type": "address"
            },
            {
              "internalType": "bool",
              "name": "armed",
              "type": "bool"
            },
            {
              "internalType": "int256",
              "name": "price",
              "type": "int256"
            },
            {
              "internalType": "int256",
              "name": "power",
              "type": "int256"
            },
            {
              "internalType": "string",
              "name": "uri",
              "type": "string"
            }
          ],
          "internalType": "struct ArmyBase.MinionProfile",
          "name": "profile",
          "type": "tuple"
        }
      ],
      "stateMutability": "view",
      "type": "function"
    },
    {
      "inputs": [
        {
          "internalType": "uint256[]",
          "name": "minionIDs",
          "type": "uint256[]"
        }
      ],
      "name": "getTeamInfo",
      "outputs": [
        {
          "components": [
            {
              "internalType": "address",
              "name": "branchAddr",
              "type": "address"
            },
            {
              "internalType": "bool",
              "name": "armed",
              "type": "bool"
            },
            {
              "internalType": "int256",
              "name": "envFactor",
              "type": "int256"
            },
            {
              "internalType": "int256",
              "name": "power",
              "type": "int256"
            }
          ],
          "internalType": "struct ArmyBase.Minion[]",
          "name": "teamInfo",
          "type": "tuple[]"
        }
      ],
      "stateMutability": "view",
      "type": "function"
    },
    {
      "inputs": [
        {
          "internalType": "uint256",
          "name": "minionID",
          "type": "uint256"
        }
      ],
      "name": "grant",
      "outputs": [],
      "stateMutability": "nonpayable",
      "type": "function"
    },
    {
      "inputs": [
        {
          "internalType": "uint256",
          "name": "minionID",
          "type": "uint256"
        }
      ],
      "name": "heal",
      "outputs": [],
      "stateMutability": "nonpayable",
      "type": "function"
    },
    {
      "inputs": [],
      "name": "initPower",
      "outputs": [
        {
          "internalType": "int256",
          "name": "",
          "type": "int256"
        }
      ],
      "stateMutability": "view",
      "type": "function"
    },
    {
      "inputs": [
        {
          "internalType": "address",
          "name": "owner",
          "type": "address"
        },
        {
          "internalType": "address",
          "name": "operator",
          "type": "address"
        }
      ],
      "name": "isApprovedForAll",
      "outputs": [
        {
          "internalType": "bool",
          "name": "",
          "type": "bool"
        }
      ],
      "stateMutability": "view",
      "type": "function"
    },
    {
      "inputs": [
        {
          "internalType": "uint256",
          "name": "minionID",
          "type": "uint256"
        }
      ],
      "name": "liberate",
      "outputs": [],
      "stateMutability": "nonpayable",
      "type": "function"
    },
    {
      "inputs": [
        {
          "internalType": "uint256",
          "name": "minionID",
          "type": "uint256"
        }
      ],
      "name": "minionExists",
      "outputs": [
        {
          "internalType": "bool",
          "name": "",
          "type": "bool"
        }
      ],
      "stateMutability": "view",
      "type": "function"
    },
    {
      "inputs": [
        {
          "internalType": "uint256",
          "name": "",
          "type": "uint256"
        }
      ],
      "name": "minions",
      "outputs": [
        {
          "internalType": "address",
          "name": "branchAddr",
          "type": "address"
        },
        {
          "internalType": "bool",
          "name": "armed",
          "type": "bool"
        },
        {
          "internalType": "int256",
          "name": "envFactor",
          "type": "int256"
        },
        {
          "internalType": "int256",
          "name": "power",
          "type": "int256"
        }
      ],
      "stateMutability": "view",
      "type": "function"
    },
    {
      "inputs": [],
      "name": "name",
      "outputs": [
        {
          "internalType": "string",
          "name": "",
          "type": "string"
        }
      ],
      "stateMutability": "view",
      "type": "function"
    },
    {
      "inputs": [
        {
          "internalType": "uint256",
          "name": "tokenId",
          "type": "uint256"
        }
      ],
      "name": "ownerOf",
      "outputs": [
        {
          "internalType": "address",
          "name": "",
          "type": "address"
        }
      ],
      "stateMutability": "view",
      "type": "function"
    },
    {
      "inputs": [],
      "name": "population",
      "outputs": [
        {
          "internalType": "uint256",
          "name": "",
          "type": "uint256"
        }
      ],
      "stateMutability": "view",
      "type": "function"
    },
    {
      "inputs": [],
      "name": "rankContract",
      "outputs": [
        {
          "internalType": "contract RANK",
          "name": "",
          "type": "address"
        }
      ],
      "stateMutability": "view",
      "type": "function"
    },
    {
      "inputs": [
        {
          "internalType": "bytes32",
          "name": "branchHash",
          "type": "bytes32"
        }
      ],
      "name": "recruit",
      "outputs": [
        {
          "internalType": "uint256",
          "name": "",
          "type": "uint256"
        }
      ],
      "stateMutability": "nonpayable",
      "type": "function"
    },
    {
      "inputs": [
        {
          "internalType": "address",
          "name": "from",
          "type": "address"
        },
        {
          "internalType": "address",
          "name": "to",
          "type": "address"
        },
        {
          "internalType": "uint256",
          "name": "tokenId",
          "type": "uint256"
        }
      ],
      "name": "safeTransferFrom",
      "outputs": [],
      "stateMutability": "nonpayable",
      "type": "function"
    },
    {
      "inputs": [
        {
          "internalType": "address",
          "name": "from",
          "type": "address"
        },
        {
          "internalType": "address",
          "name": "to",
          "type": "address"
        },
        {
          "internalType": "uint256",
          "name": "tokenId",
          "type": "uint256"
        },
        {
          "internalType": "bytes",
          "name": "_data",
          "type": "bytes"
        }
      ],
      "name": "safeTransferFrom",
      "outputs": [],
      "stateMutability": "nonpayable",
      "type": "function"
    },
    {
      "inputs": [],
      "name": "serialNumber",
      "outputs": [
        {
          "internalType": "uint256",
          "name": "",
          "type": "uint256"
        }
      ],
      "stateMutability": "view",
      "type": "function"
    },
    {
      "inputs": [
        {
          "internalType": "address",
          "name": "operator",
          "type": "address"
        },
        {
          "internalType": "bool",
          "name": "approved",
          "type": "bool"
        }
      ],
      "name": "setApprovalForAll",
      "outputs": [],
      "stateMutability": "nonpayable",
      "type": "function"
    },
    {
      "inputs": [
        {
          "internalType": "bytes4",
          "name": "interfaceId",
          "type": "bytes4"
        }
      ],
      "name": "supportsInterface",
      "outputs": [
        {
          "internalType": "bool",
          "name": "",
          "type": "bool"
        }
      ],
      "stateMutability": "view",
      "type": "function"
    },
    {
      "inputs": [],
      "name": "symbol",
      "outputs": [
        {
          "internalType": "string",
          "name": "",
          "type": "string"
        }
      ],
      "stateMutability": "view",
      "type": "function"
    },
    {
      "inputs": [
        {
          "internalType": "uint256",
          "name": "minionID",
          "type": "uint256"
        }
      ],
      "name": "tokenURI",
      "outputs": [
        {
          "internalType": "string",
          "name": "",
          "type": "string"
        }
      ],
      "stateMutability": "view",
      "type": "function"
    },
    {
      "inputs": [
        {
          "internalType": "uint256",
          "name": "minionID",
          "type": "uint256"
        }
      ],
      "name": "train",
      "outputs": [],
      "stateMutability": "nonpayable",
      "type": "function"
    },
    {
      "inputs": [
        {
          "internalType": "address",
          "name": "from",
          "type": "address"
        },
        {
          "internalType": "address",
          "name": "to",
          "type": "address"
        },
        {
          "internalType": "uint256",
          "name": "tokenId",
          "type": "uint256"
        }
      ],
      "name": "transferFrom",
      "outputs": [],
      "stateMutability": "nonpayable",
      "type": "function"
    }
  ],
  "transactionHash": "0xa2a7aa8fd6ae1589c98df014db793bb3f358c2c95114db2a4196cc364a1bc6fc",
  "args": [
    "0x5FbDB2315678afecb367f032d93F642f64180aa3",
    7777777777777,
    [
      2000,
      1500,
      1300,
      1100,
      0
    ],
    [
      "fauna_5.json",
      "fauna_4.json",
      "fauna_3.json",
      "fauna_2.json",
      "fauna_1.json"
    ]
  ],
  "solcInputHash": "41a7aa6c2396b908af18b6ea5b363b11",
  "bytecode": "0x60806040523480156200001157600080fd5b50604051620057e0380380620057e08339810160408190526200003491620003f8565b60408051808201825260098152684661756e6141726d7960b81b6020808301918252835180850190945260058452644661756e4160d81b9084015281518793916200008391600091906200025e565b508051620000999060019060208401906200025e565b505060006009819055600a55506103e8600b55600c80546001600160a01b0319166001600160a01b0392909216919091179055604051620000da90620002ed565b6040808252600a90820152692432b6b7b3b637b134b760b11b6060820152608060208201819052600390820152622423a160e91b60a082015260c001604051809103906000f08015801562000133573d6000803e3d6000fd5b50600780546001600160a01b0319166001600160a01b03929092169182179055604051633365086560e11b8152336004820152602481018590526366ca10ca90604401600060405180830381600087803b1580156200019157600080fd5b505af1158015620001a6573d6000803e3d6000fd5b505050508181604051620001ba90620002fb565b620001c7929190620004ba565b604051809103906000f080158015620001e4573d6000803e3d6000fd5b50600880546001600160a01b0319166001600160a01b0392909216918217905560405163f2fde38b60e01b815233600482015263f2fde38b90602401600060405180830381600087803b1580156200023b57600080fd5b505af115801562000250573d6000803e3d6000fd5b505050505050505062000639565b8280546200026c90620005e6565b90600052602060002090601f016020900481019282620002905760008555620002db565b82601f10620002ab57805160ff1916838001178555620002db565b82800160010185558215620002db579182015b82811115620002db578251825591602001919060010190620002be565b50620002e992915062000309565b5090565b6111ab80620036a783390190565b610f8e806200485283390190565b5b80821115620002e957600081556001016200030a565b6000601f838184011262000332578182fd5b6200033c62000555565b80848660a0870111156200034e578485fd5b845b6005811015620003ec5781516001600160401b038082111562000371578788fd5b8189019150898783011262000384578788fd5b81516020828211156200039b576200039b62000623565b620003ae828a01601f1916820162000580565b92508183528b81838601011115620003c457898afd5b620003d582828501838701620005b3565b918752509485019492909201915060010162000350565b50909695505050505050565b60008060008061010085870312156200040f578384fd5b84516001600160a01b038116811462000426578485fd5b80945050602080860151935086605f87011262000441578283fd5b6200044b62000555565b806040880160e089018a81111562000461578687fd5b865b6005811015620004825782518552938501939185019160010162000463565b505191955090925050506001600160401b03811115620004a0578182fd5b620004ae8782880162000320565b91505092959194509250565b600060c082018285835b6005811015620004e5578151835260209283019290910190600101620004c4565b505060c060a08501525061016083019084835b6005811015620005495785840360bf190183528151805180865260206200052582828901838601620005b3565b601f91909101601f19169590950185019493840193929092019150600101620004f8565b50919695505050505050565b60405160a081016001600160401b03811182821017156200057a576200057a62000623565b60405290565b604051601f8201601f191681016001600160401b0381118282101715620005ab57620005ab62000623565b604052919050565b60005b83811015620005d0578181015183820152602001620005b6565b83811115620005e0576000848401525b50505050565b600181811c90821680620005fb57607f821691505b602082108114156200061d57634e487b7160e01b600052602260045260246000fd5b50919050565b634e487b7160e01b600052604160045260246000fd5b61305e80620006496000396000f3fe608060405234801561001057600080fd5b50600436106101b05760003560e01c806378880f4a116100ef578063d024851611610092578063d0248516146103ad578063d1038468146103c0578063df069b11146103e0578063e985e9c51461041d578063efebc7b014610430578063f37ac61c14610443578063f8543f0014610456578063fccc66231461046957600080fd5b806378880f4a1461031d5780637fb7ce86146103265780638c7a774a1461034657806395d89b4114610359578063a22cb46514610361578063b5b0d78214610374578063b88d4fde14610387578063c87b56dd1461039a57600080fd5b80632a0daeea116101575780632a0daeea1461027e5780632e3fca1114610295578063368004ed1461029e5780633f15457f146102b157806342842e0e146102c45780634b202537146102d75780636352211e146102f757806370a082311461030a57600080fd5b806301ffc9a7146101b557806306fdde03146101dd578063081812fc146101f2578063095ea7b31461021d578063160e3f3d146102325780631b55d19e1461024557806320c69c891461025857806323b872dd1461026b575b600080fd5b6101c86101c3366004612907565b61047c565b60405190151581526020015b60405180910390f35b6101e56104ce565b6040516101d49190612b64565b6102056102003660046128ef565b610560565b6040516001600160a01b0390911681526020016101d4565b61023061022b366004612855565b6105ed565b005b6102306102403660046128ef565b6106fe565b6102306102533660046128ef565b6107f3565b6102306102663660046128ef565b6109ee565b61023061027936600461273e565b610ba8565b61028760095481565b6040519081526020016101d4565b610287600b5481565b6102306102ac3660046128ef565b610bd9565b600c54610205906001600160a01b031681565b6102306102d236600461273e565b610d34565b6102ea6102e53660046128ef565b610d4f565b6040516101d49190612cf7565b6102056103053660046128ef565b610e9e565b6102876103183660046126ce565b610f15565b610287600a5481565b6103396103343660046126ce565b610f9c565b6040516101d49190612b20565b6102306103543660046128ef565b611090565b6101e56111fb565b61023061036f366004612824565b61120a565b600754610205906001600160a01b031681565b61023061039536600461277e565b6112cb565b6101e56103a83660046128ef565b611303565b6101c86103bb3660046128ef565b61140d565b6103d36103ce366004612880565b611418565b6040516101d49190612ab1565b6103f36103ee3660046128ef565b611581565b604080516001600160a01b03909516855292151560208501529183015260608201526080016101d4565b6101c861042b366004612706565b611610565b6103f361043e3660046128ef565b61163e565b6102306104513660046128ef565b611687565b600854610205906001600160a01b031681565b6102876104773660046128ef565b6118bb565b60006001600160e01b031982166380ac58cd60e01b14806104ad57506001600160e01b03198216635b5e139f60e01b145b806104c857506301ffc9a760e01b6001600160e01b03198316145b92915050565b6060600080546104dd90612f11565b80601f016020809104026020016040519081016040528092919081815260200182805461050990612f11565b80156105565780601f1061052b57610100808354040283529160200191610556565b820191906000526020600020905b81548152906001019060200180831161053957829003601f168201915b5050505050905090565b600061056b82611aeb565b6105d15760405162461bcd60e51b815260206004820152602c60248201527f4552433732313a20617070726f76656420717565727920666f72206e6f6e657860448201526b34b9ba32b73a103a37b5b2b760a11b60648201526084015b60405180910390fd5b506000908152600460205260409020546001600160a01b031690565b60006105f882610e9e565b9050806001600160a01b0316836001600160a01b031614156106665760405162461bcd60e51b815260206004820152602160248201527f4552433732313a20617070726f76616c20746f2063757272656e74206f776e656044820152603960f91b60648201526084016105c8565b336001600160a01b038216148061068257506106828133611610565b6106ef5760405162461bcd60e51b815260206004820152603860248201527f4552433732313a20617070726f76652063616c6c6572206973206e6f74206f776044820152771b995c881b9bdc88185c1c1c9bdd995908199bdc88185b1b60421b60648201526084016105c8565b6106f98383611b08565b505050565b806107093382611b76565b6107255760405162461bcd60e51b81526004016105c890612c15565b6000600d838154811061074857634e487b7160e01b600052603260045260246000fd5b6000918252602090912060085460039092020180546002820154604051635e104a8b60e11b81529294506106f99387936001600160a01b039182169363bc2095169361079a9390911691600401612a98565b60006040518083038186803b1580156107b257600080fd5b505afa1580156107c6573d6000803e3d6000fd5b505050506040513d6000823e601f3d908101601f191682016040526107ee919081019061293f565b611c38565b806107fe3382611b76565b61081a5760405162461bcd60e51b81526004016105c890612c15565b6000600d838154811061083d57634e487b7160e01b600052603260045260246000fd5b600091825260209091206003909102018054909150600160a01b900460ff166108785760405162461bcd60e51b81526004016105c890612cae565b805460408051633fabe5a360e21b815290516001600160a01b0390921691600091839163feaf968c9160048082019260a092909190829003018186803b1580156108c157600080fd5b505afa1580156108d5573d6000803e3d6000fd5b505050506040513d601f19601f820116820180604052508101906108f991906129b1565b505050915050826001015481121561099957600754600284015460018501546001600160a01b039092169163224b5c729133916010919061093d908790841b612db3565b6109479190612df5565b901d6040518363ffffffff1660e01b8152600401610966929190612a98565b600060405180830381600087803b15801561098057600080fd5b505af1158015610994573d6000803e3d6000fd5b505050505b825460ff60a01b1981168455600184015460028501546040805192835260208301919091526000926001600160a01b031691889160008051602061300983398151915291015b60405180910390a45050505050565b806109f93382611b76565b610a155760405162461bcd60e51b81526004016105c890612c15565b6000600d8381548110610a3857634e487b7160e01b600052603260045260246000fd5b600091825260209091206003909102018054909150600160a01b900460ff1615610aa45760405162461bcd60e51b815260206004820152601d60248201527f41524d593a206d696e696f6e20697320616c72656164792061726d656400000060448201526064016105c8565b805460408051633fabe5a360e21b815290516001600160a01b0390921691600091839163feaf968c9160048082019260a092909190829003018186803b158015610aed57600080fd5b505afa158015610b01573d6000803e3d6000fd5b505050506040513d601f19601f82011682018060405250810190610b2591906129b1565b505050915050601083600201548260108660010154901b610b469190612db3565b610b509190612df5565b901d600284018190556001808501839055845460ff60a01b198116600160a01b17865560405191926001600160a01b03909116918891600080516020613009833981519152916109df91878252602082015260400190565b610bb23382611b76565b610bce5760405162461bcd60e51b81526004016105c890612c5d565b6106f9838383611cc3565b80610be43382611b76565b610c005760405162461bcd60e51b81526004016105c890612c15565b6000600d8381548110610c2357634e487b7160e01b600052603260045260246000fd5b600091825260209091206003909102018054909150600160a01b900460ff16610c5e5760405162461bcd60e51b81526004016105c890612cae565b805460408051633fabe5a360e21b815290516001600160a01b0390921691600091839163feaf968c9160048082019260a092909190829003018186803b158015610ca757600080fd5b505afa158015610cbb573d6000803e3d6000fd5b505050506040513d601f19601f82011682018060405250810190610cdf91906129b1565b50505060018501819055845460ff60a01b19811686556002860154604051929450600093506001600160a01b03909116918891600080516020613009833981519152916109df91878252602082015260400190565b6106f9838383604051806020016040528060008152506112cb565b610d8c6040518060a0016040528060006001600160a01b031681526020016000151581526020016000815260200160008152602001606081525090565b610d9582611aeb565b610db15760405162461bcd60e51b81526004016105c890612b77565b6000600d8381548110610dd457634e487b7160e01b600052603260045260246000fd5b60009182526020918290206003919091020180546001600160a01b0381168552600160a01b900460ff161515918401919091526001810154604080850191909152600282015460608501525163c87b56dd60e01b815260048101859052909150309063c87b56dd9060240160006040518083038186803b158015610e5757600080fd5b505afa158015610e6b573d6000803e3d6000fd5b505050506040513d6000823e601f3d908101601f19168201604052610e93919081019061293f565b608083015250919050565b6000818152600260205260408120546001600160a01b0316806104c85760405162461bcd60e51b815260206004820152602960248201527f4552433732313a206f776e657220717565727920666f72206e6f6e657869737460448201526832b73a103a37b5b2b760b91b60648201526084016105c8565b60006001600160a01b038216610f805760405162461bcd60e51b815260206004820152602a60248201527f4552433732313a2062616c616e636520717565727920666f7220746865207a65604482015269726f206164647265737360b01b60648201526084016105c8565b506001600160a01b031660009081526003602052604090205490565b60606000610fa983610f15565b9050806001600160401b03811115610fd157634e487b7160e01b600052604160045260246000fd5b604051908082528060200260200182016040528015610ffa578160200160208202803683370190505b5091506000805b828210156110885761101281611aeb565b80156110375750846001600160a01b031661102c82610e9e565b6001600160a01b0316145b15611076578084838151811061105d57634e487b7160e01b600052603260045260246000fd5b60209081029190910101528161107281612f4c565b9250505b8061108081612f4c565b915050611001565b505050919050565b8061109b3382611b76565b6110b75760405162461bcd60e51b81526004016105c890612c15565b6000600d83815481106110da57634e487b7160e01b600052603260045260246000fd5b600091825260209091206003909102018054909150600160a01b900460ff166111515760405162461bcd60e51b8152602060048201526024808201527f41524d593a2063616e206f6e6c79206c696265726174652061726d6564206d696044820152633734b7b760e11b60648201526084016105c8565b600b54816002015413156111d857600754600b5460028301546001600160a01b03909216916366ca10ca9133916111889190612e78565b6040518363ffffffff1660e01b81526004016111a5929190612a98565b600060405180830381600087803b1580156111bf57600080fd5b505af11580156111d3573d6000803e3d6000fd5b505050505b6111e183611e51565b600a80549060006111f183612efa565b9190505550505050565b6060600180546104dd90612f11565b6001600160a01b03821633141561125f5760405162461bcd60e51b815260206004820152601960248201527822a9219b99189d1030b8383937bb32903a379031b0b63632b960391b60448201526064016105c8565b3360008181526005602090815260408083206001600160a01b03871680855290835292819020805460ff191686151590811790915590519081529192917f17307eab39ab6107e8899845ad3d59bd9653f200f220920489ca2b5937696c31910160405180910390a35050565b6112d53383611b76565b6112f15760405162461bcd60e51b81526004016105c890612c5d565b6112fd84848484611e94565b50505050565b606061130e82611aeb565b61132a5760405162461bcd60e51b81526004016105c890612b77565b6000600d838154811061134d57634e487b7160e01b600052603260045260246000fd5b90600052602060002090600302019050600061136884611ec7565b805190915015611379579392505050565b60085482546002840154604051635e104a8b60e11b81526001600160a01b039384169363bc209516936113b193911691600401612a98565b60006040518083038186803b1580156113c957600080fd5b505afa1580156113dd573d6000803e3d6000fd5b505050506040513d6000823e601f3d908101601f19168201604052611405919081019061293f565b949350505050565b60006104c882611aeb565b6060816001600160401b0381111561144057634e487b7160e01b600052604160045260246000fd5b60405190808252806020026020018201604052801561149257816020015b60408051608081018252600080825260208083018290529282018190526060820152825260001990920191018161145e5790505b50905060005b8281101561157a57600d8484838181106114c257634e487b7160e01b600052603260045260246000fd5b90506020020135815481106114e757634e487b7160e01b600052603260045260246000fd5b600091825260209182902060408051608081018252600390930290910180546001600160a01b038116845260ff600160a01b909104161515938301939093526001830154908201526002909101546060820152825183908390811061155c57634e487b7160e01b600052603260045260246000fd5b6020026020010181905250808061157290612f4c565b915050611498565b5092915050565b60008060008061159085611aeb565b6115ac5760405162461bcd60e51b81526004016105c890612b77565b6000600d86815481106115cf57634e487b7160e01b600052603260045260246000fd5b60009182526020909120600390910201805460018201546002909201546001600160a01b03821699600160a01b90920460ff16985091965090945092505050565b6001600160a01b03918216600090815260056020908152604080832093909416825291909152205460ff1690565b600d818154811061164e57600080fd5b60009182526020909120600390910201805460018201546002909201546001600160a01b0382169350600160a01b90910460ff16919084565b806116923382611b76565b6116ae5760405162461bcd60e51b81526004016105c890612c15565b6000600d83815481106116d157634e487b7160e01b600052603260045260246000fd5b600091825260209091206003909102018054909150600160a01b900460ff161561174b5760405162461bcd60e51b815260206004820152602560248201527f41524d593a206d696e696f6e206973206e6f7420696e20747261696e696e6720604482015264737461746560d81b60648201526084016105c8565b805460408051633fabe5a360e21b815290516001600160a01b0390921691600091839163feaf968c9160048082019260a092909190829003018186803b15801561179457600080fd5b505afa1580156117a8573d6000803e3d6000fd5b505050506040513d601f19601f820116820180604052508101906117cc91906129b1565b505050915050826001015481131561186b57600754600284015460018501546001600160a01b039092169163224b5c729133916010919061180f9087841b612db3565b6118199190612df5565b901d6040518363ffffffff1660e01b8152600401611838929190612a98565b600060405180830381600087803b15801561185257600080fd5b505af1158015611866573d6000803e3d6000fd5b505050505b825460ff60a01b198116600160a01b178455600184810154600286015460405192936001600160a01b0316928992600080516020613009833981519152926109df92918252602082015260400190565b6000806118c783612036565b90506001600160a01b0381166119165760405162461bcd60e51b8152602060048201526014602482015273082a49ab27440d2dcecc2d8d2c840c4e4c2dcc6d60631b60448201526064016105c8565b60008190506000816001600160a01b031663feaf968c6040518163ffffffff1660e01b815260040160a06040518083038186803b15801561195657600080fd5b505afa15801561196a573d6000803e3d6000fd5b505050506040513d601f19601f8201168201806040525081019061198e91906129b1565b505050915050600060095490506119a53382612139565b604080516080810182526001600160a01b03808716808352600060208401818152848601888152600b805460608801908152600d8054600181018255908652975160039098027fd7b6990105719101dabeb77144f2a3385c8033acd3af97e9423a695e81ad1eb58101805495511515600160a01b026001600160a81b0319909616999098169890981793909317909555517fd7b6990105719101dabeb77144f2a3385c8033acd3af97e9423a695e81ad1eb6860155517fd7b6990105719101dabeb77144f2a3385c8033acd3af97e9423a695e81ad1eb7909401939093559054925191929091849160008051602061300983398151915291611aaf91888252602082015260400190565b60405180910390a460098054906000611ac783612f4c565b9091555050600a8054906000611adc83612f4c565b90915550909695505050505050565b6000908152600260205260409020546001600160a01b0316151590565b600081815260046020526040902080546001600160a01b0319166001600160a01b0384169081179091558190611b3d82610e9e565b6001600160a01b03167f8c5be1e5ebec7d5bd14f71427d1e84f3dd0314c0f7b2291e5b200ac8c7c3b92560405160405180910390a45050565b6000611b8182611aeb565b611be25760405162461bcd60e51b815260206004820152602c60248201527f4552433732313a206f70657261746f7220717565727920666f72206e6f6e657860448201526b34b9ba32b73a103a37b5b2b760a11b60648201526084016105c8565b6000611bed83610e9e565b9050806001600160a01b0316846001600160a01b03161480611c285750836001600160a01b0316611c1d84610560565b6001600160a01b0316145b8061140557506114058185611610565b611c4182611aeb565b611ca45760405162461bcd60e51b815260206004820152602e60248201527f45524337323155524953746f726167653a2055524920736574206f66206e6f6e60448201526d32bc34b9ba32b73a103a37b5b2b760911b60648201526084016105c8565b600082815260066020908152604090912082516106f9928401906125e0565b826001600160a01b0316611cd682610e9e565b6001600160a01b031614611d3e5760405162461bcd60e51b815260206004820152602960248201527f4552433732313a207472616e73666572206f6620746f6b656e2074686174206960448201526839903737ba1037bbb760b91b60648201526084016105c8565b6001600160a01b038216611da05760405162461bcd60e51b8152602060048201526024808201527f4552433732313a207472616e7366657220746f20746865207a65726f206164646044820152637265737360e01b60648201526084016105c8565b611dab600082611b08565b6001600160a01b0383166000908152600360205260408120805460019290611dd4908490612eb7565b90915550506001600160a01b0382166000908152600360205260408120805460019290611e02908490612d9b565b909155505060008181526002602052604080822080546001600160a01b0319166001600160a01b038681169182179092559151849391871691600080516020612fe983398151915291a4505050565b611e5a8161225a565b60008181526006602052604090208054611e7390612f11565b159050611e91576000818152600660205260408120611e9191612664565b50565b611e9f848484611cc3565b611eab848484846122e3565b6112fd5760405162461bcd60e51b81526004016105c890612bc3565b6060611ed282611aeb565b611f385760405162461bcd60e51b815260206004820152603160248201527f45524337323155524953746f726167653a2055524920717565727920666f72206044820152703737b732bc34b9ba32b73a103a37b5b2b760791b60648201526084016105c8565b60008281526006602052604081208054611f5190612f11565b80601f0160208091040260200160405190810160405280929190818152602001828054611f7d90612f11565b8015611fca5780601f10611f9f57610100808354040283529160200191611fca565b820191906000526020600020905b815481529060010190602001808311611fad57829003601f168201915b505050505090506000611fe860408051602081019091526000815290565b9050805160001415611ffb575092915050565b81511561202d578082604051602001612015929190612a2c565b60405160208183030381529060405292505050919050565b611405846123f0565b600c54604051630178b8bf60e01b81526004810183905260009182916001600160a01b0390911690630178b8bf9060240160206040518083038186803b15801561207f57600080fd5b505afa158015612093573d6000803e3d6000fd5b505050506040513d601f19601f820116820180604052508101906120b791906126ea565b604051631d9dabef60e11b8152600481018590529091506001600160a01b03821690633b3b57de9060240160206040518083038186803b1580156120fa57600080fd5b505afa15801561210e573d6000803e3d6000fd5b505050506040513d601f19601f8201168201806040525081019061213291906126ea565b9392505050565b6001600160a01b03821661218f5760405162461bcd60e51b815260206004820181905260248201527f4552433732313a206d696e7420746f20746865207a65726f206164647265737360448201526064016105c8565b61219881611aeb565b156121e55760405162461bcd60e51b815260206004820152601c60248201527f4552433732313a20746f6b656e20616c7265616479206d696e7465640000000060448201526064016105c8565b6001600160a01b038216600090815260036020526040812080546001929061220e908490612d9b565b909155505060008181526002602052604080822080546001600160a01b0319166001600160a01b0386169081179091559051839290600080516020612fe9833981519152908290a45050565b600061226582610e9e565b9050612272600083611b08565b6001600160a01b038116600090815260036020526040812080546001929061229b908490612eb7565b909155505060008281526002602052604080822080546001600160a01b0319169055518391906001600160a01b03841690600080516020612fe9833981519152908390a45050565b60006001600160a01b0384163b156123e557604051630a85bd0160e11b81526001600160a01b0385169063150b7a0290612327903390899088908890600401612a5b565b602060405180830381600087803b15801561234157600080fd5b505af1925050508015612371575060408051601f3d908101601f1916820190925261236e91810190612923565b60015b6123cb573d80801561239f576040519150601f19603f3d011682016040523d82523d6000602084013e6123a4565b606091505b5080516123c35760405162461bcd60e51b81526004016105c890612bc3565b805181602001fd5b6001600160e01b031916630a85bd0160e11b149050611405565b506001949350505050565b60606123fb82611aeb565b61245f5760405162461bcd60e51b815260206004820152602f60248201527f4552433732314d657461646174613a2055524920717565727920666f72206e6f60448201526e3732bc34b9ba32b73a103a37b5b2b760891b60648201526084016105c8565b600061247660408051602081019091526000815290565b905060008151116124965760405180602001604052806000815250612132565b806124a0846124c7565b6040516020016124b1929190612a2c565b6040516020818303038152906040529392505050565b6060816124eb5750506040805180820190915260018152600360fc1b602082015290565b8160005b811561251557806124ff81612f4c565b915061250e9050600a83612de1565b91506124ef565b6000816001600160401b0381111561253d57634e487b7160e01b600052604160045260246000fd5b6040519080825280601f01601f191660200182016040528015612567576020820181803683370190505b5090505b84156114055761257c600183612eb7565b9150612589600a86612f67565b612594906030612d9b565b60f81b8183815181106125b757634e487b7160e01b600052603260045260246000fd5b60200101906001600160f81b031916908160001a9053506125d9600a86612de1565b945061256b565b8280546125ec90612f11565b90600052602060002090601f01602090048101928261260e5760008555612654565b82601f1061262757805160ff1916838001178555612654565b82800160010185558215612654579182015b82811115612654578251825591602001919060010190612639565b5061266092915061269a565b5090565b50805461267090612f11565b6000825580601f10612680575050565b601f016020900490600052602060002090810190611e9191905b5b80821115612660576000815560010161269b565b805169ffffffffffffffffffff811681146126c957600080fd5b919050565b6000602082840312156126df578081fd5b813561213281612fbd565b6000602082840312156126fb578081fd5b815161213281612fbd565b60008060408385031215612718578081fd5b823561272381612fbd565b9150602083013561273381612fbd565b809150509250929050565b600080600060608486031215612752578081fd5b833561275d81612fbd565b9250602084013561276d81612fbd565b929592945050506040919091013590565b60008060008060808587031215612793578081fd5b843561279e81612fbd565b935060208501356127ae81612fbd565b92506040850135915060608501356001600160401b038111156127cf578182fd5b8501601f810187136127df578182fd5b80356127f26127ed82612d74565b612d44565b818152886020838501011115612806578384fd5b81602084016020830137908101602001929092525092959194509250565b60008060408385031215612836578182fd5b823561284181612fbd565b915060208301358015158114612733578182fd5b60008060408385031215612867578182fd5b823561287281612fbd565b946020939093013593505050565b60008060208385031215612892578182fd5b82356001600160401b03808211156128a8578384fd5b818501915085601f8301126128bb578384fd5b8135818111156128c9578485fd5b8660208260051b85010111156128dd578485fd5b60209290920196919550909350505050565b600060208284031215612900578081fd5b5035919050565b600060208284031215612918578081fd5b813561213281612fd2565b600060208284031215612934578081fd5b815161213281612fd2565b600060208284031215612950578081fd5b81516001600160401b03811115612965578182fd5b8201601f81018413612975578182fd5b80516129836127ed82612d74565b818152856020838501011115612997578384fd5b6129a8826020830160208601612ece565b95945050505050565b600080600080600060a086880312156129c8578283fd5b6129d1866126af565b94506020860151935060408601519250606086015191506129f4608087016126af565b90509295509295909350565b60008151808452612a18816020860160208601612ece565b601f01601f19169290920160200192915050565b60008351612a3e818460208801612ece565b835190830190612a52818360208801612ece565b01949350505050565b6001600160a01b0385811682528416602082015260408101839052608060608201819052600090612a8e90830184612a00565b9695505050505050565b6001600160a01b03929092168252602082015260400190565b602080825282518282018190526000919060409081850190868401855b82811015612b1357815180516001600160a01b031685528681015115158786015285810151868601526060908101519085015260809093019290850190600101612ace565b5091979650505050505050565b6020808252825182820181905260009190848201906040850190845b81811015612b5857835183529284019291840191600101612b3c565b50909695505050505050565b6020815260006121326020830184612a00565b6020808252602c908201527f41524d593a20636f6d6d616e64657220717565727920666f72206e6f6e65786960408201526b39ba32b73a1036b4b734b7b760a11b606082015260800190565b60208082526032908201527f4552433732313a207472616e7366657220746f206e6f6e20455243373231526560408201527131b2b4bb32b91034b6b83632b6b2b73a32b960711b606082015260800190565b60208082526028908201527f41524d593a20636f6d6d616e6465722063616e277420636f6d6d616e64207468604082015267329036b4b734b7b760c11b606082015260800190565b60208082526031908201527f4552433732313a207472616e736665722063616c6c6572206973206e6f74206f6040820152701ddb995c881b9bdc88185c1c1c9bdd9959607a1b606082015260800190565b60208082526029908201527f41524d593a206d696e696f6e20697320616c726561647920696e20747261696e604082015268696e6720737461746560b81b606082015260800190565b6020815260018060a01b03825116602082015260208201511515604082015260408201516060820152606082015160808201526000608083015160a08084015261140560c0840182612a00565b604051601f8201601f191681016001600160401b0381118282101715612d6c57612d6c612fa7565b604052919050565b60006001600160401b03821115612d8d57612d8d612fa7565b50601f01601f191660200190565b60008219821115612dae57612dae612f7b565b500190565b600082612dc257612dc2612f91565b600160ff1b821460001984141615612ddc57612ddc612f7b565b500590565b600082612df057612df0612f91565b500490565b60006001600160ff1b0381841382841380821686840486111615612e1b57612e1b612f7b565b600160ff1b84871282811687830589121615612e3957612e39612f7b565b858712925087820587128484161615612e5457612e54612f7b565b87850587128184161615612e6a57612e6a612f7b565b505050929093029392505050565b60008083128015600160ff1b850184121615612e9657612e96612f7b565b6001600160ff1b0384018313811615612eb157612eb1612f7b565b50500390565b600082821015612ec957612ec9612f7b565b500390565b60005b83811015612ee9578181015183820152602001612ed1565b838111156112fd5750506000910152565b600081612f0957612f09612f7b565b506000190190565b600181811c90821680612f2557607f821691505b60208210811415612f4657634e487b7160e01b600052602260045260246000fd5b50919050565b6000600019821415612f6057612f60612f7b565b5060010190565b600082612f7657612f76612f91565b500690565b634e487b7160e01b600052601160045260246000fd5b634e487b7160e01b600052601260045260246000fd5b634e487b7160e01b600052604160045260246000fd5b6001600160a01b0381168114611e9157600080fd5b6001600160e01b031981168114611e9157600080fdfeddf252ad1be2c89b69c2b068fc378daa952ba7f163c4a11628f55a4df523b3ef05cf8ce068bd8f8c0e2cfd6182aff2bc80fdfbbf05a0a7ee70f867dc2cecdb0ea2646970667358221220a74e28ab101b3c13d15d7197b4e48ea9dbae3bf4393af89140b65de4b80c6eef64736f6c6343000804003360806040523480156200001157600080fd5b50604051620011ab380380620011ab833981016040819052620000349162000237565b8151829082906200004d906003906020850190620000de565b50805162000063906004906020840190620000de565b505050620000806200007a6200008860201b60201c565b6200008c565b5050620002f1565b3390565b600580546001600160a01b038381166001600160a01b0319831681179093556040519116919082907f8be0079c531659141344cd1fd0a4f28419497f9722a3daafe3b4186f6b6457e090600090a35050565b828054620000ec906200029e565b90600052602060002090601f0160209004810192826200011057600085556200015b565b82601f106200012b57805160ff19168380011785556200015b565b828001600101855582156200015b579182015b828111156200015b5782518255916020019190600101906200013e565b50620001699291506200016d565b5090565b5b808211156200016957600081556001016200016e565b600082601f83011262000195578081fd5b81516001600160401b0380821115620001b257620001b2620002db565b604051601f8301601f19908116603f01168101908282118183101715620001dd57620001dd620002db565b81604052838152602092508683858801011115620001f9578485fd5b8491505b838210156200021c5785820183015181830184015290820190620001fd565b838211156200022d57848385830101525b9695505050505050565b600080604083850312156200024a578182fd5b82516001600160401b038082111562000261578384fd5b6200026f8683870162000184565b9350602085015191508082111562000285578283fd5b50620002948582860162000184565b9150509250929050565b600181811c90821680620002b357607f821691505b60208210811415620002d557634e487b7160e01b600052602260045260246000fd5b50919050565b634e487b7160e01b600052604160045260246000fd5b610eaa80620003016000396000f3fe608060405234801561001057600080fd5b50600436106100e05760003560e01c806370a082311161008757806370a0823114610195578063715018a6146101be5780638da5cb5b146101c657806395d89b41146101e6578063a457c2d7146101ee578063a9059cbb14610201578063dd62ed3e14610214578063f2fde38b1461024d57600080fd5b806306fdde03146100e5578063095ea7b31461010357806318160ddd14610126578063224b5c721461013857806323b872dd1461014d578063313ce56714610160578063395093511461016f57806366ca10ca14610182575b600080fd5b6100ed610260565b6040516100fa9190610c3f565b60405180910390f35b610116610111366004610c16565b6102f2565b60405190151581526020016100fa565b6002545b6040519081526020016100fa565b61014b610146366004610c16565b610309565b005b61011661015b366004610bdb565b610364565b604051601281526020016100fa565b61011661017d366004610c16565b61040e565b61014b610190366004610c16565b61044a565b61012a6101a3366004610b88565b6001600160a01b031660009081526020819052604090205490565b61014b610498565b6101ce6104d3565b6040516001600160a01b0390911681526020016100fa565b6100ed6104e2565b6101166101fc366004610c16565b6104f1565b61011661020f366004610c16565b61058a565b61012a610222366004610ba9565b6001600160a01b03918216600090815260016020908152604080832093909416825291909152205490565b61014b61025b366004610b88565b610597565b60606003805461026f90610e03565b80601f016020809104026020016040519081016040528092919081815260200182805461029b90610e03565b80156102e85780601f106102bd576101008083540402835291602001916102e8565b820191906000526020600020905b8154815290600101906020018083116102cb57829003601f168201915b5050505050905090565b60006102ff338484610637565b5060015b92915050565b336103126104d3565b6001600160a01b0316146103415760405162461bcd60e51b815260040161033890610c92565b60405180910390fd5b610360826103516012600a610d22565b61035b9084610dcd565b61075c565b5050565b6000610371848484610890565b6001600160a01b0384166000908152600160209081526040808320338452909152902054828110156103f65760405162461bcd60e51b815260206004820152602860248201527f45524332303a207472616e7366657220616d6f756e74206578636565647320616044820152676c6c6f77616e636560c01b6064820152608401610338565b6104038533858403610637565b506001949350505050565b3360008181526001602090815260408083206001600160a01b038716845290915281205490916102ff918590610445908690610cc7565b610637565b336104536104d3565b6001600160a01b0316146104795760405162461bcd60e51b815260040161033890610c92565b610360826104896012600a610d22565b6104939084610dcd565b610a4d565b336104a16104d3565b6001600160a01b0316146104c75760405162461bcd60e51b815260040161033890610c92565b6104d16000610b1a565b565b6005546001600160a01b031690565b60606004805461026f90610e03565b3360009081526001602090815260408083206001600160a01b0386168452909152812054828110156105735760405162461bcd60e51b815260206004820152602560248201527f45524332303a2064656372656173656420616c6c6f77616e63652062656c6f77604482015264207a65726f60d81b6064820152608401610338565b6105803385858403610637565b5060019392505050565b60006102ff338484610890565b336105a06104d3565b6001600160a01b0316146105c65760405162461bcd60e51b815260040161033890610c92565b6001600160a01b03811661062b5760405162461bcd60e51b815260206004820152602660248201527f4f776e61626c653a206e6577206f776e657220697320746865207a65726f206160448201526564647265737360d01b6064820152608401610338565b61063481610b1a565b50565b6001600160a01b0383166106995760405162461bcd60e51b8152602060048201526024808201527f45524332303a20617070726f76652066726f6d20746865207a65726f206164646044820152637265737360e01b6064820152608401610338565b6001600160a01b0382166106fa5760405162461bcd60e51b815260206004820152602260248201527f45524332303a20617070726f766520746f20746865207a65726f206164647265604482015261737360f01b6064820152608401610338565b6001600160a01b0383811660008181526001602090815260408083209487168084529482529182902085905590518481527f8c5be1e5ebec7d5bd14f71427d1e84f3dd0314c0f7b2291e5b200ac8c7c3b92591015b60405180910390a3505050565b6001600160a01b0382166107bc5760405162461bcd60e51b815260206004820152602160248201527f45524332303a206275726e2066726f6d20746865207a65726f206164647265736044820152607360f81b6064820152608401610338565b6001600160a01b038216600090815260208190526040902054818110156108305760405162461bcd60e51b815260206004820152602260248201527f45524332303a206275726e20616d6f756e7420657863656564732062616c616e604482015261636560f01b6064820152608401610338565b6001600160a01b038316600090815260208190526040812083830390556002805484929061085f908490610dec565b90915550506040518281526000906001600160a01b03851690600080516020610e558339815191529060200161074f565b6001600160a01b0383166108f45760405162461bcd60e51b815260206004820152602560248201527f45524332303a207472616e736665722066726f6d20746865207a65726f206164604482015264647265737360d81b6064820152608401610338565b6001600160a01b0382166109565760405162461bcd60e51b815260206004820152602360248201527f45524332303a207472616e7366657220746f20746865207a65726f206164647260448201526265737360e81b6064820152608401610338565b6001600160a01b038316600090815260208190526040902054818110156109ce5760405162461bcd60e51b815260206004820152602660248201527f45524332303a207472616e7366657220616d6f756e7420657863656564732062604482015265616c616e636560d01b6064820152608401610338565b6001600160a01b03808516600090815260208190526040808220858503905591851681529081208054849290610a05908490610cc7565b92505081905550826001600160a01b0316846001600160a01b0316600080516020610e5583398151915284604051610a3f91815260200190565b60405180910390a350505050565b6001600160a01b038216610aa35760405162461bcd60e51b815260206004820152601f60248201527f45524332303a206d696e7420746f20746865207a65726f2061646472657373006044820152606401610338565b8060026000828254610ab59190610cc7565b90915550506001600160a01b03821660009081526020819052604081208054839290610ae2908490610cc7565b90915550506040518181526001600160a01b03831690600090600080516020610e558339815191529060200160405180910390a35050565b600580546001600160a01b038381166001600160a01b0319831681179093556040519116919082907f8be0079c531659141344cd1fd0a4f28419497f9722a3daafe3b4186f6b6457e090600090a35050565b80356001600160a01b0381168114610b8357600080fd5b919050565b600060208284031215610b99578081fd5b610ba282610b6c565b9392505050565b60008060408385031215610bbb578081fd5b610bc483610b6c565b9150610bd260208401610b6c565b90509250929050565b600080600060608486031215610bef578081fd5b610bf884610b6c565b9250610c0660208501610b6c565b9150604084013590509250925092565b60008060408385031215610c28578182fd5b610c3183610b6c565b946020939093013593505050565b6000602080835283518082850152825b81811015610c6b57858101830151858201604001528201610c4f565b81811115610c7c5783604083870101525b50601f01601f1916929092016040019392505050565b6020808252818101527f4f776e61626c653a2063616c6c6572206973206e6f7420746865206f776e6572604082015260600190565b60008219821115610cda57610cda610e3e565b500190565b600181815b80851115610d1a578160001904821115610d0057610d00610e3e565b80851615610d0d57918102915b93841c9390800290610ce4565b509250929050565b6000610ba260ff841683600082610d3b57506001610303565b81610d4857506000610303565b8160018114610d5e5760028114610d6857610d84565b6001915050610303565b60ff841115610d7957610d79610e3e565b50506001821b610303565b5060208310610133831016604e8410600b8410161715610da7575081810a610303565b610db18383610cdf565b8060001904821115610dc557610dc5610e3e565b029392505050565b6000816000190483118215151615610de757610de7610e3e565b500290565b600082821015610dfe57610dfe610e3e565b500390565b600181811c90821680610e1757607f821691505b60208210811415610e3857634e487b7160e01b600052602260045260246000fd5b50919050565b634e487b7160e01b600052601160045260246000fdfeddf252ad1be2c89b69c2b068fc378daa952ba7f163c4a11628f55a4df523b3efa26469706673582212203f57b1b029e4157f2fb50911adfe476e8080375ad2fcece8f2544b4c33eeca0564736f6c6343000804003360806040523480156200001157600080fd5b5060405162000f8e38038062000f8e833981016040819052620000349162000300565b6200003f3362000113565b60005b60058110156200010a578281600581106200006d57634e487b7160e01b600052603260045260246000fd5b6020020151600282600581106200009457634e487b7160e01b600052603260045260246000fd5b0155818160058110620000b757634e487b7160e01b600052603260045260246000fd5b602002015160078260058110620000de57634e487b7160e01b600052603260045260246000fd5b019080519060200190620000f492919062000163565b5080620001018162000432565b91505062000042565b50505062000470565b600080546001600160a01b038381166001600160a01b0319831681178455604051919092169283917f8be0079c531659141344cd1fd0a4f28419497f9722a3daafe3b4186f6b6457e09190a35050565b8280546200017190620003f5565b90600052602060002090601f016020900481019282620001955760008555620001e0565b82601f10620001b057805160ff1916838001178555620001e0565b82800160010185558215620001e0579182015b82811115620001e0578251825591602001919060010190620001c3565b50620001ee929150620001f2565b5090565b5b80821115620001ee5760008155600101620001f3565b6000601f83818401126200021b578182fd5b6200022562000397565b80848660a08701111562000237578485fd5b845b6005811015620002f45781516001600160401b03808211156200025a578788fd5b818901915089878301126200026d578788fd5b8151818111156200028257620002826200045a565b6020915062000299818901601f19168301620003c2565b8181528b83838601011115620002ad57898afd5b895b82811015620002cc578481018401518282018501528301620002af565b82811115620002dd578a8484840101525b508752509485019492909201915060010162000239565b50909695505050505050565b60008060c0838503121562000313578182fd5b83601f84011262000322578182fd5b6200032c62000397565b808460a08601878111156200033f578586fd5b855b60058110156200036257825185526020948501949092019160010162000341565b5051919450909150506001600160401b038111156200037f578182fd5b6200038d8582860162000209565b9150509250929050565b60405160a081016001600160401b0381118282101715620003bc57620003bc6200045a565b60405290565b604051601f8201601f191681016001600160401b0381118282101715620003ed57620003ed6200045a565b604052919050565b600181811c908216806200040a57607f821691505b602082108114156200042c57634e487b7160e01b600052602260045260246000fd5b50919050565b60006000198214156200045357634e487b7160e01b81526011600452602481fd5b5060010190565b634e487b7160e01b600052604160045260246000fd5b610b0e80620004806000396000f3fe608060405234801561001057600080fd5b506004361061008e5760003560e01c80634a6d0f20146100935780636a1805e2146100a8578063715018a6146100bb57806376034ca9146100c35780638da5cb5b146100e95780638ebc87c314610109578063a323d45614610129578063bc2095161461013c578063cdeba6221461014f578063f2fde38b14610162575b600080fd5b6100a66100a13660046108a2565b610175565b005b6100a66100b6366004610809565b61022d565b6100a6610285565b6100d66100d13660046108dd565b6102c0565b6040519081526020015b60405180910390f35b6100f16102d7565b6040516001600160a01b0390911681526020016100e0565b61011c6101173660046108dd565b6102e6565b6040516100e091906109a2565b61011c6101373660046107bf565b610386565b61011c61014a3660046107e0565b61039f565b6100a661015d366004610887565b610574565b6100a66101703660046107bf565b610609565b3361017e6102d7565b6001600160a01b0316146101ad5760405162461bcd60e51b81526004016101a4906109f5565b60405180910390fd5b60005b6005811015610229578181600581106101d957634e487b7160e01b600052603260045260246000fd5b6020028101906101e99190610a2a565b6007836005811061020a57634e487b7160e01b600052603260045260246000fd5b610216939101916106f9565b508061022181610ab1565b9150506101b0565b5050565b336102366102d7565b6001600160a01b03161461025c5760405162461bcd60e51b81526004016101a4906109f5565b6001600160a01b038316600090815260016020526040902061027f9083836106f9565b50505050565b3361028e6102d7565b6001600160a01b0316146102b45760405162461bcd60e51b81526004016101a4906109f5565b6102be60006106a9565b565b600281600581106102d057600080fd5b0154905081565b6000546001600160a01b031690565b600781600581106102f657600080fd5b01805490915061030590610a76565b80601f016020809104026020016040519081016040528092919081815260200182805461033190610a76565b801561037e5780601f106103535761010080835404028352916020019161037e565b820191906000526020600020905b81548152906001019060200180831161036157829003601f168201915b505050505081565b6001602052600090815260409020805461030590610a76565b606060005b600581101561056c57600281600581106103ce57634e487b7160e01b600052603260045260246000fd5b0154831261055a576001600160a01b038416600090815260016020526040812080546103f990610a76565b80601f016020809104026020016040519081016040528092919081815260200182805461042590610a76565b80156104725780601f1061044757610100808354040283529160200191610472565b820191906000526020600020905b81548152906001019060200180831161045557829003601f168201915b505050505090508051600014156104f6576000805260016020527fa6eef7e35abe7026729641147f7915573c7e97b47efa546f5f6e3230263bcb49600783600581106104ce57634e487b7160e01b600052603260045260246000fd5b016040516020016104e092919061098d565b6040516020818303038152906040529250610553565b6001600160a01b03851660009081526001602052604090206007836005811061052f57634e487b7160e01b600052603260045260246000fd5b0160405160200161054192919061098d565b60405160208183030381529060405292505b505061056e565b8061056481610ab1565b9150506103a4565b505b92915050565b3361057d6102d7565b6001600160a01b0316146105a35760405162461bcd60e51b81526004016101a4906109f5565b60005b6005811015610229578181600581106105cf57634e487b7160e01b600052603260045260246000fd5b6020020135600282600581106105f557634e487b7160e01b600052603260045260246000fd5b01558061060181610ab1565b9150506105a6565b336106126102d7565b6001600160a01b0316146106385760405162461bcd60e51b81526004016101a4906109f5565b6001600160a01b03811661069d5760405162461bcd60e51b815260206004820152602660248201527f4f776e61626c653a206e6577206f776e657220697320746865207a65726f206160448201526564647265737360d01b60648201526084016101a4565b6106a6816106a9565b50565b600080546001600160a01b038381166001600160a01b0319831681178455604051919092169283917f8be0079c531659141344cd1fd0a4f28419497f9722a3daafe3b4186f6b6457e09190a35050565b82805461070590610a76565b90600052602060002090601f016020900481019282610727576000855561076d565b82601f106107405782800160ff1982351617855561076d565b8280016001018555821561076d579182015b8281111561076d578235825591602001919060010190610752565b5061077992915061077d565b5090565b5b80821115610779576000815560010161077e565b80356001600160a01b03811681146107a957600080fd5b919050565b8060a0810183101561056e57600080fd5b6000602082840312156107d0578081fd5b6107d982610792565b9392505050565b600080604083850312156107f2578081fd5b6107fb83610792565b946020939093013593505050565b60008060006040848603121561081d578081fd5b61082684610792565b9250602084013567ffffffffffffffff80821115610842578283fd5b818601915086601f830112610855578283fd5b813581811115610863578384fd5b876020828501011115610874578384fd5b6020830194508093505050509250925092565b600060a08284031215610898578081fd5b6107d983836107ae565b6000602082840312156108b3578081fd5b813567ffffffffffffffff8111156108c9578182fd5b6108d5848285016107ae565b949350505050565b6000602082840312156108ee578081fd5b5035919050565b8054600090600181811c908083168061090f57607f831692505b602080841082141561092f57634e487b7160e01b86526022600452602486fd5b818015610943576001811461095457610981565b60ff19861689528489019650610981565b60008881526020902060005b868110156109795781548b820152908501908301610960565b505084890196505b50505050505092915050565b60006108d561099c83866108f5565b846108f5565b6000602080835283518082850152825b818110156109ce578581018301518582016040015282016109b2565b818111156109df5783604083870101525b50601f01601f1916929092016040019392505050565b6020808252818101527f4f776e61626c653a2063616c6c6572206973206e6f7420746865206f776e6572604082015260600190565b6000808335601e19843603018112610a40578283fd5b83018035915067ffffffffffffffff821115610a5a578283fd5b602001915036819003821315610a6f57600080fd5b9250929050565b600181811c90821680610a8a57607f821691505b60208210811415610aab57634e487b7160e01b600052602260045260246000fd5b50919050565b6000600019821415610ad157634e487b7160e01b81526011600452602481fd5b506001019056fea2646970667358221220748f3107e7778de7bca73e560e06883a6785a5bb4d219676f98bff7868c48e7164736f6c63430008040033",
  "devdoc": {
    "author": "Justa Liang",
    "kind": "dev",
    "methods": {
      "approve(address,uint256)": {
        "details": "See {IERC721-approve}."
      },
      "arm(uint256)": {
        "params": {
          "minionID": "ID of the minion"
        }
      },
      "balanceOf(address)": {
        "details": "See {IERC721-balanceOf}."
      },
      "boost(uint256)": {
        "details": "Commander cost Hemoglobin",
        "params": {
          "minionID": "ID of the minion"
        }
      },
      "constructor": {
        "details": "Set name, symbol, and addresses of interactive contracts",
        "params": {
          "ensRegistryAddr": "Address of ENS Registry"
        }
      },
      "getApproved(uint256)": {
        "details": "See {IERC721-getApproved}."
      },
      "getMinionIDs(address)": {
        "params": {
          "commander": "Commander of these minions"
        },
        "returns": {
          "minionIDs": "IDs of these minions"
        }
      },
      "getMinionInfo(uint256)": {
        "params": {
          "minionID": "ID of the minion"
        },
        "returns": {
          "_0": "On-chain information of the minion"
        }
      },
      "getMinionProfile(uint256)": {
        "params": {
          "minionID": "ID of the minion"
        },
        "returns": {
          "profile": "Minion info and tokeURI"
        }
      },
      "getTeamInfo(uint256[])": {
        "params": {
          "minionIDs": "IDs of the minions"
        },
        "returns": {
          "teamInfo": "Array of minion info"
        }
      },
      "grant(uint256)": {
        "params": {
          "minionID": "ID of the minion"
        }
      },
      "heal(uint256)": {
        "details": "Commander cost Hemoglobin",
        "params": {
          "minionID": "ID of the minion"
        }
      },
      "isApprovedForAll(address,address)": {
        "details": "See {IERC721-isApprovedForAll}."
      },
      "liberate(uint256)": {
        "params": {
          "minionID": "ID of the minion"
        }
      },
      "minionExists(uint256)": {
        "params": {
          "minionID": "ID of the minion"
        },
        "returns": {
          "_0": "Exists or not"
        }
      },
      "name()": {
        "details": "See {IERC721Metadata-name}."
      },
      "ownerOf(uint256)": {
        "details": "See {IERC721-ownerOf}."
      },
      "recruit(bytes32)": {
        "params": {
          "branchHash": "ENS-namehash of given pair (ex: eth-usd.data.eth)"
        },
        "returns": {
          "_0": "ID of the newly recruited minion"
        }
      },
      "safeTransferFrom(address,address,uint256)": {
        "details": "See {IERC721-safeTransferFrom}."
      },
      "safeTransferFrom(address,address,uint256,bytes)": {
        "details": "See {IERC721-safeTransferFrom}."
      },
      "setApprovalForAll(address,bool)": {
        "details": "See {IERC721-setApprovalForAll}."
      },
      "supportsInterface(bytes4)": {
        "details": "See {IERC165-supportsInterface}."
      },
      "symbol()": {
        "details": "See {IERC721Metadata-symbol}."
      },
      "tokenURI(uint256)": {
        "params": {
          "minionID": "ID of the minion"
        }
      },
      "train(uint256)": {
        "params": {
          "minionID": "ID of the minion"
        }
      },
      "transferFrom(address,address,uint256)": {
        "details": "See {IERC721-transferFrom}."
      }
    },
    "title": "Fauna Army, which grows in bearish market",
    "version": 1
  },
  "userdoc": {
    "events": {
      "MinionState(uint256,address,bool,int256,int256)": {
        "notice": "Emit when minion's state changes "
      }
    },
    "kind": "user",
    "methods": {
      "arm(uint256)": {
        "notice": "Arm a minion and update its power"
      },
      "boost(uint256)": {
        "notice": "Use Hemoglobin to stimulate an armed minion to catch up with training"
      },
      "enhancerContract()": {
        "notice": "Corresponding Enhancer contract"
      },
      "ens()": {
        "notice": "ENS interface (fixed address)"
      },
      "getMinionIDs(address)": {
        "notice": "Get minion IDs, like (2,6,9), given commander"
      },
      "getMinionInfo(uint256)": {
        "notice": "Get minion's on-chain information"
      },
      "getMinionProfile(uint256)": {
        "notice": "Get minion's profile"
      },
      "getTeamInfo(uint256[])": {
        "notice": "Get all minions' info given minion IDs"
      },
      "grant(uint256)": {
        "notice": "Grant minion with current token URI"
      },
      "heal(uint256)": {
        "notice": "Use Hemoglobin to heal a minion who suffer from negative training"
      },
      "initPower()": {
        "notice": "Inital minion's power"
      },
      "liberate(uint256)": {
        "notice": "Liberate a minion and get some enhancer"
      },
      "minionExists(uint256)": {
        "notice": "Get if minion exists"
      },
      "population()": {
        "notice": "Population of minions"
      },
      "rankContract()": {
        "notice": "Corresponding Rank contract"
      },
      "recruit(bytes32)": {
        "notice": "Recruit a minion"
      },
      "serialNumber()": {
        "notice": "Serial number of minions, imply how many minions have been created"
      },
      "tokenURI(uint256)": {
        "notice": "Get minion's metadata URI"
      },
      "train(uint256)": {
        "notice": "Train a minion and update the environment factor"
      }
    },
    "notice": "ERC721 token cultivated by predicting market price (using Chainlink oracle)",
    "version": 1
  },
  "storageLayout": {
    "storage": [
      {
        "astId": 881,
        "contract": "contracts/FaunaArmy.sol:FaunaArmy",
        "label": "_name",
        "offset": 0,
        "slot": "0",
        "type": "t_string_storage"
      },
      {
        "astId": 883,
        "contract": "contracts/FaunaArmy.sol:FaunaArmy",
        "label": "_symbol",
        "offset": 0,
        "slot": "1",
        "type": "t_string_storage"
      },
      {
        "astId": 887,
        "contract": "contracts/FaunaArmy.sol:FaunaArmy",
        "label": "_owners",
        "offset": 0,
        "slot": "2",
        "type": "t_mapping(t_uint256,t_address)"
      },
      {
        "astId": 891,
        "contract": "contracts/FaunaArmy.sol:FaunaArmy",
        "label": "_balances",
        "offset": 0,
        "slot": "3",
        "type": "t_mapping(t_address,t_uint256)"
      },
      {
        "astId": 895,
        "contract": "contracts/FaunaArmy.sol:FaunaArmy",
        "label": "_tokenApprovals",
        "offset": 0,
        "slot": "4",
        "type": "t_mapping(t_uint256,t_address)"
      },
      {
        "astId": 901,
        "contract": "contracts/FaunaArmy.sol:FaunaArmy",
        "label": "_operatorApprovals",
        "offset": 0,
        "slot": "5",
        "type": "t_mapping(t_address,t_mapping(t_address,t_bool))"
      },
      {
        "astId": 1818,
        "contract": "contracts/FaunaArmy.sol:FaunaArmy",
        "label": "_tokenURIs",
        "offset": 0,
        "slot": "6",
        "type": "t_mapping(t_uint256,t_string_storage)"
      },
      {
        "astId": 2553,
        "contract": "contracts/FaunaArmy.sol:FaunaArmy",
        "label": "enhancerContract",
        "offset": 0,
        "slot": "7",
        "type": "t_contract(ENHR)3121"
      },
      {
        "astId": 2557,
        "contract": "contracts/FaunaArmy.sol:FaunaArmy",
        "label": "rankContract",
        "offset": 0,
        "slot": "8",
        "type": "t_contract(RANK)3265"
      },
      {
        "astId": 2560,
        "contract": "contracts/FaunaArmy.sol:FaunaArmy",
        "label": "serialNumber",
        "offset": 0,
        "slot": "9",
        "type": "t_uint256"
      },
      {
        "astId": 2563,
        "contract": "contracts/FaunaArmy.sol:FaunaArmy",
        "label": "population",
        "offset": 0,
        "slot": "10",
        "type": "t_uint256"
      },
      {
        "astId": 2566,
        "contract": "contracts/FaunaArmy.sol:FaunaArmy",
        "label": "initPower",
        "offset": 0,
        "slot": "11",
        "type": "t_int256"
      },
      {
        "astId": 2570,
        "contract": "contracts/FaunaArmy.sol:FaunaArmy",
        "label": "ens",
        "offset": 0,
        "slot": "12",
        "type": "t_contract(ENS)2535"
      },
      {
        "astId": 2595,
        "contract": "contracts/FaunaArmy.sol:FaunaArmy",
        "label": "minions",
        "offset": 0,
        "slot": "13",
        "type": "t_array(t_struct(Minion)2579_storage)dyn_storage"
      }
    ],
    "types": {
      "t_address": {
        "encoding": "inplace",
        "label": "address",
        "numberOfBytes": "20"
      },
      "t_array(t_struct(Minion)2579_storage)dyn_storage": {
        "base": "t_struct(Minion)2579_storage",
        "encoding": "dynamic_array",
        "label": "struct ArmyBase.Minion[]",
        "numberOfBytes": "32"
      },
      "t_bool": {
        "encoding": "inplace",
        "label": "bool",
        "numberOfBytes": "1"
      },
      "t_contract(ENHR)3121": {
        "encoding": "inplace",
        "label": "contract ENHR",
        "numberOfBytes": "20"
      },
      "t_contract(ENS)2535": {
        "encoding": "inplace",
        "label": "contract ENS",
        "numberOfBytes": "20"
      },
      "t_contract(RANK)3265": {
        "encoding": "inplace",
        "label": "contract RANK",
        "numberOfBytes": "20"
      },
      "t_int256": {
        "encoding": "inplace",
        "label": "int256",
        "numberOfBytes": "32"
      },
      "t_mapping(t_address,t_bool)": {
        "encoding": "mapping",
        "key": "t_address",
        "label": "mapping(address => bool)",
        "numberOfBytes": "32",
        "value": "t_bool"
      },
      "t_mapping(t_address,t_mapping(t_address,t_bool))": {
        "encoding": "mapping",
        "key": "t_address",
        "label": "mapping(address => mapping(address => bool))",
        "numberOfBytes": "32",
        "value": "t_mapping(t_address,t_bool)"
      },
      "t_mapping(t_address,t_uint256)": {
        "encoding": "mapping",
        "key": "t_address",
        "label": "mapping(address => uint256)",
        "numberOfBytes": "32",
        "value": "t_uint256"
      },
      "t_mapping(t_uint256,t_address)": {
        "encoding": "mapping",
        "key": "t_uint256",
        "label": "mapping(uint256 => address)",
        "numberOfBytes": "32",
        "value": "t_address"
      },
      "t_mapping(t_uint256,t_string_storage)": {
        "encoding": "mapping",
        "key": "t_uint256",
        "label": "mapping(uint256 => string)",
        "numberOfBytes": "32",
        "value": "t_string_storage"
      },
      "t_string_storage": {
        "encoding": "bytes",
        "label": "string",
        "numberOfBytes": "32"
      },
      "t_struct(Minion)2579_storage": {
        "encoding": "inplace",
        "label": "struct ArmyBase.Minion",
        "members": [
          {
            "astId": 2572,
            "contract": "contracts/FaunaArmy.sol:FaunaArmy",
            "label": "branchAddr",
            "offset": 0,
            "slot": "0",
            "type": "t_address"
          },
          {
            "astId": 2574,
            "contract": "contracts/FaunaArmy.sol:FaunaArmy",
            "label": "armed",
            "offset": 20,
            "slot": "0",
            "type": "t_bool"
          },
          {
            "astId": 2576,
            "contract": "contracts/FaunaArmy.sol:FaunaArmy",
            "label": "envFactor",
            "offset": 0,
            "slot": "1",
            "type": "t_int256"
          },
          {
            "astId": 2578,
            "contract": "contracts/FaunaArmy.sol:FaunaArmy",
            "label": "power",
            "offset": 0,
            "slot": "2",
            "type": "t_int256"
          }
        ],
        "numberOfBytes": "96"
      },
      "t_uint256": {
        "encoding": "inplace",
        "label": "uint256",
        "numberOfBytes": "32"
      }
    }
  }
}