{
  "address": "0x6e63faf976B3f3287f5DeD4103Ccbb39C5BA6Dc9",
  "abi": [
    {
      "inputs": [
        {
          "internalType": "address",
          "name": "floraArmyAddr",
          "type": "address"
        },
        {
          "internalType": "address",
          "name": "faunaArmyAddr",
          "type": "address"
        }
      ],
      "stateMutability": "nonpayable",
      "type": "constructor"
    },
    {
      "anonymous": false,
      "inputs": [
        {
          "indexed": true,
          "internalType": "address",
          "name": "owner",
          "type": "address"
        },
        {
          "indexed": true,
          "internalType": "address",
          "name": "approved",
          "type": "address"
        },
        {
          "indexed": true,
          "internalType": "uint256",
          "name": "tokenId",
          "type": "uint256"
        }
      ],
      "name": "Approval",
      "type": "event"
    },
    {
      "anonymous": false,
      "inputs": [
        {
          "indexed": true,
          "internalType": "address",
          "name": "owner",
          "type": "address"
        },
        {
          "indexed": true,
          "internalType": "address",
          "name": "operator",
          "type": "address"
        },
        {
          "indexed": false,
          "internalType": "bool",
          "name": "approved",
          "type": "bool"
        }
      ],
      "name": "ApprovalForAll",
      "type": "event"
    },
    {
      "anonymous": false,
      "inputs": [
        {
          "indexed": true,
          "internalType": "uint256",
          "name": "fieldID",
          "type": "uint256"
        },
        {
          "indexed": true,
          "internalType": "address",
          "name": "conqueror",
          "type": "address"
        },
        {
          "indexed": true,
          "internalType": "bool",
          "name": "isGreen",
          "type": "bool"
        },
        {
          "indexed": false,
          "internalType": "uint256[]",
          "name": "defender",
          "type": "uint256[]"
        }
      ],
      "name": "FieldState",
      "type": "event"
    },
    {
      "anonymous": false,
      "inputs": [
        {
          "indexed": true,
          "internalType": "address",
          "name": "previousOwner",
          "type": "address"
        },
        {
          "indexed": true,
          "internalType": "address",
          "name": "newOwner",
          "type": "address"
        }
      ],
      "name": "OwnershipTransferred",
      "type": "event"
    },
    {
      "anonymous": false,
      "inputs": [
        {
          "indexed": true,
          "internalType": "address",
          "name": "proposer",
          "type": "address"
        },
        {
          "indexed": false,
          "internalType": "uint256",
          "name": "proposalID",
          "type": "uint256"
        },
        {
          "indexed": false,
          "internalType": "string",
          "name": "prefixURI",
          "type": "string"
        }
      ],
      "name": "Propose",
      "type": "event"
    },
    {
      "anonymous": false,
      "inputs": [
        {
          "indexed": false,
          "internalType": "uint256",
          "name": "totalArea",
          "type": "uint256"
        }
      ],
      "name": "TotalArea",
      "type": "event"
    },
    {
      "anonymous": false,
      "inputs": [
        {
          "indexed": true,
          "internalType": "address",
          "name": "from",
          "type": "address"
        },
        {
          "indexed": true,
          "internalType": "address",
          "name": "to",
          "type": "address"
        },
        {
          "indexed": true,
          "internalType": "uint256",
          "name": "tokenId",
          "type": "uint256"
        }
      ],
      "name": "Transfer",
      "type": "event"
    },
    {
      "anonymous": false,
      "inputs": [
        {
          "indexed": true,
          "internalType": "uint256",
          "name": "fieldID",
          "type": "uint256"
        },
        {
          "indexed": true,
          "internalType": "address",
          "name": "voter",
          "type": "address"
        },
        {
          "indexed": true,
          "internalType": "uint256",
          "name": "proposalID",
          "type": "uint256"
        },
        {
          "indexed": false,
          "internalType": "uint256",
          "name": "voteCount",
          "type": "uint256"
        }
      ],
      "name": "Vote",
      "type": "event"
    },
    {
      "anonymous": false,
      "inputs": [
        {
          "indexed": true,
          "internalType": "uint256",
          "name": "generation",
          "type": "uint256"
        },
        {
          "indexed": true,
          "internalType": "address",
          "name": "winner",
          "type": "address"
        },
        {
          "indexed": false,
          "internalType": "string",
          "name": "tokenURI",
          "type": "string"
        },
        {
          "indexed": false,
          "internalType": "uint256",
          "name": "proposalCount",
          "type": "uint256"
        },
        {
          "indexed": false,
          "internalType": "uint256",
          "name": "voteCount",
          "type": "uint256"
        },
        {
          "indexed": false,
          "internalType": "uint256",
          "name": "totalArea",
          "type": "uint256"
        },
        {
          "indexed": false,
          "internalType": "bool",
          "name": "floraWin",
          "type": "bool"
        },
        {
          "indexed": false,
          "internalType": "bool",
          "name": "faunaWin",
          "type": "bool"
        }
      ],
      "name": "Winner",
      "type": "event"
    },
    {
      "inputs": [
        {
          "internalType": "address",
          "name": "to",
          "type": "address"
        },
        {
          "internalType": "uint256",
          "name": "tokenId",
          "type": "uint256"
        }
      ],
      "name": "approve",
      "outputs": [],
      "stateMutability": "nonpayable",
      "type": "function"
    },
    {
      "inputs": [
        {
          "internalType": "address",
          "name": "owner",
          "type": "address"
        }
      ],
      "name": "balanceOf",
      "outputs": [
        {
          "internalType": "uint256",
          "name": "",
          "type": "uint256"
        }
      ],
      "stateMutability": "view",
      "type": "function"
    },
    {
      "inputs": [
        {
          "internalType": "uint256",
          "name": "propInterval_",
          "type": "uint256"
        }
      ],
      "name": "changePropInterval",
      "outputs": [],
      "stateMutability": "nonpayable",
      "type": "function"
    },
    {
      "inputs": [
        {
          "internalType": "string",
          "name": "seriesName_",
          "type": "string"
        }
      ],
      "name": "changeSeriesName",
      "outputs": [],
      "stateMutability": "nonpayable",
      "type": "function"
    },
    {
      "inputs": [
        {
          "internalType": "uint256",
          "name": "slottingFee_",
          "type": "uint256"
        }
      ],
      "name": "changeSlottingFee",
      "outputs": [],
      "stateMutability": "nonpayable",
      "type": "function"
    },
    {
      "inputs": [
        {
          "internalType": "uint256",
          "name": "voteInterval_",
          "type": "uint256"
        }
      ],
      "name": "changeVoteInterval",
      "outputs": [],
      "stateMutability": "nonpayable",
      "type": "function"
    },
    {
      "inputs": [
        {
          "internalType": "uint256",
          "name": "amount",
          "type": "uint256"
        },
        {
          "internalType": "address payable",
          "name": "receiver",
          "type": "address"
        }
      ],
      "name": "claimFunds",
      "outputs": [],
      "stateMutability": "nonpayable",
      "type": "function"
    },
    {
      "inputs": [],
      "name": "endVote",
      "outputs": [],
      "stateMutability": "nonpayable",
      "type": "function"
    },
    {
      "inputs": [
        {
          "internalType": "uint256",
          "name": "increaseSize",
          "type": "uint256"
        }
      ],
      "name": "expand",
      "outputs": [],
      "stateMutability": "nonpayable",
      "type": "function"
    },
    {
      "inputs": [],
      "name": "faunaArmy",
      "outputs": [
        {
          "internalType": "contract ARMY",
          "name": "",
          "type": "address"
        }
      ],
      "stateMutability": "view",
      "type": "function"
    },
    {
      "inputs": [
        {
          "internalType": "uint256",
          "name": "fieldID",
          "type": "uint256"
        },
        {
          "internalType": "uint256",
          "name": "attackerID",
          "type": "uint256"
        }
      ],
      "name": "faunaConquer",
      "outputs": [],
      "stateMutability": "nonpayable",
      "type": "function"
    },
    {
      "inputs": [],
      "name": "faunaFieldCount",
      "outputs": [
        {
          "internalType": "uint256",
          "name": "",
          "type": "uint256"
        }
      ],
      "stateMutability": "view",
      "type": "function"
    },
    {
      "inputs": [
        {
          "internalType": "uint256",
          "name": "",
          "type": "uint256"
        }
      ],
      "name": "faunaOnField",
      "outputs": [
        {
          "internalType": "bool",
          "name": "",
          "type": "bool"
        }
      ],
      "stateMutability": "view",
      "type": "function"
    },
    {
      "inputs": [
        {
          "internalType": "uint256",
          "name": "",
          "type": "uint256"
        },
        {
          "internalType": "uint256",
          "name": "",
          "type": "uint256"
        }
      ],
      "name": "fieldDefender",
      "outputs": [
        {
          "internalType": "uint256",
          "name": "",
          "type": "uint256"
        }
      ],
      "stateMutability": "view",
      "type": "function"
    },
    {
      "inputs": [
        {
          "internalType": "uint256",
          "name": "",
          "type": "uint256"
        }
      ],
      "name": "fieldGeneration",
      "outputs": [
        {
          "internalType": "uint256",
          "name": "",
          "type": "uint256"
        }
      ],
      "stateMutability": "view",
      "type": "function"
    },
    {
      "inputs": [],
      "name": "fieldLocked",
      "outputs": [
        {
          "internalType": "bool",
          "name": "",
          "type": "bool"
        }
      ],
      "stateMutability": "view",
      "type": "function"
    },
    {
      "inputs": [],
      "name": "floraArmy",
      "outputs": [
        {
          "internalType": "contract ARMY",
          "name": "",
          "type": "address"
        }
      ],
      "stateMutability": "view",
      "type": "function"
    },
    {
      "inputs": [
        {
          "internalType": "uint256",
          "name": "fieldID",
          "type": "uint256"
        },
        {
          "internalType": "uint256",
          "name": "attackerID",
          "type": "uint256"
        }
      ],
      "name": "floraConquer",
      "outputs": [],
      "stateMutability": "nonpayable",
      "type": "function"
    },
    {
      "inputs": [],
      "name": "floraFieldCount",
      "outputs": [
        {
          "internalType": "uint256",
          "name": "",
          "type": "uint256"
        }
      ],
      "stateMutability": "view",
      "type": "function"
    },
    {
      "inputs": [
        {
          "internalType": "uint256",
          "name": "",
          "type": "uint256"
        }
      ],
      "name": "floraOnField",
      "outputs": [
        {
          "internalType": "bool",
          "name": "",
          "type": "bool"
        }
      ],
      "stateMutability": "view",
      "type": "function"
    },
    {
      "inputs": [],
      "name": "generation",
      "outputs": [
        {
          "internalType": "uint256",
          "name": "",
          "type": "uint256"
        }
      ],
      "stateMutability": "view",
      "type": "function"
    },
    {
      "inputs": [],
      "name": "getAllFieldInfo",
      "outputs": [
        {
          "components": [
            {
              "internalType": "address",
              "name": "leader",
              "type": "address"
            },
            {
              "internalType": "uint256[]",
              "name": "defender",
              "type": "uint256[]"
            },
            {
              "internalType": "bool",
              "name": "isFlora",
              "type": "bool"
            }
          ],
          "internalType": "struct BattleBase.FieldInfo[]",
          "name": "allFieldInfo",
          "type": "tuple[]"
        }
      ],
      "stateMutability": "view",
      "type": "function"
    },
    {
      "inputs": [],
      "name": "getAllProposalInfo",
      "outputs": [
        {
          "components": [
            {
              "internalType": "address",
              "name": "proposer",
              "type": "address"
            },
            {
              "internalType": "string",
              "name": "prefixURI",
              "type": "string"
            },
            {
              "internalType": "uint256",
              "name": "voteCount",
              "type": "uint256"
            }
          ],
          "internalType": "struct Battlefield.Proposal[]",
          "name": "",
          "type": "tuple[]"
        }
      ],
      "stateMutability": "view",
      "type": "function"
    },
    {
      "inputs": [
        {
          "internalType": "uint256",
          "name": "tokenId",
          "type": "uint256"
        }
      ],
      "name": "getApproved",
      "outputs": [
        {
          "internalType": "address",
          "name": "",
          "type": "address"
        }
      ],
      "stateMutability": "view",
      "type": "function"
    },
    {
      "inputs": [
        {
          "internalType": "uint256",
          "name": "fieldID",
          "type": "uint256"
        }
      ],
      "name": "getFieldDefender",
      "outputs": [
        {
          "internalType": "uint256[]",
          "name": "",
          "type": "uint256[]"
        }
      ],
      "stateMutability": "view",
      "type": "function"
    },
    {
      "inputs": [
        {
          "internalType": "uint256",
          "name": "fieldID",
          "type": "uint256"
        }
      ],
      "name": "getFieldInfo",
      "outputs": [
        {
          "components": [
            {
              "internalType": "address",
              "name": "leader",
              "type": "address"
            },
            {
              "internalType": "uint256[]",
              "name": "defender",
              "type": "uint256[]"
            },
            {
              "internalType": "bool",
              "name": "isFlora",
              "type": "bool"
            }
          ],
          "internalType": "struct BattleBase.FieldInfo",
          "name": "fieldInfo",
          "type": "tuple"
        }
      ],
      "stateMutability": "view",
      "type": "function"
    },
    {
      "inputs": [
        {
          "internalType": "uint256",
          "name": "fieldID",
          "type": "uint256"
        }
      ],
      "name": "getFieldLeader",
      "outputs": [
        {
          "internalType": "address",
          "name": "",
          "type": "address"
        }
      ],
      "stateMutability": "view",
      "type": "function"
    },
    {
      "inputs": [],
      "name": "getProposalCount",
      "outputs": [
        {
          "internalType": "uint256",
          "name": "",
          "type": "uint256"
        }
      ],
      "stateMutability": "view",
      "type": "function"
    },
    {
      "inputs": [
        {
          "internalType": "address",
          "name": "owner",
          "type": "address"
        },
        {
          "internalType": "address",
          "name": "operator",
          "type": "address"
        }
      ],
      "name": "isApprovedForAll",
      "outputs": [
        {
          "internalType": "bool",
          "name": "",
          "type": "bool"
        }
      ],
      "stateMutability": "view",
      "type": "function"
    },
    {
      "inputs": [
        {
          "internalType": "uint256",
          "name": "",
          "type": "uint256"
        }
      ],
      "name": "isFloraField",
      "outputs": [
        {
          "internalType": "bool",
          "name": "",
          "type": "bool"
        }
      ],
      "stateMutability": "view",
      "type": "function"
    },
    {
      "inputs": [],
      "name": "name",
      "outputs": [
        {
          "internalType": "string",
          "name": "",
          "type": "string"
        }
      ],
      "stateMutability": "view",
      "type": "function"
    },
    {
      "inputs": [],
      "name": "owner",
      "outputs": [
        {
          "internalType": "address",
          "name": "",
          "type": "address"
        }
      ],
      "stateMutability": "view",
      "type": "function"
    },
    {
      "inputs": [
        {
          "internalType": "uint256",
          "name": "tokenId",
          "type": "uint256"
        }
      ],
      "name": "ownerOf",
      "outputs": [
        {
          "internalType": "address",
          "name": "",
          "type": "address"
        }
      ],
      "stateMutability": "view",
      "type": "function"
    },
    {
      "inputs": [],
      "name": "propInterval",
      "outputs": [
        {
          "internalType": "uint256",
          "name": "",
          "type": "uint256"
        }
      ],
      "stateMutability": "view",
      "type": "function"
    },
    {
      "inputs": [
        {
          "internalType": "uint256",
          "name": "",
          "type": "uint256"
        }
      ],
      "name": "proposals",
      "outputs": [
        {
          "internalType": "address",
          "name": "proposer",
          "type": "address"
        },
        {
          "internalType": "string",
          "name": "prefixURI",
          "type": "string"
        },
        {
          "internalType": "uint256",
          "name": "voteCount",
          "type": "uint256"
        }
      ],
      "stateMutability": "view",
      "type": "function"
    },
    {
      "inputs": [
        {
          "internalType": "string",
          "name": "prefixURI",
          "type": "string"
        }
      ],
      "name": "propose",
      "outputs": [],
      "stateMutability": "payable",
      "type": "function"
    },
    {
      "inputs": [],
      "name": "renounceOwnership",
      "outputs": [],
      "stateMutability": "nonpayable",
      "type": "function"
    },
    {
      "inputs": [
        {
          "internalType": "uint256",
          "name": "fieldID",
          "type": "uint256"
        }
      ],
      "name": "retreat",
      "outputs": [],
      "stateMutability": "nonpayable",
      "type": "function"
    },
    {
      "inputs": [
        {
          "internalType": "address",
          "name": "from",
          "type": "address"
        },
        {
          "internalType": "address",
          "name": "to",
          "type": "address"
        },
        {
          "internalType": "uint256",
          "name": "tokenId",
          "type": "uint256"
        }
      ],
      "name": "safeTransferFrom",
      "outputs": [],
      "stateMutability": "nonpayable",
      "type": "function"
    },
    {
      "inputs": [
        {
          "internalType": "address",
          "name": "from",
          "type": "address"
        },
        {
          "internalType": "address",
          "name": "to",
          "type": "address"
        },
        {
          "internalType": "uint256",
          "name": "tokenId",
          "type": "uint256"
        },
        {
          "internalType": "bytes",
          "name": "_data",
          "type": "bytes"
        }
      ],
      "name": "safeTransferFrom",
      "outputs": [],
      "stateMutability": "nonpayable",
      "type": "function"
    },
    {
      "inputs": [],
      "name": "seriesName",
      "outputs": [
        {
          "internalType": "string",
          "name": "",
          "type": "string"
        }
      ],
      "stateMutability": "view",
      "type": "function"
    },
    {
      "inputs": [
        {
          "internalType": "address",
          "name": "operator",
          "type": "address"
        },
        {
          "internalType": "bool",
          "name": "approved",
          "type": "bool"
        }
      ],
      "name": "setApprovalForAll",
      "outputs": [],
      "stateMutability": "nonpayable",
      "type": "function"
    },
    {
      "inputs": [],
      "name": "slottingFee",
      "outputs": [
        {
          "internalType": "uint256",
          "name": "",
          "type": "uint256"
        }
      ],
      "stateMutability": "view",
      "type": "function"
    },
    {
      "inputs": [],
      "name": "startVote",
      "outputs": [],
      "stateMutability": "nonpayable",
      "type": "function"
    },
    {
      "inputs": [
        {
          "internalType": "bytes4",
          "name": "interfaceId",
          "type": "bytes4"
        }
      ],
      "name": "supportsInterface",
      "outputs": [
        {
          "internalType": "bool",
          "name": "",
          "type": "bool"
        }
      ],
      "stateMutability": "view",
      "type": "function"
    },
    {
      "inputs": [],
      "name": "symbol",
      "outputs": [
        {
          "internalType": "string",
          "name": "",
          "type": "string"
        }
      ],
      "stateMutability": "view",
      "type": "function"
    },
    {
      "inputs": [
        {
          "internalType": "uint256",
          "name": "tokenId",
          "type": "uint256"
        }
      ],
      "name": "tokenURI",
      "outputs": [
        {
          "internalType": "string",
          "name": "",
          "type": "string"
        }
      ],
      "stateMutability": "view",
      "type": "function"
    },
    {
      "inputs": [],
      "name": "totalArea",
      "outputs": [
        {
          "internalType": "uint256",
          "name": "",
          "type": "uint256"
        }
      ],
      "stateMutability": "view",
      "type": "function"
    },
    {
      "inputs": [
        {
          "internalType": "address",
          "name": "from",
          "type": "address"
        },
        {
          "internalType": "address",
          "name": "to",
          "type": "address"
        },
        {
          "internalType": "uint256",
          "name": "tokenId",
          "type": "uint256"
        }
      ],
      "name": "transferFrom",
      "outputs": [],
      "stateMutability": "nonpayable",
      "type": "function"
    },
    {
      "inputs": [
        {
          "internalType": "address",
          "name": "newOwner",
          "type": "address"
        }
      ],
      "name": "transferOwnership",
      "outputs": [],
      "stateMutability": "nonpayable",
      "type": "function"
    },
    {
      "inputs": [],
      "name": "updateTime",
      "outputs": [
        {
          "internalType": "uint256",
          "name": "",
          "type": "uint256"
        }
      ],
      "stateMutability": "view",
      "type": "function"
    },
    {
      "inputs": [
        {
          "internalType": "uint256",
          "name": "fieldID",
          "type": "uint256"
        },
        {
          "internalType": "uint256",
          "name": "proposalID",
          "type": "uint256"
        }
      ],
      "name": "vote",
      "outputs": [],
      "stateMutability": "nonpayable",
      "type": "function"
    },
    {
      "inputs": [],
      "name": "voteInterval",
      "outputs": [
        {
          "internalType": "uint256",
          "name": "",
          "type": "uint256"
        }
      ],
      "stateMutability": "view",
      "type": "function"
    }
  ],
  "transactionHash": "0x3fc8d1c2240e9a055de84c952dd9c7b27cad66b89d3e494f7630d855b1b3c7a8",
  "args": [
    "0x943266dE22A560E3D94F6Bb47bA6A54Ab32568F5",
    "0x2FDB32D2234DDb90e9a3e6561946597457a4cd70"
  ],
  "solcInputHash": "be8e461e30ec69674001fa1e7e5710d7",
  "bytecode": "0x60806040523480156200001157600080fd5b5060405162004abb38038062004abb8339810160408190526200003491620002da565b6040518060400160405280601781526020017f466c6f7261264661756e6120426174746c656669656c640000000000000000008152506040518060400160405280600781526020016623132316a12a2360c91b8152508383620000a6620000a0620001c360201b60201c565b620001c7565b6000805460ff60a01b19168155601460018190556103e8600a55600680546001600160a01b038087166001600160a01b031992831617909255600780549286169290911691909117905560088290556009919091556040517f21e5668ec8085df78c0955e48cdf5939d94bd27059bd915d1258f6ec278c922d916200012e9190815260200190565b60405180910390a1505081516200014d90600b90602085019062000217565b5080516200016390600c90602084019062000217565b505060016017555062278d006015556206978060165560408051808201909152600b8082526a39b2b934b2b9973539b7b760a91b6020909201918252620001ad9160189162000217565b505064e8d4a5100060195550426014556200034e565b3390565b600080546001600160a01b038381166001600160a01b0319831681178455604051919092169283917f8be0079c531659141344cd1fd0a4f28419497f9722a3daafe3b4186f6b6457e09190a35050565b828054620002259062000311565b90600052602060002090601f01602090048101928262000249576000855562000294565b82601f106200026457805160ff191683800117855562000294565b8280016001018555821562000294579182015b828111156200029457825182559160200191906001019062000277565b50620002a2929150620002a6565b5090565b5b80821115620002a25760008155600101620002a7565b80516001600160a01b0381168114620002d557600080fd5b919050565b60008060408385031215620002ed578182fd5b620002f883620002bd565b91506200030860208401620002bd565b90509250929050565b600181811c908216806200032657607f821691505b602082108114156200034857634e487b7160e01b600052602260045260246000fd5b50919050565b61475d806200035e6000396000f3fe60806040526004361061028a5760003560e01c8063715018a61161015b578063b41a6113116100c7578063b41a6113146107ac578063b6806492146107c1578063b88d4fde146107e1578063b922394614610801578063c08cc02d14610816578063c60043ab1461082b578063c72eafa914610841578063c87b56dd14610871578063da9f2f6814610891578063dc555090146108b1578063e985e9c5146108c7578063ea88a3b8146108e7578063ec4155a4146108fd578063f2fde38b1461091357600080fd5b8063715018a61461061b57806376ad6873146106305780638da5cb5b1461065d57806392e8bbdc1461067257806395d89b411461069f5780639daedb15146106b45780639f6e1b72146106d4578063a22cb465146106ea578063a4a3578a1461070a578063a4cf84d11461072a578063aa98df391461074c578063b04329291461075f578063b384abef1461078c57600080fd5b806330df0447116101fa57806330df04471461047f578063331cd2cc1461049f57806336baa7f7146104cf57806338e1359a146104f0578063390d68551461051057806342842e0e146105305780634c0a6af01461055057806353fb45121461056557806355ba23741461058557806361b5b7fc146105a55780636352211e146105bb578063682904a5146105db57806370a08231146105fb57600080fd5b8063013cf08b1461028f57806301b7fc1d146102c757806301ffc9a71461030757806306fdde0314610327578063081812fc14610349578063095ea7b3146103815780630c830e18146103a357806315cea39b146103c357806317219522146103e5578063233cf4721461040957806323b872dd146104295780632a46ceb7146104495780632c708d141461045f575b600080fd5b34801561029b57600080fd5b506102af6102aa366004613f23565b610933565b6040516102be93929190614156565b60405180910390f35b3480156102d357600080fd5b506102f76102e2366004613f23565b60046020526000908152604090205460ff1681565b60405190151581526020016102be565b34801561031357600080fd5b506102f7610322366004613e7f565b6109fb565b34801561033357600080fd5b5061033c610a4d565b6040516102be91906142d0565b34801561035557600080fd5b50610369610364366004613f23565b610adf565b6040516001600160a01b0390911681526020016102be565b34801561038d57600080fd5b506103a161039c366004613e38565b610b6c565b005b3480156103af57600080fd5b506103a16103be366004613eb7565b610c7d565b3480156103cf57600080fd5b506103d8610cb8565b6040516102be919061418a565b3480156103f157600080fd5b506103fb60175481565b6040519081526020016102be565b34801561041557600080fd5b50600654610369906001600160a01b031681565b34801561043557600080fd5b506103a1610444366004613cac565b610d76565b34801561045557600080fd5b506103fb60165481565b34801561046b57600080fd5b506103fb61047a366004613f77565b610da7565b34801561048b57600080fd5b506103a161049a366004613f23565b610dd8565b3480156104ab57600080fd5b506102f76104ba366004613f23565b60036020526000908152604090205460ff1681565b3480156104db57600080fd5b506000546102f790600160a01b900460ff1681565b3480156104fc57600080fd5b506103a161050b366004613f23565b610e0c565b34801561051c57600080fd5b506103a161052b366004613f53565b6110ed565b34801561053c57600080fd5b506103a161054b366004613cac565b611152565b34801561055c57600080fd5b506103a161116d565b34801561057157600080fd5b50610369610580366004613f23565b611276565b34801561059157600080fd5b506103a16105a0366004613f77565b611554565b3480156105b157600080fd5b506103fb60095481565b3480156105c757600080fd5b506103696105d6366004613f23565b611927565b3480156105e757600080fd5b506103a16105f6366004613f23565b61199e565b34801561060757600080fd5b506103fb610616366004613c3c565b611b8a565b34801561062757600080fd5b506103a1611c11565b34801561063c57600080fd5b5061065061064b366004613f23565b611c4c565b6040516102be9190614559565b34801561066957600080fd5b50610369611ca7565b34801561067e57600080fd5b506103fb61068d366004613f23565b60136020526000908152604090205481565b3480156106ab57600080fd5b5061033c611cb6565b3480156106c057600080fd5b50600754610369906001600160a01b031681565b3480156106e057600080fd5b506103fb60085481565b3480156106f657600080fd5b506103a1610705366004613dc4565b611cc5565b34801561071657600080fd5b506103a1610725366004613f23565b611d86565b34801561073657600080fd5b5061073f611dba565b6040516102be91906141eb565b6103a161075a366004613eb7565b611ecb565b34801561076b57600080fd5b5061077f61077a366004613f23565b61205e565b6040516102be9190614276565b34801561079857600080fd5b506103a16107a7366004613f77565b6120c0565b3480156107b857600080fd5b5061033c6124ca565b3480156107cd57600080fd5b506103a16107dc366004613f23565b612558565b3480156107ed57600080fd5b506103a16107fc366004613cec565b61258c565b34801561080d57600080fd5b506103a16125c4565b34801561082257600080fd5b506012546103fb565b34801561083757600080fd5b506103fb60015481565b34801561084d57600080fd5b506102f761085c366004613f23565b60056020526000908152604090205460ff1681565b34801561087d57600080fd5b5061033c61088c366004613f23565b61299e565b34801561089d57600080fd5b506103a16108ac366004613f77565b612b15565b3480156108bd57600080fd5b506103fb60145481565b3480156108d357600080fd5b506102f76108e2366004613c74565b612ed3565b3480156108f357600080fd5b506103fb60195481565b34801561090957600080fd5b506103fb60155481565b34801561091f57600080fd5b506103a161092e366004613c3c565b612f01565b6012818154811061094357600080fd5b6000918252602090912060039091020180546001820180546001600160a01b0390921693509061097290614628565b80601f016020809104026020016040519081016040528092919081815260200182805461099e90614628565b80156109eb5780601f106109c0576101008083540402835291602001916109eb565b820191906000526020600020905b8154815290600101906020018083116109ce57829003601f168201915b5050505050908060020154905083565b60006001600160e01b031982166380ac58cd60e01b1480610a2c57506001600160e01b03198216635b5e139f60e01b145b80610a4757506301ffc9a760e01b6001600160e01b03198316145b92915050565b6060600b8054610a5c90614628565b80601f0160208091040260200160405190810160405280929190818152602001828054610a8890614628565b8015610ad55780601f10610aaa57610100808354040283529160200191610ad5565b820191906000526020600020905b815481529060010190602001808311610ab857829003601f168201915b5050505050905090565b6000610aea82612fa1565b610b505760405162461bcd60e51b815260206004820152602c60248201527f4552433732313a20617070726f76656420717565727920666f72206e6f6e657860448201526b34b9ba32b73a103a37b5b2b760a11b60648201526084015b60405180910390fd5b506000908152600f60205260409020546001600160a01b031690565b6000610b7782611927565b9050806001600160a01b0316836001600160a01b03161415610be55760405162461bcd60e51b815260206004820152602160248201527f4552433732313a20617070726f76616c20746f2063757272656e74206f776e656044820152603960f91b6064820152608401610b47565b336001600160a01b0382161480610c015750610c018133612ed3565b610c6e5760405162461bcd60e51b815260206004820152603860248201527f4552433732313a20617070726f76652063616c6c6572206973206e6f74206f776044820152771b995c881b9bdc88185c1c1c9bdd995908199bdc88185b1b60421b6064820152608401610b47565b610c788383612fbe565b505050565b33610c86611ca7565b6001600160a01b031614610cac5760405162461bcd60e51b8152600401610b4790614456565b610c7860188383613a59565b60606001546001600160401b03811115610ce257634e487b7160e01b600052604160045260246000fd5b604051908082528060200260200182016040528015610d1b57816020015b610d08613ad9565b815260200190600190039081610d005790505b50905060005b600154811015610d7257610d3481611c4c565b828281518110610d5457634e487b7160e01b600052603260045260246000fd5b60200260200101819052508080610d6a9061465d565b915050610d21565b5090565b610d80338261302c565b610d9c5760405162461bcd60e51b8152600401610b4790614508565b610c788383836130ee565b60026020528160005260406000208181548110610dc357600080fd5b90600052602060002001600091509150505481565b33610de1611ca7565b6001600160a01b031614610e075760405162461bcd60e51b8152600401610b4790614456565b601655565b600081815260026020908152604080832080548251818502810185019093528083529192909190830182828015610e6257602002820191906000526020600020905b815481526020019060010190808311610e4e575b505050505090506000815111610ec85760405162461bcd60e51b815260206004820152602560248201527f426174746c656669656c643a20726574726561742066726f6d20656d70747920604482015264199a595b1960da1b6064820152608401610b47565b600081600081518110610eeb57634e487b7160e01b600052603260045260246000fd5b6020908102919091018101516000858152600390925260409091205490915060ff1615610fcf576006546040516331a9108f60e11b81526004810183905233916001600160a01b031690636352211e9060240160206040518083038186803b158015610f5657600080fd5b505afa158015610f6a573d6000803e3d6000fd5b505050506040513d601f19601f82011682018060405250810190610f8e9190613c58565b6001600160a01b031614610fb45760405162461bcd60e51b8152600401610b47906143ee565b6000818152600460205260409020805460ff19169055611088565b6007546040516331a9108f60e11b81526004810183905233916001600160a01b031690636352211e9060240160206040518083038186803b15801561101357600080fd5b505afa158015611027573d6000803e3d6000fd5b505050506040513d601f19601f8201168201806040525081019061104b9190613c58565b6001600160a01b0316146110715760405162461bcd60e51b8152600401610b47906143ee565b6000818152600560205260409020805460ff191690555b600083815260026020526040812061109f91613b05565b6000838152600360209081526040808320546002909252808320905160ff909216151592918691600080516020614708833981519152916110e09190614289565b60405180910390a4505050565b336110f6611ca7565b6001600160a01b03161461111c5760405162461bcd60e51b8152600401610b4790614456565b6040516001600160a01b0382169083156108fc029084906000818181858888f19350505050158015610c78573d6000803e3d6000fd5b610c788383836040518060200160405280600081525061258c565b600054600160a01b900460ff16156111975760405162461bcd60e51b8152600401610b479061441f565b6012546001106111f35760405162461bcd60e51b815260206004820152602160248201527f426174746c656669656c643a206e6f7420656e6f7567682070726f706f73616c6044820152607360f81b6064820152608401610b47565b6015546014544291611204916145a2565b81101561125e5760405162461bcd60e51b815260206004820152602260248201527f426174746c656669656c643a206e6f742079657420746f20737461727420766f604482015261746560f01b6064820152608401610b47565b6014556000805460ff60a01b1916600160a01b179055565b6000818152600260209081526040808320805482518185028101850190935280835284938301828280156112c957602002820191906000526020600020905b8154815260200190600101908083116112b5575b505050505090508051600014156112e35750600092915050565b60008381526003602052604090205460ff16156114675760065481516001600160a01b039091169063d024851690839060009061133057634e487b7160e01b600052603260045260246000fd5b60200260200101516040518263ffffffff1660e01b815260040161135691815260200190565b60206040518083038186803b15801561136e57600080fd5b505afa158015611382573d6000803e3d6000fd5b505050506040513d601f19601f820116820180604052508101906113a69190613e63565b1561145e5760065481516001600160a01b0390911690636352211e9083906000906113e157634e487b7160e01b600052603260045260246000fd5b60200260200101516040518263ffffffff1660e01b815260040161140791815260200190565b60206040518083038186803b15801561141f57600080fd5b505afa158015611433573d6000803e3d6000fd5b505050506040513d601f19601f820116820180604052508101906114579190613c58565b9392505050565b50600092915050565b60075481516001600160a01b039091169063d024851690839060009061149d57634e487b7160e01b600052603260045260246000fd5b60200260200101516040518263ffffffff1660e01b81526004016114c391815260200190565b60206040518083038186803b1580156114db57600080fd5b505afa1580156114ef573d6000803e3d6000fd5b505050506040513d601f19601f820116820180604052508101906115139190613e63565b1561145e5760075481516001600160a01b0390911690636352211e9083906000906113e157634e487b7160e01b600052603260045260246000fd5b50919050565b6000548290600160a01b900460ff16156115805760405162461bcd60e51b8152600401610b479061448b565b60015481106115a15760405162461bcd60e51b8152600401610b47906143b7565b60008281526004602052604090205460ff16156116175760405162461bcd60e51b815260206004820152602e60248201527f426174746c656669656c643a2074686520666c6f7261206d696e696f6e20616c60448201526d1c9958591e481bdb88199a595b1960921b6064820152608401610b47565b6006546040516331a9108f60e11b81526004810184905233916001600160a01b031690636352211e9060240160206040518083038186803b15801561165b57600080fd5b505afa15801561166f573d6000803e3d6000fd5b505050506040513d601f19601f820116820180604052508101906116939190613c58565b6001600160a01b0316146117045760405162461bcd60e51b815260206004820152603260248201527f426174746c656669656c643a206e6f742074686520636f6d6d616e646572206f60448201527133103a343290333637b9309036b4b734b7b760711b6064820152608401610b47565b60008381526002602090815260408083208054825181850281018501909352808352919290919083018282801561175a57602002820191906000526020600020905b815481526020019060010190808311611746575b505050505090506000815111156118855760008160008151811061178e57634e487b7160e01b600052603260045260246000fd5b6020908102919091018101516000878152600390925260409091205490915060ff16156117e8576006546117cd906001600160a01b031685818461328e565b6000818152600460205260409020805460ff19169055611846565b600654600754611807916001600160a01b03908116918791168461328e565b6000818152600560205260408120805460ff19169055600980549161182b83614611565b9091555050600880549060006118408361465d565b91905055505b6000858152600260205260408120805486929061187357634e487b7160e01b600052603260045260246000fd5b600091825260209091200155506118bb565b6000848152600260209081526040822080546001810182559083529082200184905560088054916118b58361465d565b91905055505b60008381526004602090815260408083208054600160ff199182168117909255888552600384528285208054909116821790556002909252918290209151909133918791600080516020614708833981519152916119199190614289565b60405180910390a450505050565b6000818152600d60205260408120546001600160a01b031680610a475760405162461bcd60e51b815260206004820152602960248201527f4552433732313a206f776e657220717565727920666f72206e6f6e657869737460448201526832b73a103a37b5b2b760b91b6064820152608401610b47565b336119a7611ca7565b6001600160a01b0316146119cd5760405162461bcd60e51b8152600401610b4790614456565b80600160008282546119df91906145a2565b9091555050600754604080516318160ddd60e01b815290516001600160a01b03909216916318160ddd91600480820192602092909190829003018186803b158015611a2957600080fd5b505afa158015611a3d573d6000803e3d6000fd5b505050506040513d601f19601f82011682018060405250810190611a619190613f3b565b600660009054906101000a90046001600160a01b03166001600160a01b03166318160ddd6040518163ffffffff1660e01b815260040160206040518083038186803b158015611aaf57600080fd5b505afa158015611ac3573d6000803e3d6000fd5b505050506040513d601f19601f82011682018060405250810190611ae79190613f3b565b611af191906145a2565b60015410611b4c5760405162461bcd60e51b815260206004820152602260248201527f426174746c656669656c643a206e6f206e65656420666f7220657870616e736960448201526137b760f11b6064820152608401610b47565b7f21e5668ec8085df78c0955e48cdf5939d94bd27059bd915d1258f6ec278c922d600154604051611b7f91815260200190565b60405180910390a150565b60006001600160a01b038216611bf55760405162461bcd60e51b815260206004820152602a60248201527f4552433732313a2062616c616e636520717565727920666f7220746865207a65604482015269726f206164647265737360b01b6064820152608401610b47565b506001600160a01b03166000908152600e602052604090205490565b33611c1a611ca7565b6001600160a01b031614611c405760405162461bcd60e51b8152600401610b4790614456565b611c4a60006134ca565b565b611c54613ad9565b611c5d82611276565b6001600160a01b031680825215611c9f57611c778261205e565b602080830191909152600083815260039091526040908190205460ff16151590820152919050565b610a47613ad9565b6000546001600160a01b031690565b6060600c8054610a5c90614628565b6001600160a01b038216331415611d1a5760405162461bcd60e51b815260206004820152601960248201527822a9219b99189d1030b8383937bb32903a379031b0b63632b960391b6044820152606401610b47565b3360008181526010602090815260408083206001600160a01b03871680855290835292819020805460ff191686151590811790915590519081529192917f17307eab39ab6107e8899845ad3d59bd9653f200f220920489ca2b5937696c31910160405180910390a35050565b33611d8f611ca7565b6001600160a01b031614611db55760405162461bcd60e51b8152600401610b4790614456565b601955565b60606012805480602002602001604051908101604052809291908181526020016000905b82821015611ec257600084815260209081902060408051606081019091526003850290910180546001600160a01b031682526001810180549293919291840191611e2790614628565b80601f0160208091040260200160405190810160405280929190818152602001828054611e5390614628565b8015611ea05780601f10611e7557610100808354040283529160200191611ea0565b820191906000526020600020905b815481529060010190602001808311611e8357829003601f168201915b5050505050815260200160028201548152505081526020019060010190611dde565b50505050905090565b600054600160a01b900460ff1615611ef55760405162461bcd60e51b8152600401610b479061441f565b601954341015611f535760405162461bcd60e51b8152602060048201526024808201527f426174746c656669656c643a206e6f7420656e6f75676820736c6f7474696e676044820152632066656560e01b6064820152608401610b47565b60126040518060600160405280336001600160a01b0316815260200184848080601f0160208091040260200160405190810160405280939291908181526020018383808284376000920182905250938552505050602091820181905283546001808201865594825290829020835160039092020180546001600160a01b0319166001600160a01b039092169190911781558282015180519394919361200093928501929190910190613b23565b506040919091015160029091015560125433907f75656bcb503b4e9a5d049db76f375436e37366365e3c547fd8003802dd9804fb90612041906001906145ce565b84846040516120529392919061456c565b60405180910390a25050565b6000818152600260209081526040918290208054835181840281018401909452808452606093928301828280156120b457602002820191906000526020600020905b8154815260200190600101908083116120a0575b50505050509050919050565b600054600160a01b900460ff166120e95760405162461bcd60e51b8152600401610b4790614323565b601754600083815260136020526040902054106121605760405162461bcd60e51b815260206004820152602f60248201527f426174746c656669656c643a206669656c642068617320766f74656420696e2060448201526e3a3434b99033b2b732b930ba34b7b760891b6064820152608401610b47565b6000828152600260209081526040808320805482518185028101850190935280835291929091908301828280156121b657602002820191906000526020600020905b8154815260200190600101908083116121a2575b50505050509050600081511161221a5760405162461bcd60e51b815260206004820152602360248201527f426174746c656669656c643a20656d707479206669656c642063616e277420766044820152626f746560e81b6064820152608401610b47565b60008381526003602052604090205460ff161561232c57600654815133916001600160a01b031690636352211e90849060009061226757634e487b7160e01b600052603260045260246000fd5b60200260200101516040518263ffffffff1660e01b815260040161228d91815260200190565b60206040518083038186803b1580156122a557600080fd5b505afa1580156122b9573d6000803e3d6000fd5b505050506040513d601f19601f820116820180604052508101906122dd9190613c58565b6001600160a01b0316146123035760405162461bcd60e51b8152600401610b47906143ee565b60095460085410156123275760405162461bcd60e51b8152600401610b47906144d1565b612422565b600754815133916001600160a01b031690636352211e90849060009061236257634e487b7160e01b600052603260045260246000fd5b60200260200101516040518263ffffffff1660e01b815260040161238891815260200190565b60206040518083038186803b1580156123a057600080fd5b505afa1580156123b4573d6000803e3d6000fd5b505050506040513d601f19601f820116820180604052508101906123d89190613c58565b6001600160a01b0316146123fe5760405162461bcd60e51b8152600401610b47906143ee565b60085460095410156124225760405162461bcd60e51b8152600401610b47906144d1565b60006012838154811061244557634e487b7160e01b600052603260045260246000fd5b9060005260206000209060030201905080600201600081548092919061246a9061465d565b9190505550601754601360008681526020019081526020016000208190555082336001600160a01b0316857f691caaa3fac07e755c9e46e4877cbd04f37fd1b9be1bfc9851f6a520aad29c13846002015460405161191991815260200190565b601880546124d790614628565b80601f016020809104026020016040519081016040528092919081815260200182805461250390614628565b80156125505780601f1061252557610100808354040283529160200191612550565b820191906000526020600020905b81548152906001019060200180831161253357829003601f168201915b505050505081565b33612561611ca7565b6001600160a01b0316146125875760405162461bcd60e51b8152600401610b4790614456565b601555565b612596338361302c565b6125b25760405162461bcd60e51b8152600401610b4790614508565b6125be8484848461351a565b50505050565b600054600160a01b900460ff166125ed5760405162461bcd60e51b8152600401610b4790614323565b60165460145442916125fe916145a2565b81101561264d5760405162461bcd60e51b815260206004820181905260248201527f426174746c656669656c643a206e6f742079657420746f20656e6420766f74656044820152606401610b47565b6014819055600080805b6012548110156126e657826012828154811061268357634e487b7160e01b600052603260045260246000fd5b90600052602060002090600302016002015411156126d457601281815481106126bc57634e487b7160e01b600052603260045260246000fd5b90600052602060002090600302016002015492508091505b806126de8161465d565b915050612657565b5060006012828154811061270a57634e487b7160e01b600052603260045260246000fd5b6000918252602091829020604080516060810190915260039092020180546001600160a01b03168252600181018054929391929184019161274a90614628565b80601f016020809104026020016040519081016040528092919081815260200182805461277690614628565b80156127c35780601f10612798576101008083540402835291602001916127c3565b820191906000526020600020905b8154815290600101906020018083116127a657829003601f168201915b5050505050815260200160028201548152505090506000806009546008541061285057600654602084015160405163931688cb60e01b81526001600160a01b039092169163931688cb91612819916004016142d0565b600060405180830381600087803b15801561283357600080fd5b505af1158015612847573d6000803e3d6000fd5b50505050600191505b600854600954106128c557600754602084015160405163931688cb60e01b81526001600160a01b039092169163931688cb9161288e916004016142d0565b600060405180830381600087803b1580156128a857600080fd5b505af11580156128bc573d6000803e3d6000fd5b50505050600190505b6128d5836000015160175461354d565b612907601754846020015160186040516020016128f392919061406a565b60405160208183030381529060405261356b565b61291360126000613b97565b6000805460ff60a01b1916905582516017546001600160a01b03909116907fbcce7ae1b0eda5f386742164a672abb073651089d04d044faa6352139ceb565c61295b8261299e565b6012546040808901516001549151612979949392908a908a906142e3565b60405180910390a3601780549060006129918361465d565b9190505550505050505050565b60606129a982612fa1565b612a0f5760405162461bcd60e51b815260206004820152603160248201527f45524337323155524953746f726167653a2055524920717565727920666f72206044820152703737b732bc34b9ba32b73a103a37b5b2b760791b6064820152608401610b47565b60008281526011602052604081208054612a2890614628565b80601f0160208091040260200160405190810160405280929190818152602001828054612a5490614628565b8015612aa15780601f10612a7657610100808354040283529160200191612aa1565b820191906000526020600020905b815481529060010190602001808311612a8457829003601f168201915b505050505090506000612abf60408051602081019091526000815290565b9050805160001415612ad2575092915050565b815115612b04578082604051602001612aec92919061403b565b60405160208183030381529060405292505050919050565b612b0d846135f6565b949350505050565b6000548290600160a01b900460ff1615612b415760405162461bcd60e51b8152600401610b479061448b565b6001548110612b625760405162461bcd60e51b8152600401610b47906143b7565b60008281526005602052604090205460ff1615612bd85760405162461bcd60e51b815260206004820152602e60248201527f426174746c656669656c643a20746865206661756e61206d696e696f6e20616c60448201526d1c9958591e481bdb88199a595b1960921b6064820152608401610b47565b6007546040516331a9108f60e11b81526004810184905233916001600160a01b031690636352211e9060240160206040518083038186803b158015612c1c57600080fd5b505afa158015612c30573d6000803e3d6000fd5b505050506040513d601f19601f82011682018060405250810190612c549190613c58565b6001600160a01b031614612cc55760405162461bcd60e51b815260206004820152603260248201527f426174746c656669656c643a206e6f742074686520636f6d6d616e646572206f60448201527133103a3432903330bab7309036b4b734b7b760711b6064820152608401610b47565b600083815260026020908152604080832080548251818502810185019093528083529192909190830182828015612d1b57602002820191906000526020600020905b815481526020019060010190808311612d07575b50505050509050600081511115612e4657600081600081518110612d4f57634e487b7160e01b600052603260045260246000fd5b6020908102919091018101516000878152600390925260409091205490915060ff1615612dd857600754600654612d95916001600160a01b03908116918791168461328e565b6000818152600460205260408120805460ff191690556008805491612db983614611565b909155505060098054906000612dce8361465d565b9190505550612e07565b600754612df0906001600160a01b031685818461328e565b6000818152600560205260409020805460ff191690555b60008581526002602052604081208054869290612e3457634e487b7160e01b600052603260045260246000fd5b60009182526020909120015550612e7c565b600084815260026020908152604082208054600181018255908352908220018490556009805491612e768361465d565b91905055505b6000838152600560209081526040808320805460ff19908116600117909155878452600383528184208054909116905560029091528082209051339187916000805160206147088339815191529161191991614289565b6001600160a01b03918216600090815260106020908152604080832093909416825291909152205460ff1690565b33612f0a611ca7565b6001600160a01b031614612f305760405162461bcd60e51b8152600401610b4790614456565b6001600160a01b038116612f955760405162461bcd60e51b815260206004820152602660248201527f4f776e61626c653a206e6577206f776e657220697320746865207a65726f206160448201526564647265737360d01b6064820152608401610b47565b612f9e816134ca565b50565b6000908152600d60205260409020546001600160a01b0316151590565b6000818152600f6020526040902080546001600160a01b0319166001600160a01b0384169081179091558190612ff382611927565b6001600160a01b03167f8c5be1e5ebec7d5bd14f71427d1e84f3dd0314c0f7b2291e5b200ac8c7c3b92560405160405180910390a45050565b600061303782612fa1565b6130985760405162461bcd60e51b815260206004820152602c60248201527f4552433732313a206f70657261746f7220717565727920666f72206e6f6e657860448201526b34b9ba32b73a103a37b5b2b760a11b6064820152608401610b47565b60006130a383611927565b9050806001600160a01b0316846001600160a01b031614806130de5750836001600160a01b03166130d384610adf565b6001600160a01b0316145b80612b0d5750612b0d8185612ed3565b826001600160a01b031661310182611927565b6001600160a01b0316146131695760405162461bcd60e51b815260206004820152602960248201527f4552433732313a207472616e73666572206f6620746f6b656e2074686174206960448201526839903737ba1037bbb760b91b6064820152608401610b47565b6001600160a01b0382166131cb5760405162461bcd60e51b8152602060048201526024808201527f4552433732313a207472616e7366657220746f20746865207a65726f206164646044820152637265737360e01b6064820152608401610b47565b6131d6600082612fbe565b6001600160a01b0383166000908152600e602052604081208054600192906131ff9084906145ce565b90915550506001600160a01b0382166000908152600e6020526040812080546001929061322d9084906145a2565b90915550506000818152600d602052604080822080546001600160a01b0319166001600160a01b0386811691821790925591518493918716917fddf252ad1be2c89b69c2b068fc378daa952ba7f163c4a11628f55a4df523b3ef91a4505050565b604051636812428b60e11b8152600481018290526001600160a01b0383169063d02485169060240160206040518083038186803b1580156132ce57600080fd5b505afa1580156132e2573d6000803e3d6000fd5b505050506040513d601f19601f820116820180604052508101906133069190613e63565b156125be5760405163df069b1160e01b81526004810184905260009081906001600160a01b0387169063df069b119060240160806040518083038186803b15801561335057600080fd5b505afa158015613364573d6000803e3d6000fd5b505050506040513d601f19601f820116820180604052508101906133889190613df1565b935050925050600080856001600160a01b031663df069b11866040518263ffffffff1660e01b81526004016133bf91815260200190565b60806040518083038186803b1580156133d757600080fd5b505afa1580156133eb573d6000803e3d6000fd5b505050506040513d601f19601f8201168201806040525081019061340f9190613df1565b935050925050836134705760405162461bcd60e51b815260206004820152602560248201527f426174746c656669656c643a2061747461636b65722073686f756c6420626520604482015264185c9b595960da1b6064820152608401610b47565b81158061347c57508083135b6134c05760405162461bcd60e51b815260206004820152601560248201527410985d1d1b19599a595b190e8819195999585d1959605a1b6044820152606401610b47565b5050505050505050565b600080546001600160a01b038381166001600160a01b0319831681178455604051919092169283917f8be0079c531659141344cd1fd0a4f28419497f9722a3daafe3b4186f6b6457e09190a35050565b6135258484846130ee565b613531848484846136cd565b6125be5760405162461bcd60e51b8152600401610b4790614365565b6135678282604051806020016040528060008152506137da565b5050565b61357482612fa1565b6135d75760405162461bcd60e51b815260206004820152602e60248201527f45524337323155524953746f726167653a2055524920736574206f66206e6f6e60448201526d32bc34b9ba32b73a103a37b5b2b760911b6064820152608401610b47565b60008281526011602090815260409091208251610c7892840190613b23565b606061360182612fa1565b6136655760405162461bcd60e51b815260206004820152602f60248201527f4552433732314d657461646174613a2055524920717565727920666f72206e6f60448201526e3732bc34b9ba32b73a103a37b5b2b760891b6064820152608401610b47565b600061367c60408051602081019091526000815290565b9050600081511161369c5760405180602001604052806000815250611457565b806136a68461380d565b6040516020016136b792919061403b565b6040516020818303038152906040529392505050565b60006001600160a01b0384163b156137cf57604051630a85bd0160e11b81526001600160a01b0385169063150b7a0290613711903390899088908890600401614119565b602060405180830381600087803b15801561372b57600080fd5b505af192505050801561375b575060408051601f3d908101601f1916820190925261375891810190613e9b565b60015b6137b5573d808015613789576040519150601f19603f3d011682016040523d82523d6000602084013e61378e565b606091505b5080516137ad5760405162461bcd60e51b8152600401610b4790614365565b805181602001fd5b6001600160e01b031916630a85bd0160e11b149050612b0d565b506001949350505050565b6137e48383613926565b6137f160008484846136cd565b610c785760405162461bcd60e51b8152600401610b4790614365565b6060816138315750506040805180820190915260018152600360fc1b602082015290565b8160005b811561385b57806138458161465d565b91506138549050600a836145ba565b9150613835565b6000816001600160401b0381111561388357634e487b7160e01b600052604160045260246000fd5b6040519080825280601f01601f1916602001820160405280156138ad576020820181803683370190505b5090505b8415612b0d576138c26001836145ce565b91506138cf600a86614678565b6138da9060306145a2565b60f81b8183815181106138fd57634e487b7160e01b600052603260045260246000fd5b60200101906001600160f81b031916908160001a90535061391f600a866145ba565b94506138b1565b6001600160a01b03821661397c5760405162461bcd60e51b815260206004820181905260248201527f4552433732313a206d696e7420746f20746865207a65726f20616464726573736044820152606401610b47565b61398581612fa1565b156139d25760405162461bcd60e51b815260206004820152601c60248201527f4552433732313a20746f6b656e20616c7265616479206d696e746564000000006044820152606401610b47565b6001600160a01b0382166000908152600e602052604081208054600192906139fb9084906145a2565b90915550506000818152600d602052604080822080546001600160a01b0319166001600160a01b03861690811790915590518392907fddf252ad1be2c89b69c2b068fc378daa952ba7f163c4a11628f55a4df523b3ef908290a45050565b828054613a6590614628565b90600052602060002090601f016020900481019282613a875760008555613acd565b82601f10613aa05782800160ff19823516178555613acd565b82800160010185558215613acd579182015b82811115613acd578235825591602001919060010190613ab2565b50610d72929150613bb8565b604051806060016040528060006001600160a01b03168152602001606081526020016000151581525090565b5080546000825590600052602060002090810190612f9e9190613bb8565b828054613b2f90614628565b90600052602060002090601f016020900481019282613b515760008555613acd565b82601f10613b6a57805160ff1916838001178555613acd565b82800160010185558215613acd579182015b82811115613acd578251825591602001919060010190613b7c565b5080546000825560030290600052602060002090810190612f9e9190613bcd565b5b80821115610d725760008155600101613bb9565b80821115610d725780546001600160a01b03191681556000613bf26001830182613c02565b5060006002820155600301613bcd565b508054613c0e90614628565b6000825580601f10613c1e575050565b601f016020900490600052602060002090810190612f9e9190613bb8565b600060208284031215613c4d578081fd5b8135611457816146ce565b600060208284031215613c69578081fd5b8151611457816146ce565b60008060408385031215613c86578081fd5b8235613c91816146ce565b91506020830135613ca1816146ce565b809150509250929050565b600080600060608486031215613cc0578081fd5b8335613ccb816146ce565b92506020840135613cdb816146ce565b929592945050506040919091013590565b60008060008060808587031215613d01578081fd5b8435613d0c816146ce565b93506020850135613d1c816146ce565b92506040850135915060608501356001600160401b0380821115613d3e578283fd5b818701915087601f830112613d51578283fd5b813581811115613d6357613d636146b8565b604051601f8201601f19908116603f01168101908382118183101715613d8b57613d8b6146b8565b816040528281528a6020848701011115613da3578586fd5b82602086016020830137918201602001949094529598949750929550505050565b60008060408385031215613dd6578182fd5b8235613de1816146ce565b91506020830135613ca1816146e3565b60008060008060808587031215613e06578384fd5b8451613e11816146ce565b6020860151909450613e22816146e3565b6040860151606090960151949790965092505050565b60008060408385031215613e4a578182fd5b8235613e55816146ce565b946020939093013593505050565b600060208284031215613e74578081fd5b8151611457816146e3565b600060208284031215613e90578081fd5b8135611457816146f1565b600060208284031215613eac578081fd5b8151611457816146f1565b60008060208385031215613ec9578182fd5b82356001600160401b0380821115613edf578384fd5b818501915085601f830112613ef2578384fd5b813581811115613f00578485fd5b866020828501011115613f11578485fd5b60209290920196919550909350505050565b600060208284031215613f34578081fd5b5035919050565b600060208284031215613f4c578081fd5b5051919050565b60008060408385031215613f65578182fd5b823591506020830135613ca1816146ce565b60008060408385031215613f89578182fd5b50508035926020909101359150565b6000815180845260208085019450808401835b83811015613fc757815187529582019590820190600101613fab565b509495945050505050565b60008151808452613fea8160208601602086016145e5565b601f01601f19169290920160200192915050565b60018060a01b03815116825260006020820151606060208501526140256060850182613f98565b6040938401511515949093019390935250919050565b6000835161404d8184602088016145e5565b8351908301906140618183602088016145e5565b01949350505050565b60008351602061407d82858389016145e5565b8454918401918390600181811c908083168061409a57607f831692505b8583108114156140b857634e487b7160e01b88526022600452602488fd5b8080156140cc57600181146140dd57614109565b60ff19851688528388019550614109565b60008b815260209020895b858110156141015781548a8201529084019088016140e8565b505083880195505b50939a9950505050505050505050565b6001600160a01b038581168252841660208201526040810183905260806060820181905260009061414c90830184613fd2565b9695505050505050565b6001600160a01b038416815260606020820181905260009061417a90830185613fd2565b9050826040830152949350505050565b6000602080830181845280855180835260408601915060408160051b8701019250838701855b828110156141de57603f198886030184526141cc858351613ffe565b945092850192908501906001016141b0565b5092979650505050505050565b60006020808301818452808551808352604092508286019150828160051b870101848801865b8381101561426857888303603f19018552815180516001600160a01b031684528781015160608986018190529061424a82870182613fd2565b92890151958901959095525094870194925090860190600101614211565b509098975050505050505050565b6020815260006114576020830184613f98565b6020808252825482820181905260008481528281209092916040850190845b818110156142c4578354835260019384019392850192016142a8565b50909695505050505050565b6020815260006114576020830184613fd2565b60c0815260006142f660c0830189613fd2565b6020830197909752506040810194909452606084019290925215156080830152151560a090910152919050565b60208082526022908201527f426174746c656669656c643a206e6f7420696e2070726f706f73616c20737461604082015261746560f01b606082015260800190565b60208082526032908201527f4552433732313a207472616e7366657220746f206e6f6e20455243373231526560408201527131b2b4bb32b91034b6b83632b6b2b73a32b960711b606082015260800190565b6020808252601f908201527f426174746c656669656c643a206669656c64206f7574206f662072616e676500604082015260600190565b6020808252601790820152762130ba3a3632b334b2b6321d103737ba103632b0b232b960491b604082015260600190565b6020808252601e908201527f426174746c656669656c643a206e6f7420696e20766f74652073746174650000604082015260600190565b6020808252818101527f4f776e61626c653a2063616c6c6572206973206e6f7420746865206f776e6572604082015260600190565b60208082526026908201527f426174746c656669656c643a20626174746c656669656c64206973206c6f636b6040820152656564206e6f7760d01b606082015260800190565b6020808252601e908201527f426174746c656669656c643a20796f75277265206c6f73657220736964650000604082015260600190565b60208082526031908201527f4552433732313a207472616e736665722063616c6c6572206973206e6f74206f6040820152701ddb995c881b9bdc88185c1c1c9bdd9959607a1b606082015260800190565b6020815260006114576020830184613ffe565b83815260406020820152816040820152818360608301376000818301606090810191909152601f909201601f1916010192915050565b600082198211156145b5576145b561468c565b500190565b6000826145c9576145c96146a2565b500490565b6000828210156145e0576145e061468c565b500390565b60005b838110156146005781810151838201526020016145e8565b838111156125be5750506000910152565b6000816146205761462061468c565b506000190190565b600181811c9082168061463c57607f821691505b6020821081141561154e57634e487b7160e01b600052602260045260246000fd5b60006000198214156146715761467161468c565b5060010190565b600082614687576146876146a2565b500690565b634e487b7160e01b600052601160045260246000fd5b634e487b7160e01b600052601260045260246000fd5b634e487b7160e01b600052604160045260246000fd5b6001600160a01b0381168114612f9e57600080fd5b8015158114612f9e57600080fd5b6001600160e01b031981168114612f9e57600080fdfe9a3c276128da5bf5f6a0c9b8df4df4c267f0ca732b1708cb8425bf3c308fef19a2646970667358221220b41b82b971d0ac466e7d668f6d14e423e4f546369f903b137a8aff96bd8d626e64736f6c63430008040033",
  "devdoc": {
    "author": "Justa Liang",
    "kind": "dev",
    "methods": {
      "approve(address,uint256)": {
        "details": "See {IERC721-approve}."
      },
      "balanceOf(address)": {
        "details": "See {IERC721-balanceOf}."
      },
      "claimFunds(uint256,address)": {
        "details": "Claim the funds from slotting fee",
        "params": {
          "amount": "Amount of Ether",
          "receiver": "Address of receiver"
        }
      },
      "constructor": {
        "details": "Set addresses of interactive contracts",
        "params": {
          "faunaArmyAddr": "Address of FaunaArmy contract",
          "floraArmyAddr": "Address of FloraArmy contract"
        }
      },
      "faunaConquer(uint256,uint256)": {
        "params": {
          "attackerID": "ID of the fauna attacker minion",
          "fieldID": "ID of the field"
        }
      },
      "floraConquer(uint256,uint256)": {
        "params": {
          "attackerID": "ID of the flora attacker minion",
          "fieldID": "ID of the field"
        }
      },
      "getAllFieldInfo()": {
        "returns": {
          "allFieldInfo": "Info of every field"
        }
      },
      "getAllProposalInfo()": {
        "returns": {
          "_0": "Details of all proposals"
        }
      },
      "getApproved(uint256)": {
        "details": "See {IERC721-getApproved}."
      },
      "getFieldDefender(uint256)": {
        "params": {
          "fieldID": "ID of the field"
        },
        "returns": {
          "_0": "Array of minion IDs"
        }
      },
      "getFieldInfo(uint256)": {
        "params": {
          "fieldID": "ID of the field"
        },
        "returns": {
          "fieldInfo": "Leader, defender and side"
        }
      },
      "getFieldLeader(uint256)": {
        "params": {
          "fieldID": "ID of the field"
        },
        "returns": {
          "_0": "Owner of the first minion"
        }
      },
      "getProposalCount()": {
        "returns": {
          "_0": "Number of current proposals"
        }
      },
      "isApprovedForAll(address,address)": {
        "details": "See {IERC721-isApprovedForAll}."
      },
      "name()": {
        "details": "See {IERC721Metadata-name}."
      },
      "owner()": {
        "details": "Returns the address of the current owner."
      },
      "ownerOf(uint256)": {
        "details": "See {IERC721-ownerOf}."
      },
      "propose(string)": {
        "params": {
          "prefixURI": "Prefix of the URI"
        }
      },
      "renounceOwnership()": {
        "details": "Leaves the contract without owner. It will not be possible to call `onlyOwner` functions anymore. Can only be called by the current owner. NOTE: Renouncing ownership will leave the contract without an owner, thereby removing any functionality that is only available to the owner."
      },
      "retreat(uint256)": {
        "params": {
          "fieldID": "ID of the field"
        }
      },
      "safeTransferFrom(address,address,uint256)": {
        "details": "See {IERC721-safeTransferFrom}."
      },
      "safeTransferFrom(address,address,uint256,bytes)": {
        "details": "See {IERC721-safeTransferFrom}."
      },
      "setApprovalForAll(address,bool)": {
        "details": "See {IERC721-setApprovalForAll}."
      },
      "supportsInterface(bytes4)": {
        "details": "See {IERC165-supportsInterface}."
      },
      "symbol()": {
        "details": "See {IERC721Metadata-symbol}."
      },
      "tokenURI(uint256)": {
        "details": "See {IERC721Metadata-tokenURI}."
      },
      "transferFrom(address,address,uint256)": {
        "details": "See {IERC721-transferFrom}."
      },
      "transferOwnership(address)": {
        "details": "Transfers ownership of the contract to a new account (`newOwner`). Can only be called by the current owner."
      },
      "vote(uint256,uint256)": {
        "params": {
          "fieldID": "ID of the field",
          "proposalID": "ID of the proposal"
        }
      }
    },
    "title": "Battlefield of fighting for next generation",
    "version": 1
  },
  "userdoc": {
    "events": {
      "FieldState(uint256,address,bool,uint256[])": {
        "notice": "Emit when field's state changes"
      },
      "Propose(address,uint256,string)": {
        "notice": "Emit when someone propose"
      },
      "TotalArea(uint256)": {
        "notice": "Emit when total area of battlefield changes"
      },
      "Vote(uint256,address,uint256,uint256)": {
        "notice": "Emit when someone vote behalf of field"
      },
      "Winner(uint256,address,string,uint256,uint256,uint256,bool,bool)": {
        "notice": "Emit the winning proposal's info"
      }
    },
    "kind": "user",
    "methods": {
      "endVote()": {
        "notice": "End the vote state, change medal styles and mint an assembly metadata to winner"
      },
      "expand(uint256)": {
        "notice": "Expand the battlefield and increase it's total area"
      },
      "faunaArmy()": {
        "notice": "Corresponding FaunaArmy contract"
      },
      "faunaConquer(uint256,uint256)": {
        "notice": "Send fauna army to conquer certain field"
      },
      "faunaFieldCount()": {
        "notice": "Number of fields occupied by fauna army"
      },
      "faunaOnField(uint256)": {
        "notice": "If certain fauna minion on field"
      },
      "fieldDefender(uint256,uint256)": {
        "notice": "Defenders on cetain field"
      },
      "fieldGeneration(uint256)": {
        "notice": "Latest generation in which field has voted"
      },
      "fieldLocked()": {
        "notice": "If Battlefield locked, lock for vote, unlock for proposal"
      },
      "floraArmy()": {
        "notice": "Corresponding FloraArmy contract"
      },
      "floraConquer(uint256,uint256)": {
        "notice": "Send flora army to conquer certain field"
      },
      "floraFieldCount()": {
        "notice": "Number of fields occupied by flora army"
      },
      "floraOnField(uint256)": {
        "notice": "If certain flora minion on field"
      },
      "generation()": {
        "notice": "One generation means going through proposal and vote"
      },
      "getAllFieldInfo()": {
        "notice": "Get the every field info "
      },
      "getAllProposalInfo()": {
        "notice": "Get details of all proposals"
      },
      "getFieldDefender(uint256)": {
        "notice": "Get minion IDs on certain field"
      },
      "getFieldInfo(uint256)": {
        "notice": "Get the field info"
      },
      "getFieldLeader(uint256)": {
        "notice": "Get the leader on certain field"
      },
      "getProposalCount()": {
        "notice": "Get number of current proposals"
      },
      "isFloraField(uint256)": {
        "notice": "If field be occupied by flora army "
      },
      "propInterval()": {
        "notice": "Time interval of proposal state"
      },
      "proposals(uint256)": {
        "notice": "All the proposals"
      },
      "propose(string)": {
        "notice": "Propose for new style of medals"
      },
      "retreat(uint256)": {
        "notice": "Retreat from certain field"
      },
      "seriesName()": {
        "notice": "Name of assembly metadata of the medal designs "
      },
      "slottingFee()": {
        "notice": "Slotting fee for making a proposal"
      },
      "startVote()": {
        "notice": "Start the vote state"
      },
      "totalArea()": {
        "notice": "Total area of battlefield"
      },
      "updateTime()": {
        "notice": "Latest time updated for proposal or vote"
      },
      "vote(uint256,uint256)": {
        "notice": "Vote behalf of certain field"
      },
      "voteInterval()": {
        "notice": "Time interval of vote state"
      }
    },
    "notice": "Define voting system on battlefield",
    "version": 1
  },
  "storageLayout": {
    "storage": [
      {
        "astId": 110,
        "contract": "contracts/Battlefield.sol:Battlefield",
        "label": "_owner",
        "offset": 0,
        "slot": "0",
        "type": "t_address"
      },
      {
        "astId": 3785,
        "contract": "contracts/Battlefield.sol:Battlefield",
        "label": "fieldLocked",
        "offset": 20,
        "slot": "0",
        "type": "t_bool"
      },
      {
        "astId": 3788,
        "contract": "contracts/Battlefield.sol:Battlefield",
        "label": "totalArea",
        "offset": 0,
        "slot": "1",
        "type": "t_uint256"
      },
      {
        "astId": 3794,
        "contract": "contracts/Battlefield.sol:Battlefield",
        "label": "fieldDefender",
        "offset": 0,
        "slot": "2",
        "type": "t_mapping(t_uint256,t_array(t_uint256)dyn_storage)"
      },
      {
        "astId": 3799,
        "contract": "contracts/Battlefield.sol:Battlefield",
        "label": "isFloraField",
        "offset": 0,
        "slot": "3",
        "type": "t_mapping(t_uint256,t_bool)"
      },
      {
        "astId": 3804,
        "contract": "contracts/Battlefield.sol:Battlefield",
        "label": "floraOnField",
        "offset": 0,
        "slot": "4",
        "type": "t_mapping(t_uint256,t_bool)"
      },
      {
        "astId": 3809,
        "contract": "contracts/Battlefield.sol:Battlefield",
        "label": "faunaOnField",
        "offset": 0,
        "slot": "5",
        "type": "t_mapping(t_uint256,t_bool)"
      },
      {
        "astId": 3813,
        "contract": "contracts/Battlefield.sol:Battlefield",
        "label": "floraArmy",
        "offset": 0,
        "slot": "6",
        "type": "t_contract(ARMY)3779"
      },
      {
        "astId": 3817,
        "contract": "contracts/Battlefield.sol:Battlefield",
        "label": "faunaArmy",
        "offset": 0,
        "slot": "7",
        "type": "t_contract(ARMY)3779"
      },
      {
        "astId": 3820,
        "contract": "contracts/Battlefield.sol:Battlefield",
        "label": "floraFieldCount",
        "offset": 0,
        "slot": "8",
        "type": "t_uint256"
      },
      {
        "astId": 3823,
        "contract": "contracts/Battlefield.sol:Battlefield",
        "label": "faunaFieldCount",
        "offset": 0,
        "slot": "9",
        "type": "t_uint256"
      },
      {
        "astId": 3826,
        "contract": "contracts/Battlefield.sol:Battlefield",
        "label": "_refPower",
        "offset": 0,
        "slot": "10",
        "type": "t_int256"
      },
      {
        "astId": 881,
        "contract": "contracts/Battlefield.sol:Battlefield",
        "label": "_name",
        "offset": 0,
        "slot": "11",
        "type": "t_string_storage"
      },
      {
        "astId": 883,
        "contract": "contracts/Battlefield.sol:Battlefield",
        "label": "_symbol",
        "offset": 0,
        "slot": "12",
        "type": "t_string_storage"
      },
      {
        "astId": 887,
        "contract": "contracts/Battlefield.sol:Battlefield",
        "label": "_owners",
        "offset": 0,
        "slot": "13",
        "type": "t_mapping(t_uint256,t_address)"
      },
      {
        "astId": 891,
        "contract": "contracts/Battlefield.sol:Battlefield",
        "label": "_balances",
        "offset": 0,
        "slot": "14",
        "type": "t_mapping(t_address,t_uint256)"
      },
      {
        "astId": 895,
        "contract": "contracts/Battlefield.sol:Battlefield",
        "label": "_tokenApprovals",
        "offset": 0,
        "slot": "15",
        "type": "t_mapping(t_uint256,t_address)"
      },
      {
        "astId": 901,
        "contract": "contracts/Battlefield.sol:Battlefield",
        "label": "_operatorApprovals",
        "offset": 0,
        "slot": "16",
        "type": "t_mapping(t_address,t_mapping(t_address,t_bool))"
      },
      {
        "astId": 2156,
        "contract": "contracts/Battlefield.sol:Battlefield",
        "label": "_tokenURIs",
        "offset": 0,
        "slot": "17",
        "type": "t_mapping(t_uint256,t_string_storage)"
      },
      {
        "astId": 4549,
        "contract": "contracts/Battlefield.sol:Battlefield",
        "label": "proposals",
        "offset": 0,
        "slot": "18",
        "type": "t_array(t_struct(Proposal)4544_storage)dyn_storage"
      },
      {
        "astId": 4554,
        "contract": "contracts/Battlefield.sol:Battlefield",
        "label": "fieldGeneration",
        "offset": 0,
        "slot": "19",
        "type": "t_mapping(t_uint256,t_uint256)"
      },
      {
        "astId": 4557,
        "contract": "contracts/Battlefield.sol:Battlefield",
        "label": "updateTime",
        "offset": 0,
        "slot": "20",
        "type": "t_uint256"
      },
      {
        "astId": 4560,
        "contract": "contracts/Battlefield.sol:Battlefield",
        "label": "propInterval",
        "offset": 0,
        "slot": "21",
        "type": "t_uint256"
      },
      {
        "astId": 4563,
        "contract": "contracts/Battlefield.sol:Battlefield",
        "label": "voteInterval",
        "offset": 0,
        "slot": "22",
        "type": "t_uint256"
      },
      {
        "astId": 4566,
        "contract": "contracts/Battlefield.sol:Battlefield",
        "label": "generation",
        "offset": 0,
        "slot": "23",
        "type": "t_uint256"
      },
      {
        "astId": 4569,
        "contract": "contracts/Battlefield.sol:Battlefield",
        "label": "seriesName",
        "offset": 0,
        "slot": "24",
        "type": "t_string_storage"
      },
      {
        "astId": 4572,
        "contract": "contracts/Battlefield.sol:Battlefield",
        "label": "slottingFee",
        "offset": 0,
        "slot": "25",
        "type": "t_uint256"
      }
    ],
    "types": {
      "t_address": {
        "encoding": "inplace",
        "label": "address",
        "numberOfBytes": "20"
      },
      "t_array(t_struct(Proposal)4544_storage)dyn_storage": {
        "base": "t_struct(Proposal)4544_storage",
        "encoding": "dynamic_array",
        "label": "struct Battlefield.Proposal[]",
        "numberOfBytes": "32"
      },
      "t_array(t_uint256)dyn_storage": {
        "base": "t_uint256",
        "encoding": "dynamic_array",
        "label": "uint256[]",
        "numberOfBytes": "32"
      },
      "t_bool": {
        "encoding": "inplace",
        "label": "bool",
        "numberOfBytes": "1"
      },
      "t_contract(ARMY)3779": {
        "encoding": "inplace",
        "label": "contract ARMY",
        "numberOfBytes": "20"
      },
      "t_int256": {
        "encoding": "inplace",
        "label": "int256",
        "numberOfBytes": "32"
      },
      "t_mapping(t_address,t_bool)": {
        "encoding": "mapping",
        "key": "t_address",
        "label": "mapping(address => bool)",
        "numberOfBytes": "32",
        "value": "t_bool"
      },
      "t_mapping(t_address,t_mapping(t_address,t_bool))": {
        "encoding": "mapping",
        "key": "t_address",
        "label": "mapping(address => mapping(address => bool))",
        "numberOfBytes": "32",
        "value": "t_mapping(t_address,t_bool)"
      },
      "t_mapping(t_address,t_uint256)": {
        "encoding": "mapping",
        "key": "t_address",
        "label": "mapping(address => uint256)",
        "numberOfBytes": "32",
        "value": "t_uint256"
      },
      "t_mapping(t_uint256,t_address)": {
        "encoding": "mapping",
        "key": "t_uint256",
        "label": "mapping(uint256 => address)",
        "numberOfBytes": "32",
        "value": "t_address"
      },
      "t_mapping(t_uint256,t_array(t_uint256)dyn_storage)": {
        "encoding": "mapping",
        "key": "t_uint256",
        "label": "mapping(uint256 => uint256[])",
        "numberOfBytes": "32",
        "value": "t_array(t_uint256)dyn_storage"
      },
      "t_mapping(t_uint256,t_bool)": {
        "encoding": "mapping",
        "key": "t_uint256",
        "label": "mapping(uint256 => bool)",
        "numberOfBytes": "32",
        "value": "t_bool"
      },
      "t_mapping(t_uint256,t_string_storage)": {
        "encoding": "mapping",
        "key": "t_uint256",
        "label": "mapping(uint256 => string)",
        "numberOfBytes": "32",
        "value": "t_string_storage"
      },
      "t_mapping(t_uint256,t_uint256)": {
        "encoding": "mapping",
        "key": "t_uint256",
        "label": "mapping(uint256 => uint256)",
        "numberOfBytes": "32",
        "value": "t_uint256"
      },
      "t_string_storage": {
        "encoding": "bytes",
        "label": "string",
        "numberOfBytes": "32"
      },
      "t_struct(Proposal)4544_storage": {
        "encoding": "inplace",
        "label": "struct Battlefield.Proposal",
        "members": [
          {
            "astId": 4539,
            "contract": "contracts/Battlefield.sol:Battlefield",
            "label": "proposer",
            "offset": 0,
            "slot": "0",
            "type": "t_address"
          },
          {
            "astId": 4541,
            "contract": "contracts/Battlefield.sol:Battlefield",
            "label": "prefixURI",
            "offset": 0,
            "slot": "1",
            "type": "t_string_storage"
          },
          {
            "astId": 4543,
            "contract": "contracts/Battlefield.sol:Battlefield",
            "label": "voteCount",
            "offset": 0,
            "slot": "2",
            "type": "t_uint256"
          }
        ],
        "numberOfBytes": "96"
      },
      "t_uint256": {
        "encoding": "inplace",
        "label": "uint256",
        "numberOfBytes": "32"
      }
    }
  }
}